{
  "contractName": "__unstable__ERC20PrimaryAdmin",
  "abi": [
    {
      "inputs": [
        {
          "internalType": "string",
          "name": "name",
          "type": "string"
        },
        {
          "internalType": "string",
          "name": "symbol",
          "type": "string"
        },
        {
          "internalType": "uint8",
          "name": "decimals",
          "type": "uint8"
        }
      ],
      "payable": false,
      "stateMutability": "nonpayable",
      "type": "constructor"
    },
    {
      "anonymous": false,
      "inputs": [
        {
          "indexed": true,
          "internalType": "address",
          "name": "owner",
          "type": "address"
        },
        {
          "indexed": true,
          "internalType": "address",
          "name": "spender",
          "type": "address"
        },
        {
          "indexed": false,
          "internalType": "uint256",
          "name": "value",
          "type": "uint256"
        }
      ],
      "name": "Approval",
      "type": "event"
    },
    {
      "anonymous": false,
      "inputs": [
        {
          "indexed": false,
          "internalType": "address",
          "name": "recipient",
          "type": "address"
        }
      ],
      "name": "PrimaryTransferred",
      "type": "event"
    },
    {
      "anonymous": false,
      "inputs": [
        {
          "indexed": true,
          "internalType": "address",
          "name": "from",
          "type": "address"
        },
        {
          "indexed": true,
          "internalType": "address",
          "name": "to",
          "type": "address"
        },
        {
          "indexed": false,
          "internalType": "uint256",
          "name": "value",
          "type": "uint256"
        }
      ],
      "name": "Transfer",
      "type": "event"
    },
    {
      "constant": false,
      "inputs": [
        {
          "internalType": "address",
          "name": "spender",
          "type": "address"
        },
        {
          "internalType": "uint256",
          "name": "amount",
          "type": "uint256"
        }
      ],
      "name": "approve",
      "outputs": [
        {
          "internalType": "bool",
          "name": "",
          "type": "bool"
        }
      ],
      "payable": false,
      "stateMutability": "nonpayable",
      "type": "function"
    },
    {
      "constant": true,
      "inputs": [
        {
          "internalType": "address",
          "name": "account",
          "type": "address"
        }
      ],
      "name": "balanceOf",
      "outputs": [
        {
          "internalType": "uint256",
          "name": "",
          "type": "uint256"
        }
      ],
      "payable": false,
      "stateMutability": "view",
      "type": "function"
    },
    {
      "constant": true,
      "inputs": [],
      "name": "decimals",
      "outputs": [
        {
          "internalType": "uint8",
          "name": "",
          "type": "uint8"
        }
      ],
      "payable": false,
      "stateMutability": "view",
      "type": "function"
    },
    {
      "constant": false,
      "inputs": [
        {
          "internalType": "address",
          "name": "spender",
          "type": "address"
        },
        {
          "internalType": "uint256",
          "name": "subtractedValue",
          "type": "uint256"
        }
      ],
      "name": "decreaseAllowance",
      "outputs": [
        {
          "internalType": "bool",
          "name": "",
          "type": "bool"
        }
      ],
      "payable": false,
      "stateMutability": "nonpayable",
      "type": "function"
    },
    {
      "constant": false,
      "inputs": [
        {
          "internalType": "address",
          "name": "spender",
          "type": "address"
        },
        {
          "internalType": "uint256",
          "name": "addedValue",
          "type": "uint256"
        }
      ],
      "name": "increaseAllowance",
      "outputs": [
        {
          "internalType": "bool",
          "name": "",
          "type": "bool"
        }
      ],
      "payable": false,
      "stateMutability": "nonpayable",
      "type": "function"
    },
    {
      "constant": true,
      "inputs": [],
      "name": "name",
      "outputs": [
        {
          "internalType": "string",
          "name": "",
          "type": "string"
        }
      ],
      "payable": false,
      "stateMutability": "view",
      "type": "function"
    },
    {
      "constant": true,
      "inputs": [],
      "name": "primary",
      "outputs": [
        {
          "internalType": "address",
          "name": "",
          "type": "address"
        }
      ],
      "payable": false,
      "stateMutability": "view",
      "type": "function"
    },
    {
      "constant": true,
      "inputs": [],
      "name": "symbol",
      "outputs": [
        {
          "internalType": "string",
          "name": "",
          "type": "string"
        }
      ],
      "payable": false,
      "stateMutability": "view",
      "type": "function"
    },
    {
      "constant": true,
      "inputs": [],
      "name": "totalSupply",
      "outputs": [
        {
          "internalType": "uint256",
          "name": "",
          "type": "uint256"
        }
      ],
      "payable": false,
      "stateMutability": "view",
      "type": "function"
    },
    {
      "constant": false,
      "inputs": [
        {
          "internalType": "address",
          "name": "recipient",
          "type": "address"
        },
        {
          "internalType": "uint256",
          "name": "amount",
          "type": "uint256"
        }
      ],
      "name": "transfer",
      "outputs": [
        {
          "internalType": "bool",
          "name": "",
          "type": "bool"
        }
      ],
      "payable": false,
      "stateMutability": "nonpayable",
      "type": "function"
    },
    {
      "constant": false,
      "inputs": [
        {
          "internalType": "address",
          "name": "recipient",
          "type": "address"
        }
      ],
      "name": "transferPrimary",
      "outputs": [],
      "payable": false,
      "stateMutability": "nonpayable",
      "type": "function"
    },
    {
      "constant": false,
      "inputs": [
        {
          "internalType": "address",
          "name": "account",
          "type": "address"
        },
        {
          "internalType": "uint256",
          "name": "amount",
          "type": "uint256"
        }
      ],
      "name": "mint",
      "outputs": [],
      "payable": false,
      "stateMutability": "nonpayable",
      "type": "function"
    },
    {
      "constant": true,
      "inputs": [
        {
          "internalType": "address",
          "name": "owner",
          "type": "address"
        },
        {
          "internalType": "address",
          "name": "spender",
          "type": "address"
        }
      ],
      "name": "allowance",
      "outputs": [
        {
          "internalType": "uint256",
          "name": "",
          "type": "uint256"
        }
      ],
      "payable": false,
      "stateMutability": "view",
      "type": "function"
    },
    {
      "constant": false,
      "inputs": [
        {
          "internalType": "address",
          "name": "sender",
          "type": "address"
        },
        {
          "internalType": "address",
          "name": "recipient",
          "type": "address"
        },
        {
          "internalType": "uint256",
          "name": "amount",
          "type": "uint256"
        }
      ],
      "name": "transferFrom",
      "outputs": [
        {
          "internalType": "bool",
          "name": "",
          "type": "bool"
        }
      ],
      "payable": false,
      "stateMutability": "nonpayable",
      "type": "function"
    }
  ],
  "bytecode": "0x60806040523480156200001157600080fd5b5060405162001b9a38038062001b9a833981810160405260608110156200003757600080fd5b81019080805160405193929190846401000000008211156200005857600080fd5b838201915060208201858111156200006f57600080fd5b82518660018202830111640100000000821117156200008d57600080fd5b8083526020830192505050908051906020019080838360005b83811015620000c3578082015181840152602081019050620000a6565b50505050905090810190601f168015620000f15780820380516001836020036101000a031916815260200191505b50604052602001805160405193929190846401000000008211156200011557600080fd5b838201915060208201858111156200012c57600080fd5b82518660018202830111640100000000821117156200014a57600080fd5b8083526020830192505050908051906020019080838360005b838110156200018057808201518184015260208101905062000163565b50505050905090810190601f168015620001ae5780820380516001836020036101000a031916815260200191505b50604052602001805190602001909291905050508282828260039080519060200190620001dd929190620002df565b508160049080519060200190620001f6929190620002df565b5080600560006101000a81548160ff021916908360ff160217905550505050600062000227620002d760201b60201c565b905080600560016101000a81548173ffffffffffffffffffffffffffffffffffffffff021916908373ffffffffffffffffffffffffffffffffffffffff1602179055507f4101e71e974f68df5e9730cc223280b41654676bbb052cdcc735c3337e64d2d981604051808273ffffffffffffffffffffffffffffffffffffffff1673ffffffffffffffffffffffffffffffffffffffff16815260200191505060405180910390a1505050506200038e565b600033905090565b828054600181600116156101000203166002900490600052602060002090601f016020900481019282601f106200032257805160ff191683800117855562000353565b8280016001018555821562000353579182015b828111156200035257825182559160200191906001019062000335565b5b50905062000362919062000366565b5090565b6200038b91905b80821115620003875760008160009055506001016200036d565b5090565b90565b6117fc806200039e6000396000f3fe608060405234801561001057600080fd5b50600436106100ea5760003560e01c806340c10f191161008c578063a457c2d711610066578063a457c2d714610473578063a9059cbb146104d9578063c6dbdf611461053f578063dd62ed3e14610589576100ea565b806340c10f191461034a57806370a082311461039857806395d89b41146103f0576100ea565b80632348238c116100c85780632348238c146101f657806323b872dd1461023a578063313ce567146102c057806339509351146102e4576100ea565b806306fdde03146100ef578063095ea7b31461017257806318160ddd146101d8575b600080fd5b6100f7610601565b6040518080602001828103825283818151815260200191508051906020019080838360005b8381101561013757808201518184015260208101905061011c565b50505050905090810190601f1680156101645780820380516001836020036101000a031916815260200191505b509250505060405180910390f35b6101be6004803603604081101561018857600080fd5b81019080803573ffffffffffffffffffffffffffffffffffffffff169060200190929190803590602001909291905050506106a3565b604051808215151515815260200191505060405180910390f35b6101e06106c1565b6040518082815260200191505060405180910390f35b6102386004803603602081101561020c57600080fd5b81019080803573ffffffffffffffffffffffffffffffffffffffff1690602001909291905050506106cb565b005b6102a66004803603606081101561025057600080fd5b81019080803573ffffffffffffffffffffffffffffffffffffffff169060200190929190803573ffffffffffffffffffffffffffffffffffffffff169060200190929190803590602001909291905050506108a5565b604051808215151515815260200191505060405180910390f35b6102c861090b565b604051808260ff1660ff16815260200191505060405180910390f35b610330600480360360408110156102fa57600080fd5b81019080803573ffffffffffffffffffffffffffffffffffffffff16906020019092919080359060200190929190505050610922565b604051808215151515815260200191505060405180910390f35b6103966004803603604081101561036057600080fd5b81019080803573ffffffffffffffffffffffffffffffffffffffff169060200190929190803590602001909291905050506109d5565b005b6103da600480360360208110156103ae57600080fd5b81019080803573ffffffffffffffffffffffffffffffffffffffff169060200190929190505050610a90565b6040518082815260200191505060405180910390f35b6103f8610ad8565b6040518080602001828103825283818151815260200191508051906020019080838360005b8381101561043857808201518184015260208101905061041d565b50505050905090810190601f1680156104655780820380516001836020036101000a031916815260200191505b509250505060405180910390f35b6104bf6004803603604081101561048957600080fd5b81019080803573ffffffffffffffffffffffffffffffffffffffff16906020019092919080359060200190929190505050610b7a565b604051808215151515815260200191505060405180910390f35b610525600480360360408110156104ef57600080fd5b81019080803573ffffffffffffffffffffffffffffffffffffffff16906020019092919080359060200190929190505050610c47565b604051808215151515815260200191505060405180910390f35b610547610c65565b604051808273ffffffffffffffffffffffffffffffffffffffff1673ffffffffffffffffffffffffffffffffffffffff16815260200191505060405180910390f35b6105eb6004803603604081101561059f57600080fd5b81019080803573ffffffffffffffffffffffffffffffffffffffff169060200190929190803573ffffffffffffffffffffffffffffffffffffffff169060200190929190505050610c8f565b6040518082815260200191505060405180910390f35b606060038054600181600116156101000203166002900480601f0160208091040260200160405190810160405280929190818152602001828054600181600116156101000203166002900480156106995780601f1061066e57610100808354040283529160200191610699565b820191906000526020600020905b81548152906001019060200180831161067c57829003601f168201915b5050505050905090565b60006106b76106b0610d07565b8484610d0f565b6001905092915050565b6000600254905090565b600560019054906101000a900473ffffffffffffffffffffffffffffffffffffffff1673ffffffffffffffffffffffffffffffffffffffff1661070c610d07565b73ffffffffffffffffffffffffffffffffffffffff1614610778576040517f08c379a000000000000000000000000000000000000000000000000000000000815260040180806020018281038252602c815260200180611753602c913960400191505060405180910390fd5b600073ffffffffffffffffffffffffffffffffffffffff168173ffffffffffffffffffffffffffffffffffffffff1614156107fe576040517f08c379a000000000000000000000000000000000000000000000000000000000815260040180806020018281038252602a815260200180611704602a913960400191505060405180910390fd5b80600560016101000a81548173ffffffffffffffffffffffffffffffffffffffff021916908373ffffffffffffffffffffffffffffffffffffffff1602179055507f4101e71e974f68df5e9730cc223280b41654676bbb052cdcc735c3337e64d2d981604051808273ffffffffffffffffffffffffffffffffffffffff1673ffffffffffffffffffffffffffffffffffffffff16815260200191505060405180910390a150565b60006108af610c65565b73ffffffffffffffffffffffffffffffffffffffff168373ffffffffffffffffffffffffffffffffffffffff1614156108f6576108ed848484610d60565b60019050610904565b610901848484611016565b90505b9392505050565b6000600560009054906101000a900460ff16905090565b60006109cb61092f610d07565b846109c68560016000610940610d07565b73ffffffffffffffffffffffffffffffffffffffff1673ffffffffffffffffffffffffffffffffffffffff16815260200190815260200160002060008973ffffffffffffffffffffffffffffffffffffffff1673ffffffffffffffffffffffffffffffffffffffff168152602001908152602001600020546110ef90919063ffffffff16565b610d0f565b6001905092915050565b600560019054906101000a900473ffffffffffffffffffffffffffffffffffffffff1673ffffffffffffffffffffffffffffffffffffffff16610a16610d07565b73ffffffffffffffffffffffffffffffffffffffff1614610a82576040517f08c379a000000000000000000000000000000000000000000000000000000000815260040180806020018281038252602c815260200180611753602c913960400191505060405180910390fd5b610a8c8282611177565b5050565b60008060008373ffffffffffffffffffffffffffffffffffffffff1673ffffffffffffffffffffffffffffffffffffffff168152602001908152602001600020549050919050565b606060048054600181600116156101000203166002900480601f016020809104026020016040519081016040528092919081815260200182805460018160011615610100020316600290048015610b705780601f10610b4557610100808354040283529160200191610b70565b820191906000526020600020905b815481529060010190602001808311610b5357829003601f168201915b5050505050905090565b6000610c3d610b87610d07565b84610c38856040518060600160405280602581526020016117a36025913960016000610bb1610d07565b73ffffffffffffffffffffffffffffffffffffffff1673ffffffffffffffffffffffffffffffffffffffff16815260200190815260200160002060008a73ffffffffffffffffffffffffffffffffffffffff1673ffffffffffffffffffffffffffffffffffffffff168152602001908152602001600020546113329092919063ffffffff16565b610d0f565b6001905092915050565b6000610c5b610c54610d07565b8484610d60565b6001905092915050565b6000600560019054906101000a900473ffffffffffffffffffffffffffffffffffffffff16905090565b6000610c99610c65565b73ffffffffffffffffffffffffffffffffffffffff168273ffffffffffffffffffffffffffffffffffffffff161415610cf4577fffffffffffffffffffffffffffffffffffffffffffffffffffffffffffffffff9050610d01565b610cfe83836113f2565b90505b92915050565b600033905090565b610d17610c65565b73ffffffffffffffffffffffffffffffffffffffff168273ffffffffffffffffffffffffffffffffffffffff161415610d4f57610d5b565b610d5a838383611479565b5b505050565b600073ffffffffffffffffffffffffffffffffffffffff168373ffffffffffffffffffffffffffffffffffffffff161415610de6576040517f08c379a000000000000000000000000000000000000000000000000000000000815260040180806020018281038252602581526020018061172e6025913960400191505060405180910390fd5b600073ffffffffffffffffffffffffffffffffffffffff168273ffffffffffffffffffffffffffffffffffffffff161415610e6c576040517f08c379a00000000000000000000000000000000000000000000000000000000081526004018080602001828103825260238152602001806116716023913960400191505060405180910390fd5b610ed7816040518060600160405280602681526020016116b6602691396000808773ffffffffffffffffffffffffffffffffffffffff1673ffffffffffffffffffffffffffffffffffffffff168152602001908152602001600020546113329092919063ffffffff16565b6000808573ffffffffffffffffffffffffffffffffffffffff1673ffffffffffffffffffffffffffffffffffffffff16815260200190815260200160002081905550610f6a816000808573ffffffffffffffffffffffffffffffffffffffff1673ffffffffffffffffffffffffffffffffffffffff168152602001908152602001600020546110ef90919063ffffffff16565b6000808473ffffffffffffffffffffffffffffffffffffffff1673ffffffffffffffffffffffffffffffffffffffff168152602001908152602001600020819055508173ffffffffffffffffffffffffffffffffffffffff168373ffffffffffffffffffffffffffffffffffffffff167fddf252ad1be2c89b69c2b068fc378daa952ba7f163c4a11628f55a4df523b3ef836040518082815260200191505060405180910390a3505050565b6000611023848484610d60565b6110e48461102f610d07565b6110df856040518060600160405280602881526020016116dc60289139600160008b73ffffffffffffffffffffffffffffffffffffffff1673ffffffffffffffffffffffffffffffffffffffff1681526020019081526020016000206000611095610d07565b73ffffffffffffffffffffffffffffffffffffffff1673ffffffffffffffffffffffffffffffffffffffff168152602001908152602001600020546113329092919063ffffffff16565b610d0f565b600190509392505050565b60008082840190508381101561116d576040517f08c379a000000000000000000000000000000000000000000000000000000000815260040180806020018281038252601b8152602001807f536166654d6174683a206164646974696f6e206f766572666c6f77000000000081525060200191505060405180910390fd5b8091505092915050565b600073ffffffffffffffffffffffffffffffffffffffff168273ffffffffffffffffffffffffffffffffffffffff16141561121a576040517f08c379a000000000000000000000000000000000000000000000000000000000815260040180806020018281038252601f8152602001807f45524332303a206d696e7420746f20746865207a65726f20616464726573730081525060200191505060405180910390fd5b61122f816002546110ef90919063ffffffff16565b600281905550611286816000808573ffffffffffffffffffffffffffffffffffffffff1673ffffffffffffffffffffffffffffffffffffffff168152602001908152602001600020546110ef90919063ffffffff16565b6000808473ffffffffffffffffffffffffffffffffffffffff1673ffffffffffffffffffffffffffffffffffffffff168152602001908152602001600020819055508173ffffffffffffffffffffffffffffffffffffffff16600073ffffffffffffffffffffffffffffffffffffffff167fddf252ad1be2c89b69c2b068fc378daa952ba7f163c4a11628f55a4df523b3ef836040518082815260200191505060405180910390a35050565b60008383111582906113df576040517f08c379a00000000000000000000000000000000000000000000000000000000081526004018080602001828103825283818151815260200191508051906020019080838360005b838110156113a4578082015181840152602081019050611389565b50505050905090810190601f1680156113d15780820380516001836020036101000a031916815260200191505b509250505060405180910390fd5b5060008385039050809150509392505050565b6000600160008473ffffffffffffffffffffffffffffffffffffffff1673ffffffffffffffffffffffffffffffffffffffff16815260200190815260200160002060008373ffffffffffffffffffffffffffffffffffffffff1673ffffffffffffffffffffffffffffffffffffffff16815260200190815260200160002054905092915050565b600073ffffffffffffffffffffffffffffffffffffffff168373ffffffffffffffffffffffffffffffffffffffff1614156114ff576040517f08c379a000000000000000000000000000000000000000000000000000000000815260040180806020018281038252602481526020018061177f6024913960400191505060405180910390fd5b600073ffffffffffffffffffffffffffffffffffffffff168273ffffffffffffffffffffffffffffffffffffffff161415611585576040517f08c379a00000000000000000000000000000000000000000000000000000000081526004018080602001828103825260228152602001806116946022913960400191505060405180910390fd5b80600160008573ffffffffffffffffffffffffffffffffffffffff1673ffffffffffffffffffffffffffffffffffffffff16815260200190815260200160002060008473ffffffffffffffffffffffffffffffffffffffff1673ffffffffffffffffffffffffffffffffffffffff168152602001908152602001600020819055508173ffffffffffffffffffffffffffffffffffffffff168373ffffffffffffffffffffffffffffffffffffffff167f8c5be1e5ebec7d5bd14f71427d1e84f3dd0314c0f7b2291e5b200ac8c7c3b925836040518082815260200191505060405180910390a350505056fe45524332303a207472616e7366657220746f20746865207a65726f206164647265737345524332303a20617070726f766520746f20746865207a65726f206164647265737345524332303a207472616e7366657220616d6f756e7420657863656564732062616c616e636545524332303a207472616e7366657220616d6f756e74206578636565647320616c6c6f77616e63655365636f6e646172793a206e6577207072696d61727920697320746865207a65726f206164647265737345524332303a207472616e736665722066726f6d20746865207a65726f20616464726573735365636f6e646172793a2063616c6c6572206973206e6f7420746865207072696d617279206163636f756e7445524332303a20617070726f76652066726f6d20746865207a65726f206164647265737345524332303a2064656372656173656420616c6c6f77616e63652062656c6f77207a65726fa265627a7a72315820d100513b8fc1147062951cd6982802f135dbf7084db07b4b0d2f10e985876e0f64736f6c63430005100032",
  "source": "pragma solidity ^0.5.0;\n\nimport \"./GSNRecipient.sol\";\nimport \"../math/SafeMath.sol\";\nimport \"../ownership/Secondary.sol\";\nimport \"../token/ERC20/SafeERC20.sol\";\nimport \"../token/ERC20/ERC20.sol\";\nimport \"../token/ERC20/ERC20Detailed.sol\";\n\n/**\n * @dev A xref:ROOT:gsn-strategies.adoc#gsn-strategies[GSN strategy] that charges transaction fees in a special purpose ERC20\n * token, which we refer to as the gas payment token. The amount charged is exactly the amount of Ether charged to the\n * recipient. This means that the token is essentially pegged to the value of Ether.\n *\n * The distribution strategy of the gas payment token to users is not defined by this contract. It's a mintable token\n * whose only minter is the recipient, so the strategy must be implemented in a derived contract, making use of the\n * internal {_mint} function.\n */\ncontract GSNRecipientERC20Fee is GSNRecipient {\n    using SafeERC20 for __unstable__ERC20PrimaryAdmin;\n    using SafeMath for uint256;\n\n    enum GSNRecipientERC20FeeErrorCodes {\n        INSUFFICIENT_BALANCE\n    }\n\n    __unstable__ERC20PrimaryAdmin private _token;\n\n    /**\n     * @dev The arguments to the constructor are the details that the gas payment token will have: `name` and `symbol`. `decimals` is hard-coded to 18.\n     */\n    constructor(string memory name, string memory symbol) public {\n        _token = new __unstable__ERC20PrimaryAdmin(name, symbol, 18);\n    }\n\n    /**\n     * @dev Returns the gas payment token.\n     */\n    function token() public view returns (IERC20) {\n        return IERC20(_token);\n    }\n\n    /**\n     * @dev Internal function that mints the gas payment token. Derived contracts should expose this function in their public API, with proper access control mechanisms.\n     */\n    function _mint(address account, uint256 amount) internal {\n        _token.mint(account, amount);\n    }\n\n    /**\n     * @dev Ensures that only users with enough gas payment token balance can have transactions relayed through the GSN.\n     */\n    function acceptRelayedCall(\n        address,\n        address from,\n        bytes calldata,\n        uint256 transactionFee,\n        uint256 gasPrice,\n        uint256,\n        uint256,\n        bytes calldata,\n        uint256 maxPossibleCharge\n    )\n        external\n        view\n        returns (uint256, bytes memory)\n    {\n        if (_token.balanceOf(from) < maxPossibleCharge) {\n            return _rejectRelayedCall(uint256(GSNRecipientERC20FeeErrorCodes.INSUFFICIENT_BALANCE));\n        }\n\n        return _approveRelayedCall(abi.encode(from, maxPossibleCharge, transactionFee, gasPrice));\n    }\n\n    /**\n     * @dev Implements the precharge to the user. The maximum possible charge (depending on gas limit, gas price, and\n     * fee) will be deducted from the user balance of gas payment token. Note that this is an overestimation of the\n     * actual charge, necessary because we cannot predict how much gas the execution will actually need. The remainder\n     * is returned to the user in {_postRelayedCall}.\n     */\n    function _preRelayedCall(bytes memory context) internal returns (bytes32) {\n        (address from, uint256 maxPossibleCharge) = abi.decode(context, (address, uint256));\n\n        // The maximum token charge is pre-charged from the user\n        _token.safeTransferFrom(from, address(this), maxPossibleCharge);\n    }\n\n    /**\n     * @dev Returns to the user the extra amount that was previously charged, once the actual execution cost is known.\n     */\n    function _postRelayedCall(bytes memory context, bool, uint256 actualCharge, bytes32) internal {\n        (address from, uint256 maxPossibleCharge, uint256 transactionFee, uint256 gasPrice) =\n            abi.decode(context, (address, uint256, uint256, uint256));\n\n        // actualCharge is an _estimated_ charge, which assumes postRelayedCall will use all available gas.\n        // This implementation's gas cost can be roughly estimated as 10k gas, for the two SSTORE operations in an\n        // ERC20 transfer.\n        uint256 overestimation = _computeCharge(POST_RELAYED_CALL_MAX_GAS.sub(10000), gasPrice, transactionFee);\n        actualCharge = actualCharge.sub(overestimation);\n\n        // After the relayed call has been executed and the actual charge estimated, the excess pre-charge is returned\n        _token.safeTransfer(from, maxPossibleCharge.sub(actualCharge));\n    }\n}\n\n/**\n * @title __unstable__ERC20PrimaryAdmin\n * @dev An ERC20 token owned by another contract, which has minting permissions and can use transferFrom to receive\n * anyone's tokens. This contract is an internal helper for GSNRecipientERC20Fee, and should not be used\n * outside of this context.\n */\n// solhint-disable-next-line contract-name-camelcase\ncontract __unstable__ERC20PrimaryAdmin is ERC20, ERC20Detailed, Secondary {\n    uint256 private constant UINT256_MAX = 2**256 - 1;\n\n    constructor(string memory name, string memory symbol, uint8 decimals) public ERC20Detailed(name, symbol, decimals) {\n        // solhint-disable-previous-line no-empty-blocks\n    }\n\n    // The primary account (GSNRecipientERC20Fee) can mint tokens\n    function mint(address account, uint256 amount) public onlyPrimary {\n        _mint(account, amount);\n    }\n\n    // The primary account has 'infinite' allowance for all token holders\n    function allowance(address owner, address spender) public view returns (uint256) {\n        if (spender == primary()) {\n            return UINT256_MAX;\n        } else {\n            return super.allowance(owner, spender);\n        }\n    }\n\n    // Allowance for the primary account cannot be changed (it is always 'infinite')\n    function _approve(address owner, address spender, uint256 value) internal {\n        if (spender == primary()) {\n            return;\n        } else {\n            super._approve(owner, spender, value);\n        }\n    }\n\n    function transferFrom(address sender, address recipient, uint256 amount) public returns (bool) {\n        if (recipient == primary()) {\n            _transfer(sender, recipient, amount);\n            return true;\n        } else {\n            return super.transferFrom(sender, recipient, amount);\n        }\n    }\n}\n",
  "sourcePath": "/home/jack/ethProjects/MS-Factory/contracts/zeppeline/GSN/GSNRecipientERC20Fee.sol",
  "compiler": {
    "name": "solc",
    "version": "0.5.16+commit.9c3226ce.Emscripten.clang"
  },
  "schemaVersion": "3.0.23",
  "updatedAt": "2020-02-11T18:39:52.028Z",
  "devdoc": {
    "details": "An ERC20 token owned by another contract, which has minting permissions and can use transferFrom to receive anyone's tokens. This contract is an internal helper for GSNRecipientERC20Fee, and should not be used outside of this context.",
    "methods": {
      "approve(address,uint256)": {
        "details": "See {IERC20-approve}.     * Requirements:     * - `spender` cannot be the zero address."
      },
      "balanceOf(address)": {
        "details": "See {IERC20-balanceOf}."
      },
      "decimals()": {
        "details": "Returns the number of decimals used to get its user representation. For example, if `decimals` equals `2`, a balance of `505` tokens should be displayed to a user as `5,05` (`505 / 10 ** 2`).     * Tokens usually opt for a value of 18, imitating the relationship between Ether and Wei.     * NOTE: This information is only used for _display_ purposes: it in no way affects any of the arithmetic of the contract, including {IERC20-balanceOf} and {IERC20-transfer}."
      },
      "decreaseAllowance(address,uint256)": {
        "details": "Atomically decreases the allowance granted to `spender` by the caller.     * This is an alternative to {approve} that can be used as a mitigation for problems described in {IERC20-approve}.     * Emits an {Approval} event indicating the updated allowance.     * Requirements:     * - `spender` cannot be the zero address. - `spender` must have allowance for the caller of at least `subtractedValue`."
      },
      "increaseAllowance(address,uint256)": {
        "details": "Atomically increases the allowance granted to `spender` by the caller.     * This is an alternative to {approve} that can be used as a mitigation for problems described in {IERC20-approve}.     * Emits an {Approval} event indicating the updated allowance.     * Requirements:     * - `spender` cannot be the zero address."
      },
      "name()": {
        "details": "Returns the name of the token."
      },
      "primary()": {
        "return": "the address of the primary."
      },
      "symbol()": {
        "details": "Returns the symbol of the token, usually a shorter version of the name."
      },
      "totalSupply()": {
        "details": "See {IERC20-totalSupply}."
      },
      "transfer(address,uint256)": {
        "details": "See {IERC20-transfer}.     * Requirements:     * - `recipient` cannot be the zero address. - the caller must have a balance of at least `amount`."
      },
      "transferPrimary(address)": {
        "details": "Transfers contract to a new primary.",
        "params": {
          "recipient": "The address of new primary."
        }
      }
    },
    "title": "__unstable__ERC20PrimaryAdmin"
  },
  "userdoc": {
    "methods": {}
  }
}