{
  "contractName": "Deposit",
  "abi": [
    {
      "inputs": [],
      "payable": true,
      "stateMutability": "payable",
      "type": "constructor"
    },
    {
      "anonymous": false,
      "inputs": [
        {
          "indexed": true,
          "internalType": "address",
          "name": "previousOwner",
          "type": "address"
        },
        {
          "indexed": true,
          "internalType": "address",
          "name": "newOwner",
          "type": "address"
        }
      ],
      "name": "OwnershipTransferred",
      "type": "event"
    },
    {
      "anonymous": false,
      "inputs": [
        {
          "indexed": true,
          "internalType": "address",
          "name": "user",
          "type": "address"
        },
        {
          "indexed": false,
          "internalType": "uint256",
          "name": "amount",
          "type": "uint256"
        },
        {
          "indexed": true,
          "internalType": "string",
          "name": "uuid",
          "type": "string"
        }
      ],
      "name": "cashInRequestEvent",
      "type": "event"
    },
    {
      "anonymous": false,
      "inputs": [
        {
          "indexed": true,
          "internalType": "address",
          "name": "user",
          "type": "address"
        },
        {
          "indexed": false,
          "internalType": "uint256",
          "name": "amount",
          "type": "uint256"
        },
        {
          "indexed": false,
          "internalType": "string",
          "name": "purce",
          "type": "string"
        }
      ],
      "name": "cashOutRequestEvent",
      "type": "event"
    },
    {
      "anonymous": false,
      "inputs": [
        {
          "indexed": true,
          "internalType": "address",
          "name": "user",
          "type": "address"
        },
        {
          "indexed": false,
          "internalType": "uint256",
          "name": "amount",
          "type": "uint256"
        },
        {
          "indexed": true,
          "internalType": "uint256",
          "name": "txid",
          "type": "uint256"
        },
        {
          "indexed": false,
          "internalType": "string",
          "name": "err_msg",
          "type": "string"
        }
      ],
      "name": "cashOutRevertEvent",
      "type": "event"
    },
    {
      "payable": true,
      "stateMutability": "payable",
      "type": "fallback"
    },
    {
      "constant": true,
      "inputs": [
        {
          "internalType": "string",
          "name": "",
          "type": "string"
        }
      ],
      "name": "InRequest",
      "outputs": [
        {
          "internalType": "string",
          "name": "paymentType",
          "type": "string"
        },
        {
          "internalType": "string",
          "name": "fiat_uuid",
          "type": "string"
        },
        {
          "internalType": "uint256",
          "name": "amount",
          "type": "uint256"
        },
        {
          "internalType": "address payable",
          "name": "user_wallet",
          "type": "address"
        },
        {
          "internalType": "address",
          "name": "submited_by",
          "type": "address"
        },
        {
          "internalType": "bool",
          "name": "executed",
          "type": "bool"
        },
        {
          "internalType": "string",
          "name": "payload",
          "type": "string"
        }
      ],
      "payable": false,
      "stateMutability": "view",
      "type": "function"
    },
    {
      "constant": true,
      "inputs": [
        {
          "internalType": "uint256",
          "name": "",
          "type": "uint256"
        }
      ],
      "name": "OutRequest",
      "outputs": [
        {
          "internalType": "string",
          "name": "paymentType",
          "type": "string"
        },
        {
          "internalType": "uint256",
          "name": "amount",
          "type": "uint256"
        },
        {
          "internalType": "address payable",
          "name": "wallet_from",
          "type": "address"
        },
        {
          "internalType": "string",
          "name": "purce",
          "type": "string"
        },
        {
          "internalType": "uint256",
          "name": "tx_id",
          "type": "uint256"
        },
        {
          "internalType": "bool",
          "name": "executed",
          "type": "bool"
        }
      ],
      "payable": false,
      "stateMutability": "view",
      "type": "function"
    },
    {
      "constant": true,
      "inputs": [],
      "name": "isOwner",
      "outputs": [
        {
          "internalType": "bool",
          "name": "",
          "type": "bool"
        }
      ],
      "payable": false,
      "stateMutability": "view",
      "type": "function"
    },
    {
      "constant": true,
      "inputs": [],
      "name": "owner",
      "outputs": [
        {
          "internalType": "address",
          "name": "",
          "type": "address"
        }
      ],
      "payable": false,
      "stateMutability": "view",
      "type": "function"
    },
    {
      "constant": false,
      "inputs": [],
      "name": "renounceOwnership",
      "outputs": [],
      "payable": false,
      "stateMutability": "nonpayable",
      "type": "function"
    },
    {
      "constant": false,
      "inputs": [
        {
          "internalType": "address",
          "name": "newOwner",
          "type": "address"
        }
      ],
      "name": "transferOwnership",
      "outputs": [],
      "payable": false,
      "stateMutability": "nonpayable",
      "type": "function"
    },
    {
      "constant": false,
      "inputs": [
        {
          "internalType": "string",
          "name": "purce",
          "type": "string"
        },
        {
          "internalType": "string",
          "name": "paymentType",
          "type": "string"
        }
      ],
      "name": "cashOutRequest",
      "outputs": [],
      "payable": true,
      "stateMutability": "payable",
      "type": "function"
    },
    {
      "constant": false,
      "inputs": [
        {
          "internalType": "address payable",
          "name": "user",
          "type": "address"
        },
        {
          "internalType": "string",
          "name": "uuid",
          "type": "string"
        },
        {
          "internalType": "uint256",
          "name": "amount",
          "type": "uint256"
        }
      ],
      "name": "cashInRequest",
      "outputs": [],
      "payable": false,
      "stateMutability": "nonpayable",
      "type": "function"
    },
    {
      "constant": false,
      "inputs": [
        {
          "internalType": "string",
          "name": "uuid",
          "type": "string"
        }
      ],
      "name": "cashInSubmit",
      "outputs": [],
      "payable": false,
      "stateMutability": "nonpayable",
      "type": "function"
    },
    {
      "constant": false,
      "inputs": [
        {
          "internalType": "uint256",
          "name": "tx_id",
          "type": "uint256"
        }
      ],
      "name": "cashOutSubmit",
      "outputs": [],
      "payable": false,
      "stateMutability": "nonpayable",
      "type": "function"
    },
    {
      "constant": false,
      "inputs": [
        {
          "internalType": "uint256",
          "name": "tx_id",
          "type": "uint256"
        },
        {
          "internalType": "string",
          "name": "err_msg",
          "type": "string"
        }
      ],
      "name": "cashOutRevert",
      "outputs": [],
      "payable": false,
      "stateMutability": "nonpayable",
      "type": "function"
    }
  ],
  "bytecode": "0x608060405260006100176001600160e01b0361006616565b600080546001600160a01b0319166001600160a01b0383169081178255604051929350917f8be0079c531659141344cd1fd0a4f28419497f9722a3daafe3b4186f6b6457e0908290a35061006a565b3390565b611a8d806100796000396000f3fe60806040526004361061009c5760003560e01c80638da5cb5b116100645780638da5cb5b1461050d5780638f32d59b1461053e57806390b8089714610567578063e2b6bc85146106a1578063f00fc11014610764578063f2fde38b1461081c5761009c565b8063021ce0cd146100d357806334ae76f2146100ff5780633fb4b5de14610228578063715018a6146104475780638a3cac3c1461045c575b60405162461bcd60e51b8152600401808060200182810382526021815260200180611a186021913960400191505060405180910390fd5b3480156100df57600080fd5b506100fd600480360360208110156100f657600080fd5b503561084f565b005b6100fd6004803603604081101561011557600080fd5b810190602081018135600160201b81111561012f57600080fd5b82018360208201111561014157600080fd5b803590602001918460018302840111600160201b8311171561016257600080fd5b91908080601f0160208091040260200160405190810160405280939291908181526020018383808284376000920191909152509295949360208101935035915050600160201b8111156101b457600080fd5b8201836020820111156101c657600080fd5b803590602001918460018302840111600160201b831117156101e757600080fd5b91908080601f016020809104026020016040519081016040528093929190818152602001838380828437600092019190915250929550610a56945050505050565b34801561023457600080fd5b506102d96004803603602081101561024b57600080fd5b810190602081018135600160201b81111561026557600080fd5b82018360208201111561027757600080fd5b803590602001918460018302840111600160201b8311171561029857600080fd5b91908080601f016020809104026020016040519081016040528093929190818152602001838380828437600092019190915250929550610bf1945050505050565b604080519081018690526001600160a01b0380861660608301528416608082015282151560a082015260e08082528851908201528751819060208083019160c0840191610100850191908d019080838360005b8381101561034457818101518382015260200161032c565b50505050905090810190601f1680156103715780820380516001836020036101000a031916815260200191505b5084810383528a5181528a516020918201918c019080838360005b838110156103a457818101518382015260200161038c565b50505050905090810190601f1680156103d15780820380516001836020036101000a031916815260200191505b50848103825285518152855160209182019187019080838360005b838110156104045781810151838201526020016103ec565b50505050905090810190601f1680156104315780820380516001836020036101000a031916815260200191505b509a505050505050505050505060405180910390f35b34801561045357600080fd5b506100fd610df2565b34801561046857600080fd5b506100fd6004803603602081101561047f57600080fd5b810190602081018135600160201b81111561049957600080fd5b8201836020820111156104ab57600080fd5b803590602001918460018302840111600160201b831117156104cc57600080fd5b91908080601f016020809104026020016040519081016040528093929190818152602001838380828437600092019190915250929550610e83945050505050565b34801561051957600080fd5b5061052261127d565b604080516001600160a01b039092168252519081900360200190f35b34801561054a57600080fd5b5061055361128d565b604080519115158252519081900360200190f35b34801561057357600080fd5b506105916004803603602081101561058a57600080fd5b50356112b1565b6040518080602001878152602001866001600160a01b03166001600160a01b031681526020018060200185815260200184151515158152602001838103835289818151815260200191508051906020019080838360005b838110156106005781810151838201526020016105e8565b50505050905090810190601f16801561062d5780820380516001836020036101000a031916815260200191505b50838103825286518152865160209182019188019080838360005b83811015610660578181015183820152602001610648565b50505050905090810190601f16801561068d5780820380516001836020036101000a031916815260200191505b509850505050505050505060405180910390f35b3480156106ad57600080fd5b506100fd600480360360608110156106c457600080fd5b6001600160a01b038235169190810190604081016020820135600160201b8111156106ee57600080fd5b82018360208201111561070057600080fd5b803590602001918460018302840111600160201b8311171561072157600080fd5b91908080601f016020809104026020016040519081016040528093929190818152602001838380828437600092019190915250929550509135925061140e915050565b34801561077057600080fd5b506100fd6004803603604081101561078757600080fd5b81359190810190604081016020820135600160201b8111156107a857600080fd5b8201836020820111156107ba57600080fd5b803590602001918460018302840111600160201b831117156107db57600080fd5b91908080601f01602080910402602001604051908101604052809392919081815260200183838082843760009201919091525092955061162e945050505050565b34801561082857600080fd5b506100fd6004803603602081101561083f57600080fd5b50356001600160a01b031661174a565b61085761128d565b610896576040805162461bcd60e51b81526020600482018190526024820152600080516020611a39833981519152604482015290519081900360640190fd5b61089e611894565b6000828152600360209081526040918290208251815460026001821615610100026000190190911604601f8101849004909302810160e090810190945260c0810183815290939192849284919084018282801561093c5780601f106109115761010080835404028352916020019161093c565b820191906000526020600020905b81548152906001019060200180831161091f57829003601f168201915b50505091835250506001828101546020808401919091526002808501546001600160a01b031660408086019190915260038601805482516101009682161596909602600019011692909204601f810184900484028501840190915280845260609094019390918301828280156109f35780601f106109c8576101008083540402835291602001916109f3565b820191906000526020600020905b8154815290600101906020018083116109d657829003601f168201915b50505091835250506004820154602082015260059091015460ff161515604090910152600060a0820152905060405162461bcd60e51b81526004018080602001828103825260338152602001806119e56033913960400191505060405180910390fd5b3433610a60611894565b838152602081018390526001600160a01b038216604082015260608101859052600060a0820152610a91600161179d565b610a9b60016117a6565b608082018190526000818152600360209081526040909120835180518593610ac79284929101906118d5565b50602082810151600183015560408301516002830180546001600160a01b0319166001600160a01b0390921691909117905560608301518051610b1092600385019201906118d5565b506080820151816004015560a08201518160050160006101000a81548160ff021916908315150217905550905050826001600160a01b03167f51ab2593a5027d6d349f47998805aa648323b8f40cbefaabcfb7cc6277990a3a85886040518083815260200180602001828103825283818151815260200191508051906020019080838360005b83811015610bae578181015183820152602001610b96565b50505050905090810190601f168015610bdb5780820380516001836020036101000a031916815260200191505b50935050505060405180910390a2505050505050565b805180820160209081018051600280835293830194830194909420939052825460408051601f600019610100600186161502019093169490940491820183900483028401830190528083528391830182828015610c8f5780601f10610c6457610100808354040283529160200191610c8f565b820191906000526020600020905b815481529060010190602001808311610c7257829003601f168201915b505050505090806001018054600181600116156101000203166002900480601f016020809104026020016040519081016040528092919081815260200182805460018160011615610100020316600290048015610d2d5780601f10610d0257610100808354040283529160200191610d2d565b820191906000526020600020905b815481529060010190602001808311610d1057829003601f168201915b50505050600283810154600385015460048601546005870180546040805160206101006001851615026000190190931697909704601f8101839004830288018301909152808752979894976001600160a01b03948516975093831695600160a01b90930460ff16949390830182828015610de85780601f10610dbd57610100808354040283529160200191610de8565b820191906000526020600020905b815481529060010190602001808311610dcb57829003601f168201915b5050505050905087565b610dfa61128d565b610e39576040805162461bcd60e51b81526020600482018190526024820152600080516020611a39833981519152604482015290519081900360640190fd5b600080546040516001600160a01b03909116907f8be0079c531659141344cd1fd0a4f28419497f9722a3daafe3b4186f6b6457e0908390a3600080546001600160a01b0319169055565b610e8b61128d565b610eca576040805162461bcd60e51b81526020600482018190526024820152600080516020611a39833981519152604482015290519081900360640190fd5b610ed2611953565b6002826040518082805190602001908083835b60208310610f045780518252601f199092019160209182019101610ee5565b518151602093840361010090810a600019908101801990941693909216929092179092529290940196875260408051978890038201882080546002600182161586029097011695909504601f810183900490920288018301905260e0870181815293955086945085925090840182828015610fc05780601f10610f9557610100808354040283529160200191610fc0565b820191906000526020600020905b815481529060010190602001808311610fa357829003601f168201915b50505050508152602001600182018054600181600116156101000203166002900480601f0160208091040260200160405190810160405280929190818152602001828054600181600116156101000203166002900480156110625780601f1061103757610100808354040283529160200191611062565b820191906000526020600020905b81548152906001019060200180831161104557829003601f168201915b505050918352505060028281015460208084019190915260038401546001600160a01b0390811660408086019190915260048601549182166060860152600160a01b90910460ff161515608085015260058501805482516101006001831615026000190190911694909404601f810184900484028501840190925281845260a090940193918301828280156111385780601f1061110d57610100808354040283529160200191611138565b820191906000526020600020905b81548152906001019060200180831161111b57829003601f168201915b505050919092525050600060a083015250905060405162461bcd60e51b81526004018080602001828103825260338152602001806119e56033913960400191505060405180910390fd5b602083106111a15780518252601f199092019160209182019101611182565b51815160209384036101000a60001901801990921691161790529201948552506040519384900381019093208451805191946111e2945085935001906118d5565b5060208281015180516111fb92600185019201906118d5565b506040820151600282015560608201516003820180546001600160a01b03199081166001600160a01b0393841617909155608084015160048401805460a08701519316919093161760ff60a01b1916600160a01b9115159190910217905560c082015180516112749160058401916020909101906118d5565b50505050505050565b6000546001600160a01b03165b90565b600080546001600160a01b03166112a26117aa565b6001600160a01b031614905090565b60036020908152600091825260409182902080548351601f600260001961010060018616150201909316929092049182018490048402810184019094528084529092918391908301828280156113485780601f1061131d57610100808354040283529160200191611348565b820191906000526020600020905b81548152906001019060200180831161132b57829003601f168201915b505050600180850154600280870154600388018054604080516020601f600019998516156101000299909901909316959095049687018290048202850182019052858452979893976001600160a01b0390921696509294509092908301828280156113f45780601f106113c9576101008083540402835291602001916113f4565b820191906000526020600020905b8154815290600101906020018083116113d757829003601f168201915b50505050600483015460059093015491929160ff16905086565b61141661128d565b611455576040805162461bcd60e51b81526020600482018190526024820152600080516020611a39833981519152604482015290519081900360640190fd5b61145d611953565b602081018390526001600160a01b038416606082015233608082015260408101829052611489816117ae565b806002846040518082805190602001908083835b602083106114bc5780518252601f19909201916020918201910161149d565b51815160209384036101000a60001901801990921691161790529201948552506040519384900381019093208451805191946114fd945085935001906118d5565b50602082810151805161151692600185019201906118d5565b506040820151600282015560608201516003820180546001600160a01b03199081166001600160a01b0393841617909155608084015160048401805460a08701519316919093161760ff60a01b1916600160a01b9115159190910217905560c0820151805161158f9160058401916020909101906118d5565b50905050826040518082805190602001908083835b602083106115c35780518252601f1990920191602091820191016115a4565b51815160209384036101000a60001901801990921691161790526040805192909401829003822088835293519395506001600160a01b038a1694507fe6d3c69bf41366e6392c93656bdfe09104b47ef9a500b54eefc068a54f0dcf1a9391829003019150a350505050565b61163661128d565b611675576040805162461bcd60e51b81526020600482018190526024820152600080516020611a39833981519152604482015290519081900360640190fd5b61167d611894565b6000838152600360209081526040918290208251815460026001821615610100026000190190911604601f8101849004909302810160e090810190945260c0810183815290939192849284919084018282801561093c5780601f106109115761010080835404028352916020019161093c565b838110156117085781810151838201526020016116f0565b50505050905090810190601f1680156117355780820380516001836020036101000a031916815260200191505b50935050505060405180910390a35050505050565b61175261128d565b611791576040805162461bcd60e51b81526020600482018190526024820152600080516020611a39833981519152604482015290519081900360640190fd5b61179a816117f4565b50565b80546001019055565b5490565b3390565b606081015160408083015190516001600160a01b0383169082156108fc029083906000818181858888f193505050501580156117ee573d6000803e3d6000fd5b50505050565b6001600160a01b0381166118395760405162461bcd60e51b81526004018080602001828103825260268152602001806119bf6026913960400191505060405180910390fd5b600080546040516001600160a01b03808516939216917f8be0079c531659141344cd1fd0a4f28419497f9722a3daafe3b4186f6b6457e091a3600080546001600160a01b0319166001600160a01b0392909216919091179055565b6040518060c00160405280606081526020016000815260200160006001600160a01b0316815260200160608152602001600081526020016000151581525090565b828054600181600116156101000203166002900490600052602060002090601f016020900481019282601f1061191657805160ff1916838001178555611943565b82800160010185558215611943579182015b82811115611943578251825591602001919060010190611928565b5061194f9291506119a4565b5090565b6040518060e0016040528060608152602001606081526020016000815260200160006001600160a01b0316815260200160006001600160a01b03168152602001600015158152602001606081525090565b61128a91905b8082111561194f57600081556001016119aa56fe4f776e61626c653a206e6577206f776e657220697320746865207a65726f20616464726573737472616e73616374696f6e20697320616c72656164792065786563757465642120287265656e7472616e63792067756172642963616e277420636173684f757420776974686f7574206f757420616464726573734f776e61626c653a2063616c6c6572206973206e6f7420746865206f776e6572a265627a7a72315820ff86c46414e39050bca23f34c12c1e1eeaf5b748027b1e9b6197ac6b843fa07164736f6c63430005110032",
  "source": "\npragma solidity ^0.5.11;\n\nimport './zeppeline/ownership/Ownable.sol';\nimport \"./zeppeline/drafts/Counters.sol\";\n\ncontract Deposit is Ownable {\n\nusing Counters for Counters.Counter;\nusing SafeMath for uint256;\n/*\nEvents\n*/\n\n// this event invoke when someone want to cashout funds to plastic card\n// this event should been catched by 'cashier' service and procced tx out at Fiat payment processer\n// amount is in Wei, so cashier probably need to convert it\nevent cashOutRequestEvent(address indexed user, uint amount, string purce);\n\n// TODO add indexed payload to event\n\nevent cashInRequestEvent(address indexed user, uint amount, string indexed uuid);\n\nevent cashOutRevertEvent(address indexed user, uint amount, uint256 indexed txid, string err_msg);\n\n/*\nConstants\n*/\n\nCounters.Counter tx_id_out;\n\n//uint balance;\n\n// fiat uuid = request\nmapping (string => IRequest) public InRequest;\n\n// tx.id (out) = request\nmapping (uint256 => ORequest) public OutRequest;\n\n//mapping (string => bool) public Executed\n\nstruct IRequest {\n\n    string paymentType;\n    string fiat_uuid;       // ID of transaction at unitpay side\n    uint amount;            // sum\n    address payable user_wallet; // In unitpay system it's params[account]\n   // string fiat_address; -- we are not processing this info\n\n    address submited_by; // moonshard operator\n    bool executed;\n    string payload; // should not be secret info\n}\n\nstruct ORequest {\n\n    string paymentType;\n    uint amount;\n    address payable wallet_from;\n    string purce; // fiat destination address\n    uint256 tx_id;  // tx id on OUR side\n    bool executed;\n}\n\nconstructor() public payable {\n\n}\n\n\n\n\n// cash out\nfunction cashOutRequest(string memory purce, string memory paymentType) public payable {\n    uint amount = msg.value;\n    address payable wallet_from = address(msg.sender);\n\n    ORequest memory orq;\n    orq.paymentType = paymentType;\n    orq.amount = amount;    // FIXME: add amount conversion\n    orq.wallet_from = wallet_from;\n    orq.purce = purce;\n    orq.executed = false;\n\n    tx_id_out.increment();\n    orq.tx_id = tx_id_out.current();\n    uint256 id = orq.tx_id;\n\n    OutRequest[id] = orq;\n\n    emit cashOutRequestEvent(wallet_from, amount, purce);\n}\n\n// cash in\n// cashier submit request for cash in while getting events from Fiat payment processor\nfunction cashInRequest(address payable user, string memory uuid, uint amount) public onlyOwner {\n\n    \n    IRequest memory irq;\n    irq.fiat_uuid = uuid;\n    irq.user_wallet = user;\n   // irq.fiat_address = from;\n    irq.submited_by = msg.sender;\n    irq.amount = amount;\n  //  irq.executed = false;\n    proceedTransactionIN(irq);\n\n    InRequest[uuid] = irq;\n\n\n    emit cashInRequestEvent(user,amount,uuid);\n}\n\n\n// **WARN** -- DEPRECATED\n//\n// TODO Validator key can be added here to prove (submit) transaction from FIAT processor. \n// It 's not neccerily, as we could just use the blockchain validation itself, but do it in more transcendent way\n// FIXME : change onlyOwner to onlyValidator\nfunction cashInSubmit(string memory uuid) public onlyOwner {\n    IRequest memory irq;\n    irq = InRequest[uuid];\n    require(irq.executed = false, \"transaction is already executed! (reentrancy guard)\");\n    address payable _user = irq.user_wallet;\n    uint amount = irq.amount;\n    // Do some conversion for amount (FIXME)\n    // ...\n\n    // FIXME : use internal proceedTransaction instead\n    _user.transfer(amount);\n    irq.executed = true;\n    InRequest[uuid] = irq;\n\n\n}\n\nfunction cashOutSubmit(uint256 tx_id) public onlyOwner {\n    ORequest memory orq;\n    orq = OutRequest[tx_id];\n    require(orq.executed = false, \"transaction is already executed! (reentrancy guard)\");\n    orq.executed = true;\n    OutRequest[tx_id] = orq;\n}\n\nfunction cashOutRevert(uint256 tx_id, string memory err_msg) public onlyOwner {\n    ORequest memory orq;\n    orq = OutRequest[tx_id];\n    require(orq.executed = false, \"transaction is already executed! (reentrancy guard)\");\n    address payable user = orq.wallet_from;\n    uint amount = orq.amount;\n    user.transfer(amount);\n\n    emit cashOutRevertEvent(user,amount,tx_id,err_msg);\n\n}\n\nfunction proceedTransactionIN(IRequest memory ts) internal {\n    address payable _user = ts.user_wallet;\n    uint amount = ts.amount;\n    _user.transfer(amount);\n}\n\n\n\n\n\n// fallback\nfunction() external payable {\n  //  cashOutRequest()\n  // don't allow user to cashOut without pointing destination\n  revert(\"can't cashOut without out address\");\n}\n\n\n}",
  "sourcePath": "/home/jack/ethProjects/MS-Factory/contracts/Deposit.sol",
  "compiler": {
    "name": "solc",
    "version": "0.5.17+commit.d19bba13.Emscripten.clang"
  },
  "schemaVersion": "3.0.11",
  "updatedAt": "2020-05-12T12:11:51.545Z",
  "devdoc": {
    "methods": {
      "isOwner()": {
        "details": "Returns true if the caller is the current owner."
      },
      "owner()": {
        "details": "Returns the address of the current owner."
      },
      "renounceOwnership()": {
        "details": "Leaves the contract without owner. It will not be possible to call `onlyOwner` functions anymore. Can only be called by the current owner.     * NOTE: Renouncing ownership will leave the contract without an owner, thereby removing any functionality that is only available to the owner."
      },
      "transferOwnership(address)": {
        "details": "Transfers ownership of the contract to a new account (`newOwner`). Can only be called by the current owner."
      }
    }
  },
  "userdoc": {
    "methods": {}
  }
}