{
  "contractName": "Deposit",
  "abi": [
    {
      "anonymous": false,
      "inputs": [
        {
          "indexed": true,
          "internalType": "address",
          "name": "previousOwner",
          "type": "address"
        },
        {
          "indexed": true,
          "internalType": "address",
          "name": "newOwner",
          "type": "address"
        }
      ],
      "name": "OwnershipTransferred",
      "type": "event"
    },
    {
      "anonymous": false,
      "inputs": [
        {
          "indexed": true,
          "internalType": "string",
          "name": "from",
          "type": "string"
        },
        {
          "indexed": true,
          "internalType": "address",
          "name": "user",
          "type": "address"
        },
        {
          "indexed": false,
          "internalType": "uint256",
          "name": "amount",
          "type": "uint256"
        },
        {
          "indexed": true,
          "internalType": "string",
          "name": "uuid",
          "type": "string"
        }
      ],
      "name": "cashInRequestEvent",
      "type": "event"
    },
    {
      "anonymous": false,
      "inputs": [
        {
          "indexed": true,
          "internalType": "string",
          "name": "destination",
          "type": "string"
        },
        {
          "indexed": true,
          "internalType": "address",
          "name": "user",
          "type": "address"
        },
        {
          "indexed": false,
          "internalType": "uint256",
          "name": "amount",
          "type": "uint256"
        }
      ],
      "name": "cashOutRequestEvent",
      "type": "event"
    },
    {
      "payable": true,
      "stateMutability": "payable",
      "type": "fallback"
    },
    {
      "constant": true,
      "inputs": [
        {
          "internalType": "string",
          "name": "",
          "type": "string"
        }
      ],
      "name": "InRequest",
      "outputs": [
        {
          "internalType": "string",
          "name": "fiat_uuid",
          "type": "string"
        },
        {
          "internalType": "uint256",
          "name": "amount",
          "type": "uint256"
        },
        {
          "internalType": "address payable",
          "name": "user",
          "type": "address"
        },
        {
          "internalType": "string",
          "name": "fiat_address",
          "type": "string"
        },
        {
          "internalType": "address",
          "name": "submited_by",
          "type": "address"
        },
        {
          "internalType": "bool",
          "name": "executed",
          "type": "bool"
        }
      ],
      "payable": false,
      "stateMutability": "view",
      "type": "function"
    },
    {
      "constant": true,
      "inputs": [],
      "name": "isOwner",
      "outputs": [
        {
          "internalType": "bool",
          "name": "",
          "type": "bool"
        }
      ],
      "payable": false,
      "stateMutability": "view",
      "type": "function"
    },
    {
      "constant": true,
      "inputs": [],
      "name": "owner",
      "outputs": [
        {
          "internalType": "address",
          "name": "",
          "type": "address"
        }
      ],
      "payable": false,
      "stateMutability": "view",
      "type": "function"
    },
    {
      "constant": false,
      "inputs": [],
      "name": "renounceOwnership",
      "outputs": [],
      "payable": false,
      "stateMutability": "nonpayable",
      "type": "function"
    },
    {
      "constant": false,
      "inputs": [
        {
          "internalType": "address",
          "name": "newOwner",
          "type": "address"
        }
      ],
      "name": "transferOwnership",
      "outputs": [],
      "payable": false,
      "stateMutability": "nonpayable",
      "type": "function"
    },
    {
      "constant": false,
      "inputs": [
        {
          "internalType": "string",
          "name": "destination",
          "type": "string"
        },
        {
          "internalType": "address",
          "name": "user",
          "type": "address"
        }
      ],
      "name": "cashOutRequest",
      "outputs": [],
      "payable": true,
      "stateMutability": "payable",
      "type": "function"
    },
    {
      "constant": false,
      "inputs": [
        {
          "internalType": "string",
          "name": "from",
          "type": "string"
        },
        {
          "internalType": "address payable",
          "name": "user",
          "type": "address"
        },
        {
          "internalType": "string",
          "name": "uuid",
          "type": "string"
        },
        {
          "internalType": "uint256",
          "name": "amount",
          "type": "uint256"
        }
      ],
      "name": "cashInRequest",
      "outputs": [],
      "payable": false,
      "stateMutability": "nonpayable",
      "type": "function"
    },
    {
      "constant": false,
      "inputs": [
        {
          "internalType": "string",
          "name": "uuid",
          "type": "string"
        }
      ],
      "name": "cashInSubmit",
      "outputs": [],
      "payable": false,
      "stateMutability": "nonpayable",
      "type": "function"
    }
  ],
  "bytecode": "0x608060405260006100146100b760201b60201c565b9050806000806101000a81548173ffffffffffffffffffffffffffffffffffffffff021916908373ffffffffffffffffffffffffffffffffffffffff1602179055508073ffffffffffffffffffffffffffffffffffffffff16600073ffffffffffffffffffffffffffffffffffffffff167f8be0079c531659141344cd1fd0a4f28419497f9722a3daafe3b4186f6b6457e060405160405180910390a3506100bf565b600033905090565b6117b3806100ce6000396000f3fe60806040526004361061007b5760003560e01c80638f32d59b1161004e5780638f32d59b146104275780639b65f4e314610456578063d91f86b2146105df578063f2fde38b146106ba5761007b565b80633fb4b5de146100cc578063715018a6146102f15780638a3cac3c146103085780638da5cb5b146103d0575b6040517f08c379a000000000000000000000000000000000000000000000000000000000815260040180806020018281038252602181526020018061175e6021913960400191505060405180910390fd5b3480156100d857600080fd5b50610192600480360360208110156100ef57600080fd5b810190808035906020019064010000000081111561010c57600080fd5b82018360208201111561011e57600080fd5b8035906020019184600183028401116401000000008311171561014057600080fd5b91908080601f016020809104026020016040519081016040528093929190818152602001838380828437600081840152601f19601f82011690508083019250505050505050919291929050505061070b565b60405180806020018781526020018673ffffffffffffffffffffffffffffffffffffffff1673ffffffffffffffffffffffffffffffffffffffff168152602001806020018573ffffffffffffffffffffffffffffffffffffffff1673ffffffffffffffffffffffffffffffffffffffff16815260200184151515158152602001838103835289818151815260200191508051906020019080838360005b8381101561024a57808201518184015260208101905061022f565b50505050905090810190601f1680156102775780820380516001836020036101000a031916815260200191505b50838103825286818151815260200191508051906020019080838360005b838110156102b0578082015181840152602081019050610295565b50505050905090810190601f1680156102dd5780820380516001836020036101000a031916815260200191505b509850505050505050505060405180910390f35b3480156102fd57600080fd5b506103066108da565b005b34801561031457600080fd5b506103ce6004803603602081101561032b57600080fd5b810190808035906020019064010000000081111561034857600080fd5b82018360208201111561035a57600080fd5b8035906020019184600183028401116401000000008311171561037c57600080fd5b91908080601f016020809104026020016040519081016040528093929190818152602001838380828437600081840152601f19601f820116905080830192505050505050509192919290505050610a13565b005b3480156103dc57600080fd5b506103e5610f54565b604051808273ffffffffffffffffffffffffffffffffffffffff1673ffffffffffffffffffffffffffffffffffffffff16815260200191505060405180910390f35b34801561043357600080fd5b5061043c610f7d565b604051808215151515815260200191505060405180910390f35b34801561046257600080fd5b506105dd6004803603608081101561047957600080fd5b810190808035906020019064010000000081111561049657600080fd5b8201836020820111156104a857600080fd5b803590602001918460018302840111640100000000831117156104ca57600080fd5b91908080601f016020809104026020016040519081016040528093929190818152602001838380828437600081840152601f19601f820116905080830192505050505050509192919290803573ffffffffffffffffffffffffffffffffffffffff1690602001909291908035906020019064010000000081111561054d57600080fd5b82018360208201111561055f57600080fd5b8035906020019184600183028401116401000000008311171561058157600080fd5b91908080601f016020809104026020016040519081016040528093929190818152602001838380828437600081840152601f19601f82011690508083019250505050505050919291929080359060200190929190505050610fdb565b005b6106b8600480360360408110156105f557600080fd5b810190808035906020019064010000000081111561061257600080fd5b82018360208201111561062457600080fd5b8035906020019184600183028401116401000000008311171561064657600080fd5b91908080601f016020809104026020016040519081016040528093929190818152602001838380828437600081840152601f19601f820116905080830192505050505050509192919290803573ffffffffffffffffffffffffffffffffffffffff169060200190929190505050611370565b005b3480156106c657600080fd5b50610709600480360360208110156106dd57600080fd5b81019080803573ffffffffffffffffffffffffffffffffffffffff169060200190929190505050611429565b005b600181805160208101820180518482526020830160208501208183528095505050505050600091509050806000018054600181600116156101000203166002900480601f0160208091040260200160405190810160405280929190818152602001828054600181600116156101000203166002900480156107cd5780601f106107a2576101008083540402835291602001916107cd565b820191906000526020600020905b8154815290600101906020018083116107b057829003601f168201915b5050505050908060010154908060020160009054906101000a900473ffffffffffffffffffffffffffffffffffffffff1690806003018054600181600116156101000203166002900480601f0160208091040260200160405190810160405280929190818152602001828054600181600116156101000203166002900480156108975780601f1061086c57610100808354040283529160200191610897565b820191906000526020600020905b81548152906001019060200180831161087a57829003601f168201915b5050505050908060040160009054906101000a900473ffffffffffffffffffffffffffffffffffffffff16908060040160149054906101000a900460ff16905086565b6108e2610f7d565b610954576040517f08c379a00000000000000000000000000000000000000000000000000000000081526004018080602001828103825260208152602001807f4f776e61626c653a2063616c6c6572206973206e6f7420746865206f776e657281525060200191505060405180910390fd5b600073ffffffffffffffffffffffffffffffffffffffff166000809054906101000a900473ffffffffffffffffffffffffffffffffffffffff1673ffffffffffffffffffffffffffffffffffffffff167f8be0079c531659141344cd1fd0a4f28419497f9722a3daafe3b4186f6b6457e060405160405180910390a360008060006101000a81548173ffffffffffffffffffffffffffffffffffffffff021916908373ffffffffffffffffffffffffffffffffffffffff160217905550565b610a1b610f7d565b610a8d576040517f08c379a00000000000000000000000000000000000000000000000000000000081526004018080602001828103825260208152602001807f4f776e61626c653a2063616c6c6572206973206e6f7420746865206f776e657281525060200191505060405180910390fd5b610a956115fb565b6001826040518082805190602001908083835b60208310610acb5780518252602082019150602081019050602083039250610aa8565b6001836020036101000a03801982511681845116808217855250505050505090500191505090815260200160405180910390206040518060c0016040529081600082018054600181600116156101000203166002900480601f016020809104026020016040519081016040528092919081815260200182805460018160011615610100020316600290048015610ba25780601f10610b7757610100808354040283529160200191610ba2565b820191906000526020600020905b815481529060010190602001808311610b8557829003601f168201915b50505050508152602001600182015481526020016002820160009054906101000a900473ffffffffffffffffffffffffffffffffffffffff1673ffffffffffffffffffffffffffffffffffffffff1673ffffffffffffffffffffffffffffffffffffffff168152602001600382018054600181600116156101000203166002900480601f016020809104026020016040519081016040528092919081815260200182805460018160011615610100020316600290048015610ca45780601f10610c7957610100808354040283529160200191610ca4565b820191906000526020600020905b815481529060010190602001808311610c8757829003601f168201915b505050505081526020016004820160009054906101000a900473ffffffffffffffffffffffffffffffffffffffff1673ffffffffffffffffffffffffffffffffffffffff1673ffffffffffffffffffffffffffffffffffffffff1681526020016004820160149054906101000a900460ff161515151581525050905060008160a00190151590811515815250610d85576040517f08c379a000000000000000000000000000000000000000000000000000000000815260040180806020018281038252603381526020018061172b6033913960400191505060405180910390fd5b6000816040015190506000826020015190508173ffffffffffffffffffffffffffffffffffffffff166108fc829081150290604051600060405180830381858888f19350505050158015610ddd573d6000803e3d6000fd5b5060018360a0019015159081151581525050826001856040518082805190602001908083835b60208310610e265780518252602082019150602081019050602083039250610e03565b6001836020036101000a03801982511681845116808217855250505050505090500191505090815260200160405180910390206000820151816000019080519060200190610e7592919061165f565b506020820151816001015560408201518160020160006101000a81548173ffffffffffffffffffffffffffffffffffffffff021916908373ffffffffffffffffffffffffffffffffffffffff1602179055506060820151816003019080519060200190610ee392919061165f565b5060808201518160040160006101000a81548173ffffffffffffffffffffffffffffffffffffffff021916908373ffffffffffffffffffffffffffffffffffffffff16021790555060a08201518160040160146101000a81548160ff02191690831515021790555090505050505050565b60008060009054906101000a900473ffffffffffffffffffffffffffffffffffffffff16905090565b60008060009054906101000a900473ffffffffffffffffffffffffffffffffffffffff1673ffffffffffffffffffffffffffffffffffffffff16610fbf6114af565b73ffffffffffffffffffffffffffffffffffffffff1614905090565b610fe3610f7d565b611055576040517f08c379a00000000000000000000000000000000000000000000000000000000081526004018080602001828103825260208152602001807f4f776e61626c653a2063616c6c6572206973206e6f7420746865206f776e657281525060200191505060405180910390fd5b816040518082805190602001908083835b602083106110895780518252602082019150602081019050602083039250611066565b6001836020036101000a03801982511681845116808217855250505050505090500191505060405180910390208373ffffffffffffffffffffffffffffffffffffffff16856040518082805190602001908083835b6020831061110157805182526020820191506020810190506020830392506110de565b6001836020036101000a03801982511681845116808217855250505050505090500191505060405180910390207fc7257fe765b6dd4946dfa7e3829b142c46f4566767caec90f8396dcaf7e625c1846040518082815260200191505060405180910390a461116d6115fb565b82816000018190525083816040019073ffffffffffffffffffffffffffffffffffffffff16908173ffffffffffffffffffffffffffffffffffffffff168152505084816060018190525033816080019073ffffffffffffffffffffffffffffffffffffffff16908173ffffffffffffffffffffffffffffffffffffffff16815250508181602001818152505060008160a0019015159081151581525050806001846040518082805190602001908083835b60208310611241578051825260208201915060208101905060208303925061121e565b6001836020036101000a0380198251168184511680821785525050505050509050019150509081526020016040518091039020600082015181600001908051906020019061129092919061165f565b506020820151816001015560408201518160020160006101000a81548173ffffffffffffffffffffffffffffffffffffffff021916908373ffffffffffffffffffffffffffffffffffffffff16021790555060608201518160030190805190602001906112fe92919061165f565b5060808201518160040160006101000a81548173ffffffffffffffffffffffffffffffffffffffff021916908373ffffffffffffffffffffffffffffffffffffffff16021790555060a08201518160040160146101000a81548160ff0219169083151502179055509050505050505050565b60003490508173ffffffffffffffffffffffffffffffffffffffff16836040518082805190602001908083835b602083106113c0578051825260208201915060208101905060208303925061139d565b6001836020036101000a03801982511681845116808217855250505050505090500191505060405180910390207fe3cb954797a95fbb1caebb51fad66117ac891d940890eb9c2d8c4e3051761288836040518082815260200191505060405180910390a3505050565b611431610f7d565b6114a3576040517f08c379a00000000000000000000000000000000000000000000000000000000081526004018080602001828103825260208152602001807f4f776e61626c653a2063616c6c6572206973206e6f7420746865206f776e657281525060200191505060405180910390fd5b6114ac816114b7565b50565b600033905090565b600073ffffffffffffffffffffffffffffffffffffffff168173ffffffffffffffffffffffffffffffffffffffff16141561153d576040517f08c379a00000000000000000000000000000000000000000000000000000000081526004018080602001828103825260268152602001806117056026913960400191505060405180910390fd5b8073ffffffffffffffffffffffffffffffffffffffff166000809054906101000a900473ffffffffffffffffffffffffffffffffffffffff1673ffffffffffffffffffffffffffffffffffffffff167f8be0079c531659141344cd1fd0a4f28419497f9722a3daafe3b4186f6b6457e060405160405180910390a3806000806101000a81548173ffffffffffffffffffffffffffffffffffffffff021916908373ffffffffffffffffffffffffffffffffffffffff16021790555050565b6040518060c001604052806060815260200160008152602001600073ffffffffffffffffffffffffffffffffffffffff16815260200160608152602001600073ffffffffffffffffffffffffffffffffffffffff1681526020016000151581525090565b828054600181600116156101000203166002900490600052602060002090601f016020900481019282601f106116a057805160ff19168380011785556116ce565b828001600101855582156116ce579182015b828111156116cd5782518255916020019190600101906116b2565b5b5090506116db91906116df565b5090565b61170191905b808211156116fd5760008160009055506001016116e5565b5090565b9056fe4f776e61626c653a206e6577206f776e657220697320746865207a65726f20616464726573737472616e73616374696f6e20697320616c72656164792065786563757465642120287265656e7472616e63792067756172642963616e277420636173684f757420776974686f7574206f75742061646472657373a265627a7a72315820512a9ad3e42675e9ab0d0932cb09792474e6b8931c4da75d54c4c1c0bc2779dc64736f6c63430005100032",
  "source": "\npragma solidity ^0.5.11;\n\nimport './zeppeline/ownership/Ownable.sol';\n\ncontract Deposit is Ownable {\n\n/*\nEvents\n*/\n\n// this event invoke when someone want to cashout funds to plastic card\n// this event should been catched by 'cashier' service and procced tx out at Fiat payment processer\n// amount is in Wei, so cashier probably need to convert it\nevent cashOutRequestEvent(string indexed destination, address indexed user, uint amount);\n\nevent cashInRequestEvent(string indexed from, address indexed user, uint amount, string indexed uuid);\n\n\n/*\nConstants\n*/\n\n\n// fiat uuid = request\nmapping (string => IRequest) public InRequest;\n\n//mapping (string => bool) public Executed\n\nstruct IRequest {\n\n    string fiat_uuid;\n    uint amount;\n    address payable user;\n    string fiat_address;\n    address submited_by;\n    bool executed;\n    // tx.data -- can be added for getting fiat tx.data and check it. \n    // but it's not secure..\n}\n\n\n// cash out\n\nfunction cashOutRequest(string memory destination, address user) public payable {\n    uint amount = msg.value;\n    emit cashOutRequestEvent(destination, user, amount);\n\n}\n\n// cash in\n// cashier submit request for cash in while getting events from Fiat payment processor\nfunction cashInRequest(string memory from, address payable user, string memory uuid, uint amount) public onlyOwner {\n\n    emit cashInRequestEvent(from,user,amount,uuid);\n\n    IRequest memory irq;\n    irq.fiat_uuid = uuid;\n    irq.user = user;\n    irq.fiat_address = from;\n    irq.submited_by = msg.sender;\n    irq.amount = amount;\n    irq.executed = false;\n\n    InRequest[uuid] = irq;\n\n\n}\n\n// TODO Validator key can be added here to prove (submit) transaction from FIAT processor. \n// It 's not neccerily, as we could just use the blockchain validation itself, but do it in more transcendent way\n// FIXME : change onlyOwner to onlyValidator\nfunction cashInSubmit(string memory uuid) public onlyOwner {\n    IRequest memory irq;\n    irq = InRequest[uuid];\n    require(irq.executed = false, \"transaction is already executed! (reentrancy guard)\");\n    address payable _user = irq.user;\n    uint amount = irq.amount;\n    // Do some conversion for amount (FIXME)\n    // ...\n\n    // FIXME : use internal proceedTransaction instead\n    _user.transfer(amount);\n    irq.executed = true;\n    InRequest[uuid] = irq;\n\n\n}\n\nfunction proceedTransaction(IRequest memory ts) internal {\n    address payable _user = ts.user;\n    uint amount = ts.amount;\n    _user.transfer(amount);\n}\n\n\n\n\n\n// fallback\nfunction() external payable {\n  //  cashOutRequest()\n  // don't allow user to cashOut without pointing destination\n  revert(\"can't cashOut without out address\");\n}\n\n\n}",
  "sourcePath": "/home/jack/ethProjects/MS-Factory/contracts/Deposit.sol",
  "compiler": {
    "name": "solc",
    "version": "0.5.16+commit.9c3226ce.Emscripten.clang"
  },
  "schemaVersion": "3.0.11",
  "updatedAt": "2020-02-24T14:49:17.845Z",
  "devdoc": {
    "methods": {
      "isOwner()": {
        "details": "Returns true if the caller is the current owner."
      },
      "owner()": {
        "details": "Returns the address of the current owner."
      },
      "renounceOwnership()": {
        "details": "Leaves the contract without owner. It will not be possible to call `onlyOwner` functions anymore. Can only be called by the current owner.     * NOTE: Renouncing ownership will leave the contract without an owner, thereby removing any functionality that is only available to the owner."
      },
      "transferOwnership(address)": {
        "details": "Transfers ownership of the contract to a new account (`newOwner`). Can only be called by the current owner."
      }
    }
  },
  "userdoc": {
    "methods": {}
  }
}