{
  "contractName": "ERC20Metadata",
  "abi": [
    {
      "inputs": [
        {
          "internalType": "string",
          "name": "tokenURI_",
          "type": "string"
        }
      ],
      "payable": false,
      "stateMutability": "nonpayable",
      "type": "constructor"
    },
    {
      "constant": true,
      "inputs": [],
      "name": "tokenURI",
      "outputs": [
        {
          "internalType": "string",
          "name": "",
          "type": "string"
        }
      ],
      "payable": false,
      "stateMutability": "view",
      "type": "function"
    }
  ],
  "bytecode": "0x608060405234801561001057600080fd5b506040516103313803806103318339818101604052602081101561003357600080fd5b810190808051604051939291908464010000000082111561005357600080fd5b90830190602082018581111561006857600080fd5b825164010000000081118282018810171561008257600080fd5b82525081516020918201929091019080838360005b838110156100af578181015183820152602001610097565b50505050905090810190601f1680156100dc5780820380516001836020036101000a031916815260200191505b506040525050506100f2816100f860201b60201c565b506101aa565b805161010b90600090602084019061010f565b5050565b828054600181600116156101000203166002900490600052602060002090601f016020900481019282601f1061015057805160ff191683800117855561017d565b8280016001018555821561017d579182015b8281111561017d578251825591602001919060010190610162565b5061018992915061018d565b5090565b6101a791905b808211156101895760008155600101610193565b90565b610178806101b96000396000f3fe608060405234801561001057600080fd5b506004361061002b5760003560e01c80633c130d9014610030575b600080fd5b6100386100ad565b6040805160208082528351818301528351919283929083019185019080838360005b8381101561007257818101518382015260200161005a565b50505050905090810190601f16801561009f5780820380516001836020036101000a031916815260200191505b509250505060405180910390f35b60008054604080516020601f60026000196101006001881615020190951694909404938401819004810282018101909252828152606093909290918301828280156101395780601f1061010e57610100808354040283529160200191610139565b820191906000526020600020905b81548152906001019060200180831161011c57829003601f168201915b505050505090509056fea265627a7a7231582016deb7319559676f6f2fc722c3bbf24a09b7a815acc8959a635b29ff30b9da7a64736f6c63430005110032",
  "source": "pragma solidity ^0.5.0;\n\nimport \"../../token/ERC20/IERC20.sol\";\n\n/**\n * @title ERC-1047 Token Metadata\n * @dev See https://eips.ethereum.org/EIPS/eip-1046\n * @dev {tokenURI} must respond with a URI that implements https://eips.ethereum.org/EIPS/eip-1047\n */\ncontract ERC20Metadata {\n    string private _tokenURI;\n\n    constructor (string memory tokenURI_) public {\n        _setTokenURI(tokenURI_);\n    }\n\n    function tokenURI() external view returns (string memory) {\n        return _tokenURI;\n    }\n\n    function _setTokenURI(string memory tokenURI_) internal {\n        _tokenURI = tokenURI_;\n    }\n}\n",
  "sourcePath": "/home/jack/ethProjects/MS-Factory/contracts/zeppeline/drafts/ERC1046/ERC20Metadata.sol",
  "compiler": {
    "name": "solc",
    "version": "0.5.17+commit.d19bba13.Emscripten.clang"
  },
  "schemaVersion": "3.0.11",
  "updatedAt": "2020-05-19T11:01:50.829Z",
  "devdoc": {
    "details": "See https://eips.ethereum.org/EIPS/eip-1046{tokenURI} must respond with a URI that implements https://eips.ethereum.org/EIPS/eip-1047",
    "methods": {},
    "title": "ERC-1047 Token Metadata"
  },
  "userdoc": {
    "methods": {}
  }
}