{
  "contractName": "ERC20Snapshot",
  "abi": [
    {
      "anonymous": false,
      "inputs": [
        {
          "indexed": true,
          "internalType": "address",
          "name": "owner",
          "type": "address"
        },
        {
          "indexed": true,
          "internalType": "address",
          "name": "spender",
          "type": "address"
        },
        {
          "indexed": false,
          "internalType": "uint256",
          "name": "value",
          "type": "uint256"
        }
      ],
      "name": "Approval",
      "type": "event"
    },
    {
      "anonymous": false,
      "inputs": [
        {
          "indexed": false,
          "internalType": "uint256",
          "name": "id",
          "type": "uint256"
        }
      ],
      "name": "Snapshot",
      "type": "event"
    },
    {
      "anonymous": false,
      "inputs": [
        {
          "indexed": true,
          "internalType": "address",
          "name": "from",
          "type": "address"
        },
        {
          "indexed": true,
          "internalType": "address",
          "name": "to",
          "type": "address"
        },
        {
          "indexed": false,
          "internalType": "uint256",
          "name": "value",
          "type": "uint256"
        }
      ],
      "name": "Transfer",
      "type": "event"
    },
    {
      "constant": true,
      "inputs": [
        {
          "internalType": "address",
          "name": "owner",
          "type": "address"
        },
        {
          "internalType": "address",
          "name": "spender",
          "type": "address"
        }
      ],
      "name": "allowance",
      "outputs": [
        {
          "internalType": "uint256",
          "name": "",
          "type": "uint256"
        }
      ],
      "payable": false,
      "stateMutability": "view",
      "type": "function"
    },
    {
      "constant": false,
      "inputs": [
        {
          "internalType": "address",
          "name": "spender",
          "type": "address"
        },
        {
          "internalType": "uint256",
          "name": "amount",
          "type": "uint256"
        }
      ],
      "name": "approve",
      "outputs": [
        {
          "internalType": "bool",
          "name": "",
          "type": "bool"
        }
      ],
      "payable": false,
      "stateMutability": "nonpayable",
      "type": "function"
    },
    {
      "constant": true,
      "inputs": [
        {
          "internalType": "address",
          "name": "account",
          "type": "address"
        }
      ],
      "name": "balanceOf",
      "outputs": [
        {
          "internalType": "uint256",
          "name": "",
          "type": "uint256"
        }
      ],
      "payable": false,
      "stateMutability": "view",
      "type": "function"
    },
    {
      "constant": false,
      "inputs": [
        {
          "internalType": "address",
          "name": "spender",
          "type": "address"
        },
        {
          "internalType": "uint256",
          "name": "subtractedValue",
          "type": "uint256"
        }
      ],
      "name": "decreaseAllowance",
      "outputs": [
        {
          "internalType": "bool",
          "name": "",
          "type": "bool"
        }
      ],
      "payable": false,
      "stateMutability": "nonpayable",
      "type": "function"
    },
    {
      "constant": false,
      "inputs": [
        {
          "internalType": "address",
          "name": "spender",
          "type": "address"
        },
        {
          "internalType": "uint256",
          "name": "addedValue",
          "type": "uint256"
        }
      ],
      "name": "increaseAllowance",
      "outputs": [
        {
          "internalType": "bool",
          "name": "",
          "type": "bool"
        }
      ],
      "payable": false,
      "stateMutability": "nonpayable",
      "type": "function"
    },
    {
      "constant": true,
      "inputs": [],
      "name": "totalSupply",
      "outputs": [
        {
          "internalType": "uint256",
          "name": "",
          "type": "uint256"
        }
      ],
      "payable": false,
      "stateMutability": "view",
      "type": "function"
    },
    {
      "constant": false,
      "inputs": [
        {
          "internalType": "address",
          "name": "recipient",
          "type": "address"
        },
        {
          "internalType": "uint256",
          "name": "amount",
          "type": "uint256"
        }
      ],
      "name": "transfer",
      "outputs": [
        {
          "internalType": "bool",
          "name": "",
          "type": "bool"
        }
      ],
      "payable": false,
      "stateMutability": "nonpayable",
      "type": "function"
    },
    {
      "constant": false,
      "inputs": [
        {
          "internalType": "address",
          "name": "sender",
          "type": "address"
        },
        {
          "internalType": "address",
          "name": "recipient",
          "type": "address"
        },
        {
          "internalType": "uint256",
          "name": "amount",
          "type": "uint256"
        }
      ],
      "name": "transferFrom",
      "outputs": [
        {
          "internalType": "bool",
          "name": "",
          "type": "bool"
        }
      ],
      "payable": false,
      "stateMutability": "nonpayable",
      "type": "function"
    },
    {
      "constant": false,
      "inputs": [],
      "name": "snapshot",
      "outputs": [
        {
          "internalType": "uint256",
          "name": "",
          "type": "uint256"
        }
      ],
      "payable": false,
      "stateMutability": "nonpayable",
      "type": "function"
    },
    {
      "constant": true,
      "inputs": [
        {
          "internalType": "address",
          "name": "account",
          "type": "address"
        },
        {
          "internalType": "uint256",
          "name": "snapshotId",
          "type": "uint256"
        }
      ],
      "name": "balanceOfAt",
      "outputs": [
        {
          "internalType": "uint256",
          "name": "",
          "type": "uint256"
        }
      ],
      "payable": false,
      "stateMutability": "view",
      "type": "function"
    },
    {
      "constant": true,
      "inputs": [
        {
          "internalType": "uint256",
          "name": "snapshotId",
          "type": "uint256"
        }
      ],
      "name": "totalSupplyAt",
      "outputs": [
        {
          "internalType": "uint256",
          "name": "",
          "type": "uint256"
        }
      ],
      "payable": false,
      "stateMutability": "view",
      "type": "function"
    }
  ],
  "bytecode": "0x6080604052610c25806100136000396000f3fe608060405234801561001057600080fd5b50600436106100a95760003560e01c806370a082311161007157806370a08231146101965780639711715a146101bc578063981b24d0146101c4578063a457c2d7146101e1578063a9059cbb1461020d578063dd62ed3e14610239576100a9565b8063095ea7b3146100ae57806318160ddd146100ee57806323b872dd14610108578063395093511461013e5780634ee2cd7e1461016a575b600080fd5b6100da600480360360408110156100c457600080fd5b506001600160a01b038135169060200135610267565b604080519115158252519081900360200190f35b6100f6610285565b60408051918252519081900360200190f35b6100da6004803603606081101561011e57600080fd5b506001600160a01b0381358116916020810135909116906040013561028b565b6100da6004803603604081101561015457600080fd5b506001600160a01b038135169060200135610318565b6100f66004803603604081101561018057600080fd5b506001600160a01b03813516906020013561036c565b6100f6600480360360208110156101ac57600080fd5b50356001600160a01b03166103b5565b6100f66103d4565b6100f6600480360360208110156101da57600080fd5b5035610428565b6100da600480360360408110156101f757600080fd5b506001600160a01b038135169060200135610458565b6100da6004803603604081101561022357600080fd5b506001600160a01b0381351690602001356104c6565b6100f66004803603604081101561024f57600080fd5b506001600160a01b03813581169160200135166104da565b600061027b610274610505565b8484610509565b5060015b92915050565b60025490565b60006102988484846105f5565b61030e846102a4610505565b61030985604051806060016040528060288152602001610b5b602891396001600160a01b038a166000908152600160205260408120906102e2610505565b6001600160a01b03168152602081019190915260400160002054919063ffffffff61061716565b610509565b5060019392505050565b600061027b610325610505565b846103098560016000610336610505565b6001600160a01b03908116825260208083019390935260409182016000908120918c16815292529020549063ffffffff6106ae16565b6001600160a01b03821660009081526003602052604081208190819061039390859061070f565b91509150816103aa576103a5856103b5565b6103ac565b805b95945050505050565b6001600160a01b0381166000908152602081905260409020545b919050565b60006103e06006610812565b60006103ec600661081b565b6040805182815290519192507f8030e83b04d87bef53480e26263266d6ca66863aa8506aca6f2559d18aa1cb67919081900360200190a1905090565b600080600061043884600461070f565b915091508161044e57610449610285565b610450565b805b949350505050565b600061027b610465610505565b8461030985604051806060016040528060258152602001610bcc602591396001600061048f610505565b6001600160a01b03908116825260208083019390935260409182016000908120918d1681529252902054919063ffffffff61061716565b600061027b6104d3610505565b84846105f5565b6001600160a01b03918216600090815260016020908152604080832093909416825291909152205490565b3390565b6001600160a01b03831661054e5760405162461bcd60e51b8152600401808060200182810382526024815260200180610ba86024913960400191505060405180910390fd5b6001600160a01b0382166105935760405162461bcd60e51b8152600401808060200182810382526022815260200180610b136022913960400191505060405180910390fd5b6001600160a01b03808416600081815260016020908152604080832094871680845294825291829020859055815185815291517f8c5be1e5ebec7d5bd14f71427d1e84f3dd0314c0f7b2291e5b200ac8c7c3b9259281900390910190a3505050565b6105fe8361081f565b6106078261081f565b61061283838361084c565b505050565b600081848411156106a65760405162461bcd60e51b81526004018080602001828103825283818151815260200191508051906020019080838360005b8381101561066b578181015183820152602001610653565b50505050905090810190601f1680156106985780820380516001836020036101000a031916815260200191505b509250505060405180910390fd5b505050900390565b600082820183811015610708576040805162461bcd60e51b815260206004820152601b60248201527f536166654d6174683a206164646974696f6e206f766572666c6f770000000000604482015290519081900360640190fd5b9392505050565b60008060008411610760576040805162461bcd60e51b815260206004820152601660248201527504552433230536e617073686f743a20696420697320360541b604482015290519081900360640190fd5b61076a600661081b565b8411156107be576040805162461bcd60e51b815260206004820152601d60248201527f4552433230536e617073686f743a206e6f6e6578697374656e74206964000000604482015290519081900360640190fd5b60006107d0848663ffffffff6109a816565b84549091508114156107e957506000915081905061080b565b60018460010182815481106107fa57fe5b906000526020600020015492509250505b9250929050565b80546001019055565b5490565b6001600160a01b038116600090815260036020526040902061084990610844836103b5565b610a49565b50565b6001600160a01b0383166108915760405162461bcd60e51b8152600401808060200182810382526025815260200180610b836025913960400191505060405180910390fd5b6001600160a01b0382166108d65760405162461bcd60e51b8152600401808060200182810382526023815260200180610af06023913960400191505060405180910390fd5b61091981604051806060016040528060268152602001610b35602691396001600160a01b038616600090815260208190526040902054919063ffffffff61061716565b6001600160a01b03808516600090815260208190526040808220939093559084168152205461094e908263ffffffff6106ae16565b6001600160a01b038084166000818152602081815260409182902094909455805185815290519193928716927fddf252ad1be2c89b69c2b068fc378daa952ba7f163c4a11628f55a4df523b3ef92918290030190a3505050565b81546000906109b95750600061027f565b82546000905b80821015610a085760006109d38383610a95565b9050848682815481106109e257fe5b906000526020600020015411156109fb57809150610a02565b8060010192505b506109bf565b600082118015610a30575083856001840381548110610a2357fe5b9060005260206000200154145b15610a41575060001901905061027f565b50905061027f565b6000610a55600661081b565b905080610a6184610aba565b1015610612578254600180820185556000858152602080822090930193909355938401805494850181558252902090910155565b60006002808306600285060181610aa857fe5b04600283046002850401019392505050565b8054600090610acb575060006103cf565b815482906000198101908110610add57fe5b906000526020600020015490506103cf56fe45524332303a207472616e7366657220746f20746865207a65726f206164647265737345524332303a20617070726f766520746f20746865207a65726f206164647265737345524332303a207472616e7366657220616d6f756e7420657863656564732062616c616e636545524332303a207472616e7366657220616d6f756e74206578636565647320616c6c6f77616e636545524332303a207472616e736665722066726f6d20746865207a65726f206164647265737345524332303a20617070726f76652066726f6d20746865207a65726f206164647265737345524332303a2064656372656173656420616c6c6f77616e63652062656c6f77207a65726fa265627a7a72315820cb70a41cc467783d519adff6cd7f34733b83b387e4a4a84a685e9cbeb1e9377564736f6c63430005110032",
  "source": "pragma solidity ^0.5.0;\n\nimport \"../math/SafeMath.sol\";\nimport \"../utils/Arrays.sol\";\nimport \"../drafts/Counters.sol\";\nimport \"../token/ERC20/ERC20.sol\";\n\n/**\n * @title ERC20 token with snapshots.\n * @dev Inspired by Jordi Baylina's\n * https://github.com/Giveth/minimd/blob/ea04d950eea153a04c51fa510b068b9dded390cb/contracts/MiniMeToken.sol[MiniMeToken]\n * to record historical balances.\n *\n * When a snapshot is made, the balances and total supply at the time of the snapshot are recorded for later\n * access.\n *\n * To make a snapshot, call the {snapshot} function, which will emit the {Snapshot} event and return a snapshot id.\n * To get the total supply from a snapshot, call the function {totalSupplyAt} with the snapshot id.\n * To get the balance of an account from a snapshot, call the {balanceOfAt} function with the snapshot id and the\n * account address.\n * @author Validity Labs AG <info@validitylabs.org>\n */\ncontract ERC20Snapshot is ERC20 {\n    using SafeMath for uint256;\n    using Arrays for uint256[];\n    using Counters for Counters.Counter;\n\n    // Snapshotted values have arrays of ids and the value corresponding to that id. These could be an array of a\n    // Snapshot struct, but that would impede usage of functions that work on an array.\n    struct Snapshots {\n        uint256[] ids;\n        uint256[] values;\n    }\n\n    mapping (address => Snapshots) private _accountBalanceSnapshots;\n    Snapshots private _totalSupplySnapshots;\n\n    // Snapshot ids increase monotonically, with the first value being 1. An id of 0 is invalid.\n    Counters.Counter private _currentSnapshotId;\n\n    event Snapshot(uint256 id);\n\n    // Creates a new snapshot id. Balances are only stored in snapshots on demand: unless a snapshot was taken, a\n    // balance change will not be recorded. This means the extra added cost of storing snapshotted balances is only paid\n    // when required, but is also flexible enough that it allows for e.g. daily snapshots.\n    function snapshot() public returns (uint256) {\n        _currentSnapshotId.increment();\n\n        uint256 currentId = _currentSnapshotId.current();\n        emit Snapshot(currentId);\n        return currentId;\n    }\n\n    function balanceOfAt(address account, uint256 snapshotId) public view returns (uint256) {\n        (bool snapshotted, uint256 value) = _valueAt(snapshotId, _accountBalanceSnapshots[account]);\n\n        return snapshotted ? value : balanceOf(account);\n    }\n\n    function totalSupplyAt(uint256 snapshotId) public view returns(uint256) {\n        (bool snapshotted, uint256 value) = _valueAt(snapshotId, _totalSupplySnapshots);\n\n        return snapshotted ? value : totalSupply();\n    }\n\n    // _transfer, _mint and _burn are the only functions where the balances are modified, so it is there that the\n    // snapshots are updated. Note that the update happens _before_ the balance change, with the pre-modified value.\n    // The same is true for the total supply and _mint and _burn.\n    function _transfer(address from, address to, uint256 value) internal {\n        _updateAccountSnapshot(from);\n        _updateAccountSnapshot(to);\n\n        super._transfer(from, to, value);\n    }\n\n    function _mint(address account, uint256 value) internal {\n        _updateAccountSnapshot(account);\n        _updateTotalSupplySnapshot();\n\n        super._mint(account, value);\n    }\n\n    function _burn(address account, uint256 value) internal {\n        _updateAccountSnapshot(account);\n        _updateTotalSupplySnapshot();\n\n        super._burn(account, value);\n    }\n\n    // When a valid snapshot is queried, there are three possibilities:\n    //  a) The queried value was not modified after the snapshot was taken. Therefore, a snapshot entry was never\n    //  created for this id, and all stored snapshot ids are smaller than the requested one. The value that corresponds\n    //  to this id is the current one.\n    //  b) The queried value was modified after the snapshot was taken. Therefore, there will be an entry with the\n    //  requested id, and its value is the one to return.\n    //  c) More snapshots were created after the requested one, and the queried value was later modified. There will be\n    //  no entry for the requested id: the value that corresponds to it is that of the smallest snapshot id that is\n    //  larger than the requested one.\n    //\n    // In summary, we need to find an element in an array, returning the index of the smallest value that is larger if\n    // it is not found, unless said value doesn't exist (e.g. when all values are smaller). Arrays.findUpperBound does\n    // exactly this.\n    function _valueAt(uint256 snapshotId, Snapshots storage snapshots)\n        private view returns (bool, uint256)\n    {\n        require(snapshotId > 0, \"ERC20Snapshot: id is 0\");\n        // solhint-disable-next-line max-line-length\n        require(snapshotId <= _currentSnapshotId.current(), \"ERC20Snapshot: nonexistent id\");\n\n        uint256 index = snapshots.ids.findUpperBound(snapshotId);\n\n        if (index == snapshots.ids.length) {\n            return (false, 0);\n        } else {\n            return (true, snapshots.values[index]);\n        }\n    }\n\n    function _updateAccountSnapshot(address account) private {\n        _updateSnapshot(_accountBalanceSnapshots[account], balanceOf(account));\n    }\n\n    function _updateTotalSupplySnapshot() private {\n        _updateSnapshot(_totalSupplySnapshots, totalSupply());\n    }\n\n    function _updateSnapshot(Snapshots storage snapshots, uint256 currentValue) private {\n        uint256 currentId = _currentSnapshotId.current();\n        if (_lastSnapshotId(snapshots.ids) < currentId) {\n            snapshots.ids.push(currentId);\n            snapshots.values.push(currentValue);\n        }\n    }\n\n    function _lastSnapshotId(uint256[] storage ids) private view returns (uint256) {\n        if (ids.length == 0) {\n            return 0;\n        } else {\n            return ids[ids.length - 1];\n        }\n    }\n}\n",
  "sourcePath": "/home/jack/ethProjects/MS-Factory/contracts/zeppeline/drafts/ERC20Snapshot.sol",
  "compiler": {
    "name": "solc",
    "version": "0.5.17+commit.d19bba13.Emscripten.clang"
  },
  "schemaVersion": "3.0.11",
  "updatedAt": "2020-05-26T12:53:30.750Z",
  "devdoc": {
    "author": "Validity Labs AG <info@validitylabs.org>",
    "details": "Inspired by Jordi Baylina's https://github.com/Giveth/minimd/blob/ea04d950eea153a04c51fa510b068b9dded390cb/contracts/MiniMeToken.sol[MiniMeToken] to record historical balances. * When a snapshot is made, the balances and total supply at the time of the snapshot are recorded for later access. * To make a snapshot, call the {snapshot} function, which will emit the {Snapshot} event and return a snapshot id. To get the total supply from a snapshot, call the function {totalSupplyAt} with the snapshot id. To get the balance of an account from a snapshot, call the {balanceOfAt} function with the snapshot id and the account address.",
    "methods": {
      "allowance(address,address)": {
        "details": "See {IERC20-allowance}."
      },
      "approve(address,uint256)": {
        "details": "See {IERC20-approve}.     * Requirements:     * - `spender` cannot be the zero address."
      },
      "balanceOf(address)": {
        "details": "See {IERC20-balanceOf}."
      },
      "decreaseAllowance(address,uint256)": {
        "details": "Atomically decreases the allowance granted to `spender` by the caller.     * This is an alternative to {approve} that can be used as a mitigation for problems described in {IERC20-approve}.     * Emits an {Approval} event indicating the updated allowance.     * Requirements:     * - `spender` cannot be the zero address. - `spender` must have allowance for the caller of at least `subtractedValue`."
      },
      "increaseAllowance(address,uint256)": {
        "details": "Atomically increases the allowance granted to `spender` by the caller.     * This is an alternative to {approve} that can be used as a mitigation for problems described in {IERC20-approve}.     * Emits an {Approval} event indicating the updated allowance.     * Requirements:     * - `spender` cannot be the zero address."
      },
      "totalSupply()": {
        "details": "See {IERC20-totalSupply}."
      },
      "transfer(address,uint256)": {
        "details": "See {IERC20-transfer}.     * Requirements:     * - `recipient` cannot be the zero address. - the caller must have a balance of at least `amount`."
      },
      "transferFrom(address,address,uint256)": {
        "details": "See {IERC20-transferFrom}.     * Emits an {Approval} event indicating the updated allowance. This is not required by the EIP. See the note at the beginning of {ERC20};     * Requirements: - `sender` and `recipient` cannot be the zero address. - `sender` must have a balance of at least `amount`. - the caller must have allowance for `sender`'s tokens of at least `amount`."
      }
    },
    "title": "ERC20 token with snapshots."
  },
  "userdoc": {
    "methods": {}
  }
}