{
  "contractName": "GSNRecipientSignature",
  "abi": [
    {
      "inputs": [
        {
          "internalType": "address",
          "name": "trustedSigner",
          "type": "address"
        }
      ],
      "payable": false,
      "stateMutability": "nonpayable",
      "type": "constructor"
    },
    {
      "anonymous": false,
      "inputs": [
        {
          "indexed": true,
          "internalType": "address",
          "name": "oldRelayHub",
          "type": "address"
        },
        {
          "indexed": true,
          "internalType": "address",
          "name": "newRelayHub",
          "type": "address"
        }
      ],
      "name": "RelayHubChanged",
      "type": "event"
    },
    {
      "constant": true,
      "inputs": [],
      "name": "getHubAddr",
      "outputs": [
        {
          "internalType": "address",
          "name": "",
          "type": "address"
        }
      ],
      "payable": false,
      "stateMutability": "view",
      "type": "function"
    },
    {
      "constant": false,
      "inputs": [
        {
          "internalType": "bytes",
          "name": "context",
          "type": "bytes"
        },
        {
          "internalType": "bool",
          "name": "success",
          "type": "bool"
        },
        {
          "internalType": "uint256",
          "name": "actualCharge",
          "type": "uint256"
        },
        {
          "internalType": "bytes32",
          "name": "preRetVal",
          "type": "bytes32"
        }
      ],
      "name": "postRelayedCall",
      "outputs": [],
      "payable": false,
      "stateMutability": "nonpayable",
      "type": "function"
    },
    {
      "constant": false,
      "inputs": [
        {
          "internalType": "bytes",
          "name": "context",
          "type": "bytes"
        }
      ],
      "name": "preRelayedCall",
      "outputs": [
        {
          "internalType": "bytes32",
          "name": "",
          "type": "bytes32"
        }
      ],
      "payable": false,
      "stateMutability": "nonpayable",
      "type": "function"
    },
    {
      "constant": true,
      "inputs": [],
      "name": "relayHubVersion",
      "outputs": [
        {
          "internalType": "string",
          "name": "",
          "type": "string"
        }
      ],
      "payable": false,
      "stateMutability": "view",
      "type": "function"
    },
    {
      "constant": true,
      "inputs": [
        {
          "internalType": "address",
          "name": "relay",
          "type": "address"
        },
        {
          "internalType": "address",
          "name": "from",
          "type": "address"
        },
        {
          "internalType": "bytes",
          "name": "encodedFunction",
          "type": "bytes"
        },
        {
          "internalType": "uint256",
          "name": "transactionFee",
          "type": "uint256"
        },
        {
          "internalType": "uint256",
          "name": "gasPrice",
          "type": "uint256"
        },
        {
          "internalType": "uint256",
          "name": "gasLimit",
          "type": "uint256"
        },
        {
          "internalType": "uint256",
          "name": "nonce",
          "type": "uint256"
        },
        {
          "internalType": "bytes",
          "name": "approvalData",
          "type": "bytes"
        },
        {
          "internalType": "uint256",
          "name": "",
          "type": "uint256"
        }
      ],
      "name": "acceptRelayedCall",
      "outputs": [
        {
          "internalType": "uint256",
          "name": "",
          "type": "uint256"
        },
        {
          "internalType": "bytes",
          "name": "",
          "type": "bytes"
        }
      ],
      "payable": false,
      "stateMutability": "view",
      "type": "function"
    }
  ],
  "bytecode": "0x6080604052600080546001600160a01b03191673d216153c06e857cd7f72665e0af1d7d82172f49417905534801561003657600080fd5b506040516109153803806109158339818101604052602081101561005957600080fd5b50516001600160a01b0381166100a05760405162461bcd60e51b81526004018080602001828103825260398152602001806108dc6039913960400191505060405180910390fd5b600180546001600160a01b0319166001600160a01b039290921691909117905561080d806100cf6000396000f3fe608060405234801561001057600080fd5b50600436106100575760003560e01c806374e861d61461005c57806380274db71461008057806383947ea014610100578063ad61ccd51461026d578063e06e0e22146102ea575b600080fd5b610064610368565b604080516001600160a01b039092168252519081900360200190f35b6100ee6004803603602081101561009657600080fd5b810190602081018135600160201b8111156100b057600080fd5b8201836020820111156100c257600080fd5b803590602001918460018302840111600160201b831117156100e357600080fd5b509092509050610377565b60408051918252519081900360200190f35b6101ee600480360361012081101561011757600080fd5b6001600160a01b038235811692602081013590911691810190606081016040820135600160201b81111561014a57600080fd5b82018360208201111561015c57600080fd5b803590602001918460018302840111600160201b8311171561017d57600080fd5b9193909282359260208101359260408201359260608301359260a081019060800135600160201b8111156101b057600080fd5b8201836020820111156101c257600080fd5b803590602001918460018302840111600160201b831117156101e357600080fd5b919350915035610418565b6040518083815260200180602001828103825283818151815260200191508051906020019080838360005b83811015610231578181015183820152602001610219565b50505050905090810190601f16801561025e5780820380516001836020036101000a031916815260200191505b50935050505060405180910390f35b610275610567565b6040805160208082528351818301528351919283929083019185019080838360005b838110156102af578181015183820152602001610297565b50505050905090810190601f1680156102dc5780820380516001836020036101000a031916815260200191505b509250505060405180910390f35b6103666004803603608081101561030057600080fd5b810190602081018135600160201b81111561031a57600080fd5b82018360208201111561032c57600080fd5b803590602001918460018302840111600160201b8311171561034d57600080fd5b9193509150803515159060208101359060400135610586565b005b6000546001600160a01b031690565b6000610381610368565b6001600160a01b0316336001600160a01b0316146103d05760405162461bcd60e51b81526004018080602001828103825260248152602001806107b56024913960400191505060405180910390fd5b61040f83838080601f01602080910402602001604051908101604052809392919081815260200183838082843760009201919091525061062892505050565b90505b92915050565b60006060808d8d8d8d8d8d8d8d61042d610368565b30604051602001808b6001600160a01b03166001600160a01b031660601b81526014018a6001600160a01b03166001600160a01b031660601b81526014018989808284379190910197885250506020808701959095526040808701949094526060808701939093526bffffffffffffffffffffffff1991831b8216608087015290911b1660948401528051608881850301815260015460c8601f8f018590049094028501840190925260a884018d81529098506001600160a01b0391909116965061052c955093508b92508a9182910183828082843760009201919091525050855160208701206105209250905061062e565b9063ffffffff61067f16565b6001600160a01b0316141561054d5761054361076d565b9250925050610557565b6105436000610791565b9b509b9950505050505050505050565b6040805180820190915260058152640312e302e360dc1b602082015290565b61058e610368565b6001600160a01b0316336001600160a01b0316146105dd5760405162461bcd60e51b81526004018080602001828103825260248152602001806107b56024913960400191505060405180910390fd5b61062185858080601f0160208091040260200160405190810160405280939291908181526020018383808284376000920191909152508792508691508590506107a9565b5050505050565b50600090565b604080517f19457468657265756d205369676e6564204d6573736167653a0a333200000000602080830191909152603c8083019490945282518083039094018452605c909101909152815191012090565b6000815160411461069257506000610412565b60208201516040830151606084015160001a7f7fffffffffffffffffffffffffffffff5d576e7357a4501ddfe92f46681b20a08211156106d85760009350505050610412565b8060ff16601b141580156106f057508060ff16601c14155b156107015760009350505050610412565b6040805160008152602080820180845289905260ff8416828401526060820186905260808201859052915160019260a0808401939192601f1981019281900390910190855afa158015610758573d6000803e3d6000fd5b5050604051601f190151979650505050505050565b60006060610789604051806020016040528060008152506107af565b915091509091565b604080516020810190915260008152600b9190910191565b50505050565b60009156fe47534e526563697069656e743a2063616c6c6572206973206e6f742052656c6179487562a265627a7a72315820e24070cfd6e9e1177f3f1379227e003278033ce42ea1c24e4170e53c1c1e728664736f6c6343000511003247534e526563697069656e745369676e61747572653a2074727573746564207369676e657220697320746865207a65726f2061646472657373",
  "source": "pragma solidity ^0.5.0;\n\nimport \"./GSNRecipient.sol\";\nimport \"../cryptography/ECDSA.sol\";\n\n/**\n * @dev A xref:ROOT:gsn-strategies.adoc#gsn-strategies[GSN strategy] that allows relayed transactions through when they are\n * accompanied by the signature of a trusted signer. The intent is for this signature to be generated by a server that\n * performs validations off-chain. Note that nothing is charged to the user in this scheme. Thus, the server should make\n * sure to account for this in their economic and threat model.\n */\ncontract GSNRecipientSignature is GSNRecipient {\n    using ECDSA for bytes32;\n\n    address private _trustedSigner;\n\n    enum GSNRecipientSignatureErrorCodes {\n        INVALID_SIGNER\n    }\n\n    /**\n     * @dev Sets the trusted signer that is going to be producing signatures to approve relayed calls.\n     */\n    constructor(address trustedSigner) public {\n        require(trustedSigner != address(0), \"GSNRecipientSignature: trusted signer is the zero address\");\n        _trustedSigner = trustedSigner;\n    }\n\n    /**\n     * @dev Ensures that only transactions with a trusted signature can be relayed through the GSN.\n     */\n    function acceptRelayedCall(\n        address relay,\n        address from,\n        bytes calldata encodedFunction,\n        uint256 transactionFee,\n        uint256 gasPrice,\n        uint256 gasLimit,\n        uint256 nonce,\n        bytes calldata approvalData,\n        uint256\n    )\n        external\n        view\n        returns (uint256, bytes memory)\n    {\n        bytes memory blob = abi.encodePacked(\n            relay,\n            from,\n            encodedFunction,\n            transactionFee,\n            gasPrice,\n            gasLimit,\n            nonce, // Prevents replays on RelayHub\n            getHubAddr(), // Prevents replays in multiple RelayHubs\n            address(this) // Prevents replays in multiple recipients\n        );\n        if (keccak256(blob).toEthSignedMessageHash().recover(approvalData) == _trustedSigner) {\n            return _approveRelayedCall();\n        } else {\n            return _rejectRelayedCall(uint256(GSNRecipientSignatureErrorCodes.INVALID_SIGNER));\n        }\n    }\n\n    function _preRelayedCall(bytes memory) internal returns (bytes32) {\n        // solhint-disable-previous-line no-empty-blocks\n    }\n\n    function _postRelayedCall(bytes memory, bool, uint256, bytes32) internal {\n        // solhint-disable-previous-line no-empty-blocks\n    }\n}\n",
  "sourcePath": "/home/jack/ethProjects/MS-Factory/contracts/zeppeline/GSN/GSNRecipientSignature.sol",
  "compiler": {
    "name": "solc",
    "version": "0.5.17+commit.d19bba13.Emscripten.clang"
  },
  "schemaVersion": "3.0.11",
  "updatedAt": "2020-05-28T12:33:08.829Z",
  "devdoc": {
    "details": "A xref:ROOT:gsn-strategies.adoc#gsn-strategies[GSN strategy] that allows relayed transactions through when they are accompanied by the signature of a trusted signer. The intent is for this signature to be generated by a server that performs validations off-chain. Note that nothing is charged to the user in this scheme. Thus, the server should make sure to account for this in their economic and threat model.",
    "methods": {
      "acceptRelayedCall(address,address,bytes,uint256,uint256,uint256,uint256,bytes,uint256)": {
        "details": "Ensures that only transactions with a trusted signature can be relayed through the GSN."
      },
      "constructor": {
        "details": "Sets the trusted signer that is going to be producing signatures to approve relayed calls."
      },
      "getHubAddr()": {
        "details": "Returns the address of the {IRelayHub} contract for this recipient."
      },
      "postRelayedCall(bytes,bool,uint256,bytes32)": {
        "details": "See `IRelayRecipient.postRelayedCall`.     * This function should not be overriden directly, use `_postRelayedCall` instead.     * * Requirements:     * - the caller must be the `RelayHub` contract."
      },
      "preRelayedCall(bytes)": {
        "details": "See `IRelayRecipient.preRelayedCall`.     * This function should not be overriden directly, use `_preRelayedCall` instead.     * * Requirements:     * - the caller must be the `RelayHub` contract."
      },
      "relayHubVersion()": {
        "details": "Returns the version string of the {IRelayHub} for which this recipient implementation was built. If {_upgradeRelayHub} is used, the new {IRelayHub} instance should be compatible with this version."
      }
    }
  },
  "userdoc": {
    "methods": {}
  }
}