{
  "contractName": "KNS",
  "abi": [
    {
      "anonymous": false,
      "inputs": [
        {
          "indexed": true,
          "internalType": "string",
          "name": "tel",
          "type": "string"
        },
        {
          "indexed": true,
          "internalType": "string",
          "name": "Jid",
          "type": "string"
        },
        {
          "indexed": true,
          "internalType": "address",
          "name": "new_wallet",
          "type": "address"
        }
      ],
      "name": "LostedKey",
      "type": "event"
    },
    {
      "anonymous": false,
      "inputs": [
        {
          "indexed": false,
          "internalType": "address",
          "name": "prime_owner",
          "type": "address"
        },
        {
          "indexed": false,
          "internalType": "address",
          "name": "wallet",
          "type": "address"
        },
        {
          "indexed": false,
          "internalType": "string",
          "name": "Jid",
          "type": "string"
        },
        {
          "indexed": true,
          "internalType": "string",
          "name": "tel",
          "type": "string"
        }
      ],
      "name": "Registred",
      "type": "event"
    },
    {
      "constant": true,
      "inputs": [
        {
          "internalType": "string",
          "name": "",
          "type": "string"
        }
      ],
      "name": "RegistryJ",
      "outputs": [
        {
          "internalType": "address",
          "name": "prime_owner",
          "type": "address"
        },
        {
          "internalType": "address",
          "name": "wallet",
          "type": "address"
        },
        {
          "internalType": "string",
          "name": "tel",
          "type": "string"
        }
      ],
      "payable": false,
      "stateMutability": "view",
      "type": "function"
    },
    {
      "constant": true,
      "inputs": [
        {
          "internalType": "string",
          "name": "",
          "type": "string"
        }
      ],
      "name": "RegistryT",
      "outputs": [
        {
          "internalType": "address",
          "name": "prime_owner",
          "type": "address"
        },
        {
          "internalType": "address",
          "name": "wallet",
          "type": "address"
        },
        {
          "internalType": "string",
          "name": "tel",
          "type": "string"
        }
      ],
      "payable": false,
      "stateMutability": "view",
      "type": "function"
    },
    {
      "constant": false,
      "inputs": [
        {
          "internalType": "address",
          "name": "prime_owner",
          "type": "address"
        },
        {
          "internalType": "address",
          "name": "wallet",
          "type": "address"
        },
        {
          "internalType": "string",
          "name": "Jid",
          "type": "string"
        },
        {
          "internalType": "string",
          "name": "tel",
          "type": "string"
        }
      ],
      "name": "Register",
      "outputs": [],
      "payable": false,
      "stateMutability": "nonpayable",
      "type": "function"
    },
    {
      "constant": true,
      "inputs": [
        {
          "internalType": "string",
          "name": "Jid",
          "type": "string"
        }
      ],
      "name": "GetOwnerByJid",
      "outputs": [
        {
          "internalType": "address",
          "name": "owner",
          "type": "address"
        }
      ],
      "payable": false,
      "stateMutability": "view",
      "type": "function"
    },
    {
      "constant": true,
      "inputs": [
        {
          "internalType": "string",
          "name": "Jid",
          "type": "string"
        }
      ],
      "name": "GetWalletByJid",
      "outputs": [
        {
          "internalType": "address",
          "name": "wallet",
          "type": "address"
        }
      ],
      "payable": false,
      "stateMutability": "view",
      "type": "function"
    },
    {
      "constant": true,
      "inputs": [
        {
          "internalType": "string",
          "name": "tel",
          "type": "string"
        }
      ],
      "name": "GetWalletByTel",
      "outputs": [
        {
          "internalType": "address",
          "name": "wallet",
          "type": "address"
        }
      ],
      "payable": false,
      "stateMutability": "view",
      "type": "function"
    },
    {
      "constant": false,
      "inputs": [
        {
          "internalType": "string",
          "name": "Jid",
          "type": "string"
        },
        {
          "internalType": "address",
          "name": "new_wallet",
          "type": "address"
        }
      ],
      "name": "LostKey",
      "outputs": [],
      "payable": false,
      "stateMutability": "nonpayable",
      "type": "function"
    }
  ],
  "bytecode": "0x608060405234801561001057600080fd5b50611905806100206000396000f3fe608060405234801561001057600080fd5b506004361061007d5760003560e01c8063c0ea7fa81161005b578063c0ea7fa8146103ea578063ddecfe27146104e5578063eab818081461067f578063ee5bd245146108195761007d565b80632e37ccb1146100825780636702b4311461017d578063a94f79661461030f575b600080fd5b61013b6004803603602081101561009857600080fd5b81019080803590602001906401000000008111156100b557600080fd5b8201836020820111156100c757600080fd5b803590602001918460018302840111640100000000831117156100e957600080fd5b91908080601f016020809104026020016040519081016040528093929190818152602001838380828437600081840152601f19601f820116905080830192505050505050509192919290505050610914565b604051808273ffffffffffffffffffffffffffffffffffffffff1673ffffffffffffffffffffffffffffffffffffffff16815260200191505060405180910390f35b61030d6004803603608081101561019357600080fd5b81019080803573ffffffffffffffffffffffffffffffffffffffff169060200190929190803573ffffffffffffffffffffffffffffffffffffffff169060200190929190803590602001906401000000008111156101f057600080fd5b82018360208201111561020257600080fd5b8035906020019184600183028401116401000000008311171561022457600080fd5b91908080601f016020809104026020016040519081016040528093929190818152602001838380828437600081840152601f19601f8201169050808301925050505050505091929192908035906020019064010000000081111561028757600080fd5b82018360208201111561029957600080fd5b803590602001918460018302840111640100000000831117156102bb57600080fd5b91908080601f016020809104026020016040519081016040528093929190818152602001838380828437600081840152601f19601f820116905080830192505050505050509192919290505050610af5565b005b6103e86004803603604081101561032557600080fd5b810190808035906020019064010000000081111561034257600080fd5b82018360208201111561035457600080fd5b8035906020019184600183028401116401000000008311171561037657600080fd5b91908080601f016020809104026020016040519081016040528093929190818152602001838380828437600081840152601f19601f820116905080830192505050505050509192919290803573ffffffffffffffffffffffffffffffffffffffff169060200190929190505050610f12565b005b6104a36004803603602081101561040057600080fd5b810190808035906020019064010000000081111561041d57600080fd5b82018360208201111561042f57600080fd5b8035906020019184600183028401116401000000008311171561045157600080fd5b91908080601f016020809104026020016040519081016040528093929190818152602001838380828437600081840152601f19601f8201169050808301925050505050505091929192905050506111ec565b604051808273ffffffffffffffffffffffffffffffffffffffff1673ffffffffffffffffffffffffffffffffffffffff16815260200191505060405180910390f35b61059e600480360360208110156104fb57600080fd5b810190808035906020019064010000000081111561051857600080fd5b82018360208201111561052a57600080fd5b8035906020019184600183028401116401000000008311171561054c57600080fd5b91908080601f016020809104026020016040519081016040528093929190818152602001838380828437600081840152601f19601f8201169050808301925050505050505091929192905050506113cd565b604051808473ffffffffffffffffffffffffffffffffffffffff1673ffffffffffffffffffffffffffffffffffffffff1681526020018373ffffffffffffffffffffffffffffffffffffffff1673ffffffffffffffffffffffffffffffffffffffff16815260200180602001828103825283818151815260200191508051906020019080838360005b83811015610642578082015181840152602081019050610627565b50505050905090810190601f16801561066f5780820380516001836020036101000a031916815260200191505b5094505050505060405180910390f35b6107386004803603602081101561069557600080fd5b81019080803590602001906401000000008111156106b257600080fd5b8201836020820111156106c457600080fd5b803590602001918460018302840111640100000000831117156106e657600080fd5b91908080601f016020809104026020016040519081016040528093929190818152602001838380828437600081840152601f19601f8201169050808301925050505050505091929192905050506114e5565b604051808473ffffffffffffffffffffffffffffffffffffffff1673ffffffffffffffffffffffffffffffffffffffff1681526020018373ffffffffffffffffffffffffffffffffffffffff1673ffffffffffffffffffffffffffffffffffffffff16815260200180602001828103825283818151815260200191508051906020019080838360005b838110156107dc5780820151818401526020810190506107c1565b50505050905090810190601f1680156108095780820380516001836020036101000a031916815260200191505b5094505050505060405180910390f35b6108d26004803603602081101561082f57600080fd5b810190808035906020019064010000000081111561084c57600080fd5b82018360208201111561085e57600080fd5b8035906020019184600183028401116401000000008311171561088057600080fd5b91908080601f016020809104026020016040519081016040528093929190818152602001838380828437600081840152601f19601f8201169050808301925050505050505091929192905050506115fd565b604051808273ffffffffffffffffffffffffffffffffffffffff1673ffffffffffffffffffffffffffffffffffffffff16815260200191505060405180910390f35b600061091e6117de565b6000836040518082805190602001908083835b602083106109545780518252602082019150602081019050602083039250610931565b6001836020036101000a03801982511681845116808217855250505050505090500191505090815260200160405180910390206040518060600160405290816000820160009054906101000a900473ffffffffffffffffffffffffffffffffffffffff1673ffffffffffffffffffffffffffffffffffffffff1673ffffffffffffffffffffffffffffffffffffffff1681526020016001820160009054906101000a900473ffffffffffffffffffffffffffffffffffffffff1673ffffffffffffffffffffffffffffffffffffffff1673ffffffffffffffffffffffffffffffffffffffff168152602001600282018054600181600116156101000203166002900480601f016020809104026020016040519081016040528092919081815260200182805460018160011615610100020316600290048015610ad75780601f10610aac57610100808354040283529160200191610ad7565b820191906000526020600020905b815481529060010190602001808311610aba57829003601f168201915b50505050508152505090506000816020015190508092505050919050565b610afd6117de565b84816000019073ffffffffffffffffffffffffffffffffffffffff16908173ffffffffffffffffffffffffffffffffffffffff168152505083816020019073ffffffffffffffffffffffffffffffffffffffff16908173ffffffffffffffffffffffffffffffffffffffff1681525050818160400181905250806000846040518082805190602001908083835b60208310610bad5780518252602082019150602081019050602083039250610b8a565b6001836020036101000a038019825116818451168082178552505050505050905001915050908152602001604051809103902060008201518160000160006101000a81548173ffffffffffffffffffffffffffffffffffffffff021916908373ffffffffffffffffffffffffffffffffffffffff16021790555060208201518160010160006101000a81548173ffffffffffffffffffffffffffffffffffffffff021916908373ffffffffffffffffffffffffffffffffffffffff1602179055506040820151816002019080519060200190610c8a92919061182b565b50905050806001836040518082805190602001908083835b60208310610cc55780518252602082019150602081019050602083039250610ca2565b6001836020036101000a038019825116818451168082178552505050505050905001915050908152602001604051809103902060008201518160000160006101000a81548173ffffffffffffffffffffffffffffffffffffffff021916908373ffffffffffffffffffffffffffffffffffffffff16021790555060208201518160010160006101000a81548173ffffffffffffffffffffffffffffffffffffffff021916908373ffffffffffffffffffffffffffffffffffffffff1602179055506040820151816002019080519060200190610da292919061182b565b50905050816040518082805190602001908083835b60208310610dda5780518252602082019150602081019050602083039250610db7565b6001836020036101000a03801982511681845116808217855250505050505090500191505060405180910390207f460bd0e304b19a98768709c98d7f5943be773145f506c0f490c2f47f703f4757868686604051808473ffffffffffffffffffffffffffffffffffffffff1673ffffffffffffffffffffffffffffffffffffffff1681526020018373ffffffffffffffffffffffffffffffffffffffff1673ffffffffffffffffffffffffffffffffffffffff16815260200180602001828103825283818151815260200191508051906020019080838360005b83811015610ecf578082015181840152602081019050610eb4565b50505050905090810190601f168015610efc5780820380516001836020036101000a031916815260200191505b5094505050505060405180910390a25050505050565b610f1a6117de565b6000836040518082805190602001908083835b60208310610f505780518252602082019150602081019050602083039250610f2d565b6001836020036101000a03801982511681845116808217855250505050505090500191505090815260200160405180910390206040518060600160405290816000820160009054906101000a900473ffffffffffffffffffffffffffffffffffffffff1673ffffffffffffffffffffffffffffffffffffffff1673ffffffffffffffffffffffffffffffffffffffff1681526020016001820160009054906101000a900473ffffffffffffffffffffffffffffffffffffffff1673ffffffffffffffffffffffffffffffffffffffff1673ffffffffffffffffffffffffffffffffffffffff168152602001600282018054600181600116156101000203166002900480601f0160208091040260200160405190810160405280929190818152602001828054600181600116156101000203166002900480156110d35780601f106110a8576101008083540402835291602001916110d3565b820191906000526020600020905b8154815290600101906020018083116110b657829003601f168201915b50505050508152505090508173ffffffffffffffffffffffffffffffffffffffff16836040518082805190602001908083835b602083106111295780518252602082019150602081019050602083039250611106565b6001836020036101000a038019825116818451168082178552505050505050905001915050604051809103902082604001516040518082805190602001908083835b6020831061118e578051825260208201915060208101905060208303925061116b565b6001836020036101000a03801982511681845116808217855250505050505090500191505060405180910390207f515f8f170e144c8fa03149925175e551812aeabc54b31fe6a45e0577e509d97e60405160405180910390a4505050565b60006111f66117de565b6001836040518082805190602001908083835b6020831061122c5780518252602082019150602081019050602083039250611209565b6001836020036101000a03801982511681845116808217855250505050505090500191505090815260200160405180910390206040518060600160405290816000820160009054906101000a900473ffffffffffffffffffffffffffffffffffffffff1673ffffffffffffffffffffffffffffffffffffffff1673ffffffffffffffffffffffffffffffffffffffff1681526020016001820160009054906101000a900473ffffffffffffffffffffffffffffffffffffffff1673ffffffffffffffffffffffffffffffffffffffff1673ffffffffffffffffffffffffffffffffffffffff168152602001600282018054600181600116156101000203166002900480601f0160208091040260200160405190810160405280929190818152602001828054600181600116156101000203166002900480156113af5780601f10611384576101008083540402835291602001916113af565b820191906000526020600020905b81548152906001019060200180831161139257829003601f168201915b50505050508152505090506000816020015190508092505050919050565b6000818051602081018201805184825260208301602085012081835280955050505050506000915090508060000160009054906101000a900473ffffffffffffffffffffffffffffffffffffffff16908060010160009054906101000a900473ffffffffffffffffffffffffffffffffffffffff1690806002018054600181600116156101000203166002900480601f0160208091040260200160405190810160405280929190818152602001828054600181600116156101000203166002900480156114db5780601f106114b0576101008083540402835291602001916114db565b820191906000526020600020905b8154815290600101906020018083116114be57829003601f168201915b5050505050905083565b6001818051602081018201805184825260208301602085012081835280955050505050506000915090508060000160009054906101000a900473ffffffffffffffffffffffffffffffffffffffff16908060010160009054906101000a900473ffffffffffffffffffffffffffffffffffffffff1690806002018054600181600116156101000203166002900480601f0160208091040260200160405190810160405280929190818152602001828054600181600116156101000203166002900480156115f35780601f106115c8576101008083540402835291602001916115f3565b820191906000526020600020905b8154815290600101906020018083116115d657829003601f168201915b5050505050905083565b60006116076117de565b6000836040518082805190602001908083835b6020831061163d578051825260208201915060208101905060208303925061161a565b6001836020036101000a03801982511681845116808217855250505050505090500191505090815260200160405180910390206040518060600160405290816000820160009054906101000a900473ffffffffffffffffffffffffffffffffffffffff1673ffffffffffffffffffffffffffffffffffffffff1673ffffffffffffffffffffffffffffffffffffffff1681526020016001820160009054906101000a900473ffffffffffffffffffffffffffffffffffffffff1673ffffffffffffffffffffffffffffffffffffffff1673ffffffffffffffffffffffffffffffffffffffff168152602001600282018054600181600116156101000203166002900480601f0160208091040260200160405190810160405280929190818152602001828054600181600116156101000203166002900480156117c05780601f10611795576101008083540402835291602001916117c0565b820191906000526020600020905b8154815290600101906020018083116117a357829003601f168201915b50505050508152505090506000816000015190508092505050919050565b6040518060600160405280600073ffffffffffffffffffffffffffffffffffffffff168152602001600073ffffffffffffffffffffffffffffffffffffffff168152602001606081525090565b828054600181600116156101000203166002900490600052602060002090601f016020900481019282601f1061186c57805160ff191683800117855561189a565b8280016001018555821561189a579182015b8281111561189957825182559160200191906001019061187e565b5b5090506118a791906118ab565b5090565b6118cd91905b808211156118c95760008160009055506001016118b1565b5090565b9056fea265627a7a723158200a072c1cf8e449f70a2b0cbda5f4e73e49a3ed5c0adbd526d7bf32b77b50491e64736f6c63430005100032",
  "source": "pragma solidity ^0.5.11;\n\ncontract KNS {\n\n/*\n    Events\n*/\n\nevent LostedKey(string indexed tel, string indexed Jid, address indexed new_wallet);\nevent Registred(address prime_owner, address wallet, string Jid, string indexed tel);\n\n/*\n    Constants\n*/\n\n/*\n    Storage\n*/\n\n//Registry for JID => personal_info\nmapping (string => Info) public RegistryJ;\n\n// map from telephone => info\nmapping (string => Info) public RegistryT;\n\nstruct Info {\n       // address[] owners;\n        address prime_owner;\n        address wallet;\n        string tel;\n    }\n\n/*\n    Modidifiers\n\n*/\n\n\n\n/*\n    Public functions\n*/\n\nfunction Register(address prime_owner, address wallet, string memory Jid, string memory tel) public {\n\n    Info memory info;\n    info.prime_owner = prime_owner;\n    info.wallet = wallet;\n    info.tel = tel;\n\n    RegistryJ[Jid] = info;\n    RegistryT[tel] = info;\n    emit Registred(prime_owner,wallet,Jid,tel);\n\n}\n\nfunction GetOwnerByJid(string memory Jid) public view returns(address owner) {\n\n    Info memory info;\n    info = RegistryJ[Jid];\n    address _owner = info.prime_owner;\n    return _owner;\n}\n\nfunction GetWalletByJid(string memory Jid) public view returns(address wallet) {\n\n    Info memory info;\n    info = RegistryJ[Jid];\n    address _wallet = info.wallet;\n    return _wallet;\n}\n\nfunction GetWalletByTel(string memory tel) public view returns (address wallet) {\n\n    Info memory info;\n    info = RegistryT[tel];\n    address _wallet = info.wallet;\n    return _wallet;\n\n}\n\nfunction LostKey(string memory Jid, address new_wallet) public {\n\n    Info memory info;\n    info = RegistryJ[Jid];\n    emit LostedKey(info.tel,Jid,new_wallet);\n\n}\n\n\n\n\n}",
  "sourcePath": "/home/jack/ethProjects/MS-Factory/contracts/KNS.sol",
  "compiler": {
    "name": "solc",
    "version": "0.5.16+commit.9c3226ce.Emscripten.clang"
  },
  "schemaVersion": "3.0.11",
  "updatedAt": "2020-02-24T15:14:46.096Z",
  "devdoc": {
    "methods": {}
  },
  "userdoc": {
    "methods": {}
  }
}