{
  "contractName": "KNS",
  "abi": [
    {
      "anonymous": false,
      "inputs": [
        {
          "indexed": true,
          "internalType": "string",
          "name": "tel",
          "type": "string"
        },
        {
          "indexed": true,
          "internalType": "string",
          "name": "Jid",
          "type": "string"
        },
        {
          "indexed": true,
          "internalType": "address",
          "name": "new_wallet",
          "type": "address"
        }
      ],
      "name": "LostedKey",
      "type": "event"
    },
    {
      "anonymous": false,
      "inputs": [
        {
          "indexed": false,
          "internalType": "address",
          "name": "prime_owner",
          "type": "address"
        },
        {
          "indexed": false,
          "internalType": "address",
          "name": "wallet",
          "type": "address"
        },
        {
          "indexed": false,
          "internalType": "string",
          "name": "Jid",
          "type": "string"
        },
        {
          "indexed": false,
          "internalType": "string",
          "name": "tel",
          "type": "string"
        }
      ],
      "name": "Registred",
      "type": "event"
    },
    {
      "constant": true,
      "inputs": [
        {
          "internalType": "string",
          "name": "",
          "type": "string"
        }
      ],
      "name": "Registry",
      "outputs": [
        {
          "internalType": "address",
          "name": "prime_owner",
          "type": "address"
        },
        {
          "internalType": "address",
          "name": "wallet",
          "type": "address"
        },
        {
          "internalType": "string",
          "name": "tel",
          "type": "string"
        }
      ],
      "payable": false,
      "stateMutability": "view",
      "type": "function"
    },
    {
      "constant": false,
      "inputs": [
        {
          "internalType": "address",
          "name": "prime_owner",
          "type": "address"
        },
        {
          "internalType": "address",
          "name": "wallet",
          "type": "address"
        },
        {
          "internalType": "string",
          "name": "Jid",
          "type": "string"
        },
        {
          "internalType": "string",
          "name": "tel",
          "type": "string"
        }
      ],
      "name": "Register",
      "outputs": [],
      "payable": false,
      "stateMutability": "nonpayable",
      "type": "function"
    },
    {
      "constant": true,
      "inputs": [
        {
          "internalType": "string",
          "name": "Jid",
          "type": "string"
        }
      ],
      "name": "GetOwnerByJid",
      "outputs": [
        {
          "internalType": "address",
          "name": "owner",
          "type": "address"
        }
      ],
      "payable": false,
      "stateMutability": "view",
      "type": "function"
    },
    {
      "constant": true,
      "inputs": [
        {
          "internalType": "string",
          "name": "Jid",
          "type": "string"
        }
      ],
      "name": "GetWalletByJid",
      "outputs": [
        {
          "internalType": "address",
          "name": "wallet",
          "type": "address"
        }
      ],
      "payable": false,
      "stateMutability": "view",
      "type": "function"
    },
    {
      "constant": false,
      "inputs": [
        {
          "internalType": "string",
          "name": "Jid",
          "type": "string"
        },
        {
          "internalType": "address",
          "name": "new_wallet",
          "type": "address"
        }
      ],
      "name": "LostKey",
      "outputs": [],
      "payable": false,
      "stateMutability": "nonpayable",
      "type": "function"
    }
  ],
  "bytecode": "0x608060405234801561001057600080fd5b50611245806100206000396000f3fe608060405234801561001057600080fd5b50600436106100575760003560e01c80632e37ccb11461005c5780636702b43114610157578063a94f7966146102e9578063e5b2169f146103c4578063ee5bd2451461055e575b600080fd5b6101156004803603602081101561007257600080fd5b810190808035906020019064010000000081111561008f57600080fd5b8201836020820111156100a157600080fd5b803590602001918460018302840111640100000000831117156100c357600080fd5b91908080601f016020809104026020016040519081016040528093929190818152602001838380828437600081840152601f19601f820116905080830192505050505050509192919290505050610659565b604051808273ffffffffffffffffffffffffffffffffffffffff1673ffffffffffffffffffffffffffffffffffffffff16815260200191505060405180910390f35b6102e76004803603608081101561016d57600080fd5b81019080803573ffffffffffffffffffffffffffffffffffffffff169060200190929190803573ffffffffffffffffffffffffffffffffffffffff169060200190929190803590602001906401000000008111156101ca57600080fd5b8201836020820111156101dc57600080fd5b803590602001918460018302840111640100000000831117156101fe57600080fd5b91908080601f016020809104026020016040519081016040528093929190818152602001838380828437600081840152601f19601f8201169050808301925050505050505091929192908035906020019064010000000081111561026157600080fd5b82018360208201111561027357600080fd5b8035906020019184600183028401116401000000008311171561029557600080fd5b91908080601f016020809104026020016040519081016040528093929190818152602001838380828437600081840152601f19601f82011690508083019250505050505050919291929050505061083a565b005b6103c2600480360360408110156102ff57600080fd5b810190808035906020019064010000000081111561031c57600080fd5b82018360208201111561032e57600080fd5b8035906020019184600183028401116401000000008311171561035057600080fd5b91908080601f016020809104026020016040519081016040528093929190818152602001838380828437600081840152601f19601f820116905080830192505050505050509192919290803573ffffffffffffffffffffffffffffffffffffffff169060200190929190505050610b4b565b005b61047d600480360360208110156103da57600080fd5b81019080803590602001906401000000008111156103f757600080fd5b82018360208201111561040957600080fd5b8035906020019184600183028401116401000000008311171561042b57600080fd5b91908080601f016020809104026020016040519081016040528093929190818152602001838380828437600081840152601f19601f820116905080830192505050505050509192919290505050610e25565b604051808473ffffffffffffffffffffffffffffffffffffffff1673ffffffffffffffffffffffffffffffffffffffff1681526020018373ffffffffffffffffffffffffffffffffffffffff1673ffffffffffffffffffffffffffffffffffffffff16815260200180602001828103825283818151815260200191508051906020019080838360005b83811015610521578082015181840152602081019050610506565b50505050905090810190601f16801561054e5780820380516001836020036101000a031916815260200191505b5094505050505060405180910390f35b6106176004803603602081101561057457600080fd5b810190808035906020019064010000000081111561059157600080fd5b8201836020820111156105a357600080fd5b803590602001918460018302840111640100000000831117156105c557600080fd5b91908080601f016020809104026020016040519081016040528093929190818152602001838380828437600081840152601f19601f820116905080830192505050505050509192919290505050610f3d565b604051808273ffffffffffffffffffffffffffffffffffffffff1673ffffffffffffffffffffffffffffffffffffffff16815260200191505060405180910390f35b600061066361111e565b6000836040518082805190602001908083835b602083106106995780518252602082019150602081019050602083039250610676565b6001836020036101000a03801982511681845116808217855250505050505090500191505090815260200160405180910390206040518060600160405290816000820160009054906101000a900473ffffffffffffffffffffffffffffffffffffffff1673ffffffffffffffffffffffffffffffffffffffff1673ffffffffffffffffffffffffffffffffffffffff1681526020016001820160009054906101000a900473ffffffffffffffffffffffffffffffffffffffff1673ffffffffffffffffffffffffffffffffffffffff1673ffffffffffffffffffffffffffffffffffffffff168152602001600282018054600181600116156101000203166002900480601f01602080910402602001604051908101604052809291908181526020018280546001816001161561010002031660029004801561081c5780601f106107f15761010080835404028352916020019161081c565b820191906000526020600020905b8154815290600101906020018083116107ff57829003601f168201915b50505050508152505090506000816020015190508092505050919050565b61084261111e565b84816000019073ffffffffffffffffffffffffffffffffffffffff16908173ffffffffffffffffffffffffffffffffffffffff168152505083816020019073ffffffffffffffffffffffffffffffffffffffff16908173ffffffffffffffffffffffffffffffffffffffff1681525050818160400181905250806000846040518082805190602001908083835b602083106108f257805182526020820191506020810190506020830392506108cf565b6001836020036101000a038019825116818451168082178552505050505050905001915050908152602001604051809103902060008201518160000160006101000a81548173ffffffffffffffffffffffffffffffffffffffff021916908373ffffffffffffffffffffffffffffffffffffffff16021790555060208201518160010160006101000a81548173ffffffffffffffffffffffffffffffffffffffff021916908373ffffffffffffffffffffffffffffffffffffffff16021790555060408201518160020190805190602001906109cf92919061116b565b509050507f460bd0e304b19a98768709c98d7f5943be773145f506c0f490c2f47f703f475785858585604051808573ffffffffffffffffffffffffffffffffffffffff1673ffffffffffffffffffffffffffffffffffffffff1681526020018473ffffffffffffffffffffffffffffffffffffffff1673ffffffffffffffffffffffffffffffffffffffff1681526020018060200180602001838103835285818151815260200191508051906020019080838360005b83811015610aa0578082015181840152602081019050610a85565b50505050905090810190601f168015610acd5780820380516001836020036101000a031916815260200191505b50838103825284818151815260200191508051906020019080838360005b83811015610b06578082015181840152602081019050610aeb565b50505050905090810190601f168015610b335780820380516001836020036101000a031916815260200191505b50965050505050505060405180910390a15050505050565b610b5361111e565b6000836040518082805190602001908083835b60208310610b895780518252602082019150602081019050602083039250610b66565b6001836020036101000a03801982511681845116808217855250505050505090500191505090815260200160405180910390206040518060600160405290816000820160009054906101000a900473ffffffffffffffffffffffffffffffffffffffff1673ffffffffffffffffffffffffffffffffffffffff1673ffffffffffffffffffffffffffffffffffffffff1681526020016001820160009054906101000a900473ffffffffffffffffffffffffffffffffffffffff1673ffffffffffffffffffffffffffffffffffffffff1673ffffffffffffffffffffffffffffffffffffffff168152602001600282018054600181600116156101000203166002900480601f016020809104026020016040519081016040528092919081815260200182805460018160011615610100020316600290048015610d0c5780601f10610ce157610100808354040283529160200191610d0c565b820191906000526020600020905b815481529060010190602001808311610cef57829003601f168201915b50505050508152505090508173ffffffffffffffffffffffffffffffffffffffff16836040518082805190602001908083835b60208310610d625780518252602082019150602081019050602083039250610d3f565b6001836020036101000a038019825116818451168082178552505050505050905001915050604051809103902082604001516040518082805190602001908083835b60208310610dc75780518252602082019150602081019050602083039250610da4565b6001836020036101000a03801982511681845116808217855250505050505090500191505060405180910390207f515f8f170e144c8fa03149925175e551812aeabc54b31fe6a45e0577e509d97e60405160405180910390a4505050565b6000818051602081018201805184825260208301602085012081835280955050505050506000915090508060000160009054906101000a900473ffffffffffffffffffffffffffffffffffffffff16908060010160009054906101000a900473ffffffffffffffffffffffffffffffffffffffff1690806002018054600181600116156101000203166002900480601f016020809104026020016040519081016040528092919081815260200182805460018160011615610100020316600290048015610f335780601f10610f0857610100808354040283529160200191610f33565b820191906000526020600020905b815481529060010190602001808311610f1657829003601f168201915b5050505050905083565b6000610f4761111e565b6000836040518082805190602001908083835b60208310610f7d5780518252602082019150602081019050602083039250610f5a565b6001836020036101000a03801982511681845116808217855250505050505090500191505090815260200160405180910390206040518060600160405290816000820160009054906101000a900473ffffffffffffffffffffffffffffffffffffffff1673ffffffffffffffffffffffffffffffffffffffff1673ffffffffffffffffffffffffffffffffffffffff1681526020016001820160009054906101000a900473ffffffffffffffffffffffffffffffffffffffff1673ffffffffffffffffffffffffffffffffffffffff1673ffffffffffffffffffffffffffffffffffffffff168152602001600282018054600181600116156101000203166002900480601f0160208091040260200160405190810160405280929190818152602001828054600181600116156101000203166002900480156111005780601f106110d557610100808354040283529160200191611100565b820191906000526020600020905b8154815290600101906020018083116110e357829003601f168201915b50505050508152505090506000816000015190508092505050919050565b6040518060600160405280600073ffffffffffffffffffffffffffffffffffffffff168152602001600073ffffffffffffffffffffffffffffffffffffffff168152602001606081525090565b828054600181600116156101000203166002900490600052602060002090601f016020900481019282601f106111ac57805160ff19168380011785556111da565b828001600101855582156111da579182015b828111156111d95782518255916020019190600101906111be565b5b5090506111e791906111eb565b5090565b61120d91905b808211156112095760008160009055506001016111f1565b5090565b9056fea265627a7a723158202c75c4c45e918a422747c32a8199455cafd4165b709da738f0f424e904f7883764736f6c63430005100032",
  "source": "pragma solidity ^0.5.11;\n\ncontract KNS {\n\n/*\n    Events\n*/\n\nevent LostedKey(string indexed tel, string indexed Jid, address indexed new_wallet);\nevent Registred(address prime_owner, address wallet, string Jid, string tel);\n\n/*\n    Constants\n*/\n\n/*\n    Storage\n*/\n\n//Registry for JID => personal_info\nmapping (string => Info) public Registry;\n\nstruct Info {\n       // address[] owners;\n        address prime_owner;\n        address wallet;\n        string tel;\n    }\n\n/*\n    Modidifiers\n\n*/\n\n\n\n/*\n    Public functions\n*/\n\nfunction Register(address prime_owner, address wallet, string memory Jid, string memory tel) public {\n\n    Info memory info;\n    info.prime_owner = prime_owner;\n    info.wallet = wallet;\n    info.tel = tel;\n\n    Registry[Jid] = info;\n    emit Registred(prime_owner,wallet,Jid,tel);\n\n}\n\nfunction GetOwnerByJid(string memory Jid) public view returns(address owner) {\n\n    Info memory info;\n    info = Registry[Jid];\n    address _owner = info.prime_owner;\n    return _owner;\n}\n\nfunction GetWalletByJid(string memory Jid) public view returns(address wallet) {\n\n    Info memory info;\n    info = Registry[Jid];\n    address _wallet = info.wallet;\n    return _wallet;\n}\n\nfunction LostKey(string memory Jid, address new_wallet) public {\n\n    Info memory info;\n    info = Registry[Jid];\n    emit LostedKey(info.tel,Jid,new_wallet);\n\n}\n\n\n\n\n}",
  "sourcePath": "/home/jack/ethProjects/MS-Factory/contracts/KNS.sol",
  "compiler": {
    "name": "solc",
    "version": "0.5.16+commit.9c3226ce.Emscripten.clang"
  },
  "schemaVersion": "3.0.23",
  "updatedAt": "2020-02-13T15:26:42.496Z",
  "networkType": "ethereum",
  "devdoc": {
    "methods": {}
  },
  "userdoc": {
    "methods": {}
  }
}