{
  "contractName": "KNS",
  "abi": [
    {
      "anonymous": false,
      "inputs": [
        {
          "indexed": true,
          "internalType": "string",
          "name": "tel",
          "type": "string"
        },
        {
          "indexed": true,
          "internalType": "string",
          "name": "Jid",
          "type": "string"
        },
        {
          "indexed": true,
          "internalType": "address",
          "name": "new_wallet",
          "type": "address"
        }
      ],
      "name": "LostedKey",
      "type": "event"
    },
    {
      "constant": true,
      "inputs": [
        {
          "internalType": "string",
          "name": "",
          "type": "string"
        }
      ],
      "name": "Registry",
      "outputs": [
        {
          "internalType": "address",
          "name": "prime_owner",
          "type": "address"
        },
        {
          "internalType": "address",
          "name": "wallet",
          "type": "address"
        },
        {
          "internalType": "string",
          "name": "tel",
          "type": "string"
        }
      ],
      "payable": false,
      "stateMutability": "view",
      "type": "function"
    },
    {
      "constant": false,
      "inputs": [
        {
          "internalType": "address",
          "name": "prime_owner",
          "type": "address"
        },
        {
          "internalType": "address",
          "name": "wallet",
          "type": "address"
        },
        {
          "internalType": "string",
          "name": "Jid",
          "type": "string"
        },
        {
          "internalType": "string",
          "name": "tel",
          "type": "string"
        }
      ],
      "name": "Register",
      "outputs": [],
      "payable": false,
      "stateMutability": "nonpayable",
      "type": "function"
    },
    {
      "constant": false,
      "inputs": [
        {
          "internalType": "string",
          "name": "Jid",
          "type": "string"
        },
        {
          "internalType": "address",
          "name": "new_wallet",
          "type": "address"
        }
      ],
      "name": "LostKey",
      "outputs": [],
      "payable": false,
      "stateMutability": "nonpayable",
      "type": "function"
    }
  ],
  "bytecode": "0x608060405234801561001057600080fd5b50610b06806100206000396000f3fe608060405234801561001057600080fd5b50600436106100415760003560e01c80636702b43114610046578063a94f7966146101d8578063e5b2169f146102b3575b600080fd5b6101d66004803603608081101561005c57600080fd5b81019080803573ffffffffffffffffffffffffffffffffffffffff169060200190929190803573ffffffffffffffffffffffffffffffffffffffff169060200190929190803590602001906401000000008111156100b957600080fd5b8201836020820111156100cb57600080fd5b803590602001918460018302840111640100000000831117156100ed57600080fd5b91908080601f016020809104026020016040519081016040528093929190818152602001838380828437600081840152601f19601f8201169050808301925050505050505091929192908035906020019064010000000081111561015057600080fd5b82018360208201111561016257600080fd5b8035906020019184600183028401116401000000008311171561018457600080fd5b91908080601f016020809104026020016040519081016040528093929190818152602001838380828437600081840152601f19601f82011690508083019250505050505050919291929050505061044d565b005b6102b1600480360360408110156101ee57600080fd5b810190808035906020019064010000000081111561020b57600080fd5b82018360208201111561021d57600080fd5b8035906020019184600183028401116401000000008311171561023f57600080fd5b91908080601f016020809104026020016040519081016040528093929190818152602001838380828437600081840152601f19601f820116905080830192505050505050509192919290803573ffffffffffffffffffffffffffffffffffffffff1690602001909291905050506105ed565b005b61036c600480360360208110156102c957600080fd5b81019080803590602001906401000000008111156102e657600080fd5b8201836020820111156102f857600080fd5b8035906020019184600183028401116401000000008311171561031a57600080fd5b91908080601f016020809104026020016040519081016040528093929190818152602001838380828437600081840152601f19601f8201169050808301925050505050505091929192905050506108c7565b604051808473ffffffffffffffffffffffffffffffffffffffff1673ffffffffffffffffffffffffffffffffffffffff1681526020018373ffffffffffffffffffffffffffffffffffffffff1673ffffffffffffffffffffffffffffffffffffffff16815260200180602001828103825283818151815260200191508051906020019080838360005b838110156104105780820151818401526020810190506103f5565b50505050905090810190601f16801561043d5780820380516001836020036101000a031916815260200191505b5094505050505060405180910390f35b6104556109df565b84816000019073ffffffffffffffffffffffffffffffffffffffff16908173ffffffffffffffffffffffffffffffffffffffff168152505083816020019073ffffffffffffffffffffffffffffffffffffffff16908173ffffffffffffffffffffffffffffffffffffffff1681525050818160400181905250806000846040518082805190602001908083835b6020831061050557805182526020820191506020810190506020830392506104e2565b6001836020036101000a038019825116818451168082178552505050505050905001915050908152602001604051809103902060008201518160000160006101000a81548173ffffffffffffffffffffffffffffffffffffffff021916908373ffffffffffffffffffffffffffffffffffffffff16021790555060208201518160010160006101000a81548173ffffffffffffffffffffffffffffffffffffffff021916908373ffffffffffffffffffffffffffffffffffffffff16021790555060408201518160020190805190602001906105e2929190610a2c565b509050505050505050565b6105f56109df565b6000836040518082805190602001908083835b6020831061062b5780518252602082019150602081019050602083039250610608565b6001836020036101000a03801982511681845116808217855250505050505090500191505090815260200160405180910390206040518060600160405290816000820160009054906101000a900473ffffffffffffffffffffffffffffffffffffffff1673ffffffffffffffffffffffffffffffffffffffff1673ffffffffffffffffffffffffffffffffffffffff1681526020016001820160009054906101000a900473ffffffffffffffffffffffffffffffffffffffff1673ffffffffffffffffffffffffffffffffffffffff1673ffffffffffffffffffffffffffffffffffffffff168152602001600282018054600181600116156101000203166002900480601f0160208091040260200160405190810160405280929190818152602001828054600181600116156101000203166002900480156107ae5780601f10610783576101008083540402835291602001916107ae565b820191906000526020600020905b81548152906001019060200180831161079157829003601f168201915b50505050508152505090508173ffffffffffffffffffffffffffffffffffffffff16836040518082805190602001908083835b6020831061080457805182526020820191506020810190506020830392506107e1565b6001836020036101000a038019825116818451168082178552505050505050905001915050604051809103902082604001516040518082805190602001908083835b602083106108695780518252602082019150602081019050602083039250610846565b6001836020036101000a03801982511681845116808217855250505050505090500191505060405180910390207f515f8f170e144c8fa03149925175e551812aeabc54b31fe6a45e0577e509d97e60405160405180910390a4505050565b6000818051602081018201805184825260208301602085012081835280955050505050506000915090508060000160009054906101000a900473ffffffffffffffffffffffffffffffffffffffff16908060010160009054906101000a900473ffffffffffffffffffffffffffffffffffffffff1690806002018054600181600116156101000203166002900480601f0160208091040260200160405190810160405280929190818152602001828054600181600116156101000203166002900480156109d55780601f106109aa576101008083540402835291602001916109d5565b820191906000526020600020905b8154815290600101906020018083116109b857829003601f168201915b5050505050905083565b6040518060600160405280600073ffffffffffffffffffffffffffffffffffffffff168152602001600073ffffffffffffffffffffffffffffffffffffffff168152602001606081525090565b828054600181600116156101000203166002900490600052602060002090601f016020900481019282601f10610a6d57805160ff1916838001178555610a9b565b82800160010185558215610a9b579182015b82811115610a9a578251825591602001919060010190610a7f565b5b509050610aa89190610aac565b5090565b610ace91905b80821115610aca576000816000905550600101610ab2565b5090565b9056fea265627a7a72315820aaf796d01c51b946b3be744acbdc845cdd7a07d0b013ae0392ffb68a11ca013164736f6c63430005100032",
  "source": "pragma solidity ^0.5.11;\n\ncontract KNS {\n\n/*\n    Events\n*/\n\nevent LostedKey(string indexed tel, string indexed Jid, address indexed new_wallet);\n\n/*\n    Constants\n*/\n\n/*\n    Storage\n*/\n\n//Registry for JID => personal_info\nmapping (string => Info) public Registry;\n\nstruct Info {\n       // address[] owners;\n        address prime_owner;\n        address wallet;\n        string tel;\n    }\n\n/*\n    Modidifiers\n\n*/\n\n\n\n/*\n    Public functions\n*/\n\nfunction Register(address prime_owner, address wallet, string memory Jid, string memory tel) public {\n\n    Info memory info;\n    info.prime_owner = prime_owner;\n    info.wallet = wallet;\n    info.tel = tel;\n\n    Registry[Jid] = info;\n\n}\n\nfunction LostKey(string memory Jid, address new_wallet) public {\n\n    Info memory info;\n    info = Registry[Jid];\n    emit LostedKey(info.tel,Jid,new_wallet);\n\n}\n\n\n\n\n}",
  "sourcePath": "/home/jack/ethProjects/MS-Factory/contracts/KNS.sol",
  "compiler": {
    "name": "solc",
    "version": "0.5.16+commit.9c3226ce.Emscripten.clang"
  },
  "schemaVersion": "3.0.23",
  "updatedAt": "2020-02-11T18:39:52.000Z",
  "devdoc": {
    "methods": {}
  },
  "userdoc": {
    "methods": {}
  }
}