{
  "contractName": "KNS",
  "abi": [
    {
      "anonymous": false,
      "inputs": [
        {
          "indexed": true,
          "internalType": "string",
          "name": "tel",
          "type": "string"
        },
        {
          "indexed": true,
          "internalType": "string",
          "name": "Jid",
          "type": "string"
        },
        {
          "indexed": true,
          "internalType": "address",
          "name": "new_wallet",
          "type": "address"
        }
      ],
      "name": "LostedKey",
      "type": "event"
    },
    {
      "anonymous": false,
      "inputs": [
        {
          "indexed": false,
          "internalType": "address",
          "name": "prime_owner",
          "type": "address"
        },
        {
          "indexed": false,
          "internalType": "address",
          "name": "wallet",
          "type": "address"
        },
        {
          "indexed": true,
          "internalType": "string",
          "name": "Jid",
          "type": "string"
        },
        {
          "indexed": true,
          "internalType": "string",
          "name": "tel",
          "type": "string"
        }
      ],
      "name": "Registred",
      "type": "event"
    },
    {
      "anonymous": false,
      "inputs": [
        {
          "indexed": false,
          "internalType": "address",
          "name": "prime_owner",
          "type": "address"
        },
        {
          "indexed": false,
          "internalType": "address",
          "name": "wallet",
          "type": "address"
        },
        {
          "indexed": false,
          "internalType": "string",
          "name": "JID",
          "type": "string"
        },
        {
          "indexed": false,
          "internalType": "string",
          "name": "tel",
          "type": "string"
        }
      ],
      "name": "RegistredHuman",
      "type": "event"
    },
    {
      "constant": true,
      "inputs": [
        {
          "internalType": "string",
          "name": "",
          "type": "string"
        }
      ],
      "name": "RegistryJ",
      "outputs": [
        {
          "internalType": "address",
          "name": "prime_owner",
          "type": "address"
        },
        {
          "internalType": "address",
          "name": "wallet",
          "type": "address"
        },
        {
          "internalType": "string",
          "name": "tel",
          "type": "string"
        }
      ],
      "payable": false,
      "stateMutability": "view",
      "type": "function"
    },
    {
      "constant": true,
      "inputs": [
        {
          "internalType": "string",
          "name": "",
          "type": "string"
        }
      ],
      "name": "RegistryT",
      "outputs": [
        {
          "internalType": "address",
          "name": "prime_owner",
          "type": "address"
        },
        {
          "internalType": "address",
          "name": "wallet",
          "type": "address"
        },
        {
          "internalType": "string",
          "name": "tel",
          "type": "string"
        }
      ],
      "payable": false,
      "stateMutability": "view",
      "type": "function"
    },
    {
      "constant": false,
      "inputs": [
        {
          "internalType": "address",
          "name": "prime_owner",
          "type": "address"
        },
        {
          "internalType": "address",
          "name": "wallet",
          "type": "address"
        },
        {
          "internalType": "string",
          "name": "Jid",
          "type": "string"
        },
        {
          "internalType": "string",
          "name": "tel",
          "type": "string"
        }
      ],
      "name": "Register",
      "outputs": [],
      "payable": false,
      "stateMutability": "nonpayable",
      "type": "function"
    },
    {
      "constant": true,
      "inputs": [
        {
          "internalType": "string",
          "name": "Jid",
          "type": "string"
        }
      ],
      "name": "GetOwnerByJid",
      "outputs": [
        {
          "internalType": "address",
          "name": "owner",
          "type": "address"
        }
      ],
      "payable": false,
      "stateMutability": "view",
      "type": "function"
    },
    {
      "constant": true,
      "inputs": [
        {
          "internalType": "string",
          "name": "Jid",
          "type": "string"
        }
      ],
      "name": "GetWalletByJid",
      "outputs": [
        {
          "internalType": "address",
          "name": "wallet",
          "type": "address"
        }
      ],
      "payable": false,
      "stateMutability": "view",
      "type": "function"
    },
    {
      "constant": true,
      "inputs": [
        {
          "internalType": "string",
          "name": "tel",
          "type": "string"
        }
      ],
      "name": "GetWalletByTel",
      "outputs": [
        {
          "internalType": "address",
          "name": "wallet",
          "type": "address"
        }
      ],
      "payable": false,
      "stateMutability": "view",
      "type": "function"
    },
    {
      "constant": false,
      "inputs": [
        {
          "internalType": "string",
          "name": "Jid",
          "type": "string"
        },
        {
          "internalType": "address",
          "name": "new_wallet",
          "type": "address"
        }
      ],
      "name": "LostKey",
      "outputs": [],
      "payable": false,
      "stateMutability": "nonpayable",
      "type": "function"
    }
  ],
  "bytecode": "0x608060405234801561001057600080fd5b50611a6a806100206000396000f3fe608060405234801561001057600080fd5b506004361061007d5760003560e01c8063c0ea7fa81161005b578063c0ea7fa8146103ea578063ddecfe27146104e5578063eab818081461067f578063ee5bd245146108195761007d565b80632e37ccb1146100825780636702b4311461017d578063a94f79661461030f575b600080fd5b61013b6004803603602081101561009857600080fd5b81019080803590602001906401000000008111156100b557600080fd5b8201836020820111156100c757600080fd5b803590602001918460018302840111640100000000831117156100e957600080fd5b91908080601f016020809104026020016040519081016040528093929190818152602001838380828437600081840152601f19601f820116905080830192505050505050509192919290505050610914565b604051808273ffffffffffffffffffffffffffffffffffffffff1673ffffffffffffffffffffffffffffffffffffffff16815260200191505060405180910390f35b61030d6004803603608081101561019357600080fd5b81019080803573ffffffffffffffffffffffffffffffffffffffff169060200190929190803573ffffffffffffffffffffffffffffffffffffffff169060200190929190803590602001906401000000008111156101f057600080fd5b82018360208201111561020257600080fd5b8035906020019184600183028401116401000000008311171561022457600080fd5b91908080601f016020809104026020016040519081016040528093929190818152602001838380828437600081840152601f19601f8201169050808301925050505050505091929192908035906020019064010000000081111561028757600080fd5b82018360208201111561029957600080fd5b803590602001918460018302840111640100000000831117156102bb57600080fd5b91908080601f016020809104026020016040519081016040528093929190818152602001838380828437600081840152601f19601f820116905080830192505050505050509192919290505050610af5565b005b6103e86004803603604081101561032557600080fd5b810190808035906020019064010000000081111561034257600080fd5b82018360208201111561035457600080fd5b8035906020019184600183028401116401000000008311171561037657600080fd5b91908080601f016020809104026020016040519081016040528093929190818152602001838380828437600081840152601f19601f820116905080830192505050505050509192919290803573ffffffffffffffffffffffffffffffffffffffff169060200190929190505050611077565b005b6104a36004803603602081101561040057600080fd5b810190808035906020019064010000000081111561041d57600080fd5b82018360208201111561042f57600080fd5b8035906020019184600183028401116401000000008311171561045157600080fd5b91908080601f016020809104026020016040519081016040528093929190818152602001838380828437600081840152601f19601f820116905080830192505050505050509192919290505050611351565b604051808273ffffffffffffffffffffffffffffffffffffffff1673ffffffffffffffffffffffffffffffffffffffff16815260200191505060405180910390f35b61059e600480360360208110156104fb57600080fd5b810190808035906020019064010000000081111561051857600080fd5b82018360208201111561052a57600080fd5b8035906020019184600183028401116401000000008311171561054c57600080fd5b91908080601f016020809104026020016040519081016040528093929190818152602001838380828437600081840152601f19601f820116905080830192505050505050509192919290505050611532565b604051808473ffffffffffffffffffffffffffffffffffffffff1673ffffffffffffffffffffffffffffffffffffffff1681526020018373ffffffffffffffffffffffffffffffffffffffff1673ffffffffffffffffffffffffffffffffffffffff16815260200180602001828103825283818151815260200191508051906020019080838360005b83811015610642578082015181840152602081019050610627565b50505050905090810190601f16801561066f5780820380516001836020036101000a031916815260200191505b5094505050505060405180910390f35b6107386004803603602081101561069557600080fd5b81019080803590602001906401000000008111156106b257600080fd5b8201836020820111156106c457600080fd5b803590602001918460018302840111640100000000831117156106e657600080fd5b91908080601f016020809104026020016040519081016040528093929190818152602001838380828437600081840152601f19601f82011690508083019250505050505050919291929050505061164a565b604051808473ffffffffffffffffffffffffffffffffffffffff1673ffffffffffffffffffffffffffffffffffffffff1681526020018373ffffffffffffffffffffffffffffffffffffffff1673ffffffffffffffffffffffffffffffffffffffff16815260200180602001828103825283818151815260200191508051906020019080838360005b838110156107dc5780820151818401526020810190506107c1565b50505050905090810190601f1680156108095780820380516001836020036101000a031916815260200191505b5094505050505060405180910390f35b6108d26004803603602081101561082f57600080fd5b810190808035906020019064010000000081111561084c57600080fd5b82018360208201111561085e57600080fd5b8035906020019184600183028401116401000000008311171561088057600080fd5b91908080601f016020809104026020016040519081016040528093929190818152602001838380828437600081840152601f19601f820116905080830192505050505050509192919290505050611762565b604051808273ffffffffffffffffffffffffffffffffffffffff1673ffffffffffffffffffffffffffffffffffffffff16815260200191505060405180910390f35b600061091e611943565b6000836040518082805190602001908083835b602083106109545780518252602082019150602081019050602083039250610931565b6001836020036101000a03801982511681845116808217855250505050505090500191505090815260200160405180910390206040518060600160405290816000820160009054906101000a900473ffffffffffffffffffffffffffffffffffffffff1673ffffffffffffffffffffffffffffffffffffffff1673ffffffffffffffffffffffffffffffffffffffff1681526020016001820160009054906101000a900473ffffffffffffffffffffffffffffffffffffffff1673ffffffffffffffffffffffffffffffffffffffff1673ffffffffffffffffffffffffffffffffffffffff168152602001600282018054600181600116156101000203166002900480601f016020809104026020016040519081016040528092919081815260200182805460018160011615610100020316600290048015610ad75780601f10610aac57610100808354040283529160200191610ad7565b820191906000526020600020905b815481529060010190602001808311610aba57829003601f168201915b50505050508152505090506000816020015190508092505050919050565b610afd611943565b84816000019073ffffffffffffffffffffffffffffffffffffffff16908173ffffffffffffffffffffffffffffffffffffffff168152505083816020019073ffffffffffffffffffffffffffffffffffffffff16908173ffffffffffffffffffffffffffffffffffffffff1681525050818160400181905250806000846040518082805190602001908083835b60208310610bad5780518252602082019150602081019050602083039250610b8a565b6001836020036101000a038019825116818451168082178552505050505050905001915050908152602001604051809103902060008201518160000160006101000a81548173ffffffffffffffffffffffffffffffffffffffff021916908373ffffffffffffffffffffffffffffffffffffffff16021790555060208201518160010160006101000a81548173ffffffffffffffffffffffffffffffffffffffff021916908373ffffffffffffffffffffffffffffffffffffffff1602179055506040820151816002019080519060200190610c8a929190611990565b50905050806001836040518082805190602001908083835b60208310610cc55780518252602082019150602081019050602083039250610ca2565b6001836020036101000a038019825116818451168082178552505050505050905001915050908152602001604051809103902060008201518160000160006101000a81548173ffffffffffffffffffffffffffffffffffffffff021916908373ffffffffffffffffffffffffffffffffffffffff16021790555060208201518160010160006101000a81548173ffffffffffffffffffffffffffffffffffffffff021916908373ffffffffffffffffffffffffffffffffffffffff1602179055506040820151816002019080519060200190610da2929190611990565b50905050816040518082805190602001908083835b60208310610dda5780518252602082019150602081019050602083039250610db7565b6001836020036101000a0380198251168184511680821785525050505050509050019150506040518091039020836040518082805190602001908083835b60208310610e3b5780518252602082019150602081019050602083039250610e18565b6001836020036101000a03801982511681845116808217855250505050505090500191505060405180910390207f460bd0e304b19a98768709c98d7f5943be773145f506c0f490c2f47f703f47578787604051808373ffffffffffffffffffffffffffffffffffffffff1673ffffffffffffffffffffffffffffffffffffffff1681526020018273ffffffffffffffffffffffffffffffffffffffff1673ffffffffffffffffffffffffffffffffffffffff1681526020019250505060405180910390a37f25db3868baa42d60a73b6f076fceb10a25e6ad50e7e55ffed52513c1d96fa48285858585604051808573ffffffffffffffffffffffffffffffffffffffff1673ffffffffffffffffffffffffffffffffffffffff1681526020018473ffffffffffffffffffffffffffffffffffffffff1673ffffffffffffffffffffffffffffffffffffffff1681526020018060200180602001838103835285818151815260200191508051906020019080838360005b83811015610fcc578082015181840152602081019050610fb1565b50505050905090810190601f168015610ff95780820380516001836020036101000a031916815260200191505b50838103825284818151815260200191508051906020019080838360005b83811015611032578082015181840152602081019050611017565b50505050905090810190601f16801561105f5780820380516001836020036101000a031916815260200191505b50965050505050505060405180910390a15050505050565b61107f611943565b6000836040518082805190602001908083835b602083106110b55780518252602082019150602081019050602083039250611092565b6001836020036101000a03801982511681845116808217855250505050505090500191505090815260200160405180910390206040518060600160405290816000820160009054906101000a900473ffffffffffffffffffffffffffffffffffffffff1673ffffffffffffffffffffffffffffffffffffffff1673ffffffffffffffffffffffffffffffffffffffff1681526020016001820160009054906101000a900473ffffffffffffffffffffffffffffffffffffffff1673ffffffffffffffffffffffffffffffffffffffff1673ffffffffffffffffffffffffffffffffffffffff168152602001600282018054600181600116156101000203166002900480601f0160208091040260200160405190810160405280929190818152602001828054600181600116156101000203166002900480156112385780601f1061120d57610100808354040283529160200191611238565b820191906000526020600020905b81548152906001019060200180831161121b57829003601f168201915b50505050508152505090508173ffffffffffffffffffffffffffffffffffffffff16836040518082805190602001908083835b6020831061128e578051825260208201915060208101905060208303925061126b565b6001836020036101000a038019825116818451168082178552505050505050905001915050604051809103902082604001516040518082805190602001908083835b602083106112f357805182526020820191506020810190506020830392506112d0565b6001836020036101000a03801982511681845116808217855250505050505090500191505060405180910390207f515f8f170e144c8fa03149925175e551812aeabc54b31fe6a45e0577e509d97e60405160405180910390a4505050565b600061135b611943565b6001836040518082805190602001908083835b60208310611391578051825260208201915060208101905060208303925061136e565b6001836020036101000a03801982511681845116808217855250505050505090500191505090815260200160405180910390206040518060600160405290816000820160009054906101000a900473ffffffffffffffffffffffffffffffffffffffff1673ffffffffffffffffffffffffffffffffffffffff1673ffffffffffffffffffffffffffffffffffffffff1681526020016001820160009054906101000a900473ffffffffffffffffffffffffffffffffffffffff1673ffffffffffffffffffffffffffffffffffffffff1673ffffffffffffffffffffffffffffffffffffffff168152602001600282018054600181600116156101000203166002900480601f0160208091040260200160405190810160405280929190818152602001828054600181600116156101000203166002900480156115145780601f106114e957610100808354040283529160200191611514565b820191906000526020600020905b8154815290600101906020018083116114f757829003601f168201915b50505050508152505090506000816020015190508092505050919050565b6000818051602081018201805184825260208301602085012081835280955050505050506000915090508060000160009054906101000a900473ffffffffffffffffffffffffffffffffffffffff16908060010160009054906101000a900473ffffffffffffffffffffffffffffffffffffffff1690806002018054600181600116156101000203166002900480601f0160208091040260200160405190810160405280929190818152602001828054600181600116156101000203166002900480156116405780601f1061161557610100808354040283529160200191611640565b820191906000526020600020905b81548152906001019060200180831161162357829003601f168201915b5050505050905083565b6001818051602081018201805184825260208301602085012081835280955050505050506000915090508060000160009054906101000a900473ffffffffffffffffffffffffffffffffffffffff16908060010160009054906101000a900473ffffffffffffffffffffffffffffffffffffffff1690806002018054600181600116156101000203166002900480601f0160208091040260200160405190810160405280929190818152602001828054600181600116156101000203166002900480156117585780601f1061172d57610100808354040283529160200191611758565b820191906000526020600020905b81548152906001019060200180831161173b57829003601f168201915b5050505050905083565b600061176c611943565b6000836040518082805190602001908083835b602083106117a2578051825260208201915060208101905060208303925061177f565b6001836020036101000a03801982511681845116808217855250505050505090500191505090815260200160405180910390206040518060600160405290816000820160009054906101000a900473ffffffffffffffffffffffffffffffffffffffff1673ffffffffffffffffffffffffffffffffffffffff1673ffffffffffffffffffffffffffffffffffffffff1681526020016001820160009054906101000a900473ffffffffffffffffffffffffffffffffffffffff1673ffffffffffffffffffffffffffffffffffffffff1673ffffffffffffffffffffffffffffffffffffffff168152602001600282018054600181600116156101000203166002900480601f0160208091040260200160405190810160405280929190818152602001828054600181600116156101000203166002900480156119255780601f106118fa57610100808354040283529160200191611925565b820191906000526020600020905b81548152906001019060200180831161190857829003601f168201915b50505050508152505090506000816000015190508092505050919050565b6040518060600160405280600073ffffffffffffffffffffffffffffffffffffffff168152602001600073ffffffffffffffffffffffffffffffffffffffff168152602001606081525090565b828054600181600116156101000203166002900490600052602060002090601f016020900481019282601f106119d157805160ff19168380011785556119ff565b828001600101855582156119ff579182015b828111156119fe5782518255916020019190600101906119e3565b5b509050611a0c9190611a10565b5090565b611a3291905b80821115611a2e576000816000905550600101611a16565b5090565b9056fea265627a7a723158207613763243d16690177f5c7e1060228a7eb4dde2085989a01f840452930fd29064736f6c63430005100032",
  "source": "pragma solidity ^0.5.11;\n\ncontract KNS {\n\n/*\n    Events\n*/\n\nevent LostedKey(string indexed tel, string indexed Jid, address indexed new_wallet);\n\n// @warn  NOT-INDEXED values set AS IS, INDEXED values are ENCODED before setting\nevent Registred(address prime_owner, address wallet, string indexed Jid, string indexed tel);\nevent RegistredHuman(address prime_owner, address wallet, string JID, string tel);\n\n/*\n    Constants\n*/\n\n/*\n    Storage\n*/\n\n//Registry for JID => personal_info\nmapping (string => Info) public RegistryJ;\n\n// map from telephone => info\nmapping (string => Info) public RegistryT;\n\nstruct Info {\n       // address[] owners;\n        address prime_owner;\n        address wallet;\n        string tel;\n    }\n\n/*\n    Modidifiers\n\n*/\n\n\n\n/*\n    Public functions\n*/\n\n// FIXME: add check for existence\nfunction Register(address prime_owner, address wallet, string memory Jid, string memory tel) public {\n\n    Info memory info;\n    info.prime_owner = prime_owner;\n    info.wallet = wallet;\n    info.tel = tel;\n\n    RegistryJ[Jid] = info;\n    RegistryT[tel] = info;\n    emit Registred(prime_owner,wallet,Jid,tel);\n    emit RegistredHuman(prime_owner,wallet,Jid,tel);\n\n}\n\nfunction GetOwnerByJid(string memory Jid) public view returns(address owner) {\n\n    Info memory info;\n    info = RegistryJ[Jid];\n    address _owner = info.prime_owner;\n    return _owner;\n}\n\nfunction GetWalletByJid(string memory Jid) public view returns(address wallet) {\n\n    Info memory info;\n    info = RegistryJ[Jid];\n    address _wallet = info.wallet;\n    return _wallet;\n}\n\nfunction GetWalletByTel(string memory tel) public view returns (address wallet) {\n\n    Info memory info;\n    info = RegistryT[tel];\n    address _wallet = info.wallet;\n    return _wallet;\n\n}\n\nfunction LostKey(string memory Jid, address new_wallet) public {\n\n    Info memory info;\n    info = RegistryJ[Jid];\n    emit LostedKey(info.tel,Jid,new_wallet);\n\n}\n\n\n\n\n}",
  "sourcePath": "/home/jack/ethProjects/MS-Factory/contracts/KNS.sol",
  "compiler": {
    "name": "solc",
    "version": "0.5.16+commit.9c3226ce.Emscripten.clang"
  },
  "schemaVersion": "3.0.11",
  "updatedAt": "2020-02-26T16:52:03.012Z",
  "devdoc": {
    "methods": {}
  },
  "userdoc": {
    "methods": {}
  }
}