{
  "contractName": "MultiSigWallet",
  "abi": [
    {
      "inputs": [
        {
          "internalType": "address[]",
          "name": "_owners",
          "type": "address[]"
        },
        {
          "internalType": "uint256",
          "name": "_required",
          "type": "uint256"
        }
      ],
      "payable": false,
      "stateMutability": "nonpayable",
      "type": "constructor"
    },
    {
      "anonymous": false,
      "inputs": [
        {
          "indexed": true,
          "internalType": "address",
          "name": "sender",
          "type": "address"
        },
        {
          "indexed": true,
          "internalType": "uint256",
          "name": "transactionId",
          "type": "uint256"
        }
      ],
      "name": "Confirmation",
      "type": "event"
    },
    {
      "anonymous": false,
      "inputs": [
        {
          "indexed": true,
          "internalType": "address",
          "name": "sender",
          "type": "address"
        },
        {
          "indexed": false,
          "internalType": "uint256",
          "name": "value",
          "type": "uint256"
        }
      ],
      "name": "Deposit",
      "type": "event"
    },
    {
      "anonymous": false,
      "inputs": [
        {
          "indexed": true,
          "internalType": "uint256",
          "name": "transactionId",
          "type": "uint256"
        }
      ],
      "name": "Execution",
      "type": "event"
    },
    {
      "anonymous": false,
      "inputs": [
        {
          "indexed": true,
          "internalType": "uint256",
          "name": "transactionId",
          "type": "uint256"
        }
      ],
      "name": "ExecutionFailure",
      "type": "event"
    },
    {
      "anonymous": false,
      "inputs": [
        {
          "indexed": true,
          "internalType": "address",
          "name": "owner",
          "type": "address"
        }
      ],
      "name": "OwnerAddition",
      "type": "event"
    },
    {
      "anonymous": false,
      "inputs": [
        {
          "indexed": true,
          "internalType": "address",
          "name": "owner",
          "type": "address"
        }
      ],
      "name": "OwnerRemoval",
      "type": "event"
    },
    {
      "anonymous": false,
      "inputs": [
        {
          "indexed": false,
          "internalType": "uint256",
          "name": "required",
          "type": "uint256"
        }
      ],
      "name": "RequirementChange",
      "type": "event"
    },
    {
      "anonymous": false,
      "inputs": [
        {
          "indexed": true,
          "internalType": "address",
          "name": "sender",
          "type": "address"
        },
        {
          "indexed": true,
          "internalType": "uint256",
          "name": "transactionId",
          "type": "uint256"
        }
      ],
      "name": "Revocation",
      "type": "event"
    },
    {
      "anonymous": false,
      "inputs": [
        {
          "indexed": true,
          "internalType": "uint256",
          "name": "transactionId",
          "type": "uint256"
        }
      ],
      "name": "Submission",
      "type": "event"
    },
    {
      "payable": true,
      "stateMutability": "payable",
      "type": "fallback"
    },
    {
      "constant": true,
      "inputs": [],
      "name": "MAX_OWNER_COUNT",
      "outputs": [
        {
          "internalType": "uint256",
          "name": "",
          "type": "uint256"
        }
      ],
      "payable": false,
      "stateMutability": "view",
      "type": "function"
    },
    {
      "constant": true,
      "inputs": [
        {
          "internalType": "uint256",
          "name": "",
          "type": "uint256"
        },
        {
          "internalType": "address",
          "name": "",
          "type": "address"
        }
      ],
      "name": "confirmations",
      "outputs": [
        {
          "internalType": "bool",
          "name": "",
          "type": "bool"
        }
      ],
      "payable": false,
      "stateMutability": "view",
      "type": "function"
    },
    {
      "constant": true,
      "inputs": [
        {
          "internalType": "address",
          "name": "",
          "type": "address"
        }
      ],
      "name": "isOwner",
      "outputs": [
        {
          "internalType": "bool",
          "name": "",
          "type": "bool"
        }
      ],
      "payable": false,
      "stateMutability": "view",
      "type": "function"
    },
    {
      "constant": true,
      "inputs": [
        {
          "internalType": "uint256",
          "name": "",
          "type": "uint256"
        }
      ],
      "name": "owners",
      "outputs": [
        {
          "internalType": "address",
          "name": "",
          "type": "address"
        }
      ],
      "payable": false,
      "stateMutability": "view",
      "type": "function"
    },
    {
      "constant": true,
      "inputs": [],
      "name": "required",
      "outputs": [
        {
          "internalType": "uint256",
          "name": "",
          "type": "uint256"
        }
      ],
      "payable": false,
      "stateMutability": "view",
      "type": "function"
    },
    {
      "constant": true,
      "inputs": [],
      "name": "transactionCount",
      "outputs": [
        {
          "internalType": "uint256",
          "name": "",
          "type": "uint256"
        }
      ],
      "payable": false,
      "stateMutability": "view",
      "type": "function"
    },
    {
      "constant": true,
      "inputs": [
        {
          "internalType": "uint256",
          "name": "",
          "type": "uint256"
        }
      ],
      "name": "transactions",
      "outputs": [
        {
          "internalType": "address",
          "name": "destination",
          "type": "address"
        },
        {
          "internalType": "uint256",
          "name": "value",
          "type": "uint256"
        },
        {
          "internalType": "bytes",
          "name": "data",
          "type": "bytes"
        },
        {
          "internalType": "bool",
          "name": "executed",
          "type": "bool"
        }
      ],
      "payable": false,
      "stateMutability": "view",
      "type": "function"
    },
    {
      "constant": false,
      "inputs": [
        {
          "internalType": "address",
          "name": "owner",
          "type": "address"
        }
      ],
      "name": "addOwner",
      "outputs": [],
      "payable": false,
      "stateMutability": "nonpayable",
      "type": "function"
    },
    {
      "constant": false,
      "inputs": [
        {
          "internalType": "address",
          "name": "owner",
          "type": "address"
        }
      ],
      "name": "removeOwner",
      "outputs": [],
      "payable": false,
      "stateMutability": "nonpayable",
      "type": "function"
    },
    {
      "constant": false,
      "inputs": [
        {
          "internalType": "address",
          "name": "owner",
          "type": "address"
        },
        {
          "internalType": "address",
          "name": "newOwner",
          "type": "address"
        }
      ],
      "name": "replaceOwner",
      "outputs": [],
      "payable": false,
      "stateMutability": "nonpayable",
      "type": "function"
    },
    {
      "constant": false,
      "inputs": [
        {
          "internalType": "uint256",
          "name": "_required",
          "type": "uint256"
        }
      ],
      "name": "changeRequirement",
      "outputs": [],
      "payable": false,
      "stateMutability": "nonpayable",
      "type": "function"
    },
    {
      "constant": false,
      "inputs": [
        {
          "internalType": "address",
          "name": "destination",
          "type": "address"
        },
        {
          "internalType": "uint256",
          "name": "value",
          "type": "uint256"
        },
        {
          "internalType": "bytes",
          "name": "data",
          "type": "bytes"
        }
      ],
      "name": "submitTransaction",
      "outputs": [
        {
          "internalType": "uint256",
          "name": "transactionId",
          "type": "uint256"
        }
      ],
      "payable": false,
      "stateMutability": "nonpayable",
      "type": "function"
    },
    {
      "constant": false,
      "inputs": [
        {
          "internalType": "address",
          "name": "destination",
          "type": "address"
        },
        {
          "internalType": "uint256",
          "name": "value",
          "type": "uint256"
        },
        {
          "internalType": "bytes",
          "name": "data",
          "type": "bytes"
        }
      ],
      "name": "submitInvoice",
      "outputs": [
        {
          "internalType": "uint256",
          "name": "transactionId",
          "type": "uint256"
        }
      ],
      "payable": false,
      "stateMutability": "nonpayable",
      "type": "function"
    },
    {
      "constant": false,
      "inputs": [
        {
          "internalType": "uint256",
          "name": "transactionId",
          "type": "uint256"
        }
      ],
      "name": "confirmTransaction",
      "outputs": [],
      "payable": false,
      "stateMutability": "nonpayable",
      "type": "function"
    },
    {
      "constant": false,
      "inputs": [
        {
          "internalType": "uint256",
          "name": "transactionId",
          "type": "uint256"
        }
      ],
      "name": "revokeConfirmation",
      "outputs": [],
      "payable": false,
      "stateMutability": "nonpayable",
      "type": "function"
    },
    {
      "constant": false,
      "inputs": [
        {
          "internalType": "uint256",
          "name": "transactionId",
          "type": "uint256"
        }
      ],
      "name": "executeTransaction",
      "outputs": [],
      "payable": false,
      "stateMutability": "nonpayable",
      "type": "function"
    },
    {
      "constant": true,
      "inputs": [
        {
          "internalType": "uint256",
          "name": "transactionId",
          "type": "uint256"
        }
      ],
      "name": "isConfirmed",
      "outputs": [
        {
          "internalType": "bool",
          "name": "",
          "type": "bool"
        }
      ],
      "payable": false,
      "stateMutability": "view",
      "type": "function"
    },
    {
      "constant": true,
      "inputs": [
        {
          "internalType": "uint256",
          "name": "transactionId",
          "type": "uint256"
        }
      ],
      "name": "getConfirmationCount",
      "outputs": [
        {
          "internalType": "uint256",
          "name": "count",
          "type": "uint256"
        }
      ],
      "payable": false,
      "stateMutability": "view",
      "type": "function"
    },
    {
      "constant": true,
      "inputs": [
        {
          "internalType": "bool",
          "name": "pending",
          "type": "bool"
        },
        {
          "internalType": "bool",
          "name": "executed",
          "type": "bool"
        }
      ],
      "name": "getTransactionCount",
      "outputs": [
        {
          "internalType": "uint256",
          "name": "count",
          "type": "uint256"
        }
      ],
      "payable": false,
      "stateMutability": "view",
      "type": "function"
    },
    {
      "constant": true,
      "inputs": [],
      "name": "getOwners",
      "outputs": [
        {
          "internalType": "address[]",
          "name": "",
          "type": "address[]"
        }
      ],
      "payable": false,
      "stateMutability": "view",
      "type": "function"
    },
    {
      "constant": true,
      "inputs": [
        {
          "internalType": "uint256",
          "name": "transactionId",
          "type": "uint256"
        }
      ],
      "name": "getConfirmations",
      "outputs": [
        {
          "internalType": "address[]",
          "name": "_confirmations",
          "type": "address[]"
        }
      ],
      "payable": false,
      "stateMutability": "view",
      "type": "function"
    },
    {
      "constant": true,
      "inputs": [
        {
          "internalType": "uint256",
          "name": "from",
          "type": "uint256"
        },
        {
          "internalType": "uint256",
          "name": "to",
          "type": "uint256"
        },
        {
          "internalType": "bool",
          "name": "pending",
          "type": "bool"
        },
        {
          "internalType": "bool",
          "name": "executed",
          "type": "bool"
        }
      ],
      "name": "getTransactionIds",
      "outputs": [
        {
          "internalType": "uint256[]",
          "name": "_transactionIds",
          "type": "uint256[]"
        }
      ],
      "payable": false,
      "stateMutability": "view",
      "type": "function"
    }
  ],
  "bytecode": "0x60806040523480156200001157600080fd5b5060405162001e1d38038062001e1d833981810160405260408110156200003757600080fd5b81019080805160405193929190846401000000008211156200005857600080fd5b9083019060208201858111156200006e57600080fd5b82518660208202830111640100000000821117156200008c57600080fd5b82525081516020918201928201910280838360005b83811015620000bb578181015183820152602001620000a1565b50505050919091016040525060200151835190925090508160328211801590620000e55750818111155b8015620000f157508015155b8015620000fd57508115155b6200010757600080fd5b60005b8451811015620001d957600260008683815181106200012557fe5b6020908102919091018101516001600160a01b031682528101919091526040016000205460ff1615801562000181575060006001600160a01b03168582815181106200016d57fe5b60200260200101516001600160a01b031614155b6200018b57600080fd5b6001600260008784815181106200019e57fe5b6020908102919091018101516001600160a01b03168252810191909152604001600020805460ff19169115159190911790556001016200010a565b508351620001ef906003906020870190620001fc565b5050506004555062000290565b82805482825590600052602060002090810192821562000254579160200282015b828111156200025457825182546001600160a01b0319166001600160a01b039091161782556020909201916001909101906200021d565b506200026292915062000266565b5090565b6200028d91905b80821115620002625780546001600160a01b03191681556001016200026d565b90565b611b7d80620002a06000396000f3fe6080604052600436106101355760003560e01c8063a8abe69a116100ab578063c64274741161006f578063c642747414610569578063cf35225314610631578063d74f8edd146106f9578063dc8452cd1461070e578063e20056e614610723578063ee22610b1461075e57610135565b8063a8abe69a14610496578063b5dc40c3146104d6578063b77bf60014610500578063ba51a6df14610515578063c01a8c841461053f57610135565b806354741525116100fd57806354741525146102975780637065cb48146102dd578063784547a7146103105780638b51d13f1461033a5780639ace38c214610364578063a0e67e2b1461043157610135565b8063025e7c2714610174578063173825d9146101ba57806320ea8d86146101ed5780632f54bf6e146102175780633411c81c1461025e575b34156101725760408051348152905133917fe1fffcc4923d04b559f4d29a8bfc6cda04eb5b0d3c460751c2402c5c5cc9109c919081900360200190a25b005b34801561018057600080fd5b5061019e6004803603602081101561019757600080fd5b5035610788565b604080516001600160a01b039092168252519081900360200190f35b3480156101c657600080fd5b50610172600480360360208110156101dd57600080fd5b50356001600160a01b03166107af565b3480156101f957600080fd5b506101726004803603602081101561021057600080fd5b503561098d565b34801561022357600080fd5b5061024a6004803603602081101561023a57600080fd5b50356001600160a01b0316610b13565b604080519115158252519081900360200190f35b34801561026a57600080fd5b5061024a6004803603604081101561028157600080fd5b50803590602001356001600160a01b0316610b28565b3480156102a357600080fd5b506102cb600480360360408110156102ba57600080fd5b508035151590602001351515610b48565b60408051918252519081900360200190f35b3480156102e957600080fd5b506101726004803603602081101561030057600080fd5b50356001600160a01b0316610bb4565b34801561031c57600080fd5b5061024a6004803603602081101561033357600080fd5b5035610d71565b34801561034657600080fd5b506102cb6004803603602081101561035d57600080fd5b5035610df8565b34801561037057600080fd5b5061038e6004803603602081101561038757600080fd5b5035610e67565b60405180856001600160a01b03166001600160a01b031681526020018481526020018060200183151515158152602001828103825284818151815260200191508051906020019080838360005b838110156103f35781810151838201526020016103db565b50505050905090810190601f1680156104205780820380516001836020036101000a031916815260200191505b509550505050505060405180910390f35b34801561043d57600080fd5b50610446610f25565b60408051602080825283518183015283519192839290830191858101910280838360005b8381101561048257818101518382015260200161046a565b505050509050019250505060405180910390f35b3480156104a257600080fd5b50610446600480360360808110156104b957600080fd5b508035906020810135906040810135151590606001351515610f88565b3480156104e257600080fd5b50610446600480360360208110156104f957600080fd5b50356110b3565b34801561050c57600080fd5b506102cb61122a565b34801561052157600080fd5b506101726004803603602081101561053857600080fd5b5035611230565b34801561054b57600080fd5b506101726004803603602081101561056257600080fd5b50356112df565b34801561057557600080fd5b506102cb6004803603606081101561058c57600080fd5b6001600160a01b03823516916020810135918101906060810160408201356401000000008111156105bc57600080fd5b8201836020820111156105ce57600080fd5b803590602001918460018302840111640100000000831117156105f057600080fd5b91908080601f016020809104026020016040519081016040528093929190818152602001838380828437600092019190915250929550611460945050505050565b34801561063d57600080fd5b506102cb6004803603606081101561065457600080fd5b6001600160a01b038235169160208101359181019060608101604082013564010000000081111561068457600080fd5b82018360208201111561069657600080fd5b803590602001918460018302840111640100000000831117156106b857600080fd5b91908080601f01602080910402602001604051908101604052809392919081815260200183838082843760009201919091525092955061147f945050505050565b34801561070557600080fd5b506102cb611494565b34801561071a57600080fd5b506102cb611499565b34801561072f57600080fd5b506101726004803603604081101561074657600080fd5b506001600160a01b038135811691602001351661149f565b34801561076a57600080fd5b506101726004803603602081101561078157600080fd5b50356116ca565b6003818154811061079557fe5b6000918252602090912001546001600160a01b0316905081565b3330146107ed5760405162461bcd60e51b815260040180806020018281038252602c815260200180611b1d602c913960400191505060405180910390fd5b6001600160a01b038116600090815260026020526040902054819060ff16610854576040805162461bcd60e51b81526020600482015260156024820152744f776e657220646f6573206e6f742065786973742160581b604482015290519081900360640190fd5b6001600160a01b0382166000908152600260205260408120805460ff191690555b6003546000190181101561092857826001600160a01b03166003828154811061089a57fe5b6000918252602090912001546001600160a01b03161415610920576003805460001981019081106108c757fe5b600091825260209091200154600380546001600160a01b0390921691839081106108ed57fe5b9060005260206000200160006101000a8154816001600160a01b0302191690836001600160a01b03160217905550610928565b600101610875565b5060038054600019019061093c9082611a3a565b5060035460045411156109555760035461095590611230565b6040516001600160a01b038316907f8001553a916ef2f495d26a907cc54d96ed840d7bda71e73194bf5a9df7a76b9090600090a25050565b3360008181526002602052604090205460ff166109e9576040805162461bcd60e51b81526020600482015260156024820152744f776e657220646f6573206e6f742065786973742160581b604482015290519081900360640190fd5b60008281526001602090815260408083203380855292529091205483919060ff16610a5b576040805162461bcd60e51b815260206004820152601d60248201527f7472616e73616374696f6e206973206e6f7420636f6e6669726d656421000000604482015290519081900360640190fd5b600084815260208190526040902060030154849060ff1615610ac4576040805162461bcd60e51b815260206004820181905260248201527f7472616e73616374696f6e20697320616c726561647920657865637574656421604482015290519081900360640190fd5b6000858152600160209081526040808320338085529252808320805460ff191690555187927ff6a317157440607f36269043eb55f1287a5a19ba2216afeab88cd46cbcfb88e991a35050505050565b60026020526000908152604090205460ff1681565b600160209081526000928352604080842090915290825290205460ff1681565b6000805b600554811015610bad57838015610b75575060008181526020819052604090206003015460ff16155b80610b995750828015610b99575060008181526020819052604090206003015460ff165b15610ba5576001820191505b600101610b4c565b5092915050565b333014610bf25760405162461bcd60e51b815260040180806020018281038252602c815260200180611b1d602c913960400191505060405180910390fd5b6001600160a01b038116600090815260026020526040902054819060ff1615610c56576040805162461bcd60e51b81526020600482015260116024820152704f776e657220646f65732065786973742160781b604482015290519081900360640190fd5b816001600160a01b038116610ca5576040805162461bcd60e51b815260206004820152601060248201526f61646472657373206973206e756c6c2160801b604482015290519081900360640190fd5b60038054905060010160045460328211158015610cc25750818111155b8015610ccd57508015155b8015610cd857508115155b610ce157600080fd5b6001600160a01b038516600081815260026020526040808220805460ff1916600190811790915560038054918201815583527fc2575a0e9e593c00f959f8c92f12db2869c3395a3b0502d05e2516446f71f85b0180546001600160a01b03191684179055517ff39e6e1eb0edcf53c221607b54b00cd28f3196fed0a24994dc308b8f611b682d9190a25050505050565b600080805b600354811015610df05760008481526001602052604081206003805491929184908110610d9f57fe5b60009182526020808320909101546001600160a01b0316835282019290925260400190205460ff1615610dd3576001820191505b600454821415610de857600192505050610df3565b600101610d76565b50505b919050565b6000805b600354811015610e615760008381526001602052604081206003805491929184908110610e2557fe5b60009182526020808320909101546001600160a01b0316835282019290925260400190205460ff1615610e59576001820191505b600101610dfc565b50919050565b6000602081815291815260409081902080546001808301546002808501805487516101009582161595909502600019011691909104601f81018890048802840188019096528583526001600160a01b0390931695909491929190830182828015610f125780601f10610ee757610100808354040283529160200191610f12565b820191906000526020600020905b815481529060010190602001808311610ef557829003601f168201915b5050506003909301549192505060ff1684565b60606003805480602002602001604051908101604052809291908181526020018280548015610f7d57602002820191906000526020600020905b81546001600160a01b03168152600190910190602001808311610f5f575b505050505090505b90565b606080600554604051908082528060200260200182016040528015610fb7578160200160208202803883390190505b5090506000805b60055481101561103857858015610fe7575060008181526020819052604090206003015460ff16155b8061100b575084801561100b575060008181526020819052604090206003015460ff165b15611030578083838151811061101d57fe5b6020026020010181815250506001820191505b600101610fbe565b878703604051908082528060200260200182016040528015611064578160200160208202803883390190505b5093508790505b868110156110a85782818151811061107f57fe5b6020026020010151848983038151811061109557fe5b602090810291909101015260010161106b565b505050949350505050565b6060806003805490506040519080825280602002602001820160405280156110e5578160200160208202803883390190505b5090506000805b6003548110156111a8576000858152600160205260408120600380549192918490811061111557fe5b60009182526020808320909101546001600160a01b0316835282019290925260400190205460ff16156111a0576003818154811061114f57fe5b9060005260206000200160009054906101000a90046001600160a01b031683838151811061117957fe5b60200260200101906001600160a01b031690816001600160a01b0316815250506001820191505b6001016110ec565b816040519080825280602002602001820160405280156111d2578160200160208202803883390190505b509350600090505b81811015611222578281815181106111ee57fe5b602002602001015184828151811061120257fe5b6001600160a01b03909216602092830291909101909101526001016111da565b505050919050565b60055481565b33301461126e5760405162461bcd60e51b815260040180806020018281038252602c815260200180611b1d602c913960400191505060405180910390fd5b60035481603282118015906112835750818111155b801561128e57508015155b801561129957508115155b6112a257600080fd5b60048390556040805184815290517fa3f1ee9126a074d9326c682f561767f710e927faa811f7a99829d49dc421797a9181900360200190a1505050565b3360008181526002602052604090205460ff1661133b576040805162461bcd60e51b81526020600482015260156024820152744f776e657220646f6573206e6f742065786973742160581b604482015290519081900360640190fd5b60008281526020819052604090205482906001600160a01b03166113a6576040805162461bcd60e51b815260206004820152601960248201527f7472616e73616374696f6e206973206e6f742065786974732100000000000000604482015290519081900360640190fd5b60008381526001602090815260408083203380855292529091205484919060ff16156114035760405162461bcd60e51b8152600401808060200182810382526021815260200180611afc6021913960400191505060405180910390fd5b6000858152600160208181526040808420338086529252808420805460ff1916909317909255905187927f4a504a94899432a9846e1aa406dceb1bcfd538bb839071d49d1e5e23f5be30ef91a3611459856116ca565b5050505050565b600061146d848484611951565b9050611478816112df565b9392505050565b600061148c848484611951565b949350505050565b603281565b60045481565b3330146114dd5760405162461bcd60e51b815260040180806020018281038252602c815260200180611b1d602c913960400191505060405180910390fd5b6001600160a01b038216600090815260026020526040902054829060ff16611544576040805162461bcd60e51b81526020600482015260156024820152744f776e657220646f6573206e6f742065786973742160581b604482015290519081900360640190fd5b6001600160a01b038216600090815260026020526040902054829060ff16156115a8576040805162461bcd60e51b81526020600482015260116024820152704f776e657220646f65732065786973742160781b604482015290519081900360640190fd5b60005b60035481101561163057846001600160a01b0316600382815481106115cc57fe5b6000918252602090912001546001600160a01b031614156116285783600382815481106115f557fe5b9060005260206000200160006101000a8154816001600160a01b0302191690836001600160a01b03160217905550611630565b6001016115ab565b506001600160a01b03808516600081815260026020526040808220805460ff1990811690915593871682528082208054909416600117909355915190917f8001553a916ef2f495d26a907cc54d96ed840d7bda71e73194bf5a9df7a76b9091a26040516001600160a01b038416907ff39e6e1eb0edcf53c221607b54b00cd28f3196fed0a24994dc308b8f611b682d90600090a250505050565b3360008181526002602052604090205460ff16611726576040805162461bcd60e51b81526020600482015260156024820152744f776e657220646f6573206e6f742065786973742160581b604482015290519081900360640190fd5b60008281526001602090815260408083203380855292529091205483919060ff16611798576040805162461bcd60e51b815260206004820152601d60248201527f7472616e73616374696f6e206973206e6f7420636f6e6669726d656421000000604482015290519081900360640190fd5b600084815260208190526040902060030154849060ff1615611801576040805162461bcd60e51b815260206004820181905260248201527f7472616e73616374696f6e20697320616c726561647920657865637574656421604482015290519081900360640190fd5b61180a85610d71565b15611459576000858152602081815260409182902060038101805460ff19166001908117909155815481830154600280850180548851601f6000199783161561010002979097019091169290920494850187900487028201870190975283815293956118dc956001600160a01b039093169491939283908301828280156118d25780601f106118a7576101008083540402835291602001916118d2565b820191906000526020600020905b8154815290600101906020018083116118b557829003601f168201915b5050505050611a17565b156119115760405186907f33e13ecb54c3076d8e8bb8c2881800a4d972b792045ffae98fdf46df365fed7590600090a2611949565b60405186907f526441bb6c1aba3c9a4a6ca1d6545da9c2333c8c48343ef398eb858d72b7923690600090a260038101805460ff191690555b505050505050565b600554604080516080810182526001600160a01b038681168252602080830187815283850187815260006060860181905287815280845295909520845181546001600160a01b031916941693909317835551600183015592518051929391926119c09260028501920190611a63565b50606091909101516003909101805460ff191691151591909117905560058054600101905560405181907fc0ba8fe4b176c1714197d43b9cc6bcf797a4a7461c5fe8d0ef6e184ae7601e5190600090a29392505050565b6000806040516020840160008287838a8c6187965a03f198975050505050505050565b815481835581811115611a5e57600083815260209020611a5e918101908301611ae1565b505050565b828054600181600116156101000203166002900490600052602060002090601f016020900481019282601f10611aa457805160ff1916838001178555611ad1565b82800160010185558215611ad1579182015b82811115611ad1578251825591602001919060010190611ab6565b50611add929150611ae1565b5090565b610f8591905b80821115611add5760008155600101611ae756fe7472616e73616374696f6e20697320616c726561647920636f6e6669726d65642163616c6c2073686f756c6420626520696e766f6b65642066726f6d2057414c4c455420636f6e747261637421a265627a7a723158202ac0546c0a294daa17ed4559f2098b8c505dc38ef4cf903ee1b45e8c9d82d75b64736f6c63430005110032",
  "source": "pragma solidity ^0.5.0;\n\n\n/// @title Multisignature wallet - Allows multiple parties to agree on transactions before execution.\n/// @author Stefan George - <stefan.george@consensys.net>\ncontract MultiSigWallet {\n\n    /*\n     *  Events\n     */\n    event Confirmation(address indexed sender, uint indexed transactionId);\n    event Revocation(address indexed sender, uint indexed transactionId);\n    event Submission(uint indexed transactionId);\n    event Execution(uint indexed transactionId);\n    event ExecutionFailure(uint indexed transactionId);\n    event Deposit(address indexed sender, uint value);\n    event OwnerAddition(address indexed owner);\n    event OwnerRemoval(address indexed owner);\n    event RequirementChange(uint required);\n\n    /*\n     *  Constants\n     */\n    uint constant public MAX_OWNER_COUNT = 50;\n\n    /*\n     *  Storage\n     */\n    mapping (uint => Transaction) public transactions;\n    mapping (uint => mapping (address => bool)) public confirmations;\n    mapping (address => bool) public isOwner;\n    address[] public owners;\n    uint public required;\n    uint public transactionCount;\n\n    struct Transaction {\n        address destination;\n        uint value;\n        bytes data;\n        bool executed;\n    }\n\n    /*\n     *  Modifiers\n     */\n    modifier onlyWallet() {\n        require(msg.sender == address(this),\"call should be invoked from WALLET contract!\");\n        _;\n    }\n\n    modifier ownerDoesNotExist(address owner) {\n        require(!isOwner[owner],\"Owner does exist!\");\n        _;\n    }\n\n    modifier ownerExists(address owner) {\n        require(isOwner[owner],\"Owner does not exist!\");\n        _;\n    }\n\n    modifier transactionExists(uint transactionId) {\n        require(transactions[transactionId].destination != address(0),\"transaction is not exits!\");\n        _;\n    }\n\n    modifier confirmed(uint transactionId, address owner) {\n        require(confirmations[transactionId][owner],\"transaction is not confirmed!\");\n        _;\n    }\n\n    modifier notConfirmed(uint transactionId, address owner) {\n        require(!confirmations[transactionId][owner],\"transaction is already confirmed!\");\n        _;\n    }\n\n    modifier notExecuted(uint transactionId) {\n        require(!transactions[transactionId].executed,\"transaction is already executed!\");\n        _;\n    }\n\n    modifier notNull(address _address) {\n        require(_address != address(0),\"address is null!\");\n        _;\n    }\n\n    modifier validRequirement(uint ownerCount, uint _required) {\n        require(ownerCount <= MAX_OWNER_COUNT &&\n             _required <= ownerCount &&\n             _required != 0          &&\n             ownerCount != 0);\n        _;\n    }\n\n    /// @dev Fallback function allows to deposit ether.\n    function() external \n        payable\n    {\n        if (msg.value > 0)\n            emit Deposit(msg.sender, msg.value);\n    }\n\n    /*\n     * Public functions\n     */\n    /// @dev Contract constructor sets initial owners and required number of confirmations.\n    /// @param _owners List of initial owners.\n    /// @param _required Number of required confirmations.\n    constructor(address[] memory _owners, uint _required)\n        public\n        validRequirement(_owners.length, _required)\n    {\n        for (uint i = 0; i<_owners.length; i++) {\n            require(!isOwner[_owners[i]] && _owners[i] != address(0));\n            isOwner[_owners[i]] = true;\n        }\n        owners = _owners;\n        required = _required;\n    }\n\n    /// @dev Allows to add a new owner. Transaction has to be sent by wallet.\n    /// @param owner Address of new owner.\n    function addOwner(address owner)\n        public\n        onlyWallet\n        ownerDoesNotExist(owner)\n        notNull(owner)\n        validRequirement(owners.length + 1, required)\n    {\n        isOwner[owner] = true;\n        owners.push(owner);\n        emit OwnerAddition(owner);\n    }\n\n    /// @dev Allows to remove an owner. Transaction has to be sent by wallet.\n    /// @param owner Address of owner.\n    function removeOwner(address owner)\n        public\n        onlyWallet\n        ownerExists(owner)\n    {\n        isOwner[owner] = false;\n        for (uint i = 0; i<owners.length - 1; i++)\n            if (owners[i] == owner) {\n                owners[i] = owners[owners.length - 1];\n                break;\n            }\n        owners.length -= 1;\n        if (required > owners.length)\n            changeRequirement(owners.length);\n        emit OwnerRemoval(owner);\n    }\n\n    /// @dev Allows to replace an owner with a new owner. Transaction has to be sent by wallet.\n    /// @param owner Address of owner to be replaced.\n    /// @param newOwner Address of new owner.\n    function replaceOwner(address owner, address newOwner)\n        public\n        onlyWallet\n        ownerExists(owner)\n        ownerDoesNotExist(newOwner)\n    {\n        for (uint i = 0; i<owners.length; i++)\n            if (owners[i] == owner) {\n                owners[i] = newOwner;\n                break;\n            }\n        isOwner[owner] = false;\n        isOwner[newOwner] = true;\n        emit OwnerRemoval(owner);\n        emit OwnerAddition(newOwner);\n    }\n\n    /// @dev Allows to change the number of required confirmations. Transaction has to be sent by wallet.\n    /// @param _required Number of required confirmations.\n    function changeRequirement(uint _required)\n        public\n        onlyWallet\n        validRequirement(owners.length, _required)\n    {\n        required = _required;\n        emit RequirementChange(_required);\n    }\n\n    /// @dev Allows an owner to submit and confirm a transaction.\n    /// @param destination Transaction target address.\n    /// @param value Transaction ether value.\n    /// @param data Transaction data payload.\n    /// @return Returns transaction ID.\n    function submitTransaction(address destination, uint value, bytes memory data)\n        public\n        returns (uint transactionId)\n    {\n        transactionId = addTransaction(destination, value, data);\n        confirmTransaction(transactionId);\n    }\n\n    /// @dev Allows anyone to submit transaction without confirming it\n    function submitInvoice(address destination, uint value, bytes memory data)\n        public\n        returns (uint transactionId)\n    {\n        transactionId = addTransaction(destination, value, data);\n    }\n\n    /// @dev Allows an owner to confirm a transaction.\n    /// @param transactionId Transaction ID.\n    function confirmTransaction(uint transactionId)\n        public\n        ownerExists(msg.sender)\n        transactionExists(transactionId)\n        notConfirmed(transactionId, msg.sender)\n    {\n        confirmations[transactionId][msg.sender] = true;\n        emit Confirmation(msg.sender, transactionId);\n        executeTransaction(transactionId);\n    }\n\n    /// @dev Allows an owner to revoke a confirmation for a transaction.\n    /// @param transactionId Transaction ID.\n    function revokeConfirmation(uint transactionId)\n        public\n        ownerExists(msg.sender)\n        confirmed(transactionId, msg.sender)\n        notExecuted(transactionId)\n    {\n        confirmations[transactionId][msg.sender] = false;\n        emit Revocation(msg.sender, transactionId);\n    }\n\n    /// @dev Allows anyone to execute a confirmed transaction.\n    /// @param transactionId Transaction ID.\n    function executeTransaction(uint transactionId)\n        public\n        ownerExists(msg.sender)\n        confirmed(transactionId, msg.sender)\n        notExecuted(transactionId)\n    {\n        if (isConfirmed(transactionId)) {\n            Transaction storage txn = transactions[transactionId];\n            txn.executed = true;\n            if (external_call(txn.destination, txn.value, txn.data.length, txn.data))\n                emit Execution(transactionId);\n            else {\n                emit ExecutionFailure(transactionId);\n                txn.executed = false;\n            }\n        }\n    }\n\n    // call has been separated into its own function in order to take advantage\n    // of the Solidity's code generator to produce a loop that copies tx.data into memory.\n    function external_call(address destination, uint value, uint dataLength, bytes memory data) internal returns (bool) {\n        bool result;\n        assembly {\n            let x := mload(0x40)   // \"Allocate\" memory for output (0x40 is where \"free memory\" pointer is stored by convention)\n            let d := add(data, 32) // First 32 bytes are the padded length of data, so exclude that\n            result := call(\n                sub(gas(), 34710),   // 34710 is the value that solidity is currently emitting\n                                   // It includes callGas (700) + callVeryLow (3, to pay for SUB) + callValueTransferGas (9000) +\n                                   // callNewAccountGas (25000, in case the destination address does not exist and needs creating)\n                destination,\n                value,\n                d,\n                dataLength,        // Size of the input (in bytes) - this is what fixes the padding problem\n                x,\n                0                  // Output is ignored, therefore the output size is zero\n            )\n        }\n        return result;\n    }\n\n    /// @dev Returns the confirmation status of a transaction.\n    /// @param transactionId Transaction ID.\n    /// @return Confirmation status.\n    function isConfirmed(uint transactionId)\n        public\n        view\n        returns (bool)\n    {\n        uint count = 0;\n        for (uint i = 0; i<owners.length; i++) {\n            if (confirmations[transactionId][owners[i]])\n                count += 1;\n            if (count == required)\n                return true;\n        }\n    }\n\n    /*\n     * Internal functions\n     */\n    /// @dev Adds a new transaction to the transaction mapping, if transaction does not exist yet.\n    /// @param destination Transaction target address.\n    /// @param value Transaction ether value.\n    /// @param data Transaction data payload.\n    /// @return Returns transaction ID.\n    function addTransaction(address destination, uint value, bytes memory data)\n        internal\n      //  notNull(destination)\n        returns (uint transactionId)\n    {\n        transactionId = transactionCount;\n        transactions[transactionId] = Transaction({\n            destination: destination,\n            value: value,\n            data: data,\n            executed: false\n        });\n        transactionCount += 1;\n        emit Submission(transactionId);\n    }\n\n    /*\n     * Web3 call functions\n     */\n    /// @dev Returns number of confirmations of a transaction.\n    /// @param transactionId Transaction ID.\n    /// @return Number of confirmations.\n    function getConfirmationCount(uint transactionId)\n        public\n        view\n        returns (uint count)\n    {\n        for (uint i = 0; i<owners.length; i++)\n            if (confirmations[transactionId][owners[i]])\n                count += 1;\n    }\n\n    /// @dev Returns total number of transactions after filers are applied.\n    /// @param pending Include pending transactions.\n    /// @param executed Include executed transactions.\n    /// @return Total number of transactions after filters are applied.\n    function getTransactionCount(bool pending, bool executed)\n        public\n        view\n        returns (uint count)\n    {\n        for (uint i = 0; i<transactionCount; i++)\n            if (   pending && !transactions[i].executed ||\n                 executed && transactions[i].executed)\n                count += 1;\n    }\n\n    /// @dev Returns list of owners.\n    /// @return List of owner addresses.\n    function getOwners()\n        public\n        view\n        returns (address[] memory)\n    {\n        return owners;\n    }\n\n    /// @dev Returns array with owner addresses, which confirmed transaction.\n    /// @param transactionId Transaction ID.\n    /// @return Returns array of owner addresses.\n    function getConfirmations(uint transactionId)\n        public\n        view\n        returns (address[] memory _confirmations)\n    {\n        address[] memory confirmationsTemp = new address[](owners.length);\n        uint count = 0;\n        uint i;\n        for (i = 0; i<owners.length; i++)\n            if (confirmations[transactionId][owners[i]]) {\n                confirmationsTemp[count] = owners[i];\n                count += 1;\n            }\n        _confirmations = new address[](count);\n        for (i = 0; i<count; i++)\n            _confirmations[i] = confirmationsTemp[i];\n    }\n\n    /// @dev Returns list of transaction IDs in defined range.\n    /// @param from Index start position of transaction array.\n    /// @param to Index end position of transaction array.\n    /// @param pending Include pending transactions.\n    /// @param executed Include executed transactions.\n    /// @return Returns array of transaction IDs.\n    function getTransactionIds(uint from, uint to, bool pending, bool executed)\n        public\n        view\n        returns (uint[] memory _transactionIds)\n    {\n        uint[] memory transactionIdsTemp = new uint[](transactionCount);\n        uint count = 0;\n        uint i;\n        for (i = 0; i<transactionCount; i++)\n            if (   pending && !transactions[i].executed ||\n                 executed && transactions[i].executed)\n            {\n                transactionIdsTemp[count] = i;\n                count += 1;\n            }\n        _transactionIds = new uint[](to - from);\n        for (i = from; i<to; i++)\n            _transactionIds[i - from] = transactionIdsTemp[i];\n    }\n}\n",
  "sourcePath": "/home/jack/ethProjects/MS-Factory/contracts/gnosis/MultiSigWallet.sol",
  "compiler": {
    "name": "solc",
    "version": "0.5.17+commit.d19bba13.Emscripten.clang"
  },
  "schemaVersion": "3.0.11",
  "updatedAt": "2020-05-03T18:09:02.791Z",
  "devdoc": {
    "author": "Stefan George - <stefan.george@consensys.net>",
    "methods": {
      "addOwner(address)": {
        "details": "Allows to add a new owner. Transaction has to be sent by wallet.",
        "params": {
          "owner": "Address of new owner."
        }
      },
      "changeRequirement(uint256)": {
        "details": "Allows to change the number of required confirmations. Transaction has to be sent by wallet.",
        "params": {
          "_required": "Number of required confirmations."
        }
      },
      "confirmTransaction(uint256)": {
        "details": "Allows an owner to confirm a transaction.",
        "params": {
          "transactionId": "Transaction ID."
        }
      },
      "constructor": {
        "details": "Contract constructor sets initial owners and required number of confirmations.",
        "params": {
          "_owners": "List of initial owners.",
          "_required": "Number of required confirmations."
        }
      },
      "executeTransaction(uint256)": {
        "details": "Allows anyone to execute a confirmed transaction.",
        "params": {
          "transactionId": "Transaction ID."
        }
      },
      "getConfirmationCount(uint256)": {
        "details": "Returns number of confirmations of a transaction.",
        "params": {
          "transactionId": "Transaction ID."
        },
        "return": "Number of confirmations."
      },
      "getConfirmations(uint256)": {
        "details": "Returns array with owner addresses, which confirmed transaction.",
        "params": {
          "transactionId": "Transaction ID."
        },
        "return": "Returns array of owner addresses."
      },
      "getOwners()": {
        "details": "Returns list of owners.",
        "return": "List of owner addresses."
      },
      "getTransactionCount(bool,bool)": {
        "details": "Returns total number of transactions after filers are applied.",
        "params": {
          "executed": "Include executed transactions.",
          "pending": "Include pending transactions."
        },
        "return": "Total number of transactions after filters are applied."
      },
      "getTransactionIds(uint256,uint256,bool,bool)": {
        "details": "Returns list of transaction IDs in defined range.",
        "params": {
          "executed": "Include executed transactions.",
          "from": "Index start position of transaction array.",
          "pending": "Include pending transactions.",
          "to": "Index end position of transaction array."
        },
        "return": "Returns array of transaction IDs."
      },
      "isConfirmed(uint256)": {
        "details": "Returns the confirmation status of a transaction.",
        "params": {
          "transactionId": "Transaction ID."
        },
        "return": "Confirmation status."
      },
      "removeOwner(address)": {
        "details": "Allows to remove an owner. Transaction has to be sent by wallet.",
        "params": {
          "owner": "Address of owner."
        }
      },
      "replaceOwner(address,address)": {
        "details": "Allows to replace an owner with a new owner. Transaction has to be sent by wallet.",
        "params": {
          "newOwner": "Address of new owner.",
          "owner": "Address of owner to be replaced."
        }
      },
      "revokeConfirmation(uint256)": {
        "details": "Allows an owner to revoke a confirmation for a transaction.",
        "params": {
          "transactionId": "Transaction ID."
        }
      },
      "submitInvoice(address,uint256,bytes)": {
        "details": "Allows anyone to submit transaction without confirming it"
      },
      "submitTransaction(address,uint256,bytes)": {
        "details": "Allows an owner to submit and confirm a transaction.",
        "params": {
          "data": "Transaction data payload.",
          "destination": "Transaction target address.",
          "value": "Transaction ether value."
        },
        "return": "Returns transaction ID."
      }
    },
    "title": "Multisignature wallet - Allows multiple parties to agree on transactions before execution."
  },
  "userdoc": {
    "methods": {}
  }
}