{
  "contractName": "MultiSigWalletWithDailyLimitFactory",
  "abi": [
    {
      "anonymous": false,
      "inputs": [
        {
          "indexed": false,
          "internalType": "address",
          "name": "sender",
          "type": "address"
        },
        {
          "indexed": false,
          "internalType": "address",
          "name": "instantiation",
          "type": "address"
        }
      ],
      "name": "ContractInstantiation",
      "type": "event"
    },
    {
      "constant": true,
      "inputs": [
        {
          "internalType": "address",
          "name": "creator",
          "type": "address"
        }
      ],
      "name": "getInstantiationCount",
      "outputs": [
        {
          "internalType": "uint256",
          "name": "",
          "type": "uint256"
        }
      ],
      "payable": false,
      "stateMutability": "view",
      "type": "function"
    },
    {
      "constant": true,
      "inputs": [
        {
          "internalType": "address",
          "name": "",
          "type": "address"
        },
        {
          "internalType": "uint256",
          "name": "",
          "type": "uint256"
        }
      ],
      "name": "instantiations",
      "outputs": [
        {
          "internalType": "address",
          "name": "",
          "type": "address"
        }
      ],
      "payable": false,
      "stateMutability": "view",
      "type": "function"
    },
    {
      "constant": true,
      "inputs": [
        {
          "internalType": "address",
          "name": "",
          "type": "address"
        }
      ],
      "name": "isInstantiation",
      "outputs": [
        {
          "internalType": "bool",
          "name": "",
          "type": "bool"
        }
      ],
      "payable": false,
      "stateMutability": "view",
      "type": "function"
    },
    {
      "constant": false,
      "inputs": [
        {
          "internalType": "address[]",
          "name": "_owners",
          "type": "address[]"
        },
        {
          "internalType": "uint256",
          "name": "_required",
          "type": "uint256"
        },
        {
          "internalType": "uint256",
          "name": "_dailyLimit",
          "type": "uint256"
        }
      ],
      "name": "create",
      "outputs": [
        {
          "internalType": "address",
          "name": "wallet",
          "type": "address"
        }
      ],
      "payable": false,
      "stateMutability": "nonpayable",
      "type": "function"
    }
  ],
  "bytecode": "0x608060405234801561001057600080fd5b506137b2806100206000396000f3fe608060405234801561001057600080fd5b506004361061004c5760003560e01c80632f4f33161461005157806353d9d910146100ad57806357183c82146101b95780638f83847814610247575b600080fd5b6100936004803603602081101561006757600080fd5b81019080803573ffffffffffffffffffffffffffffffffffffffff16906020019092919050505061029f565b604051808215151515815260200191505060405180910390f35b610177600480360360608110156100c357600080fd5b81019080803590602001906401000000008111156100e057600080fd5b8201836020820111156100f257600080fd5b8035906020019184602083028401116401000000008311171561011457600080fd5b919080806020026020016040519081016040528093929190818152602001838360200280828437600081840152601f19601f82011690508083019250505050505050919291929080359060200190929190803590602001909291905050506102bf565b604051808273ffffffffffffffffffffffffffffffffffffffff1673ffffffffffffffffffffffffffffffffffffffff16815260200191505060405180910390f35b610205600480360360408110156101cf57600080fd5b81019080803573ffffffffffffffffffffffffffffffffffffffff16906020019092919080359060200190929190505050610358565b604051808273ffffffffffffffffffffffffffffffffffffffff1673ffffffffffffffffffffffffffffffffffffffff16815260200191505060405180910390f35b6102896004803603602081101561025d57600080fd5b81019080803573ffffffffffffffffffffffffffffffffffffffff1690602001909291905050506103a3565b6040518082815260200191505060405180910390f35b60006020528060005260406000206000915054906101000a900460ff1681565b60008383836040516102d090610583565b8080602001848152602001838152602001828103825285818151815260200191508051906020019060200280838360005b8381101561031c578082015181840152602081019050610301565b50505050905001945050505050604051809103906000f080158015610345573d6000803e3d6000fd5b509050610351816103ef565b9392505050565b6001602052816000526040600020818154811061037157fe5b906000526020600020016000915091509054906101000a900473ffffffffffffffffffffffffffffffffffffffff1681565b6000600160008373ffffffffffffffffffffffffffffffffffffffff1673ffffffffffffffffffffffffffffffffffffffff168152602001908152602001600020805490509050919050565b60016000808373ffffffffffffffffffffffffffffffffffffffff1673ffffffffffffffffffffffffffffffffffffffff16815260200190815260200160002060006101000a81548160ff021916908315150217905550600160003373ffffffffffffffffffffffffffffffffffffffff1673ffffffffffffffffffffffffffffffffffffffff1681526020019081526020016000208190806001815401808255809150509060018203906000526020600020016000909192909190916101000a81548173ffffffffffffffffffffffffffffffffffffffff021916908373ffffffffffffffffffffffffffffffffffffffff160217905550507f4fb057ad4a26ed17a57957fa69c306f11987596069b89521c511fc9a894e61613382604051808373ffffffffffffffffffffffffffffffffffffffff1673ffffffffffffffffffffffffffffffffffffffff1681526020018273ffffffffffffffffffffffffffffffffffffffff1673ffffffffffffffffffffffffffffffffffffffff1681526020019250505060405180910390a150565b6131ed806105918339019056fe60806040523480156200001157600080fd5b50604051620031ed380380620031ed833981810160405260608110156200003757600080fd5b81019080805160405193929190846401000000008211156200005857600080fd5b838201915060208201858111156200006f57600080fd5b82518660208202830111640100000000821117156200008d57600080fd5b8083526020830192505050908051906020019060200280838360005b83811015620000c6578082015181840152602081019050620000a9565b505050509050016040526020018051906020019092919080519060200190929190505050828281518160328211158015620001015750818111155b80156200010f575060008114155b80156200011d575060008214155b6200012757600080fd5b60008090505b84518110156200026b57600260008683815181106200014857fe5b602002602001015173ffffffffffffffffffffffffffffffffffffffff1673ffffffffffffffffffffffffffffffffffffffff16815260200190815260200160002060009054906101000a900460ff16158015620001e75750600073ffffffffffffffffffffffffffffffffffffffff16858281518110620001c657fe5b602002602001015173ffffffffffffffffffffffffffffffffffffffff1614155b620001f157600080fd5b6001600260008784815181106200020457fe5b602002602001015173ffffffffffffffffffffffffffffffffffffffff1673ffffffffffffffffffffffffffffffffffffffff16815260200190815260200160002060006101000a81548160ff02191690831515021790555080806001019150506200012d565b50836003908051906020019062000284929190620002a0565b5082600481905550505050508060068190555050505062000375565b8280548282559060005260206000209081019282156200031c579160200282015b828111156200031b5782518260006101000a81548173ffffffffffffffffffffffffffffffffffffffff021916908373ffffffffffffffffffffffffffffffffffffffff16021790555091602001919060010190620002c1565b5b5090506200032b91906200032f565b5090565b6200037291905b808211156200036e57600081816101000a81549073ffffffffffffffffffffffffffffffffffffffff02191690555060010162000336565b5090565b90565b612e6880620003856000396000f3fe60806040526004361061019c5760003560e01c8063a0e67e2b116100ec578063cea086211161008a578063dc8452cd11610064578063dc8452cd14610b64578063e20056e614610b8f578063ee22610b14610c00578063f059cf2b14610c3b5761019c565b8063cea08621146109f8578063cf35225314610a33578063d74f8edd14610b395761019c565b8063b77bf600116100c6578063b77bf60014610851578063ba51a6df1461087c578063c01a8c84146108b7578063c6427474146108f25761019c565b8063a0e67e2b146106a3578063a8abe69a1461070f578063b5dc40c3146107c15761019c565b806354741525116101595780637065cb48116101335780637065cb48146104b7578063784547a7146105085780638b51d13f1461055b5780639ace38c2146105aa5761019c565b8063547415251461040457806367eeba0c146104615780636b0c932d1461048c5761019c565b8063025e7c27146101f6578063173825d91461027157806320ea8d86146102c25780632f54bf6e146102fd5780633411c81c146103665780634bc9fdc2146103d9575b60003411156101f4573373ffffffffffffffffffffffffffffffffffffffff167fe1fffcc4923d04b559f4d29a8bfc6cda04eb5b0d3c460751c2402c5c5cc9109c346040518082815260200191505060405180910390a25b005b34801561020257600080fd5b5061022f6004803603602081101561021957600080fd5b8101908080359060200190929190505050610c66565b604051808273ffffffffffffffffffffffffffffffffffffffff1673ffffffffffffffffffffffffffffffffffffffff16815260200191505060405180910390f35b34801561027d57600080fd5b506102c06004803603602081101561029457600080fd5b81019080803573ffffffffffffffffffffffffffffffffffffffff169060200190929190505050610ca2565b005b3480156102ce57600080fd5b506102fb600480360360208110156102e557600080fd5b8101908080359060200190929190505050610fe5565b005b34801561030957600080fd5b5061034c6004803603602081101561032057600080fd5b81019080803573ffffffffffffffffffffffffffffffffffffffff1690602001909291905050506112c2565b604051808215151515815260200191505060405180910390f35b34801561037257600080fd5b506103bf6004803603604081101561038957600080fd5b8101908080359060200190929190803573ffffffffffffffffffffffffffffffffffffffff1690602001909291905050506112e2565b604051808215151515815260200191505060405180910390f35b3480156103e557600080fd5b506103ee611311565b6040518082815260200191505060405180910390f35b34801561041057600080fd5b5061044b6004803603604081101561042757600080fd5b8101908080351515906020019092919080351515906020019092919050505061134e565b6040518082815260200191505060405180910390f35b34801561046d57600080fd5b506104766113e0565b6040518082815260200191505060405180910390f35b34801561049857600080fd5b506104a16113e6565b6040518082815260200191505060405180910390f35b3480156104c357600080fd5b50610506600480360360208110156104da57600080fd5b81019080803573ffffffffffffffffffffffffffffffffffffffff1690602001909291905050506113ec565b005b34801561051457600080fd5b506105416004803603602081101561052b57600080fd5b810190808035906020019092919050505061171d565b604051808215151515815260200191505060405180910390f35b34801561056757600080fd5b506105946004803603602081101561057e57600080fd5b8101908080359060200190929190505050611802565b6040518082815260200191505060405180910390f35b3480156105b657600080fd5b506105e3600480360360208110156105cd57600080fd5b81019080803590602001909291905050506118cb565b604051808573ffffffffffffffffffffffffffffffffffffffff1673ffffffffffffffffffffffffffffffffffffffff1681526020018481526020018060200183151515158152602001828103825284818151815260200191508051906020019080838360005b8381101561066557808201518184015260208101905061064a565b50505050905090810190601f1680156106925780820380516001836020036101000a031916815260200191505b509550505050505060405180910390f35b3480156106af57600080fd5b506106b86119c0565b6040518080602001828103825283818151815260200191508051906020019060200280838360005b838110156106fb5780820151818401526020810190506106e0565b505050509050019250505060405180910390f35b34801561071b57600080fd5b5061076a6004803603608081101561073257600080fd5b810190808035906020019092919080359060200190929190803515159060200190929190803515159060200190929190505050611a4e565b6040518080602001828103825283818151815260200191508051906020019060200280838360005b838110156107ad578082015181840152602081019050610792565b505050509050019250505060405180910390f35b3480156107cd57600080fd5b506107fa600480360360208110156107e457600080fd5b8101908080359060200190929190505050611bb2565b6040518080602001828103825283818151815260200191508051906020019060200280838360005b8381101561083d578082015181840152602081019050610822565b505050509050019250505060405180910390f35b34801561085d57600080fd5b50610866611dde565b6040518082815260200191505060405180910390f35b34801561088857600080fd5b506108b56004803603602081101561089f57600080fd5b8101908080359060200190929190505050611de4565b005b3480156108c357600080fd5b506108f0600480360360208110156108da57600080fd5b8101908080359060200190929190505050611ee6565b005b3480156108fe57600080fd5b506109e26004803603606081101561091557600080fd5b81019080803573ffffffffffffffffffffffffffffffffffffffff169060200190929190803590602001909291908035906020019064010000000081111561095c57600080fd5b82018360208201111561096e57600080fd5b8035906020019184600183028401116401000000008311171561099057600080fd5b91908080601f016020809104026020016040519081016040528093929190818152602001838380828437600081840152601f19601f8201169050808301925050505050505091929192905050506121f1565b6040518082815260200191505060405180910390f35b348015610a0457600080fd5b50610a3160048036036020811015610a1b57600080fd5b8101908080359060200190929190505050612210565b005b348015610a3f57600080fd5b50610b2360048036036060811015610a5657600080fd5b81019080803573ffffffffffffffffffffffffffffffffffffffff1690602001909291908035906020019092919080359060200190640100000000811115610a9d57600080fd5b820183602082011115610aaf57600080fd5b80359060200191846001830284011164010000000083111715610ad157600080fd5b91908080601f016020809104026020016040519081016040528093929190818152602001838380828437600081840152601f19601f8201169050808301925050505050505091929192905050506122d5565b6040518082815260200191505060405180910390f35b348015610b4557600080fd5b50610b4e6122eb565b6040518082815260200191505060405180910390f35b348015610b7057600080fd5b50610b796122f0565b6040518082815260200191505060405180910390f35b348015610b9b57600080fd5b50610bfe60048036036040811015610bb257600080fd5b81019080803573ffffffffffffffffffffffffffffffffffffffff169060200190929190803573ffffffffffffffffffffffffffffffffffffffff1690602001909291905050506122f6565b005b348015610c0c57600080fd5b50610c3960048036036020811015610c2357600080fd5b810190808035906020019092919050505061271e565b005b348015610c4757600080fd5b50610c50612b6d565b6040518082815260200191505060405180910390f35b60038181548110610c7357fe5b906000526020600020016000915054906101000a900473ffffffffffffffffffffffffffffffffffffffff1681565b3073ffffffffffffffffffffffffffffffffffffffff163373ffffffffffffffffffffffffffffffffffffffff1614610d26576040517f08c379a000000000000000000000000000000000000000000000000000000000815260040180806020018281038252602c815260200180612e08602c913960400191505060405180910390fd5b80600260008273ffffffffffffffffffffffffffffffffffffffff1673ffffffffffffffffffffffffffffffffffffffff16815260200190815260200160002060009054906101000a900460ff16610de6576040517f08c379a00000000000000000000000000000000000000000000000000000000081526004018080602001828103825260158152602001807f4f776e657220646f6573206e6f7420657869737421000000000000000000000081525060200191505060405180910390fd5b6000600260008473ffffffffffffffffffffffffffffffffffffffff1673ffffffffffffffffffffffffffffffffffffffff16815260200190815260200160002060006101000a81548160ff02191690831515021790555060008090505b600160038054905003811015610f66578273ffffffffffffffffffffffffffffffffffffffff1660038281548110610e7857fe5b9060005260206000200160009054906101000a900473ffffffffffffffffffffffffffffffffffffffff1673ffffffffffffffffffffffffffffffffffffffff161415610f5957600360016003805490500381548110610ed457fe5b9060005260206000200160009054906101000a900473ffffffffffffffffffffffffffffffffffffffff1660038281548110610f0c57fe5b9060005260206000200160006101000a81548173ffffffffffffffffffffffffffffffffffffffff021916908373ffffffffffffffffffffffffffffffffffffffff160217905550610f66565b8080600101915050610e44565b506001600381818054905003915081610f7f9190612d15565b506003805490506004541115610f9e57610f9d600380549050611de4565b5b8173ffffffffffffffffffffffffffffffffffffffff167f8001553a916ef2f495d26a907cc54d96ed840d7bda71e73194bf5a9df7a76b9060405160405180910390a25050565b33600260008273ffffffffffffffffffffffffffffffffffffffff1673ffffffffffffffffffffffffffffffffffffffff16815260200190815260200160002060009054906101000a900460ff166110a5576040517f08c379a00000000000000000000000000000000000000000000000000000000081526004018080602001828103825260158152602001807f4f776e657220646f6573206e6f7420657869737421000000000000000000000081525060200191505060405180910390fd5b81336001600083815260200190815260200160002060008273ffffffffffffffffffffffffffffffffffffffff1673ffffffffffffffffffffffffffffffffffffffff16815260200190815260200160002060009054906101000a900460ff16611177576040517f08c379a000000000000000000000000000000000000000000000000000000000815260040180806020018281038252601d8152602001807f7472616e73616374696f6e206973206e6f7420636f6e6669726d65642100000081525060200191505060405180910390fd5b8360008082815260200190815260200160002060030160009054906101000a900460ff161561120e576040517f08c379a00000000000000000000000000000000000000000000000000000000081526004018080602001828103825260208152602001807f7472616e73616374696f6e20697320616c72656164792065786563757465642181525060200191505060405180910390fd5b60006001600087815260200190815260200160002060003373ffffffffffffffffffffffffffffffffffffffff1673ffffffffffffffffffffffffffffffffffffffff16815260200190815260200160002060006101000a81548160ff021916908315150217905550843373ffffffffffffffffffffffffffffffffffffffff167ff6a317157440607f36269043eb55f1287a5a19ba2216afeab88cd46cbcfb88e960405160405180910390a35050505050565b60026020528060005260406000206000915054906101000a900460ff1681565b60016020528160005260406000206020528060005260406000206000915091509054906101000a900460ff1681565b6000620151806007540142111561132c57600654905061134b565b6008546006541015611341576000905061134b565b6008546006540390505b90565b600080600090505b6005548110156113d95783801561138d575060008082815260200190815260200160002060030160009054906101000a900460ff16155b806113c057508280156113bf575060008082815260200190815260200160002060030160009054906101000a900460ff165b5b156113cc576001820191505b8080600101915050611356565b5092915050565b60065481565b60075481565b3073ffffffffffffffffffffffffffffffffffffffff163373ffffffffffffffffffffffffffffffffffffffff1614611470576040517f08c379a000000000000000000000000000000000000000000000000000000000815260040180806020018281038252602c815260200180612e08602c913960400191505060405180910390fd5b80600260008273ffffffffffffffffffffffffffffffffffffffff1673ffffffffffffffffffffffffffffffffffffffff16815260200190815260200160002060009054906101000a900460ff1615611531576040517f08c379a00000000000000000000000000000000000000000000000000000000081526004018080602001828103825260118152602001807f4f776e657220646f65732065786973742100000000000000000000000000000081525060200191505060405180910390fd5b81600073ffffffffffffffffffffffffffffffffffffffff168173ffffffffffffffffffffffffffffffffffffffff1614156115d5576040517f08c379a00000000000000000000000000000000000000000000000000000000081526004018080602001828103825260108152602001807f61646472657373206973206e756c6c210000000000000000000000000000000081525060200191505060405180910390fd5b600160038054905001600454603282111580156115f25750818111155b80156115ff575060008114155b801561160c575060008214155b61161557600080fd5b6001600260008773ffffffffffffffffffffffffffffffffffffffff1673ffffffffffffffffffffffffffffffffffffffff16815260200190815260200160002060006101000a81548160ff02191690831515021790555060038590806001815401808255809150509060018203906000526020600020016000909192909190916101000a81548173ffffffffffffffffffffffffffffffffffffffff021916908373ffffffffffffffffffffffffffffffffffffffff160217905550508473ffffffffffffffffffffffffffffffffffffffff167ff39e6e1eb0edcf53c221607b54b00cd28f3196fed0a24994dc308b8f611b682d60405160405180910390a25050505050565b6000806000905060008090505b6003805490508110156117fa576001600085815260200190815260200160002060006003838154811061175957fe5b9060005260206000200160009054906101000a900473ffffffffffffffffffffffffffffffffffffffff1673ffffffffffffffffffffffffffffffffffffffff1673ffffffffffffffffffffffffffffffffffffffff16815260200190815260200160002060009054906101000a900460ff16156117d8576001820191505b6004548214156117ed576001925050506117fd565b808060010191505061172a565b50505b919050565b600080600090505b6003805490508110156118c5576001600084815260200190815260200160002060006003838154811061183957fe5b9060005260206000200160009054906101000a900473ffffffffffffffffffffffffffffffffffffffff1673ffffffffffffffffffffffffffffffffffffffff1673ffffffffffffffffffffffffffffffffffffffff16815260200190815260200160002060009054906101000a900460ff16156118b8576001820191505b808060010191505061180a565b50919050565b60006020528060005260406000206000915090508060000160009054906101000a900473ffffffffffffffffffffffffffffffffffffffff1690806001015490806002018054600181600116156101000203166002900480601f0160208091040260200160405190810160405280929190818152602001828054600181600116156101000203166002900480156119a35780601f10611978576101008083540402835291602001916119a3565b820191906000526020600020905b81548152906001019060200180831161198657829003601f168201915b5050505050908060030160009054906101000a900460ff16905084565b60606003805480602002602001604051908101604052809291908181526020018280548015611a4457602002820191906000526020600020905b8160009054906101000a900473ffffffffffffffffffffffffffffffffffffffff1673ffffffffffffffffffffffffffffffffffffffff16815260200190600101908083116119fa575b5050505050905090565b606080600554604051908082528060200260200182016040528015611a825781602001602082028038833980820191505090505b509050600080905060008090505b600554811015611b2c57858015611ac7575060008082815260200190815260200160002060030160009054906101000a900460ff16155b80611afa5750848015611af9575060008082815260200190815260200160002060030160009054906101000a900460ff165b5b15611b1f5780838381518110611b0c57fe5b6020026020010181815250506001820191505b8080600101915050611a90565b878703604051908082528060200260200182016040528015611b5d5781602001602082028038833980820191505090505b5093508790505b86811015611ba757828181518110611b7857fe5b60200260200101518489830381518110611b8e57fe5b6020026020010181815250508080600101915050611b64565b505050949350505050565b606080600380549050604051908082528060200260200182016040528015611be95781602001602082028038833980820191505090505b509050600080905060008090505b600380549050811015611d305760016000868152602001908152602001600020600060038381548110611c2657fe5b9060005260206000200160009054906101000a900473ffffffffffffffffffffffffffffffffffffffff1673ffffffffffffffffffffffffffffffffffffffff1673ffffffffffffffffffffffffffffffffffffffff16815260200190815260200160002060009054906101000a900460ff1615611d235760038181548110611cab57fe5b9060005260206000200160009054906101000a900473ffffffffffffffffffffffffffffffffffffffff16838381518110611ce257fe5b602002602001019073ffffffffffffffffffffffffffffffffffffffff16908173ffffffffffffffffffffffffffffffffffffffff16815250506001820191505b8080600101915050611bf7565b81604051908082528060200260200182016040528015611d5f5781602001602082028038833980820191505090505b509350600090505b81811015611dd657828181518110611d7b57fe5b6020026020010151848281518110611d8f57fe5b602002602001019073ffffffffffffffffffffffffffffffffffffffff16908173ffffffffffffffffffffffffffffffffffffffff16815250508080600101915050611d67565b505050919050565b60055481565b3073ffffffffffffffffffffffffffffffffffffffff163373ffffffffffffffffffffffffffffffffffffffff1614611e68576040517f08c379a000000000000000000000000000000000000000000000000000000000815260040180806020018281038252602c815260200180612e08602c913960400191505060405180910390fd5b6003805490508160328211158015611e805750818111155b8015611e8d575060008114155b8015611e9a575060008214155b611ea357600080fd5b826004819055507fa3f1ee9126a074d9326c682f561767f710e927faa811f7a99829d49dc421797a836040518082815260200191505060405180910390a1505050565b33600260008273ffffffffffffffffffffffffffffffffffffffff1673ffffffffffffffffffffffffffffffffffffffff16815260200190815260200160002060009054906101000a900460ff16611fa6576040517f08c379a00000000000000000000000000000000000000000000000000000000081526004018080602001828103825260158152602001807f4f776e657220646f6573206e6f7420657869737421000000000000000000000081525060200191505060405180910390fd5b81600073ffffffffffffffffffffffffffffffffffffffff1660008083815260200190815260200160002060000160009054906101000a900473ffffffffffffffffffffffffffffffffffffffff1673ffffffffffffffffffffffffffffffffffffffff16141561207f576040517f08c379a00000000000000000000000000000000000000000000000000000000081526004018080602001828103825260198152602001807f7472616e73616374696f6e206973206e6f74206578697473210000000000000081525060200191505060405180910390fd5b82336001600083815260200190815260200160002060008273ffffffffffffffffffffffffffffffffffffffff1673ffffffffffffffffffffffffffffffffffffffff16815260200190815260200160002060009054906101000a900460ff1615612135576040517f08c379a0000000000000000000000000000000000000000000000000000000008152600401808060200182810382526021815260200180612de76021913960400191505060405180910390fd5b600180600087815260200190815260200160002060003373ffffffffffffffffffffffffffffffffffffffff1673ffffffffffffffffffffffffffffffffffffffff16815260200190815260200160002060006101000a81548160ff021916908315150217905550843373ffffffffffffffffffffffffffffffffffffffff167f4a504a94899432a9846e1aa406dceb1bcfd538bb839071d49d1e5e23f5be30ef60405160405180910390a36121ea8561271e565b5050505050565b60006121fe848484612b73565b905061220981611ee6565b9392505050565b3073ffffffffffffffffffffffffffffffffffffffff163373ffffffffffffffffffffffffffffffffffffffff1614612294576040517f08c379a000000000000000000000000000000000000000000000000000000000815260040180806020018281038252602c815260200180612e08602c913960400191505060405180910390fd5b806006819055507fc71bdc6afaf9b1aa90a7078191d4fc1adf3bf680fca3183697df6b0dc226bca2816040518082815260200191505060405180910390a150565b60006122e2848484612b73565b90509392505050565b603281565b60045481565b3073ffffffffffffffffffffffffffffffffffffffff163373ffffffffffffffffffffffffffffffffffffffff161461237a576040517f08c379a000000000000000000000000000000000000000000000000000000000815260040180806020018281038252602c815260200180612e08602c913960400191505060405180910390fd5b81600260008273ffffffffffffffffffffffffffffffffffffffff1673ffffffffffffffffffffffffffffffffffffffff16815260200190815260200160002060009054906101000a900460ff1661243a576040517f08c379a00000000000000000000000000000000000000000000000000000000081526004018080602001828103825260158152602001807f4f776e657220646f6573206e6f7420657869737421000000000000000000000081525060200191505060405180910390fd5b81600260008273ffffffffffffffffffffffffffffffffffffffff1673ffffffffffffffffffffffffffffffffffffffff16815260200190815260200160002060009054906101000a900460ff16156124fb576040517f08c379a00000000000000000000000000000000000000000000000000000000081526004018080602001828103825260118152602001807f4f776e657220646f65732065786973742100000000000000000000000000000081525060200191505060405180910390fd5b60008090505b6003805490508110156125e1578473ffffffffffffffffffffffffffffffffffffffff166003828154811061253257fe5b9060005260206000200160009054906101000a900473ffffffffffffffffffffffffffffffffffffffff1673ffffffffffffffffffffffffffffffffffffffff1614156125d457836003828154811061258757fe5b9060005260206000200160006101000a81548173ffffffffffffffffffffffffffffffffffffffff021916908373ffffffffffffffffffffffffffffffffffffffff1602179055506125e1565b8080600101915050612501565b506000600260008673ffffffffffffffffffffffffffffffffffffffff1673ffffffffffffffffffffffffffffffffffffffff16815260200190815260200160002060006101000a81548160ff0219169083151502179055506001600260008573ffffffffffffffffffffffffffffffffffffffff1673ffffffffffffffffffffffffffffffffffffffff16815260200190815260200160002060006101000a81548160ff0219169083151502179055508373ffffffffffffffffffffffffffffffffffffffff167f8001553a916ef2f495d26a907cc54d96ed840d7bda71e73194bf5a9df7a76b9060405160405180910390a28273ffffffffffffffffffffffffffffffffffffffff167ff39e6e1eb0edcf53c221607b54b00cd28f3196fed0a24994dc308b8f611b682d60405160405180910390a250505050565b33600260008273ffffffffffffffffffffffffffffffffffffffff1673ffffffffffffffffffffffffffffffffffffffff16815260200190815260200160002060009054906101000a900460ff166127de576040517f08c379a00000000000000000000000000000000000000000000000000000000081526004018080602001828103825260158152602001807f4f776e657220646f6573206e6f7420657869737421000000000000000000000081525060200191505060405180910390fd5b81336001600083815260200190815260200160002060008273ffffffffffffffffffffffffffffffffffffffff1673ffffffffffffffffffffffffffffffffffffffff16815260200190815260200160002060009054906101000a900460ff166128b0576040517f08c379a000000000000000000000000000000000000000000000000000000000815260040180806020018281038252601d8152602001807f7472616e73616374696f6e206973206e6f7420636f6e6669726d65642100000081525060200191505060405180910390fd5b8360008082815260200190815260200160002060030160009054906101000a900460ff1615612947576040517f08c379a00000000000000000000000000000000000000000000000000000000081526004018080602001828103825260208152602001807f7472616e73616374696f6e20697320616c72656164792065786563757465642181525060200191505060405180910390fd5b6000806000878152602001908152602001600020905060006129688761171d565b905080806129a357506000826002018054600181600116156101000203166002900490501480156129a257506129a18260010154612c9c565b5b5b15612b645760018260030160006101000a81548160ff021916908315150217905550806129df5781600101546008600082825401925050819055505b612ac78260000160009054906101000a900473ffffffffffffffffffffffffffffffffffffffff16836001015484600201805460018160011615610100020316600290049050856002018054600181600116156101000203166002900480601f016020809104026020016040519081016040528092919081815260200182805460018160011615610100020316600290048015612abd5780601f10612a9257610100808354040283529160200191612abd565b820191906000526020600020905b815481529060010190602001808311612aa057829003601f168201915b5050505050612cee565b15612afe57867f33e13ecb54c3076d8e8bb8c2881800a4d972b792045ffae98fdf46df365fed7560405160405180910390a2612b63565b867f526441bb6c1aba3c9a4a6ca1d6545da9c2333c8c48343ef398eb858d72b7923660405160405180910390a260008260030160006101000a81548160ff02191690831515021790555080612b625781600101546008600082825403925050819055505b5b5b50505050505050565b60085481565b6000600554905060405180608001604052808573ffffffffffffffffffffffffffffffffffffffff1681526020018481526020018381526020016000151581525060008083815260200190815260200160002060008201518160000160006101000a81548173ffffffffffffffffffffffffffffffffffffffff021916908373ffffffffffffffffffffffffffffffffffffffff160217905550602082015181600101556040820151816002019080519060200190612c33929190612d41565b5060608201518160030160006101000a81548160ff0219169083151502179055509050506001600560008282540192505081905550807fc0ba8fe4b176c1714197d43b9cc6bcf797a4a7461c5fe8d0ef6e184ae7601e5160405160405180910390a29392505050565b60006201518060075401421115612cbd574260078190555060006008819055505b60065482600854011180612cd657506008548260085401105b15612ce45760009050612ce9565b600190505b919050565b6000806040516020840160008287838a8c6187965a03f19250505080915050949350505050565b815481835581811115612d3c57818360005260206000209182019101612d3b9190612dc1565b5b505050565b828054600181600116156101000203166002900490600052602060002090601f016020900481019282601f10612d8257805160ff1916838001178555612db0565b82800160010185558215612db0579182015b82811115612daf578251825591602001919060010190612d94565b5b509050612dbd9190612dc1565b5090565b612de391905b80821115612ddf576000816000905550600101612dc7565b5090565b9056fe7472616e73616374696f6e20697320616c726561647920636f6e6669726d65642163616c6c2073686f756c6420626520696e766f6b65642066726f6d2057414c4c455420636f6e747261637421a265627a7a72315820229d97f1a3fbea84301d1d5ef71ab3b9e9d799cfdc6aef104a2cbf65f8224eeb64736f6c63430005100032a265627a7a7231582085e5775f8e97b10d5f8aba6dfc7ee6cd511eaf1727a1ac05a8051b8e9b8cb19e64736f6c63430005100032",
  "source": "pragma solidity ^0.5.0;\nimport \"./Factory.sol\";\nimport \"./MultiSigWalletWithDailyLimit.sol\";\n\n\n/// @title Multisignature wallet factory for daily limit version - Allows creation of multisig wallet.\n/// @author Stefan George - <stefan.george@consensys.net>\ncontract MultiSigWalletWithDailyLimitFactory is Factory {\n\n    /*\n     * Public functions\n     */\n    /// @dev Allows verified creation of multisignature wallet.\n    /// @param _owners List of initial owners.\n    /// @param _required Number of required confirmations.\n    /// @param _dailyLimit Amount in wei, which can be withdrawn without confirmations on a daily basis.\n    /// @return Returns wallet address.\n    function create(address[] memory _owners, uint _required, uint _dailyLimit)\n        public\n        returns (address wallet)\n    {\n        wallet = address(new MultiSigWalletWithDailyLimit(_owners, _required, _dailyLimit));\n        register(wallet);\n    }\n}\n",
  "sourcePath": "/home/jack/ethProjects/MS-Factory/contracts/gnosis/MultiSigWalletWithDailyLimitFactory.sol",
  "compiler": {
    "name": "solc",
    "version": "0.5.16+commit.9c3226ce.Emscripten.clang"
  },
  "schemaVersion": "3.0.11",
  "updatedAt": "2020-02-24T16:23:21.766Z",
  "devdoc": {
    "author": "Stefan George - <stefan.george@consensys.net>",
    "methods": {
      "create(address[],uint256,uint256)": {
        "details": "Allows verified creation of multisignature wallet.",
        "params": {
          "_dailyLimit": "Amount in wei, which can be withdrawn without confirmations on a daily basis.",
          "_owners": "List of initial owners.",
          "_required": "Number of required confirmations."
        },
        "return": "Returns wallet address."
      },
      "getInstantiationCount(address)": {
        "details": "Returns number of instantiations by creator.",
        "params": {
          "creator": "Contract creator."
        },
        "return": "Returns number of instantiations by creator."
      }
    },
    "title": "Multisignature wallet factory for daily limit version - Allows creation of multisig wallet."
  },
  "userdoc": {
    "methods": {}
  }
}