{
  "contractName": "MultiSigWalletWithDailyLimit",
  "abi": [
    {
      "inputs": [
        {
          "internalType": "address[]",
          "name": "_owners",
          "type": "address[]"
        },
        {
          "internalType": "uint256",
          "name": "_required",
          "type": "uint256"
        },
        {
          "internalType": "uint256",
          "name": "_dailyLimit",
          "type": "uint256"
        }
      ],
      "payable": false,
      "stateMutability": "nonpayable",
      "type": "constructor"
    },
    {
      "anonymous": false,
      "inputs": [
        {
          "indexed": true,
          "internalType": "address",
          "name": "sender",
          "type": "address"
        },
        {
          "indexed": true,
          "internalType": "uint256",
          "name": "transactionId",
          "type": "uint256"
        }
      ],
      "name": "Confirmation",
      "type": "event"
    },
    {
      "anonymous": false,
      "inputs": [
        {
          "indexed": false,
          "internalType": "uint256",
          "name": "dailyLimit",
          "type": "uint256"
        }
      ],
      "name": "DailyLimitChange",
      "type": "event"
    },
    {
      "anonymous": false,
      "inputs": [
        {
          "indexed": true,
          "internalType": "address",
          "name": "sender",
          "type": "address"
        },
        {
          "indexed": false,
          "internalType": "uint256",
          "name": "value",
          "type": "uint256"
        }
      ],
      "name": "Deposit",
      "type": "event"
    },
    {
      "anonymous": false,
      "inputs": [
        {
          "indexed": true,
          "internalType": "uint256",
          "name": "transactionId",
          "type": "uint256"
        }
      ],
      "name": "Execution",
      "type": "event"
    },
    {
      "anonymous": false,
      "inputs": [
        {
          "indexed": true,
          "internalType": "uint256",
          "name": "transactionId",
          "type": "uint256"
        }
      ],
      "name": "ExecutionFailure",
      "type": "event"
    },
    {
      "anonymous": false,
      "inputs": [
        {
          "indexed": true,
          "internalType": "address",
          "name": "owner",
          "type": "address"
        }
      ],
      "name": "OwnerAddition",
      "type": "event"
    },
    {
      "anonymous": false,
      "inputs": [
        {
          "indexed": true,
          "internalType": "address",
          "name": "owner",
          "type": "address"
        }
      ],
      "name": "OwnerRemoval",
      "type": "event"
    },
    {
      "anonymous": false,
      "inputs": [
        {
          "indexed": false,
          "internalType": "uint256",
          "name": "required",
          "type": "uint256"
        }
      ],
      "name": "RequirementChange",
      "type": "event"
    },
    {
      "anonymous": false,
      "inputs": [
        {
          "indexed": true,
          "internalType": "address",
          "name": "sender",
          "type": "address"
        },
        {
          "indexed": true,
          "internalType": "uint256",
          "name": "transactionId",
          "type": "uint256"
        }
      ],
      "name": "Revocation",
      "type": "event"
    },
    {
      "anonymous": false,
      "inputs": [
        {
          "indexed": true,
          "internalType": "uint256",
          "name": "transactionId",
          "type": "uint256"
        }
      ],
      "name": "Submission",
      "type": "event"
    },
    {
      "payable": true,
      "stateMutability": "payable",
      "type": "fallback"
    },
    {
      "constant": true,
      "inputs": [],
      "name": "MAX_OWNER_COUNT",
      "outputs": [
        {
          "internalType": "uint256",
          "name": "",
          "type": "uint256"
        }
      ],
      "payable": false,
      "stateMutability": "view",
      "type": "function"
    },
    {
      "constant": false,
      "inputs": [
        {
          "internalType": "address",
          "name": "owner",
          "type": "address"
        }
      ],
      "name": "addOwner",
      "outputs": [],
      "payable": false,
      "stateMutability": "nonpayable",
      "type": "function"
    },
    {
      "constant": false,
      "inputs": [
        {
          "internalType": "uint256",
          "name": "_required",
          "type": "uint256"
        }
      ],
      "name": "changeRequirement",
      "outputs": [],
      "payable": false,
      "stateMutability": "nonpayable",
      "type": "function"
    },
    {
      "constant": false,
      "inputs": [
        {
          "internalType": "uint256",
          "name": "transactionId",
          "type": "uint256"
        }
      ],
      "name": "confirmTransaction",
      "outputs": [],
      "payable": false,
      "stateMutability": "nonpayable",
      "type": "function"
    },
    {
      "constant": true,
      "inputs": [
        {
          "internalType": "uint256",
          "name": "",
          "type": "uint256"
        },
        {
          "internalType": "address",
          "name": "",
          "type": "address"
        }
      ],
      "name": "confirmations",
      "outputs": [
        {
          "internalType": "bool",
          "name": "",
          "type": "bool"
        }
      ],
      "payable": false,
      "stateMutability": "view",
      "type": "function"
    },
    {
      "constant": true,
      "inputs": [],
      "name": "dailyLimit",
      "outputs": [
        {
          "internalType": "uint256",
          "name": "",
          "type": "uint256"
        }
      ],
      "payable": false,
      "stateMutability": "view",
      "type": "function"
    },
    {
      "constant": true,
      "inputs": [
        {
          "internalType": "uint256",
          "name": "transactionId",
          "type": "uint256"
        }
      ],
      "name": "getConfirmationCount",
      "outputs": [
        {
          "internalType": "uint256",
          "name": "count",
          "type": "uint256"
        }
      ],
      "payable": false,
      "stateMutability": "view",
      "type": "function"
    },
    {
      "constant": true,
      "inputs": [
        {
          "internalType": "uint256",
          "name": "transactionId",
          "type": "uint256"
        }
      ],
      "name": "getConfirmations",
      "outputs": [
        {
          "internalType": "address[]",
          "name": "_confirmations",
          "type": "address[]"
        }
      ],
      "payable": false,
      "stateMutability": "view",
      "type": "function"
    },
    {
      "constant": true,
      "inputs": [],
      "name": "getOwners",
      "outputs": [
        {
          "internalType": "address[]",
          "name": "",
          "type": "address[]"
        }
      ],
      "payable": false,
      "stateMutability": "view",
      "type": "function"
    },
    {
      "constant": true,
      "inputs": [
        {
          "internalType": "bool",
          "name": "pending",
          "type": "bool"
        },
        {
          "internalType": "bool",
          "name": "executed",
          "type": "bool"
        }
      ],
      "name": "getTransactionCount",
      "outputs": [
        {
          "internalType": "uint256",
          "name": "count",
          "type": "uint256"
        }
      ],
      "payable": false,
      "stateMutability": "view",
      "type": "function"
    },
    {
      "constant": true,
      "inputs": [
        {
          "internalType": "uint256",
          "name": "from",
          "type": "uint256"
        },
        {
          "internalType": "uint256",
          "name": "to",
          "type": "uint256"
        },
        {
          "internalType": "bool",
          "name": "pending",
          "type": "bool"
        },
        {
          "internalType": "bool",
          "name": "executed",
          "type": "bool"
        }
      ],
      "name": "getTransactionIds",
      "outputs": [
        {
          "internalType": "uint256[]",
          "name": "_transactionIds",
          "type": "uint256[]"
        }
      ],
      "payable": false,
      "stateMutability": "view",
      "type": "function"
    },
    {
      "constant": true,
      "inputs": [
        {
          "internalType": "uint256",
          "name": "transactionId",
          "type": "uint256"
        }
      ],
      "name": "isConfirmed",
      "outputs": [
        {
          "internalType": "bool",
          "name": "",
          "type": "bool"
        }
      ],
      "payable": false,
      "stateMutability": "view",
      "type": "function"
    },
    {
      "constant": true,
      "inputs": [
        {
          "internalType": "address",
          "name": "",
          "type": "address"
        }
      ],
      "name": "isOwner",
      "outputs": [
        {
          "internalType": "bool",
          "name": "",
          "type": "bool"
        }
      ],
      "payable": false,
      "stateMutability": "view",
      "type": "function"
    },
    {
      "constant": true,
      "inputs": [],
      "name": "lastDay",
      "outputs": [
        {
          "internalType": "uint256",
          "name": "",
          "type": "uint256"
        }
      ],
      "payable": false,
      "stateMutability": "view",
      "type": "function"
    },
    {
      "constant": true,
      "inputs": [
        {
          "internalType": "uint256",
          "name": "",
          "type": "uint256"
        }
      ],
      "name": "owners",
      "outputs": [
        {
          "internalType": "address",
          "name": "",
          "type": "address"
        }
      ],
      "payable": false,
      "stateMutability": "view",
      "type": "function"
    },
    {
      "constant": false,
      "inputs": [
        {
          "internalType": "address",
          "name": "owner",
          "type": "address"
        }
      ],
      "name": "removeOwner",
      "outputs": [],
      "payable": false,
      "stateMutability": "nonpayable",
      "type": "function"
    },
    {
      "constant": false,
      "inputs": [
        {
          "internalType": "address",
          "name": "owner",
          "type": "address"
        },
        {
          "internalType": "address",
          "name": "newOwner",
          "type": "address"
        }
      ],
      "name": "replaceOwner",
      "outputs": [],
      "payable": false,
      "stateMutability": "nonpayable",
      "type": "function"
    },
    {
      "constant": true,
      "inputs": [],
      "name": "required",
      "outputs": [
        {
          "internalType": "uint256",
          "name": "",
          "type": "uint256"
        }
      ],
      "payable": false,
      "stateMutability": "view",
      "type": "function"
    },
    {
      "constant": false,
      "inputs": [
        {
          "internalType": "uint256",
          "name": "transactionId",
          "type": "uint256"
        }
      ],
      "name": "revokeConfirmation",
      "outputs": [],
      "payable": false,
      "stateMutability": "nonpayable",
      "type": "function"
    },
    {
      "constant": true,
      "inputs": [],
      "name": "spentToday",
      "outputs": [
        {
          "internalType": "uint256",
          "name": "",
          "type": "uint256"
        }
      ],
      "payable": false,
      "stateMutability": "view",
      "type": "function"
    },
    {
      "constant": false,
      "inputs": [
        {
          "internalType": "address",
          "name": "destination",
          "type": "address"
        },
        {
          "internalType": "uint256",
          "name": "value",
          "type": "uint256"
        },
        {
          "internalType": "bytes",
          "name": "data",
          "type": "bytes"
        }
      ],
      "name": "submitInvoice",
      "outputs": [
        {
          "internalType": "uint256",
          "name": "transactionId",
          "type": "uint256"
        }
      ],
      "payable": false,
      "stateMutability": "nonpayable",
      "type": "function"
    },
    {
      "constant": false,
      "inputs": [
        {
          "internalType": "address",
          "name": "destination",
          "type": "address"
        },
        {
          "internalType": "uint256",
          "name": "value",
          "type": "uint256"
        },
        {
          "internalType": "bytes",
          "name": "data",
          "type": "bytes"
        }
      ],
      "name": "submitTransaction",
      "outputs": [
        {
          "internalType": "uint256",
          "name": "transactionId",
          "type": "uint256"
        }
      ],
      "payable": false,
      "stateMutability": "nonpayable",
      "type": "function"
    },
    {
      "constant": true,
      "inputs": [],
      "name": "transactionCount",
      "outputs": [
        {
          "internalType": "uint256",
          "name": "",
          "type": "uint256"
        }
      ],
      "payable": false,
      "stateMutability": "view",
      "type": "function"
    },
    {
      "constant": true,
      "inputs": [
        {
          "internalType": "uint256",
          "name": "",
          "type": "uint256"
        }
      ],
      "name": "transactions",
      "outputs": [
        {
          "internalType": "address",
          "name": "destination",
          "type": "address"
        },
        {
          "internalType": "uint256",
          "name": "value",
          "type": "uint256"
        },
        {
          "internalType": "bytes",
          "name": "data",
          "type": "bytes"
        },
        {
          "internalType": "bool",
          "name": "executed",
          "type": "bool"
        }
      ],
      "payable": false,
      "stateMutability": "view",
      "type": "function"
    },
    {
      "constant": false,
      "inputs": [
        {
          "internalType": "uint256",
          "name": "_dailyLimit",
          "type": "uint256"
        }
      ],
      "name": "changeDailyLimit",
      "outputs": [],
      "payable": false,
      "stateMutability": "nonpayable",
      "type": "function"
    },
    {
      "constant": false,
      "inputs": [
        {
          "internalType": "uint256",
          "name": "transactionId",
          "type": "uint256"
        }
      ],
      "name": "executeTransaction",
      "outputs": [],
      "payable": false,
      "stateMutability": "nonpayable",
      "type": "function"
    },
    {
      "constant": true,
      "inputs": [],
      "name": "calcMaxWithdraw",
      "outputs": [
        {
          "internalType": "uint256",
          "name": "",
          "type": "uint256"
        }
      ],
      "payable": false,
      "stateMutability": "view",
      "type": "function"
    }
  ],
  "bytecode": "0x60806040523480156200001157600080fd5b506040516200207638038062002076833981810160405260608110156200003757600080fd5b81019080805160405193929190846401000000008211156200005857600080fd5b9083019060208201858111156200006e57600080fd5b82518660208202830111640100000000821117156200008c57600080fd5b82525081516020918201928201910280838360005b83811015620000bb578181015183820152602001620000a1565b5050505091909101604090815260208301519201518551929450925084918491508160328211801590620000ef5750818111155b8015620000fb57508015155b80156200010757508115155b6200011157600080fd5b60005b8451811015620001e357600260008683815181106200012f57fe5b6020908102919091018101516001600160a01b031682528101919091526040016000205460ff161580156200018b575060006001600160a01b03168582815181106200017757fe5b60200260200101516001600160a01b031614155b6200019557600080fd5b600160026000878481518110620001a857fe5b6020908102919091018101516001600160a01b03168252810191909152604001600020805460ff191691151591909117905560010162000114565b508351620001f99060039060208701906200020c565b5050506004555060065550620002a09050565b82805482825590600052602060002090810192821562000264579160200282015b828111156200026457825182546001600160a01b0319166001600160a01b039091161782556020909201916001909101906200022d565b506200027292915062000276565b5090565b6200029d91905b80821115620002725780546001600160a01b03191681556001016200027d565b90565b611dc680620002b06000396000f3fe60806040526004361061019c5760003560e01c8063a0e67e2b116100ec578063cea086211161008a578063dc8452cd11610064578063dc8452cd146107de578063e20056e6146107f3578063ee22610b1461082e578063f059cf2b146108585761019c565b8063cea08621146106d7578063cf35225314610701578063d74f8edd146107c95761019c565b8063b77bf600116100c6578063b77bf600146105a6578063ba51a6df146105bb578063c01a8c84146105e5578063c64274741461060f5761019c565b8063a0e67e2b146104d7578063a8abe69a1461053c578063b5dc40c31461057c5761019c565b806354741525116101595780637065cb48116101335780637065cb4814610383578063784547a7146103b65780638b51d13f146103e05780639ace38c21461040a5761019c565b8063547415251461032557806367eeba0c146103595780636b0c932d1461036e5761019c565b8063025e7c27146101db578063173825d91461022157806320ea8d86146102545780632f54bf6e1461027e5780633411c81c146102c55780634bc9fdc2146102fe575b34156101d95760408051348152905133917fe1fffcc4923d04b559f4d29a8bfc6cda04eb5b0d3c460751c2402c5c5cc9109c919081900360200190a25b005b3480156101e757600080fd5b50610205600480360360208110156101fe57600080fd5b503561086d565b604080516001600160a01b039092168252519081900360200190f35b34801561022d57600080fd5b506101d96004803603602081101561024457600080fd5b50356001600160a01b0316610894565b34801561026057600080fd5b506101d96004803603602081101561027757600080fd5b5035610a72565b34801561028a57600080fd5b506102b1600480360360208110156102a157600080fd5b50356001600160a01b0316610bf8565b604080519115158252519081900360200190f35b3480156102d157600080fd5b506102b1600480360360408110156102e857600080fd5b50803590602001356001600160a01b0316610c0d565b34801561030a57600080fd5b50610313610c2d565b60408051918252519081900360200190f35b34801561033157600080fd5b506103136004803603604081101561034857600080fd5b508035151590602001351515610c67565b34801561036557600080fd5b50610313610cd3565b34801561037a57600080fd5b50610313610cd9565b34801561038f57600080fd5b506101d9600480360360208110156103a657600080fd5b50356001600160a01b0316610cdf565b3480156103c257600080fd5b506102b1600480360360208110156103d957600080fd5b5035610e9c565b3480156103ec57600080fd5b506103136004803603602081101561040357600080fd5b5035610f23565b34801561041657600080fd5b506104346004803603602081101561042d57600080fd5b5035610f92565b60405180856001600160a01b03166001600160a01b031681526020018481526020018060200183151515158152602001828103825284818151815260200191508051906020019080838360005b83811015610499578181015183820152602001610481565b50505050905090810190601f1680156104c65780820380516001836020036101000a031916815260200191505b509550505050505060405180910390f35b3480156104e357600080fd5b506104ec611050565b60408051602080825283518183015283519192839290830191858101910280838360005b83811015610528578181015183820152602001610510565b505050509050019250505060405180910390f35b34801561054857600080fd5b506104ec6004803603608081101561055f57600080fd5b5080359060208101359060408101351515906060013515156110b2565b34801561058857600080fd5b506104ec6004803603602081101561059f57600080fd5b50356111dd565b3480156105b257600080fd5b50610313611354565b3480156105c757600080fd5b506101d9600480360360208110156105de57600080fd5b503561135a565b3480156105f157600080fd5b506101d96004803603602081101561060857600080fd5b5035611409565b34801561061b57600080fd5b506103136004803603606081101561063257600080fd5b6001600160a01b038235169160208101359181019060608101604082013564010000000081111561066257600080fd5b82018360208201111561067457600080fd5b8035906020019184600183028401116401000000008311171561069657600080fd5b91908080601f01602080910402602001604051908101604052809392919081815260200183838082843760009201919091525092955061158a945050505050565b3480156106e357600080fd5b506101d9600480360360208110156106fa57600080fd5b50356115a9565b34801561070d57600080fd5b506103136004803603606081101561072457600080fd5b6001600160a01b038235169160208101359181019060608101604082013564010000000081111561075457600080fd5b82018360208201111561076657600080fd5b8035906020019184600183028401116401000000008311171561078857600080fd5b91908080601f016020809104026020016040519081016040528093929190818152602001838380828437600092019190915250929550611622945050505050565b3480156107d557600080fd5b50610313611637565b3480156107ea57600080fd5b5061031361163c565b3480156107ff57600080fd5b506101d96004803603604081101561081657600080fd5b506001600160a01b0381358116916020013516611642565b34801561083a57600080fd5b506101d96004803603602081101561085157600080fd5b503561186d565b34801561086457600080fd5b50610313611b4d565b6003818154811061087a57fe5b6000918252602090912001546001600160a01b0316905081565b3330146108d25760405162461bcd60e51b815260040180806020018281038252602c815260200180611d66602c913960400191505060405180910390fd5b6001600160a01b038116600090815260026020526040902054819060ff16610939576040805162461bcd60e51b81526020600482015260156024820152744f776e657220646f6573206e6f742065786973742160581b604482015290519081900360640190fd5b6001600160a01b0382166000908152600260205260408120805460ff191690555b60035460001901811015610a0d57826001600160a01b03166003828154811061097f57fe5b6000918252602090912001546001600160a01b03161415610a05576003805460001981019081106109ac57fe5b600091825260209091200154600380546001600160a01b0390921691839081106109d257fe5b9060005260206000200160006101000a8154816001600160a01b0302191690836001600160a01b03160217905550610a0d565b60010161095a565b50600380546000190190610a219082611c83565b506003546004541115610a3a57600354610a3a9061135a565b6040516001600160a01b038316907f8001553a916ef2f495d26a907cc54d96ed840d7bda71e73194bf5a9df7a76b9090600090a25050565b3360008181526002602052604090205460ff16610ace576040805162461bcd60e51b81526020600482015260156024820152744f776e657220646f6573206e6f742065786973742160581b604482015290519081900360640190fd5b60008281526001602090815260408083203380855292529091205483919060ff16610b40576040805162461bcd60e51b815260206004820152601d60248201527f7472616e73616374696f6e206973206e6f7420636f6e6669726d656421000000604482015290519081900360640190fd5b600084815260208190526040902060030154849060ff1615610ba9576040805162461bcd60e51b815260206004820181905260248201527f7472616e73616374696f6e20697320616c726561647920657865637574656421604482015290519081900360640190fd5b6000858152600160209081526040808320338085529252808320805460ff191690555187927ff6a317157440607f36269043eb55f1287a5a19ba2216afeab88cd46cbcfb88e991a35050505050565b60026020526000908152604090205460ff1681565b600160209081526000928352604080842090915290825290205460ff1681565b60006007546201518001421115610c475750600654610c64565b6008546006541015610c5b57506000610c64565b50600854600654035b90565b6000805b600554811015610ccc57838015610c94575060008181526020819052604090206003015460ff16155b80610cb85750828015610cb8575060008181526020819052604090206003015460ff165b15610cc4576001820191505b600101610c6b565b5092915050565b60065481565b60075481565b333014610d1d5760405162461bcd60e51b815260040180806020018281038252602c815260200180611d66602c913960400191505060405180910390fd5b6001600160a01b038116600090815260026020526040902054819060ff1615610d81576040805162461bcd60e51b81526020600482015260116024820152704f776e657220646f65732065786973742160781b604482015290519081900360640190fd5b816001600160a01b038116610dd0576040805162461bcd60e51b815260206004820152601060248201526f61646472657373206973206e756c6c2160801b604482015290519081900360640190fd5b60038054905060010160045460328211158015610ded5750818111155b8015610df857508015155b8015610e0357508115155b610e0c57600080fd5b6001600160a01b038516600081815260026020526040808220805460ff1916600190811790915560038054918201815583527fc2575a0e9e593c00f959f8c92f12db2869c3395a3b0502d05e2516446f71f85b0180546001600160a01b03191684179055517ff39e6e1eb0edcf53c221607b54b00cd28f3196fed0a24994dc308b8f611b682d9190a25050505050565b600080805b600354811015610f1b5760008481526001602052604081206003805491929184908110610eca57fe5b60009182526020808320909101546001600160a01b0316835282019290925260400190205460ff1615610efe576001820191505b600454821415610f1357600192505050610f1e565b600101610ea1565b50505b919050565b6000805b600354811015610f8c5760008381526001602052604081206003805491929184908110610f5057fe5b60009182526020808320909101546001600160a01b0316835282019290925260400190205460ff1615610f84576001820191505b600101610f27565b50919050565b6000602081815291815260409081902080546001808301546002808501805487516101009582161595909502600019011691909104601f81018890048802840188019096528583526001600160a01b039093169590949192919083018282801561103d5780601f106110125761010080835404028352916020019161103d565b820191906000526020600020905b81548152906001019060200180831161102057829003601f168201915b5050506003909301549192505060ff1684565b606060038054806020026020016040519081016040528092919081815260200182805480156110a857602002820191906000526020600020905b81546001600160a01b0316815260019091019060200180831161108a575b5050505050905090565b6060806005546040519080825280602002602001820160405280156110e1578160200160208202803883390190505b5090506000805b60055481101561116257858015611111575060008181526020819052604090206003015460ff16155b806111355750848015611135575060008181526020819052604090206003015460ff165b1561115a578083838151811061114757fe5b6020026020010181815250506001820191505b6001016110e8565b87870360405190808252806020026020018201604052801561118e578160200160208202803883390190505b5093508790505b868110156111d2578281815181106111a957fe5b602002602001015184898303815181106111bf57fe5b6020908102919091010152600101611195565b505050949350505050565b60608060038054905060405190808252806020026020018201604052801561120f578160200160208202803883390190505b5090506000805b6003548110156112d2576000858152600160205260408120600380549192918490811061123f57fe5b60009182526020808320909101546001600160a01b0316835282019290925260400190205460ff16156112ca576003818154811061127957fe5b9060005260206000200160009054906101000a90046001600160a01b03168383815181106112a357fe5b60200260200101906001600160a01b031690816001600160a01b0316815250506001820191505b600101611216565b816040519080825280602002602001820160405280156112fc578160200160208202803883390190505b509350600090505b8181101561134c5782818151811061131857fe5b602002602001015184828151811061132c57fe5b6001600160a01b0390921660209283029190910190910152600101611304565b505050919050565b60055481565b3330146113985760405162461bcd60e51b815260040180806020018281038252602c815260200180611d66602c913960400191505060405180910390fd5b60035481603282118015906113ad5750818111155b80156113b857508015155b80156113c357508115155b6113cc57600080fd5b60048390556040805184815290517fa3f1ee9126a074d9326c682f561767f710e927faa811f7a99829d49dc421797a9181900360200190a1505050565b3360008181526002602052604090205460ff16611465576040805162461bcd60e51b81526020600482015260156024820152744f776e657220646f6573206e6f742065786973742160581b604482015290519081900360640190fd5b60008281526020819052604090205482906001600160a01b03166114d0576040805162461bcd60e51b815260206004820152601960248201527f7472616e73616374696f6e206973206e6f742065786974732100000000000000604482015290519081900360640190fd5b60008381526001602090815260408083203380855292529091205484919060ff161561152d5760405162461bcd60e51b8152600401808060200182810382526021815260200180611d456021913960400191505060405180910390fd5b6000858152600160208181526040808420338086529252808420805460ff1916909317909255905187927f4a504a94899432a9846e1aa406dceb1bcfd538bb839071d49d1e5e23f5be30ef91a36115838561186d565b5050505050565b6000611597848484611b53565b90506115a281611409565b9392505050565b3330146115e75760405162461bcd60e51b815260040180806020018281038252602c815260200180611d66602c913960400191505060405180910390fd5b60068190556040805182815290517fc71bdc6afaf9b1aa90a7078191d4fc1adf3bf680fca3183697df6b0dc226bca29181900360200190a150565b600061162f848484611b53565b949350505050565b603281565b60045481565b3330146116805760405162461bcd60e51b815260040180806020018281038252602c815260200180611d66602c913960400191505060405180910390fd5b6001600160a01b038216600090815260026020526040902054829060ff166116e7576040805162461bcd60e51b81526020600482015260156024820152744f776e657220646f6573206e6f742065786973742160581b604482015290519081900360640190fd5b6001600160a01b038216600090815260026020526040902054829060ff161561174b576040805162461bcd60e51b81526020600482015260116024820152704f776e657220646f65732065786973742160781b604482015290519081900360640190fd5b60005b6003548110156117d357846001600160a01b03166003828154811061176f57fe5b6000918252602090912001546001600160a01b031614156117cb57836003828154811061179857fe5b9060005260206000200160006101000a8154816001600160a01b0302191690836001600160a01b031602179055506117d3565b60010161174e565b506001600160a01b03808516600081815260026020526040808220805460ff1990811690915593871682528082208054909416600117909355915190917f8001553a916ef2f495d26a907cc54d96ed840d7bda71e73194bf5a9df7a76b9091a26040516001600160a01b038416907ff39e6e1eb0edcf53c221607b54b00cd28f3196fed0a24994dc308b8f611b682d90600090a250505050565b3360008181526002602052604090205460ff166118c9576040805162461bcd60e51b81526020600482015260156024820152744f776e657220646f6573206e6f742065786973742160581b604482015290519081900360640190fd5b60008281526001602090815260408083203380855292529091205483919060ff1661193b576040805162461bcd60e51b815260206004820152601d60248201527f7472616e73616374696f6e206973206e6f7420636f6e6669726d656421000000604482015290519081900360640190fd5b600084815260208190526040902060030154849060ff16156119a4576040805162461bcd60e51b815260206004820181905260248201527f7472616e73616374696f6e20697320616c726561647920657865637574656421604482015290519081900360640190fd5b6000858152602081905260408120906119bc87610e9c565b905080806119ef57506002808301546000196101006001831615020116041580156119ef57506119ef8260010154611c19565b15611b445760038201805460ff1916600117905580611a175760018201546008805490910190555b815460018084015460028086018054604080516020601f600019988516156101000298909801909316949094049586018290048202840182019052848352611ac3956001600160a01b0316949291908390830182828015611ab95780601f10611a8e57610100808354040283529160200191611ab9565b820191906000526020600020905b815481529060010190602001808311611a9c57829003601f168201915b5050505050611c60565b15611af85760405187907f33e13ecb54c3076d8e8bb8c2881800a4d972b792045ffae98fdf46df365fed7590600090a2611b44565b60405187907f526441bb6c1aba3c9a4a6ca1d6545da9c2333c8c48343ef398eb858d72b7923690600090a260038201805460ff1916905580611b44576001820154600880549190910390555b50505050505050565b60085481565b600554604080516080810182526001600160a01b038681168252602080830187815283850187815260006060860181905287815280845295909520845181546001600160a01b03191694169390931783555160018301559251805192939192611bc29260028501920190611cac565b50606091909101516003909101805460ff191691151591909117905560058054600101905560405181907fc0ba8fe4b176c1714197d43b9cc6bcf797a4a7461c5fe8d0ef6e184ae7601e5190600090a29392505050565b60006007546201518001421115611c34574260075560006008555b60065482600854011180611c4b5750600854828101105b15611c5857506000610f1e565b506001919050565b6000806040516020840160008287838a8c6187965a03f198975050505050505050565b815481835581811115611ca757600083815260209020611ca7918101908301611d2a565b505050565b828054600181600116156101000203166002900490600052602060002090601f016020900481019282601f10611ced57805160ff1916838001178555611d1a565b82800160010185558215611d1a579182015b82811115611d1a578251825591602001919060010190611cff565b50611d26929150611d2a565b5090565b610c6491905b80821115611d265760008155600101611d3056fe7472616e73616374696f6e20697320616c726561647920636f6e6669726d65642163616c6c2073686f756c6420626520696e766f6b65642066726f6d2057414c4c455420636f6e747261637421a265627a7a723158200f4cf80ee5b12cfebabf2905d0abba4e3b69fd85b132a5fe16640be15cc83c9964736f6c63430005110032",
  "source": "pragma solidity ^0.5.0;\nimport \"./MultiSigWallet.sol\";\n\n\n/// @title Multisignature wallet with daily limit - Allows an owner to withdraw a daily limit without multisig.\n/// @author Stefan George - <stefan.george@consensys.net>\ncontract MultiSigWalletWithDailyLimit is MultiSigWallet {\n\n    /*\n     *  Events\n     */\n    event DailyLimitChange(uint dailyLimit);\n\n    /*\n     *  Storage\n     */\n    uint public dailyLimit;\n    uint public lastDay;\n    uint public spentToday;\n\n    /*\n     * Public functions\n     */\n    /// @dev Contract constructor sets initial owners, required number of confirmations and daily withdraw limit.\n    /// @param _owners List of initial owners.\n    /// @param _required Number of required confirmations.\n    /// @param _dailyLimit Amount in wei, which can be withdrawn without confirmations on a daily basis.\n    constructor(address[] memory _owners, uint _required, uint _dailyLimit)\n        public\n        MultiSigWallet(_owners, _required)\n    {\n        dailyLimit = _dailyLimit;\n    }\n\n    /// @dev Allows to change the daily limit. Transaction has to be sent by wallet.\n    /// @param _dailyLimit Amount in wei.\n    function changeDailyLimit(uint _dailyLimit)\n        public\n        onlyWallet\n    {\n        dailyLimit = _dailyLimit;\n        emit DailyLimitChange(_dailyLimit);\n    }\n\n    /// @dev Allows anyone to execute a confirmed transaction or ether withdraws until daily limit is reached.\n    /// @param transactionId Transaction ID.\n    function executeTransaction(uint transactionId)\n        public\n        ownerExists(msg.sender)\n        confirmed(transactionId, msg.sender)\n        notExecuted(transactionId)\n    {\n        Transaction storage txn = transactions[transactionId];\n        bool _confirmed = isConfirmed(transactionId);\n        if (_confirmed || txn.data.length == 0 && isUnderLimit(txn.value)) {\n            txn.executed = true;\n            if (!_confirmed)\n                spentToday += txn.value;\n            if (external_call(txn.destination, txn.value, txn.data.length, txn.data))\n                emit Execution(transactionId);\n            else {\n                emit ExecutionFailure(transactionId);\n                txn.executed = false;\n                if (!_confirmed)\n                    spentToday -= txn.value;\n            }\n        }\n    }\n\n    /*\n     * Internal functions\n     */\n    /// @dev Returns if amount is within daily limit and resets spentToday after one day.\n    /// @param amount Amount to withdraw.\n    /// @return Returns if amount is under daily limit.\n    function isUnderLimit(uint amount)\n        internal\n        returns (bool)\n    {\n        if (now > lastDay + 24 hours) {\n            lastDay = now;\n            spentToday = 0;\n        }\n        if (spentToday + amount > dailyLimit || spentToday + amount < spentToday)\n            return false;\n        return true;\n    }\n\n    /*\n     * Web3 call functions\n     */\n    /// @dev Returns maximum withdraw amount.\n    /// @return Returns amount.\n    function calcMaxWithdraw()\n        public\n        view\n        returns (uint)\n    {\n        if (now > lastDay + 24 hours)\n            return dailyLimit;\n        if (dailyLimit < spentToday)\n            return 0;\n        return dailyLimit - spentToday;\n    }\n}\n",
  "sourcePath": "/home/jack/ethProjects/MS-Factory/contracts/gnosis/MultiSigWalletWithDailyLimit.sol",
  "compiler": {
    "name": "solc",
    "version": "0.5.17+commit.d19bba13.Emscripten.clang"
  },
  "schemaVersion": "3.0.11",
  "updatedAt": "2020-05-28T12:33:08.812Z",
  "devdoc": {
    "author": "Stefan George - <stefan.george@consensys.net>",
    "methods": {
      "addOwner(address)": {
        "details": "Allows to add a new owner. Transaction has to be sent by wallet.",
        "params": {
          "owner": "Address of new owner."
        }
      },
      "calcMaxWithdraw()": {
        "details": "Returns maximum withdraw amount.",
        "return": "Returns amount."
      },
      "changeDailyLimit(uint256)": {
        "details": "Allows to change the daily limit. Transaction has to be sent by wallet.",
        "params": {
          "_dailyLimit": "Amount in wei."
        }
      },
      "changeRequirement(uint256)": {
        "details": "Allows to change the number of required confirmations. Transaction has to be sent by wallet.",
        "params": {
          "_required": "Number of required confirmations."
        }
      },
      "confirmTransaction(uint256)": {
        "details": "Allows an owner to confirm a transaction.",
        "params": {
          "transactionId": "Transaction ID."
        }
      },
      "constructor": {
        "details": "Contract constructor sets initial owners, required number of confirmations and daily withdraw limit.",
        "params": {
          "_dailyLimit": "Amount in wei, which can be withdrawn without confirmations on a daily basis.",
          "_owners": "List of initial owners.",
          "_required": "Number of required confirmations."
        }
      },
      "executeTransaction(uint256)": {
        "details": "Allows anyone to execute a confirmed transaction or ether withdraws until daily limit is reached.",
        "params": {
          "transactionId": "Transaction ID."
        }
      },
      "getConfirmationCount(uint256)": {
        "details": "Returns number of confirmations of a transaction.",
        "params": {
          "transactionId": "Transaction ID."
        },
        "return": "Number of confirmations."
      },
      "getConfirmations(uint256)": {
        "details": "Returns array with owner addresses, which confirmed transaction.",
        "params": {
          "transactionId": "Transaction ID."
        },
        "return": "Returns array of owner addresses."
      },
      "getOwners()": {
        "details": "Returns list of owners.",
        "return": "List of owner addresses."
      },
      "getTransactionCount(bool,bool)": {
        "details": "Returns total number of transactions after filers are applied.",
        "params": {
          "executed": "Include executed transactions.",
          "pending": "Include pending transactions."
        },
        "return": "Total number of transactions after filters are applied."
      },
      "getTransactionIds(uint256,uint256,bool,bool)": {
        "details": "Returns list of transaction IDs in defined range.",
        "params": {
          "executed": "Include executed transactions.",
          "from": "Index start position of transaction array.",
          "pending": "Include pending transactions.",
          "to": "Index end position of transaction array."
        },
        "return": "Returns array of transaction IDs."
      },
      "isConfirmed(uint256)": {
        "details": "Returns the confirmation status of a transaction.",
        "params": {
          "transactionId": "Transaction ID."
        },
        "return": "Confirmation status."
      },
      "removeOwner(address)": {
        "details": "Allows to remove an owner. Transaction has to be sent by wallet.",
        "params": {
          "owner": "Address of owner."
        }
      },
      "replaceOwner(address,address)": {
        "details": "Allows to replace an owner with a new owner. Transaction has to be sent by wallet.",
        "params": {
          "newOwner": "Address of new owner.",
          "owner": "Address of owner to be replaced."
        }
      },
      "revokeConfirmation(uint256)": {
        "details": "Allows an owner to revoke a confirmation for a transaction.",
        "params": {
          "transactionId": "Transaction ID."
        }
      },
      "submitInvoice(address,uint256,bytes)": {
        "details": "Allows anyone to submit transaction without confirming it"
      },
      "submitTransaction(address,uint256,bytes)": {
        "details": "Allows an owner to submit and confirm a transaction.",
        "params": {
          "data": "Transaction data payload.",
          "destination": "Transaction target address.",
          "value": "Transaction ether value."
        },
        "return": "Returns transaction ID."
      }
    },
    "title": "Multisignature wallet with daily limit - Allows an owner to withdraw a daily limit without multisig."
  },
  "userdoc": {
    "methods": {}
  }
}