{
  "contractName": "MultiSigWallet",
  "abi": [
    {
      "inputs": [
        {
          "internalType": "address[]",
          "name": "_owners",
          "type": "address[]"
        },
        {
          "internalType": "uint256",
          "name": "_required",
          "type": "uint256"
        }
      ],
      "payable": false,
      "stateMutability": "nonpayable",
      "type": "constructor"
    },
    {
      "anonymous": false,
      "inputs": [
        {
          "indexed": true,
          "internalType": "address",
          "name": "sender",
          "type": "address"
        },
        {
          "indexed": true,
          "internalType": "uint256",
          "name": "transactionId",
          "type": "uint256"
        }
      ],
      "name": "Confirmation",
      "type": "event"
    },
    {
      "anonymous": false,
      "inputs": [
        {
          "indexed": true,
          "internalType": "address",
          "name": "sender",
          "type": "address"
        },
        {
          "indexed": false,
          "internalType": "uint256",
          "name": "value",
          "type": "uint256"
        }
      ],
      "name": "Deposit",
      "type": "event"
    },
    {
      "anonymous": false,
      "inputs": [
        {
          "indexed": true,
          "internalType": "uint256",
          "name": "transactionId",
          "type": "uint256"
        }
      ],
      "name": "Execution",
      "type": "event"
    },
    {
      "anonymous": false,
      "inputs": [
        {
          "indexed": true,
          "internalType": "uint256",
          "name": "transactionId",
          "type": "uint256"
        }
      ],
      "name": "ExecutionFailure",
      "type": "event"
    },
    {
      "anonymous": false,
      "inputs": [
        {
          "indexed": true,
          "internalType": "address",
          "name": "owner",
          "type": "address"
        }
      ],
      "name": "OwnerAddition",
      "type": "event"
    },
    {
      "anonymous": false,
      "inputs": [
        {
          "indexed": true,
          "internalType": "address",
          "name": "owner",
          "type": "address"
        }
      ],
      "name": "OwnerRemoval",
      "type": "event"
    },
    {
      "anonymous": false,
      "inputs": [
        {
          "indexed": false,
          "internalType": "uint256",
          "name": "required",
          "type": "uint256"
        }
      ],
      "name": "RequirementChange",
      "type": "event"
    },
    {
      "anonymous": false,
      "inputs": [
        {
          "indexed": true,
          "internalType": "address",
          "name": "sender",
          "type": "address"
        },
        {
          "indexed": true,
          "internalType": "uint256",
          "name": "transactionId",
          "type": "uint256"
        }
      ],
      "name": "Revocation",
      "type": "event"
    },
    {
      "anonymous": false,
      "inputs": [
        {
          "indexed": true,
          "internalType": "uint256",
          "name": "transactionId",
          "type": "uint256"
        }
      ],
      "name": "Submission",
      "type": "event"
    },
    {
      "payable": true,
      "stateMutability": "payable",
      "type": "fallback"
    },
    {
      "constant": true,
      "inputs": [],
      "name": "MAX_OWNER_COUNT",
      "outputs": [
        {
          "internalType": "uint256",
          "name": "",
          "type": "uint256"
        }
      ],
      "payable": false,
      "stateMutability": "view",
      "type": "function"
    },
    {
      "constant": true,
      "inputs": [
        {
          "internalType": "uint256",
          "name": "",
          "type": "uint256"
        },
        {
          "internalType": "address",
          "name": "",
          "type": "address"
        }
      ],
      "name": "confirmations",
      "outputs": [
        {
          "internalType": "bool",
          "name": "",
          "type": "bool"
        }
      ],
      "payable": false,
      "stateMutability": "view",
      "type": "function"
    },
    {
      "constant": true,
      "inputs": [
        {
          "internalType": "address",
          "name": "",
          "type": "address"
        }
      ],
      "name": "isOwner",
      "outputs": [
        {
          "internalType": "bool",
          "name": "",
          "type": "bool"
        }
      ],
      "payable": false,
      "stateMutability": "view",
      "type": "function"
    },
    {
      "constant": true,
      "inputs": [
        {
          "internalType": "uint256",
          "name": "",
          "type": "uint256"
        }
      ],
      "name": "owners",
      "outputs": [
        {
          "internalType": "address",
          "name": "",
          "type": "address"
        }
      ],
      "payable": false,
      "stateMutability": "view",
      "type": "function"
    },
    {
      "constant": true,
      "inputs": [],
      "name": "required",
      "outputs": [
        {
          "internalType": "uint256",
          "name": "",
          "type": "uint256"
        }
      ],
      "payable": false,
      "stateMutability": "view",
      "type": "function"
    },
    {
      "constant": true,
      "inputs": [],
      "name": "transactionCount",
      "outputs": [
        {
          "internalType": "uint256",
          "name": "",
          "type": "uint256"
        }
      ],
      "payable": false,
      "stateMutability": "view",
      "type": "function"
    },
    {
      "constant": true,
      "inputs": [
        {
          "internalType": "uint256",
          "name": "",
          "type": "uint256"
        }
      ],
      "name": "transactions",
      "outputs": [
        {
          "internalType": "address",
          "name": "destination",
          "type": "address"
        },
        {
          "internalType": "uint256",
          "name": "value",
          "type": "uint256"
        },
        {
          "internalType": "bytes",
          "name": "data",
          "type": "bytes"
        },
        {
          "internalType": "bool",
          "name": "executed",
          "type": "bool"
        }
      ],
      "payable": false,
      "stateMutability": "view",
      "type": "function"
    },
    {
      "constant": false,
      "inputs": [
        {
          "internalType": "address",
          "name": "owner",
          "type": "address"
        }
      ],
      "name": "addOwner",
      "outputs": [],
      "payable": false,
      "stateMutability": "nonpayable",
      "type": "function"
    },
    {
      "constant": false,
      "inputs": [
        {
          "internalType": "address",
          "name": "owner",
          "type": "address"
        }
      ],
      "name": "removeOwner",
      "outputs": [],
      "payable": false,
      "stateMutability": "nonpayable",
      "type": "function"
    },
    {
      "constant": false,
      "inputs": [
        {
          "internalType": "address",
          "name": "owner",
          "type": "address"
        },
        {
          "internalType": "address",
          "name": "newOwner",
          "type": "address"
        }
      ],
      "name": "replaceOwner",
      "outputs": [],
      "payable": false,
      "stateMutability": "nonpayable",
      "type": "function"
    },
    {
      "constant": false,
      "inputs": [
        {
          "internalType": "uint256",
          "name": "_required",
          "type": "uint256"
        }
      ],
      "name": "changeRequirement",
      "outputs": [],
      "payable": false,
      "stateMutability": "nonpayable",
      "type": "function"
    },
    {
      "constant": false,
      "inputs": [
        {
          "internalType": "address",
          "name": "destination",
          "type": "address"
        },
        {
          "internalType": "uint256",
          "name": "value",
          "type": "uint256"
        },
        {
          "internalType": "bytes",
          "name": "data",
          "type": "bytes"
        }
      ],
      "name": "submitTransaction",
      "outputs": [
        {
          "internalType": "uint256",
          "name": "transactionId",
          "type": "uint256"
        }
      ],
      "payable": false,
      "stateMutability": "nonpayable",
      "type": "function"
    },
    {
      "constant": false,
      "inputs": [
        {
          "internalType": "address",
          "name": "destination",
          "type": "address"
        },
        {
          "internalType": "uint256",
          "name": "value",
          "type": "uint256"
        },
        {
          "internalType": "bytes",
          "name": "data",
          "type": "bytes"
        }
      ],
      "name": "submitInvoice",
      "outputs": [
        {
          "internalType": "uint256",
          "name": "transactionId",
          "type": "uint256"
        }
      ],
      "payable": false,
      "stateMutability": "nonpayable",
      "type": "function"
    },
    {
      "constant": false,
      "inputs": [
        {
          "internalType": "uint256",
          "name": "transactionId",
          "type": "uint256"
        }
      ],
      "name": "confirmTransaction",
      "outputs": [],
      "payable": false,
      "stateMutability": "nonpayable",
      "type": "function"
    },
    {
      "constant": false,
      "inputs": [
        {
          "internalType": "uint256",
          "name": "transactionId",
          "type": "uint256"
        }
      ],
      "name": "revokeConfirmation",
      "outputs": [],
      "payable": false,
      "stateMutability": "nonpayable",
      "type": "function"
    },
    {
      "constant": false,
      "inputs": [
        {
          "internalType": "uint256",
          "name": "transactionId",
          "type": "uint256"
        }
      ],
      "name": "executeTransaction",
      "outputs": [],
      "payable": false,
      "stateMutability": "nonpayable",
      "type": "function"
    },
    {
      "constant": true,
      "inputs": [
        {
          "internalType": "uint256",
          "name": "transactionId",
          "type": "uint256"
        }
      ],
      "name": "isConfirmed",
      "outputs": [
        {
          "internalType": "bool",
          "name": "",
          "type": "bool"
        }
      ],
      "payable": false,
      "stateMutability": "view",
      "type": "function"
    },
    {
      "constant": true,
      "inputs": [
        {
          "internalType": "uint256",
          "name": "transactionId",
          "type": "uint256"
        }
      ],
      "name": "getConfirmationCount",
      "outputs": [
        {
          "internalType": "uint256",
          "name": "count",
          "type": "uint256"
        }
      ],
      "payable": false,
      "stateMutability": "view",
      "type": "function"
    },
    {
      "constant": true,
      "inputs": [
        {
          "internalType": "bool",
          "name": "pending",
          "type": "bool"
        },
        {
          "internalType": "bool",
          "name": "executed",
          "type": "bool"
        }
      ],
      "name": "getTransactionCount",
      "outputs": [
        {
          "internalType": "uint256",
          "name": "count",
          "type": "uint256"
        }
      ],
      "payable": false,
      "stateMutability": "view",
      "type": "function"
    },
    {
      "constant": true,
      "inputs": [],
      "name": "getOwners",
      "outputs": [
        {
          "internalType": "address[]",
          "name": "",
          "type": "address[]"
        }
      ],
      "payable": false,
      "stateMutability": "view",
      "type": "function"
    },
    {
      "constant": true,
      "inputs": [
        {
          "internalType": "uint256",
          "name": "transactionId",
          "type": "uint256"
        }
      ],
      "name": "getConfirmations",
      "outputs": [
        {
          "internalType": "address[]",
          "name": "_confirmations",
          "type": "address[]"
        }
      ],
      "payable": false,
      "stateMutability": "view",
      "type": "function"
    },
    {
      "constant": true,
      "inputs": [
        {
          "internalType": "uint256",
          "name": "from",
          "type": "uint256"
        },
        {
          "internalType": "uint256",
          "name": "to",
          "type": "uint256"
        },
        {
          "internalType": "bool",
          "name": "pending",
          "type": "bool"
        },
        {
          "internalType": "bool",
          "name": "executed",
          "type": "bool"
        }
      ],
      "name": "getTransactionIds",
      "outputs": [
        {
          "internalType": "uint256[]",
          "name": "_transactionIds",
          "type": "uint256[]"
        }
      ],
      "payable": false,
      "stateMutability": "view",
      "type": "function"
    }
  ],
  "bytecode": "0x60806040523480156200001157600080fd5b5060405162002eb138038062002eb1833981810160405260408110156200003757600080fd5b81019080805160405193929190846401000000008211156200005857600080fd5b838201915060208201858111156200006f57600080fd5b82518660208202830111640100000000821117156200008d57600080fd5b8083526020830192505050908051906020019060200280838360005b83811015620000c6578082015181840152602081019050620000a9565b505050509050016040526020018051906020019092919050505081518160328211158015620000f55750818111155b801562000103575060008114155b801562000111575060008214155b6200011b57600080fd5b60008090505b84518110156200025f57600260008683815181106200013c57fe5b602002602001015173ffffffffffffffffffffffffffffffffffffffff1673ffffffffffffffffffffffffffffffffffffffff16815260200190815260200160002060009054906101000a900460ff16158015620001db5750600073ffffffffffffffffffffffffffffffffffffffff16858281518110620001ba57fe5b602002602001015173ffffffffffffffffffffffffffffffffffffffff1614155b620001e557600080fd5b600160026000878481518110620001f857fe5b602002602001015173ffffffffffffffffffffffffffffffffffffffff1673ffffffffffffffffffffffffffffffffffffffff16815260200190815260200160002060006101000a81548160ff021916908315150217905550808060010191505062000121565b508360039080519060200190620002789291906200028a565b5082600481905550505050506200035f565b82805482825590600052602060002090810192821562000306579160200282015b82811115620003055782518260006101000a81548173ffffffffffffffffffffffffffffffffffffffff021916908373ffffffffffffffffffffffffffffffffffffffff16021790555091602001919060010190620002ab565b5b50905062000315919062000319565b5090565b6200035c91905b808211156200035857600081816101000a81549073ffffffffffffffffffffffffffffffffffffffff02191690555060010162000320565b5090565b90565b612b42806200036f6000396000f3fe6080604052600436106101355760003560e01c8063a8abe69a116100ab578063c64274741161006f578063c64274741461080a578063cf35225314610910578063d74f8edd14610a16578063dc8452cd14610a41578063e20056e614610a6c578063ee22610b14610add57610135565b8063a8abe69a14610627578063b5dc40c3146106d9578063b77bf60014610769578063ba51a6df14610794578063c01a8c84146107cf57610135565b806354741525116100fd57806354741525146103725780637065cb48146103cf578063784547a7146104205780638b51d13f146104735780639ace38c2146104c2578063a0e67e2b146105bb57610135565b8063025e7c271461018f578063173825d91461020a57806320ea8d861461025b5780632f54bf6e146102965780633411c81c146102ff575b600034111561018d573373ffffffffffffffffffffffffffffffffffffffff167fe1fffcc4923d04b559f4d29a8bfc6cda04eb5b0d3c460751c2402c5c5cc9109c346040518082815260200191505060405180910390a25b005b34801561019b57600080fd5b506101c8600480360360208110156101b257600080fd5b8101908080359060200190929190505050610b18565b604051808273ffffffffffffffffffffffffffffffffffffffff1673ffffffffffffffffffffffffffffffffffffffff16815260200191505060405180910390f35b34801561021657600080fd5b506102596004803603602081101561022d57600080fd5b81019080803573ffffffffffffffffffffffffffffffffffffffff169060200190929190505050610b54565b005b34801561026757600080fd5b506102946004803603602081101561027e57600080fd5b8101908080359060200190929190505050610e97565b005b3480156102a257600080fd5b506102e5600480360360208110156102b957600080fd5b81019080803573ffffffffffffffffffffffffffffffffffffffff169060200190929190505050611174565b604051808215151515815260200191505060405180910390f35b34801561030b57600080fd5b506103586004803603604081101561032257600080fd5b8101908080359060200190929190803573ffffffffffffffffffffffffffffffffffffffff169060200190929190505050611194565b604051808215151515815260200191505060405180910390f35b34801561037e57600080fd5b506103b96004803603604081101561039557600080fd5b810190808035151590602001909291908035151590602001909291905050506111c3565b6040518082815260200191505060405180910390f35b3480156103db57600080fd5b5061041e600480360360208110156103f257600080fd5b81019080803573ffffffffffffffffffffffffffffffffffffffff169060200190929190505050611255565b005b34801561042c57600080fd5b506104596004803603602081101561044357600080fd5b8101908080359060200190929190505050611586565b604051808215151515815260200191505060405180910390f35b34801561047f57600080fd5b506104ac6004803603602081101561049657600080fd5b810190808035906020019092919050505061166b565b6040518082815260200191505060405180910390f35b3480156104ce57600080fd5b506104fb600480360360208110156104e557600080fd5b8101908080359060200190929190505050611734565b604051808573ffffffffffffffffffffffffffffffffffffffff1673ffffffffffffffffffffffffffffffffffffffff1681526020018481526020018060200183151515158152602001828103825284818151815260200191508051906020019080838360005b8381101561057d578082015181840152602081019050610562565b50505050905090810190601f1680156105aa5780820380516001836020036101000a031916815260200191505b509550505050505060405180910390f35b3480156105c757600080fd5b506105d0611829565b6040518080602001828103825283818151815260200191508051906020019060200280838360005b838110156106135780820151818401526020810190506105f8565b505050509050019250505060405180910390f35b34801561063357600080fd5b506106826004803603608081101561064a57600080fd5b8101908080359060200190929190803590602001909291908035151590602001909291908035151590602001909291905050506118b7565b6040518080602001828103825283818151815260200191508051906020019060200280838360005b838110156106c55780820151818401526020810190506106aa565b505050509050019250505060405180910390f35b3480156106e557600080fd5b50610712600480360360208110156106fc57600080fd5b8101908080359060200190929190505050611a1b565b6040518080602001828103825283818151815260200191508051906020019060200280838360005b8381101561075557808201518184015260208101905061073a565b505050509050019250505060405180910390f35b34801561077557600080fd5b5061077e611c47565b6040518082815260200191505060405180910390f35b3480156107a057600080fd5b506107cd600480360360208110156107b757600080fd5b8101908080359060200190929190505050611c4d565b005b3480156107db57600080fd5b50610808600480360360208110156107f257600080fd5b8101908080359060200190929190505050611d4f565b005b34801561081657600080fd5b506108fa6004803603606081101561082d57600080fd5b81019080803573ffffffffffffffffffffffffffffffffffffffff169060200190929190803590602001909291908035906020019064010000000081111561087457600080fd5b82018360208201111561088657600080fd5b803590602001918460018302840111640100000000831117156108a857600080fd5b91908080601f016020809104026020016040519081016040528093929190818152602001838380828437600081840152601f19601f82011690508083019250505050505050919291929050505061205a565b6040518082815260200191505060405180910390f35b34801561091c57600080fd5b50610a006004803603606081101561093357600080fd5b81019080803573ffffffffffffffffffffffffffffffffffffffff169060200190929190803590602001909291908035906020019064010000000081111561097a57600080fd5b82018360208201111561098c57600080fd5b803590602001918460018302840111640100000000831117156109ae57600080fd5b91908080601f016020809104026020016040519081016040528093929190818152602001838380828437600081840152601f19601f820116905080830192505050505050509192919290505050612079565b6040518082815260200191505060405180910390f35b348015610a2257600080fd5b50610a2b61208f565b6040518082815260200191505060405180910390f35b348015610a4d57600080fd5b50610a56612094565b6040518082815260200191505060405180910390f35b348015610a7857600080fd5b50610adb60048036036040811015610a8f57600080fd5b81019080803573ffffffffffffffffffffffffffffffffffffffff169060200190929190803573ffffffffffffffffffffffffffffffffffffffff16906020019092919050505061209a565b005b348015610ae957600080fd5b50610b1660048036036020811015610b0057600080fd5b81019080803590602001909291905050506124c2565b005b60038181548110610b2557fe5b906000526020600020016000915054906101000a900473ffffffffffffffffffffffffffffffffffffffff1681565b3073ffffffffffffffffffffffffffffffffffffffff163373ffffffffffffffffffffffffffffffffffffffff1614610bd8576040517f08c379a000000000000000000000000000000000000000000000000000000000815260040180806020018281038252602c815260200180612ae2602c913960400191505060405180910390fd5b80600260008273ffffffffffffffffffffffffffffffffffffffff1673ffffffffffffffffffffffffffffffffffffffff16815260200190815260200160002060009054906101000a900460ff16610c98576040517f08c379a00000000000000000000000000000000000000000000000000000000081526004018080602001828103825260158152602001807f4f776e657220646f6573206e6f7420657869737421000000000000000000000081525060200191505060405180910390fd5b6000600260008473ffffffffffffffffffffffffffffffffffffffff1673ffffffffffffffffffffffffffffffffffffffff16815260200190815260200160002060006101000a81548160ff02191690831515021790555060008090505b600160038054905003811015610e18578273ffffffffffffffffffffffffffffffffffffffff1660038281548110610d2a57fe5b9060005260206000200160009054906101000a900473ffffffffffffffffffffffffffffffffffffffff1673ffffffffffffffffffffffffffffffffffffffff161415610e0b57600360016003805490500381548110610d8657fe5b9060005260206000200160009054906101000a900473ffffffffffffffffffffffffffffffffffffffff1660038281548110610dbe57fe5b9060005260206000200160006101000a81548173ffffffffffffffffffffffffffffffffffffffff021916908373ffffffffffffffffffffffffffffffffffffffff160217905550610e18565b8080600101915050610cf6565b506001600381818054905003915081610e3191906129ef565b506003805490506004541115610e5057610e4f600380549050611c4d565b5b8173ffffffffffffffffffffffffffffffffffffffff167f8001553a916ef2f495d26a907cc54d96ed840d7bda71e73194bf5a9df7a76b9060405160405180910390a25050565b33600260008273ffffffffffffffffffffffffffffffffffffffff1673ffffffffffffffffffffffffffffffffffffffff16815260200190815260200160002060009054906101000a900460ff16610f57576040517f08c379a00000000000000000000000000000000000000000000000000000000081526004018080602001828103825260158152602001807f4f776e657220646f6573206e6f7420657869737421000000000000000000000081525060200191505060405180910390fd5b81336001600083815260200190815260200160002060008273ffffffffffffffffffffffffffffffffffffffff1673ffffffffffffffffffffffffffffffffffffffff16815260200190815260200160002060009054906101000a900460ff16611029576040517f08c379a000000000000000000000000000000000000000000000000000000000815260040180806020018281038252601d8152602001807f7472616e73616374696f6e206973206e6f7420636f6e6669726d65642100000081525060200191505060405180910390fd5b8360008082815260200190815260200160002060030160009054906101000a900460ff16156110c0576040517f08c379a00000000000000000000000000000000000000000000000000000000081526004018080602001828103825260208152602001807f7472616e73616374696f6e20697320616c72656164792065786563757465642181525060200191505060405180910390fd5b60006001600087815260200190815260200160002060003373ffffffffffffffffffffffffffffffffffffffff1673ffffffffffffffffffffffffffffffffffffffff16815260200190815260200160002060006101000a81548160ff021916908315150217905550843373ffffffffffffffffffffffffffffffffffffffff167ff6a317157440607f36269043eb55f1287a5a19ba2216afeab88cd46cbcfb88e960405160405180910390a35050505050565b60026020528060005260406000206000915054906101000a900460ff1681565b60016020528160005260406000206020528060005260406000206000915091509054906101000a900460ff1681565b600080600090505b60055481101561124e57838015611202575060008082815260200190815260200160002060030160009054906101000a900460ff16155b806112355750828015611234575060008082815260200190815260200160002060030160009054906101000a900460ff165b5b15611241576001820191505b80806001019150506111cb565b5092915050565b3073ffffffffffffffffffffffffffffffffffffffff163373ffffffffffffffffffffffffffffffffffffffff16146112d9576040517f08c379a000000000000000000000000000000000000000000000000000000000815260040180806020018281038252602c815260200180612ae2602c913960400191505060405180910390fd5b80600260008273ffffffffffffffffffffffffffffffffffffffff1673ffffffffffffffffffffffffffffffffffffffff16815260200190815260200160002060009054906101000a900460ff161561139a576040517f08c379a00000000000000000000000000000000000000000000000000000000081526004018080602001828103825260118152602001807f4f776e657220646f65732065786973742100000000000000000000000000000081525060200191505060405180910390fd5b81600073ffffffffffffffffffffffffffffffffffffffff168173ffffffffffffffffffffffffffffffffffffffff16141561143e576040517f08c379a00000000000000000000000000000000000000000000000000000000081526004018080602001828103825260108152602001807f61646472657373206973206e756c6c210000000000000000000000000000000081525060200191505060405180910390fd5b6001600380549050016004546032821115801561145b5750818111155b8015611468575060008114155b8015611475575060008214155b61147e57600080fd5b6001600260008773ffffffffffffffffffffffffffffffffffffffff1673ffffffffffffffffffffffffffffffffffffffff16815260200190815260200160002060006101000a81548160ff02191690831515021790555060038590806001815401808255809150509060018203906000526020600020016000909192909190916101000a81548173ffffffffffffffffffffffffffffffffffffffff021916908373ffffffffffffffffffffffffffffffffffffffff160217905550508473ffffffffffffffffffffffffffffffffffffffff167ff39e6e1eb0edcf53c221607b54b00cd28f3196fed0a24994dc308b8f611b682d60405160405180910390a25050505050565b6000806000905060008090505b60038054905081101561166357600160008581526020019081526020016000206000600383815481106115c257fe5b9060005260206000200160009054906101000a900473ffffffffffffffffffffffffffffffffffffffff1673ffffffffffffffffffffffffffffffffffffffff1673ffffffffffffffffffffffffffffffffffffffff16815260200190815260200160002060009054906101000a900460ff1615611641576001820191505b60045482141561165657600192505050611666565b8080600101915050611593565b50505b919050565b600080600090505b60038054905081101561172e57600160008481526020019081526020016000206000600383815481106116a257fe5b9060005260206000200160009054906101000a900473ffffffffffffffffffffffffffffffffffffffff1673ffffffffffffffffffffffffffffffffffffffff1673ffffffffffffffffffffffffffffffffffffffff16815260200190815260200160002060009054906101000a900460ff1615611721576001820191505b8080600101915050611673565b50919050565b60006020528060005260406000206000915090508060000160009054906101000a900473ffffffffffffffffffffffffffffffffffffffff1690806001015490806002018054600181600116156101000203166002900480601f01602080910402602001604051908101604052809291908181526020018280546001816001161561010002031660029004801561180c5780601f106117e15761010080835404028352916020019161180c565b820191906000526020600020905b8154815290600101906020018083116117ef57829003601f168201915b5050505050908060030160009054906101000a900460ff16905084565b606060038054806020026020016040519081016040528092919081815260200182805480156118ad57602002820191906000526020600020905b8160009054906101000a900473ffffffffffffffffffffffffffffffffffffffff1673ffffffffffffffffffffffffffffffffffffffff1681526020019060010190808311611863575b5050505050905090565b6060806005546040519080825280602002602001820160405280156118eb5781602001602082028038833980820191505090505b509050600080905060008090505b60055481101561199557858015611930575060008082815260200190815260200160002060030160009054906101000a900460ff16155b806119635750848015611962575060008082815260200190815260200160002060030160009054906101000a900460ff165b5b15611988578083838151811061197557fe5b6020026020010181815250506001820191505b80806001019150506118f9565b8787036040519080825280602002602001820160405280156119c65781602001602082028038833980820191505090505b5093508790505b86811015611a10578281815181106119e157fe5b602002602001015184898303815181106119f757fe5b60200260200101818152505080806001019150506119cd565b505050949350505050565b606080600380549050604051908082528060200260200182016040528015611a525781602001602082028038833980820191505090505b509050600080905060008090505b600380549050811015611b995760016000868152602001908152602001600020600060038381548110611a8f57fe5b9060005260206000200160009054906101000a900473ffffffffffffffffffffffffffffffffffffffff1673ffffffffffffffffffffffffffffffffffffffff1673ffffffffffffffffffffffffffffffffffffffff16815260200190815260200160002060009054906101000a900460ff1615611b8c5760038181548110611b1457fe5b9060005260206000200160009054906101000a900473ffffffffffffffffffffffffffffffffffffffff16838381518110611b4b57fe5b602002602001019073ffffffffffffffffffffffffffffffffffffffff16908173ffffffffffffffffffffffffffffffffffffffff16815250506001820191505b8080600101915050611a60565b81604051908082528060200260200182016040528015611bc85781602001602082028038833980820191505090505b509350600090505b81811015611c3f57828181518110611be457fe5b6020026020010151848281518110611bf857fe5b602002602001019073ffffffffffffffffffffffffffffffffffffffff16908173ffffffffffffffffffffffffffffffffffffffff16815250508080600101915050611bd0565b505050919050565b60055481565b3073ffffffffffffffffffffffffffffffffffffffff163373ffffffffffffffffffffffffffffffffffffffff1614611cd1576040517f08c379a000000000000000000000000000000000000000000000000000000000815260040180806020018281038252602c815260200180612ae2602c913960400191505060405180910390fd5b6003805490508160328211158015611ce95750818111155b8015611cf6575060008114155b8015611d03575060008214155b611d0c57600080fd5b826004819055507fa3f1ee9126a074d9326c682f561767f710e927faa811f7a99829d49dc421797a836040518082815260200191505060405180910390a1505050565b33600260008273ffffffffffffffffffffffffffffffffffffffff1673ffffffffffffffffffffffffffffffffffffffff16815260200190815260200160002060009054906101000a900460ff16611e0f576040517f08c379a00000000000000000000000000000000000000000000000000000000081526004018080602001828103825260158152602001807f4f776e657220646f6573206e6f7420657869737421000000000000000000000081525060200191505060405180910390fd5b81600073ffffffffffffffffffffffffffffffffffffffff1660008083815260200190815260200160002060000160009054906101000a900473ffffffffffffffffffffffffffffffffffffffff1673ffffffffffffffffffffffffffffffffffffffff161415611ee8576040517f08c379a00000000000000000000000000000000000000000000000000000000081526004018080602001828103825260198152602001807f7472616e73616374696f6e206973206e6f74206578697473210000000000000081525060200191505060405180910390fd5b82336001600083815260200190815260200160002060008273ffffffffffffffffffffffffffffffffffffffff1673ffffffffffffffffffffffffffffffffffffffff16815260200190815260200160002060009054906101000a900460ff1615611f9e576040517f08c379a0000000000000000000000000000000000000000000000000000000008152600401808060200182810382526021815260200180612ac16021913960400191505060405180910390fd5b600180600087815260200190815260200160002060003373ffffffffffffffffffffffffffffffffffffffff1673ffffffffffffffffffffffffffffffffffffffff16815260200190815260200160002060006101000a81548160ff021916908315150217905550843373ffffffffffffffffffffffffffffffffffffffff167f4a504a94899432a9846e1aa406dceb1bcfd538bb839071d49d1e5e23f5be30ef60405160405180910390a3612053856124c2565b5050505050565b600061206784848461289f565b905061207281611d4f565b9392505050565b600061208684848461289f565b90509392505050565b603281565b60045481565b3073ffffffffffffffffffffffffffffffffffffffff163373ffffffffffffffffffffffffffffffffffffffff161461211e576040517f08c379a000000000000000000000000000000000000000000000000000000000815260040180806020018281038252602c815260200180612ae2602c913960400191505060405180910390fd5b81600260008273ffffffffffffffffffffffffffffffffffffffff1673ffffffffffffffffffffffffffffffffffffffff16815260200190815260200160002060009054906101000a900460ff166121de576040517f08c379a00000000000000000000000000000000000000000000000000000000081526004018080602001828103825260158152602001807f4f776e657220646f6573206e6f7420657869737421000000000000000000000081525060200191505060405180910390fd5b81600260008273ffffffffffffffffffffffffffffffffffffffff1673ffffffffffffffffffffffffffffffffffffffff16815260200190815260200160002060009054906101000a900460ff161561229f576040517f08c379a00000000000000000000000000000000000000000000000000000000081526004018080602001828103825260118152602001807f4f776e657220646f65732065786973742100000000000000000000000000000081525060200191505060405180910390fd5b60008090505b600380549050811015612385578473ffffffffffffffffffffffffffffffffffffffff16600382815481106122d657fe5b9060005260206000200160009054906101000a900473ffffffffffffffffffffffffffffffffffffffff1673ffffffffffffffffffffffffffffffffffffffff16141561237857836003828154811061232b57fe5b9060005260206000200160006101000a81548173ffffffffffffffffffffffffffffffffffffffff021916908373ffffffffffffffffffffffffffffffffffffffff160217905550612385565b80806001019150506122a5565b506000600260008673ffffffffffffffffffffffffffffffffffffffff1673ffffffffffffffffffffffffffffffffffffffff16815260200190815260200160002060006101000a81548160ff0219169083151502179055506001600260008573ffffffffffffffffffffffffffffffffffffffff1673ffffffffffffffffffffffffffffffffffffffff16815260200190815260200160002060006101000a81548160ff0219169083151502179055508373ffffffffffffffffffffffffffffffffffffffff167f8001553a916ef2f495d26a907cc54d96ed840d7bda71e73194bf5a9df7a76b9060405160405180910390a28273ffffffffffffffffffffffffffffffffffffffff167ff39e6e1eb0edcf53c221607b54b00cd28f3196fed0a24994dc308b8f611b682d60405160405180910390a250505050565b33600260008273ffffffffffffffffffffffffffffffffffffffff1673ffffffffffffffffffffffffffffffffffffffff16815260200190815260200160002060009054906101000a900460ff16612582576040517f08c379a00000000000000000000000000000000000000000000000000000000081526004018080602001828103825260158152602001807f4f776e657220646f6573206e6f7420657869737421000000000000000000000081525060200191505060405180910390fd5b81336001600083815260200190815260200160002060008273ffffffffffffffffffffffffffffffffffffffff1673ffffffffffffffffffffffffffffffffffffffff16815260200190815260200160002060009054906101000a900460ff16612654576040517f08c379a000000000000000000000000000000000000000000000000000000000815260040180806020018281038252601d8152602001807f7472616e73616374696f6e206973206e6f7420636f6e6669726d65642100000081525060200191505060405180910390fd5b8360008082815260200190815260200160002060030160009054906101000a900460ff16156126eb576040517f08c379a00000000000000000000000000000000000000000000000000000000081526004018080602001828103825260208152602001807f7472616e73616374696f6e20697320616c72656164792065786563757465642181525060200191505060405180910390fd5b6126f485611586565b15612898576000806000878152602001908152602001600020905060018160030160006101000a81548160ff0219169083151502179055506128148160000160009054906101000a900473ffffffffffffffffffffffffffffffffffffffff16826001015483600201805460018160011615610100020316600290049050846002018054600181600116156101000203166002900480601f01602080910402602001604051908101604052809291908181526020018280546001816001161561010002031660029004801561280a5780601f106127df5761010080835404028352916020019161280a565b820191906000526020600020905b8154815290600101906020018083116127ed57829003601f168201915b50505050506129c8565b1561284b57857f33e13ecb54c3076d8e8bb8c2881800a4d972b792045ffae98fdf46df365fed7560405160405180910390a2612896565b857f526441bb6c1aba3c9a4a6ca1d6545da9c2333c8c48343ef398eb858d72b7923660405160405180910390a260008160030160006101000a81548160ff0219169083151502179055505b505b5050505050565b6000600554905060405180608001604052808573ffffffffffffffffffffffffffffffffffffffff1681526020018481526020018381526020016000151581525060008083815260200190815260200160002060008201518160000160006101000a81548173ffffffffffffffffffffffffffffffffffffffff021916908373ffffffffffffffffffffffffffffffffffffffff16021790555060208201518160010155604082015181600201908051906020019061295f929190612a1b565b5060608201518160030160006101000a81548160ff0219169083151502179055509050506001600560008282540192505081905550807fc0ba8fe4b176c1714197d43b9cc6bcf797a4a7461c5fe8d0ef6e184ae7601e5160405160405180910390a29392505050565b6000806040516020840160008287838a8c6187965a03f19250505080915050949350505050565b815481835581811115612a1657818360005260206000209182019101612a159190612a9b565b5b505050565b828054600181600116156101000203166002900490600052602060002090601f016020900481019282601f10612a5c57805160ff1916838001178555612a8a565b82800160010185558215612a8a579182015b82811115612a89578251825591602001919060010190612a6e565b5b509050612a979190612a9b565b5090565b612abd91905b80821115612ab9576000816000905550600101612aa1565b5090565b9056fe7472616e73616374696f6e20697320616c726561647920636f6e6669726d65642163616c6c2073686f756c6420626520696e766f6b65642066726f6d2057414c4c455420636f6e747261637421a265627a7a72315820292a16997538f1395e178edca67e13f9010af569127e560c4f53be783ed8286464736f6c63430005100032",
  "source": "pragma solidity ^0.5.0;\n\n\n/// @title Multisignature wallet - Allows multiple parties to agree on transactions before execution.\n/// @author Stefan George - <stefan.george@consensys.net>\ncontract MultiSigWallet {\n\n    /*\n     *  Events\n     */\n    event Confirmation(address indexed sender, uint indexed transactionId);\n    event Revocation(address indexed sender, uint indexed transactionId);\n    event Submission(uint indexed transactionId);\n    event Execution(uint indexed transactionId);\n    event ExecutionFailure(uint indexed transactionId);\n    event Deposit(address indexed sender, uint value);\n    event OwnerAddition(address indexed owner);\n    event OwnerRemoval(address indexed owner);\n    event RequirementChange(uint required);\n\n    /*\n     *  Constants\n     */\n    uint constant public MAX_OWNER_COUNT = 50;\n\n    /*\n     *  Storage\n     */\n    mapping (uint => Transaction) public transactions;\n    mapping (uint => mapping (address => bool)) public confirmations;\n    mapping (address => bool) public isOwner;\n    address[] public owners;\n    uint public required;\n    uint public transactionCount;\n\n    struct Transaction {\n        address destination;\n        uint value;\n        bytes data;\n        bool executed;\n    }\n\n    /*\n     *  Modifiers\n     */\n    modifier onlyWallet() {\n        require(msg.sender == address(this),\"call should be invoked from WALLET contract!\");\n        _;\n    }\n\n    modifier ownerDoesNotExist(address owner) {\n        require(!isOwner[owner],\"Owner does exist!\");\n        _;\n    }\n\n    modifier ownerExists(address owner) {\n        require(isOwner[owner],\"Owner does not exist!\");\n        _;\n    }\n\n    modifier transactionExists(uint transactionId) {\n        require(transactions[transactionId].destination != address(0),\"transaction is not exits!\");\n        _;\n    }\n\n    modifier confirmed(uint transactionId, address owner) {\n        require(confirmations[transactionId][owner],\"transaction is not confirmed!\");\n        _;\n    }\n\n    modifier notConfirmed(uint transactionId, address owner) {\n        require(!confirmations[transactionId][owner],\"transaction is already confirmed!\");\n        _;\n    }\n\n    modifier notExecuted(uint transactionId) {\n        require(!transactions[transactionId].executed,\"transaction is already executed!\");\n        _;\n    }\n\n    modifier notNull(address _address) {\n        require(_address != address(0),\"address is null!\");\n        _;\n    }\n\n    modifier validRequirement(uint ownerCount, uint _required) {\n        require(ownerCount <= MAX_OWNER_COUNT &&\n             _required <= ownerCount &&\n             _required != 0          &&\n             ownerCount != 0);\n        _;\n    }\n\n    /// @dev Fallback function allows to deposit ether.\n    function() external \n        payable\n    {\n        if (msg.value > 0)\n            emit Deposit(msg.sender, msg.value);\n    }\n\n    /*\n     * Public functions\n     */\n    /// @dev Contract constructor sets initial owners and required number of confirmations.\n    /// @param _owners List of initial owners.\n    /// @param _required Number of required confirmations.\n    constructor(address[] memory _owners, uint _required)\n        public\n        validRequirement(_owners.length, _required)\n    {\n        for (uint i = 0; i<_owners.length; i++) {\n            require(!isOwner[_owners[i]] && _owners[i] != address(0));\n            isOwner[_owners[i]] = true;\n        }\n        owners = _owners;\n        required = _required;\n    }\n\n    /// @dev Allows to add a new owner. Transaction has to be sent by wallet.\n    /// @param owner Address of new owner.\n    function addOwner(address owner)\n        public\n        onlyWallet\n        ownerDoesNotExist(owner)\n        notNull(owner)\n        validRequirement(owners.length + 1, required)\n    {\n        isOwner[owner] = true;\n        owners.push(owner);\n        emit OwnerAddition(owner);\n    }\n\n    /// @dev Allows to remove an owner. Transaction has to be sent by wallet.\n    /// @param owner Address of owner.\n    function removeOwner(address owner)\n        public\n        onlyWallet\n        ownerExists(owner)\n    {\n        isOwner[owner] = false;\n        for (uint i = 0; i<owners.length - 1; i++)\n            if (owners[i] == owner) {\n                owners[i] = owners[owners.length - 1];\n                break;\n            }\n        owners.length -= 1;\n        if (required > owners.length)\n            changeRequirement(owners.length);\n        emit OwnerRemoval(owner);\n    }\n\n    /// @dev Allows to replace an owner with a new owner. Transaction has to be sent by wallet.\n    /// @param owner Address of owner to be replaced.\n    /// @param newOwner Address of new owner.\n    function replaceOwner(address owner, address newOwner)\n        public\n        onlyWallet\n        ownerExists(owner)\n        ownerDoesNotExist(newOwner)\n    {\n        for (uint i = 0; i<owners.length; i++)\n            if (owners[i] == owner) {\n                owners[i] = newOwner;\n                break;\n            }\n        isOwner[owner] = false;\n        isOwner[newOwner] = true;\n        emit OwnerRemoval(owner);\n        emit OwnerAddition(newOwner);\n    }\n\n    /// @dev Allows to change the number of required confirmations. Transaction has to be sent by wallet.\n    /// @param _required Number of required confirmations.\n    function changeRequirement(uint _required)\n        public\n        onlyWallet\n        validRequirement(owners.length, _required)\n    {\n        required = _required;\n        emit RequirementChange(_required);\n    }\n\n    /// @dev Allows an owner to submit and confirm a transaction.\n    /// @param destination Transaction target address.\n    /// @param value Transaction ether value.\n    /// @param data Transaction data payload.\n    /// @return Returns transaction ID.\n    function submitTransaction(address destination, uint value, bytes memory data)\n        public\n        returns (uint transactionId)\n    {\n        transactionId = addTransaction(destination, value, data);\n        confirmTransaction(transactionId);\n    }\n\n    /// @dev Allows anyone to submit transaction without confirming it\n    function submitInvoice(address destination, uint value, bytes memory data)\n        public\n        returns (uint transactionId)\n    {\n        transactionId = addTransaction(destination, value, data);\n    }\n\n    /// @dev Allows an owner to confirm a transaction.\n    /// @param transactionId Transaction ID.\n    function confirmTransaction(uint transactionId)\n        public\n        ownerExists(msg.sender)\n        transactionExists(transactionId)\n        notConfirmed(transactionId, msg.sender)\n    {\n        confirmations[transactionId][msg.sender] = true;\n        emit Confirmation(msg.sender, transactionId);\n        executeTransaction(transactionId);\n    }\n\n    /// @dev Allows an owner to revoke a confirmation for a transaction.\n    /// @param transactionId Transaction ID.\n    function revokeConfirmation(uint transactionId)\n        public\n        ownerExists(msg.sender)\n        confirmed(transactionId, msg.sender)\n        notExecuted(transactionId)\n    {\n        confirmations[transactionId][msg.sender] = false;\n        emit Revocation(msg.sender, transactionId);\n    }\n\n    /// @dev Allows anyone to execute a confirmed transaction.\n    /// @param transactionId Transaction ID.\n    function executeTransaction(uint transactionId)\n        public\n        ownerExists(msg.sender)\n        confirmed(transactionId, msg.sender)\n        notExecuted(transactionId)\n    {\n        if (isConfirmed(transactionId)) {\n            Transaction storage txn = transactions[transactionId];\n            txn.executed = true;\n            if (external_call(txn.destination, txn.value, txn.data.length, txn.data))\n                emit Execution(transactionId);\n            else {\n                emit ExecutionFailure(transactionId);\n                txn.executed = false;\n            }\n        }\n    }\n\n    // call has been separated into its own function in order to take advantage\n    // of the Solidity's code generator to produce a loop that copies tx.data into memory.\n    function external_call(address destination, uint value, uint dataLength, bytes memory data) internal returns (bool) {\n        bool result;\n        assembly {\n            let x := mload(0x40)   // \"Allocate\" memory for output (0x40 is where \"free memory\" pointer is stored by convention)\n            let d := add(data, 32) // First 32 bytes are the padded length of data, so exclude that\n            result := call(\n                sub(gas(), 34710),   // 34710 is the value that solidity is currently emitting\n                                   // It includes callGas (700) + callVeryLow (3, to pay for SUB) + callValueTransferGas (9000) +\n                                   // callNewAccountGas (25000, in case the destination address does not exist and needs creating)\n                destination,\n                value,\n                d,\n                dataLength,        // Size of the input (in bytes) - this is what fixes the padding problem\n                x,\n                0                  // Output is ignored, therefore the output size is zero\n            )\n        }\n        return result;\n    }\n\n    /// @dev Returns the confirmation status of a transaction.\n    /// @param transactionId Transaction ID.\n    /// @return Confirmation status.\n    function isConfirmed(uint transactionId)\n        public\n        view\n        returns (bool)\n    {\n        uint count = 0;\n        for (uint i = 0; i<owners.length; i++) {\n            if (confirmations[transactionId][owners[i]])\n                count += 1;\n            if (count == required)\n                return true;\n        }\n    }\n\n    /*\n     * Internal functions\n     */\n    /// @dev Adds a new transaction to the transaction mapping, if transaction does not exist yet.\n    /// @param destination Transaction target address.\n    /// @param value Transaction ether value.\n    /// @param data Transaction data payload.\n    /// @return Returns transaction ID.\n    function addTransaction(address destination, uint value, bytes memory data)\n        internal\n      //  notNull(destination)\n        returns (uint transactionId)\n    {\n        transactionId = transactionCount;\n        transactions[transactionId] = Transaction({\n            destination: destination,\n            value: value,\n            data: data,\n            executed: false\n        });\n        transactionCount += 1;\n        emit Submission(transactionId);\n    }\n\n    /*\n     * Web3 call functions\n     */\n    /// @dev Returns number of confirmations of a transaction.\n    /// @param transactionId Transaction ID.\n    /// @return Number of confirmations.\n    function getConfirmationCount(uint transactionId)\n        public\n        view\n        returns (uint count)\n    {\n        for (uint i = 0; i<owners.length; i++)\n            if (confirmations[transactionId][owners[i]])\n                count += 1;\n    }\n\n    /// @dev Returns total number of transactions after filers are applied.\n    /// @param pending Include pending transactions.\n    /// @param executed Include executed transactions.\n    /// @return Total number of transactions after filters are applied.\n    function getTransactionCount(bool pending, bool executed)\n        public\n        view\n        returns (uint count)\n    {\n        for (uint i = 0; i<transactionCount; i++)\n            if (   pending && !transactions[i].executed ||\n                 executed && transactions[i].executed)\n                count += 1;\n    }\n\n    /// @dev Returns list of owners.\n    /// @return List of owner addresses.\n    function getOwners()\n        public\n        view\n        returns (address[] memory)\n    {\n        return owners;\n    }\n\n    /// @dev Returns array with owner addresses, which confirmed transaction.\n    /// @param transactionId Transaction ID.\n    /// @return Returns array of owner addresses.\n    function getConfirmations(uint transactionId)\n        public\n        view\n        returns (address[] memory _confirmations)\n    {\n        address[] memory confirmationsTemp = new address[](owners.length);\n        uint count = 0;\n        uint i;\n        for (i = 0; i<owners.length; i++)\n            if (confirmations[transactionId][owners[i]]) {\n                confirmationsTemp[count] = owners[i];\n                count += 1;\n            }\n        _confirmations = new address[](count);\n        for (i = 0; i<count; i++)\n            _confirmations[i] = confirmationsTemp[i];\n    }\n\n    /// @dev Returns list of transaction IDs in defined range.\n    /// @param from Index start position of transaction array.\n    /// @param to Index end position of transaction array.\n    /// @param pending Include pending transactions.\n    /// @param executed Include executed transactions.\n    /// @return Returns array of transaction IDs.\n    function getTransactionIds(uint from, uint to, bool pending, bool executed)\n        public\n        view\n        returns (uint[] memory _transactionIds)\n    {\n        uint[] memory transactionIdsTemp = new uint[](transactionCount);\n        uint count = 0;\n        uint i;\n        for (i = 0; i<transactionCount; i++)\n            if (   pending && !transactions[i].executed ||\n                 executed && transactions[i].executed)\n            {\n                transactionIdsTemp[count] = i;\n                count += 1;\n            }\n        _transactionIds = new uint[](to - from);\n        for (i = from; i<to; i++)\n            _transactionIds[i - from] = transactionIdsTemp[i];\n    }\n}\n",
  "sourcePath": "/home/jack/ethProjects/MS-Factory/contracts/gnosis/MultiSigWallet.sol",
  "compiler": {
    "name": "solc",
    "version": "0.5.16+commit.9c3226ce.Emscripten.clang"
  },
  "schemaVersion": "3.0.11",
  "updatedAt": "2020-02-26T14:39:48.945Z",
  "devdoc": {
    "author": "Stefan George - <stefan.george@consensys.net>",
    "methods": {
      "addOwner(address)": {
        "details": "Allows to add a new owner. Transaction has to be sent by wallet.",
        "params": {
          "owner": "Address of new owner."
        }
      },
      "changeRequirement(uint256)": {
        "details": "Allows to change the number of required confirmations. Transaction has to be sent by wallet.",
        "params": {
          "_required": "Number of required confirmations."
        }
      },
      "confirmTransaction(uint256)": {
        "details": "Allows an owner to confirm a transaction.",
        "params": {
          "transactionId": "Transaction ID."
        }
      },
      "constructor": {
        "details": "Contract constructor sets initial owners and required number of confirmations.",
        "params": {
          "_owners": "List of initial owners.",
          "_required": "Number of required confirmations."
        }
      },
      "executeTransaction(uint256)": {
        "details": "Allows anyone to execute a confirmed transaction.",
        "params": {
          "transactionId": "Transaction ID."
        }
      },
      "getConfirmationCount(uint256)": {
        "details": "Returns number of confirmations of a transaction.",
        "params": {
          "transactionId": "Transaction ID."
        },
        "return": "Number of confirmations."
      },
      "getConfirmations(uint256)": {
        "details": "Returns array with owner addresses, which confirmed transaction.",
        "params": {
          "transactionId": "Transaction ID."
        },
        "return": "Returns array of owner addresses."
      },
      "getOwners()": {
        "details": "Returns list of owners.",
        "return": "List of owner addresses."
      },
      "getTransactionCount(bool,bool)": {
        "details": "Returns total number of transactions after filers are applied.",
        "params": {
          "executed": "Include executed transactions.",
          "pending": "Include pending transactions."
        },
        "return": "Total number of transactions after filters are applied."
      },
      "getTransactionIds(uint256,uint256,bool,bool)": {
        "details": "Returns list of transaction IDs in defined range.",
        "params": {
          "executed": "Include executed transactions.",
          "from": "Index start position of transaction array.",
          "pending": "Include pending transactions.",
          "to": "Index end position of transaction array."
        },
        "return": "Returns array of transaction IDs."
      },
      "isConfirmed(uint256)": {
        "details": "Returns the confirmation status of a transaction.",
        "params": {
          "transactionId": "Transaction ID."
        },
        "return": "Confirmation status."
      },
      "removeOwner(address)": {
        "details": "Allows to remove an owner. Transaction has to be sent by wallet.",
        "params": {
          "owner": "Address of owner."
        }
      },
      "replaceOwner(address,address)": {
        "details": "Allows to replace an owner with a new owner. Transaction has to be sent by wallet.",
        "params": {
          "newOwner": "Address of new owner.",
          "owner": "Address of owner to be replaced."
        }
      },
      "revokeConfirmation(uint256)": {
        "details": "Allows an owner to revoke a confirmation for a transaction.",
        "params": {
          "transactionId": "Transaction ID."
        }
      },
      "submitInvoice(address,uint256,bytes)": {
        "details": "Allows anyone to submit transaction without confirming it"
      },
      "submitTransaction(address,uint256,bytes)": {
        "details": "Allows an owner to submit and confirm a transaction.",
        "params": {
          "data": "Transaction data payload.",
          "destination": "Transaction target address.",
          "value": "Transaction ether value."
        },
        "return": "Returns transaction ID."
      }
    },
    "title": "Multisignature wallet - Allows multiple parties to agree on transactions before execution."
  },
  "userdoc": {
    "methods": {}
  }
}