{
  "contractName": "PluggableSale",
  "abi": [
    {
      "inputs": [
        {
          "internalType": "uint256",
          "name": "rate",
          "type": "uint256"
        },
        {
          "internalType": "address payable",
          "name": "origin",
          "type": "address"
        },
        {
          "internalType": "uint256",
          "name": "sale_limit",
          "type": "uint256"
        },
        {
          "internalType": "address payable",
          "name": "_treasure_fund",
          "type": "address"
        }
      ],
      "payable": false,
      "stateMutability": "nonpayable",
      "type": "constructor"
    },
    {
      "anonymous": false,
      "inputs": [
        {
          "indexed": false,
          "internalType": "uint256",
          "name": "initial_value",
          "type": "uint256"
        },
        {
          "indexed": false,
          "internalType": "uint256",
          "name": "fees",
          "type": "uint256"
        },
        {
          "indexed": false,
          "internalType": "uint256",
          "name": "transfered_amount",
          "type": "uint256"
        }
      ],
      "name": "CalculatedFees",
      "type": "event"
    },
    {
      "anonymous": false,
      "inputs": [
        {
          "indexed": true,
          "internalType": "address",
          "name": "purchaser",
          "type": "address"
        },
        {
          "indexed": true,
          "internalType": "address",
          "name": "beneficiary",
          "type": "address"
        },
        {
          "indexed": false,
          "internalType": "uint256",
          "name": "value",
          "type": "uint256"
        },
        {
          "indexed": false,
          "internalType": "uint256",
          "name": "amount",
          "type": "uint256"
        }
      ],
      "name": "TokensPurchased",
      "type": "event"
    },
    {
      "payable": true,
      "stateMutability": "payable",
      "type": "fallback"
    },
    {
      "constant": true,
      "inputs": [],
      "name": "_event_id",
      "outputs": [
        {
          "internalType": "uint256",
          "name": "",
          "type": "uint256"
        }
      ],
      "payable": false,
      "stateMutability": "view",
      "type": "function"
    },
    {
      "constant": true,
      "inputs": [],
      "name": "_sold_count",
      "outputs": [
        {
          "internalType": "uint256",
          "name": "",
          "type": "uint256"
        }
      ],
      "payable": false,
      "stateMutability": "view",
      "type": "function"
    },
    {
      "constant": true,
      "inputs": [],
      "name": "_token",
      "outputs": [
        {
          "internalType": "contract Ticket721",
          "name": "",
          "type": "address"
        }
      ],
      "payable": false,
      "stateMutability": "view",
      "type": "function"
    },
    {
      "constant": true,
      "inputs": [],
      "name": "_wallet",
      "outputs": [
        {
          "internalType": "address payable",
          "name": "",
          "type": "address"
        }
      ],
      "payable": false,
      "stateMutability": "view",
      "type": "function"
    },
    {
      "constant": true,
      "inputs": [],
      "name": "origin_sale",
      "outputs": [
        {
          "internalType": "contract TokenSale721",
          "name": "",
          "type": "address"
        }
      ],
      "payable": false,
      "stateMutability": "view",
      "type": "function"
    },
    {
      "constant": true,
      "inputs": [],
      "name": "percent_fee",
      "outputs": [
        {
          "internalType": "uint256",
          "name": "",
          "type": "uint256"
        }
      ],
      "payable": false,
      "stateMutability": "view",
      "type": "function"
    },
    {
      "constant": true,
      "inputs": [],
      "name": "treasure_fund",
      "outputs": [
        {
          "internalType": "address payable",
          "name": "",
          "type": "address"
        }
      ],
      "payable": false,
      "stateMutability": "view",
      "type": "function"
    },
    {
      "constant": true,
      "inputs": [],
      "name": "token",
      "outputs": [
        {
          "internalType": "contract Ticket721",
          "name": "",
          "type": "address"
        }
      ],
      "payable": false,
      "stateMutability": "view",
      "type": "function"
    },
    {
      "constant": true,
      "inputs": [],
      "name": "wallet",
      "outputs": [
        {
          "internalType": "address payable",
          "name": "",
          "type": "address"
        }
      ],
      "payable": false,
      "stateMutability": "view",
      "type": "function"
    },
    {
      "constant": true,
      "inputs": [],
      "name": "rate",
      "outputs": [
        {
          "internalType": "uint256",
          "name": "",
          "type": "uint256"
        }
      ],
      "payable": false,
      "stateMutability": "view",
      "type": "function"
    },
    {
      "constant": true,
      "inputs": [],
      "name": "weiRaised",
      "outputs": [
        {
          "internalType": "uint256",
          "name": "",
          "type": "uint256"
        }
      ],
      "payable": false,
      "stateMutability": "view",
      "type": "function"
    },
    {
      "constant": true,
      "inputs": [],
      "name": "event_id",
      "outputs": [
        {
          "internalType": "uint256",
          "name": "",
          "type": "uint256"
        }
      ],
      "payable": false,
      "stateMutability": "view",
      "type": "function"
    },
    {
      "constant": true,
      "inputs": [],
      "name": "sale_limit",
      "outputs": [
        {
          "internalType": "uint256",
          "name": "",
          "type": "uint256"
        }
      ],
      "payable": false,
      "stateMutability": "view",
      "type": "function"
    },
    {
      "constant": true,
      "inputs": [],
      "name": "ticket_type",
      "outputs": [
        {
          "internalType": "uint256",
          "name": "",
          "type": "uint256"
        }
      ],
      "payable": false,
      "stateMutability": "view",
      "type": "function"
    },
    {
      "constant": true,
      "inputs": [],
      "name": "sold_count",
      "outputs": [
        {
          "internalType": "uint256",
          "name": "",
          "type": "uint256"
        }
      ],
      "payable": false,
      "stateMutability": "view",
      "type": "function"
    },
    {
      "constant": false,
      "inputs": [
        {
          "internalType": "address",
          "name": "beneficiary",
          "type": "address"
        }
      ],
      "name": "buyTokens",
      "outputs": [],
      "payable": true,
      "stateMutability": "payable",
      "type": "function"
    }
  ],
  "bytecode": "0x608060405260006005556005600a5534801561001a57600080fd5b50604051610ed8380380610ed88339818101604052608081101561003d57600080fd5b508051602082015160408301516060909301516000805460ff1916600117905591929091836100b3576040805162461bcd60e51b815260206004820152601460248201527f43726f776473616c653a20726174652069732030000000000000000000000000604482015290519081900360640190fd5b6001600160a01b03831661010e576040805162461bcd60e51b815260206004820152601d60248201527f6f726967696e2063616e6e6f74206265207a65726f2061646472657373000000604482015290519081900360640190fd5b600180546001600160a01b0319166001600160a01b0385811691909117918290556040805163521eb27360e01b81529051929091169163521eb27391600480820192602092909190829003018186803b15801561016a57600080fd5b505afa15801561017e573d6000803e3d6000fd5b505050506040513d602081101561019457600080fd5b5051600680546001600160a01b03199081166001600160a01b0393841617909155600780549091168383161790556008859055670de0b6b3a76400008302600490815560015460408051637e062a3560e11b81529051919093169263fc0c546a9281810192602092909190829003018186803b15801561021357600080fd5b505afa158015610227573d6000803e3d6000fd5b505050506040513d602081101561023d57600080fd5b505160008054610100600160a81b0319166101006001600160a01b039384160217905560015460408051634881cef760e11b8152905191909216916391039dee916004808301926020929190829003018186803b15801561029d57600080fd5b505afa1580156102b1573d6000803e3d6000fd5b505050506040513d60208110156102c757600080fd5b505160028190556000805460065460408051630645c0fb60e41b815260048101959095526001600160a01b03918216602486015251610100909204169263645c0fb09260448083019360209390929083900390910190829087803b15801561032e57600080fd5b505af1158015610342573d6000803e3d6000fd5b505050506040513d602081101561035857600080fd5b505160035550505050610b68806103706000396000f3fe6080604052600436106100f35760003560e01c8063e61d95941161008a578063f9a4bb1e11610059578063f9a4bb1e14610240578063f9cfe26b14610255578063fbbdc4651461026a578063fc0c546a1461027f576100f3565b8063e61d9594146101db578063ec8ac4d8146101f0578063ecd0c0c314610216578063f00a93d31461022b576100f3565b8063610757e4116100c6578063610757e4146101875780636ed08ea01461019c57806391039dee146101b1578063e27920a8146101c6576100f3565b80632c4e722e146101055780634042b66f1461012c57806341035a4114610141578063521eb27314610172575b6101036100fe610294565b610298565b005b34801561011157600080fd5b5061011a6103cf565b60408051918252519081900360200190f35b34801561013857600080fd5b5061011a6103d5565b34801561014d57600080fd5b506101566103db565b604080516001600160a01b039092168252519081900360200190f35b34801561017e57600080fd5b506101566103ea565b34801561019357600080fd5b506101566103f9565b3480156101a857600080fd5b5061011a610408565b3480156101bd57600080fd5b5061011a61040e565b3480156101d257600080fd5b5061011a610414565b3480156101e757600080fd5b5061011a61041a565b6101036004803603602081101561020657600080fd5b50356001600160a01b0316610298565b34801561022257600080fd5b50610156610420565b34801561023757600080fd5b5061011a610434565b34801561024c57600080fd5b5061015661043a565b34801561026157600080fd5b5061011a610449565b34801561027657600080fd5b5061011a61044f565b34801561028b57600080fd5b50610156610455565b3390565b60005460ff166102ef576040805162461bcd60e51b815260206004820152601f60248201527f5265656e7472616e637947756172643a207265656e7472616e742063616c6c00604482015290519081900360640190fd5b6000805460ff19168155349061030482610469565b90506103118383836104dc565b600954610324908363ffffffff6105cf16565b60095560055461033a908263ffffffff6105cf16565b6005556103478382610632565b826001600160a01b0316610359610294565b6001600160a01b03167f6faf93231a456e552dbc9961f58d9713ee4f2e69d15f1975b050ef0911053a7b8484604051808381526020018281526020019250505060405180910390a36103ab838361063c565b6103b3610640565b6103bd838361063c565b50506000805460ff1916600117905550565b60085490565b60095490565b6001546001600160a01b031681565b6006546001600160a01b031690565b6006546001600160a01b031681565b60025481565b60025490565b600a5481565b60055490565b60005461010090046001600160a01b031681565b60045490565b6007546001600160a01b031681565b60055481565b60035490565b60005461010090046001600160a01b031690565b60006008548210156104ac5760405162461bcd60e51b815260040180806020018281038252602c815260200180610b08602c913960400191505060405180910390fd5b6000670de0b6b3a7640000600854816104c157fe5b04670de0b6b3a76400008404816104d457fe5b049392505050565b6001600160a01b0383166105215760405162461bcd60e51b815260040180806020018281038252602a815260200180610ade602a913960400191505060405180910390fd5b81610573576040805162461bcd60e51b815260206004820152601960248201527f43726f776473616c653a20776569416d6f756e74206973203000000000000000604482015290519081900360640190fd5b600554600454670de0b6b3a764000090910290828201908111156105c85760405162461bcd60e51b815260040180806020018281038252602a815260200180610a93602a913960400191505060405180910390fd5b5050505050565b600082820183811015610629576040805162461bcd60e51b815260206004820152601b60248201527f536166654d6174683a206164646974696f6e206f766572666c6f770000000000604482015290519081900360640190fd5b90505b92915050565b61063c8282610743565b5050565b346064600061064f83836107ca565b90508083039250600160009054906101000a90046001600160a01b03166001600160a01b0316635a62f108846040518263ffffffff1660e01b81526004016000604051808303818588803b1580156106a657600080fd5b505af11580156106ba573d6000803e3d6000fd5b50506007546040516001600160a01b03909116935084156108fc0292508491506000818181858888f193505050501580156106f9573d6000803e3d6000fd5b50604080518481526020810183905282850381830181905291517f8f4705a6d8c5af200050d845b50d0f90f838a179c62b9365daa314992598fc1b9181900360600190a150505050565b60008054600254600354604080516319a742bf60e31b81526001600160a01b0388811660048301526024820188905260448201949094526064810192909252516101009093049091169263cd3a15f89260848084019382900301818387803b1580156107ae57600080fd5b505af11580156107c2573d6000803e3d6000fd5b505050505050565b6000806107d784846108b1565b905060006107e585856108f3565b905060006107f5600a54866108b1565b90506000610805600a54876108f3565b9050600061081c6108168685610935565b88610935565b9050600061082a8684610935565b905060006108388686610935565b905060006108468786610935565b905060006108558b60026108b1565b9050600061086383836105cf565b90506000610871828e6108b1565b9050600061087f88886105cf565b9050600061088d82886105cf565b9050600061089b82856105cf565b9e50505050505050505050505050505092915050565b600061062983836040518060400160405280601a81526020017f536166654d6174683a206469766973696f6e206279207a65726f00000000000081525061098e565b600061062983836040518060400160405280601881526020017f536166654d6174683a206d6f64756c6f206279207a65726f0000000000000000815250610a30565b6000826109445750600061062c565b8282028284828161095157fe5b04146106295760405162461bcd60e51b8152600401808060200182810382526021815260200180610abd6021913960400191505060405180910390fd5b60008183610a1a5760405162461bcd60e51b81526004018080602001828103825283818151815260200191508051906020019080838360005b838110156109df5781810151838201526020016109c7565b50505050905090810190601f168015610a0c5780820380516001836020036101000a031916815260200191505b509250505060405180910390fd5b506000838581610a2657fe5b0495945050505050565b60008183610a7f5760405162461bcd60e51b81526020600482018181528351602484015283519092839260449091019190850190808383600083156109df5781810151838201526020016109c7565b50828481610a8957fe5b0694935050505056fe746f6b656e7320616d6f756e742073686f756c64206e6f74206578636565642073616c655f6c696d6974536166654d6174683a206d756c7469706c69636174696f6e206f766572666c6f7743726f776473616c653a2062656e656669636961727920697320746865207a65726f206164647265737377656920616d6f756e742073686f756c6420626520626967676572206f7220657175616c206f662072617465a265627a7a7231582085deaef7fb5a45cae88b5cc30dac6efb4dd660af7d702f33d0259465d32a73e064736f6c63430005110032",
  "source": "pragma solidity ^0.5.11;\n\nimport '../../zeppeline/crowdsale/Crowdsale.sol';\nimport \"../../zeppeline/utils/ReentrancyGuard.sol\";\nimport \"../../zeppeline/math/SafeMath.sol\";\nimport \"../../zeppeline/GSN/Context.sol\";\nimport \"../../zeppeline/token/ERC721/IERC721Enumerable.sol\";\nimport \"../../zeppeline/drafts/Counters.sol\";\n\nimport './Ticket721.sol';\nimport './TokenSale721.sol';\n\ncontract PluggableSale is Context, ReentrancyGuard {\n\n\n    using SafeMath for uint256;\n    using SafeERC20 for IERC20;\n\n    // The token being sold\n    Ticket721 public _token;\n\n    // The original tokensale we want to plug in\n    TokenSale721 public origin_sale;\n\n\n    //event_id\n    uint256 public _event_id;\n\n    // ticket type\n    uint _ticket_type;\n    //\n    uint _sale_limit;\n    // how much have been already sold\n    uint public _sold_count = 0;\n\n    // Address where funds are collected\n    address payable public _wallet;\n\n    // Address where we collect comission\n    address payable public treasure_fund;\n\n    // How many token units a buyer gets per wei.\n    // The rate is the conversion between wei and the smallest and indivisible token unit.\n    // So, if you are using a rate of 1 with a ERC20Detailed token with 3 decimals called TOK\n    // 1 wei will give you 1 unit, or 0.001 TOK.\n    uint256 private _rate;\n\n    // Amount of wei raised\n    uint256 private _weiRaised;\n\n    // service comission fee\n    uint public percent_fee = 5;\n\n    /**\n     * Event for token purchase logging\n     * @param purchaser who paid for the tokens\n     * @param beneficiary who got the tokens\n     * @param value weis paid for purchase\n     * @param amount amount of tokens purchased\n     */\n    event TokensPurchased(address indexed purchaser, address indexed beneficiary, uint256 value, uint256 amount);\n\n    event CalculatedFees(uint256 initial_value, uint256 fees, uint256 transfered_amount);\n\n\n    /**\n     * @param rate Number of token units a buyer gets per wei\n     * @dev The rate is the conversion between wei and the smallest and indivisible\n     * token unit. So, if you are using a rate of 1 with a ERC20Detailed token\n     * with 3 decimals called TOK, 1 wei will give you 1 unit, or 0.001 TOK.\n     *\n     */\n    constructor (uint256 rate, address payable origin, uint sale_limit, address payable _treasure_fund) public {\n        require(rate > 0, \"Crowdsale: rate is 0\");\n       // require(wallet != address(0), \"Crowdsale: wallet is the zero address\");\n       // require(address(token) != address(0), \"Crowdsale: token is the zero address\");\n        require(origin != address(0), \"origin cannot be zero address\");\n        origin_sale = TokenSale721(origin);\n\n        _wallet = origin_sale.wallet();\n        treasure_fund = _treasure_fund;\n      //  require(_wallet == msg.sender, \"only origin organizer can plug new sale\");\n\n        _rate = rate;\n        _sale_limit = sale_limit * (1 ether);\n        _token = origin_sale.token();\n\n        _event_id = origin_sale.event_id();\n        _ticket_type = _token.plugSale(_event_id,_wallet);\n    }\n\n    /**\n     * @dev fallback function ***DO NOT OVERRIDE***\n     * Note that other contracts will transfer funds with a base gas stipend\n     * of 2300, which is not enough to call buyTokens. Consider calling\n     * buyTokens directly when purchasing tokens from a contract.\n     */\n    function() external payable {\n        buyTokens(_msgSender());\n    }\n\n    /**\n     * @return the token being sold.\n     */\n    function token() public view returns (Ticket721) {\n        return _token;\n    }\n\n    /**\n     * @return the address where funds are collected.\n     */\n    function wallet() public view returns (address payable) {\n        return _wallet;\n    }\n\n    /**\n     * @return the number of token units a buyer gets per wei.\n     */\n    function rate() public view returns (uint256) {\n        return _rate;\n    }\n\n    /**\n     * @return the amount of wei raised.\n     */\n    function weiRaised() public view returns (uint256) {\n        return _weiRaised;\n    }\n\n    function event_id() public view returns (uint256) {\n        return _event_id;\n    }\n\n    function sale_limit() public view returns (uint) {\n        return _sale_limit;\n    }\n\n    function ticket_type() public view returns (uint) {\n        return _ticket_type;\n    }\n\n    function sold_count() public view returns (uint) {\n        return _sold_count;\n    }\n\n    /**\n     * @dev low level token purchase ***DO NOT OVERRIDE***\n     * This function has a non-reentrancy guard, so it shouldn't be called by\n     * another `nonReentrant` function.\n     * @param beneficiary Recipient of the token purchase\n     */\n    function buyTokens(address beneficiary) public nonReentrant payable {\n        uint256 weiAmount = msg.value;\n       // _preValidatePurchase(beneficiary, weiAmount);\n\n        // calculate token amount to be created\n        uint256 tokens = _getTokenAmount(weiAmount);\n\n        // Validate purchase\n        _preValidatePurchase(beneficiary, weiAmount, tokens);\n\n        // update state\n        _weiRaised = _weiRaised.add(weiAmount);\n        _sold_count = _sold_count.add(tokens);\n\n        _processPurchase(beneficiary, tokens);\n        emit TokensPurchased(_msgSender(), beneficiary, weiAmount, tokens);\n\n        _updatePurchasingState(beneficiary, weiAmount);\n\n        _forwardFunds();\n        _postValidatePurchase(beneficiary, weiAmount);\n    }\n\n    /**\n     * @dev Validation of an incoming purchase. Use require statements to revert state when conditions are not met.\n     * Use `super` in contracts that inherit from Crowdsale to extend their validations.\n     * Example from CappedCrowdsale.sol's _preValidatePurchase method:\n     *     super._preValidatePurchase(beneficiary, weiAmount);\n     *     require(weiRaised().add(weiAmount) <= cap);\n     * @param beneficiary Address performing the token purchase\n     * @param weiAmount Value in wei involved in the purchase\n     */\n    function _preValidatePurchase(address beneficiary, uint256 weiAmount, uint256 tokens) internal view {\n        require(beneficiary != address(0), \"Crowdsale: beneficiary is the zero address\");\n        require(weiAmount != 0, \"Crowdsale: weiAmount is 0\");\n        uint sc = _sold_count * (1 ether);\n        uint limit = sc + tokens;\n        require(limit <= _sale_limit, \"tokens amount should not exceed sale_limit\");\n        this; // silence state mutability warning without generating bytecode - see https://github.com/ethereum/solidity/issues/2691\n    }\n\n    /**\n     * @dev Validation of an executed purchase. Observe state and use revert statements to undo rollback when valid\n     * conditions are not met.\n     * @param beneficiary Address performing the token purchase\n     * @param weiAmount Value in wei involved in the purchase\n     */\n    function _postValidatePurchase(address beneficiary, uint256 weiAmount) internal view {\n        // solhint-disable-previous-line no-empty-blocks\n    }\n\n    /**\n     * @dev Source of tokens. Override this method to modify the way in which the crowdsale ultimately gets and sends\n     * its tokens.\n     * @param beneficiary Address performing the token purchase\n     * @param tokenAmount Number of tokens to be emitted\n     */\n    function _deliverTokens(address beneficiary, uint256 tokenAmount) internal {\n        _token.buyTicket(beneficiary,tokenAmount, _event_id,_ticket_type);\n    }\n\n    /**\n     * @dev Executed when a purchase has been validated and is ready to be executed. Doesn't necessarily emit/send\n     * tokens.\n     * @param beneficiary Address receiving the tokens\n     * @param tokenAmount Number of tokens to be purchased\n     */\n    function _processPurchase(address beneficiary, uint256 tokenAmount) internal {\n        _deliverTokens(beneficiary, tokenAmount);\n    }\n\n    /**\n     * @dev Override for extensions that require an internal state to check for validity (current user contributions,\n     * etc.)\n     * @param beneficiary Address receiving the tokens\n     * @param weiAmount Value in wei involved in the purchase\n     */\n    function _updatePurchasingState(address beneficiary, uint256 weiAmount) internal {\n        // solhint-disable-previous-line no-empty-blocks\n    }\n\n    /**\n     * @dev Override to extend the way in which ether is converted to tokens.\n     * @param weiAmount Value in wei to be converted into tokens\n     * @return Number of tokens that can be purchased with the specified _weiAmount\n     */\n    function _getTokenAmount(uint256 weiAmount) internal view returns (uint256) {\n      //  return weiAmount.mul(_rate);\n        //FIXME: round result to int, check math\n        require(weiAmount >= _rate, \"wei amount should be bigger or equal of rate\");\n        uint256 ta = (weiAmount / (1 ether)) / (_rate / (1 ether));\n        return ta;\n    }\n\n    /**\n     * @dev Determines how ETH is stored/forwarded on purchases.\n     */\n    function _forwardFunds() internal {\n        uint256 amount = msg.value;\n        uint256 scale = 100;\n        uint256 fees = calculateFee(amount,scale);\n        amount = amount - fees;\n      //  _wallet.transfer(amount);\n       // origin_sale._lockFunds{value:amount}();\n        origin_sale._lockFunds.value(amount)();\n        treasure_fund.transfer(fees);\n        uint256 r = amount - fees;\n        emit CalculatedFees(amount,fees,r);\n    }\n\n    /*\n    *   Calculate fee (SafeMath)\n    */\n    function calculateFee(uint256 amount, uint256 scale) internal view returns (uint256) {\n        uint256 a = SafeMath.div(amount, scale);\n        uint256 b = SafeMath.mod(amount, scale);\n        uint256 c = SafeMath.div(percent_fee, scale);\n        uint256 d = SafeMath.mod(percent_fee, scale);\n\n        // Calculate fee with ROUND DOWN\n       // return a * c * scale + a * d + b * c + b * d / scale;\n\n       // calculate fee with ROUND UP\n     //   return a * c * scale + a * d + b * c + (b * d + scale - 1) / scale;\n\n     //calculate fee with CLOSESTS INTEGER\n       // return a * c * scale + a * d + b * c + (b * d + scale / 2) / scale;\n        uint256 m1 = SafeMath.mul(SafeMath.mul(a,c), scale);\n        uint256 m2 = SafeMath.mul(a,d);\n        uint256 m3 = SafeMath.mul(b,c);\n        uint m4 = SafeMath.mul(b,d);\n\n        uint256 d1 = SafeMath.div(scale,2);\n\n        uint256 a1 = SafeMath.add(m4,d1);\n        uint256 d2 = SafeMath.div(a1,scale);\n        uint256 a2 = SafeMath.add(m1,m2);\n        uint256 a3 = SafeMath.add(a2,m3);\n        uint256 a4 = SafeMath.add(a3,d2);\n        return a4;\n    }\n\n}",
  "sourcePath": "/home/jack/ethProjects/MS-Factory/contracts/721/singleton/PluggableSale.sol",
  "compiler": {
    "name": "solc",
    "version": "0.5.17+commit.d19bba13.Emscripten.clang"
  },
  "schemaVersion": "3.0.11",
  "updatedAt": "2020-07-16T13:42:12.916Z",
  "devdoc": {
    "methods": {
      "buyTokens(address)": {
        "details": "low level token purchase ***DO NOT OVERRIDE*** This function has a non-reentrancy guard, so it shouldn't be called by another `nonReentrant` function.",
        "params": {
          "beneficiary": "Recipient of the token purchase"
        }
      },
      "constructor": {
        "details": "The rate is the conversion between wei and the smallest and indivisible token unit. So, if you are using a rate of 1 with a ERC20Detailed token with 3 decimals called TOK, 1 wei will give you 1 unit, or 0.001 TOK.     ",
        "params": {
          "rate": "Number of token units a buyer gets per wei"
        }
      },
      "rate()": {
        "return": "the number of token units a buyer gets per wei."
      },
      "token()": {
        "return": "the token being sold."
      },
      "wallet()": {
        "return": "the address where funds are collected."
      },
      "weiRaised()": {
        "return": "the amount of wei raised."
      }
    }
  },
  "userdoc": {
    "methods": {}
  }
}