{
  "contractName": "TestCalls",
  "abi": [
    {
      "inputs": [],
      "payable": true,
      "stateMutability": "payable",
      "type": "constructor"
    },
    {
      "constant": true,
      "inputs": [],
      "name": "byteArray1",
      "outputs": [
        {
          "internalType": "bytes",
          "name": "",
          "type": "bytes"
        }
      ],
      "payable": false,
      "stateMutability": "view",
      "type": "function"
    },
    {
      "constant": true,
      "inputs": [],
      "name": "lastMsgDataLength",
      "outputs": [
        {
          "internalType": "uint256",
          "name": "",
          "type": "uint256"
        }
      ],
      "payable": false,
      "stateMutability": "view",
      "type": "function"
    },
    {
      "constant": true,
      "inputs": [],
      "name": "lastMsgValue",
      "outputs": [
        {
          "internalType": "uint256",
          "name": "",
          "type": "uint256"
        }
      ],
      "payable": false,
      "stateMutability": "view",
      "type": "function"
    },
    {
      "constant": true,
      "inputs": [],
      "name": "uint1",
      "outputs": [
        {
          "internalType": "uint256",
          "name": "",
          "type": "uint256"
        }
      ],
      "payable": false,
      "stateMutability": "view",
      "type": "function"
    },
    {
      "constant": true,
      "inputs": [],
      "name": "uint2",
      "outputs": [
        {
          "internalType": "uint256",
          "name": "",
          "type": "uint256"
        }
      ],
      "payable": false,
      "stateMutability": "view",
      "type": "function"
    },
    {
      "constant": false,
      "inputs": [
        {
          "internalType": "uint256",
          "name": "a",
          "type": "uint256"
        }
      ],
      "name": "receive1uint",
      "outputs": [],
      "payable": true,
      "stateMutability": "payable",
      "type": "function"
    },
    {
      "constant": false,
      "inputs": [
        {
          "internalType": "uint256",
          "name": "a",
          "type": "uint256"
        },
        {
          "internalType": "uint256",
          "name": "b",
          "type": "uint256"
        }
      ],
      "name": "receive2uints",
      "outputs": [],
      "payable": true,
      "stateMutability": "payable",
      "type": "function"
    },
    {
      "constant": false,
      "inputs": [
        {
          "internalType": "bytes",
          "name": "c",
          "type": "bytes"
        }
      ],
      "name": "receive1bytes",
      "outputs": [],
      "payable": true,
      "stateMutability": "payable",
      "type": "function"
    }
  ],
  "bytecode": "0x60806040526000369050600081905550346001819055506104d9806100256000396000f3fe60806040526004361061007b5760003560e01c8063a8d82ed21161004e578063a8d82ed214610191578063a8e996c6146101c9578063afd9ee1114610284578063eb61dc55146102af5761007b565b8063463d1fca146100805780635e6feab4146100ab57806371a9001c146100d657806388c7fb2814610101575b600080fd5b34801561008c57600080fd5b506100956102dd565b6040518082815260200191505060405180910390f35b3480156100b757600080fd5b506100c06102e3565b6040518082815260200191505060405180910390f35b3480156100e257600080fd5b506100eb6102e9565b6040518082815260200191505060405180910390f35b34801561010d57600080fd5b506101166102ef565b6040518080602001828103825283818151815260200191508051906020019080838360005b8381101561015657808201518184015260208101905061013b565b50505050905090810190601f1680156101835780820380516001836020036101000a031916815260200191505b509250505060405180910390f35b6101c7600480360360408110156101a757600080fd5b81019080803590602001909291908035906020019092919050505061038d565b005b610282600480360360208110156101df57600080fd5b81019080803590602001906401000000008111156101fc57600080fd5b82018360208201111561020e57600080fd5b8035906020019184600183028401116401000000008311171561023057600080fd5b91908080601f016020809104026020016040519081016040528093929190818152602001838380828437600081840152601f19601f8201169050808301925050505050505091929192905050506103b1565b005b34801561029057600080fd5b506102996103dd565b6040518082815260200191505060405180910390f35b6102db600480360360208110156102c557600080fd5b81019080803590602001909291905050506103e3565b005b60015481565b60025481565b60005481565b60048054600181600116156101000203166002900480601f0160208091040260200160405190810160405280929190818152602001828054600181600116156101000203166002900480156103855780601f1061035a57610100808354040283529160200191610385565b820191906000526020600020905b81548152906001019060200180831161036857829003601f168201915b505050505081565b60003690506000819055503460018190555081600281905550806003819055505050565b60003690506000819055503460018190555080600490805190602001906103d99291906103ff565b5050565b60035481565b6000369050600081905550346001819055508060028190555050565b828054600181600116156101000203166002900490600052602060002090601f016020900481019282601f1061044057805160ff191683800117855561046e565b8280016001018555821561046e579182015b8281111561046d578251825591602001919060010190610452565b5b50905061047b919061047f565b5090565b6104a191905b8082111561049d576000816000905550600101610485565b5090565b9056fea265627a7a723158208a283f48f14a21ffcccc4b98d3041e6a8153e2bad1dc9f23c06a760f8190650a64736f6c63430005100032",
  "source": "pragma solidity ^0.5.0;\n\n\n/// @title Contract for testing low-level calls issued from the multisig wallet\ncontract TestCalls {\n\n\t// msg.data.length of the latest call to \"receive\" methods\n\tuint public lastMsgDataLength;\n\n\t// msg.value of the latest call to \"receive\" methods\n\tuint public lastMsgValue;\n\n\tuint public uint1;\n\tuint public uint2;\n\tbytes public byteArray1;\n\n\tmodifier setMsgFields {\n\t\tlastMsgDataLength = msg.data.length;\n\t\tlastMsgValue = msg.value;\n\t\t_;\n\t}\n\n\tconstructor() setMsgFields public payable {\n\t\t// This constructor will be used to test the creation via multisig wallet\n\t}\n\n\tfunction receive1uint(uint a) public setMsgFields  payable  {\n\t\tuint1 = a;\n\t}\n\n\tfunction receive2uints(uint a, uint b) public setMsgFields payable  {\n\t\tuint1 = a;\n\t\tuint2 = b;\n\t}\n\n\tfunction receive1bytes(bytes memory c) public setMsgFields payable  {\n\t\tbyteArray1 = c;\n\t}\n\n\tfunction nonPayable() internal setMsgFields  {\n\t}\n\n}",
  "sourcePath": "/home/jack/ethProjects/MS-Factory/contracts/gnosis/TestCalls.sol",
  "compiler": {
    "name": "solc",
    "version": "0.5.16+commit.9c3226ce.Emscripten.clang"
  },
  "schemaVersion": "3.0.23",
  "updatedAt": "2020-02-11T18:39:52.020Z",
  "devdoc": {
    "methods": {},
    "title": "Contract for testing low-level calls issued from the multisig wallet"
  },
  "userdoc": {
    "methods": {}
  }
}