{
  "contractName": "TestCalls",
  "abi": [
    {
      "inputs": [],
      "payable": true,
      "stateMutability": "payable",
      "type": "constructor"
    },
    {
      "constant": true,
      "inputs": [],
      "name": "byteArray1",
      "outputs": [
        {
          "internalType": "bytes",
          "name": "",
          "type": "bytes"
        }
      ],
      "payable": false,
      "stateMutability": "view",
      "type": "function"
    },
    {
      "constant": true,
      "inputs": [],
      "name": "lastMsgDataLength",
      "outputs": [
        {
          "internalType": "uint256",
          "name": "",
          "type": "uint256"
        }
      ],
      "payable": false,
      "stateMutability": "view",
      "type": "function"
    },
    {
      "constant": true,
      "inputs": [],
      "name": "lastMsgValue",
      "outputs": [
        {
          "internalType": "uint256",
          "name": "",
          "type": "uint256"
        }
      ],
      "payable": false,
      "stateMutability": "view",
      "type": "function"
    },
    {
      "constant": true,
      "inputs": [],
      "name": "uint1",
      "outputs": [
        {
          "internalType": "uint256",
          "name": "",
          "type": "uint256"
        }
      ],
      "payable": false,
      "stateMutability": "view",
      "type": "function"
    },
    {
      "constant": true,
      "inputs": [],
      "name": "uint2",
      "outputs": [
        {
          "internalType": "uint256",
          "name": "",
          "type": "uint256"
        }
      ],
      "payable": false,
      "stateMutability": "view",
      "type": "function"
    },
    {
      "constant": false,
      "inputs": [
        {
          "internalType": "uint256",
          "name": "a",
          "type": "uint256"
        }
      ],
      "name": "receive1uint",
      "outputs": [],
      "payable": true,
      "stateMutability": "payable",
      "type": "function"
    },
    {
      "constant": false,
      "inputs": [
        {
          "internalType": "uint256",
          "name": "a",
          "type": "uint256"
        },
        {
          "internalType": "uint256",
          "name": "b",
          "type": "uint256"
        }
      ],
      "name": "receive2uints",
      "outputs": [],
      "payable": true,
      "stateMutability": "payable",
      "type": "function"
    },
    {
      "constant": false,
      "inputs": [
        {
          "internalType": "bytes",
          "name": "c",
          "type": "bytes"
        }
      ],
      "name": "receive1bytes",
      "outputs": [],
      "payable": true,
      "stateMutability": "payable",
      "type": "function"
    }
  ],
  "bytecode": "0x6080604052366000553460015561040d8061001b6000396000f3fe60806040526004361061007b5760003560e01c8063a8d82ed21161004e578063a8d82ed21461015b578063a8e996c614610180578063afd9ee1114610226578063eb61dc551461023b5761007b565b8063463d1fca146100805780635e6feab4146100a757806371a9001c146100bc57806388c7fb28146100d1575b600080fd5b34801561008c57600080fd5b50610095610258565b60408051918252519081900360200190f35b3480156100b357600080fd5b5061009561025e565b3480156100c857600080fd5b50610095610264565b3480156100dd57600080fd5b506100e661026a565b6040805160208082528351818301528351919283929083019185019080838360005b83811015610120578181015183820152602001610108565b50505050905090810190601f16801561014d5780820380516001836020036101000a031916815260200191505b509250505060405180910390f35b61017e6004803603604081101561017157600080fd5b50803590602001356102f8565b005b61017e6004803603602081101561019657600080fd5b8101906020810181356401000000008111156101b157600080fd5b8201836020820111156101c357600080fd5b803590602001918460018302840111640100000000831117156101e557600080fd5b91908080601f01602080910402602001604051908101604052809392919081815260200183838082843760009201919091525092955061030b945050505050565b34801561023257600080fd5b5061009561032a565b61017e6004803603602081101561025157600080fd5b5035610330565b60015481565b60025481565b60005481565b6004805460408051602060026001851615610100026000190190941693909304601f810184900484028201840190925281815292918301828280156102f05780601f106102c5576101008083540402835291602001916102f0565b820191906000526020600020905b8154815290600101906020018083116102d357829003601f168201915b505050505081565b3660005534600155600291909155600355565b3660005534600155805161032690600490602084019061033d565b5050565b60035481565b3660005534600155600255565b828054600181600116156101000203166002900490600052602060002090601f016020900481019282601f1061037e57805160ff19168380011785556103ab565b828001600101855582156103ab579182015b828111156103ab578251825591602001919060010190610390565b506103b79291506103bb565b5090565b6103d591905b808211156103b757600081556001016103c1565b9056fea265627a7a7231582026443ec6e9d4db9a40e9feaabdbdbf1bdce28879da38e014b4c96a11224ffdb064736f6c63430005110032",
  "source": "pragma solidity ^0.5.0;\n\n\n/// @title Contract for testing low-level calls issued from the multisig wallet\ncontract TestCalls {\n\n\t// msg.data.length of the latest call to \"receive\" methods\n\tuint public lastMsgDataLength;\n\n\t// msg.value of the latest call to \"receive\" methods\n\tuint public lastMsgValue;\n\n\tuint public uint1;\n\tuint public uint2;\n\tbytes public byteArray1;\n\n\tmodifier setMsgFields {\n\t\tlastMsgDataLength = msg.data.length;\n\t\tlastMsgValue = msg.value;\n\t\t_;\n\t}\n\n\tconstructor() setMsgFields public payable {\n\t\t// This constructor will be used to test the creation via multisig wallet\n\t}\n\n\tfunction receive1uint(uint a) public setMsgFields  payable  {\n\t\tuint1 = a;\n\t}\n\n\tfunction receive2uints(uint a, uint b) public setMsgFields payable  {\n\t\tuint1 = a;\n\t\tuint2 = b;\n\t}\n\n\tfunction receive1bytes(bytes memory c) public setMsgFields payable  {\n\t\tbyteArray1 = c;\n\t}\n\n\tfunction nonPayable() internal setMsgFields  {\n\t}\n\n}",
  "sourcePath": "/home/jack/ethProjects/MS-Factory/contracts/gnosis/TestCalls.sol",
  "compiler": {
    "name": "solc",
    "version": "0.5.17+commit.d19bba13.Emscripten.clang"
  },
  "schemaVersion": "3.0.11",
  "updatedAt": "2020-07-17T15:41:46.625Z",
  "devdoc": {
    "methods": {},
    "title": "Contract for testing low-level calls issued from the multisig wallet"
  },
  "userdoc": {
    "methods": {}
  }
}