{
  "contractName": "TestToken",
  "abi": [
    {
      "anonymous": false,
      "inputs": [
        {
          "indexed": true,
          "internalType": "address",
          "name": "owner",
          "type": "address"
        },
        {
          "indexed": true,
          "internalType": "address",
          "name": "spender",
          "type": "address"
        },
        {
          "indexed": false,
          "internalType": "uint256",
          "name": "value",
          "type": "uint256"
        }
      ],
      "name": "Approval",
      "type": "event"
    },
    {
      "anonymous": false,
      "inputs": [
        {
          "indexed": true,
          "internalType": "address",
          "name": "from",
          "type": "address"
        },
        {
          "indexed": true,
          "internalType": "address",
          "name": "to",
          "type": "address"
        },
        {
          "indexed": false,
          "internalType": "uint256",
          "name": "value",
          "type": "uint256"
        }
      ],
      "name": "Transfer",
      "type": "event"
    },
    {
      "constant": true,
      "inputs": [],
      "name": "decimals",
      "outputs": [
        {
          "internalType": "uint8",
          "name": "",
          "type": "uint8"
        }
      ],
      "payable": false,
      "stateMutability": "view",
      "type": "function"
    },
    {
      "constant": true,
      "inputs": [],
      "name": "name",
      "outputs": [
        {
          "internalType": "string",
          "name": "",
          "type": "string"
        }
      ],
      "payable": false,
      "stateMutability": "view",
      "type": "function"
    },
    {
      "constant": true,
      "inputs": [],
      "name": "symbol",
      "outputs": [
        {
          "internalType": "string",
          "name": "",
          "type": "string"
        }
      ],
      "payable": false,
      "stateMutability": "view",
      "type": "function"
    },
    {
      "constant": true,
      "inputs": [],
      "name": "totalSupply",
      "outputs": [
        {
          "internalType": "uint256",
          "name": "",
          "type": "uint256"
        }
      ],
      "payable": false,
      "stateMutability": "view",
      "type": "function"
    },
    {
      "constant": false,
      "inputs": [
        {
          "internalType": "address",
          "name": "_to",
          "type": "address"
        },
        {
          "internalType": "uint256",
          "name": "_value",
          "type": "uint256"
        }
      ],
      "name": "issueTokens",
      "outputs": [],
      "payable": false,
      "stateMutability": "nonpayable",
      "type": "function"
    },
    {
      "constant": false,
      "inputs": [
        {
          "internalType": "address",
          "name": "_to",
          "type": "address"
        },
        {
          "internalType": "uint256",
          "name": "_value",
          "type": "uint256"
        }
      ],
      "name": "transfer",
      "outputs": [
        {
          "internalType": "bool",
          "name": "success",
          "type": "bool"
        }
      ],
      "payable": false,
      "stateMutability": "nonpayable",
      "type": "function"
    },
    {
      "constant": false,
      "inputs": [
        {
          "internalType": "address",
          "name": "_from",
          "type": "address"
        },
        {
          "internalType": "address",
          "name": "_to",
          "type": "address"
        },
        {
          "internalType": "uint256",
          "name": "_value",
          "type": "uint256"
        }
      ],
      "name": "transferFrom",
      "outputs": [
        {
          "internalType": "bool",
          "name": "success",
          "type": "bool"
        }
      ],
      "payable": false,
      "stateMutability": "nonpayable",
      "type": "function"
    },
    {
      "constant": false,
      "inputs": [
        {
          "internalType": "address",
          "name": "_spender",
          "type": "address"
        },
        {
          "internalType": "uint256",
          "name": "_value",
          "type": "uint256"
        }
      ],
      "name": "approve",
      "outputs": [
        {
          "internalType": "bool",
          "name": "success",
          "type": "bool"
        }
      ],
      "payable": false,
      "stateMutability": "nonpayable",
      "type": "function"
    },
    {
      "constant": true,
      "inputs": [
        {
          "internalType": "address",
          "name": "_owner",
          "type": "address"
        },
        {
          "internalType": "address",
          "name": "_spender",
          "type": "address"
        }
      ],
      "name": "allowance",
      "outputs": [
        {
          "internalType": "uint256",
          "name": "remaining",
          "type": "uint256"
        }
      ],
      "payable": false,
      "stateMutability": "view",
      "type": "function"
    },
    {
      "constant": true,
      "inputs": [
        {
          "internalType": "address",
          "name": "_owner",
          "type": "address"
        }
      ],
      "name": "balanceOf",
      "outputs": [
        {
          "internalType": "uint256",
          "name": "balance",
          "type": "uint256"
        }
      ],
      "payable": false,
      "stateMutability": "view",
      "type": "function"
    }
  ],
  "bytecode": "0x608060405234801561001057600080fd5b50610622806100206000396000f3fe608060405234801561001057600080fd5b506004361061009e5760003560e01c8063475a9fa911610066578063475a9fa9146101ce57806370a08231146101fc57806395d89b4114610222578063a9059cbb1461022a578063dd62ed3e146102565761009e565b806306fdde03146100a3578063095ea7b31461012057806318160ddd1461016057806323b872dd1461017a578063313ce567146101b0575b600080fd5b6100ab610284565b6040805160208082528351818301528351919283929083019185019080838360005b838110156100e55781810151838201526020016100cd565b50505050905090810190601f1680156101125780820380516001836020036101000a031916815260200191505b509250505060405180910390f35b61014c6004803603604081101561013657600080fd5b506001600160a01b0381351690602001356102aa565b604080519115158252519081900360200190f35b610168610310565b60408051918252519081900360200190f35b61014c6004803603606081101561019057600080fd5b506001600160a01b03813581169160208101359091169060400135610316565b6101b8610422565b6040805160ff9092168252519081900360200190f35b6101fa600480360360408110156101e457600080fd5b506001600160a01b038135169060200135610427565b005b6101686004803603602081101561021257600080fd5b50356001600160a01b0316610451565b6100ab61046c565b61014c6004803603604081101561024057600080fd5b506001600160a01b03813516906020013561048a565b6101686004803603604081101561026c57600080fd5b506001600160a01b038135811691602001351661059f565b6040518060400160405280600a8152602001692a32b9ba102a37b5b2b760b11b81525081565b3360008181526001602090815260408083206001600160a01b038716808552908352818420869055815186815291519394909390927f8c5be1e5ebec7d5bd14f71427d1e84f3dd0314c0f7b2291e5b200ac8c7c3b925928290030190a350600192915050565b60025481565b6001600160a01b038316600090815260208190526040812054821180159061036157506001600160a01b03841660009081526001602090815260408083203384529091529020548211155b61039c5760405162461bcd60e51b81526004018080602001828103825260238152602001806105cb6023913960400191505060405180910390fd5b6001600160a01b0380841660008181526020818152604080832080548801905593881680835284832080548890039055600182528483203384528252918490208054879003905583518681529351929391927fddf252ad1be2c89b69c2b068fc378daa952ba7f163c4a11628f55a4df523b3ef9281900390910190a35060019392505050565b600181565b6001600160a01b039091166000908152602081905260409020805482019055600280549091019055565b6001600160a01b031660009081526020819052604090205490565b60405180604001604052806002815260200161151560f21b81525081565b60006040366044146104db576040805162461bcd60e51b81526020600482015260156024820152746572726f7220696e207061796c6f61642073697a6560581b604482015290519081900360640190fd5b33600090815260208190526040902054831115610532576040805162461bcd60e51b815260206004820152601060248201526f6e6f7420656e6f7567682066756e647360801b604482015290519081900360640190fd5b33600081815260208181526040808320805488900390556001600160a01b03881680845292819020805488019055805187815290519293927fddf252ad1be2c89b69c2b068fc378daa952ba7f163c4a11628f55a4df523b3ef929181900390910190a35060019392505050565b6001600160a01b0391821660009081526001602090815260408083209390941682529190915220549056fe696e73756666696369656e742066756e6473206f7220616c6c6f7765642076616c7565a265627a7a723158207edc823c465e161ab37e1ae5861c3446423ab8750c7a997ee66416453c27286964736f6c63430005110032",
  "source": "pragma solidity ^0.5.0;\n\n\n/// @title Test token contract - Allows testing of token transfers with multisig wallet.\ncontract TestToken {\n\n    /*\n     *  Events\n     */\n    event Transfer(address indexed from, address indexed to, uint256 value);\n    event Approval(address indexed owner, address indexed spender, uint256 value);\n\n    /*\n     *  Constants\n     */\n    string constant public name = \"Test Token\";\n    string constant public symbol = \"TT\";\n    uint8 constant public decimals = 1;\n\n    /*\n     *  Storage\n     */\n    mapping (address => uint256) balances;\n    mapping (address => mapping (address => uint256)) allowed;\n    uint256 public totalSupply;\n\n    /*\n     * Public functions\n     */\n    /// @dev Issues new tokens.\n    /// @param _to Address of token receiver.\n    /// @param _value Number of tokens to issue.\n    function issueTokens(address _to, uint256 _value)\n        public\n    {\n        balances[_to] += _value;\n        totalSupply += _value;\n    }\n\n    /*\n     * This modifier is present in some real world token contracts, and due to a solidity\n     * bug it was not compatible with multisig wallets\n     */\n    modifier onlyPayloadSize(uint size) {\n        require(msg.data.length == size + 4,\"error in payload size\");\n        _;\n    }\n\n    /// @dev Transfers sender's tokens to a given address. Returns success.\n    /// @param _to Address of token receiver.\n    /// @param _value Number of tokens to transfer.\n    /// @return Returns success of function call.\n    function transfer(address _to, uint256 _value) public onlyPayloadSize(2 * 32)\n        returns (bool success)\n    {\n        require(balances[msg.sender] >= _value,\"not enough funds\");\n        balances[msg.sender] -= _value;\n        balances[_to] += _value;\n        emit Transfer(msg.sender, _to, _value);\n        return true;\n    }\n\n    /// @dev Allows allowed third party to transfer tokens from one address to another. Returns success.\n    /// @param _from Address from where tokens are withdrawn.\n    /// @param _to Address to where tokens are sent.\n    /// @param _value Number of tokens to transfer.\n    /// @return Returns success of function call.\n    function transferFrom(address _from, address _to, uint256 _value)\n        public\n        returns (bool success)\n    {\n        require(balances[_from] >= _value && allowed[_from][msg.sender] >= _value, \"insufficient funds or allowed value\");\n        balances[_to] += _value;\n        balances[_from] -= _value;\n        allowed[_from][msg.sender] -= _value;\n        emit Transfer(_from, _to, _value);\n        return true;\n    }\n\n    /// @dev Sets approved amount of tokens for spender. Returns success.\n    /// @param _spender Address of allowed account.\n    /// @param _value Number of approved tokens.\n    /// @return Returns success of function call.\n    function approve(address _spender, uint256 _value)\n        public\n        returns (bool success)\n    {\n        allowed[msg.sender][_spender] = _value;\n        emit Approval(msg.sender, _spender, _value);\n        return true;\n    }\n\n    /// @dev Returns number of allowed tokens for given address.\n    /// @param _owner Address of token owner.\n    /// @param _spender Address of token spender.\n    /// @return Returns remaining allowance for spender.\n    function allowance(address _owner, address _spender)\n        public\n        view\n        returns (uint256 remaining)\n    {\n        return allowed[_owner][_spender];\n    }\n\n    /// @dev Returns number of tokens owned by given address.\n    /// @param _owner Address of token owner.\n    /// @return Returns balance of owner.\n    function balanceOf(address _owner)\n        public\n        view\n        returns (uint256 balance)\n    {\n        return balances[_owner];\n    }\n}\n",
  "sourcePath": "/home/jack/ethProjects/MS-Factory/contracts/gnosis/TestToken.sol",
  "compiler": {
    "name": "solc",
    "version": "0.5.17+commit.d19bba13.Emscripten.clang"
  },
  "schemaVersion": "3.0.11",
  "updatedAt": "2020-05-16T17:02:18.357Z",
  "devdoc": {
    "methods": {
      "allowance(address,address)": {
        "details": "Returns number of allowed tokens for given address.",
        "params": {
          "_owner": "Address of token owner.",
          "_spender": "Address of token spender."
        },
        "return": "Returns remaining allowance for spender."
      },
      "approve(address,uint256)": {
        "details": "Sets approved amount of tokens for spender. Returns success.",
        "params": {
          "_spender": "Address of allowed account.",
          "_value": "Number of approved tokens."
        },
        "return": "Returns success of function call."
      },
      "balanceOf(address)": {
        "details": "Returns number of tokens owned by given address.",
        "params": {
          "_owner": "Address of token owner."
        },
        "return": "Returns balance of owner."
      },
      "issueTokens(address,uint256)": {
        "details": "Issues new tokens.",
        "params": {
          "_to": "Address of token receiver.",
          "_value": "Number of tokens to issue."
        }
      },
      "transfer(address,uint256)": {
        "details": "Transfers sender's tokens to a given address. Returns success.",
        "params": {
          "_to": "Address of token receiver.",
          "_value": "Number of tokens to transfer."
        },
        "return": "Returns success of function call."
      },
      "transferFrom(address,address,uint256)": {
        "details": "Allows allowed third party to transfer tokens from one address to another. Returns success.",
        "params": {
          "_from": "Address from where tokens are withdrawn.",
          "_to": "Address to where tokens are sent.",
          "_value": "Number of tokens to transfer."
        },
        "return": "Returns success of function call."
      }
    },
    "title": "Test token contract - Allows testing of token transfers with multisig wallet."
  },
  "userdoc": {
    "methods": {}
  }
}