{
  "contractName": "TicketSale721",
  "abi": [
    {
      "inputs": [
        {
          "internalType": "uint256",
          "name": "rate",
          "type": "uint256"
        },
        {
          "internalType": "address payable",
          "name": "wallet",
          "type": "address"
        },
        {
          "internalType": "contract Ticket721",
          "name": "token",
          "type": "address"
        },
        {
          "internalType": "uint256",
          "name": "sale_limit",
          "type": "uint256"
        },
        {
          "internalType": "string",
          "name": "jid",
          "type": "string"
        },
        {
          "internalType": "address payable",
          "name": "_treasure_fund",
          "type": "address"
        },
        {
          "internalType": "uint256",
          "name": "timeToStart",
          "type": "uint256"
        }
      ],
      "payable": false,
      "stateMutability": "nonpayable",
      "type": "constructor"
    },
    {
      "anonymous": false,
      "inputs": [
        {
          "indexed": false,
          "internalType": "uint256",
          "name": "initial_value",
          "type": "uint256"
        },
        {
          "indexed": false,
          "internalType": "uint256",
          "name": "fees",
          "type": "uint256"
        },
        {
          "indexed": false,
          "internalType": "uint256",
          "name": "transfered_amount",
          "type": "uint256"
        }
      ],
      "name": "CalculatedFees",
      "type": "event"
    },
    {
      "anonymous": false,
      "inputs": [
        {
          "indexed": true,
          "internalType": "address",
          "name": "purchaser",
          "type": "address"
        },
        {
          "indexed": true,
          "internalType": "address",
          "name": "beneficiary",
          "type": "address"
        },
        {
          "indexed": false,
          "internalType": "uint256",
          "name": "value",
          "type": "uint256"
        },
        {
          "indexed": false,
          "internalType": "uint256",
          "name": "amount",
          "type": "uint256"
        }
      ],
      "name": "TokensPurchased",
      "type": "event"
    },
    {
      "payable": true,
      "stateMutability": "payable",
      "type": "fallback"
    },
    {
      "constant": true,
      "inputs": [],
      "name": "_event_id",
      "outputs": [
        {
          "internalType": "uint256",
          "name": "",
          "type": "uint256"
        }
      ],
      "payable": false,
      "stateMutability": "view",
      "type": "function"
    },
    {
      "constant": false,
      "inputs": [],
      "name": "_lockFunds",
      "outputs": [],
      "payable": true,
      "stateMutability": "payable",
      "type": "function"
    },
    {
      "constant": true,
      "inputs": [],
      "name": "_sold_count",
      "outputs": [
        {
          "internalType": "uint256",
          "name": "",
          "type": "uint256"
        }
      ],
      "payable": false,
      "stateMutability": "view",
      "type": "function"
    },
    {
      "constant": true,
      "inputs": [],
      "name": "_ticket_type",
      "outputs": [
        {
          "internalType": "uint256",
          "name": "",
          "type": "uint256"
        }
      ],
      "payable": false,
      "stateMutability": "view",
      "type": "function"
    },
    {
      "constant": true,
      "inputs": [],
      "name": "_token",
      "outputs": [
        {
          "internalType": "contract Ticket721",
          "name": "",
          "type": "address"
        }
      ],
      "payable": false,
      "stateMutability": "view",
      "type": "function"
    },
    {
      "constant": true,
      "inputs": [],
      "name": "_wallet",
      "outputs": [
        {
          "internalType": "address payable",
          "name": "",
          "type": "address"
        }
      ],
      "payable": false,
      "stateMutability": "view",
      "type": "function"
    },
    {
      "constant": false,
      "inputs": [
        {
          "internalType": "address",
          "name": "beneficiary",
          "type": "address"
        }
      ],
      "name": "buyTokens",
      "outputs": [],
      "payable": true,
      "stateMutability": "payable",
      "type": "function"
    },
    {
      "constant": true,
      "inputs": [],
      "name": "crDate",
      "outputs": [
        {
          "internalType": "uint256",
          "name": "",
          "type": "uint256"
        }
      ],
      "payable": false,
      "stateMutability": "view",
      "type": "function"
    },
    {
      "constant": true,
      "inputs": [],
      "name": "event_id",
      "outputs": [
        {
          "internalType": "uint256",
          "name": "",
          "type": "uint256"
        }
      ],
      "payable": false,
      "stateMutability": "view",
      "type": "function"
    },
    {
      "constant": true,
      "inputs": [],
      "name": "lockedFunds",
      "outputs": [
        {
          "internalType": "uint256",
          "name": "",
          "type": "uint256"
        }
      ],
      "payable": false,
      "stateMutability": "view",
      "type": "function"
    },
    {
      "constant": true,
      "inputs": [],
      "name": "percent_fee",
      "outputs": [
        {
          "internalType": "uint256",
          "name": "",
          "type": "uint256"
        }
      ],
      "payable": false,
      "stateMutability": "view",
      "type": "function"
    },
    {
      "constant": true,
      "inputs": [],
      "name": "rate",
      "outputs": [
        {
          "internalType": "uint256",
          "name": "",
          "type": "uint256"
        }
      ],
      "payable": false,
      "stateMutability": "view",
      "type": "function"
    },
    {
      "constant": true,
      "inputs": [],
      "name": "sale_limit",
      "outputs": [
        {
          "internalType": "uint256",
          "name": "",
          "type": "uint256"
        }
      ],
      "payable": false,
      "stateMutability": "view",
      "type": "function"
    },
    {
      "constant": true,
      "inputs": [],
      "name": "sold_count",
      "outputs": [
        {
          "internalType": "uint256",
          "name": "",
          "type": "uint256"
        }
      ],
      "payable": false,
      "stateMutability": "view",
      "type": "function"
    },
    {
      "constant": true,
      "inputs": [],
      "name": "ticket_type",
      "outputs": [
        {
          "internalType": "uint256",
          "name": "",
          "type": "uint256"
        }
      ],
      "payable": false,
      "stateMutability": "view",
      "type": "function"
    },
    {
      "constant": true,
      "inputs": [],
      "name": "token",
      "outputs": [
        {
          "internalType": "contract Ticket721",
          "name": "",
          "type": "address"
        }
      ],
      "payable": false,
      "stateMutability": "view",
      "type": "function"
    },
    {
      "constant": true,
      "inputs": [],
      "name": "treasure_fund",
      "outputs": [
        {
          "internalType": "address payable",
          "name": "",
          "type": "address"
        }
      ],
      "payable": false,
      "stateMutability": "view",
      "type": "function"
    },
    {
      "constant": true,
      "inputs": [],
      "name": "wallet",
      "outputs": [
        {
          "internalType": "address payable",
          "name": "",
          "type": "address"
        }
      ],
      "payable": false,
      "stateMutability": "view",
      "type": "function"
    },
    {
      "constant": true,
      "inputs": [],
      "name": "weiRaised",
      "outputs": [
        {
          "internalType": "uint256",
          "name": "",
          "type": "uint256"
        }
      ],
      "payable": false,
      "stateMutability": "view",
      "type": "function"
    },
    {
      "constant": false,
      "inputs": [],
      "name": "withDrawFunds",
      "outputs": [],
      "payable": false,
      "stateMutability": "nonpayable",
      "type": "function"
    },
    {
      "constant": false,
      "inputs": [
        {
          "internalType": "address",
          "name": "buyer",
          "type": "address"
        }
      ],
      "name": "buyTicket",
      "outputs": [],
      "payable": true,
      "stateMutability": "payable",
      "type": "function"
    },
    {
      "constant": false,
      "inputs": [
        {
          "internalType": "address",
          "name": "visitor",
          "type": "address"
        },
        {
          "internalType": "uint256",
          "name": "token_id",
          "type": "uint256"
        }
      ],
      "name": "redeemTicket",
      "outputs": [],
      "payable": false,
      "stateMutability": "nonpayable",
      "type": "function"
    },
    {
      "constant": true,
      "inputs": [],
      "name": "getScannedTicketsCount",
      "outputs": [
        {
          "internalType": "uint256",
          "name": "",
          "type": "uint256"
        }
      ],
      "payable": false,
      "stateMutability": "view",
      "type": "function"
    }
  ],
  "bytecode": "0x608060405260016002556000600455600560095542600a553480156200002457600080fd5b50604051620011c2380380620011c2833981810160405260e08110156200004a57600080fd5b81516020830151604080850151606086015160808701805193519597949692959194919392820192846401000000008211156200008657600080fd5b9083019060208201858111156200009c57600080fd5b8251640100000000811182820188101715620000b757600080fd5b82525081516020918201929091019080838360005b83811015620000e6578181015183820152602001620000cc565b50505050905090810190601f168015620001145780820380516001836020036101000a031916815260200191505b50604090815260208201519101516000805460ff19166001179055909250905086868686868686866200018e576040805162461bcd60e51b815260206004820152601460248201527f43726f776473616c653a20726174652069732030000000000000000000000000604482015290519081900360640190fd5b6001600160a01b038616620001d55760405162461bcd60e51b81526004018080602001828103825260258152602001806200119d6025913960400191505060405180910390fd5b6001600160a01b0385166200021c5760405162461bcd60e51b8152600401808060200182810382526024815260200180620011796024913960400191505060405180910390fd5b6007879055600580546001600160a01b03199081166001600160a01b038981169190911792839055600680549092168582161790915560008054610100600160a81b031916610100898416810291909117808355670de0b6b3a7640000890260035560408051631440364760e31b815295851660048701818152602488019283528a5160448901528a51949093049095169563a201b23895948a9460649092019160208601918190849084905b83811015620002e3578181015183820152602001620002c9565b50505050905090810190601f168015620003115780820380516001836020036101000a031916815260200191505b509350505050602060405180830381600087803b1580156200033257600080fd5b505af115801562000347573d6000803e3d6000fd5b505050506040513d60208110156200035e57600080fd5b5051600155600b5550505050505050505050505050610df680620003836000396000f3fe6080604052600436106101405760003560e01c8063a8253cac116100b6578063ecd0c0c31161006f578063ecd0c0c31461031e578063f00a93d314610333578063f9a4bb1e14610348578063f9cfe26b1461035d578063fbbdc46514610372578063fc0c546a1461038757610140565b8063a8253cac1461028f578063b78da386146102a4578063b8afaa48146102b9578063e27920a8146102ce578063e61d9594146102e3578063ec8ac4d8146102f857610140565b80635a62f108116101085780635a62f108146101e9578063610757e4146101f15780636c1e81e3146102065780636ed08ea01461023f57806391039dee14610254578063a5f8cdbb1461026957610140565b806323e6f340146101525780632c4e722e146101795780634042b66f1461018e5780634f13dc7e146101a3578063521eb273146101b8575b61015061014b61039c565b6103a0565b005b34801561015e57600080fd5b506101676103ac565b60408051918252519081900360200190f35b34801561018557600080fd5b506101676103b2565b34801561019a57600080fd5b506101676103b8565b3480156101af57600080fd5b506101676103be565b3480156101c457600080fd5b506101cd6103c4565b604080516001600160a01b039092168252519081900360200190f35b6101506103d3565b3480156101fd57600080fd5b506101cd610475565b34801561021257600080fd5b506101506004803603604081101561022957600080fd5b506001600160a01b038135169060200135610484565b34801561024b57600080fd5b5061016761052c565b34801561026057600080fd5b50610167610532565b6101506004803603602081101561027f57600080fd5b50356001600160a01b03166103a0565b34801561029b57600080fd5b50610167610538565b3480156102b057600080fd5b5061015061054b565b3480156102c557600080fd5b50610167610632565b3480156102da57600080fd5b50610167610638565b3480156102ef57600080fd5b5061016761063e565b6101506004803603602081101561030e57600080fd5b50356001600160a01b0316610644565b34801561032a57600080fd5b506101cd61077b565b34801561033f57600080fd5b5061016761078f565b34801561035457600080fd5b506101cd610795565b34801561036957600080fd5b506101676107a4565b34801561037e57600080fd5b506101676107aa565b34801561039357600080fd5b506101cd6107b0565b3390565b6103a981610644565b50565b60025481565b60075490565b60085490565b600a5481565b6005546001600160a01b031690565b34606460006103e283836107c4565b60065460405194829003949192506001600160a01b03169082156108fc029083906000818181858888f19350505050158015610422573d6000803e3d6000fd5b50604080518481526020810183905282850381830181905291517f8f4705a6d8c5af200050d845b50d0f90f838a179c62b9365daa314992598fc1b9181900360600190a15050600c805490920190915550565b6005546001600160a01b031681565b600061048e6107b0565b9050600061049a610532565b9050816001600160a01b031663a27c282e8585846040518463ffffffff1660e01b815260040180846001600160a01b03166001600160a01b031681526020018381526020018281526020019350505050600060405180830381600087803b15801561050457600080fd5b505af1158015610518573d6000803e3d6000fd5b50505050610526600d6108ac565b50505050565b60015481565b60015490565b600080610545600d6108b5565b91505090565b6005546001600160a01b031633146105aa576040805162461bcd60e51b815260206004820152601960248201527f6f6e6c79206f7267616e61697a65722063616e20646f20697400000000000000604482015290519081900360640190fd5b600b54600a540342106105f957600554600c546040516001600160a01b039092169181156108fc0291906000818181858888f193505050501580156105f3573d6000803e3d6000fd5b50610630565b60405162461bcd60e51b815260040180806020018281038252602a815260200180610cf7602a913960400191505060405180910390fd5b565b600c5481565b60095481565b60045490565b60005460ff1661069b576040805162461bcd60e51b815260206004820152601f60248201527f5265656e7472616e637947756172643a207265656e7472616e742063616c6c00604482015290519081900360640190fd5b6000805460ff1916815534906106b0826108b9565b90506106bd83838361092c565b6008546106d0908363ffffffff610a1f16565b6008556004546106e6908263ffffffff610a1f16565b6004556106f38382610a80565b826001600160a01b031661070561039c565b6001600160a01b03167f6faf93231a456e552dbc9961f58d9713ee4f2e69d15f1975b050ef0911053a7b8484604051808381526020018281526020019250505060405180910390a36107578383610a8a565b61075f6103d3565b6107698383610a8a565b50506000805460ff1916600117905550565b60005461010090046001600160a01b031681565b60035490565b6006546001600160a01b031681565b60045481565b60025490565b60005461010090046001600160a01b031690565b6000806107d18484610a8e565b905060006107df8585610ad0565b905060006107ef60095486610a8e565b905060006107ff60095487610ad0565b905060006108166108108685610b12565b88610b12565b905060006108248684610b12565b905060006108328686610b12565b905060006108408786610b12565b9050600061084f8b6002610a8e565b9050600061085d8383610a1f565b9050600061086b828e610a8e565b905060006108798888610a1f565b905060006108878288610a1f565b905060006108958285610a1f565b9e5050505050505050505050505050505b92915050565b80546001019055565b5490565b60006007548210156108fc5760405162461bcd60e51b815260040180806020018281038252602c815260200180610d96602c913960400191505060405180910390fd5b6000670de0b6b3a76400006007548161091157fe5b04670de0b6b3a764000084048161092457fe5b049392505050565b6001600160a01b0383166109715760405162461bcd60e51b815260040180806020018281038252602a815260200180610d6c602a913960400191505060405180910390fd5b816109c3576040805162461bcd60e51b815260206004820152601960248201527f43726f776473616c653a20776569416d6f756e74206973203000000000000000604482015290519081900360640190fd5b600454600354670de0b6b3a76400009091029082820190811115610a185760405162461bcd60e51b815260040180806020018281038252602a815260200180610d21602a913960400191505060405180910390fd5b5050505050565b600082820183811015610a79576040805162461bcd60e51b815260206004820152601b60248201527f536166654d6174683a206164646974696f6e206f766572666c6f770000000000604482015290519081900360640190fd5b9392505050565b610a8a8282610b6b565b5050565b6000610a7983836040518060400160405280601a81526020017f536166654d6174683a206469766973696f6e206279207a65726f000000000000815250610bf2565b6000610a7983836040518060400160405280601881526020017f536166654d6174683a206d6f64756c6f206279207a65726f0000000000000000815250610c94565b600082610b21575060006108a6565b82820282848281610b2e57fe5b0414610a795760405162461bcd60e51b8152600401808060200182810382526021815260200180610d4b6021913960400191505060405180910390fd5b60008054600154600254604080516319a742bf60e31b81526001600160a01b0388811660048301526024820188905260448201949094526064810192909252516101009093049091169263cd3a15f89260848084019382900301818387803b158015610bd657600080fd5b505af1158015610bea573d6000803e3d6000fd5b505050505050565b60008183610c7e5760405162461bcd60e51b81526004018080602001828103825283818151815260200191508051906020019080838360005b83811015610c43578181015183820152602001610c2b565b50505050905090810190601f168015610c705780820380516001836020036101000a031916815260200191505b509250505060405180910390fd5b506000838581610c8a57fe5b0495945050505050565b60008183610ce35760405162461bcd60e51b8152602060048201818152835160248401528351909283926044909101919085019080838360008315610c43578181015183820152602001610c2b565b50828481610ced57fe5b0694935050505056fe6576656e74206973206e6f742073746172746564207965742c2066756e647320617265206c6f636b6564746f6b656e7320616d6f756e742073686f756c64206e6f74206578636565642073616c655f6c696d6974536166654d6174683a206d756c7469706c69636174696f6e206f766572666c6f7743726f776473616c653a2062656e656669636961727920697320746865207a65726f206164647265737377656920616d6f756e742073686f756c6420626520626967676572206f7220657175616c206f662072617465a265627a7a72315820e46a661963363063ec781afa2aaff6ec81da095bb172f3f3b44f4ea2d462c8eb64736f6c6343000511003243726f776473616c653a20746f6b656e20697320746865207a65726f206164647265737343726f776473616c653a2077616c6c657420697320746865207a65726f2061646472657373",
  "source": "pragma solidity ^0.5.11;\n\nimport './TokenSale721.sol';\nimport './Ticket721.sol';\n\ncontract TicketSale721 is TokenSale721 {\n\nusing Counters for Counters.Counter;\n\nCounters.Counter scanned_tickets;\n\nconstructor(uint256 rate, address payable wallet, Ticket721 token, uint sale_limit, string memory jid, address payable _treasure_fund, uint timeToStart) TokenSale721(rate,wallet,token, sale_limit, jid, _treasure_fund, timeToStart) public {}\n\n\n/**\n*\n*@dev overload buy token function to give allowance to reedem tickets\n*\n*\n*/\nfunction buyTicket(address buyer) public payable {\n    super.buyTokens(buyer);\n    //Ticket721 ticket_token = super.token();\n   // super._token.approve(_wallet,tokens);\n\n    // chek this one more time\n    //ticket_token.setApprovalForEvent(buyer,);\n\n}\n\n// fallback\nfunction() external payable {\n        buyTicket(_msgSender());\n    }\n\n// deprecated\n/*\nfunction redeemTicket(address visitor, uint256 token_id) public {\n    Ticket721 ticket_token = super.token();\n    uint256 event_id = super.event_id();\n    ticket_token.redeemTicket(visitor, token_id, event_id);\n}\n*/\n\nfunction redeemTicket(address visitor, uint256 token_id) public {\n    Ticket721 ticket_token = super.token();\n    uint256 event_id = super.event_id();\n    ticket_token.redeemTicket(visitor, token_id, event_id);\n    scanned_tickets.increment();\n}\n\nfunction getScannedTicketsCount() public view  returns(uint)  {\n    uint st = scanned_tickets.current();\n    return st;\n}\n\n\n}",
  "sourcePath": "/home/jack/ethProjects/MS-Factory/contracts/721/singleton/TicketSale721.sol",
  "compiler": {
    "name": "solc",
    "version": "0.5.17+commit.d19bba13.Emscripten.clang"
  },
  "schemaVersion": "3.0.11",
  "updatedAt": "2020-07-16T13:42:12.929Z",
  "devdoc": {
    "methods": {
      "buyTicket(address)": {
        "details": "overload buy token function to give allowance to reedem tickets *"
      },
      "buyTokens(address)": {
        "details": "low level token purchase ***DO NOT OVERRIDE*** This function has a non-reentrancy guard, so it shouldn't be called by another `nonReentrant` function.",
        "params": {
          "beneficiary": "Recipient of the token purchase"
        }
      },
      "rate()": {
        "return": "the number of token units a buyer gets per wei."
      },
      "token()": {
        "return": "the token being sold."
      },
      "wallet()": {
        "return": "the address where funds are collected."
      },
      "weiRaised()": {
        "return": "the amount of wei raised."
      }
    }
  },
  "userdoc": {
    "methods": {}
  }
}