{
  "contractName": "TicketSalePluggable",
  "abi": [
    {
      "inputs": [
        {
          "internalType": "uint256",
          "name": "rate",
          "type": "uint256"
        },
        {
          "internalType": "address payable",
          "name": "_origin",
          "type": "address"
        },
        {
          "internalType": "uint256",
          "name": "sale_limit",
          "type": "uint256"
        },
        {
          "internalType": "address payable",
          "name": "_treasure_fund",
          "type": "address"
        }
      ],
      "payable": false,
      "stateMutability": "nonpayable",
      "type": "constructor"
    },
    {
      "anonymous": false,
      "inputs": [
        {
          "indexed": false,
          "internalType": "uint256",
          "name": "initial_value",
          "type": "uint256"
        },
        {
          "indexed": false,
          "internalType": "uint256",
          "name": "fees",
          "type": "uint256"
        },
        {
          "indexed": false,
          "internalType": "uint256",
          "name": "transfered_amount",
          "type": "uint256"
        }
      ],
      "name": "CalculatedFees",
      "type": "event"
    },
    {
      "anonymous": false,
      "inputs": [
        {
          "indexed": true,
          "internalType": "address",
          "name": "purchaser",
          "type": "address"
        },
        {
          "indexed": true,
          "internalType": "address",
          "name": "beneficiary",
          "type": "address"
        },
        {
          "indexed": false,
          "internalType": "uint256",
          "name": "value",
          "type": "uint256"
        },
        {
          "indexed": false,
          "internalType": "uint256",
          "name": "amount",
          "type": "uint256"
        }
      ],
      "name": "TokensPurchased",
      "type": "event"
    },
    {
      "payable": true,
      "stateMutability": "payable",
      "type": "fallback"
    },
    {
      "constant": true,
      "inputs": [],
      "name": "_event_id",
      "outputs": [
        {
          "internalType": "uint256",
          "name": "",
          "type": "uint256"
        }
      ],
      "payable": false,
      "stateMutability": "view",
      "type": "function"
    },
    {
      "constant": true,
      "inputs": [],
      "name": "_sold_count",
      "outputs": [
        {
          "internalType": "uint256",
          "name": "",
          "type": "uint256"
        }
      ],
      "payable": false,
      "stateMutability": "view",
      "type": "function"
    },
    {
      "constant": true,
      "inputs": [],
      "name": "_token",
      "outputs": [
        {
          "internalType": "contract Ticket721",
          "name": "",
          "type": "address"
        }
      ],
      "payable": false,
      "stateMutability": "view",
      "type": "function"
    },
    {
      "constant": true,
      "inputs": [],
      "name": "_wallet",
      "outputs": [
        {
          "internalType": "address payable",
          "name": "",
          "type": "address"
        }
      ],
      "payable": false,
      "stateMutability": "view",
      "type": "function"
    },
    {
      "constant": false,
      "inputs": [
        {
          "internalType": "address",
          "name": "beneficiary",
          "type": "address"
        }
      ],
      "name": "buyTokens",
      "outputs": [],
      "payable": true,
      "stateMutability": "payable",
      "type": "function"
    },
    {
      "constant": true,
      "inputs": [],
      "name": "event_id",
      "outputs": [
        {
          "internalType": "uint256",
          "name": "",
          "type": "uint256"
        }
      ],
      "payable": false,
      "stateMutability": "view",
      "type": "function"
    },
    {
      "constant": true,
      "inputs": [],
      "name": "origin_sale",
      "outputs": [
        {
          "internalType": "contract TokenSale721",
          "name": "",
          "type": "address"
        }
      ],
      "payable": false,
      "stateMutability": "view",
      "type": "function"
    },
    {
      "constant": true,
      "inputs": [],
      "name": "percent_fee",
      "outputs": [
        {
          "internalType": "uint256",
          "name": "",
          "type": "uint256"
        }
      ],
      "payable": false,
      "stateMutability": "view",
      "type": "function"
    },
    {
      "constant": true,
      "inputs": [],
      "name": "rate",
      "outputs": [
        {
          "internalType": "uint256",
          "name": "",
          "type": "uint256"
        }
      ],
      "payable": false,
      "stateMutability": "view",
      "type": "function"
    },
    {
      "constant": true,
      "inputs": [],
      "name": "sale_limit",
      "outputs": [
        {
          "internalType": "uint256",
          "name": "",
          "type": "uint256"
        }
      ],
      "payable": false,
      "stateMutability": "view",
      "type": "function"
    },
    {
      "constant": true,
      "inputs": [],
      "name": "sold_count",
      "outputs": [
        {
          "internalType": "uint256",
          "name": "",
          "type": "uint256"
        }
      ],
      "payable": false,
      "stateMutability": "view",
      "type": "function"
    },
    {
      "constant": true,
      "inputs": [],
      "name": "ticket_type",
      "outputs": [
        {
          "internalType": "uint256",
          "name": "",
          "type": "uint256"
        }
      ],
      "payable": false,
      "stateMutability": "view",
      "type": "function"
    },
    {
      "constant": true,
      "inputs": [],
      "name": "token",
      "outputs": [
        {
          "internalType": "contract Ticket721",
          "name": "",
          "type": "address"
        }
      ],
      "payable": false,
      "stateMutability": "view",
      "type": "function"
    },
    {
      "constant": true,
      "inputs": [],
      "name": "treasure_fund",
      "outputs": [
        {
          "internalType": "address payable",
          "name": "",
          "type": "address"
        }
      ],
      "payable": false,
      "stateMutability": "view",
      "type": "function"
    },
    {
      "constant": true,
      "inputs": [],
      "name": "wallet",
      "outputs": [
        {
          "internalType": "address payable",
          "name": "",
          "type": "address"
        }
      ],
      "payable": false,
      "stateMutability": "view",
      "type": "function"
    },
    {
      "constant": true,
      "inputs": [],
      "name": "weiRaised",
      "outputs": [
        {
          "internalType": "uint256",
          "name": "",
          "type": "uint256"
        }
      ],
      "payable": false,
      "stateMutability": "view",
      "type": "function"
    },
    {
      "constant": false,
      "inputs": [
        {
          "internalType": "address",
          "name": "buyer",
          "type": "address"
        }
      ],
      "name": "buyTicket",
      "outputs": [],
      "payable": true,
      "stateMutability": "payable",
      "type": "function"
    },
    {
      "constant": false,
      "inputs": [
        {
          "internalType": "address",
          "name": "visitor",
          "type": "address"
        },
        {
          "internalType": "uint256",
          "name": "token_id",
          "type": "uint256"
        }
      ],
      "name": "redeemTicket",
      "outputs": [],
      "payable": false,
      "stateMutability": "nonpayable",
      "type": "function"
    },
    {
      "constant": true,
      "inputs": [],
      "name": "getScannedTicketsCount",
      "outputs": [
        {
          "internalType": "uint256",
          "name": "",
          "type": "uint256"
        }
      ],
      "payable": false,
      "stateMutability": "view",
      "type": "function"
    }
  ],
  "bytecode": "0x608060405260006005556005600a5534801561001a57600080fd5b506040516110493803806110498339818101604052608081101561003d57600080fd5b508051602082015160408301516060909301516000805460ff191660011790559192909183838383836100b7576040805162461bcd60e51b815260206004820152601460248201527f43726f776473616c653a20726174652069732030000000000000000000000000604482015290519081900360640190fd5b6001600160a01b038316610112576040805162461bcd60e51b815260206004820152601d60248201527f6f726967696e2063616e6e6f74206265207a65726f2061646472657373000000604482015290519081900360640190fd5b600180546001600160a01b0319166001600160a01b0385811691909117918290556040805163521eb27360e01b81529051929091169163521eb27391600480820192602092909190829003018186803b15801561016e57600080fd5b505afa158015610182573d6000803e3d6000fd5b505050506040513d602081101561019857600080fd5b5051600680546001600160a01b03199081166001600160a01b0393841617909155600780549091168383161790556008859055670de0b6b3a76400008302600490815560015460408051637e062a3560e11b81529051919093169263fc0c546a9281810192602092909190829003018186803b15801561021757600080fd5b505afa15801561022b573d6000803e3d6000fd5b505050506040513d602081101561024157600080fd5b505160008054610100600160a81b0319166101006001600160a01b039384160217905560015460408051634881cef760e11b8152905191909216916391039dee916004808301926020929190829003018186803b1580156102a157600080fd5b505afa1580156102b5573d6000803e3d6000fd5b505050506040513d60208110156102cb57600080fd5b505160028190556000805460065460408051630645c0fb60e41b815260048101959095526001600160a01b03918216602486015251610100909204169263645c0fb09260448083019360209390929083900390910190829087803b15801561033257600080fd5b505af1158015610346573d6000803e3d6000fd5b505050506040513d602081101561035c57600080fd5b50516003555050505050505050610cd1806103786000396000f3fe6080604052600436106101145760003560e01c8063a8253cac116100a0578063f00a93d311610064578063f00a93d3146102c0578063f9a4bb1e146102d5578063f9cfe26b146102ea578063fbbdc465146102ff578063fc0c546a1461031457610114565b8063a8253cac14610246578063e27920a81461025b578063e61d959414610270578063ec8ac4d814610285578063ecd0c0c3146102ab57610114565b8063610757e4116100e7578063610757e4146101a85780636c1e81e3146101bd5780636ed08ea0146101f657806391039dee1461020b578063a5f8cdbb1461022057610114565b80632c4e722e146101265780634042b66f1461014d57806341035a4114610162578063521eb27314610193575b61012461011f610329565b61032d565b005b34801561013257600080fd5b5061013b610339565b60408051918252519081900360200190f35b34801561015957600080fd5b5061013b61033f565b34801561016e57600080fd5b50610177610345565b604080516001600160a01b039092168252519081900360200190f35b34801561019f57600080fd5b50610177610354565b3480156101b457600080fd5b50610177610363565b3480156101c957600080fd5b50610124600480360360408110156101e057600080fd5b506001600160a01b038135169060200135610372565b34801561020257600080fd5b5061013b61041a565b34801561021757600080fd5b5061013b610420565b6101246004803603602081101561023657600080fd5b50356001600160a01b031661032d565b34801561025257600080fd5b5061013b610426565b34801561026757600080fd5b5061013b610439565b34801561027c57600080fd5b5061013b61043f565b6101246004803603602081101561029b57600080fd5b50356001600160a01b0316610445565b3480156102b757600080fd5b5061017761057c565b3480156102cc57600080fd5b5061013b610590565b3480156102e157600080fd5b50610177610596565b3480156102f657600080fd5b5061013b6105a5565b34801561030b57600080fd5b5061013b6105ab565b34801561032057600080fd5b506101776105b1565b3390565b61033681610445565b50565b60085490565b60095490565b6001546001600160a01b031681565b6006546001600160a01b031690565b6006546001600160a01b031681565b600061037c6105b1565b90506000610388610420565b9050816001600160a01b031663a27c282e8585846040518463ffffffff1660e01b815260040180846001600160a01b03166001600160a01b031681526020018381526020018281526020019350505050600060405180830381600087803b1580156103f257600080fd5b505af1158015610406573d6000803e3d6000fd5b50505050610414600b6105c5565b50505050565b60025481565b60025490565b600080610433600b6105ce565b91505090565b600a5481565b60055490565b60005460ff1661049c576040805162461bcd60e51b815260206004820152601f60248201527f5265656e7472616e637947756172643a207265656e7472616e742063616c6c00604482015290519081900360640190fd5b6000805460ff1916815534906104b1826105d2565b90506104be838383610645565b6009546104d1908363ffffffff61073816565b6009556005546104e7908263ffffffff61073816565b6005556104f4838261079b565b826001600160a01b0316610506610329565b6001600160a01b03167f6faf93231a456e552dbc9961f58d9713ee4f2e69d15f1975b050ef0911053a7b8484604051808381526020018281526020019250505060405180910390a361055883836107a5565b6105606107a9565b61056a83836107a5565b50506000805460ff1916600117905550565b60005461010090046001600160a01b031681565b60045490565b6007546001600160a01b031681565b60055481565b60035490565b60005461010090046001600160a01b031690565b80546001019055565b5490565b60006008548210156106155760405162461bcd60e51b815260040180806020018281038252602c815260200180610c71602c913960400191505060405180910390fd5b6000670de0b6b3a76400006008548161062a57fe5b04670de0b6b3a764000084048161063d57fe5b049392505050565b6001600160a01b03831661068a5760405162461bcd60e51b815260040180806020018281038252602a815260200180610c47602a913960400191505060405180910390fd5b816106dc576040805162461bcd60e51b815260206004820152601960248201527f43726f776473616c653a20776569416d6f756e74206973203000000000000000604482015290519081900360640190fd5b600554600454670de0b6b3a764000090910290828201908111156107315760405162461bcd60e51b815260040180806020018281038252602a815260200180610bfc602a913960400191505060405180910390fd5b5050505050565b600082820183811015610792576040805162461bcd60e51b815260206004820152601b60248201527f536166654d6174683a206164646974696f6e206f766572666c6f770000000000604482015290519081900360640190fd5b90505b92915050565b6107a582826108ac565b5050565b34606460006107b88383610933565b90508083039250600160009054906101000a90046001600160a01b03166001600160a01b0316635a62f108846040518263ffffffff1660e01b81526004016000604051808303818588803b15801561080f57600080fd5b505af1158015610823573d6000803e3d6000fd5b50506007546040516001600160a01b03909116935084156108fc0292508491506000818181858888f19350505050158015610862573d6000803e3d6000fd5b50604080518481526020810183905282850381830181905291517f8f4705a6d8c5af200050d845b50d0f90f838a179c62b9365daa314992598fc1b9181900360600190a150505050565b60008054600254600354604080516319a742bf60e31b81526001600160a01b0388811660048301526024820188905260448201949094526064810192909252516101009093049091169263cd3a15f89260848084019382900301818387803b15801561091757600080fd5b505af115801561092b573d6000803e3d6000fd5b505050505050565b6000806109408484610a1a565b9050600061094e8585610a5c565b9050600061095e600a5486610a1a565b9050600061096e600a5487610a5c565b9050600061098561097f8685610a9e565b88610a9e565b905060006109938684610a9e565b905060006109a18686610a9e565b905060006109af8786610a9e565b905060006109be8b6002610a1a565b905060006109cc8383610738565b905060006109da828e610a1a565b905060006109e88888610738565b905060006109f68288610738565b90506000610a048285610738565b9e50505050505050505050505050505092915050565b600061079283836040518060400160405280601a81526020017f536166654d6174683a206469766973696f6e206279207a65726f000000000000815250610af7565b600061079283836040518060400160405280601881526020017f536166654d6174683a206d6f64756c6f206279207a65726f0000000000000000815250610b99565b600082610aad57506000610795565b82820282848281610aba57fe5b04146107925760405162461bcd60e51b8152600401808060200182810382526021815260200180610c266021913960400191505060405180910390fd5b60008183610b835760405162461bcd60e51b81526004018080602001828103825283818151815260200191508051906020019080838360005b83811015610b48578181015183820152602001610b30565b50505050905090810190601f168015610b755780820380516001836020036101000a031916815260200191505b509250505060405180910390fd5b506000838581610b8f57fe5b0495945050505050565b60008183610be85760405162461bcd60e51b8152602060048201818152835160248401528351909283926044909101919085019080838360008315610b48578181015183820152602001610b30565b50828481610bf257fe5b0694935050505056fe746f6b656e7320616d6f756e742073686f756c64206e6f74206578636565642073616c655f6c696d6974536166654d6174683a206d756c7469706c69636174696f6e206f766572666c6f7743726f776473616c653a2062656e656669636961727920697320746865207a65726f206164647265737377656920616d6f756e742073686f756c6420626520626967676572206f7220657175616c206f662072617465a265627a7a72315820f14aa4e449fdcdf53bc19a5364292afe47c039dee448e8f0cb7b470ecf354eb164736f6c63430005110032",
  "source": "pragma solidity ^0.5.11;\n\nimport './PluggableSale.sol';\nimport './Ticket721.sol';\n\ncontract TicketSalePluggable is PluggableSale {\n\n\nusing Counters for Counters.Counter;\nCounters.Counter scanned_tickets;\n\nconstructor(uint256 rate, address payable _origin, uint sale_limit, address payable _treasure_fund) PluggableSale(rate, _origin, sale_limit, _treasure_fund) public {}\n\n\n/**\n*\n* @dev overload buy token function to give allowance to reedem tickets \n*\n*\n*/\nfunction buyTicket(address buyer) public payable {\n    super.buyTokens(buyer);\n    //Ticket721 ticket_token = super.token();\n   // super._token.approve(_wallet,tokens);\n\n    // chek this one more time\n    //ticket_token.setApprovalForEvent(buyer,);\n\n}\n\n// fallback\nfunction() external payable {\n        buyTicket(_msgSender());\n    }\n\n// deprecated\n/*\nfunction redeemTicket(address visitor, uint256 token_id) public {\n    Ticket721 ticket_token = super.token();\n    uint256 event_id = super.event_id();\n    ticket_token.redeemTicket(visitor, token_id, event_id);\n}\n*/\n\nfunction redeemTicket(address visitor, uint256 token_id) public {\n    Ticket721 ticket_token = super.token();\n    uint256 event_id = super.event_id();\n    ticket_token.redeemTicket(visitor, token_id, event_id);\n    scanned_tickets.increment();\n}\n\nfunction getScannedTicketsCount() public view  returns(uint)  {\n    uint st = scanned_tickets.current();\n    return st;\n}\n\n}",
  "sourcePath": "/home/jack/ethProjects/MS-Factory/contracts/721/singleton/TicketSalePluggable.sol",
  "compiler": {
    "name": "solc",
    "version": "0.5.17+commit.d19bba13.Emscripten.clang"
  },
  "schemaVersion": "3.0.11",
  "updatedAt": "2020-07-17T15:41:46.598Z",
  "devdoc": {
    "methods": {
      "buyTicket(address)": {
        "details": "overload buy token function to give allowance to reedem tickets  *"
      },
      "buyTokens(address)": {
        "details": "low level token purchase ***DO NOT OVERRIDE*** This function has a non-reentrancy guard, so it shouldn't be called by another `nonReentrant` function.",
        "params": {
          "beneficiary": "Recipient of the token purchase"
        }
      },
      "rate()": {
        "return": "the number of token units a buyer gets per wei."
      },
      "token()": {
        "return": "the token being sold."
      },
      "wallet()": {
        "return": "the address where funds are collected."
      },
      "weiRaised()": {
        "return": "the amount of wei raised."
      }
    }
  },
  "userdoc": {
    "methods": {}
  }
}