{
  "contractName": "TicketSale",
  "abi": [
    {
      "inputs": [
        {
          "internalType": "uint256",
          "name": "rate",
          "type": "uint256"
        },
        {
          "internalType": "address payable",
          "name": "wallet",
          "type": "address"
        },
        {
          "internalType": "contract IERC20",
          "name": "token",
          "type": "address"
        }
      ],
      "payable": false,
      "stateMutability": "nonpayable",
      "type": "constructor"
    },
    {
      "anonymous": false,
      "inputs": [
        {
          "indexed": true,
          "internalType": "address",
          "name": "purchaser",
          "type": "address"
        },
        {
          "indexed": true,
          "internalType": "address",
          "name": "beneficiary",
          "type": "address"
        },
        {
          "indexed": false,
          "internalType": "uint256",
          "name": "value",
          "type": "uint256"
        },
        {
          "indexed": false,
          "internalType": "uint256",
          "name": "amount",
          "type": "uint256"
        }
      ],
      "name": "TokensPurchased",
      "type": "event"
    },
    {
      "payable": true,
      "stateMutability": "payable",
      "type": "fallback"
    },
    {
      "constant": true,
      "inputs": [],
      "name": "_token",
      "outputs": [
        {
          "internalType": "contract IERC20",
          "name": "",
          "type": "address"
        }
      ],
      "payable": false,
      "stateMutability": "view",
      "type": "function"
    },
    {
      "constant": true,
      "inputs": [],
      "name": "_wallet",
      "outputs": [
        {
          "internalType": "address payable",
          "name": "",
          "type": "address"
        }
      ],
      "payable": false,
      "stateMutability": "view",
      "type": "function"
    },
    {
      "constant": false,
      "inputs": [
        {
          "internalType": "address",
          "name": "beneficiary",
          "type": "address"
        }
      ],
      "name": "buyTokens",
      "outputs": [],
      "payable": true,
      "stateMutability": "payable",
      "type": "function"
    },
    {
      "constant": true,
      "inputs": [],
      "name": "rate",
      "outputs": [
        {
          "internalType": "uint256",
          "name": "",
          "type": "uint256"
        }
      ],
      "payable": false,
      "stateMutability": "view",
      "type": "function"
    },
    {
      "constant": true,
      "inputs": [],
      "name": "token",
      "outputs": [
        {
          "internalType": "contract IERC20",
          "name": "",
          "type": "address"
        }
      ],
      "payable": false,
      "stateMutability": "view",
      "type": "function"
    },
    {
      "constant": true,
      "inputs": [],
      "name": "wallet",
      "outputs": [
        {
          "internalType": "address payable",
          "name": "",
          "type": "address"
        }
      ],
      "payable": false,
      "stateMutability": "view",
      "type": "function"
    },
    {
      "constant": true,
      "inputs": [],
      "name": "weiRaised",
      "outputs": [
        {
          "internalType": "uint256",
          "name": "",
          "type": "uint256"
        }
      ],
      "payable": false,
      "stateMutability": "view",
      "type": "function"
    },
    {
      "constant": false,
      "inputs": [
        {
          "internalType": "address",
          "name": "buyer",
          "type": "address"
        }
      ],
      "name": "buyTicket",
      "outputs": [],
      "payable": true,
      "stateMutability": "payable",
      "type": "function"
    }
  ],
  "bytecode": "0x608060405234801561001057600080fd5b5060405161100d38038061100d8339818101604052606081101561003357600080fd5b8101908080519060200190929190805190602001909291908051906020019092919050505082828260016000806101000a81548160ff021916908315150217905550600083116100eb576040517f08c379a00000000000000000000000000000000000000000000000000000000081526004018080602001828103825260148152602001807f43726f776473616c653a2072617465206973203000000000000000000000000081525060200191505060405180910390fd5b600073ffffffffffffffffffffffffffffffffffffffff168273ffffffffffffffffffffffffffffffffffffffff161415610171576040517f08c379a0000000000000000000000000000000000000000000000000000000008152600401808060200182810382526025815260200180610fe86025913960400191505060405180910390fd5b600073ffffffffffffffffffffffffffffffffffffffff168173ffffffffffffffffffffffffffffffffffffffff1614156101f7576040517f08c379a0000000000000000000000000000000000000000000000000000000008152600401808060200182810382526024815260200180610fc46024913960400191505060405180910390fd5b8260028190555081600160006101000a81548173ffffffffffffffffffffffffffffffffffffffff021916908373ffffffffffffffffffffffffffffffffffffffff16021790555080600060016101000a81548173ffffffffffffffffffffffffffffffffffffffff021916908373ffffffffffffffffffffffffffffffffffffffff160217905550505050505050610d2f806102956000396000f3fe60806040526004361061007b5760003560e01c8063a5f8cdbb1161004e578063a5f8cdbb14610191578063ec8ac4d8146101d5578063ecd0c0c314610219578063fc0c546a146102705761007b565b80632c4e722e1461008d5780634042b66f146100b8578063521eb273146100e3578063610757e41461013a575b61008b6100866102c7565b6102cf565b005b34801561009957600080fd5b506100a26103e1565b6040518082815260200191505060405180910390f35b3480156100c457600080fd5b506100cd6103eb565b6040518082815260200191505060405180910390f35b3480156100ef57600080fd5b506100f86103f5565b604051808273ffffffffffffffffffffffffffffffffffffffff1673ffffffffffffffffffffffffffffffffffffffff16815260200191505060405180910390f35b34801561014657600080fd5b5061014f61041f565b604051808273ffffffffffffffffffffffffffffffffffffffff1673ffffffffffffffffffffffffffffffffffffffff16815260200191505060405180910390f35b6101d3600480360360208110156101a757600080fd5b81019080803573ffffffffffffffffffffffffffffffffffffffff1690602001909291905050506102cf565b005b610217600480360360208110156101eb57600080fd5b81019080803573ffffffffffffffffffffffffffffffffffffffff169060200190929190505050610445565b005b34801561022557600080fd5b5061022e6105d0565b604051808273ffffffffffffffffffffffffffffffffffffffff1673ffffffffffffffffffffffffffffffffffffffff16815260200191505060405180910390f35b34801561027c57600080fd5b506102856105f6565b604051808273ffffffffffffffffffffffffffffffffffffffff1673ffffffffffffffffffffffffffffffffffffffff16815260200191505060405180910390f35b600033905090565b6102d881610445565b600034905060006102e88261061f565b905060006102f46105f6565b90508073ffffffffffffffffffffffffffffffffffffffff1663095ea7b3600160009054906101000a900473ffffffffffffffffffffffffffffffffffffffff16846040518363ffffffff1660e01b8152600401808373ffffffffffffffffffffffffffffffffffffffff1673ffffffffffffffffffffffffffffffffffffffff16815260200182815260200192505050602060405180830381600087803b15801561039f57600080fd5b505af11580156103b3573d6000803e3d6000fd5b505050506040513d60208110156103c957600080fd5b81019080805190602001909291905050505050505050565b6000600254905090565b6000600354905090565b6000600160009054906101000a900473ffffffffffffffffffffffffffffffffffffffff16905090565b600160009054906101000a900473ffffffffffffffffffffffffffffffffffffffff1681565b6000809054906101000a900460ff166104c6576040517f08c379a000000000000000000000000000000000000000000000000000000000815260040180806020018281038252601f8152602001807f5265656e7472616e637947756172643a207265656e7472616e742063616c6c0081525060200191505060405180910390fd5b60008060006101000a81548160ff02191690831515021790555060003490506104ef828261063d565b60006104fa8261061f565b90506105118260035461073e90919063ffffffff16565b60038190555061052183826107c6565b8273ffffffffffffffffffffffffffffffffffffffff166105406102c7565b73ffffffffffffffffffffffffffffffffffffffff167f6faf93231a456e552dbc9961f58d9713ee4f2e69d15f1975b050ef0911053a7b8484604051808381526020018281526020019250505060405180910390a361059f83836107d4565b6105a76107d8565b6105b18383610843565b505060016000806101000a81548160ff02191690831515021790555050565b600060019054906101000a900473ffffffffffffffffffffffffffffffffffffffff1681565b60008060019054906101000a900473ffffffffffffffffffffffffffffffffffffffff16905090565b60006106366002548361084790919063ffffffff16565b9050919050565b600073ffffffffffffffffffffffffffffffffffffffff168273ffffffffffffffffffffffffffffffffffffffff1614156106c3576040517f08c379a000000000000000000000000000000000000000000000000000000000815260040180806020018281038252602a815260200180610ca7602a913960400191505060405180910390fd5b600081141561073a576040517f08c379a00000000000000000000000000000000000000000000000000000000081526004018080602001828103825260198152602001807f43726f776473616c653a20776569416d6f756e7420697320300000000000000081525060200191505060405180910390fd5b5050565b6000808284019050838110156107bc576040517f08c379a000000000000000000000000000000000000000000000000000000000815260040180806020018281038252601b8152602001807f536166654d6174683a206164646974696f6e206f766572666c6f77000000000081525060200191505060405180910390fd5b8091505092915050565b6107d082826108cd565b5050565b5050565b600160009054906101000a900473ffffffffffffffffffffffffffffffffffffffff1673ffffffffffffffffffffffffffffffffffffffff166108fc349081150290604051600060405180830381858888f19350505050158015610840573d6000803e3d6000fd5b50565b5050565b60008083141561085a57600090506108c7565b600082840290508284828161086b57fe5b04146108c2576040517f08c379a0000000000000000000000000000000000000000000000000000000008152600401808060200182810382526021815260200180610c866021913960400191505060405180910390fd5b809150505b92915050565b61091a8282600060019054906101000a900473ffffffffffffffffffffffffffffffffffffffff1673ffffffffffffffffffffffffffffffffffffffff1661091e9092919063ffffffff16565b5050565b6109ea838473ffffffffffffffffffffffffffffffffffffffff1663a9059cbb905060e01b8484604051602401808373ffffffffffffffffffffffffffffffffffffffff1673ffffffffffffffffffffffffffffffffffffffff16815260200182815260200192505050604051602081830303815290604052907bffffffffffffffffffffffffffffffffffffffffffffffffffffffff19166020820180517bffffffffffffffffffffffffffffffffffffffffffffffffffffffff83818316178352505050506109ef565b505050565b610a0e8273ffffffffffffffffffffffffffffffffffffffff16610c3a565b610a80576040517f08c379a000000000000000000000000000000000000000000000000000000000815260040180806020018281038252601f8152602001807f5361666545524332303a2063616c6c20746f206e6f6e2d636f6e74726163740081525060200191505060405180910390fd5b600060608373ffffffffffffffffffffffffffffffffffffffff16836040518082805190602001908083835b60208310610acf5780518252602082019150602081019050602083039250610aac565b6001836020036101000a0380198251168184511680821785525050505050509050019150506000604051808303816000865af19150503d8060008114610b31576040519150601f19603f3d011682016040523d82523d6000602084013e610b36565b606091505b509150915081610bae576040517f08c379a00000000000000000000000000000000000000000000000000000000081526004018080602001828103825260208152602001807f5361666545524332303a206c6f772d6c6576656c2063616c6c206661696c656481525060200191505060405180910390fd5b600081511115610c3457808060200190516020811015610bcd57600080fd5b8101908080519060200190929190505050610c33576040517f08c379a000000000000000000000000000000000000000000000000000000000815260040180806020018281038252602a815260200180610cd1602a913960400191505060405180910390fd5b5b50505050565b60008060007fc5d2460186f7233c927e7db2dcc703c0e500b653ca82273b7bfad8045d85a47060001b9050833f9150808214158015610c7c57506000801b8214155b9250505091905056fe536166654d6174683a206d756c7469706c69636174696f6e206f766572666c6f7743726f776473616c653a2062656e656669636961727920697320746865207a65726f20616464726573735361666545524332303a204552433230206f7065726174696f6e20646964206e6f742073756363656564a265627a7a72315820e63b06dd2119bb58a01a6f6ae2061ef648ab4bbe0fb8e2c7c517b80881845b4364736f6c6343000510003243726f776473616c653a20746f6b656e20697320746865207a65726f206164647265737343726f776473616c653a2077616c6c657420697320746865207a65726f2061646472657373",
  "source": "pragma solidity ^0.5.11;\n\nimport './zeppeline/crowdsale/Crowdsale.sol';\n\ncontract TicketSale is Crowdsale {\n\n\n\nconstructor(uint256 rate, address payable wallet, IERC20 token) Crowdsale(rate,wallet,token) public {}\n\n\n/** \n*\n* @dev overload buy token function to give allowance to reedem tickets \n*\n*\n*/\nfunction buyTicket(address buyer) public payable {\n    super.buyTokens(buyer);\n    // @TODO add allowance request to orginizer\n    uint256 weiAmount = msg.value;\n    // calculate token amount to be created\n    uint256 tokens = super._getTokenAmount(weiAmount);\n    IERC20 ticket_token = super.token();\n   // super._token.approve(_wallet,tokens);\n   ticket_token.approve(_wallet,tokens);\n}\n\n// fallback\nfunction() external payable {\n        buyTicket(_msgSender());\n    }\n\n\n/*\n    TODO: add redeem ticket\n*/\n\n\n \n\n}",
  "sourcePath": "/home/jack/ethProjects/MS-Factory/contracts/TicketSale.sol",
  "compiler": {
    "name": "solc",
    "version": "0.5.16+commit.9c3226ce.Emscripten.clang"
  },
  "schemaVersion": "3.0.23",
  "updatedAt": "2020-02-11T18:39:52.007Z",
  "devdoc": {
    "methods": {
      "buyTicket(address)": {
        "details": "overload buy token function to give allowance to reedem tickets  *"
      },
      "buyTokens(address)": {
        "details": "low level token purchase ***DO NOT OVERRIDE*** This function has a non-reentrancy guard, so it shouldn't be called by another `nonReentrant` function.",
        "params": {
          "beneficiary": "Recipient of the token purchase"
        }
      },
      "rate()": {
        "return": "the number of token units a buyer gets per wei."
      },
      "token()": {
        "return": "the token being sold."
      },
      "wallet()": {
        "return": "the address where funds are collected."
      },
      "weiRaised()": {
        "return": "the amount of wei raised."
      }
    }
  },
  "userdoc": {
    "methods": {}
  }
}