{
  "contractName": "TicketSalePluggable",
  "abi": [
    {
      "inputs": [
        {
          "internalType": "uint256",
          "name": "rate",
          "type": "uint256"
        },
        {
          "internalType": "address payable",
          "name": "_origin",
          "type": "address"
        }
      ],
      "payable": false,
      "stateMutability": "nonpayable",
      "type": "constructor"
    },
    {
      "anonymous": false,
      "inputs": [
        {
          "indexed": true,
          "internalType": "address",
          "name": "purchaser",
          "type": "address"
        },
        {
          "indexed": true,
          "internalType": "address",
          "name": "beneficiary",
          "type": "address"
        },
        {
          "indexed": false,
          "internalType": "uint256",
          "name": "value",
          "type": "uint256"
        },
        {
          "indexed": false,
          "internalType": "uint256",
          "name": "amount",
          "type": "uint256"
        }
      ],
      "name": "TokensPurchased",
      "type": "event"
    },
    {
      "payable": true,
      "stateMutability": "payable",
      "type": "fallback"
    },
    {
      "constant": true,
      "inputs": [],
      "name": "_event_id",
      "outputs": [
        {
          "internalType": "uint256",
          "name": "",
          "type": "uint256"
        }
      ],
      "payable": false,
      "stateMutability": "view",
      "type": "function"
    },
    {
      "constant": true,
      "inputs": [],
      "name": "_token",
      "outputs": [
        {
          "internalType": "contract Ticket721",
          "name": "",
          "type": "address"
        }
      ],
      "payable": false,
      "stateMutability": "view",
      "type": "function"
    },
    {
      "constant": true,
      "inputs": [],
      "name": "_wallet",
      "outputs": [
        {
          "internalType": "address payable",
          "name": "",
          "type": "address"
        }
      ],
      "payable": false,
      "stateMutability": "view",
      "type": "function"
    },
    {
      "constant": false,
      "inputs": [
        {
          "internalType": "address",
          "name": "beneficiary",
          "type": "address"
        }
      ],
      "name": "buyTokens",
      "outputs": [],
      "payable": true,
      "stateMutability": "payable",
      "type": "function"
    },
    {
      "constant": true,
      "inputs": [],
      "name": "event_id",
      "outputs": [
        {
          "internalType": "uint256",
          "name": "",
          "type": "uint256"
        }
      ],
      "payable": false,
      "stateMutability": "view",
      "type": "function"
    },
    {
      "constant": true,
      "inputs": [],
      "name": "origin_sale",
      "outputs": [
        {
          "internalType": "contract TokenSale721",
          "name": "",
          "type": "address"
        }
      ],
      "payable": false,
      "stateMutability": "view",
      "type": "function"
    },
    {
      "constant": true,
      "inputs": [],
      "name": "rate",
      "outputs": [
        {
          "internalType": "uint256",
          "name": "",
          "type": "uint256"
        }
      ],
      "payable": false,
      "stateMutability": "view",
      "type": "function"
    },
    {
      "constant": true,
      "inputs": [],
      "name": "token",
      "outputs": [
        {
          "internalType": "contract Ticket721",
          "name": "",
          "type": "address"
        }
      ],
      "payable": false,
      "stateMutability": "view",
      "type": "function"
    },
    {
      "constant": true,
      "inputs": [],
      "name": "wallet",
      "outputs": [
        {
          "internalType": "address payable",
          "name": "",
          "type": "address"
        }
      ],
      "payable": false,
      "stateMutability": "view",
      "type": "function"
    },
    {
      "constant": true,
      "inputs": [],
      "name": "weiRaised",
      "outputs": [
        {
          "internalType": "uint256",
          "name": "",
          "type": "uint256"
        }
      ],
      "payable": false,
      "stateMutability": "view",
      "type": "function"
    },
    {
      "constant": false,
      "inputs": [
        {
          "internalType": "address",
          "name": "buyer",
          "type": "address"
        }
      ],
      "name": "buyTicket",
      "outputs": [],
      "payable": true,
      "stateMutability": "payable",
      "type": "function"
    },
    {
      "constant": false,
      "inputs": [
        {
          "internalType": "address",
          "name": "visitor",
          "type": "address"
        },
        {
          "internalType": "uint256",
          "name": "token_id",
          "type": "uint256"
        }
      ],
      "name": "redeemTicket",
      "outputs": [],
      "payable": false,
      "stateMutability": "nonpayable",
      "type": "function"
    }
  ],
  "bytecode": "0x608060405234801561001057600080fd5b50604051610a5f380380610a5f8339818101604052604081101561003357600080fd5b5080516020909101516000805460ff1916600117905581818161009d576040805162461bcd60e51b815260206004820152601460248201527f43726f776473616c653a20726174652069732030000000000000000000000000604482015290519081900360640190fd5b6001600160a01b0381166100f8576040805162461bcd60e51b815260206004820152601d60248201527f6f726967696e2063616e6e6f74206265207a65726f2061646472657373000000604482015290519081900360640190fd5b600180546001600160a01b0319166001600160a01b0383811691909117918290556040805163521eb27360e01b81529051929091169163521eb27391600480820192602092909190829003018186803b15801561015457600080fd5b505afa158015610168573d6000803e3d6000fd5b505050506040513d602081101561017e57600080fd5b5051600480546001600160a01b0319166001600160a01b03928316178155600584905560015460408051637e062a3560e11b81529051919093169263fc0c546a9281810192602092909190829003018186803b1580156101dd57600080fd5b505afa1580156101f1573d6000803e3d6000fd5b505050506040513d602081101561020757600080fd5b505160008054610100600160a81b0319166101006001600160a01b039384160217905560015460408051634881cef760e11b8152905191909216916391039dee916004808301926020929190829003018186803b15801561026757600080fd5b505afa15801561027b573d6000803e3d6000fd5b505050506040513d602081101561029157600080fd5b50516002819055600080546004805460408051630645c0fb60e41b8152928301959095526001600160a01b03908116602483015293516101009092049093169263645c0fb09260448083019360209390929083900390910190829087803b1580156102fb57600080fd5b505af115801561030f573d6000803e3d6000fd5b505050506040513d602081101561032557600080fd5b5051600355505050506107228061033d6000396000f3fe6080604052600436106100a75760003560e01c80636ed08ea0116100645780636ed08ea01461018957806391039dee1461019e578063a5f8cdbb146101b3578063ec8ac4d8146101d9578063ecd0c0c3146101ff578063fc0c546a14610214576100a7565b80632c4e722e146100b95780634042b66f146100e057806341035a41146100f5578063521eb27314610126578063610757e41461013b5780636c1e81e314610150575b6100b76100b2610229565b61022d565b005b3480156100c557600080fd5b506100ce610239565b60408051918252519081900360200190f35b3480156100ec57600080fd5b506100ce61023f565b34801561010157600080fd5b5061010a610245565b604080516001600160a01b039092168252519081900360200190f35b34801561013257600080fd5b5061010a610254565b34801561014757600080fd5b5061010a610263565b34801561015c57600080fd5b506100b76004803603604081101561017357600080fd5b506001600160a01b038135169060200135610272565b34801561019557600080fd5b506100ce610310565b3480156101aa57600080fd5b506100ce610316565b6100b7600480360360208110156101c957600080fd5b50356001600160a01b031661022d565b6100b7600480360360208110156101ef57600080fd5b50356001600160a01b031661031c565b34801561020b57600080fd5b5061010a61043e565b34801561022057600080fd5b5061010a610452565b3390565b6102368161031c565b50565b60055490565b60065490565b6001546001600160a01b031681565b6004546001600160a01b031690565b6004546001600160a01b031681565b600061027c610452565b90506000610288610316565b9050816001600160a01b031663a27c282e8585846040518463ffffffff1660e01b815260040180846001600160a01b03166001600160a01b031681526020018381526020018281526020019350505050600060405180830381600087803b1580156102f257600080fd5b505af1158015610306573d6000803e3d6000fd5b5050505050505050565b60025481565b60025490565b60005460ff16610373576040805162461bcd60e51b815260206004820152601f60248201527f5265656e7472616e637947756172643a207265656e7472616e742063616c6c00604482015290519081900360640190fd5b6000805460ff19169055346103888282610466565b600061039382610501565b6006549091506103a9908363ffffffff61051e16565b6006556103b6838261057f565b826001600160a01b03166103c8610229565b6001600160a01b03167f6faf93231a456e552dbc9961f58d9713ee4f2e69d15f1975b050ef0911053a7b8484604051808381526020018281526020019250505060405180910390a361041a83836104fd565b610422610589565b61042c83836104fd565b50506000805460ff1916600117905550565b60005461010090046001600160a01b031681565b60005461010090046001600160a01b031690565b6001600160a01b0382166104ab5760405162461bcd60e51b815260040180806020018281038252602a8152602001806106c4602a913960400191505060405180910390fd5b806104fd576040805162461bcd60e51b815260206004820152601960248201527f43726f776473616c653a20776569416d6f756e74206973203000000000000000604482015290519081900360640190fd5b5050565b6000610518600554836105c290919063ffffffff16565b92915050565b600082820183811015610578576040805162461bcd60e51b815260206004820152601b60248201527f536166654d6174683a206164646974696f6e206f766572666c6f770000000000604482015290519081900360640190fd5b9392505050565b6104fd828261061b565b6004546040516001600160a01b03909116903480156108fc02916000818181858888f19350505050158015610236573d6000803e3d6000fd5b6000826105d157506000610518565b828202828482816105de57fe5b04146105785760405162461bcd60e51b81526004018080602001828103825260218152602001806106a36021913960400191505060405180910390fd5b60008054600254600354604080516319a742bf60e31b81526001600160a01b0388811660048301526024820188905260448201949094526064810192909252516101009093049091169263cd3a15f89260848084019382900301818387803b15801561068657600080fd5b505af115801561069a573d6000803e3d6000fd5b50505050505056fe536166654d6174683a206d756c7469706c69636174696f6e206f766572666c6f7743726f776473616c653a2062656e656669636961727920697320746865207a65726f2061646472657373a265627a7a7231582099a0dd95ab7339daf29482c25a5a7cd9c24e4d977094da89a69b31c9fd9089a864736f6c63430005110032",
  "source": "pragma solidity ^0.5.11;\n\nimport './PluggableSale.sol';\nimport './Ticket721.sol';\n\ncontract TicketSalePluggable is PluggableSale {\n\n\n\nconstructor(uint256 rate, address payable _origin) PluggableSale(rate, _origin) public {}\n\n\n/**\n*\n* @dev overload buy token function to give allowance to reedem tickets \n*\n*\n*/\nfunction buyTicket(address buyer) public payable {\n    super.buyTokens(buyer);\n    //Ticket721 ticket_token = super.token();\n   // super._token.approve(_wallet,tokens);\n\n    // chek this one more time\n    //ticket_token.setApprovalForEvent(buyer,);\n\n}\n\n// fallback\nfunction() external payable {\n        buyTicket(_msgSender());\n    }\n\n// deprecated\n/*\nfunction redeemTicket(address visitor, uint256 token_id) public {\n    Ticket721 ticket_token = super.token();\n    uint256 event_id = super.event_id();\n    ticket_token.redeemTicket(visitor, token_id, event_id);\n}\n*/\n\nfunction redeemTicket(address visitor, uint256 token_id) public {\n    Ticket721 ticket_token = super.token();\n    uint256 event_id = super.event_id();\n    ticket_token.redeemTicket(visitor, token_id, event_id);\n}\n\n\n\n}",
  "sourcePath": "/home/jack/ethProjects/MS-Factory/contracts/721/singleton/TicketSalePluggable.sol",
  "compiler": {
    "name": "solc",
    "version": "0.5.17+commit.d19bba13.Emscripten.clang"
  },
  "schemaVersion": "3.0.11",
  "updatedAt": "2020-05-16T16:16:14.580Z",
  "devdoc": {
    "methods": {
      "buyTicket(address)": {
        "details": "overload buy token function to give allowance to reedem tickets  *"
      },
      "buyTokens(address)": {
        "details": "low level token purchase ***DO NOT OVERRIDE*** This function has a non-reentrancy guard, so it shouldn't be called by another `nonReentrant` function.",
        "params": {
          "beneficiary": "Recipient of the token purchase"
        }
      },
      "rate()": {
        "return": "the number of token units a buyer gets per wei."
      },
      "token()": {
        "return": "the token being sold."
      },
      "wallet()": {
        "return": "the address where funds are collected."
      },
      "weiRaised()": {
        "return": "the amount of wei raised."
      }
    }
  },
  "userdoc": {
    "methods": {}
  }
}