{
  "contractName": "TicketSalePluggable",
  "abi": [
    {
      "inputs": [
        {
          "internalType": "uint256",
          "name": "rate",
          "type": "uint256"
        },
        {
          "internalType": "address payable",
          "name": "_origin",
          "type": "address"
        },
        {
          "internalType": "uint256",
          "name": "sale_limit",
          "type": "uint256"
        }
      ],
      "payable": false,
      "stateMutability": "nonpayable",
      "type": "constructor"
    },
    {
      "anonymous": false,
      "inputs": [
        {
          "indexed": true,
          "internalType": "address",
          "name": "purchaser",
          "type": "address"
        },
        {
          "indexed": true,
          "internalType": "address",
          "name": "beneficiary",
          "type": "address"
        },
        {
          "indexed": false,
          "internalType": "uint256",
          "name": "value",
          "type": "uint256"
        },
        {
          "indexed": false,
          "internalType": "uint256",
          "name": "amount",
          "type": "uint256"
        }
      ],
      "name": "TokensPurchased",
      "type": "event"
    },
    {
      "payable": true,
      "stateMutability": "payable",
      "type": "fallback"
    },
    {
      "constant": true,
      "inputs": [],
      "name": "_event_id",
      "outputs": [
        {
          "internalType": "uint256",
          "name": "",
          "type": "uint256"
        }
      ],
      "payable": false,
      "stateMutability": "view",
      "type": "function"
    },
    {
      "constant": true,
      "inputs": [],
      "name": "_sold_count",
      "outputs": [
        {
          "internalType": "uint256",
          "name": "",
          "type": "uint256"
        }
      ],
      "payable": false,
      "stateMutability": "view",
      "type": "function"
    },
    {
      "constant": true,
      "inputs": [],
      "name": "_token",
      "outputs": [
        {
          "internalType": "contract Ticket721",
          "name": "",
          "type": "address"
        }
      ],
      "payable": false,
      "stateMutability": "view",
      "type": "function"
    },
    {
      "constant": true,
      "inputs": [],
      "name": "_wallet",
      "outputs": [
        {
          "internalType": "address payable",
          "name": "",
          "type": "address"
        }
      ],
      "payable": false,
      "stateMutability": "view",
      "type": "function"
    },
    {
      "constant": false,
      "inputs": [
        {
          "internalType": "address",
          "name": "beneficiary",
          "type": "address"
        }
      ],
      "name": "buyTokens",
      "outputs": [],
      "payable": true,
      "stateMutability": "payable",
      "type": "function"
    },
    {
      "constant": true,
      "inputs": [],
      "name": "event_id",
      "outputs": [
        {
          "internalType": "uint256",
          "name": "",
          "type": "uint256"
        }
      ],
      "payable": false,
      "stateMutability": "view",
      "type": "function"
    },
    {
      "constant": true,
      "inputs": [],
      "name": "origin_sale",
      "outputs": [
        {
          "internalType": "contract TokenSale721",
          "name": "",
          "type": "address"
        }
      ],
      "payable": false,
      "stateMutability": "view",
      "type": "function"
    },
    {
      "constant": true,
      "inputs": [],
      "name": "rate",
      "outputs": [
        {
          "internalType": "uint256",
          "name": "",
          "type": "uint256"
        }
      ],
      "payable": false,
      "stateMutability": "view",
      "type": "function"
    },
    {
      "constant": true,
      "inputs": [],
      "name": "sale_limit",
      "outputs": [
        {
          "internalType": "uint256",
          "name": "",
          "type": "uint256"
        }
      ],
      "payable": false,
      "stateMutability": "view",
      "type": "function"
    },
    {
      "constant": true,
      "inputs": [],
      "name": "ticket_type",
      "outputs": [
        {
          "internalType": "uint256",
          "name": "",
          "type": "uint256"
        }
      ],
      "payable": false,
      "stateMutability": "view",
      "type": "function"
    },
    {
      "constant": true,
      "inputs": [],
      "name": "token",
      "outputs": [
        {
          "internalType": "contract Ticket721",
          "name": "",
          "type": "address"
        }
      ],
      "payable": false,
      "stateMutability": "view",
      "type": "function"
    },
    {
      "constant": true,
      "inputs": [],
      "name": "wallet",
      "outputs": [
        {
          "internalType": "address payable",
          "name": "",
          "type": "address"
        }
      ],
      "payable": false,
      "stateMutability": "view",
      "type": "function"
    },
    {
      "constant": true,
      "inputs": [],
      "name": "weiRaised",
      "outputs": [
        {
          "internalType": "uint256",
          "name": "",
          "type": "uint256"
        }
      ],
      "payable": false,
      "stateMutability": "view",
      "type": "function"
    },
    {
      "constant": false,
      "inputs": [
        {
          "internalType": "address",
          "name": "buyer",
          "type": "address"
        }
      ],
      "name": "buyTicket",
      "outputs": [],
      "payable": true,
      "stateMutability": "payable",
      "type": "function"
    },
    {
      "constant": false,
      "inputs": [
        {
          "internalType": "address",
          "name": "visitor",
          "type": "address"
        },
        {
          "internalType": "uint256",
          "name": "token_id",
          "type": "uint256"
        }
      ],
      "name": "redeemTicket",
      "outputs": [],
      "payable": false,
      "stateMutability": "nonpayable",
      "type": "function"
    }
  ],
  "bytecode": "0x6080604052600060055534801561001557600080fd5b50604051610b9c380380610b9c8339818101604052606081101561003857600080fd5b50805160208201516040909201516000805460ff19166001179055909190828282826100ab576040805162461bcd60e51b815260206004820152601460248201527f43726f776473616c653a20726174652069732030000000000000000000000000604482015290519081900360640190fd5b6001600160a01b038216610106576040805162461bcd60e51b815260206004820152601d60248201527f6f726967696e2063616e6e6f74206265207a65726f2061646472657373000000604482015290519081900360640190fd5b600180546001600160a01b0319166001600160a01b0384811691909117918290556040805163521eb27360e01b81529051929091169163521eb27391600480820192602092909190829003018186803b15801561016257600080fd5b505afa158015610176573d6000803e3d6000fd5b505050506040513d602081101561018c57600080fd5b5051600680546001600160a01b0319166001600160a01b039283161790556007849055670de0b6b3a76400008202600490815560015460408051637e062a3560e11b81529051919093169263fc0c546a9281810192602092909190829003018186803b1580156101fb57600080fd5b505afa15801561020f573d6000803e3d6000fd5b505050506040513d602081101561022557600080fd5b505160008054610100600160a81b0319166101006001600160a01b039384160217905560015460408051634881cef760e11b8152905191909216916391039dee916004808301926020929190829003018186803b15801561028557600080fd5b505afa158015610299573d6000803e3d6000fd5b505050506040513d60208110156102af57600080fd5b505160028190556000805460065460408051630645c0fb60e41b815260048101959095526001600160a01b03918216602486015251610100909204169263645c0fb09260448083019360209390929083900390910190829087803b15801561031657600080fd5b505af115801561032a573d6000803e3d6000fd5b505050506040513d602081101561034057600080fd5b50516003555050505050506108428061035a6000396000f3fe6080604052600436106100e85760003560e01c806391039dee1161008a578063f00a93d311610059578063f00a93d314610255578063f9cfe26b1461026a578063fbbdc4651461027f578063fc0c546a14610294576100e8565b806391039dee146101df578063a5f8cdbb146101f4578063ec8ac4d81461021a578063ecd0c0c314610240576100e8565b8063521eb273116100c6578063521eb27314610167578063610757e41461017c5780636c1e81e3146101915780636ed08ea0146101ca576100e8565b80632c4e722e146100fa5780634042b66f1461012157806341035a4114610136575b6100f86100f36102a9565b6102ad565b005b34801561010657600080fd5b5061010f6102b9565b60408051918252519081900360200190f35b34801561012d57600080fd5b5061010f6102bf565b34801561014257600080fd5b5061014b6102c5565b604080516001600160a01b039092168252519081900360200190f35b34801561017357600080fd5b5061014b6102d4565b34801561018857600080fd5b5061014b6102e3565b34801561019d57600080fd5b506100f8600480360360408110156101b457600080fd5b506001600160a01b0381351690602001356102f2565b3480156101d657600080fd5b5061010f610390565b3480156101eb57600080fd5b5061010f610396565b6100f86004803603602081101561020a57600080fd5b50356001600160a01b03166102ad565b6100f86004803603602081101561023057600080fd5b50356001600160a01b031661039c565b34801561024c57600080fd5b5061014b6104d3565b34801561026157600080fd5b5061010f6104e7565b34801561027657600080fd5b5061010f6104ed565b34801561028b57600080fd5b5061010f6104f3565b3480156102a057600080fd5b5061014b6104f9565b3390565b6102b68161039c565b50565b60075490565b60085490565b6001546001600160a01b031681565b6006546001600160a01b031690565b6006546001600160a01b031681565b60006102fc6104f9565b90506000610308610396565b9050816001600160a01b031663a27c282e8585846040518463ffffffff1660e01b815260040180846001600160a01b03166001600160a01b031681526020018381526020018281526020019350505050600060405180830381600087803b15801561037257600080fd5b505af1158015610386573d6000803e3d6000fd5b5050505050505050565b60025481565b60025490565b60005460ff166103f3576040805162461bcd60e51b815260206004820152601f60248201527f5265656e7472616e637947756172643a207265656e7472616e742063616c6c00604482015290519081900360640190fd5b6000805460ff1916815534906104088261050d565b9050610415838383610579565b600854610428908363ffffffff61065e16565b60085560055461043e908263ffffffff61065e16565b60055561044b83826106bf565b826001600160a01b031661045d6102a9565b6001600160a01b03167f6faf93231a456e552dbc9961f58d9713ee4f2e69d15f1975b050ef0911053a7b8484604051808381526020018281526020019250505060405180910390a36104af83836106c9565b6104b76106cd565b6104c183836106c9565b50506000805460ff1916600117905550565b60005461010090046001600160a01b031681565b60045490565b60055481565b60035490565b60005461010090046001600160a01b031690565b60006007548210156105505760405162461bcd60e51b815260040180806020018281038252602c8152602001806107e2602c913960400191505060405180910390fd5b6000670de0b6b3a76400006007548161056557fe5b04670de0b6b3a76400008404029392505050565b6001600160a01b0383166105be5760405162461bcd60e51b815260040180806020018281038252602a8152602001806107b8602a913960400191505060405180910390fd5b81610610576040805162461bcd60e51b815260206004820152601960248201527f43726f776473616c653a20776569416d6f756e74206973203000000000000000604482015290519081900360640190fd5b600554600454908201908111156106585760405162461bcd60e51b815260040180806020018281038252602a81526020018061078e602a913960400191505060405180910390fd5b50505050565b6000828201838110156106b8576040805162461bcd60e51b815260206004820152601b60248201527f536166654d6174683a206164646974696f6e206f766572666c6f770000000000604482015290519081900360640190fd5b9392505050565b6106c98282610706565b5050565b6006546040516001600160a01b03909116903480156108fc02916000818181858888f193505050501580156102b6573d6000803e3d6000fd5b60008054600254600354604080516319a742bf60e31b81526001600160a01b0388811660048301526024820188905260448201949094526064810192909252516101009093049091169263cd3a15f89260848084019382900301818387803b15801561077157600080fd5b505af1158015610785573d6000803e3d6000fd5b50505050505056fe746f6b656e7320616d6f756e742073686f756c64206e6f74206578636565642073616c655f6c696d697443726f776473616c653a2062656e656669636961727920697320746865207a65726f206164647265737377656920616d6f756e742073686f756c6420626520626967676572206f7220657175616c206f662072617465a265627a7a723158203d73e6a340740607e1a2cd1e6da600d787ff2f9b6c7b6acd8f8cfc5306b8e16f64736f6c63430005110032",
  "source": "pragma solidity ^0.5.11;\n\nimport './PluggableSale.sol';\nimport './Ticket721.sol';\n\ncontract TicketSalePluggable is PluggableSale {\n\n\n\nconstructor(uint256 rate, address payable _origin, uint sale_limit) PluggableSale(rate, _origin, sale_limit) public {}\n\n\n/**\n*\n* @dev overload buy token function to give allowance to reedem tickets \n*\n*\n*/\nfunction buyTicket(address buyer) public payable {\n    super.buyTokens(buyer);\n    //Ticket721 ticket_token = super.token();\n   // super._token.approve(_wallet,tokens);\n\n    // chek this one more time\n    //ticket_token.setApprovalForEvent(buyer,);\n\n}\n\n// fallback\nfunction() external payable {\n        buyTicket(_msgSender());\n    }\n\n// deprecated\n/*\nfunction redeemTicket(address visitor, uint256 token_id) public {\n    Ticket721 ticket_token = super.token();\n    uint256 event_id = super.event_id();\n    ticket_token.redeemTicket(visitor, token_id, event_id);\n}\n*/\n\nfunction redeemTicket(address visitor, uint256 token_id) public {\n    Ticket721 ticket_token = super.token();\n    uint256 event_id = super.event_id();\n    ticket_token.redeemTicket(visitor, token_id, event_id);\n}\n\n\n\n}",
  "sourcePath": "/home/jack/ethProjects/MS-Factory/contracts/721/singleton/TicketSalePluggable.sol",
  "compiler": {
    "name": "solc",
    "version": "0.5.17+commit.d19bba13.Emscripten.clang"
  },
  "schemaVersion": "3.0.11",
  "updatedAt": "2020-05-29T13:01:46.258Z",
  "devdoc": {
    "methods": {
      "buyTicket(address)": {
        "details": "overload buy token function to give allowance to reedem tickets  *"
      },
      "buyTokens(address)": {
        "details": "low level token purchase ***DO NOT OVERRIDE*** This function has a non-reentrancy guard, so it shouldn't be called by another `nonReentrant` function.",
        "params": {
          "beneficiary": "Recipient of the token purchase"
        }
      },
      "rate()": {
        "return": "the number of token units a buyer gets per wei."
      },
      "token()": {
        "return": "the token being sold."
      },
      "wallet()": {
        "return": "the address where funds are collected."
      },
      "weiRaised()": {
        "return": "the amount of wei raised."
      }
    }
  },
  "userdoc": {
    "methods": {}
  }
}