{
  "contractName": "Ticket721",
  "abi": [
    {
      "inputs": [],
      "payable": false,
      "stateMutability": "nonpayable",
      "type": "constructor"
    },
    {
      "anonymous": false,
      "inputs": [
        {
          "indexed": true,
          "internalType": "address",
          "name": "owner",
          "type": "address"
        },
        {
          "indexed": true,
          "internalType": "address",
          "name": "approved",
          "type": "address"
        },
        {
          "indexed": true,
          "internalType": "uint256",
          "name": "tokenId",
          "type": "uint256"
        }
      ],
      "name": "Approval",
      "type": "event"
    },
    {
      "anonymous": false,
      "inputs": [
        {
          "indexed": true,
          "internalType": "address",
          "name": "owner",
          "type": "address"
        },
        {
          "indexed": true,
          "internalType": "address",
          "name": "operator",
          "type": "address"
        },
        {
          "indexed": false,
          "internalType": "bool",
          "name": "approved",
          "type": "bool"
        }
      ],
      "name": "ApprovalForAll",
      "type": "event"
    },
    {
      "anonymous": false,
      "inputs": [
        {
          "indexed": true,
          "internalType": "address",
          "name": "ticket_sale",
          "type": "address"
        },
        {
          "indexed": true,
          "internalType": "uint256",
          "name": "event_id",
          "type": "uint256"
        }
      ],
      "name": "EventIdReserved",
      "type": "event"
    },
    {
      "anonymous": false,
      "inputs": [
        {
          "indexed": false,
          "internalType": "address",
          "name": "ticket_sale",
          "type": "address"
        },
        {
          "indexed": false,
          "internalType": "uint256",
          "name": "event_id",
          "type": "uint256"
        }
      ],
      "name": "EventIdReservedHuman",
      "type": "event"
    },
    {
      "anonymous": false,
      "inputs": [
        {
          "indexed": true,
          "internalType": "address",
          "name": "account",
          "type": "address"
        }
      ],
      "name": "MinterAdded",
      "type": "event"
    },
    {
      "anonymous": false,
      "inputs": [
        {
          "indexed": true,
          "internalType": "address",
          "name": "account",
          "type": "address"
        }
      ],
      "name": "MinterRemoved",
      "type": "event"
    },
    {
      "anonymous": false,
      "inputs": [
        {
          "indexed": true,
          "internalType": "address",
          "name": "visitor_wallet",
          "type": "address"
        },
        {
          "indexed": true,
          "internalType": "uint256",
          "name": "event_id",
          "type": "uint256"
        },
        {
          "indexed": true,
          "internalType": "uint256",
          "name": "ticket_id",
          "type": "uint256"
        }
      ],
      "name": "TicketBought",
      "type": "event"
    },
    {
      "anonymous": false,
      "inputs": [
        {
          "indexed": false,
          "internalType": "address",
          "name": "visitor_wallet",
          "type": "address"
        },
        {
          "indexed": false,
          "internalType": "uint256",
          "name": "event_id",
          "type": "uint256"
        },
        {
          "indexed": false,
          "internalType": "uint256",
          "name": "ticket_id",
          "type": "uint256"
        }
      ],
      "name": "TicketBoughtHuman",
      "type": "event"
    },
    {
      "anonymous": false,
      "inputs": [
        {
          "indexed": true,
          "internalType": "address",
          "name": "visitor_wallet",
          "type": "address"
        },
        {
          "indexed": true,
          "internalType": "uint256",
          "name": "event_id",
          "type": "uint256"
        },
        {
          "indexed": true,
          "internalType": "uint256",
          "name": "ticket_id",
          "type": "uint256"
        }
      ],
      "name": "TicketFulfilled",
      "type": "event"
    },
    {
      "anonymous": false,
      "inputs": [
        {
          "indexed": false,
          "internalType": "address",
          "name": "visitor_wallet",
          "type": "address"
        },
        {
          "indexed": false,
          "internalType": "uint256",
          "name": "event_id",
          "type": "uint256"
        },
        {
          "indexed": false,
          "internalType": "uint256",
          "name": "ticket_id",
          "type": "uint256"
        }
      ],
      "name": "TicketFulfilledHuman",
      "type": "event"
    },
    {
      "anonymous": false,
      "inputs": [
        {
          "indexed": true,
          "internalType": "address",
          "name": "from",
          "type": "address"
        },
        {
          "indexed": true,
          "internalType": "address",
          "name": "to",
          "type": "address"
        },
        {
          "indexed": true,
          "internalType": "uint256",
          "name": "tokenId",
          "type": "uint256"
        }
      ],
      "name": "Transfer",
      "type": "event"
    },
    {
      "constant": true,
      "inputs": [
        {
          "internalType": "uint256",
          "name": "",
          "type": "uint256"
        }
      ],
      "name": "JIDs",
      "outputs": [
        {
          "internalType": "string",
          "name": "",
          "type": "string"
        }
      ],
      "payable": false,
      "stateMutability": "view",
      "type": "function"
    },
    {
      "constant": false,
      "inputs": [
        {
          "internalType": "address",
          "name": "account",
          "type": "address"
        }
      ],
      "name": "addMinter",
      "outputs": [],
      "payable": false,
      "stateMutability": "nonpayable",
      "type": "function"
    },
    {
      "constant": false,
      "inputs": [
        {
          "internalType": "address",
          "name": "to",
          "type": "address"
        },
        {
          "internalType": "uint256",
          "name": "tokenId",
          "type": "uint256"
        }
      ],
      "name": "approve",
      "outputs": [],
      "payable": false,
      "stateMutability": "nonpayable",
      "type": "function"
    },
    {
      "constant": true,
      "inputs": [
        {
          "internalType": "address",
          "name": "owner",
          "type": "address"
        }
      ],
      "name": "balanceOf",
      "outputs": [
        {
          "internalType": "uint256",
          "name": "",
          "type": "uint256"
        }
      ],
      "payable": false,
      "stateMutability": "view",
      "type": "function"
    },
    {
      "constant": true,
      "inputs": [
        {
          "internalType": "uint256",
          "name": "",
          "type": "uint256"
        },
        {
          "internalType": "uint256",
          "name": "",
          "type": "uint256"
        }
      ],
      "name": "eventsales",
      "outputs": [
        {
          "internalType": "address",
          "name": "",
          "type": "address"
        }
      ],
      "payable": false,
      "stateMutability": "view",
      "type": "function"
    },
    {
      "constant": true,
      "inputs": [
        {
          "internalType": "uint256",
          "name": "tokenId",
          "type": "uint256"
        }
      ],
      "name": "getApproved",
      "outputs": [
        {
          "internalType": "address",
          "name": "",
          "type": "address"
        }
      ],
      "payable": false,
      "stateMutability": "view",
      "type": "function"
    },
    {
      "constant": true,
      "inputs": [
        {
          "internalType": "address",
          "name": "owner",
          "type": "address"
        },
        {
          "internalType": "address",
          "name": "operator",
          "type": "address"
        }
      ],
      "name": "isApprovedForAll",
      "outputs": [
        {
          "internalType": "bool",
          "name": "",
          "type": "bool"
        }
      ],
      "payable": false,
      "stateMutability": "view",
      "type": "function"
    },
    {
      "constant": true,
      "inputs": [
        {
          "internalType": "address",
          "name": "account",
          "type": "address"
        }
      ],
      "name": "isMinter",
      "outputs": [
        {
          "internalType": "bool",
          "name": "",
          "type": "bool"
        }
      ],
      "payable": false,
      "stateMutability": "view",
      "type": "function"
    },
    {
      "constant": false,
      "inputs": [
        {
          "internalType": "address",
          "name": "to",
          "type": "address"
        },
        {
          "internalType": "uint256",
          "name": "tokenId",
          "type": "uint256"
        }
      ],
      "name": "mint",
      "outputs": [
        {
          "internalType": "bool",
          "name": "",
          "type": "bool"
        }
      ],
      "payable": false,
      "stateMutability": "nonpayable",
      "type": "function"
    },
    {
      "constant": true,
      "inputs": [
        {
          "internalType": "uint256",
          "name": "tokenId",
          "type": "uint256"
        }
      ],
      "name": "ownerOf",
      "outputs": [
        {
          "internalType": "address",
          "name": "",
          "type": "address"
        }
      ],
      "payable": false,
      "stateMutability": "view",
      "type": "function"
    },
    {
      "constant": false,
      "inputs": [],
      "name": "renounceMinter",
      "outputs": [],
      "payable": false,
      "stateMutability": "nonpayable",
      "type": "function"
    },
    {
      "constant": false,
      "inputs": [
        {
          "internalType": "address",
          "name": "to",
          "type": "address"
        },
        {
          "internalType": "uint256",
          "name": "tokenId",
          "type": "uint256"
        },
        {
          "internalType": "bytes",
          "name": "_data",
          "type": "bytes"
        }
      ],
      "name": "safeMint",
      "outputs": [
        {
          "internalType": "bool",
          "name": "",
          "type": "bool"
        }
      ],
      "payable": false,
      "stateMutability": "nonpayable",
      "type": "function"
    },
    {
      "constant": false,
      "inputs": [
        {
          "internalType": "address",
          "name": "to",
          "type": "address"
        },
        {
          "internalType": "uint256",
          "name": "tokenId",
          "type": "uint256"
        }
      ],
      "name": "safeMint",
      "outputs": [
        {
          "internalType": "bool",
          "name": "",
          "type": "bool"
        }
      ],
      "payable": false,
      "stateMutability": "nonpayable",
      "type": "function"
    },
    {
      "constant": false,
      "inputs": [
        {
          "internalType": "address",
          "name": "from",
          "type": "address"
        },
        {
          "internalType": "address",
          "name": "to",
          "type": "address"
        },
        {
          "internalType": "uint256",
          "name": "tokenId",
          "type": "uint256"
        }
      ],
      "name": "safeTransferFrom",
      "outputs": [],
      "payable": false,
      "stateMutability": "nonpayable",
      "type": "function"
    },
    {
      "constant": false,
      "inputs": [
        {
          "internalType": "address",
          "name": "from",
          "type": "address"
        },
        {
          "internalType": "address",
          "name": "to",
          "type": "address"
        },
        {
          "internalType": "uint256",
          "name": "tokenId",
          "type": "uint256"
        },
        {
          "internalType": "bytes",
          "name": "_data",
          "type": "bytes"
        }
      ],
      "name": "safeTransferFrom",
      "outputs": [],
      "payable": false,
      "stateMutability": "nonpayable",
      "type": "function"
    },
    {
      "constant": false,
      "inputs": [
        {
          "internalType": "address",
          "name": "to",
          "type": "address"
        },
        {
          "internalType": "bool",
          "name": "approved",
          "type": "bool"
        }
      ],
      "name": "setApprovalForAll",
      "outputs": [],
      "payable": false,
      "stateMutability": "nonpayable",
      "type": "function"
    },
    {
      "constant": true,
      "inputs": [
        {
          "internalType": "bytes4",
          "name": "interfaceId",
          "type": "bytes4"
        }
      ],
      "name": "supportsInterface",
      "outputs": [
        {
          "internalType": "bool",
          "name": "",
          "type": "bool"
        }
      ],
      "payable": false,
      "stateMutability": "view",
      "type": "function"
    },
    {
      "constant": true,
      "inputs": [
        {
          "internalType": "uint256",
          "name": "",
          "type": "uint256"
        },
        {
          "internalType": "uint256",
          "name": "",
          "type": "uint256"
        }
      ],
      "name": "ticketIds",
      "outputs": [
        {
          "internalType": "uint256",
          "name": "",
          "type": "uint256"
        }
      ],
      "payable": false,
      "stateMutability": "view",
      "type": "function"
    },
    {
      "constant": true,
      "inputs": [
        {
          "internalType": "uint256",
          "name": "",
          "type": "uint256"
        }
      ],
      "name": "ticketInfoStorage",
      "outputs": [
        {
          "internalType": "enum Ticket721.TicketState",
          "name": "state",
          "type": "uint8"
        },
        {
          "internalType": "uint256",
          "name": "ticket_type",
          "type": "uint256"
        },
        {
          "internalType": "string",
          "name": "event_JID",
          "type": "string"
        }
      ],
      "payable": false,
      "stateMutability": "view",
      "type": "function"
    },
    {
      "constant": true,
      "inputs": [
        {
          "internalType": "uint256",
          "name": "index",
          "type": "uint256"
        }
      ],
      "name": "tokenByIndex",
      "outputs": [
        {
          "internalType": "uint256",
          "name": "",
          "type": "uint256"
        }
      ],
      "payable": false,
      "stateMutability": "view",
      "type": "function"
    },
    {
      "constant": true,
      "inputs": [
        {
          "internalType": "address",
          "name": "owner",
          "type": "address"
        },
        {
          "internalType": "uint256",
          "name": "index",
          "type": "uint256"
        }
      ],
      "name": "tokenOfOwnerByIndex",
      "outputs": [
        {
          "internalType": "uint256",
          "name": "",
          "type": "uint256"
        }
      ],
      "payable": false,
      "stateMutability": "view",
      "type": "function"
    },
    {
      "constant": true,
      "inputs": [],
      "name": "totalSupply",
      "outputs": [
        {
          "internalType": "uint256",
          "name": "",
          "type": "uint256"
        }
      ],
      "payable": false,
      "stateMutability": "view",
      "type": "function"
    },
    {
      "constant": false,
      "inputs": [
        {
          "internalType": "address",
          "name": "from",
          "type": "address"
        },
        {
          "internalType": "address",
          "name": "to",
          "type": "address"
        },
        {
          "internalType": "uint256",
          "name": "tokenId",
          "type": "uint256"
        }
      ],
      "name": "transferFrom",
      "outputs": [],
      "payable": false,
      "stateMutability": "nonpayable",
      "type": "function"
    },
    {
      "constant": false,
      "inputs": [
        {
          "internalType": "address",
          "name": "from",
          "type": "address"
        },
        {
          "internalType": "address",
          "name": "to",
          "type": "address"
        },
        {
          "internalType": "uint256",
          "name": "tokenId",
          "type": "uint256"
        }
      ],
      "name": "_transferFromTicket",
      "outputs": [],
      "payable": false,
      "stateMutability": "nonpayable",
      "type": "function"
    },
    {
      "constant": false,
      "inputs": [
        {
          "internalType": "address",
          "name": "orginizer",
          "type": "address"
        },
        {
          "internalType": "string",
          "name": "jid",
          "type": "string"
        }
      ],
      "name": "reserveEventId",
      "outputs": [
        {
          "internalType": "uint256",
          "name": "event_id",
          "type": "uint256"
        }
      ],
      "payable": false,
      "stateMutability": "nonpayable",
      "type": "function"
    },
    {
      "constant": false,
      "inputs": [
        {
          "internalType": "uint256",
          "name": "event_id",
          "type": "uint256"
        },
        {
          "internalType": "address",
          "name": "orginizer",
          "type": "address"
        }
      ],
      "name": "plugSale",
      "outputs": [
        {
          "internalType": "uint256",
          "name": "",
          "type": "uint256"
        }
      ],
      "payable": false,
      "stateMutability": "nonpayable",
      "type": "function"
    },
    {
      "constant": false,
      "inputs": [
        {
          "internalType": "address",
          "name": "buyer",
          "type": "address"
        },
        {
          "internalType": "uint256",
          "name": "ticketAmount",
          "type": "uint256"
        },
        {
          "internalType": "uint256",
          "name": "event_id",
          "type": "uint256"
        },
        {
          "internalType": "uint256",
          "name": "_ticket_type",
          "type": "uint256"
        }
      ],
      "name": "buyTicket",
      "outputs": [],
      "payable": false,
      "stateMutability": "nonpayable",
      "type": "function"
    },
    {
      "constant": false,
      "inputs": [
        {
          "internalType": "address",
          "name": "visitor",
          "type": "address"
        },
        {
          "internalType": "uint256",
          "name": "tokenId",
          "type": "uint256"
        },
        {
          "internalType": "uint256",
          "name": "event_id",
          "type": "uint256"
        }
      ],
      "name": "redeemTicket",
      "outputs": [],
      "payable": false,
      "stateMutability": "nonpayable",
      "type": "function"
    },
    {
      "constant": true,
      "inputs": [
        {
          "internalType": "uint256",
          "name": "event_id",
          "type": "uint256"
        }
      ],
      "name": "getTicketTypeCount",
      "outputs": [
        {
          "internalType": "uint256",
          "name": "",
          "type": "uint256"
        }
      ],
      "payable": false,
      "stateMutability": "view",
      "type": "function"
    },
    {
      "constant": true,
      "inputs": [
        {
          "internalType": "address",
          "name": "_owner",
          "type": "address"
        }
      ],
      "name": "getTicketByOwner",
      "outputs": [
        {
          "internalType": "uint256[]",
          "name": "",
          "type": "uint256[]"
        }
      ],
      "payable": false,
      "stateMutability": "view",
      "type": "function"
    },
    {
      "constant": true,
      "inputs": [
        {
          "internalType": "uint256",
          "name": "event_id",
          "type": "uint256"
        }
      ],
      "name": "getTicketSales",
      "outputs": [
        {
          "internalType": "address[]",
          "name": "",
          "type": "address[]"
        }
      ],
      "payable": false,
      "stateMutability": "view",
      "type": "function"
    },
    {
      "constant": true,
      "inputs": [
        {
          "internalType": "uint256",
          "name": "event_id",
          "type": "uint256"
        }
      ],
      "name": "getJidbyEventID",
      "outputs": [
        {
          "internalType": "string",
          "name": "jid",
          "type": "string"
        }
      ],
      "payable": false,
      "stateMutability": "view",
      "type": "function"
    },
    {
      "constant": true,
      "inputs": [
        {
          "internalType": "uint256",
          "name": "ticket_id",
          "type": "uint256"
        }
      ],
      "name": "getJidByTicketId",
      "outputs": [
        {
          "internalType": "string",
          "name": "jid",
          "type": "string"
        }
      ],
      "payable": false,
      "stateMutability": "view",
      "type": "function"
    }
  ],
  "bytecode": "0x60806040523480156200001157600080fd5b506200002a6301ffc9a760e01b6200009160201b60201c565b620000426380ac58cd60e01b6200009160201b60201c565b6200005a63780e9d6360e01b6200009160201b60201c565b6200007a6200006e6200019a60201b60201c565b620001a260201b60201c565b6200008b30620001a260201b60201c565b620003c7565b63ffffffff60e01b817bffffffffffffffffffffffffffffffffffffffffffffffffffffffff191614156200012e576040517f08c379a000000000000000000000000000000000000000000000000000000000815260040180806020018281038252601c8152602001807f4552433136353a20696e76616c696420696e746572666163652069640000000081525060200191505060405180910390fd5b6001600080837bffffffffffffffffffffffffffffffffffffffffffffffffffffffff19167bffffffffffffffffffffffffffffffffffffffffffffffffffffffff1916815260200190815260200160002060006101000a81548160ff02191690831515021790555050565b600033905090565b620001bd8160096200020360201b62003dc21790919060201c565b8073ffffffffffffffffffffffffffffffffffffffff167f6ae172837ea30b801fbfcdd4108aa1d5bf8ff775444fd70256b44e6bf3dfc3f660405160405180910390a250565b620002158282620002e760201b60201c565b1562000289576040517f08c379a000000000000000000000000000000000000000000000000000000000815260040180806020018281038252601f8152602001807f526f6c65733a206163636f756e7420616c72656164792068617320726f6c650081525060200191505060405180910390fd5b60018260000160008373ffffffffffffffffffffffffffffffffffffffff1673ffffffffffffffffffffffffffffffffffffffff16815260200190815260200160002060006101000a81548160ff0219169083151502179055505050565b60008073ffffffffffffffffffffffffffffffffffffffff168273ffffffffffffffffffffffffffffffffffffffff16141562000370576040517f08c379a0000000000000000000000000000000000000000000000000000000008152600401808060200182810382526022815260200180620049f66022913960400191505060405180910390fd5b8260000160008373ffffffffffffffffffffffffffffffffffffffff1673ffffffffffffffffffffffffffffffffffffffff16815260200190815260200160002060009054906101000a900460ff16905092915050565b61461f80620003d76000396000f3fe608060405234801561001057600080fd5b50600436106101fb5760003560e01c806378df3a521161011a578063a22cb465116100ad578063ad140b1d1161007c578063ad140b1d14610e50578063b88d4fde14610ef7578063cd3a15f814610ffc578063e985e9c51461105e578063ec95d2d0146110da576101fb565b8063a22cb46514610cde578063a27c282e14610d2e578063aa271e1a14610d86578063ab31520a14610de2576101fb565b806398650275116100e95780639865027514610b075780639b1d8baf14610b11578063a144819414610b89578063a201b23814610bef576101fb565b806378df3a52146108d357806385c393f81461091f5780638832e6e3146109c6578063983b2d5614610ac3576101fb565b8063376b029a116101925780634f6ccce7116101615780634f6ccce7146107695780636352211e146107ab578063645c0fb01461081957806370a082311461087b576101fb565b8063376b029a1461057957806340c10f191461061257806342842e0e1461067857806344bb8aff146106e6576101fb565b80631d663f10116101ce5780631d663f101461033f5780631eb8098e1461040257806323b872dd146104a95780632f745c5914610517576101fb565b806301ffc9a714610200578063081812fc14610265578063095ea7b3146102d357806318160ddd14610321575b600080fd5b61024b6004803603602081101561021657600080fd5b8101908080357bffffffffffffffffffffffffffffffffffffffffffffffffffffffff1916906020019092919050505061111c565b604051808215151515815260200191505060405180910390f35b6102916004803603602081101561027b57600080fd5b8101908080359060200190929190505050611183565b604051808273ffffffffffffffffffffffffffffffffffffffff1673ffffffffffffffffffffffffffffffffffffffff16815260200191505060405180910390f35b61031f600480360360408110156102e957600080fd5b81019080803573ffffffffffffffffffffffffffffffffffffffff1690602001909291908035906020019092919050505061121e565b005b610329611405565b6040518082815260200191505060405180910390f35b61036b6004803603602081101561035557600080fd5b8101908080359060200190929190505050611412565b6040518084600381111561037b57fe5b60ff16815260200183815260200180602001828103825283818151815260200191508051906020019080838360005b838110156103c55780820151818401526020810190506103aa565b50505050905090810190601f1680156103f25780820380516001836020036101000a031916815260200191505b5094505050505060405180910390f35b61042e6004803603602081101561041857600080fd5b81019080803590602001909291905050506114e1565b6040518080602001828103825283818151815260200191508051906020019080838360005b8381101561046e578082015181840152602081019050610453565b50505050905090810190601f16801561049b5780820380516001836020036101000a031916815260200191505b509250505060405180910390f35b610515600480360360608110156104bf57600080fd5b81019080803573ffffffffffffffffffffffffffffffffffffffff169060200190929190803573ffffffffffffffffffffffffffffffffffffffff169060200190929190803590602001909291905050506115f4565b005b6105636004803603604081101561052d57600080fd5b81019080803573ffffffffffffffffffffffffffffffffffffffff1690602001909291908035906020019092919050505061166a565b6040518082815260200191505060405180910390f35b6105bb6004803603602081101561058f57600080fd5b81019080803573ffffffffffffffffffffffffffffffffffffffff169060200190929190505050611729565b6040518080602001828103825283818151815260200191508051906020019060200280838360005b838110156105fe5780820151818401526020810190506105e3565b505050509050019250505060405180910390f35b61065e6004803603604081101561062857600080fd5b81019080803573ffffffffffffffffffffffffffffffffffffffff16906020019092919080359060200190929190505050611790565b604051808215151515815260200191505060405180910390f35b6106e46004803603606081101561068e57600080fd5b81019080803573ffffffffffffffffffffffffffffffffffffffff169060200190929190803573ffffffffffffffffffffffffffffffffffffffff1690602001909291908035906020019092919050505061180b565b005b610712600480360360208110156106fc57600080fd5b810190808035906020019092919050505061182b565b6040518080602001828103825283818151815260200191508051906020019060200280838360005b8381101561075557808201518184015260208101905061073a565b505050509050019250505060405180910390f35b6107956004803603602081101561077f57600080fd5b81019080803590602001909291905050506118d1565b6040518082815260200191505060405180910390f35b6107d7600480360360208110156107c157600080fd5b8101908080359060200190929190505050611951565b604051808273ffffffffffffffffffffffffffffffffffffffff1673ffffffffffffffffffffffffffffffffffffffff16815260200191505060405180910390f35b6108656004803603604081101561082f57600080fd5b8101908080359060200190929190803573ffffffffffffffffffffffffffffffffffffffff169060200190929190505050611a19565b6040518082815260200191505060405180910390f35b6108bd6004803603602081101561089157600080fd5b81019080803573ffffffffffffffffffffffffffffffffffffffff169060200190929190505050611c66565b6040518082815260200191505060405180910390f35b610909600480360360408110156108e957600080fd5b810190808035906020019092919080359060200190929190505050611d3b565b6040518082815260200191505060405180910390f35b61094b6004803603602081101561093557600080fd5b8101908080359060200190929190505050611d69565b6040518080602001828103825283818151815260200191508051906020019080838360005b8381101561098b578082015181840152602081019050610970565b50505050905090810190601f1680156109b85780820380516001836020036101000a031916815260200191505b509250505060405180910390f35b610aa9600480360360608110156109dc57600080fd5b81019080803573ffffffffffffffffffffffffffffffffffffffff1690602001909291908035906020019092919080359060200190640100000000811115610a2357600080fd5b820183602082011115610a3557600080fd5b80359060200191846001830284011164010000000083111715610a5757600080fd5b91908080601f016020809104026020016040519081016040528093929190818152602001838380828437600081840152601f19601f820116905080830192505050505050509192919290505050611e21565b604051808215151515815260200191505060405180910390f35b610b0560048036036020811015610ad957600080fd5b81019080803573ffffffffffffffffffffffffffffffffffffffff169060200190929190505050611e9e565b005b610b0f611f0f565b005b610b4760048036036040811015610b2757600080fd5b810190808035906020019092919080359060200190929190505050611f21565b604051808273ffffffffffffffffffffffffffffffffffffffff1673ffffffffffffffffffffffffffffffffffffffff16815260200191505060405180910390f35b610bd560048036036040811015610b9f57600080fd5b81019080803573ffffffffffffffffffffffffffffffffffffffff16906020019092919080359060200190929190505050611f6c565b604051808215151515815260200191505060405180910390f35b610cc860048036036040811015610c0557600080fd5b81019080803573ffffffffffffffffffffffffffffffffffffffff16906020019092919080359060200190640100000000811115610c4257600080fd5b820183602082011115610c5457600080fd5b80359060200191846001830284011164010000000083111715610c7657600080fd5b91908080601f016020809104026020016040519081016040528093929190818152602001838380828437600081840152601f19601f820116905080830192505050505050509192919290505050611fe7565b6040518082815260200191505060405180910390f35b610d2c60048036036040811015610cf457600080fd5b81019080803573ffffffffffffffffffffffffffffffffffffffff1690602001909291908035151590602001909291905050506121dd565b005b610d8460048036036060811015610d4457600080fd5b81019080803573ffffffffffffffffffffffffffffffffffffffff1690602001909291908035906020019092919080359060200190929190505050612395565b005b610dc860048036036020811015610d9c57600080fd5b81019080803573ffffffffffffffffffffffffffffffffffffffff1690602001909291905050506127cb565b604051808215151515815260200191505060405180910390f35b610e4e60048036036060811015610df857600080fd5b81019080803573ffffffffffffffffffffffffffffffffffffffff169060200190929190803573ffffffffffffffffffffffffffffffffffffffff169060200190929190803590602001909291905050506127e8565b005b610e7c60048036036020811015610e6657600080fd5b81019080803590602001909291905050506127f8565b6040518080602001828103825283818151815260200191508051906020019080838360005b83811015610ebc578082015181840152602081019050610ea1565b50505050905090810190601f168015610ee95780820380516001836020036101000a031916815260200191505b509250505060405180910390f35b610ffa60048036036080811015610f0d57600080fd5b81019080803573ffffffffffffffffffffffffffffffffffffffff169060200190929190803573ffffffffffffffffffffffffffffffffffffffff1690602001909291908035906020019092919080359060200190640100000000811115610f7457600080fd5b820183602082011115610f8657600080fd5b80359060200191846001830284011164010000000083111715610fa857600080fd5b91908080601f016020809104026020016040519081016040528093929190818152602001838380828437600081840152601f19601f8201169050808301925050505050505091929192905050506128a8565b005b61105c6004803603608081101561101257600080fd5b81019080803573ffffffffffffffffffffffffffffffffffffffff169060200190929190803590602001909291908035906020019092919080359060200190929190505050612920565b005b6110c06004803603604081101561107457600080fd5b81019080803573ffffffffffffffffffffffffffffffffffffffff169060200190929190803573ffffffffffffffffffffffffffffffffffffffff169060200190929190505050612c6a565b604051808215151515815260200191505060405180910390f35b611106600480360360208110156110f057600080fd5b8101908080359060200190929190505050612cfe565b6040518082815260200191505060405180910390f35b6000806000837bffffffffffffffffffffffffffffffffffffffffffffffffffffffff19167bffffffffffffffffffffffffffffffffffffffffffffffffffffffff1916815260200190815260200160002060009054906101000a900460ff169050919050565b600061118e82612dac565b6111e3576040517f08c379a000000000000000000000000000000000000000000000000000000000815260040180806020018281038252602c8152602001806144f6602c913960400191505060405180910390fd5b6002600083815260200190815260200160002060009054906101000a900473ffffffffffffffffffffffffffffffffffffffff169050919050565b600061122982611951565b90508073ffffffffffffffffffffffffffffffffffffffff168373ffffffffffffffffffffffffffffffffffffffff1614156112b0576040517f08c379a000000000000000000000000000000000000000000000000000000000815260040180806020018281038252602181526020018061456d6021913960400191505060405180910390fd5b8073ffffffffffffffffffffffffffffffffffffffff166112cf612e1e565b73ffffffffffffffffffffffffffffffffffffffff1614806112fe57506112fd816112f8612e1e565b612c6a565b5b611353576040517f08c379a000000000000000000000000000000000000000000000000000000000815260040180806020018281038252603881526020018061441a6038913960400191505060405180910390fd5b826002600084815260200190815260200160002060006101000a81548173ffffffffffffffffffffffffffffffffffffffff021916908373ffffffffffffffffffffffffffffffffffffffff160217905550818373ffffffffffffffffffffffffffffffffffffffff168273ffffffffffffffffffffffffffffffffffffffff167f8c5be1e5ebec7d5bd14f71427d1e84f3dd0314c0f7b2291e5b200ac8c7c3b92560405160405180910390a4505050565b6000600780549050905090565b600f6020528060005260406000206000915090508060000160009054906101000a900460ff1690806001015490806002018054600181600116156101000203166002900480601f0160208091040260200160405190810160405280929190818152602001828054600181600116156101000203166002900480156114d75780601f106114ac576101008083540402835291602001916114d7565b820191906000526020600020905b8154815290600101906020018083116114ba57829003601f168201915b5050505050905083565b60606114eb614190565b600f60008481526020019081526020016000206040518060600160405290816000820160009054906101000a900460ff16600381111561152757fe5b600381111561153257fe5b815260200160018201548152602001600282018054600181600116156101000203166002900480601f0160208091040260200160405190810160405280929190818152602001828054600181600116156101000203166002900480156115d95780601f106115ae576101008083540402835291602001916115d9565b820191906000526020600020905b8154815290600101906020018083116115bc57829003601f168201915b50505050508152505090508060400151915081915050919050565b6116056115ff612e1e565b82612e26565b61165a576040517f08c379a000000000000000000000000000000000000000000000000000000000815260040180806020018281038252603181526020018061458e6031913960400191505060405180910390fd5b611665838383612f1a565b505050565b600061167583611c66565b82106116cc576040517f08c379a000000000000000000000000000000000000000000000000000000000815260040180806020018281038252602b81526020018061433b602b913960400191505060405180910390fd5b600560008473ffffffffffffffffffffffffffffffffffffffff1673ffffffffffffffffffffffffffffffffffffffff168152602001908152602001600020828154811061171657fe5b9060005260206000200154905092915050565b6060600061173683612f3e565b90508080548060200260200160405190810160405280929190818152602001828054801561178357602002820191906000526020600020905b81548152602001906001019080831161176f575b5050505050915050919050565b60006117a261179d612e1e565b6127cb565b6117f7576040517f08c379a00000000000000000000000000000000000000000000000000000000081526004018080602001828103825260308152602001806144a56030913960400191505060405180910390fd5b6118018383612f86565b6001905092915050565b611826838383604051806020016040528060008152506128a8565b505050565b606080600c60008481526020019081526020016000208054806020026020016040519081016040528092919081815260200182805480156118c157602002820191906000526020600020905b8160009054906101000a900473ffffffffffffffffffffffffffffffffffffffff1673ffffffffffffffffffffffffffffffffffffffff1681526020019060010190808311611877575b5050505050905080915050919050565b60006118db611405565b8210611932576040517f08c379a000000000000000000000000000000000000000000000000000000000815260040180806020018281038252602c8152602001806145bf602c913960400191505060405180910390fd5b6007828154811061193f57fe5b90600052602060002001549050919050565b6000806001600084815260200190815260200160002060009054906101000a900473ffffffffffffffffffffffffffffffffffffffff169050600073ffffffffffffffffffffffffffffffffffffffff168173ffffffffffffffffffffffffffffffffffffffff161415611a10576040517f08c379a000000000000000000000000000000000000000000000000000000000815260040180806020018281038252602981526020018061447c6029913960400191505060405180910390fd5b80915050919050565b60006060600c6000858152602001908152602001600020805480602002602001604051908101604052809291908181526020018280548015611ab057602002820191906000526020600020905b8160009054906101000a900473ffffffffffffffffffffffffffffffffffffffff1673ffffffffffffffffffffffffffffffffffffffff1681526020019060010190808311611a66575b50505050509050600081600081518110611ac657fe5b602002602001015190508373ffffffffffffffffffffffffffffffffffffffff16601060008373ffffffffffffffffffffffffffffffffffffffff1673ffffffffffffffffffffffffffffffffffffffff16815260200190815260200160002060009054906101000a900473ffffffffffffffffffffffffffffffffffffffff1673ffffffffffffffffffffffffffffffffffffffff1614611bd0576040517f08c379a000000000000000000000000000000000000000000000000000000000815260040180806020018281038252601c8152602001807f6f6e6c79206f7267696e697a65722063616e20706c7567206974656d0000000081525060200191505060405180910390fd5b600c60008681526020019081526020016000203390806001815401808255809150509060018203906000526020600020016000909192909190916101000a81548173ffffffffffffffffffffffffffffffffffffffff021916908373ffffffffffffffffffffffffffffffffffffffff160217905550506000611c5286612cfe565b905060018101905080935050505092915050565b60008073ffffffffffffffffffffffffffffffffffffffff168273ffffffffffffffffffffffffffffffffffffffff161415611ced576040517f08c379a000000000000000000000000000000000000000000000000000000000815260040180806020018281038252602a815260200180614452602a913960400191505060405180910390fd5b611d34600360008473ffffffffffffffffffffffffffffffffffffffff1673ffffffffffffffffffffffffffffffffffffffff168152602001908152602001600020612fa7565b9050919050565b600d6020528160005260406000208181548110611d5457fe5b90600052602060002001600091509150505481565b6060601160008381526020019081526020016000208054600181600116156101000203166002900480601f016020809104026020016040519081016040528092919081815260200182805460018160011615610100020316600290048015611e125780601f10611de757610100808354040283529160200191611e12565b820191906000526020600020905b815481529060010190602001808311611df557829003601f168201915b50505050509050809050919050565b6000611e33611e2e612e1e565b6127cb565b611e88576040517f08c379a00000000000000000000000000000000000000000000000000000000081526004018080602001828103825260308152602001806144a56030913960400191505060405180910390fd5b611e93848484612fb5565b600190509392505050565b611eae611ea9612e1e565b6127cb565b611f03576040517f08c379a00000000000000000000000000000000000000000000000000000000081526004018080602001828103825260308152602001806144a56030913960400191505060405180910390fd5b611f0c81613026565b50565b611f1f611f1a612e1e565b613080565b565b600c6020528160005260406000208181548110611f3a57fe5b906000526020600020016000915091509054906101000a900473ffffffffffffffffffffffffffffffffffffffff1681565b6000611f7e611f79612e1e565b6127cb565b611fd3576040517f08c379a00000000000000000000000000000000000000000000000000000000081526004018080602001828103825260308152602001806144a56030913960400191505060405180910390fd5b611fdd83836130da565b6001905092915050565b6000611ff3600b6130f8565b611ffd600b612fa7565b9050600c60008281526020019081526020016000203390806001815401808255809150509060018203906000526020600020016000909192909190916101000a81548173ffffffffffffffffffffffffffffffffffffffff021916908373ffffffffffffffffffffffffffffffffffffffff1602179055505082601060003373ffffffffffffffffffffffffffffffffffffffff1673ffffffffffffffffffffffffffffffffffffffff16815260200190815260200160002060006101000a81548173ffffffffffffffffffffffffffffffffffffffff021916908373ffffffffffffffffffffffffffffffffffffffff1602179055508160116000838152602001908152602001600020908051906020019061211b9291906141bc565b5061212533613026565b803373ffffffffffffffffffffffffffffffffffffffff167fe7d1a453d66d83d6e4ffae7901ed08b56c3b1f53a1c43135c2de683e4529b65b60405160405180910390a37f0a554ff72c713dffd0372d9c23cc1e214c1dfefbadda4710f4eee43eb6229a7b3382604051808373ffffffffffffffffffffffffffffffffffffffff1673ffffffffffffffffffffffffffffffffffffffff1681526020018281526020019250505060405180910390a180905092915050565b6121e5612e1e565b73ffffffffffffffffffffffffffffffffffffffff168273ffffffffffffffffffffffffffffffffffffffff161415612286576040517f08c379a00000000000000000000000000000000000000000000000000000000081526004018080602001828103825260198152602001807f4552433732313a20617070726f766520746f2063616c6c65720000000000000081525060200191505060405180910390fd5b8060046000612293612e1e565b73ffffffffffffffffffffffffffffffffffffffff1673ffffffffffffffffffffffffffffffffffffffff16815260200190815260200160002060008473ffffffffffffffffffffffffffffffffffffffff1673ffffffffffffffffffffffffffffffffffffffff16815260200190815260200160002060006101000a81548160ff0219169083151502179055508173ffffffffffffffffffffffffffffffffffffffff16612340612e1e565b73ffffffffffffffffffffffffffffffffffffffff167f17307eab39ab6107e8899845ad3d59bd9653f200f220920489ca2b5937696c3183604051808215151515815260200191505060405180910390a35050565b6060600c600083815260200190815260200160002080548060200260200160405190810160405280929190818152602001828054801561242a57602002820191906000526020600020905b8160009054906101000a900473ffffffffffffffffffffffffffffffffffffffff1673ffffffffffffffffffffffffffffffffffffffff16815260200190600101908083116123e0575b50505050509050612439614190565b600f60008581526020019081526020016000206040518060600160405290816000820160009054906101000a900460ff16600381111561247557fe5b600381111561248057fe5b815260200160018201548152602001600282018054600181600116156101000203166002900480601f0160208091040260200160405190810160405280929190818152602001828054600181600116156101000203166002900480156125275780601f106124fc57610100808354040283529160200191612527565b820191906000526020600020905b81548152906001019060200180831161250a57829003601f168201915b505050505081525050905060008282602001518151811061254457fe5b602002602001015190503373ffffffffffffffffffffffffffffffffffffffff168173ffffffffffffffffffffffffffffffffffffffff16146125d2576040517f08c379a000000000000000000000000000000000000000000000000000000000815260040180806020018281038252602d81526020018061430e602d913960400191505060405180910390fd5b600160038111156125df57fe5b600f600087815260200190815260200160002060000160009054906101000a900460ff16600381111561260e57fe5b14612681576040517f08c379a00000000000000000000000000000000000000000000000000000000081526004018080602001828103825260198152602001807f5469636b6574207374617465206d75737420626520506169640000000000000081525060200191505060405180910390fd5b60028260000190600381111561269357fe5b908160038111156126a057fe5b8152505081600f600087815260200190815260200160002060008201518160000160006101000a81548160ff021916908360038111156126dc57fe5b021790555060208201518160010155604082015181600201908051906020019061270792919061423c565b5090505084848773ffffffffffffffffffffffffffffffffffffffff167f1852380d0869dc478452f3f2bcfac707f842df524f5b8896d2a4f70c756f818460405160405180910390a47fe82baa24ba3534133b9033b3b6013784eaa8e524dc5ef8cf2e3e0945d0074624868587604051808473ffffffffffffffffffffffffffffffffffffffff1673ffffffffffffffffffffffffffffffffffffffff168152602001838152602001828152602001935050505060405180910390a1505050505050565b60006127e182600961310e90919063ffffffff16565b9050919050565b6127f3838383612f1a565b505050565b60116020528060005260406000206000915090508054600181600116156101000203166002900480601f0160208091040260200160405190810160405280929190818152602001828054600181600116156101000203166002900480156128a05780601f10612875576101008083540402835291602001916128a0565b820191906000526020600020905b81548152906001019060200180831161288357829003601f168201915b505050505081565b6128b96128b3612e1e565b83612e26565b61290e576040517f08c379a000000000000000000000000000000000000000000000000000000000815260040180806020018281038252603181526020018061458e6031913960400191505060405180910390fd5b61291a848484846131ec565b50505050565b6060600c60008481526020019081526020016000208054806020026020016040519081016040528092919081815260200182805480156129b557602002820191906000526020600020905b8160009054906101000a900473ffffffffffffffffffffffffffffffffffffffff1673ffffffffffffffffffffffffffffffffffffffff168152602001906001019080831161296b575b5050505050905060008160018403815181106129cd57fe5b602002602001015190503373ffffffffffffffffffffffffffffffffffffffff168173ffffffffffffffffffffffffffffffffffffffff1614612a5b576040517f08c379a00000000000000000000000000000000000000000000000000000000081526004018080602001828103825260328152602001806143bc6032913960400191505060405180910390fd5b60008090505b85811015612c6157612a73600a6130f8565b6000612a7f600a612fa7565b9050612a8b8882612f86565b6060612a9687611d69565b9050604051806060016040528060016003811115612ab057fe5b815260200187815260200182815250600f600084815260200190815260200160002060008201518160000160006101000a81548160ff02191690836003811115612af657fe5b0217905550602082015181600101556040820151816002019080519060200190612b2192919061423c565b50905050600d600088815260200190815260200160002080549050600e600084815260200190815260200160002081905550600d6000888152602001908152602001600020829080600181540180825580915050906001820390600052602060002001600090919290919091505550612b9a893361325e565b81878a73ffffffffffffffffffffffffffffffffffffffff167f97fac0ce6558f4accbb4696915809c0ef7023ffe7ba9454e94d49fb652aae1d560405160405180910390a47f6d651fdc8652e9b93372b6cece4377b2c0f78be48b1ffbf3bdafc7baef0138ab898884604051808473ffffffffffffffffffffffffffffffffffffffff1673ffffffffffffffffffffffffffffffffffffffff168152602001838152602001828152602001935050505060405180910390a150508080600101915050612a61565b50505050505050565b6000600460008473ffffffffffffffffffffffffffffffffffffffff1673ffffffffffffffffffffffffffffffffffffffff16815260200190815260200160002060008373ffffffffffffffffffffffffffffffffffffffff1673ffffffffffffffffffffffffffffffffffffffff16815260200190815260200160002060009054906101000a900460ff16905092915050565b60006060600c6000848152602001908152602001600020805480602002602001604051908101604052809291908181526020018280548015612d9557602002820191906000526020600020905b8160009054906101000a900473ffffffffffffffffffffffffffffffffffffffff1673ffffffffffffffffffffffffffffffffffffffff1681526020019060010190808311612d4b575b505050505090506000815190508092505050919050565b6000806001600084815260200190815260200160002060009054906101000a900473ffffffffffffffffffffffffffffffffffffffff169050600073ffffffffffffffffffffffffffffffffffffffff168173ffffffffffffffffffffffffffffffffffffffff161415915050919050565b600033905090565b6000612e3182612dac565b612e86576040517f08c379a000000000000000000000000000000000000000000000000000000000815260040180806020018281038252602c8152602001806143ee602c913960400191505060405180910390fd5b6000612e9183611951565b90508073ffffffffffffffffffffffffffffffffffffffff168473ffffffffffffffffffffffffffffffffffffffff161480612f0057508373ffffffffffffffffffffffffffffffffffffffff16612ee884611183565b73ffffffffffffffffffffffffffffffffffffffff16145b80612f115750612f108185612c6a565b5b91505092915050565b612f25838383613362565b612f2f83826135bd565b612f39828261375b565b505050565b6000600560008373ffffffffffffffffffffffffffffffffffffffff1673ffffffffffffffffffffffffffffffffffffffff1681526020019081526020016000209050919050565b612f908282613822565b612f9a828261375b565b612fa381613a3a565b5050565b600081600001549050919050565b612fbf8383612f86565b612fcc6000848484613a86565b613021576040517f08c379a00000000000000000000000000000000000000000000000000000000081526004018080602001828103825260328152602001806143666032913960400191505060405180910390fd5b505050565b61303a816009613dc290919063ffffffff16565b8073ffffffffffffffffffffffffffffffffffffffff167f6ae172837ea30b801fbfcdd4108aa1d5bf8ff775444fd70256b44e6bf3dfc3f660405160405180910390a250565b613094816009613e9d90919063ffffffff16565b8073ffffffffffffffffffffffffffffffffffffffff167fe94479a9f7e1952cc78f2d6baab678adc1b772d936c6583def489e524cb6669260405160405180910390a250565b6130f4828260405180602001604052806000815250612fb5565b5050565b6001816000016000828254019250508190555050565b60008073ffffffffffffffffffffffffffffffffffffffff168273ffffffffffffffffffffffffffffffffffffffff161415613195576040517f08c379a00000000000000000000000000000000000000000000000000000000081526004018080602001828103825260228152602001806145226022913960400191505060405180910390fd5b8260000160008373ffffffffffffffffffffffffffffffffffffffff1673ffffffffffffffffffffffffffffffffffffffff16815260200190815260200160002060009054906101000a900460ff16905092915050565b6131f7848484612f1a565b61320384848484613a86565b613258576040517f08c379a00000000000000000000000000000000000000000000000000000000081526004018080602001828103825260328152602001806143666032913960400191505060405180910390fd5b50505050565b600080600460008573ffffffffffffffffffffffffffffffffffffffff1673ffffffffffffffffffffffffffffffffffffffff16815260200190815260200160002060008473ffffffffffffffffffffffffffffffffffffffff1673ffffffffffffffffffffffffffffffffffffffff16815260200190815260200160002060006101000a81548160ff0219169083151502179055508173ffffffffffffffffffffffffffffffffffffffff168373ffffffffffffffffffffffffffffffffffffffff167f17307eab39ab6107e8899845ad3d59bd9653f200f220920489ca2b5937696c3183604051808215151515815260200191505060405180910390a3505050565b8273ffffffffffffffffffffffffffffffffffffffff1661338282611951565b73ffffffffffffffffffffffffffffffffffffffff16146133ee576040517f08c379a00000000000000000000000000000000000000000000000000000000081526004018080602001828103825260298152602001806145446029913960400191505060405180910390fd5b600073ffffffffffffffffffffffffffffffffffffffff168273ffffffffffffffffffffffffffffffffffffffff161415613474576040517f08c379a00000000000000000000000000000000000000000000000000000000081526004018080602001828103825260248152602001806143986024913960400191505060405180910390fd5b61347d81613f5a565b6134c4600360008573ffffffffffffffffffffffffffffffffffffffff1673ffffffffffffffffffffffffffffffffffffffff168152602001908152602001600020614018565b61350b600360008473ffffffffffffffffffffffffffffffffffffffff1673ffffffffffffffffffffffffffffffffffffffff1681526020019081526020016000206130f8565b816001600083815260200190815260200160002060006101000a81548173ffffffffffffffffffffffffffffffffffffffff021916908373ffffffffffffffffffffffffffffffffffffffff160217905550808273ffffffffffffffffffffffffffffffffffffffff168473ffffffffffffffffffffffffffffffffffffffff167fddf252ad1be2c89b69c2b068fc378daa952ba7f163c4a11628f55a4df523b3ef60405160405180910390a4505050565b60006136156001600560008673ffffffffffffffffffffffffffffffffffffffff1673ffffffffffffffffffffffffffffffffffffffff1681526020019081526020016000208054905061403b90919063ffffffff16565b9050600060066000848152602001908152602001600020549050818114613702576000600560008673ffffffffffffffffffffffffffffffffffffffff1673ffffffffffffffffffffffffffffffffffffffff168152602001908152602001600020838154811061368257fe5b9060005260206000200154905080600560008773ffffffffffffffffffffffffffffffffffffffff1673ffffffffffffffffffffffffffffffffffffffff16815260200190815260200160002083815481106136da57fe5b9060005260206000200181905550816006600083815260200190815260200160002081905550505b600560008573ffffffffffffffffffffffffffffffffffffffff1673ffffffffffffffffffffffffffffffffffffffff16815260200190815260200160002080548091906001900361375491906142bc565b5050505050565b600560008373ffffffffffffffffffffffffffffffffffffffff1673ffffffffffffffffffffffffffffffffffffffff168152602001908152602001600020805490506006600083815260200190815260200160002081905550600560008373ffffffffffffffffffffffffffffffffffffffff1673ffffffffffffffffffffffffffffffffffffffff1681526020019081526020016000208190806001815401808255809150509060018203906000526020600020016000909192909190915055505050565b600073ffffffffffffffffffffffffffffffffffffffff168273ffffffffffffffffffffffffffffffffffffffff1614156138c5576040517f08c379a00000000000000000000000000000000000000000000000000000000081526004018080602001828103825260208152602001807f4552433732313a206d696e7420746f20746865207a65726f206164647265737381525060200191505060405180910390fd5b6138ce81612dac565b15613941576040517f08c379a000000000000000000000000000000000000000000000000000000000815260040180806020018281038252601c8152602001807f4552433732313a20746f6b656e20616c7265616479206d696e7465640000000081525060200191505060405180910390fd5b816001600083815260200190815260200160002060006101000a81548173ffffffffffffffffffffffffffffffffffffffff021916908373ffffffffffffffffffffffffffffffffffffffff1602179055506139da600360008473ffffffffffffffffffffffffffffffffffffffff1673ffffffffffffffffffffffffffffffffffffffff1681526020019081526020016000206130f8565b808273ffffffffffffffffffffffffffffffffffffffff16600073ffffffffffffffffffffffffffffffffffffffff167fddf252ad1be2c89b69c2b068fc378daa952ba7f163c4a11628f55a4df523b3ef60405160405180910390a45050565b6007805490506008600083815260200190815260200160002081905550600781908060018154018082558091505090600182039060005260206000200160009091929091909150555050565b6000613aa78473ffffffffffffffffffffffffffffffffffffffff16614085565b613ab45760019050613dba565b600060608573ffffffffffffffffffffffffffffffffffffffff168673ffffffffffffffffffffffffffffffffffffffff1663150b7a02905060e01b613af8612e1e565b898888604051602401808573ffffffffffffffffffffffffffffffffffffffff1673ffffffffffffffffffffffffffffffffffffffff1681526020018473ffffffffffffffffffffffffffffffffffffffff1673ffffffffffffffffffffffffffffffffffffffff16815260200183815260200180602001828103825283818151815260200191508051906020019080838360005b83811015613ba8578082015181840152602081019050613b8d565b50505050905090810190601f168015613bd55780820380516001836020036101000a031916815260200191505b5095505050505050604051602081830303815290604052907bffffffffffffffffffffffffffffffffffffffffffffffffffffffff19166020820180517bffffffffffffffffffffffffffffffffffffffffffffffffffffffff83818316178352505050506040518082805190602001908083835b60208310613c6d5780518252602082019150602081019050602083039250613c4a565b6001836020036101000a0380198251168184511680821785525050505050509050019150506000604051808303816000865af19150503d8060008114613ccf576040519150601f19603f3d011682016040523d82523d6000602084013e613cd4565b606091505b509150915081613d4257600081511115613cf15780518082602001fd5b6040517f08c379a00000000000000000000000000000000000000000000000000000000081526004018080602001828103825260328152602001806143666032913960400191505060405180910390fd5b6000818060200190516020811015613d5957600080fd5b8101908080519060200190929190505050905063150b7a0260e01b7bffffffffffffffffffffffffffffffffffffffffffffffffffffffff1916817bffffffffffffffffffffffffffffffffffffffffffffffffffffffff19161493505050505b949350505050565b613dcc828261310e565b15613e3f576040517f08c379a000000000000000000000000000000000000000000000000000000000815260040180806020018281038252601f8152602001807f526f6c65733a206163636f756e7420616c72656164792068617320726f6c650081525060200191505060405180910390fd5b60018260000160008373ffffffffffffffffffffffffffffffffffffffff1673ffffffffffffffffffffffffffffffffffffffff16815260200190815260200160002060006101000a81548160ff0219169083151502179055505050565b613ea7828261310e565b613efc576040517f08c379a00000000000000000000000000000000000000000000000000000000081526004018080602001828103825260218152602001806144d56021913960400191505060405180910390fd5b60008260000160008373ffffffffffffffffffffffffffffffffffffffff1673ffffffffffffffffffffffffffffffffffffffff16815260200190815260200160002060006101000a81548160ff0219169083151502179055505050565b600073ffffffffffffffffffffffffffffffffffffffff166002600083815260200190815260200160002060009054906101000a900473ffffffffffffffffffffffffffffffffffffffff1673ffffffffffffffffffffffffffffffffffffffff16146140155760006002600083815260200190815260200160002060006101000a81548173ffffffffffffffffffffffffffffffffffffffff021916908373ffffffffffffffffffffffffffffffffffffffff1602179055505b50565b6140306001826000015461403b90919063ffffffff16565b816000018190555050565b600061407d83836040518060400160405280601e81526020017f536166654d6174683a207375627472616374696f6e206f766572666c6f7700008152506140d0565b905092915050565b60008060007fc5d2460186f7233c927e7db2dcc703c0e500b653ca82273b7bfad8045d85a47060001b9050833f91508082141580156140c757506000801b8214155b92505050919050565b600083831115829061417d576040517f08c379a00000000000000000000000000000000000000000000000000000000081526004018080602001828103825283818151815260200191508051906020019080838360005b83811015614142578082015181840152602081019050614127565b50505050905090810190601f16801561416f5780820380516001836020036101000a031916815260200191505b509250505060405180910390fd5b5060008385039050809150509392505050565b6040518060600160405280600060038111156141a857fe5b815260200160008152602001606081525090565b828054600181600116156101000203166002900490600052602060002090601f016020900481019282601f106141fd57805160ff191683800117855561422b565b8280016001018555821561422b579182015b8281111561422a57825182559160200191906001019061420f565b5b50905061423891906142e8565b5090565b828054600181600116156101000203166002900490600052602060002090601f016020900481019282601f1061427d57805160ff19168380011785556142ab565b828001600101855582156142ab579182015b828111156142aa57825182559160200191906001019061428f565b5b5090506142b891906142e8565b5090565b8154818355818111156142e3578183600052602060002091820191016142e291906142e8565b5b505050565b61430a91905b808211156143065760008160009055506001016142ee565b5090565b9056fe796f752073686f756c642063616c6c207363616e2066726f6d207469636b657473616c6520636f6e7472616374455243373231456e756d657261626c653a206f776e657220696e646578206f7574206f6620626f756e64734552433732313a207472616e7366657220746f206e6f6e20455243373231526563656976657220696d706c656d656e7465724552433732313a207472616e7366657220746f20746865207a65726f2061646472657373796f752073686f756c642063616c6c206275795469636b65742066726f6d207469636b657473616c6520636f6e74726163744552433732313a206f70657261746f7220717565727920666f72206e6f6e6578697374656e7420746f6b656e4552433732313a20617070726f76652063616c6c6572206973206e6f74206f776e6572206e6f7220617070726f76656420666f7220616c6c4552433732313a2062616c616e636520717565727920666f7220746865207a65726f20616464726573734552433732313a206f776e657220717565727920666f72206e6f6e6578697374656e7420746f6b656e4d696e746572526f6c653a2063616c6c657220646f6573206e6f74206861766520746865204d696e74657220726f6c65526f6c65733a206163636f756e7420646f6573206e6f74206861766520726f6c654552433732313a20617070726f76656420717565727920666f72206e6f6e6578697374656e7420746f6b656e526f6c65733a206163636f756e7420697320746865207a65726f20616464726573734552433732313a207472616e73666572206f6620746f6b656e2074686174206973206e6f74206f776e4552433732313a20617070726f76616c20746f2063757272656e74206f776e65724552433732313a207472616e736665722063616c6c6572206973206e6f74206f776e6572206e6f7220617070726f766564455243373231456e756d657261626c653a20676c6f62616c20696e646578206f7574206f6620626f756e6473a265627a7a72315820a7d44e6b5cf113c7c23b1886f5ed68447527395bc79cdeab4e0de725a3a710f964736f6c63430005110032526f6c65733a206163636f756e7420697320746865207a65726f2061646472657373",
  "source": "pragma solidity ^0.5.11;\n\nimport '../../zeppeline/token/ERC721/ERC721Enumerable.sol';\nimport '../../zeppeline/token/ERC721/ERC721Mintable.sol';\nimport \"../../zeppeline/drafts/Counters.sol\";\n\n\n\n\n\n\n\n// Ticket is ERC721 (NFT) token with  availability to reedem tickets\n\n/**\n\n    ERC-721 is non-fungible token.  So, each tokenID is a unique ticket\n\n    Usefull tips:\n    // Mapping from owner to list of owned token IDs\n    mapping(address => uint256[]) private _ownedTokens;\n\n    // Mapping from token ID to index of the owner tokens list\n    mapping(uint256 => uint256) private _ownedTokensIndex;\n\n    // Array with all token ids, used for enumeration\n    uint256[] private _allTokens;\n\n    // Mapping from token id to position in the allTokens array\n    mapping(uint256 => uint256) private _allTokensIndex;\n\n    Gets the list of token IDs of the requested owner.\n     function _tokensOfOwner(address owner) internal view returns (uint256[] storage) {\n        return _ownedTokens[owner];\n    }\n\n\n\n **/\n\ncontract Ticket721 is ERC721Enumerable, ERC721Mintable {\n   using SafeMath for uint256;\n   using Counters for Counters.Counter;\n\n\n    //events\n    event TicketBought(address indexed visitor_wallet,uint256 indexed event_id, uint256 indexed ticket_id);\n    event TicketBoughtHuman(address visitor_wallet,uint256 event_id, uint256 ticket_id);\n    event TicketFulfilled(address indexed visitor_wallet,uint256 indexed event_id, uint256 indexed ticket_id);   // FIXME: add date to event?\n    event TicketFulfilledHuman(address visitor_wallet,uint256 event_id, uint256 ticket_id);\n    event EventIdReserved(address indexed ticket_sale, uint256 indexed event_id);\n    event EventIdReservedHuman(address ticket_sale, uint256 event_id);\n\n    // Global counters for ticket_id and event_id\n    Counters.Counter _ticket_id_count;\n    Counters.Counter _event_id_count;\n\n    // Ticket lifecycle\n    enum TicketState {Non_Existed, Paid, Fulfilled, Cancelled}\n\n    // map from event id to ticketsale address\n    // TIP: ticket type = array.length\n    mapping(uint256 => address[]) public eventsales;\n    // map from event id to ticket ids\n    mapping (uint256 => uint256[]) public ticketIds;\n    // map fron token ID to its index in ticketIds\n    mapping (uint256 => uint256) ticketIndex;\n    // map from ticket id to ticket info\n    mapping (uint256 => TicketInfo) public ticketInfoStorage;\n    // map from sale address to organizer\n    mapping(address => address) retailers;\n    // map from event id to event JID\n    mapping(uint256 => string) public JIDs;\n\n\n    /**\n   * Ticket information\n   */\n\n    struct TicketInfo {\n    //string description;\n    //uint price;\n    TicketState state;\n   // Counters.Counter ticket_type;\n    uint ticket_type;\n    string event_JID;\n  }\n\n   // TicketInfo[] internal ticketStorage;\n\n\n\n    //FIXME: invoke constructor from 721(?)\n    constructor() public {\n        _addMinter(address(this));\n    }\n\n    // FIXME: approve for ticketsale, not factory\n    function setApprovalForEvent(address _owner, address ticketsale) internal{\n        bool approved;\n        _operatorApprovals[_owner][ticketsale] = approved;\n        emit ApprovalForAll(_owner, ticketsale, approved);\n    }\n\n    function _transferFromTicket(address from, address to, uint256 tokenId) public {\n        super._transferFrom(from, to, tokenId);\n    }\n\n    // TODO - check for event_id already existed\n    function reserveEventId(address orginizer, string memory jid) public returns(uint256 event_id){\n        _event_id_count.increment();\n        event_id = _event_id_count.current();\n      //  eventsales[event_id] = msg.sender;\n        eventsales[event_id].push(msg.sender);\n        retailers[msg.sender] = orginizer;\n        JIDs[event_id] = jid;\n        _addMinter(msg.sender);\n        emit EventIdReserved(msg.sender,event_id);\n        emit EventIdReservedHuman(msg.sender,event_id);\n        return event_id;\n    }\n\n    // plug additional sale for selling different types of ticket by one event\n    function plugSale(uint256 event_id, address orginizer) public returns(uint) {\n        address[] memory _sales = eventsales[event_id];\n        address _sale = _sales[0];\n        require(retailers[_sale] == orginizer, \"only orginizer can plug item\");\n        eventsales[event_id].push(msg.sender);\n        uint type_count = getTicketTypeCount(event_id);\n        type_count = type_count + 1;\n        return type_count;\n    }\n\n    //TODO - return ticketIDs(?)\n    function buyTicket(address buyer, uint256 ticketAmount, uint256 event_id, uint _ticket_type) public{\n        address[] memory _sales = eventsales[event_id];\n        address _sale = _sales[_ticket_type - 1]; // array start from 0\n        require(_sale == msg.sender, \"you should call buyTicket from ticketsale contract\");\n        for (uint256 i = 0; i < ticketAmount; i++ ){\n            _ticket_id_count.increment();\n            uint256 ticket_id = _ticket_id_count.current();\n\n            _mint(buyer,ticket_id);\n            string memory jid = getJidbyEventID(event_id);\n            ticketInfoStorage[ticket_id] = TicketInfo(TicketState.Paid,_ticket_type, jid);\n            ticketIndex[ticket_id] = ticketIds[event_id].length;\n            ticketIds[event_id].push(ticket_id);\n            // approve for ticketsale (msg.sender = ticketsale)\n          //  approve(msg.sender, ticket_id);\n            setApprovalForEvent(buyer,msg.sender);\n            emit TicketBought(buyer,event_id,ticket_id);\n            emit TicketBoughtHuman(buyer,event_id,ticket_id);\n        }\n\n    }\n\n    // This function is burning tokens.\n    // @deprecated\n    /*\n    function redeemTicket(address owner,uint256 tokenId, uint256 event_id) public{\n        require(eventsales[event_id] == msg.sender, \"caller doesn't match with event_id\");\n        super._burn(owner,tokenId);\n\n       // To prevent a gap in the tokens array, we store the last token in the index of the token to delete, and\n       // then delete the last slot (swap and pop).\n\n\n        uint256 ticket_index = ticketIndex[tokenId];\n        uint256 lastTicketIndex = ticketIds[event_id].length.sub(1);\n\n      //  uint256[] storage ticketIdArray = ticketIds[event_id];\n      //  uint256 lastTicketId = ticketIdArray[lastTicketIndex];\n\n        uint256 lastTicketId = ticketIds[event_id][lastTicketIndex];\n\n\n        ticketIds[event_id][ticket_index] = lastTicketId; // Move the last token to the slot of the to-delete token\n        ticketIndex[lastTicketId] = ticket_index;         // Update the moved token's index\n\n        ticketIds[event_id].length--;  // remove last element in array\n        ticketIndex[tokenId] = 0;\n\n\n    }\n    */\n\n\n     function redeemTicket(address visitor, uint256 tokenId, uint256 event_id) public{\n        address[] memory _sales = eventsales[event_id];\n        TicketInfo memory info = ticketInfoStorage[tokenId];\n        address _sale = _sales[info.ticket_type];\n        require(_sale == msg.sender, \"you should call scan from ticketsale contract\");\n        require(ticketInfoStorage[tokenId].state == TicketState.Paid, \"Ticket state must be Paid\");\n        info.state = TicketState.Fulfilled;\n        ticketInfoStorage[tokenId] = info;\n        emit TicketFulfilled(visitor,event_id,tokenId);\n        emit TicketFulfilledHuman(visitor, event_id,tokenId);\n    }\n\n\n    function getTicketTypeCount(uint256 event_id) public view returns(uint) {\n        address[] memory _sales = eventsales[event_id];\n        uint ticket_type = _sales.length;\n        return ticket_type;\n    }\n\n    function getTicketByOwner(address _owner) public view returns(uint256[] memory) {\n        uint256[] storage tickets = _tokensOfOwner(_owner);\n        return tickets;\n    }\n\n    function getTicketSales(uint256 event_id) public view returns(address[] memory) {\n        address[] memory sales = eventsales[event_id];\n        return sales;\n    }\n\n    function getJidbyEventID(uint256 event_id) public view returns (string memory jid) {\n        jid = JIDs[event_id];\n        return jid;\n    }\n\n    function getJidByTicketId(uint ticket_id) public view returns (string memory jid) {\n        TicketInfo memory info = ticketInfoStorage[ticket_id];\n        jid = info.event_JID;\n        return jid;\n    }\n\n}",
  "sourcePath": "/home/jack/ethProjects/MS-Factory/contracts/721/singleton/Ticket721.sol",
  "compiler": {
    "name": "solc",
    "version": "0.5.17+commit.d19bba13.Emscripten.clang"
  },
  "schemaVersion": "3.0.11",
  "updatedAt": "2020-04-25T14:14:11.958Z",
  "devdoc": {
    "methods": {
      "approve(address,uint256)": {
        "details": "Approves another address to transfer the given token ID The zero address indicates there is no approved address. There can only be one approved address per token at a given time. Can only be called by the token owner or an approved operator.",
        "params": {
          "to": "address to be approved for the given token ID",
          "tokenId": "uint256 ID of the token to be approved"
        }
      },
      "balanceOf(address)": {
        "details": "Gets the balance of the specified address.",
        "params": {
          "owner": "address to query the balance of"
        },
        "return": "uint256 representing the amount owned by the passed address"
      },
      "getApproved(uint256)": {
        "details": "Gets the approved address for a token ID, or zero if no address set Reverts if the token ID does not exist.",
        "params": {
          "tokenId": "uint256 ID of the token to query the approval of"
        },
        "return": "address currently approved for the given token ID"
      },
      "isApprovedForAll(address,address)": {
        "details": "Tells whether an operator is approved by a given owner.",
        "params": {
          "operator": "operator address which you want to query the approval of",
          "owner": "owner address which you want to query the approval of"
        },
        "return": "bool whether the given operator is approved by the given owner"
      },
      "mint(address,uint256)": {
        "details": "Function to mint tokens.",
        "params": {
          "to": "The address that will receive the minted token.",
          "tokenId": "The token id to mint."
        },
        "return": "A boolean that indicates if the operation was successful."
      },
      "ownerOf(uint256)": {
        "details": "Gets the owner of the specified token ID.",
        "params": {
          "tokenId": "uint256 ID of the token to query the owner of"
        },
        "return": "address currently marked as the owner of the given token ID"
      },
      "safeMint(address,uint256)": {
        "details": "Function to safely mint tokens.",
        "params": {
          "to": "The address that will receive the minted token.",
          "tokenId": "The token id to mint."
        },
        "return": "A boolean that indicates if the operation was successful."
      },
      "safeMint(address,uint256,bytes)": {
        "details": "Function to safely mint tokens.",
        "params": {
          "_data": "bytes data to send along with a safe transfer check.",
          "to": "The address that will receive the minted token.",
          "tokenId": "The token id to mint."
        },
        "return": "A boolean that indicates if the operation was successful."
      },
      "safeTransferFrom(address,address,uint256)": {
        "details": "Safely transfers the ownership of a given token ID to another address If the target address is a contract, it must implement {IERC721Receiver-onERC721Received}, which is called upon a safe transfer, and return the magic value `bytes4(keccak256(\"onERC721Received(address,address,uint256,bytes)\"))`; otherwise, the transfer is reverted. Requires the msg.sender to be the owner, approved, or operator",
        "params": {
          "from": "current owner of the token",
          "to": "address to receive the ownership of the given token ID",
          "tokenId": "uint256 ID of the token to be transferred"
        }
      },
      "safeTransferFrom(address,address,uint256,bytes)": {
        "details": "Safely transfers the ownership of a given token ID to another address If the target address is a contract, it must implement {IERC721Receiver-onERC721Received}, which is called upon a safe transfer, and return the magic value `bytes4(keccak256(\"onERC721Received(address,address,uint256,bytes)\"))`; otherwise, the transfer is reverted. Requires the _msgSender() to be the owner, approved, or operator",
        "params": {
          "_data": "bytes data to send along with a safe transfer check",
          "from": "current owner of the token",
          "to": "address to receive the ownership of the given token ID",
          "tokenId": "uint256 ID of the token to be transferred"
        }
      },
      "setApprovalForAll(address,bool)": {
        "details": "Sets or unsets the approval of a given operator An operator is allowed to transfer all tokens of the sender on their behalf.",
        "params": {
          "approved": "representing the status of the approval to be set",
          "to": "operator address to set the approval"
        }
      },
      "supportsInterface(bytes4)": {
        "details": "See {IERC165-supportsInterface}.     * Time complexity O(1), guaranteed to always use less than 30 000 gas."
      },
      "tokenByIndex(uint256)": {
        "details": "Gets the token ID at a given index of all the tokens in this contract Reverts if the index is greater or equal to the total number of tokens.",
        "params": {
          "index": "uint256 representing the index to be accessed of the tokens list"
        },
        "return": "uint256 token ID at the given index of the tokens list"
      },
      "tokenOfOwnerByIndex(address,uint256)": {
        "details": "Gets the token ID at a given index of the tokens list of the requested owner.",
        "params": {
          "index": "uint256 representing the index to be accessed of the requested tokens list",
          "owner": "address owning the tokens list to be accessed"
        },
        "return": "uint256 token ID at the given index of the tokens list owned by the requested address"
      },
      "totalSupply()": {
        "details": "Gets the total amount of tokens stored by the contract.",
        "return": "uint256 representing the total amount of tokens"
      },
      "transferFrom(address,address,uint256)": {
        "details": "Transfers the ownership of a given token ID to another address. Usage of this method is discouraged, use {safeTransferFrom} whenever possible. Requires the msg.sender to be the owner, approved, or operator.",
        "params": {
          "from": "current owner of the token",
          "to": "address to receive the ownership of the given token ID",
          "tokenId": "uint256 ID of the token to be transferred"
        }
      }
    }
  },
  "userdoc": {
    "methods": {},
    "notice": "ERC-721 is non-fungible token.  So, each tokenID is a unique ticket Usefull tips: // Mapping from owner to list of owned token IDs mapping(address => uint256[]) private _ownedTokens; // Mapping from token ID to index of the owner tokens list mapping(uint256 => uint256) private _ownedTokensIndex; // Array with all token ids, used for enumeration uint256[] private _allTokens; // Mapping from token id to position in the allTokens array mapping(uint256 => uint256) private _allTokensIndex; Gets the list of token IDs of the requested owner. function _tokensOfOwner(address owner) internal view returns (uint256[] storage) { return _ownedTokens[owner]; }*"
  }
}