{
  "contractName": "Ticket721",
  "abi": [
    {
      "inputs": [],
      "payable": false,
      "stateMutability": "nonpayable",
      "type": "constructor"
    },
    {
      "anonymous": false,
      "inputs": [
        {
          "indexed": true,
          "internalType": "address",
          "name": "owner",
          "type": "address"
        },
        {
          "indexed": true,
          "internalType": "address",
          "name": "approved",
          "type": "address"
        },
        {
          "indexed": true,
          "internalType": "uint256",
          "name": "tokenId",
          "type": "uint256"
        }
      ],
      "name": "Approval",
      "type": "event"
    },
    {
      "anonymous": false,
      "inputs": [
        {
          "indexed": true,
          "internalType": "address",
          "name": "owner",
          "type": "address"
        },
        {
          "indexed": true,
          "internalType": "address",
          "name": "operator",
          "type": "address"
        },
        {
          "indexed": false,
          "internalType": "bool",
          "name": "approved",
          "type": "bool"
        }
      ],
      "name": "ApprovalForAll",
      "type": "event"
    },
    {
      "anonymous": false,
      "inputs": [
        {
          "indexed": true,
          "internalType": "address",
          "name": "ticket_sale",
          "type": "address"
        },
        {
          "indexed": true,
          "internalType": "uint256",
          "name": "event_id",
          "type": "uint256"
        }
      ],
      "name": "EventIdReserved",
      "type": "event"
    },
    {
      "anonymous": false,
      "inputs": [
        {
          "indexed": false,
          "internalType": "address",
          "name": "ticket_sale",
          "type": "address"
        },
        {
          "indexed": false,
          "internalType": "uint256",
          "name": "event_id",
          "type": "uint256"
        }
      ],
      "name": "EventIdReservedHuman",
      "type": "event"
    },
    {
      "anonymous": false,
      "inputs": [
        {
          "indexed": true,
          "internalType": "address",
          "name": "account",
          "type": "address"
        }
      ],
      "name": "MinterAdded",
      "type": "event"
    },
    {
      "anonymous": false,
      "inputs": [
        {
          "indexed": true,
          "internalType": "address",
          "name": "account",
          "type": "address"
        }
      ],
      "name": "MinterRemoved",
      "type": "event"
    },
    {
      "anonymous": false,
      "inputs": [
        {
          "indexed": true,
          "internalType": "address",
          "name": "visitor_wallet",
          "type": "address"
        },
        {
          "indexed": true,
          "internalType": "uint256",
          "name": "event_id",
          "type": "uint256"
        },
        {
          "indexed": true,
          "internalType": "uint256",
          "name": "ticket_id",
          "type": "uint256"
        }
      ],
      "name": "TicketBought",
      "type": "event"
    },
    {
      "anonymous": false,
      "inputs": [
        {
          "indexed": false,
          "internalType": "address",
          "name": "visitor_wallet",
          "type": "address"
        },
        {
          "indexed": false,
          "internalType": "uint256",
          "name": "event_id",
          "type": "uint256"
        },
        {
          "indexed": false,
          "internalType": "uint256",
          "name": "ticket_id",
          "type": "uint256"
        }
      ],
      "name": "TicketBoughtHuman",
      "type": "event"
    },
    {
      "anonymous": false,
      "inputs": [
        {
          "indexed": true,
          "internalType": "address",
          "name": "visitor_wallet",
          "type": "address"
        },
        {
          "indexed": true,
          "internalType": "uint256",
          "name": "event_id",
          "type": "uint256"
        },
        {
          "indexed": true,
          "internalType": "uint256",
          "name": "ticket_id",
          "type": "uint256"
        }
      ],
      "name": "TicketFulfilled",
      "type": "event"
    },
    {
      "anonymous": false,
      "inputs": [
        {
          "indexed": false,
          "internalType": "address",
          "name": "visitor_wallet",
          "type": "address"
        },
        {
          "indexed": false,
          "internalType": "uint256",
          "name": "event_id",
          "type": "uint256"
        },
        {
          "indexed": false,
          "internalType": "uint256",
          "name": "ticket_id",
          "type": "uint256"
        }
      ],
      "name": "TicketFulfilledHuman",
      "type": "event"
    },
    {
      "anonymous": false,
      "inputs": [
        {
          "indexed": true,
          "internalType": "address",
          "name": "from",
          "type": "address"
        },
        {
          "indexed": true,
          "internalType": "address",
          "name": "to",
          "type": "address"
        },
        {
          "indexed": true,
          "internalType": "uint256",
          "name": "tokenId",
          "type": "uint256"
        }
      ],
      "name": "Transfer",
      "type": "event"
    },
    {
      "constant": true,
      "inputs": [
        {
          "internalType": "uint256",
          "name": "",
          "type": "uint256"
        }
      ],
      "name": "JIDs",
      "outputs": [
        {
          "internalType": "string",
          "name": "",
          "type": "string"
        }
      ],
      "payable": false,
      "stateMutability": "view",
      "type": "function"
    },
    {
      "constant": false,
      "inputs": [
        {
          "internalType": "address",
          "name": "account",
          "type": "address"
        }
      ],
      "name": "addMinter",
      "outputs": [],
      "payable": false,
      "stateMutability": "nonpayable",
      "type": "function"
    },
    {
      "constant": false,
      "inputs": [
        {
          "internalType": "address",
          "name": "to",
          "type": "address"
        },
        {
          "internalType": "uint256",
          "name": "tokenId",
          "type": "uint256"
        }
      ],
      "name": "approve",
      "outputs": [],
      "payable": false,
      "stateMutability": "nonpayable",
      "type": "function"
    },
    {
      "constant": true,
      "inputs": [
        {
          "internalType": "address",
          "name": "owner",
          "type": "address"
        }
      ],
      "name": "balanceOf",
      "outputs": [
        {
          "internalType": "uint256",
          "name": "",
          "type": "uint256"
        }
      ],
      "payable": false,
      "stateMutability": "view",
      "type": "function"
    },
    {
      "constant": true,
      "inputs": [
        {
          "internalType": "uint256",
          "name": "",
          "type": "uint256"
        },
        {
          "internalType": "uint256",
          "name": "",
          "type": "uint256"
        }
      ],
      "name": "eventsales",
      "outputs": [
        {
          "internalType": "address",
          "name": "",
          "type": "address"
        }
      ],
      "payable": false,
      "stateMutability": "view",
      "type": "function"
    },
    {
      "constant": true,
      "inputs": [
        {
          "internalType": "uint256",
          "name": "tokenId",
          "type": "uint256"
        }
      ],
      "name": "getApproved",
      "outputs": [
        {
          "internalType": "address",
          "name": "",
          "type": "address"
        }
      ],
      "payable": false,
      "stateMutability": "view",
      "type": "function"
    },
    {
      "constant": true,
      "inputs": [
        {
          "internalType": "address",
          "name": "owner",
          "type": "address"
        },
        {
          "internalType": "address",
          "name": "operator",
          "type": "address"
        }
      ],
      "name": "isApprovedForAll",
      "outputs": [
        {
          "internalType": "bool",
          "name": "",
          "type": "bool"
        }
      ],
      "payable": false,
      "stateMutability": "view",
      "type": "function"
    },
    {
      "constant": true,
      "inputs": [
        {
          "internalType": "address",
          "name": "account",
          "type": "address"
        }
      ],
      "name": "isMinter",
      "outputs": [
        {
          "internalType": "bool",
          "name": "",
          "type": "bool"
        }
      ],
      "payable": false,
      "stateMutability": "view",
      "type": "function"
    },
    {
      "constant": false,
      "inputs": [
        {
          "internalType": "address",
          "name": "to",
          "type": "address"
        },
        {
          "internalType": "uint256",
          "name": "tokenId",
          "type": "uint256"
        }
      ],
      "name": "mint",
      "outputs": [
        {
          "internalType": "bool",
          "name": "",
          "type": "bool"
        }
      ],
      "payable": false,
      "stateMutability": "nonpayable",
      "type": "function"
    },
    {
      "constant": true,
      "inputs": [
        {
          "internalType": "uint256",
          "name": "tokenId",
          "type": "uint256"
        }
      ],
      "name": "ownerOf",
      "outputs": [
        {
          "internalType": "address",
          "name": "",
          "type": "address"
        }
      ],
      "payable": false,
      "stateMutability": "view",
      "type": "function"
    },
    {
      "constant": false,
      "inputs": [],
      "name": "renounceMinter",
      "outputs": [],
      "payable": false,
      "stateMutability": "nonpayable",
      "type": "function"
    },
    {
      "constant": false,
      "inputs": [
        {
          "internalType": "address",
          "name": "to",
          "type": "address"
        },
        {
          "internalType": "uint256",
          "name": "tokenId",
          "type": "uint256"
        },
        {
          "internalType": "bytes",
          "name": "_data",
          "type": "bytes"
        }
      ],
      "name": "safeMint",
      "outputs": [
        {
          "internalType": "bool",
          "name": "",
          "type": "bool"
        }
      ],
      "payable": false,
      "stateMutability": "nonpayable",
      "type": "function"
    },
    {
      "constant": false,
      "inputs": [
        {
          "internalType": "address",
          "name": "to",
          "type": "address"
        },
        {
          "internalType": "uint256",
          "name": "tokenId",
          "type": "uint256"
        }
      ],
      "name": "safeMint",
      "outputs": [
        {
          "internalType": "bool",
          "name": "",
          "type": "bool"
        }
      ],
      "payable": false,
      "stateMutability": "nonpayable",
      "type": "function"
    },
    {
      "constant": false,
      "inputs": [
        {
          "internalType": "address",
          "name": "from",
          "type": "address"
        },
        {
          "internalType": "address",
          "name": "to",
          "type": "address"
        },
        {
          "internalType": "uint256",
          "name": "tokenId",
          "type": "uint256"
        }
      ],
      "name": "safeTransferFrom",
      "outputs": [],
      "payable": false,
      "stateMutability": "nonpayable",
      "type": "function"
    },
    {
      "constant": false,
      "inputs": [
        {
          "internalType": "address",
          "name": "from",
          "type": "address"
        },
        {
          "internalType": "address",
          "name": "to",
          "type": "address"
        },
        {
          "internalType": "uint256",
          "name": "tokenId",
          "type": "uint256"
        },
        {
          "internalType": "bytes",
          "name": "_data",
          "type": "bytes"
        }
      ],
      "name": "safeTransferFrom",
      "outputs": [],
      "payable": false,
      "stateMutability": "nonpayable",
      "type": "function"
    },
    {
      "constant": false,
      "inputs": [
        {
          "internalType": "address",
          "name": "to",
          "type": "address"
        },
        {
          "internalType": "bool",
          "name": "approved",
          "type": "bool"
        }
      ],
      "name": "setApprovalForAll",
      "outputs": [],
      "payable": false,
      "stateMutability": "nonpayable",
      "type": "function"
    },
    {
      "constant": true,
      "inputs": [
        {
          "internalType": "bytes4",
          "name": "interfaceId",
          "type": "bytes4"
        }
      ],
      "name": "supportsInterface",
      "outputs": [
        {
          "internalType": "bool",
          "name": "",
          "type": "bool"
        }
      ],
      "payable": false,
      "stateMutability": "view",
      "type": "function"
    },
    {
      "constant": true,
      "inputs": [
        {
          "internalType": "uint256",
          "name": "",
          "type": "uint256"
        },
        {
          "internalType": "uint256",
          "name": "",
          "type": "uint256"
        }
      ],
      "name": "ticketIds",
      "outputs": [
        {
          "internalType": "uint256",
          "name": "",
          "type": "uint256"
        }
      ],
      "payable": false,
      "stateMutability": "view",
      "type": "function"
    },
    {
      "constant": true,
      "inputs": [
        {
          "internalType": "uint256",
          "name": "",
          "type": "uint256"
        }
      ],
      "name": "ticketInfoStorage",
      "outputs": [
        {
          "internalType": "enum Ticket721.TicketState",
          "name": "state",
          "type": "uint8"
        },
        {
          "internalType": "uint256",
          "name": "ticket_type",
          "type": "uint256"
        },
        {
          "internalType": "string",
          "name": "event_JID",
          "type": "string"
        }
      ],
      "payable": false,
      "stateMutability": "view",
      "type": "function"
    },
    {
      "constant": true,
      "inputs": [
        {
          "internalType": "uint256",
          "name": "index",
          "type": "uint256"
        }
      ],
      "name": "tokenByIndex",
      "outputs": [
        {
          "internalType": "uint256",
          "name": "",
          "type": "uint256"
        }
      ],
      "payable": false,
      "stateMutability": "view",
      "type": "function"
    },
    {
      "constant": true,
      "inputs": [
        {
          "internalType": "address",
          "name": "owner",
          "type": "address"
        },
        {
          "internalType": "uint256",
          "name": "index",
          "type": "uint256"
        }
      ],
      "name": "tokenOfOwnerByIndex",
      "outputs": [
        {
          "internalType": "uint256",
          "name": "",
          "type": "uint256"
        }
      ],
      "payable": false,
      "stateMutability": "view",
      "type": "function"
    },
    {
      "constant": true,
      "inputs": [],
      "name": "totalSupply",
      "outputs": [
        {
          "internalType": "uint256",
          "name": "",
          "type": "uint256"
        }
      ],
      "payable": false,
      "stateMutability": "view",
      "type": "function"
    },
    {
      "constant": false,
      "inputs": [
        {
          "internalType": "address",
          "name": "from",
          "type": "address"
        },
        {
          "internalType": "address",
          "name": "to",
          "type": "address"
        },
        {
          "internalType": "uint256",
          "name": "tokenId",
          "type": "uint256"
        }
      ],
      "name": "transferFrom",
      "outputs": [],
      "payable": false,
      "stateMutability": "nonpayable",
      "type": "function"
    },
    {
      "constant": false,
      "inputs": [
        {
          "internalType": "address",
          "name": "from",
          "type": "address"
        },
        {
          "internalType": "address",
          "name": "to",
          "type": "address"
        },
        {
          "internalType": "uint256",
          "name": "tokenId",
          "type": "uint256"
        }
      ],
      "name": "_transferFromTicket",
      "outputs": [],
      "payable": false,
      "stateMutability": "nonpayable",
      "type": "function"
    },
    {
      "constant": false,
      "inputs": [
        {
          "internalType": "address",
          "name": "orginizer",
          "type": "address"
        },
        {
          "internalType": "string",
          "name": "jid",
          "type": "string"
        }
      ],
      "name": "reserveEventId",
      "outputs": [
        {
          "internalType": "uint256",
          "name": "event_id",
          "type": "uint256"
        }
      ],
      "payable": false,
      "stateMutability": "nonpayable",
      "type": "function"
    },
    {
      "constant": false,
      "inputs": [
        {
          "internalType": "uint256",
          "name": "event_id",
          "type": "uint256"
        },
        {
          "internalType": "address",
          "name": "orginizer",
          "type": "address"
        }
      ],
      "name": "plugSale",
      "outputs": [
        {
          "internalType": "uint256",
          "name": "",
          "type": "uint256"
        }
      ],
      "payable": false,
      "stateMutability": "nonpayable",
      "type": "function"
    },
    {
      "constant": false,
      "inputs": [
        {
          "internalType": "address",
          "name": "buyer",
          "type": "address"
        },
        {
          "internalType": "uint256",
          "name": "ticketAmount",
          "type": "uint256"
        },
        {
          "internalType": "uint256",
          "name": "event_id",
          "type": "uint256"
        },
        {
          "internalType": "uint256",
          "name": "_ticket_type",
          "type": "uint256"
        }
      ],
      "name": "buyTicket",
      "outputs": [],
      "payable": false,
      "stateMutability": "nonpayable",
      "type": "function"
    },
    {
      "constant": false,
      "inputs": [
        {
          "internalType": "address",
          "name": "visitor",
          "type": "address"
        },
        {
          "internalType": "uint256",
          "name": "tokenId",
          "type": "uint256"
        },
        {
          "internalType": "uint256",
          "name": "event_id",
          "type": "uint256"
        }
      ],
      "name": "redeemTicket",
      "outputs": [],
      "payable": false,
      "stateMutability": "nonpayable",
      "type": "function"
    },
    {
      "constant": true,
      "inputs": [
        {
          "internalType": "uint256",
          "name": "event_id",
          "type": "uint256"
        }
      ],
      "name": "getTicketTypeCount",
      "outputs": [
        {
          "internalType": "uint256",
          "name": "",
          "type": "uint256"
        }
      ],
      "payable": false,
      "stateMutability": "view",
      "type": "function"
    },
    {
      "constant": true,
      "inputs": [
        {
          "internalType": "address",
          "name": "_owner",
          "type": "address"
        }
      ],
      "name": "getTicketByOwner",
      "outputs": [
        {
          "internalType": "uint256[]",
          "name": "",
          "type": "uint256[]"
        }
      ],
      "payable": false,
      "stateMutability": "view",
      "type": "function"
    },
    {
      "constant": true,
      "inputs": [
        {
          "internalType": "uint256",
          "name": "event_id",
          "type": "uint256"
        }
      ],
      "name": "getTicketSales",
      "outputs": [
        {
          "internalType": "address[]",
          "name": "",
          "type": "address[]"
        }
      ],
      "payable": false,
      "stateMutability": "view",
      "type": "function"
    },
    {
      "constant": true,
      "inputs": [
        {
          "internalType": "uint256",
          "name": "event_id",
          "type": "uint256"
        }
      ],
      "name": "getJidbyEventID",
      "outputs": [
        {
          "internalType": "string",
          "name": "jid",
          "type": "string"
        }
      ],
      "payable": false,
      "stateMutability": "view",
      "type": "function"
    },
    {
      "constant": true,
      "inputs": [
        {
          "internalType": "uint256",
          "name": "ticket_id",
          "type": "uint256"
        }
      ],
      "name": "getJidByTicketId",
      "outputs": [
        {
          "internalType": "string",
          "name": "jid",
          "type": "string"
        }
      ],
      "payable": false,
      "stateMutability": "view",
      "type": "function"
    }
  ],
  "bytecode": "0x60806040523480156200001157600080fd5b506200002d6301ffc9a760e01b6001600160e01b036200008f16565b620000486380ac58cd60e01b6001600160e01b036200008f16565b6200006363780e9d6360e01b6001600160e01b036200008f16565b620000896200007a6001600160e01b036200011416565b6001600160e01b036200011816565b62000260565b6001600160e01b03198082161415620000ef576040805162461bcd60e51b815260206004820152601c60248201527f4552433136353a20696e76616c696420696e7465726661636520696400000000604482015290519081900360640190fd5b6001600160e01b0319166000908152602081905260409020805460ff19166001179055565b3390565b620001338160096200016a60201b620026b41790919060201c565b6040516001600160a01b038216907f6ae172837ea30b801fbfcdd4108aa1d5bf8ff775444fd70256b44e6bf3dfc3f690600090a250565b6200017f82826001600160e01b03620001f716565b15620001d2576040805162461bcd60e51b815260206004820152601f60248201527f526f6c65733a206163636f756e7420616c72656164792068617320726f6c6500604482015290519081900360640190fd5b6001600160a01b0316600090815260209190915260409020805460ff19166001179055565b60006001600160a01b038216620002405760405162461bcd60e51b815260040180806020018281038252602281526020018062002f636022913960400191505060405180910390fd5b506001600160a01b03166000908152602091909152604090205460ff1690565b612cf380620002706000396000f3fe608060405234801561001057600080fd5b50600436106101fb5760003560e01c806378df3a521161011a578063a22cb465116100ad578063ad140b1d1161007c578063ad140b1d146108cc578063b88d4fde146108e9578063cd3a15f8146109af578063e985e9c5146109e7578063ec95d2d014610a15576101fb565b8063a22cb46514610810578063a27c282e1461083e578063aa271e1a14610870578063ab31520a14610896576101fb565b806398650275116100e957806398650275146107035780639b1d8baf1461070b578063a14481941461072e578063a201b2381461075a576101fb565b806378df3a52146105e257806385c393f8146106055780638832e6e314610622578063983b2d56146106dd576101fb565b8063376b029a116101925780634f6ccce7116101615780634f6ccce7146105565780636352211e14610573578063645c0fb01461059057806370a08231146105bc576101fb565b8063376b029a1461046157806340c10f19146104d757806342842e0e1461050357806344bb8aff14610539576101fb565b80631d663f10116101ce5780631d663f10146102bc5780631eb8098e1461036d57806323b872dd146103ff5780632f745c5914610435576101fb565b806301ffc9a714610200578063081812fc1461023b578063095ea7b31461027457806318160ddd146102a2575b600080fd5b6102276004803603602081101561021657600080fd5b50356001600160e01b031916610a32565b604080519115158252519081900360200190f35b6102586004803603602081101561025157600080fd5b5035610a51565b604080516001600160a01b039092168252519081900360200190f35b6102a06004803603604081101561028a57600080fd5b506001600160a01b038135169060200135610ab3565b005b6102aa610bdb565b60408051918252519081900360200190f35b6102d9600480360360208110156102d257600080fd5b5035610be2565b604051808460038111156102e957fe5b60ff16815260200183815260200180602001828103825283818151815260200191508051906020019080838360005b83811015610330578181015183820152602001610318565b50505050905090810190601f16801561035d5780820380516001836020036101000a031916815260200191505b5094505050505060405180910390f35b61038a6004803603602081101561038357600080fd5b5035610c92565b6040805160208082528351818301528351919283929083019185019080838360005b838110156103c45781810151838201526020016103ac565b50505050905090810190601f1680156103f15780820380516001836020036101000a031916815260200191505b509250505060405180910390f35b6102a06004803603606081101561041557600080fd5b506001600160a01b03813581169160208101359091169060400135610d8e565b6102aa6004803603604081101561044b57600080fd5b506001600160a01b038135169060200135610dea565b6104876004803603602081101561047757600080fd5b50356001600160a01b0316610e69565b60408051602080825283518183015283519192839290830191858101910280838360005b838110156104c35781810151838201526020016104ab565b505050509050019250505060405180910390f35b610227600480360360408110156104ed57600080fd5b506001600160a01b038135169060200135610ed0565b6102a06004803603606081101561051957600080fd5b506001600160a01b03813581169160208101359091169060400135610f30565b6104876004803603602081101561054f57600080fd5b5035610f4b565b6102aa6004803603602081101561056c57600080fd5b5035610fc2565b6102586004803603602081101561058957600080fd5b5035611028565b6102aa600480360360408110156105a657600080fd5b50803590602001356001600160a01b0316611082565b6102aa600480360360208110156105d257600080fd5b50356001600160a01b03166111b9565b6102aa600480360360408110156105f857600080fd5b5080359060200135611221565b61038a6004803603602081101561061b57600080fd5b503561124f565b6102276004803603606081101561063857600080fd5b6001600160a01b038235169160208101359181019060608101604082013564010000000081111561066857600080fd5b82018360208201111561067a57600080fd5b8035906020019184600183028401116401000000008311171561069c57600080fd5b91908080601f0160208091040260200160405190810160405280939291908181526020018383808284376000920191909152509295506112f0945050505050565b6102a0600480360360208110156106f357600080fd5b50356001600160a01b031661134d565b6102a061139f565b6102586004803603604081101561072157600080fd5b50803590602001356113b1565b6102276004803603604081101561074457600080fd5b506001600160a01b0381351690602001356113e6565b6102aa6004803603604081101561077057600080fd5b6001600160a01b03823516919081019060408101602082013564010000000081111561079b57600080fd5b8201836020820111156107ad57600080fd5b803590602001918460018302840111640100000000831117156107cf57600080fd5b91908080601f016020809104026020016040519081016040528093929190818152602001838380828437600092019190915250929550611438945050505050565b6102a06004803603604081101561082657600080fd5b506001600160a01b0381351690602001351515611533565b6102a06004803603606081101561085457600080fd5b506001600160a01b038135169060208101359060400135611638565b6102276004803603602081101561088657600080fd5b50356001600160a01b0316611950565b6102a0600480360360608110156108ac57600080fd5b506001600160a01b03813581169160208101359091169060400135610dda565b61038a600480360360208110156108e257600080fd5b5035611963565b6102a0600480360360808110156108ff57600080fd5b6001600160a01b0382358116926020810135909116916040820135919081019060808101606082013564010000000081111561093a57600080fd5b82018360208201111561094c57600080fd5b8035906020019184600183028401116401000000008311171561096e57600080fd5b91908080601f0160208091040260200160405190810160405280939291908181526020018383808284376000920191909152509295506119fe945050505050565b6102a0600480360360808110156109c557600080fd5b506001600160a01b038135169060208101359060408101359060600135611a5c565b610227600480360360408110156109fd57600080fd5b506001600160a01b0381358116916020013516611ca7565b6102aa60048036036020811015610a2b57600080fd5b5035611cd5565b6001600160e01b03191660009081526020819052604090205460ff1690565b6000610a5c82611d41565b610a975760405162461bcd60e51b815260040180806020018281038252602c815260200180612bca602c913960400191505060405180910390fd5b506000908152600260205260409020546001600160a01b031690565b6000610abe82611028565b9050806001600160a01b0316836001600160a01b03161415610b115760405162461bcd60e51b8152600401808060200182810382526021815260200180612c416021913960400191505060405180910390fd5b806001600160a01b0316610b23611d5e565b6001600160a01b03161480610b445750610b4481610b3f611d5e565b611ca7565b610b7f5760405162461bcd60e51b8152600401808060200182810382526038815260200180612aee6038913960400191505060405180910390fd5b60008281526002602052604080822080546001600160a01b0319166001600160a01b0387811691821790925591518593918516917f8c5be1e5ebec7d5bd14f71427d1e84f3dd0314c0f7b2291e5b200ac8c7c3b92591a4505050565b6007545b90565b600f6020908152600091825260409182902080546001808301546002808501805488516101009582161595909502600019011691909104601f810187900487028401870190975286835260ff909316959094919291830182828015610c885780601f10610c5d57610100808354040283529160200191610c88565b820191906000526020600020905b815481529060010190602001808311610c6b57829003601f168201915b5050505050905083565b6060610c9c612907565b6000838152600f6020526040908190208151606081019092528054829060ff166003811115610cc757fe5b6003811115610cd257fe5b815260200160018201548152602001600282018054600181600116156101000203166002900480601f016020809104026020016040519081016040528092919081815260200182805460018160011615610100020316600290048015610d795780601f10610d4e57610100808354040283529160200191610d79565b820191906000526020600020905b815481529060010190602001808311610d5c57829003601f168201915b50505091909252505050604001519392505050565b610d9f610d99611d5e565b82611d62565b610dda5760405162461bcd60e51b8152600401808060200182810382526031815260200180612c626031913960400191505060405180910390fd5b610de5838383611e06565b505050565b6000610df5836111b9565b8210610e325760405162461bcd60e51b815260040180806020018281038252602b815260200180612a0f602b913960400191505060405180910390fd5b6001600160a01b0383166000908152600560205260409020805483908110610e5657fe5b9060005260206000200154905092915050565b60606000610e7683611e25565b905080805480602002602001604051908101604052809291908181526020018280548015610ec357602002820191906000526020600020905b815481526020019060010190808311610eaf575b5050505050915050919050565b6000610ee2610edd611d5e565b611950565b610f1d5760405162461bcd60e51b8152600401808060200182810382526030815260200180612b796030913960400191505060405180910390fd5b610f278383611e3f565b50600192915050565b610de5838383604051806020016040528060008152506119fe565b606080600c6000848152602001908152602001600020805480602002602001604051908101604052809291908181526020018280548015610fb557602002820191906000526020600020905b81546001600160a01b03168152600190910190602001808311610f97575b5093979650505050505050565b6000610fcc610bdb565b82106110095760405162461bcd60e51b815260040180806020018281038252602c815260200180612c93602c913960400191505060405180910390fd5b6007828154811061101657fe5b90600052602060002001549050919050565b6000818152600160205260408120546001600160a01b03168061107c5760405162461bcd60e51b8152600401808060200182810382526029815260200180612b506029913960400191505060405180910390fd5b92915050565b6000828152600c6020908152604080832080548251818502810185019093528083526060938301828280156110e057602002820191906000526020600020905b81546001600160a01b031681526001909101906020018083116110c2575b505050505090506000816000815181106110f657fe5b6020908102919091018101516001600160a01b0380821660009081526010909352604090922054909250811690851614611177576040805162461bcd60e51b815260206004820152601c60248201527f6f6e6c79206f7267696e697a65722063616e20706c7567206974656d00000000604482015290519081900360640190fd5b6000858152600c60209081526040822080546001810182559083529082200180546001600160a01b031916331790556111af86611cd5565b9695505050505050565b60006001600160a01b0382166112005760405162461bcd60e51b815260040180806020018281038252602a815260200180612b26602a913960400191505060405180910390fd5b6001600160a01b038216600090815260036020526040902061107c90611e60565b600d602052816000526040600020818154811061123a57fe5b90600052602060002001600091509150505481565b60008181526011602090815260409182902080548351601f60026000196101006001861615020190931692909204918201849004840281018401909452808452606093928301828280156112e45780601f106112b9576101008083540402835291602001916112e4565b820191906000526020600020905b8154815290600101906020018083116112c757829003601f168201915b50939695505050505050565b60006112fd610edd611d5e565b6113385760405162461bcd60e51b8152600401808060200182810382526030815260200180612b796030913960400191505060405180910390fd5b611343848484611e64565b5060019392505050565b611358610edd611d5e565b6113935760405162461bcd60e51b8152600401808060200182810382526030815260200180612b796030913960400191505060405180910390fd5b61139c81611eb6565b50565b6113af6113aa611d5e565b611efe565b565b600c60205281600052604060002081815481106113ca57fe5b6000918252602090912001546001600160a01b03169150829050565b60006113f3610edd611d5e565b61142e5760405162461bcd60e51b8152600401808060200182810382526030815260200180612b796030913960400191505060405180910390fd5b610f278383611f46565b6000611444600b611f60565b61144e600b611e60565b6000818152600c602090815260408083208054600181018255908452828420018054336001600160a01b031991821681179092559084526010835281842080549091166001600160a01b0389161790558383526011825290912084519293506114bb929091850190612929565b506114c533611eb6565b604051819033907fe7d1a453d66d83d6e4ffae7901ed08b56c3b1f53a1c43135c2de683e4529b65b90600090a3604080513381526020810183905281517f0a554ff72c713dffd0372d9c23cc1e214c1dfefbadda4710f4eee43eb6229a7b929181900390910190a192915050565b61153b611d5e565b6001600160a01b0316826001600160a01b031614156115a1576040805162461bcd60e51b815260206004820152601960248201527f4552433732313a20617070726f766520746f2063616c6c657200000000000000604482015290519081900360640190fd5b80600460006115ae611d5e565b6001600160a01b03908116825260208083019390935260409182016000908120918716808252919093529120805460ff1916921515929092179091556115f2611d5e565b60408051841515815290516001600160a01b0392909216917f17307eab39ab6107e8899845ad3d59bd9653f200f220920489ca2b5937696c319181900360200190a35050565b6000818152600c602090815260409182902080548351818402810184019094528084526060939283018282801561169857602002820191906000526020600020905b81546001600160a01b0316815260019091019060200180831161167a575b505050505090506116a7612907565b6000848152600f6020526040908190208151606081019092528054829060ff1660038111156116d257fe5b60038111156116dd57fe5b815260200160018201548152602001600282018054600181600116156101000203166002900480601f0160208091040260200160405190810160405280929190818152602001828054600181600116156101000203166002900480156117845780601f1061175957610100808354040283529160200191611784565b820191906000526020600020905b81548152906001019060200180831161176757829003601f168201915b50505050508152505090506000826001836020015103815181106117a457fe5b60200260200101519050336001600160a01b0316816001600160a01b0316146117fe5760405162461bcd60e51b815260040180806020018281038252602d8152602001806129e2602d913960400191505060405180910390fd5b60016000868152600f602052604090205460ff16600381111561181d57fe5b1461186f576040805162461bcd60e51b815260206004820152601960248201527f5469636b6574207374617465206d757374206265205061696400000000000000604482015290519081900360640190fd5b600282526000858152600f602052604090208251815484929190829060ff1916600183600381111561189d57fe5b02179055506020828101516001830155604083015180516118c49260028501920190612929565b505060405186915085906001600160a01b038916907f1852380d0869dc478452f3f2bcfac707f842df524f5b8896d2a4f70c756f818490600090a4604080516001600160a01b03881681526020810186905280820187905290517fe82baa24ba3534133b9033b3b6013784eaa8e524dc5ef8cf2e3e0945d00746249181900360600190a1505050505050565b600061107c60098363ffffffff611f6916565b60116020908152600091825260409182902080548351601f6002600019610100600186161502019093169290920491820184900484028101840190945280845290918301828280156119f65780601f106119cb576101008083540402835291602001916119f6565b820191906000526020600020905b8154815290600101906020018083116119d957829003601f168201915b505050505081565b611a0f611a09611d5e565b83611d62565b611a4a5760405162461bcd60e51b8152600401808060200182810382526031815260200180612c626031913960400191505060405180910390fd5b611a5684848484611fd0565b50505050565b6000828152600c6020908152604091829020805483518184028101840190945280845260609392830182828015611abc57602002820191906000526020600020905b81546001600160a01b03168152600190910190602001808311611a9e575b505050505090506000816001840381518110611ad457fe5b60200260200101519050336001600160a01b0316816001600160a01b031614611b2e5760405162461bcd60e51b8152600401808060200182810382526032815260200180612a906032913960400191505060405180910390fd5b60005b85811015611c9e57611b43600a611f60565b6000611b4f600a611e60565b9050611b5b8882611e3f565b6060611b668761124f565b60408051606081019091529091508060018152602080820189905260409182018490526000858152600f9091522081518154829060ff19166001836003811115611bac57fe5b0217905550602082810151600183015560408301518051611bd39260028501920190612929565b5050506000878152600d602081815260408084208054878652600e845291852082905592825260018101835591835290912001829055611c138933612022565b81878a6001600160a01b03167f97fac0ce6558f4accbb4696915809c0ef7023ffe7ba9454e94d49fb652aae1d560405160405180910390a4604080516001600160a01b038b1681526020810189905280820184905290517f6d651fdc8652e9b93372b6cece4377b2c0f78be48b1ffbf3bdafc7baef0138ab9181900360600190a15050600101611b31565b50505050505050565b6001600160a01b03918216600090815260046020908152604080832093909416825291909152205460ff1690565b6000818152600c602090815260408083208054825181850281018501909352808352606093830182828015611d3357602002820191906000526020600020905b81546001600160a01b03168152600190910190602001808311611d15575b505092519695505050505050565b6000908152600160205260409020546001600160a01b0316151590565b3390565b6000611d6d82611d41565b611da85760405162461bcd60e51b815260040180806020018281038252602c815260200180612ac2602c913960400191505060405180910390fd5b6000611db383611028565b9050806001600160a01b0316846001600160a01b03161480611dee5750836001600160a01b0316611de384610a51565b6001600160a01b0316145b80611dfe5750611dfe8185611ca7565b949350505050565b611e1183838361208d565b611e1b83826121d1565b610de582826122c6565b6001600160a01b0316600090815260056020526040902090565b611e498282612304565b611e5382826122c6565b611e5c81612435565b5050565b5490565b611e6e8383611e3f565b611e7b6000848484612479565b610de55760405162461bcd60e51b8152600401808060200182810382526032815260200180612a3a6032913960400191505060405180910390fd5b611ec760098263ffffffff6126b416565b6040516001600160a01b038216907f6ae172837ea30b801fbfcdd4108aa1d5bf8ff775444fd70256b44e6bf3dfc3f690600090a250565b611f0f60098263ffffffff61273516565b6040516001600160a01b038216907fe94479a9f7e1952cc78f2d6baab678adc1b772d936c6583def489e524cb6669290600090a250565b611e5c828260405180602001604052806000815250611e64565b80546001019055565b60006001600160a01b038216611fb05760405162461bcd60e51b8152600401808060200182810382526022815260200180612bf66022913960400191505060405180910390fd5b506001600160a01b03166000908152602091909152604090205460ff1690565b611fdb848484611e06565b611fe784848484612479565b611a565760405162461bcd60e51b8152600401808060200182810382526032815260200180612a3a6032913960400191505060405180910390fd5b6001600160a01b038083166000818152600460209081526040808320948616808452948252808320805460ff1916905580518381529051929493927f17307eab39ab6107e8899845ad3d59bd9653f200f220920489ca2b5937696c31929181900390910190a3505050565b826001600160a01b03166120a082611028565b6001600160a01b0316146120e55760405162461bcd60e51b8152600401808060200182810382526029815260200180612c186029913960400191505060405180910390fd5b6001600160a01b03821661212a5760405162461bcd60e51b8152600401808060200182810382526024815260200180612a6c6024913960400191505060405180910390fd5b6121338161279c565b6001600160a01b0383166000908152600360205260409020612154906127d7565b6001600160a01b038216600090815260036020526040902061217590611f60565b60008181526001602052604080822080546001600160a01b0319166001600160a01b0386811691821790925591518493918716917fddf252ad1be2c89b69c2b068fc378daa952ba7f163c4a11628f55a4df523b3ef91a4505050565b6001600160a01b0382166000908152600560205260408120546121fb90600163ffffffff6127ee16565b600083815260066020526040902054909150808214612296576001600160a01b038416600090815260056020526040812080548490811061223857fe5b906000526020600020015490508060056000876001600160a01b03166001600160a01b03168152602001908152602001600020838154811061227657fe5b600091825260208083209091019290925591825260069052604090208190555b6001600160a01b03841660009081526005602052604090208054906122bf9060001983016129a7565b5050505050565b6001600160a01b0390911660009081526005602081815260408084208054868652600684529185208290559282526001810183559183529091200155565b6001600160a01b03821661235f576040805162461bcd60e51b815260206004820181905260248201527f4552433732313a206d696e7420746f20746865207a65726f2061646472657373604482015290519081900360640190fd5b61236881611d41565b156123ba576040805162461bcd60e51b815260206004820152601c60248201527f4552433732313a20746f6b656e20616c7265616479206d696e74656400000000604482015290519081900360640190fd5b600081815260016020908152604080832080546001600160a01b0319166001600160a01b0387169081179091558352600390915290206123f990611f60565b60405181906001600160a01b038416906000907fddf252ad1be2c89b69c2b068fc378daa952ba7f163c4a11628f55a4df523b3ef908290a45050565b600780546000838152600860205260408120829055600182018355919091527fa66cc928b5edb82af9bd49922954155ab7b0942694bea4ce44661d9a8736c6880155565b600061248d846001600160a01b0316612837565b61249957506001611dfe565b600060606001600160a01b038616630a85bd0160e11b6124b7611d5e565b89888860405160240180856001600160a01b03166001600160a01b03168152602001846001600160a01b03166001600160a01b0316815260200183815260200180602001828103825283818151815260200191508051906020019080838360005b83811015612530578181015183820152602001612518565b50505050905090810190601f16801561255d5780820380516001836020036101000a031916815260200191505b5060408051601f198184030181529181526020820180516001600160e01b03166001600160e01b0319909a16999099178952518151919890975087965094509250829150849050835b602083106125c55780518252601f1990920191602091820191016125a6565b6001836020036101000a0380198251168184511680821785525050505050509050019150506000604051808303816000865af19150503d8060008114612627576040519150601f19603f3d011682016040523d82523d6000602084013e61262c565b606091505b50915091508161267d578051156126465780518082602001fd5b60405162461bcd60e51b8152600401808060200182810382526032815260200180612a3a6032913960400191505060405180910390fd5b600081806020019051602081101561269457600080fd5b50516001600160e01b031916630a85bd0160e11b149350611dfe92505050565b6126be8282611f69565b15612710576040805162461bcd60e51b815260206004820152601f60248201527f526f6c65733a206163636f756e7420616c72656164792068617320726f6c6500604482015290519081900360640190fd5b6001600160a01b0316600090815260209190915260409020805460ff19166001179055565b61273f8282611f69565b61277a5760405162461bcd60e51b8152600401808060200182810382526021815260200180612ba96021913960400191505060405180910390fd5b6001600160a01b0316600090815260209190915260409020805460ff19169055565b6000818152600260205260409020546001600160a01b03161561139c57600090815260026020526040902080546001600160a01b0319169055565b80546127ea90600163ffffffff6127ee16565b9055565b600061283083836040518060400160405280601e81526020017f536166654d6174683a207375627472616374696f6e206f766572666c6f770000815250612870565b9392505050565b6000813f7fc5d2460186f7233c927e7db2dcc703c0e500b653ca82273b7bfad8045d85a470818114801590611dfe575050151592915050565b600081848411156128ff5760405162461bcd60e51b81526004018080602001828103825283818151815260200191508051906020019080838360005b838110156128c45781810151838201526020016128ac565b50505050905090810190601f1680156128f15780820380516001836020036101000a031916815260200191505b509250505060405180910390fd5b505050900390565b6040805160608101909152806000815260200160008152602001606081525090565b828054600181600116156101000203166002900490600052602060002090601f016020900481019282601f1061296a57805160ff1916838001178555612997565b82800160010185558215612997579182015b8281111561299757825182559160200191906001019061297c565b506129a39291506129c7565b5090565b815481835581811115610de557600083815260209020610de59181019083015b610bdf91905b808211156129a357600081556001016129cd56fe796f752073686f756c642063616c6c207363616e2066726f6d207469636b657473616c6520636f6e7472616374455243373231456e756d657261626c653a206f776e657220696e646578206f7574206f6620626f756e64734552433732313a207472616e7366657220746f206e6f6e20455243373231526563656976657220696d706c656d656e7465724552433732313a207472616e7366657220746f20746865207a65726f2061646472657373796f752073686f756c642063616c6c206275795469636b65742066726f6d207469636b657473616c6520636f6e74726163744552433732313a206f70657261746f7220717565727920666f72206e6f6e6578697374656e7420746f6b656e4552433732313a20617070726f76652063616c6c6572206973206e6f74206f776e6572206e6f7220617070726f76656420666f7220616c6c4552433732313a2062616c616e636520717565727920666f7220746865207a65726f20616464726573734552433732313a206f776e657220717565727920666f72206e6f6e6578697374656e7420746f6b656e4d696e746572526f6c653a2063616c6c657220646f6573206e6f74206861766520746865204d696e74657220726f6c65526f6c65733a206163636f756e7420646f6573206e6f74206861766520726f6c654552433732313a20617070726f76656420717565727920666f72206e6f6e6578697374656e7420746f6b656e526f6c65733a206163636f756e7420697320746865207a65726f20616464726573734552433732313a207472616e73666572206f6620746f6b656e2074686174206973206e6f74206f776e4552433732313a20617070726f76616c20746f2063757272656e74206f776e65724552433732313a207472616e736665722063616c6c6572206973206e6f74206f776e6572206e6f7220617070726f766564455243373231456e756d657261626c653a20676c6f62616c20696e646578206f7574206f6620626f756e6473a265627a7a7231582064707f119bdffa73de51d175138591e43d98fb13a743fbd407c4558cd9bb1b3364736f6c63430005110032526f6c65733a206163636f756e7420697320746865207a65726f2061646472657373",
  "source": "pragma solidity ^0.5.11;\n\nimport '../../zeppeline/token/ERC721/ERC721Enumerable.sol';\nimport '../../zeppeline/token/ERC721/ERC721Mintable.sol';\nimport \"../../zeppeline/drafts/Counters.sol\";\n\n\n\n\n\n\n\n// Ticket is ERC721 (NFT) token with  availability to reedem tickets\n\n/**\n\n    ERC-721 is non-fungible token.  So, each tokenID is a unique ticket\n\n    Usefull tips:\n    // Mapping from owner to list of owned token IDs\n    mapping(address => uint256[]) private _ownedTokens;\n\n    // Mapping from token ID to index of the owner tokens list\n    mapping(uint256 => uint256) private _ownedTokensIndex;\n\n    // Array with all token ids, used for enumeration\n    uint256[] private _allTokens;\n\n    // Mapping from token id to position in the allTokens array\n    mapping(uint256 => uint256) private _allTokensIndex;\n\n    Gets the list of token IDs of the requested owner.\n     function _tokensOfOwner(address owner) internal view returns (uint256[] storage) {\n        return _ownedTokens[owner];\n    }\n\n\n\n **/\n\ncontract Ticket721 is ERC721Enumerable, ERC721Mintable {\n   using SafeMath for uint256;\n   using Counters for Counters.Counter;\n\n\n    //events\n    event TicketBought(address indexed visitor_wallet,uint256 indexed event_id, uint256 indexed ticket_id);\n    event TicketBoughtHuman(address visitor_wallet,uint256 event_id, uint256 ticket_id);\n    event TicketFulfilled(address indexed visitor_wallet,uint256 indexed event_id, uint256 indexed ticket_id);   // FIXME: add date to event?\n    event TicketFulfilledHuman(address visitor_wallet,uint256 event_id, uint256 ticket_id);\n    event EventIdReserved(address indexed ticket_sale, uint256 indexed event_id);\n    event EventIdReservedHuman(address ticket_sale, uint256 event_id);\n\n    // Global counters for ticket_id and event_id\n    Counters.Counter _ticket_id_count;\n    Counters.Counter _event_id_count;\n\n    // Ticket lifecycle\n    enum TicketState {Non_Existed, Paid, Fulfilled, Cancelled}\n\n    // map from event id to ticketsale address\n    // TIP: ticket type = array.length\n    mapping(uint256 => address[]) public eventsales;\n    // map from event id to ticket ids\n    mapping (uint256 => uint256[]) public ticketIds;\n    // map fron token ID to its index in ticketIds\n    mapping (uint256 => uint256) ticketIndex;\n    // map from ticket id to ticket info\n    mapping (uint256 => TicketInfo) public ticketInfoStorage;\n    // map from sale address to organizer\n    mapping(address => address) retailers;\n    // map from event id to event JID\n    mapping(uint256 => string) public JIDs;\n\n\n    /**\n   * Ticket information\n   */\n\n    struct TicketInfo {\n    //string description;\n    //uint price;\n    TicketState state;\n   // Counters.Counter ticket_type;\n    uint ticket_type;\n    string event_JID;\n  }\n\n   // TicketInfo[] internal ticketStorage;\n\n\n\n    //FIXME: invoke constructor from 721(?)\n    constructor() public {\n      //  _addMinter(address(this));\n    }\n\n    // FIXME: approve for ticketsale, not factory\n    function setApprovalForEvent(address _owner, address ticketsale) internal{\n        bool approved;\n        _operatorApprovals[_owner][ticketsale] = approved;\n        emit ApprovalForAll(_owner, ticketsale, approved);\n    }\n\n    function _transferFromTicket(address from, address to, uint256 tokenId) public {\n        super._transferFrom(from, to, tokenId);\n    }\n\n    // TODO - check for event_id already existed\n    function reserveEventId(address orginizer, string memory jid) public returns(uint256 event_id){\n        _event_id_count.increment();\n        event_id = _event_id_count.current();\n      //  eventsales[event_id] = msg.sender;\n        eventsales[event_id].push(msg.sender);\n        retailers[msg.sender] = orginizer;\n        JIDs[event_id] = jid;\n        _addMinter(msg.sender);\n        emit EventIdReserved(msg.sender,event_id);\n        emit EventIdReservedHuman(msg.sender,event_id);\n        return event_id;\n    }\n\n    // plug additional sale for selling different types of ticket by one event\n    function plugSale(uint256 event_id, address orginizer) public returns(uint) {\n        address[] memory _sales = eventsales[event_id];\n        address _sale = _sales[0];\n        require(retailers[_sale] == orginizer, \"only orginizer can plug item\");\n        eventsales[event_id].push(msg.sender);\n        uint type_count = getTicketTypeCount(event_id);\n        return type_count;\n    }\n\n    //TODO - return ticketIDs(?)\n    function buyTicket(address buyer, uint256 ticketAmount, uint256 event_id, uint _ticket_type) public{\n        address[] memory _sales = eventsales[event_id];\n        address _sale = _sales[_ticket_type - 1]; // array start from 0\n        require(_sale == msg.sender, \"you should call buyTicket from ticketsale contract\");\n        for (uint256 i = 0; i < ticketAmount; i++ ){\n            _ticket_id_count.increment();\n            uint256 ticket_id = _ticket_id_count.current();\n\n            _mint(buyer,ticket_id);\n            string memory jid = getJidbyEventID(event_id);\n            ticketInfoStorage[ticket_id] = TicketInfo(TicketState.Paid,_ticket_type, jid);\n            ticketIndex[ticket_id] = ticketIds[event_id].length;\n            ticketIds[event_id].push(ticket_id);\n            // approve for ticketsale (msg.sender = ticketsale)\n          //  approve(msg.sender, ticket_id);\n            setApprovalForEvent(buyer,msg.sender);\n            emit TicketBought(buyer,event_id,ticket_id);\n            emit TicketBoughtHuman(buyer,event_id,ticket_id);\n        }\n\n    }\n\n    // This function is burning tokens.\n    // @deprecated\n    /*\n    function redeemTicket(address owner,uint256 tokenId, uint256 event_id) public{\n        require(eventsales[event_id] == msg.sender, \"caller doesn't match with event_id\");\n        super._burn(owner,tokenId);\n\n       // To prevent a gap in the tokens array, we store the last token in the index of the token to delete, and\n       // then delete the last slot (swap and pop).\n\n\n        uint256 ticket_index = ticketIndex[tokenId];\n        uint256 lastTicketIndex = ticketIds[event_id].length.sub(1);\n\n      //  uint256[] storage ticketIdArray = ticketIds[event_id];\n      //  uint256 lastTicketId = ticketIdArray[lastTicketIndex];\n\n        uint256 lastTicketId = ticketIds[event_id][lastTicketIndex];\n\n\n        ticketIds[event_id][ticket_index] = lastTicketId; // Move the last token to the slot of the to-delete token\n        ticketIndex[lastTicketId] = ticket_index;         // Update the moved token's index\n\n        ticketIds[event_id].length--;  // remove last element in array\n        ticketIndex[tokenId] = 0;\n\n\n    }\n    */\n\n\n     function redeemTicket(address visitor, uint256 tokenId, uint256 event_id) public{\n        address[] memory _sales = eventsales[event_id];\n        TicketInfo memory info = ticketInfoStorage[tokenId];\n        address _sale = _sales[info.ticket_type - 1];\n        require(_sale == msg.sender, \"you should call scan from ticketsale contract\");\n        require(ticketInfoStorage[tokenId].state == TicketState.Paid, \"Ticket state must be Paid\");\n        info.state = TicketState.Fulfilled;\n        ticketInfoStorage[tokenId] = info;\n        emit TicketFulfilled(visitor,event_id,tokenId);\n        emit TicketFulfilledHuman(visitor, event_id,tokenId);\n    }\n\n\n    function getTicketTypeCount(uint256 event_id) public view returns(uint) {\n        address[] memory _sales = eventsales[event_id];\n        uint ticket_type = _sales.length;\n        return ticket_type;\n    }\n\n    function getTicketByOwner(address _owner) public view returns(uint256[] memory) {\n        uint256[] storage tickets = _tokensOfOwner(_owner);\n        return tickets;\n    }\n\n    function getTicketSales(uint256 event_id) public view returns(address[] memory) {\n        address[] memory sales = eventsales[event_id];\n        return sales;\n    }\n\n    function getJidbyEventID(uint256 event_id) public view returns (string memory jid) {\n        jid = JIDs[event_id];\n        return jid;\n    }\n\n    function getJidByTicketId(uint ticket_id) public view returns (string memory jid) {\n        TicketInfo memory info = ticketInfoStorage[ticket_id];\n        jid = info.event_JID;\n        return jid;\n    }\n\n}",
  "sourcePath": "/home/jack/ethProjects/MS-Factory/contracts/721/singleton/Ticket721.sol",
  "compiler": {
    "name": "solc",
    "version": "0.5.17+commit.d19bba13.Emscripten.clang"
  },
  "schemaVersion": "3.0.11",
  "updatedAt": "2020-05-28T12:33:08.783Z",
  "devdoc": {
    "methods": {
      "approve(address,uint256)": {
        "details": "Approves another address to transfer the given token ID The zero address indicates there is no approved address. There can only be one approved address per token at a given time. Can only be called by the token owner or an approved operator.",
        "params": {
          "to": "address to be approved for the given token ID",
          "tokenId": "uint256 ID of the token to be approved"
        }
      },
      "balanceOf(address)": {
        "details": "Gets the balance of the specified address.",
        "params": {
          "owner": "address to query the balance of"
        },
        "return": "uint256 representing the amount owned by the passed address"
      },
      "getApproved(uint256)": {
        "details": "Gets the approved address for a token ID, or zero if no address set Reverts if the token ID does not exist.",
        "params": {
          "tokenId": "uint256 ID of the token to query the approval of"
        },
        "return": "address currently approved for the given token ID"
      },
      "isApprovedForAll(address,address)": {
        "details": "Tells whether an operator is approved by a given owner.",
        "params": {
          "operator": "operator address which you want to query the approval of",
          "owner": "owner address which you want to query the approval of"
        },
        "return": "bool whether the given operator is approved by the given owner"
      },
      "mint(address,uint256)": {
        "details": "Function to mint tokens.",
        "params": {
          "to": "The address that will receive the minted token.",
          "tokenId": "The token id to mint."
        },
        "return": "A boolean that indicates if the operation was successful."
      },
      "ownerOf(uint256)": {
        "details": "Gets the owner of the specified token ID.",
        "params": {
          "tokenId": "uint256 ID of the token to query the owner of"
        },
        "return": "address currently marked as the owner of the given token ID"
      },
      "safeMint(address,uint256)": {
        "details": "Function to safely mint tokens.",
        "params": {
          "to": "The address that will receive the minted token.",
          "tokenId": "The token id to mint."
        },
        "return": "A boolean that indicates if the operation was successful."
      },
      "safeMint(address,uint256,bytes)": {
        "details": "Function to safely mint tokens.",
        "params": {
          "_data": "bytes data to send along with a safe transfer check.",
          "to": "The address that will receive the minted token.",
          "tokenId": "The token id to mint."
        },
        "return": "A boolean that indicates if the operation was successful."
      },
      "safeTransferFrom(address,address,uint256)": {
        "details": "Safely transfers the ownership of a given token ID to another address If the target address is a contract, it must implement {IERC721Receiver-onERC721Received}, which is called upon a safe transfer, and return the magic value `bytes4(keccak256(\"onERC721Received(address,address,uint256,bytes)\"))`; otherwise, the transfer is reverted. Requires the msg.sender to be the owner, approved, or operator",
        "params": {
          "from": "current owner of the token",
          "to": "address to receive the ownership of the given token ID",
          "tokenId": "uint256 ID of the token to be transferred"
        }
      },
      "safeTransferFrom(address,address,uint256,bytes)": {
        "details": "Safely transfers the ownership of a given token ID to another address If the target address is a contract, it must implement {IERC721Receiver-onERC721Received}, which is called upon a safe transfer, and return the magic value `bytes4(keccak256(\"onERC721Received(address,address,uint256,bytes)\"))`; otherwise, the transfer is reverted. Requires the _msgSender() to be the owner, approved, or operator",
        "params": {
          "_data": "bytes data to send along with a safe transfer check",
          "from": "current owner of the token",
          "to": "address to receive the ownership of the given token ID",
          "tokenId": "uint256 ID of the token to be transferred"
        }
      },
      "setApprovalForAll(address,bool)": {
        "details": "Sets or unsets the approval of a given operator An operator is allowed to transfer all tokens of the sender on their behalf.",
        "params": {
          "approved": "representing the status of the approval to be set",
          "to": "operator address to set the approval"
        }
      },
      "supportsInterface(bytes4)": {
        "details": "See {IERC165-supportsInterface}.     * Time complexity O(1), guaranteed to always use less than 30 000 gas."
      },
      "tokenByIndex(uint256)": {
        "details": "Gets the token ID at a given index of all the tokens in this contract Reverts if the index is greater or equal to the total number of tokens.",
        "params": {
          "index": "uint256 representing the index to be accessed of the tokens list"
        },
        "return": "uint256 token ID at the given index of the tokens list"
      },
      "tokenOfOwnerByIndex(address,uint256)": {
        "details": "Gets the token ID at a given index of the tokens list of the requested owner.",
        "params": {
          "index": "uint256 representing the index to be accessed of the requested tokens list",
          "owner": "address owning the tokens list to be accessed"
        },
        "return": "uint256 token ID at the given index of the tokens list owned by the requested address"
      },
      "totalSupply()": {
        "details": "Gets the total amount of tokens stored by the contract.",
        "return": "uint256 representing the total amount of tokens"
      },
      "transferFrom(address,address,uint256)": {
        "details": "Transfers the ownership of a given token ID to another address. Usage of this method is discouraged, use {safeTransferFrom} whenever possible. Requires the msg.sender to be the owner, approved, or operator.",
        "params": {
          "from": "current owner of the token",
          "to": "address to receive the ownership of the given token ID",
          "tokenId": "uint256 ID of the token to be transferred"
        }
      }
    }
  },
  "userdoc": {
    "methods": {},
    "notice": "ERC-721 is non-fungible token.  So, each tokenID is a unique ticket Usefull tips: // Mapping from owner to list of owned token IDs mapping(address => uint256[]) private _ownedTokens; // Mapping from token ID to index of the owner tokens list mapping(uint256 => uint256) private _ownedTokensIndex; // Array with all token ids, used for enumeration uint256[] private _allTokens; // Mapping from token id to position in the allTokens array mapping(uint256 => uint256) private _allTokensIndex; Gets the list of token IDs of the requested owner. function _tokensOfOwner(address owner) internal view returns (uint256[] storage) { return _ownedTokens[owner]; }*"
  }
}