{
  "contractName": "TicketFactory721",
  "abi": [
    {
      "inputs": [],
      "payable": false,
      "stateMutability": "nonpayable",
      "type": "constructor"
    },
    {
      "anonymous": false,
      "inputs": [
        {
          "indexed": true,
          "internalType": "address",
          "name": "organizer",
          "type": "address"
        },
        {
          "indexed": false,
          "internalType": "uint256",
          "name": "price",
          "type": "uint256"
        },
        {
          "indexed": true,
          "internalType": "uint256",
          "name": "event_id",
          "type": "uint256"
        },
        {
          "indexed": true,
          "internalType": "string",
          "name": "event_JID",
          "type": "string"
        }
      ],
      "name": "SaleCreated",
      "type": "event"
    },
    {
      "anonymous": false,
      "inputs": [
        {
          "indexed": false,
          "internalType": "address",
          "name": "organizer",
          "type": "address"
        },
        {
          "indexed": false,
          "internalType": "uint256",
          "name": "price",
          "type": "uint256"
        },
        {
          "indexed": false,
          "internalType": "uint256",
          "name": "event_id",
          "type": "uint256"
        },
        {
          "indexed": false,
          "internalType": "string",
          "name": "event_JID",
          "type": "string"
        }
      ],
      "name": "SaleCreatedHuman",
      "type": "event"
    },
    {
      "constant": false,
      "inputs": [
        {
          "internalType": "address payable",
          "name": "organizer",
          "type": "address"
        },
        {
          "internalType": "uint256",
          "name": "price",
          "type": "uint256"
        },
        {
          "internalType": "string",
          "name": "event_JID",
          "type": "string"
        },
        {
          "internalType": "uint256",
          "name": "sale_limit",
          "type": "uint256"
        }
      ],
      "name": "createTicketSale",
      "outputs": [
        {
          "internalType": "address payable",
          "name": "ticket_sale_adr",
          "type": "address"
        },
        {
          "internalType": "uint256",
          "name": "event_id",
          "type": "uint256"
        }
      ],
      "payable": false,
      "stateMutability": "nonpayable",
      "type": "function"
    },
    {
      "constant": true,
      "inputs": [
        {
          "internalType": "string",
          "name": "JID",
          "type": "string"
        }
      ],
      "name": "getEventIdByJid",
      "outputs": [
        {
          "internalType": "uint256",
          "name": "",
          "type": "uint256"
        }
      ],
      "payable": false,
      "stateMutability": "view",
      "type": "function"
    },
    {
      "constant": true,
      "inputs": [],
      "name": "getTicketTemplateAddress",
      "outputs": [
        {
          "internalType": "address",
          "name": "",
          "type": "address"
        }
      ],
      "payable": false,
      "stateMutability": "view",
      "type": "function"
    }
  ],
  "bytecode": "0x608060405234801561001057600080fd5b5061001f61006360201b60201c565b6000806101000a81548173ffffffffffffffffffffffffffffffffffffffff021916908373ffffffffffffffffffffffffffffffffffffffff1602179055506100a3565b600060405161007190610096565b604051809103906000f08015801561008d573d6000803e3d6000fd5b50905080905090565b614a0f80611a9383390190565b6119e1806100b26000396000f3fe608060405234801561001057600080fd5b50600436106100415760003560e01c806351c1878214610046578063722b58171461017c578063b9923893146101c6575b600080fd5b6101336004803603608081101561005c57600080fd5b81019080803573ffffffffffffffffffffffffffffffffffffffff16906020019092919080359060200190929190803590602001906401000000008111156100a357600080fd5b8201836020820111156100b557600080fd5b803590602001918460018302840111640100000000831117156100d757600080fd5b91908080601f016020809104026020016040519081016040528093929190818152602001838380828437600081840152601f19601f82011690508083019250505050505050919291929080359060200190929190505050610295565b604051808373ffffffffffffffffffffffffffffffffffffffff1673ffffffffffffffffffffffffffffffffffffffff1681526020018281526020019250505060405180910390f35b61018461062c565b604051808273ffffffffffffffffffffffffffffffffffffffff1673ffffffffffffffffffffffffffffffffffffffff16815260200191505060405180910390f35b61027f600480360360208110156101dc57600080fd5b81019080803590602001906401000000008111156101f957600080fd5b82018360208201111561020b57600080fd5b8035906020019184600183028401116401000000008311171561022d57600080fd5b91908080601f016020809104026020016040519081016040528093929190818152602001838380828437600081840152601f19601f820116905080830192505050505050509192919290505050610655565b6040518082815260200191505060405180910390f35b60008060008060009054906101000a900473ffffffffffffffffffffffffffffffffffffffff16905060006001866040518082805190602001908083835b602083106102f657805182526020820191506020810190506020830392506102d3565b6001836020036101000a03801982511681845116808217855250505050505090500191505090815260200160405180910390205414610380576040517f08c379a00000000000000000000000000000000000000000000000000000000081526004018080602001828103825260268152602001806119876026913960400191505060405180910390fd5b6000819050610392888883888a6106c8565b935060008490508073ffffffffffffffffffffffffffffffffffffffff166391039dee6040518163ffffffff1660e01b815260040160206040518083038186803b1580156103df57600080fd5b505afa1580156103f3573d6000803e3d6000fd5b505050506040513d602081101561040957600080fd5b81019080805190602001909291905050509350836001886040518082805190602001908083835b602083106104535780518252602082019150602081019050602083039250610430565b6001836020036101000a038019825116818451168082178552505050505050905001915050908152602001604051809103902081905550866040518082805190602001908083835b602083106104be578051825260208201915060208101905060208303925061049b565b6001836020036101000a0380198251168184511680821785525050505050509050019150506040518091039020848a73ffffffffffffffffffffffffffffffffffffffff167f87836d9d795936ee8b4b6ffb2c7b7fba245eb618db8294c11e9cf03565afbb408b6040518082815260200191505060405180910390a47fb702e8e169b710c91381cf2aaaff91ec3426a2858b72c207dd62ad0bf417f9478989868a604051808573ffffffffffffffffffffffffffffffffffffffff1673ffffffffffffffffffffffffffffffffffffffff16815260200184815260200183815260200180602001828103825283818151815260200191508051906020019080838360005b838110156105dd5780820151818401526020810190506105c2565b50505050905090810190601f16801561060a5780820380516001836020036101000a031916815260200191505b509550505050505060405180910390a184849450945050505094509492505050565b60008060009054906101000a900473ffffffffffffffffffffffffffffffffffffffff16905090565b60006001826040518082805190602001908083835b6020831061068d578051825260208201915060208101905060208303925061066a565b6001836020036101000a0380198251168184511680821785525050505050509050019150509081526020016040518091039020549050919050565b6000806106d4866107f6565b905080878686866040516106e79061080d565b808681526020018573ffffffffffffffffffffffffffffffffffffffff1673ffffffffffffffffffffffffffffffffffffffff1681526020018473ffffffffffffffffffffffffffffffffffffffff1673ffffffffffffffffffffffffffffffffffffffff16815260200183815260200180602001828103825283818151815260200191508051906020019080838360005b83811015610794578082015181840152602081019050610779565b50505050905090810190601f1680156107c15780820380516001836020036101000a031916815260200191505b509650505050505050604051809103906000f0801580156107e6573d6000803e3d6000fd5b5091508191505095945050505050565b6000670de0b6b3a764000082029050809050919050565b61116c8061081b8339019056fe60806040526000600255600060045534801561001a57600080fd5b5060405161116c38038061116c833981810160405260a081101561003d57600080fd5b81019080805190602001909291908051906020019092919080519060200190929190805190602001909291908051604051939291908464010000000082111561008557600080fd5b8382019150602082018581111561009b57600080fd5b82518660018202830111640100000000821117156100b857600080fd5b8083526020830192505050908051906020019080838360005b838110156100ec5780820151818401526020810190506100d1565b50505050905090810190601f1680156101195780820380516001836020036101000a031916815260200191505b50604052505050848484848460016000806101000a81548160ff021916908315150217905550600085116101b5576040517f08c379a00000000000000000000000000000000000000000000000000000000081526004018080602001828103825260148152602001807f43726f776473616c653a2072617465206973203000000000000000000000000081525060200191505060405180910390fd5b600073ffffffffffffffffffffffffffffffffffffffff168473ffffffffffffffffffffffffffffffffffffffff16141561023b576040517f08c379a00000000000000000000000000000000000000000000000000000000081526004018080602001828103825260258152602001806111476025913960400191505060405180910390fd5b600073ffffffffffffffffffffffffffffffffffffffff168373ffffffffffffffffffffffffffffffffffffffff1614156102c1576040517f08c379a00000000000000000000000000000000000000000000000000000000081526004018080602001828103825260248152602001806111236024913960400191505060405180910390fd5b8460068190555083600560006101000a81548173ffffffffffffffffffffffffffffffffffffffff021916908373ffffffffffffffffffffffffffffffffffffffff16021790555082600060016101000a81548173ffffffffffffffffffffffffffffffffffffffff021916908373ffffffffffffffffffffffffffffffffffffffff16021790555081600381905550600060019054906101000a900473ffffffffffffffffffffffffffffffffffffffff1673ffffffffffffffffffffffffffffffffffffffff1663a201b238600560009054906101000a900473ffffffffffffffffffffffffffffffffffffffff16836040518363ffffffff1660e01b8152600401808373ffffffffffffffffffffffffffffffffffffffff1673ffffffffffffffffffffffffffffffffffffffff16815260200180602001828103825283818151815260200191508051906020019080838360005b83811015610434578082015181840152602081019050610419565b50505050905090810190601f1680156104615780820380516001836020036101000a031916815260200191505b509350505050602060405180830381600087803b15801561048157600080fd5b505af1158015610495573d6000803e3d6000fd5b505050506040513d60208110156104ab57600080fd5b810190808051906020019092919050505060018190555050505050505050505050610c48806104db6000396000f3fe6080604052600436106100dd5760003560e01c806391039dee1161007f578063ecd0c0c311610059578063ecd0c0c314610357578063f00a93d3146103ae578063f9cfe26b146103d9578063fc0c546a14610404576100dd565b806391039dee146102a4578063a5f8cdbb146102cf578063ec8ac4d814610313576100dd565b8063521eb273116100bb578063521eb27314610170578063610757e4146101c75780636c1e81e31461021e5780636ed08ea014610279576100dd565b806323e6f340146100ef5780632c4e722e1461011a5780634042b66f14610145575b6100ed6100e861045b565b610463565b005b3480156100fb57600080fd5b5061010461046f565b6040518082815260200191505060405180910390f35b34801561012657600080fd5b5061012f610475565b6040518082815260200191505060405180910390f35b34801561015157600080fd5b5061015a61047f565b6040518082815260200191505060405180910390f35b34801561017c57600080fd5b50610185610489565b604051808273ffffffffffffffffffffffffffffffffffffffff1673ffffffffffffffffffffffffffffffffffffffff16815260200191505060405180910390f35b3480156101d357600080fd5b506101dc6104b3565b604051808273ffffffffffffffffffffffffffffffffffffffff1673ffffffffffffffffffffffffffffffffffffffff16815260200191505060405180910390f35b34801561022a57600080fd5b506102776004803603604081101561024157600080fd5b81019080803573ffffffffffffffffffffffffffffffffffffffff169060200190929190803590602001909291905050506104d9565b005b34801561028557600080fd5b5061028e61059e565b6040518082815260200191505060405180910390f35b3480156102b057600080fd5b506102b96105a4565b6040518082815260200191505060405180910390f35b610311600480360360208110156102e557600080fd5b81019080803573ffffffffffffffffffffffffffffffffffffffff169060200190929190505050610463565b005b6103556004803603602081101561032957600080fd5b81019080803573ffffffffffffffffffffffffffffffffffffffff1690602001909291905050506105ae565b005b34801561036357600080fd5b5061036c610755565b604051808273ffffffffffffffffffffffffffffffffffffffff1673ffffffffffffffffffffffffffffffffffffffff16815260200191505060405180910390f35b3480156103ba57600080fd5b506103c361077b565b6040518082815260200191505060405180910390f35b3480156103e557600080fd5b506103ee61078a565b6040518082815260200191505060405180910390f35b34801561041057600080fd5b50610419610790565b604051808273ffffffffffffffffffffffffffffffffffffffff1673ffffffffffffffffffffffffffffffffffffffff16815260200191505060405180910390f35b600033905090565b61046c816105ae565b50565b60025481565b6000600654905090565b6000600754905090565b6000600560009054906101000a900473ffffffffffffffffffffffffffffffffffffffff16905090565b600560009054906101000a900473ffffffffffffffffffffffffffffffffffffffff1681565b60006104e3610790565b905060006104ef6105a4565b90508173ffffffffffffffffffffffffffffffffffffffff1663a27c282e8585846040518463ffffffff1660e01b8152600401808473ffffffffffffffffffffffffffffffffffffffff1673ffffffffffffffffffffffffffffffffffffffff1681526020018381526020018281526020019350505050600060405180830381600087803b15801561058057600080fd5b505af1158015610594573d6000803e3d6000fd5b5050505050505050565b60015481565b6000600154905090565b6000809054906101000a900460ff1661062f576040517f08c379a000000000000000000000000000000000000000000000000000000000815260040180806020018281038252601f8152602001807f5265656e7472616e637947756172643a207265656e7472616e742063616c6c0081525060200191505060405180910390fd5b60008060006101000a81548160ff02191690831515021790555060003490506000610659826107b9565b905061066683838361084a565b61067b826007546109b190919063ffffffff16565b600781905550610696816004546109b190919063ffffffff16565b6004819055506106a68382610a39565b8273ffffffffffffffffffffffffffffffffffffffff166106c561045b565b73ffffffffffffffffffffffffffffffffffffffff167f6faf93231a456e552dbc9961f58d9713ee4f2e69d15f1975b050ef0911053a7b8484604051808381526020018281526020019250505060405180910390a36107248383610a47565b61072c610a4b565b6107368383610ab6565b505060016000806101000a81548160ff02191690831515021790555050565b600060019054906101000a900473ffffffffffffffffffffffffffffffffffffffff1681565b600061078561077b565b905090565b60045481565b60008060019054906101000a900473ffffffffffffffffffffffffffffffffffffffff16905090565b6000600654821015610816576040517f08c379a000000000000000000000000000000000000000000000000000000000815260040180806020018281038252602c815260200180610be8602c913960400191505060405180910390fd5b6000670de0b6b3a76400006006548161082b57fe5b04670de0b6b3a7640000848161083d57fe5b0402905080915050919050565b600073ffffffffffffffffffffffffffffffffffffffff168373ffffffffffffffffffffffffffffffffffffffff1614156108d0576040517f08c379a000000000000000000000000000000000000000000000000000000000815260040180806020018281038252602a815260200180610bbe602a913960400191505060405180910390fd5b6000821415610947576040517f08c379a00000000000000000000000000000000000000000000000000000000081526004018080602001828103825260198152602001807f43726f776473616c653a20776569416d6f756e7420697320300000000000000081525060200191505060405180910390fd5b6000816004540190506003548111156109ab576040517f08c379a000000000000000000000000000000000000000000000000000000000815260040180806020018281038252602a815260200180610b94602a913960400191505060405180910390fd5b50505050565b600080828401905083811015610a2f576040517f08c379a000000000000000000000000000000000000000000000000000000000815260040180806020018281038252601b8152602001807f536166654d6174683a206164646974696f6e206f766572666c6f77000000000081525060200191505060405180910390fd5b8091505092915050565b610a438282610aba565b5050565b5050565b600560009054906101000a900473ffffffffffffffffffffffffffffffffffffffff1673ffffffffffffffffffffffffffffffffffffffff166108fc349081150290604051600060405180830381858888f19350505050158015610ab3573d6000803e3d6000fd5b50565b5050565b600060019054906101000a900473ffffffffffffffffffffffffffffffffffffffff1673ffffffffffffffffffffffffffffffffffffffff1663cd3a15f883836001546002546040518563ffffffff1660e01b8152600401808573ffffffffffffffffffffffffffffffffffffffff1673ffffffffffffffffffffffffffffffffffffffff168152602001848152602001838152602001828152602001945050505050600060405180830381600087803b158015610b7757600080fd5b505af1158015610b8b573d6000803e3d6000fd5b50505050505056fe746f6b656e7320616d6f756e742073686f756c64206e6f74206578636565642073616c655f6c696d697443726f776473616c653a2062656e656669636961727920697320746865207a65726f206164647265737377656920616d6f756e742073686f756c6420626520626967676572206f7220657175616c206f662072617465a265627a7a723158208df409d3990c5a2dabcd31b0a144bbfd1146731092ebad035a7208a5179aa28564736f6c6343000511003243726f776473616c653a20746f6b656e20697320746865207a65726f206164647265737343726f776473616c653a2077616c6c657420697320746865207a65726f206164647265737373616c6520776974682074686973204a494420697320616c7265616479206372656174656421a265627a7a72315820ed56aefa665be2107afe893efb7c44f6b4d5e0eab1f0f05f6b9d4ac6a0efb45964736f6c6343000511003260806040523480156200001157600080fd5b506200002a6301ffc9a760e01b6200009160201b60201c565b620000426380ac58cd60e01b6200009160201b60201c565b6200005a63780e9d6360e01b6200009160201b60201c565b6200007a6200006e6200019a60201b60201c565b620001a260201b60201c565b6200008b30620001a260201b60201c565b620003c7565b63ffffffff60e01b817bffffffffffffffffffffffffffffffffffffffffffffffffffffffff191614156200012e576040517f08c379a000000000000000000000000000000000000000000000000000000000815260040180806020018281038252601c8152602001807f4552433136353a20696e76616c696420696e746572666163652069640000000081525060200191505060405180910390fd5b6001600080837bffffffffffffffffffffffffffffffffffffffffffffffffffffffff19167bffffffffffffffffffffffffffffffffffffffffffffffffffffffff1916815260200190815260200160002060006101000a81548160ff02191690831515021790555050565b600033905090565b620001bd8160096200020360201b62003db91790919060201c565b8073ffffffffffffffffffffffffffffffffffffffff167f6ae172837ea30b801fbfcdd4108aa1d5bf8ff775444fd70256b44e6bf3dfc3f660405160405180910390a250565b620002158282620002e760201b60201c565b1562000289576040517f08c379a000000000000000000000000000000000000000000000000000000000815260040180806020018281038252601f8152602001807f526f6c65733a206163636f756e7420616c72656164792068617320726f6c650081525060200191505060405180910390fd5b60018260000160008373ffffffffffffffffffffffffffffffffffffffff1673ffffffffffffffffffffffffffffffffffffffff16815260200190815260200160002060006101000a81548160ff0219169083151502179055505050565b60008073ffffffffffffffffffffffffffffffffffffffff168273ffffffffffffffffffffffffffffffffffffffff16141562000370576040517f08c379a0000000000000000000000000000000000000000000000000000000008152600401808060200182810382526022815260200180620049ed6022913960400191505060405180910390fd5b8260000160008373ffffffffffffffffffffffffffffffffffffffff1673ffffffffffffffffffffffffffffffffffffffff16815260200190815260200160002060009054906101000a900460ff16905092915050565b61461680620003d76000396000f3fe608060405234801561001057600080fd5b50600436106101fb5760003560e01c806378df3a521161011a578063a22cb465116100ad578063ad140b1d1161007c578063ad140b1d14610e50578063b88d4fde14610ef7578063cd3a15f814610ffc578063e985e9c51461105e578063ec95d2d0146110da576101fb565b8063a22cb46514610cde578063a27c282e14610d2e578063aa271e1a14610d86578063ab31520a14610de2576101fb565b806398650275116100e95780639865027514610b075780639b1d8baf14610b11578063a144819414610b89578063a201b23814610bef576101fb565b806378df3a52146108d357806385c393f81461091f5780638832e6e3146109c6578063983b2d5614610ac3576101fb565b8063376b029a116101925780634f6ccce7116101615780634f6ccce7146107695780636352211e146107ab578063645c0fb01461081957806370a082311461087b576101fb565b8063376b029a1461057957806340c10f191461061257806342842e0e1461067857806344bb8aff146106e6576101fb565b80631d663f10116101ce5780631d663f101461033f5780631eb8098e1461040257806323b872dd146104a95780632f745c5914610517576101fb565b806301ffc9a714610200578063081812fc14610265578063095ea7b3146102d357806318160ddd14610321575b600080fd5b61024b6004803603602081101561021657600080fd5b8101908080357bffffffffffffffffffffffffffffffffffffffffffffffffffffffff1916906020019092919050505061111c565b604051808215151515815260200191505060405180910390f35b6102916004803603602081101561027b57600080fd5b8101908080359060200190929190505050611183565b604051808273ffffffffffffffffffffffffffffffffffffffff1673ffffffffffffffffffffffffffffffffffffffff16815260200191505060405180910390f35b61031f600480360360408110156102e957600080fd5b81019080803573ffffffffffffffffffffffffffffffffffffffff1690602001909291908035906020019092919050505061121e565b005b610329611405565b6040518082815260200191505060405180910390f35b61036b6004803603602081101561035557600080fd5b8101908080359060200190929190505050611412565b6040518084600281111561037b57fe5b60ff16815260200183815260200180602001828103825283818151815260200191508051906020019080838360005b838110156103c55780820151818401526020810190506103aa565b50505050905090810190601f1680156103f25780820380516001836020036101000a031916815260200191505b5094505050505060405180910390f35b61042e6004803603602081101561041857600080fd5b81019080803590602001909291905050506114e1565b6040518080602001828103825283818151815260200191508051906020019080838360005b8381101561046e578082015181840152602081019050610453565b50505050905090810190601f16801561049b5780820380516001836020036101000a031916815260200191505b509250505060405180910390f35b610515600480360360608110156104bf57600080fd5b81019080803573ffffffffffffffffffffffffffffffffffffffff169060200190929190803573ffffffffffffffffffffffffffffffffffffffff169060200190929190803590602001909291905050506115f4565b005b6105636004803603604081101561052d57600080fd5b81019080803573ffffffffffffffffffffffffffffffffffffffff1690602001909291908035906020019092919050505061166a565b6040518082815260200191505060405180910390f35b6105bb6004803603602081101561058f57600080fd5b81019080803573ffffffffffffffffffffffffffffffffffffffff169060200190929190505050611729565b6040518080602001828103825283818151815260200191508051906020019060200280838360005b838110156105fe5780820151818401526020810190506105e3565b505050509050019250505060405180910390f35b61065e6004803603604081101561062857600080fd5b81019080803573ffffffffffffffffffffffffffffffffffffffff16906020019092919080359060200190929190505050611790565b604051808215151515815260200191505060405180910390f35b6106e46004803603606081101561068e57600080fd5b81019080803573ffffffffffffffffffffffffffffffffffffffff169060200190929190803573ffffffffffffffffffffffffffffffffffffffff1690602001909291908035906020019092919050505061180b565b005b610712600480360360208110156106fc57600080fd5b810190808035906020019092919050505061182b565b6040518080602001828103825283818151815260200191508051906020019060200280838360005b8381101561075557808201518184015260208101905061073a565b505050509050019250505060405180910390f35b6107956004803603602081101561077f57600080fd5b81019080803590602001909291905050506118d1565b6040518082815260200191505060405180910390f35b6107d7600480360360208110156107c157600080fd5b8101908080359060200190929190505050611951565b604051808273ffffffffffffffffffffffffffffffffffffffff1673ffffffffffffffffffffffffffffffffffffffff16815260200191505060405180910390f35b6108656004803603604081101561082f57600080fd5b8101908080359060200190929190803573ffffffffffffffffffffffffffffffffffffffff169060200190929190505050611a19565b6040518082815260200191505060405180910390f35b6108bd6004803603602081101561089157600080fd5b81019080803573ffffffffffffffffffffffffffffffffffffffff169060200190929190505050611c60565b6040518082815260200191505060405180910390f35b610909600480360360408110156108e957600080fd5b810190808035906020019092919080359060200190929190505050611d35565b6040518082815260200191505060405180910390f35b61094b6004803603602081101561093557600080fd5b8101908080359060200190929190505050611d63565b6040518080602001828103825283818151815260200191508051906020019080838360005b8381101561098b578082015181840152602081019050610970565b50505050905090810190601f1680156109b85780820380516001836020036101000a031916815260200191505b509250505060405180910390f35b610aa9600480360360608110156109dc57600080fd5b81019080803573ffffffffffffffffffffffffffffffffffffffff1690602001909291908035906020019092919080359060200190640100000000811115610a2357600080fd5b820183602082011115610a3557600080fd5b80359060200191846001830284011164010000000083111715610a5757600080fd5b91908080601f016020809104026020016040519081016040528093929190818152602001838380828437600081840152601f19601f820116905080830192505050505050509192919290505050611e1b565b604051808215151515815260200191505060405180910390f35b610b0560048036036020811015610ad957600080fd5b81019080803573ffffffffffffffffffffffffffffffffffffffff169060200190929190505050611e98565b005b610b0f611f09565b005b610b4760048036036040811015610b2757600080fd5b810190808035906020019092919080359060200190929190505050611f1b565b604051808273ffffffffffffffffffffffffffffffffffffffff1673ffffffffffffffffffffffffffffffffffffffff16815260200191505060405180910390f35b610bd560048036036040811015610b9f57600080fd5b81019080803573ffffffffffffffffffffffffffffffffffffffff16906020019092919080359060200190929190505050611f66565b604051808215151515815260200191505060405180910390f35b610cc860048036036040811015610c0557600080fd5b81019080803573ffffffffffffffffffffffffffffffffffffffff16906020019092919080359060200190640100000000811115610c4257600080fd5b820183602082011115610c5457600080fd5b80359060200191846001830284011164010000000083111715610c7657600080fd5b91908080601f016020809104026020016040519081016040528093929190818152602001838380828437600081840152601f19601f820116905080830192505050505050509192919290505050611fe1565b6040518082815260200191505060405180910390f35b610d2c60048036036040811015610cf457600080fd5b81019080803573ffffffffffffffffffffffffffffffffffffffff1690602001909291908035151590602001909291905050506121d7565b005b610d8460048036036060811015610d4457600080fd5b81019080803573ffffffffffffffffffffffffffffffffffffffff169060200190929190803590602001909291908035906020019092919050505061238f565b005b610dc860048036036020811015610d9c57600080fd5b81019080803573ffffffffffffffffffffffffffffffffffffffff1690602001909291905050506127c5565b604051808215151515815260200191505060405180910390f35b610e4e60048036036060811015610df857600080fd5b81019080803573ffffffffffffffffffffffffffffffffffffffff169060200190929190803573ffffffffffffffffffffffffffffffffffffffff169060200190929190803590602001909291905050506127e2565b005b610e7c60048036036020811015610e6657600080fd5b81019080803590602001909291905050506127f2565b6040518080602001828103825283818151815260200191508051906020019080838360005b83811015610ebc578082015181840152602081019050610ea1565b50505050905090810190601f168015610ee95780820380516001836020036101000a031916815260200191505b509250505060405180910390f35b610ffa60048036036080811015610f0d57600080fd5b81019080803573ffffffffffffffffffffffffffffffffffffffff169060200190929190803573ffffffffffffffffffffffffffffffffffffffff1690602001909291908035906020019092919080359060200190640100000000811115610f7457600080fd5b820183602082011115610f8657600080fd5b80359060200191846001830284011164010000000083111715610fa857600080fd5b91908080601f016020809104026020016040519081016040528093929190818152602001838380828437600081840152601f19601f8201169050808301925050505050505091929192905050506128a2565b005b61105c6004803603608081101561101257600080fd5b81019080803573ffffffffffffffffffffffffffffffffffffffff16906020019092919080359060200190929190803590602001909291908035906020019092919050505061291a565b005b6110c06004803603604081101561107457600080fd5b81019080803573ffffffffffffffffffffffffffffffffffffffff169060200190929190803573ffffffffffffffffffffffffffffffffffffffff169060200190929190505050612c61565b604051808215151515815260200191505060405180910390f35b611106600480360360208110156110f057600080fd5b8101908080359060200190929190505050612cf5565b6040518082815260200191505060405180910390f35b6000806000837bffffffffffffffffffffffffffffffffffffffffffffffffffffffff19167bffffffffffffffffffffffffffffffffffffffffffffffffffffffff1916815260200190815260200160002060009054906101000a900460ff169050919050565b600061118e82612da3565b6111e3576040517f08c379a000000000000000000000000000000000000000000000000000000000815260040180806020018281038252602c8152602001806144ed602c913960400191505060405180910390fd5b6002600083815260200190815260200160002060009054906101000a900473ffffffffffffffffffffffffffffffffffffffff169050919050565b600061122982611951565b90508073ffffffffffffffffffffffffffffffffffffffff168373ffffffffffffffffffffffffffffffffffffffff1614156112b0576040517f08c379a00000000000000000000000000000000000000000000000000000000081526004018080602001828103825260218152602001806145646021913960400191505060405180910390fd5b8073ffffffffffffffffffffffffffffffffffffffff166112cf612e15565b73ffffffffffffffffffffffffffffffffffffffff1614806112fe57506112fd816112f8612e15565b612c61565b5b611353576040517f08c379a00000000000000000000000000000000000000000000000000000000081526004018080602001828103825260388152602001806144116038913960400191505060405180910390fd5b826002600084815260200190815260200160002060006101000a81548173ffffffffffffffffffffffffffffffffffffffff021916908373ffffffffffffffffffffffffffffffffffffffff160217905550818373ffffffffffffffffffffffffffffffffffffffff168273ffffffffffffffffffffffffffffffffffffffff167f8c5be1e5ebec7d5bd14f71427d1e84f3dd0314c0f7b2291e5b200ac8c7c3b92560405160405180910390a4505050565b6000600780549050905090565b600f6020528060005260406000206000915090508060000160009054906101000a900460ff1690806001015490806002018054600181600116156101000203166002900480601f0160208091040260200160405190810160405280929190818152602001828054600181600116156101000203166002900480156114d75780601f106114ac576101008083540402835291602001916114d7565b820191906000526020600020905b8154815290600101906020018083116114ba57829003601f168201915b5050505050905083565b60606114eb614187565b600f60008481526020019081526020016000206040518060600160405290816000820160009054906101000a900460ff16600281111561152757fe5b600281111561153257fe5b815260200160018201548152602001600282018054600181600116156101000203166002900480601f0160208091040260200160405190810160405280929190818152602001828054600181600116156101000203166002900480156115d95780601f106115ae576101008083540402835291602001916115d9565b820191906000526020600020905b8154815290600101906020018083116115bc57829003601f168201915b50505050508152505090508060400151915081915050919050565b6116056115ff612e15565b82612e1d565b61165a576040517f08c379a00000000000000000000000000000000000000000000000000000000081526004018080602001828103825260318152602001806145856031913960400191505060405180910390fd5b611665838383612f11565b505050565b600061167583611c60565b82106116cc576040517f08c379a000000000000000000000000000000000000000000000000000000000815260040180806020018281038252602b815260200180614332602b913960400191505060405180910390fd5b600560008473ffffffffffffffffffffffffffffffffffffffff1673ffffffffffffffffffffffffffffffffffffffff168152602001908152602001600020828154811061171657fe5b9060005260206000200154905092915050565b6060600061173683612f35565b90508080548060200260200160405190810160405280929190818152602001828054801561178357602002820191906000526020600020905b81548152602001906001019080831161176f575b5050505050915050919050565b60006117a261179d612e15565b6127c5565b6117f7576040517f08c379a000000000000000000000000000000000000000000000000000000000815260040180806020018281038252603081526020018061449c6030913960400191505060405180910390fd5b6118018383612f7d565b6001905092915050565b611826838383604051806020016040528060008152506128a2565b505050565b606080600c60008481526020019081526020016000208054806020026020016040519081016040528092919081815260200182805480156118c157602002820191906000526020600020905b8160009054906101000a900473ffffffffffffffffffffffffffffffffffffffff1673ffffffffffffffffffffffffffffffffffffffff1681526020019060010190808311611877575b5050505050905080915050919050565b60006118db611405565b8210611932576040517f08c379a000000000000000000000000000000000000000000000000000000000815260040180806020018281038252602c8152602001806145b6602c913960400191505060405180910390fd5b6007828154811061193f57fe5b90600052602060002001549050919050565b6000806001600084815260200190815260200160002060009054906101000a900473ffffffffffffffffffffffffffffffffffffffff169050600073ffffffffffffffffffffffffffffffffffffffff168173ffffffffffffffffffffffffffffffffffffffff161415611a10576040517f08c379a00000000000000000000000000000000000000000000000000000000081526004018080602001828103825260298152602001806144736029913960400191505060405180910390fd5b80915050919050565b60006060600c6000858152602001908152602001600020805480602002602001604051908101604052809291908181526020018280548015611ab057602002820191906000526020600020905b8160009054906101000a900473ffffffffffffffffffffffffffffffffffffffff1673ffffffffffffffffffffffffffffffffffffffff1681526020019060010190808311611a66575b50505050509050600081600081518110611ac657fe5b602002602001015190508373ffffffffffffffffffffffffffffffffffffffff16601060008373ffffffffffffffffffffffffffffffffffffffff1673ffffffffffffffffffffffffffffffffffffffff16815260200190815260200160002060009054906101000a900473ffffffffffffffffffffffffffffffffffffffff1673ffffffffffffffffffffffffffffffffffffffff1614611bd0576040517f08c379a000000000000000000000000000000000000000000000000000000000815260040180806020018281038252601c8152602001807f6f6e6c79206f7267696e697a65722063616e20706c7567206974656d0000000081525060200191505060405180910390fd5b600c60008681526020019081526020016000203390806001815401808255809150509060018203906000526020600020016000909192909190916101000a81548173ffffffffffffffffffffffffffffffffffffffff021916908373ffffffffffffffffffffffffffffffffffffffff160217905550506000611c5286612cf5565b905080935050505092915050565b60008073ffffffffffffffffffffffffffffffffffffffff168273ffffffffffffffffffffffffffffffffffffffff161415611ce7576040517f08c379a000000000000000000000000000000000000000000000000000000000815260040180806020018281038252602a815260200180614449602a913960400191505060405180910390fd5b611d2e600360008473ffffffffffffffffffffffffffffffffffffffff1673ffffffffffffffffffffffffffffffffffffffff168152602001908152602001600020612f9e565b9050919050565b600d6020528160005260406000208181548110611d4e57fe5b90600052602060002001600091509150505481565b6060601160008381526020019081526020016000208054600181600116156101000203166002900480601f016020809104026020016040519081016040528092919081815260200182805460018160011615610100020316600290048015611e0c5780601f10611de157610100808354040283529160200191611e0c565b820191906000526020600020905b815481529060010190602001808311611def57829003601f168201915b50505050509050809050919050565b6000611e2d611e28612e15565b6127c5565b611e82576040517f08c379a000000000000000000000000000000000000000000000000000000000815260040180806020018281038252603081526020018061449c6030913960400191505060405180910390fd5b611e8d848484612fac565b600190509392505050565b611ea8611ea3612e15565b6127c5565b611efd576040517f08c379a000000000000000000000000000000000000000000000000000000000815260040180806020018281038252603081526020018061449c6030913960400191505060405180910390fd5b611f068161301d565b50565b611f19611f14612e15565b613077565b565b600c6020528160005260406000208181548110611f3457fe5b906000526020600020016000915091509054906101000a900473ffffffffffffffffffffffffffffffffffffffff1681565b6000611f78611f73612e15565b6127c5565b611fcd576040517f08c379a000000000000000000000000000000000000000000000000000000000815260040180806020018281038252603081526020018061449c6030913960400191505060405180910390fd5b611fd783836130d1565b6001905092915050565b6000611fed600b6130ef565b611ff7600b612f9e565b9050600c60008281526020019081526020016000203390806001815401808255809150509060018203906000526020600020016000909192909190916101000a81548173ffffffffffffffffffffffffffffffffffffffff021916908373ffffffffffffffffffffffffffffffffffffffff1602179055505082601060003373ffffffffffffffffffffffffffffffffffffffff1673ffffffffffffffffffffffffffffffffffffffff16815260200190815260200160002060006101000a81548173ffffffffffffffffffffffffffffffffffffffff021916908373ffffffffffffffffffffffffffffffffffffffff160217905550816011600083815260200190815260200160002090805190602001906121159291906141b3565b5061211f3361301d565b803373ffffffffffffffffffffffffffffffffffffffff167fe7d1a453d66d83d6e4ffae7901ed08b56c3b1f53a1c43135c2de683e4529b65b60405160405180910390a37f0a554ff72c713dffd0372d9c23cc1e214c1dfefbadda4710f4eee43eb6229a7b3382604051808373ffffffffffffffffffffffffffffffffffffffff1673ffffffffffffffffffffffffffffffffffffffff1681526020018281526020019250505060405180910390a180905092915050565b6121df612e15565b73ffffffffffffffffffffffffffffffffffffffff168273ffffffffffffffffffffffffffffffffffffffff161415612280576040517f08c379a00000000000000000000000000000000000000000000000000000000081526004018080602001828103825260198152602001807f4552433732313a20617070726f766520746f2063616c6c65720000000000000081525060200191505060405180910390fd5b806004600061228d612e15565b73ffffffffffffffffffffffffffffffffffffffff1673ffffffffffffffffffffffffffffffffffffffff16815260200190815260200160002060008473ffffffffffffffffffffffffffffffffffffffff1673ffffffffffffffffffffffffffffffffffffffff16815260200190815260200160002060006101000a81548160ff0219169083151502179055508173ffffffffffffffffffffffffffffffffffffffff1661233a612e15565b73ffffffffffffffffffffffffffffffffffffffff167f17307eab39ab6107e8899845ad3d59bd9653f200f220920489ca2b5937696c3183604051808215151515815260200191505060405180910390a35050565b6060600c600083815260200190815260200160002080548060200260200160405190810160405280929190818152602001828054801561242457602002820191906000526020600020905b8160009054906101000a900473ffffffffffffffffffffffffffffffffffffffff1673ffffffffffffffffffffffffffffffffffffffff16815260200190600101908083116123da575b50505050509050612433614187565b600f60008581526020019081526020016000206040518060600160405290816000820160009054906101000a900460ff16600281111561246f57fe5b600281111561247a57fe5b815260200160018201548152602001600282018054600181600116156101000203166002900480601f0160208091040260200160405190810160405280929190818152602001828054600181600116156101000203166002900480156125215780601f106124f657610100808354040283529160200191612521565b820191906000526020600020905b81548152906001019060200180831161250457829003601f168201915b505050505081525050905060008282602001518151811061253e57fe5b602002602001015190503373ffffffffffffffffffffffffffffffffffffffff168173ffffffffffffffffffffffffffffffffffffffff16146125cc576040517f08c379a000000000000000000000000000000000000000000000000000000000815260040180806020018281038252602d815260200180614305602d913960400191505060405180910390fd5b600060028111156125d957fe5b600f600087815260200190815260200160002060000160009054906101000a900460ff16600281111561260857fe5b1461267b576040517f08c379a00000000000000000000000000000000000000000000000000000000081526004018080602001828103825260198152602001807f5469636b6574207374617465206d75737420626520506169640000000000000081525060200191505060405180910390fd5b60018260000190600281111561268d57fe5b9081600281111561269a57fe5b8152505081600f600087815260200190815260200160002060008201518160000160006101000a81548160ff021916908360028111156126d657fe5b0217905550602082015181600101556040820151816002019080519060200190612701929190614233565b5090505084848773ffffffffffffffffffffffffffffffffffffffff167f1852380d0869dc478452f3f2bcfac707f842df524f5b8896d2a4f70c756f818460405160405180910390a47fe82baa24ba3534133b9033b3b6013784eaa8e524dc5ef8cf2e3e0945d0074624868587604051808473ffffffffffffffffffffffffffffffffffffffff1673ffffffffffffffffffffffffffffffffffffffff168152602001838152602001828152602001935050505060405180910390a1505050505050565b60006127db82600961310590919063ffffffff16565b9050919050565b6127ed838383612f11565b505050565b60116020528060005260406000206000915090508054600181600116156101000203166002900480601f01602080910402602001604051908101604052809291908181526020018280546001816001161561010002031660029004801561289a5780601f1061286f5761010080835404028352916020019161289a565b820191906000526020600020905b81548152906001019060200180831161287d57829003601f168201915b505050505081565b6128b36128ad612e15565b83612e1d565b612908576040517f08c379a00000000000000000000000000000000000000000000000000000000081526004018080602001828103825260318152602001806145856031913960400191505060405180910390fd5b612914848484846131e3565b50505050565b6060600c60008481526020019081526020016000208054806020026020016040519081016040528092919081815260200182805480156129af57602002820191906000526020600020905b8160009054906101000a900473ffffffffffffffffffffffffffffffffffffffff1673ffffffffffffffffffffffffffffffffffffffff1681526020019060010190808311612965575b5050505050905060008183815181106129c457fe5b602002602001015190503373ffffffffffffffffffffffffffffffffffffffff168173ffffffffffffffffffffffffffffffffffffffff1614612a52576040517f08c379a00000000000000000000000000000000000000000000000000000000081526004018080602001828103825260328152602001806143b36032913960400191505060405180910390fd5b60008090505b85811015612c5857612a6a600a6130ef565b6000612a76600a612f9e565b9050612a828882612f7d565b6060612a8d87611d63565b9050604051806060016040528060006002811115612aa757fe5b815260200187815260200182815250600f600084815260200190815260200160002060008201518160000160006101000a81548160ff02191690836002811115612aed57fe5b0217905550602082015181600101556040820151816002019080519060200190612b18929190614233565b50905050600d600088815260200190815260200160002080549050600e600084815260200190815260200160002081905550600d6000888152602001908152602001600020829080600181540180825580915050906001820390600052602060002001600090919290919091505550612b918933613255565b81878a73ffffffffffffffffffffffffffffffffffffffff167f97fac0ce6558f4accbb4696915809c0ef7023ffe7ba9454e94d49fb652aae1d560405160405180910390a47f6d651fdc8652e9b93372b6cece4377b2c0f78be48b1ffbf3bdafc7baef0138ab898884604051808473ffffffffffffffffffffffffffffffffffffffff1673ffffffffffffffffffffffffffffffffffffffff168152602001838152602001828152602001935050505060405180910390a150508080600101915050612a58565b50505050505050565b6000600460008473ffffffffffffffffffffffffffffffffffffffff1673ffffffffffffffffffffffffffffffffffffffff16815260200190815260200160002060008373ffffffffffffffffffffffffffffffffffffffff1673ffffffffffffffffffffffffffffffffffffffff16815260200190815260200160002060009054906101000a900460ff16905092915050565b60006060600c6000848152602001908152602001600020805480602002602001604051908101604052809291908181526020018280548015612d8c57602002820191906000526020600020905b8160009054906101000a900473ffffffffffffffffffffffffffffffffffffffff1673ffffffffffffffffffffffffffffffffffffffff1681526020019060010190808311612d42575b505050505090506000815190508092505050919050565b6000806001600084815260200190815260200160002060009054906101000a900473ffffffffffffffffffffffffffffffffffffffff169050600073ffffffffffffffffffffffffffffffffffffffff168173ffffffffffffffffffffffffffffffffffffffff161415915050919050565b600033905090565b6000612e2882612da3565b612e7d576040517f08c379a000000000000000000000000000000000000000000000000000000000815260040180806020018281038252602c8152602001806143e5602c913960400191505060405180910390fd5b6000612e8883611951565b90508073ffffffffffffffffffffffffffffffffffffffff168473ffffffffffffffffffffffffffffffffffffffff161480612ef757508373ffffffffffffffffffffffffffffffffffffffff16612edf84611183565b73ffffffffffffffffffffffffffffffffffffffff16145b80612f085750612f078185612c61565b5b91505092915050565b612f1c838383613359565b612f2683826135b4565b612f308282613752565b505050565b6000600560008373ffffffffffffffffffffffffffffffffffffffff1673ffffffffffffffffffffffffffffffffffffffff1681526020019081526020016000209050919050565b612f878282613819565b612f918282613752565b612f9a81613a31565b5050565b600081600001549050919050565b612fb68383612f7d565b612fc36000848484613a7d565b613018576040517f08c379a000000000000000000000000000000000000000000000000000000000815260040180806020018281038252603281526020018061435d6032913960400191505060405180910390fd5b505050565b613031816009613db990919063ffffffff16565b8073ffffffffffffffffffffffffffffffffffffffff167f6ae172837ea30b801fbfcdd4108aa1d5bf8ff775444fd70256b44e6bf3dfc3f660405160405180910390a250565b61308b816009613e9490919063ffffffff16565b8073ffffffffffffffffffffffffffffffffffffffff167fe94479a9f7e1952cc78f2d6baab678adc1b772d936c6583def489e524cb6669260405160405180910390a250565b6130eb828260405180602001604052806000815250612fac565b5050565b6001816000016000828254019250508190555050565b60008073ffffffffffffffffffffffffffffffffffffffff168273ffffffffffffffffffffffffffffffffffffffff16141561318c576040517f08c379a00000000000000000000000000000000000000000000000000000000081526004018080602001828103825260228152602001806145196022913960400191505060405180910390fd5b8260000160008373ffffffffffffffffffffffffffffffffffffffff1673ffffffffffffffffffffffffffffffffffffffff16815260200190815260200160002060009054906101000a900460ff16905092915050565b6131ee848484612f11565b6131fa84848484613a7d565b61324f576040517f08c379a000000000000000000000000000000000000000000000000000000000815260040180806020018281038252603281526020018061435d6032913960400191505060405180910390fd5b50505050565b600080600460008573ffffffffffffffffffffffffffffffffffffffff1673ffffffffffffffffffffffffffffffffffffffff16815260200190815260200160002060008473ffffffffffffffffffffffffffffffffffffffff1673ffffffffffffffffffffffffffffffffffffffff16815260200190815260200160002060006101000a81548160ff0219169083151502179055508173ffffffffffffffffffffffffffffffffffffffff168373ffffffffffffffffffffffffffffffffffffffff167f17307eab39ab6107e8899845ad3d59bd9653f200f220920489ca2b5937696c3183604051808215151515815260200191505060405180910390a3505050565b8273ffffffffffffffffffffffffffffffffffffffff1661337982611951565b73ffffffffffffffffffffffffffffffffffffffff16146133e5576040517f08c379a000000000000000000000000000000000000000000000000000000000815260040180806020018281038252602981526020018061453b6029913960400191505060405180910390fd5b600073ffffffffffffffffffffffffffffffffffffffff168273ffffffffffffffffffffffffffffffffffffffff16141561346b576040517f08c379a000000000000000000000000000000000000000000000000000000000815260040180806020018281038252602481526020018061438f6024913960400191505060405180910390fd5b61347481613f51565b6134bb600360008573ffffffffffffffffffffffffffffffffffffffff1673ffffffffffffffffffffffffffffffffffffffff16815260200190815260200160002061400f565b613502600360008473ffffffffffffffffffffffffffffffffffffffff1673ffffffffffffffffffffffffffffffffffffffff1681526020019081526020016000206130ef565b816001600083815260200190815260200160002060006101000a81548173ffffffffffffffffffffffffffffffffffffffff021916908373ffffffffffffffffffffffffffffffffffffffff160217905550808273ffffffffffffffffffffffffffffffffffffffff168473ffffffffffffffffffffffffffffffffffffffff167fddf252ad1be2c89b69c2b068fc378daa952ba7f163c4a11628f55a4df523b3ef60405160405180910390a4505050565b600061360c6001600560008673ffffffffffffffffffffffffffffffffffffffff1673ffffffffffffffffffffffffffffffffffffffff1681526020019081526020016000208054905061403290919063ffffffff16565b90506000600660008481526020019081526020016000205490508181146136f9576000600560008673ffffffffffffffffffffffffffffffffffffffff1673ffffffffffffffffffffffffffffffffffffffff168152602001908152602001600020838154811061367957fe5b9060005260206000200154905080600560008773ffffffffffffffffffffffffffffffffffffffff1673ffffffffffffffffffffffffffffffffffffffff16815260200190815260200160002083815481106136d157fe5b9060005260206000200181905550816006600083815260200190815260200160002081905550505b600560008573ffffffffffffffffffffffffffffffffffffffff1673ffffffffffffffffffffffffffffffffffffffff16815260200190815260200160002080548091906001900361374b91906142b3565b5050505050565b600560008373ffffffffffffffffffffffffffffffffffffffff1673ffffffffffffffffffffffffffffffffffffffff168152602001908152602001600020805490506006600083815260200190815260200160002081905550600560008373ffffffffffffffffffffffffffffffffffffffff1673ffffffffffffffffffffffffffffffffffffffff1681526020019081526020016000208190806001815401808255809150509060018203906000526020600020016000909192909190915055505050565b600073ffffffffffffffffffffffffffffffffffffffff168273ffffffffffffffffffffffffffffffffffffffff1614156138bc576040517f08c379a00000000000000000000000000000000000000000000000000000000081526004018080602001828103825260208152602001807f4552433732313a206d696e7420746f20746865207a65726f206164647265737381525060200191505060405180910390fd5b6138c581612da3565b15613938576040517f08c379a000000000000000000000000000000000000000000000000000000000815260040180806020018281038252601c8152602001807f4552433732313a20746f6b656e20616c7265616479206d696e7465640000000081525060200191505060405180910390fd5b816001600083815260200190815260200160002060006101000a81548173ffffffffffffffffffffffffffffffffffffffff021916908373ffffffffffffffffffffffffffffffffffffffff1602179055506139d1600360008473ffffffffffffffffffffffffffffffffffffffff1673ffffffffffffffffffffffffffffffffffffffff1681526020019081526020016000206130ef565b808273ffffffffffffffffffffffffffffffffffffffff16600073ffffffffffffffffffffffffffffffffffffffff167fddf252ad1be2c89b69c2b068fc378daa952ba7f163c4a11628f55a4df523b3ef60405160405180910390a45050565b6007805490506008600083815260200190815260200160002081905550600781908060018154018082558091505090600182039060005260206000200160009091929091909150555050565b6000613a9e8473ffffffffffffffffffffffffffffffffffffffff1661407c565b613aab5760019050613db1565b600060608573ffffffffffffffffffffffffffffffffffffffff168673ffffffffffffffffffffffffffffffffffffffff1663150b7a02905060e01b613aef612e15565b898888604051602401808573ffffffffffffffffffffffffffffffffffffffff1673ffffffffffffffffffffffffffffffffffffffff1681526020018473ffffffffffffffffffffffffffffffffffffffff1673ffffffffffffffffffffffffffffffffffffffff16815260200183815260200180602001828103825283818151815260200191508051906020019080838360005b83811015613b9f578082015181840152602081019050613b84565b50505050905090810190601f168015613bcc5780820380516001836020036101000a031916815260200191505b5095505050505050604051602081830303815290604052907bffffffffffffffffffffffffffffffffffffffffffffffffffffffff19166020820180517bffffffffffffffffffffffffffffffffffffffffffffffffffffffff83818316178352505050506040518082805190602001908083835b60208310613c645780518252602082019150602081019050602083039250613c41565b6001836020036101000a0380198251168184511680821785525050505050509050019150506000604051808303816000865af19150503d8060008114613cc6576040519150601f19603f3d011682016040523d82523d6000602084013e613ccb565b606091505b509150915081613d3957600081511115613ce85780518082602001fd5b6040517f08c379a000000000000000000000000000000000000000000000000000000000815260040180806020018281038252603281526020018061435d6032913960400191505060405180910390fd5b6000818060200190516020811015613d5057600080fd5b8101908080519060200190929190505050905063150b7a0260e01b7bffffffffffffffffffffffffffffffffffffffffffffffffffffffff1916817bffffffffffffffffffffffffffffffffffffffffffffffffffffffff19161493505050505b949350505050565b613dc38282613105565b15613e36576040517f08c379a000000000000000000000000000000000000000000000000000000000815260040180806020018281038252601f8152602001807f526f6c65733a206163636f756e7420616c72656164792068617320726f6c650081525060200191505060405180910390fd5b60018260000160008373ffffffffffffffffffffffffffffffffffffffff1673ffffffffffffffffffffffffffffffffffffffff16815260200190815260200160002060006101000a81548160ff0219169083151502179055505050565b613e9e8282613105565b613ef3576040517f08c379a00000000000000000000000000000000000000000000000000000000081526004018080602001828103825260218152602001806144cc6021913960400191505060405180910390fd5b60008260000160008373ffffffffffffffffffffffffffffffffffffffff1673ffffffffffffffffffffffffffffffffffffffff16815260200190815260200160002060006101000a81548160ff0219169083151502179055505050565b600073ffffffffffffffffffffffffffffffffffffffff166002600083815260200190815260200160002060009054906101000a900473ffffffffffffffffffffffffffffffffffffffff1673ffffffffffffffffffffffffffffffffffffffff161461400c5760006002600083815260200190815260200160002060006101000a81548173ffffffffffffffffffffffffffffffffffffffff021916908373ffffffffffffffffffffffffffffffffffffffff1602179055505b50565b6140276001826000015461403290919063ffffffff16565b816000018190555050565b600061407483836040518060400160405280601e81526020017f536166654d6174683a207375627472616374696f6e206f766572666c6f7700008152506140c7565b905092915050565b60008060007fc5d2460186f7233c927e7db2dcc703c0e500b653ca82273b7bfad8045d85a47060001b9050833f91508082141580156140be57506000801b8214155b92505050919050565b6000838311158290614174576040517f08c379a00000000000000000000000000000000000000000000000000000000081526004018080602001828103825283818151815260200191508051906020019080838360005b8381101561413957808201518184015260208101905061411e565b50505050905090810190601f1680156141665780820380516001836020036101000a031916815260200191505b509250505060405180910390fd5b5060008385039050809150509392505050565b60405180606001604052806000600281111561419f57fe5b815260200160008152602001606081525090565b828054600181600116156101000203166002900490600052602060002090601f016020900481019282601f106141f457805160ff1916838001178555614222565b82800160010185558215614222579182015b82811115614221578251825591602001919060010190614206565b5b50905061422f91906142df565b5090565b828054600181600116156101000203166002900490600052602060002090601f016020900481019282601f1061427457805160ff19168380011785556142a2565b828001600101855582156142a2579182015b828111156142a1578251825591602001919060010190614286565b5b5090506142af91906142df565b5090565b8154818355818111156142da578183600052602060002091820191016142d991906142df565b5b505050565b61430191905b808211156142fd5760008160009055506001016142e5565b5090565b9056fe796f752073686f756c642063616c6c207363616e2066726f6d207469636b657473616c6520636f6e7472616374455243373231456e756d657261626c653a206f776e657220696e646578206f7574206f6620626f756e64734552433732313a207472616e7366657220746f206e6f6e20455243373231526563656976657220696d706c656d656e7465724552433732313a207472616e7366657220746f20746865207a65726f2061646472657373796f752073686f756c642063616c6c206275795469636b65742066726f6d207469636b657473616c6520636f6e74726163744552433732313a206f70657261746f7220717565727920666f72206e6f6e6578697374656e7420746f6b656e4552433732313a20617070726f76652063616c6c6572206973206e6f74206f776e6572206e6f7220617070726f76656420666f7220616c6c4552433732313a2062616c616e636520717565727920666f7220746865207a65726f20616464726573734552433732313a206f776e657220717565727920666f72206e6f6e6578697374656e7420746f6b656e4d696e746572526f6c653a2063616c6c657220646f6573206e6f74206861766520746865204d696e74657220726f6c65526f6c65733a206163636f756e7420646f6573206e6f74206861766520726f6c654552433732313a20617070726f76656420717565727920666f72206e6f6e6578697374656e7420746f6b656e526f6c65733a206163636f756e7420697320746865207a65726f20616464726573734552433732313a207472616e73666572206f6620746f6b656e2074686174206973206e6f74206f776e4552433732313a20617070726f76616c20746f2063757272656e74206f776e65724552433732313a207472616e736665722063616c6c6572206973206e6f74206f776e6572206e6f7220617070726f766564455243373231456e756d657261626c653a20676c6f62616c20696e646578206f7574206f6620626f756e6473a265627a7a723158206a2d76a23fbdc1fee02f6b4dbc6bd0348cb2260797da3d6c734496c073c4d50264736f6c63430005110032526f6c65733a206163636f756e7420697320746865207a65726f2061646472657373",
  "source": "pragma solidity ^0.5.11;\n\n//import './zeppeline/token/ERC20/ERC20Mintable.sol';\n\n// TODO: replace contracts to interfaces cause of gas limit\n// FIXME: this contract required for 7m gas limit -- which is more than standart 6m in ethereum networks. We should consider that when deployment\n\nimport './Ticket721.sol';\nimport './TicketSale721.sol';\n//import './TicketSalePluggable.sol';\n\n\n\ncontract TicketFactory721 {\n\n// constant\naddress ticket_template;\n\n// event\nevent SaleCreated(address indexed organizer, uint price, uint256 indexed event_id, string indexed event_JID);\nevent SaleCreatedHuman(address organizer, uint price, uint256 event_id, string event_JID);\n//event PluggedSale(address indexed organizer, address indexed orginal_sale, uint256 indexed event_id);\n//event PluggedSaleHuman(address organizer, address original_sale, uint256 event_id);\n\n// mapping from JID to event_id\nmapping (string => uint256) events_jids;\n\n\nconstructor() public {\n    ticket_template = createTicket721();\n}\n\n\nfunction createTicket721() internal returns (address ticket_address) {\n //  address factory_address = address(this);\n   ticket_address = address(new Ticket721());\n   return ticket_address;\n}\n\n\nfunction createTicketSale721(address payable organizer, uint price, Ticket721 token,uint sale_limit, string memory jid) internal returns(address payable ticket_sale) {\n    // calculate price\n    uint256 cena = calculateRate(price);\n\n    ticket_sale = address(new TicketSale721(cena, organizer, token, sale_limit, jid));\n    return ticket_sale;\n}\n\nfunction createTicketSale(address payable organizer, uint price, string memory event_JID, uint sale_limit) public returns (address payable ticket_sale_adr, uint256 event_id) {\n\n    address ticket_adr = ticket_template;\n    require(events_jids[event_JID] == 0, \"sale with this JID is already created!\");\n    Ticket721 ticket = Ticket721(ticket_adr);\n    ticket_sale_adr = createTicketSale721(organizer, price, ticket,sale_limit, event_JID);\n    TicketSale721 ticket_sale = TicketSale721(ticket_sale_adr);\n\n    event_id = ticket_sale.event_id();\n    events_jids[event_JID] = event_id;\n    emit SaleCreated(organizer, price, event_id, event_JID);\n    emit SaleCreatedHuman(organizer,price,event_id, event_JID);\n    return(ticket_sale_adr, event_id);\n\n\n}\n\n/*\nfunction PlugInTicketSale(address payable origin_sale, uint price) public returns(address payable plugin_sale) {\n    uint cena = calculateRate(price);\n    plugin_sale = address(new TicketSalePluggable(cena,origin_sale));\n    TicketSale721 ticket_sale = TicketSale721(origin_sale);\n    uint256 event_id = ticket_sale.event_id();\n    emit PluggedSale(msg.sender,origin_sale,event_id);\n    emit PluggedSaleHuman(msg.sender, origin_sale, event_id);\n    return plugin_sale;\n}\n*/\n\nfunction calculateRate (uint256 price) internal pure returns (uint256 rate_p) {\n    // rate = price * 1 eth\n    rate_p = price * (1 ether); // override for price determinition\n    return rate_p;\n}\n\n\nfunction getEventIdByJid(string memory JID) public view returns(uint256) {\n    return events_jids[JID];\n}\n\nfunction getTicketTemplateAddress() public view returns(address) {\n    return ticket_template;\n}\n\n}",
  "sourcePath": "/home/jack/ethProjects/MS-Factory/contracts/721/singleton/TicketFactory721.sol",
  "compiler": {
    "name": "solc",
    "version": "0.5.17+commit.d19bba13.Emscripten.clang"
  },
  "schemaVersion": "3.0.11",
  "updatedAt": "2020-04-17T15:30:03.039Z",
  "devdoc": {
    "methods": {}
  },
  "userdoc": {
    "methods": {}
  }
}