{
  "contractName": "TicketSalePluggable",
  "abi": [
    {
      "inputs": [
        {
          "internalType": "uint256",
          "name": "rate",
          "type": "uint256"
        },
        {
          "internalType": "address payable",
          "name": "_origin",
          "type": "address"
        },
        {
          "internalType": "uint256",
          "name": "sale_limit",
          "type": "uint256"
        }
      ],
      "payable": false,
      "stateMutability": "nonpayable",
      "type": "constructor"
    },
    {
      "anonymous": false,
      "inputs": [
        {
          "indexed": true,
          "internalType": "address",
          "name": "purchaser",
          "type": "address"
        },
        {
          "indexed": true,
          "internalType": "address",
          "name": "beneficiary",
          "type": "address"
        },
        {
          "indexed": false,
          "internalType": "uint256",
          "name": "value",
          "type": "uint256"
        },
        {
          "indexed": false,
          "internalType": "uint256",
          "name": "amount",
          "type": "uint256"
        }
      ],
      "name": "TokensPurchased",
      "type": "event"
    },
    {
      "payable": true,
      "stateMutability": "payable",
      "type": "fallback"
    },
    {
      "constant": true,
      "inputs": [],
      "name": "_event_id",
      "outputs": [
        {
          "internalType": "uint256",
          "name": "",
          "type": "uint256"
        }
      ],
      "payable": false,
      "stateMutability": "view",
      "type": "function"
    },
    {
      "constant": true,
      "inputs": [],
      "name": "_sold_count",
      "outputs": [
        {
          "internalType": "uint256",
          "name": "",
          "type": "uint256"
        }
      ],
      "payable": false,
      "stateMutability": "view",
      "type": "function"
    },
    {
      "constant": true,
      "inputs": [],
      "name": "_token",
      "outputs": [
        {
          "internalType": "contract Ticket721",
          "name": "",
          "type": "address"
        }
      ],
      "payable": false,
      "stateMutability": "view",
      "type": "function"
    },
    {
      "constant": true,
      "inputs": [],
      "name": "_wallet",
      "outputs": [
        {
          "internalType": "address payable",
          "name": "",
          "type": "address"
        }
      ],
      "payable": false,
      "stateMutability": "view",
      "type": "function"
    },
    {
      "constant": false,
      "inputs": [
        {
          "internalType": "address",
          "name": "beneficiary",
          "type": "address"
        }
      ],
      "name": "buyTokens",
      "outputs": [],
      "payable": true,
      "stateMutability": "payable",
      "type": "function"
    },
    {
      "constant": true,
      "inputs": [],
      "name": "event_id",
      "outputs": [
        {
          "internalType": "uint256",
          "name": "",
          "type": "uint256"
        }
      ],
      "payable": false,
      "stateMutability": "view",
      "type": "function"
    },
    {
      "constant": true,
      "inputs": [],
      "name": "origin_sale",
      "outputs": [
        {
          "internalType": "contract TokenSale721",
          "name": "",
          "type": "address"
        }
      ],
      "payable": false,
      "stateMutability": "view",
      "type": "function"
    },
    {
      "constant": true,
      "inputs": [],
      "name": "rate",
      "outputs": [
        {
          "internalType": "uint256",
          "name": "",
          "type": "uint256"
        }
      ],
      "payable": false,
      "stateMutability": "view",
      "type": "function"
    },
    {
      "constant": true,
      "inputs": [],
      "name": "sale_limit",
      "outputs": [
        {
          "internalType": "uint256",
          "name": "",
          "type": "uint256"
        }
      ],
      "payable": false,
      "stateMutability": "view",
      "type": "function"
    },
    {
      "constant": true,
      "inputs": [],
      "name": "sold_count",
      "outputs": [
        {
          "internalType": "uint256",
          "name": "",
          "type": "uint256"
        }
      ],
      "payable": false,
      "stateMutability": "view",
      "type": "function"
    },
    {
      "constant": true,
      "inputs": [],
      "name": "ticket_type",
      "outputs": [
        {
          "internalType": "uint256",
          "name": "",
          "type": "uint256"
        }
      ],
      "payable": false,
      "stateMutability": "view",
      "type": "function"
    },
    {
      "constant": true,
      "inputs": [],
      "name": "token",
      "outputs": [
        {
          "internalType": "contract Ticket721",
          "name": "",
          "type": "address"
        }
      ],
      "payable": false,
      "stateMutability": "view",
      "type": "function"
    },
    {
      "constant": true,
      "inputs": [],
      "name": "wallet",
      "outputs": [
        {
          "internalType": "address payable",
          "name": "",
          "type": "address"
        }
      ],
      "payable": false,
      "stateMutability": "view",
      "type": "function"
    },
    {
      "constant": true,
      "inputs": [],
      "name": "weiRaised",
      "outputs": [
        {
          "internalType": "uint256",
          "name": "",
          "type": "uint256"
        }
      ],
      "payable": false,
      "stateMutability": "view",
      "type": "function"
    },
    {
      "constant": false,
      "inputs": [
        {
          "internalType": "address",
          "name": "buyer",
          "type": "address"
        }
      ],
      "name": "buyTicket",
      "outputs": [],
      "payable": true,
      "stateMutability": "payable",
      "type": "function"
    },
    {
      "constant": false,
      "inputs": [
        {
          "internalType": "address",
          "name": "visitor",
          "type": "address"
        },
        {
          "internalType": "uint256",
          "name": "token_id",
          "type": "uint256"
        }
      ],
      "name": "redeemTicket",
      "outputs": [],
      "payable": false,
      "stateMutability": "nonpayable",
      "type": "function"
    },
    {
      "constant": true,
      "inputs": [],
      "name": "getScannedTicketsCount",
      "outputs": [
        {
          "internalType": "uint256",
          "name": "",
          "type": "uint256"
        }
      ],
      "payable": false,
      "stateMutability": "view",
      "type": "function"
    }
  ],
  "bytecode": "0x6080604052600060055534801561001557600080fd5b50604051610c21380380610c218339818101604052606081101561003857600080fd5b50805160208201516040909201516000805460ff19166001179055909190828282826100ab576040805162461bcd60e51b815260206004820152601460248201527f43726f776473616c653a20726174652069732030000000000000000000000000604482015290519081900360640190fd5b6001600160a01b038216610106576040805162461bcd60e51b815260206004820152601d60248201527f6f726967696e2063616e6e6f74206265207a65726f2061646472657373000000604482015290519081900360640190fd5b600180546001600160a01b0319166001600160a01b0384811691909117918290556040805163521eb27360e01b81529051929091169163521eb27391600480820192602092909190829003018186803b15801561016257600080fd5b505afa158015610176573d6000803e3d6000fd5b505050506040513d602081101561018c57600080fd5b5051600680546001600160a01b0319166001600160a01b039283161790556007849055670de0b6b3a76400008202600490815560015460408051637e062a3560e11b81529051919093169263fc0c546a9281810192602092909190829003018186803b1580156101fb57600080fd5b505afa15801561020f573d6000803e3d6000fd5b505050506040513d602081101561022557600080fd5b505160008054610100600160a81b0319166101006001600160a01b039384160217905560015460408051634881cef760e11b8152905191909216916391039dee916004808301926020929190829003018186803b15801561028557600080fd5b505afa158015610299573d6000803e3d6000fd5b505050506040513d60208110156102af57600080fd5b505160028190556000805460065460408051630645c0fb60e41b815260048101959095526001600160a01b03918216602486015251610100909204169263645c0fb09260448083019360209390929083900390910190829087803b15801561031657600080fd5b505af115801561032a573d6000803e3d6000fd5b505050506040513d602081101561034057600080fd5b50516003555050505050506108c78061035a6000396000f3fe6080604052600436106100fe5760003560e01c8063a5f8cdbb11610095578063ecd0c0c311610064578063ecd0c0c314610280578063f00a93d314610295578063f9cfe26b146102aa578063fbbdc465146102bf578063fc0c546a146102d4576100fe565b8063a5f8cdbb1461020a578063a8253cac14610230578063e61d959414610245578063ec8ac4d81461025a576100fe565b8063610757e4116100d1578063610757e4146101925780636c1e81e3146101a75780636ed08ea0146101e057806391039dee146101f5576100fe565b80632c4e722e146101105780634042b66f1461013757806341035a411461014c578063521eb2731461017d575b61010e6101096102e9565b6102ed565b005b34801561011c57600080fd5b506101256102f9565b60408051918252519081900360200190f35b34801561014357600080fd5b506101256102ff565b34801561015857600080fd5b50610161610305565b604080516001600160a01b039092168252519081900360200190f35b34801561018957600080fd5b50610161610314565b34801561019e57600080fd5b50610161610323565b3480156101b357600080fd5b5061010e600480360360408110156101ca57600080fd5b506001600160a01b038135169060200135610332565b3480156101ec57600080fd5b506101256103da565b34801561020157600080fd5b506101256103e0565b61010e6004803603602081101561022057600080fd5b50356001600160a01b03166102ed565b34801561023c57600080fd5b506101256103e6565b34801561025157600080fd5b506101256103f9565b61010e6004803603602081101561027057600080fd5b50356001600160a01b03166103ff565b34801561028c57600080fd5b50610161610536565b3480156102a157600080fd5b5061012561054a565b3480156102b657600080fd5b50610125610550565b3480156102cb57600080fd5b50610125610556565b3480156102e057600080fd5b5061016161055c565b3390565b6102f6816103ff565b50565b60075490565b60085490565b6001546001600160a01b031681565b6006546001600160a01b031690565b6006546001600160a01b031681565b600061033c61055c565b905060006103486103e0565b9050816001600160a01b031663a27c282e8585846040518463ffffffff1660e01b815260040180846001600160a01b03166001600160a01b031681526020018381526020018281526020019350505050600060405180830381600087803b1580156103b257600080fd5b505af11580156103c6573d6000803e3d6000fd5b505050506103d46009610570565b50505050565b60025481565b60025490565b6000806103f36009610579565b91505090565b60055490565b60005460ff16610456576040805162461bcd60e51b815260206004820152601f60248201527f5265656e7472616e637947756172643a207265656e7472616e742063616c6c00604482015290519081900360640190fd5b6000805460ff19168155349061046b8261057d565b90506104788383836105f0565b60085461048b908363ffffffff6106e316565b6008556005546104a1908263ffffffff6106e316565b6005556104ae8382610744565b826001600160a01b03166104c06102e9565b6001600160a01b03167f6faf93231a456e552dbc9961f58d9713ee4f2e69d15f1975b050ef0911053a7b8484604051808381526020018281526020019250505060405180910390a3610512838361074e565b61051a610752565b610524838361074e565b50506000805460ff1916600117905550565b60005461010090046001600160a01b031681565b60045490565b60055481565b60035490565b60005461010090046001600160a01b031690565b80546001019055565b5490565b60006007548210156105c05760405162461bcd60e51b815260040180806020018281038252602c815260200180610867602c913960400191505060405180910390fd5b6000670de0b6b3a7640000600754816105d557fe5b04670de0b6b3a76400008404816105e857fe5b049392505050565b6001600160a01b0383166106355760405162461bcd60e51b815260040180806020018281038252602a81526020018061083d602a913960400191505060405180910390fd5b81610687576040805162461bcd60e51b815260206004820152601960248201527f43726f776473616c653a20776569416d6f756e74206973203000000000000000604482015290519081900360640190fd5b600554600454670de0b6b3a764000090910290828201908111156106dc5760405162461bcd60e51b815260040180806020018281038252602a815260200180610813602a913960400191505060405180910390fd5b5050505050565b60008282018381101561073d576040805162461bcd60e51b815260206004820152601b60248201527f536166654d6174683a206164646974696f6e206f766572666c6f770000000000604482015290519081900360640190fd5b9392505050565b61074e828261078b565b5050565b6006546040516001600160a01b03909116903480156108fc02916000818181858888f193505050501580156102f6573d6000803e3d6000fd5b60008054600254600354604080516319a742bf60e31b81526001600160a01b0388811660048301526024820188905260448201949094526064810192909252516101009093049091169263cd3a15f89260848084019382900301818387803b1580156107f657600080fd5b505af115801561080a573d6000803e3d6000fd5b50505050505056fe746f6b656e7320616d6f756e742073686f756c64206e6f74206578636565642073616c655f6c696d697443726f776473616c653a2062656e656669636961727920697320746865207a65726f206164647265737377656920616d6f756e742073686f756c6420626520626967676572206f7220657175616c206f662072617465a265627a7a72315820af1638844cbce561db9b7386f56eb8260fbc41d8af92aa363fcb020cd5b3e81164736f6c63430005110032",
  "source": "pragma solidity ^0.5.11;\n\nimport './PluggableSale.sol';\nimport './Ticket721.sol';\n\ncontract TicketSalePluggable is PluggableSale {\n\n\nusing Counters for Counters.Counter;\nCounters.Counter scanned_tickets;\n\nconstructor(uint256 rate, address payable _origin, uint sale_limit) PluggableSale(rate, _origin, sale_limit) public {}\n\n\n/**\n*\n* @dev overload buy token function to give allowance to reedem tickets \n*\n*\n*/\nfunction buyTicket(address buyer) public payable {\n    super.buyTokens(buyer);\n    //Ticket721 ticket_token = super.token();\n   // super._token.approve(_wallet,tokens);\n\n    // chek this one more time\n    //ticket_token.setApprovalForEvent(buyer,);\n\n}\n\n// fallback\nfunction() external payable {\n        buyTicket(_msgSender());\n    }\n\n// deprecated\n/*\nfunction redeemTicket(address visitor, uint256 token_id) public {\n    Ticket721 ticket_token = super.token();\n    uint256 event_id = super.event_id();\n    ticket_token.redeemTicket(visitor, token_id, event_id);\n}\n*/\n\nfunction redeemTicket(address visitor, uint256 token_id) public {\n    Ticket721 ticket_token = super.token();\n    uint256 event_id = super.event_id();\n    ticket_token.redeemTicket(visitor, token_id, event_id);\n    scanned_tickets.increment();\n}\n\nfunction getScannedTicketsCount() public view  returns(uint)  {\n    uint st = scanned_tickets.current();\n    return st;\n}\n\n}",
  "sourcePath": "/home/jack/ethProjects/MS-Factory/contracts/721/singleton/TicketSalePluggable.sol",
  "compiler": {
    "name": "solc",
    "version": "0.5.17+commit.d19bba13.Emscripten.clang"
  },
  "schemaVersion": "3.0.11",
  "updatedAt": "2020-06-05T18:20:50.522Z",
  "devdoc": {
    "methods": {
      "buyTicket(address)": {
        "details": "overload buy token function to give allowance to reedem tickets  *"
      },
      "buyTokens(address)": {
        "details": "low level token purchase ***DO NOT OVERRIDE*** This function has a non-reentrancy guard, so it shouldn't be called by another `nonReentrant` function.",
        "params": {
          "beneficiary": "Recipient of the token purchase"
        }
      },
      "rate()": {
        "return": "the number of token units a buyer gets per wei."
      },
      "token()": {
        "return": "the token being sold."
      },
      "wallet()": {
        "return": "the address where funds are collected."
      },
      "weiRaised()": {
        "return": "the amount of wei raised."
      }
    }
  },
  "userdoc": {
    "methods": {}
  }
}