{
  "contractName": "TicketSale721",
  "abi": [
    {
      "inputs": [
        {
          "internalType": "uint256",
          "name": "rate",
          "type": "uint256"
        },
        {
          "internalType": "address payable",
          "name": "wallet",
          "type": "address"
        },
        {
          "internalType": "contract Ticket721",
          "name": "token",
          "type": "address"
        },
        {
          "internalType": "uint256",
          "name": "sale_limit",
          "type": "uint256"
        },
        {
          "internalType": "string",
          "name": "jid",
          "type": "string"
        },
        {
          "internalType": "address payable",
          "name": "_treasure_fund",
          "type": "address"
        },
        {
          "internalType": "uint256",
          "name": "timeToStart",
          "type": "uint256"
        }
      ],
      "payable": false,
      "stateMutability": "nonpayable",
      "type": "constructor"
    },
    {
      "anonymous": false,
      "inputs": [
        {
          "indexed": false,
          "internalType": "uint256",
          "name": "initial_value",
          "type": "uint256"
        },
        {
          "indexed": false,
          "internalType": "uint256",
          "name": "fees",
          "type": "uint256"
        },
        {
          "indexed": false,
          "internalType": "uint256",
          "name": "transfered_amount",
          "type": "uint256"
        }
      ],
      "name": "CalculatedFees",
      "type": "event"
    },
    {
      "anonymous": false,
      "inputs": [
        {
          "indexed": true,
          "internalType": "address",
          "name": "purchaser",
          "type": "address"
        },
        {
          "indexed": true,
          "internalType": "address",
          "name": "beneficiary",
          "type": "address"
        },
        {
          "indexed": false,
          "internalType": "uint256",
          "name": "value",
          "type": "uint256"
        },
        {
          "indexed": false,
          "internalType": "uint256",
          "name": "amount",
          "type": "uint256"
        }
      ],
      "name": "TokensPurchased",
      "type": "event"
    },
    {
      "payable": true,
      "stateMutability": "payable",
      "type": "fallback"
    },
    {
      "constant": true,
      "inputs": [],
      "name": "_event_id",
      "outputs": [
        {
          "internalType": "uint256",
          "name": "",
          "type": "uint256"
        }
      ],
      "payable": false,
      "stateMutability": "view",
      "type": "function"
    },
    {
      "constant": false,
      "inputs": [],
      "name": "_lockFunds",
      "outputs": [],
      "payable": true,
      "stateMutability": "payable",
      "type": "function"
    },
    {
      "constant": true,
      "inputs": [],
      "name": "_sold_count",
      "outputs": [
        {
          "internalType": "uint256",
          "name": "",
          "type": "uint256"
        }
      ],
      "payable": false,
      "stateMutability": "view",
      "type": "function"
    },
    {
      "constant": true,
      "inputs": [],
      "name": "_ticket_type",
      "outputs": [
        {
          "internalType": "uint256",
          "name": "",
          "type": "uint256"
        }
      ],
      "payable": false,
      "stateMutability": "view",
      "type": "function"
    },
    {
      "constant": true,
      "inputs": [],
      "name": "_timeToStart",
      "outputs": [
        {
          "internalType": "uint256",
          "name": "",
          "type": "uint256"
        }
      ],
      "payable": false,
      "stateMutability": "view",
      "type": "function"
    },
    {
      "constant": true,
      "inputs": [],
      "name": "_token",
      "outputs": [
        {
          "internalType": "contract Ticket721",
          "name": "",
          "type": "address"
        }
      ],
      "payable": false,
      "stateMutability": "view",
      "type": "function"
    },
    {
      "constant": true,
      "inputs": [],
      "name": "_wallet",
      "outputs": [
        {
          "internalType": "address payable",
          "name": "",
          "type": "address"
        }
      ],
      "payable": false,
      "stateMutability": "view",
      "type": "function"
    },
    {
      "constant": false,
      "inputs": [
        {
          "internalType": "address",
          "name": "beneficiary",
          "type": "address"
        }
      ],
      "name": "buyTokens",
      "outputs": [],
      "payable": true,
      "stateMutability": "payable",
      "type": "function"
    },
    {
      "constant": true,
      "inputs": [],
      "name": "crDate",
      "outputs": [
        {
          "internalType": "uint256",
          "name": "",
          "type": "uint256"
        }
      ],
      "payable": false,
      "stateMutability": "view",
      "type": "function"
    },
    {
      "constant": true,
      "inputs": [],
      "name": "event_id",
      "outputs": [
        {
          "internalType": "uint256",
          "name": "",
          "type": "uint256"
        }
      ],
      "payable": false,
      "stateMutability": "view",
      "type": "function"
    },
    {
      "constant": true,
      "inputs": [],
      "name": "lockedFunds",
      "outputs": [
        {
          "internalType": "uint256",
          "name": "",
          "type": "uint256"
        }
      ],
      "payable": false,
      "stateMutability": "view",
      "type": "function"
    },
    {
      "constant": true,
      "inputs": [],
      "name": "percent_fee",
      "outputs": [
        {
          "internalType": "uint256",
          "name": "",
          "type": "uint256"
        }
      ],
      "payable": false,
      "stateMutability": "view",
      "type": "function"
    },
    {
      "constant": true,
      "inputs": [],
      "name": "rate",
      "outputs": [
        {
          "internalType": "uint256",
          "name": "",
          "type": "uint256"
        }
      ],
      "payable": false,
      "stateMutability": "view",
      "type": "function"
    },
    {
      "constant": true,
      "inputs": [],
      "name": "sale_limit",
      "outputs": [
        {
          "internalType": "uint256",
          "name": "",
          "type": "uint256"
        }
      ],
      "payable": false,
      "stateMutability": "view",
      "type": "function"
    },
    {
      "constant": true,
      "inputs": [],
      "name": "sold_count",
      "outputs": [
        {
          "internalType": "uint256",
          "name": "",
          "type": "uint256"
        }
      ],
      "payable": false,
      "stateMutability": "view",
      "type": "function"
    },
    {
      "constant": true,
      "inputs": [],
      "name": "ticket_type",
      "outputs": [
        {
          "internalType": "uint256",
          "name": "",
          "type": "uint256"
        }
      ],
      "payable": false,
      "stateMutability": "view",
      "type": "function"
    },
    {
      "constant": true,
      "inputs": [],
      "name": "token",
      "outputs": [
        {
          "internalType": "contract Ticket721",
          "name": "",
          "type": "address"
        }
      ],
      "payable": false,
      "stateMutability": "view",
      "type": "function"
    },
    {
      "constant": true,
      "inputs": [],
      "name": "treasure_fund",
      "outputs": [
        {
          "internalType": "address payable",
          "name": "",
          "type": "address"
        }
      ],
      "payable": false,
      "stateMutability": "view",
      "type": "function"
    },
    {
      "constant": true,
      "inputs": [],
      "name": "wallet",
      "outputs": [
        {
          "internalType": "address payable",
          "name": "",
          "type": "address"
        }
      ],
      "payable": false,
      "stateMutability": "view",
      "type": "function"
    },
    {
      "constant": true,
      "inputs": [],
      "name": "weiRaised",
      "outputs": [
        {
          "internalType": "uint256",
          "name": "",
          "type": "uint256"
        }
      ],
      "payable": false,
      "stateMutability": "view",
      "type": "function"
    },
    {
      "constant": false,
      "inputs": [],
      "name": "withDrawFunds",
      "outputs": [],
      "payable": false,
      "stateMutability": "nonpayable",
      "type": "function"
    },
    {
      "constant": false,
      "inputs": [
        {
          "internalType": "address",
          "name": "buyer",
          "type": "address"
        }
      ],
      "name": "buyTicket",
      "outputs": [],
      "payable": true,
      "stateMutability": "payable",
      "type": "function"
    },
    {
      "constant": false,
      "inputs": [
        {
          "internalType": "address",
          "name": "visitor",
          "type": "address"
        },
        {
          "internalType": "uint256",
          "name": "token_id",
          "type": "uint256"
        }
      ],
      "name": "redeemTicket",
      "outputs": [],
      "payable": false,
      "stateMutability": "nonpayable",
      "type": "function"
    },
    {
      "constant": true,
      "inputs": [],
      "name": "getScannedTicketsCount",
      "outputs": [
        {
          "internalType": "uint256",
          "name": "",
          "type": "uint256"
        }
      ],
      "payable": false,
      "stateMutability": "view",
      "type": "function"
    },
    {
      "constant": false,
      "inputs": [
        {
          "internalType": "uint256",
          "name": "token_id",
          "type": "uint256"
        }
      ],
      "name": "refundTicket",
      "outputs": [],
      "payable": false,
      "stateMutability": "nonpayable",
      "type": "function"
    }
  ],
  "bytecode": "0x608060405260016002556000600455600560095542600a553480156200002457600080fd5b50604051620014b0380380620014b0833981810160405260e08110156200004a57600080fd5b81516020830151604080850151606086015160808701805193519597949692959194919392820192846401000000008211156200008657600080fd5b9083019060208201858111156200009c57600080fd5b8251640100000000811182820188101715620000b757600080fd5b82525081516020918201929091019080838360005b83811015620000e6578181015183820152602001620000cc565b50505050905090810190601f168015620001145780820380516001836020036101000a031916815260200191505b50604090815260208201519101516000805460ff19166001179055909250905086868686868686866200018e576040805162461bcd60e51b815260206004820152601460248201527f43726f776473616c653a20726174652069732030000000000000000000000000604482015290519081900360640190fd5b6001600160a01b038616620001d55760405162461bcd60e51b81526004018080602001828103825260258152602001806200148b6025913960400191505060405180910390fd5b6001600160a01b0385166200021c5760405162461bcd60e51b8152600401808060200182810382526024815260200180620014676024913960400191505060405180910390fd5b6007879055600580546001600160a01b03199081166001600160a01b038981169190911792839055600680549092168582161790915560008054610100600160a81b031916610100898416810291909117808355670de0b6b3a7640000890260035560408051631440364760e31b815295851660048701818152602488019283528a5160448901528a51949093049095169563a201b23895948a9460649092019160208601918190849084905b83811015620002e3578181015183820152602001620002c9565b50505050905090810190601f168015620003115780820380516001836020036101000a031916815260200191505b509350505050602060405180830381600087803b1580156200033257600080fd5b505af115801562000347573d6000803e3d6000fd5b505050506040513d60208110156200035e57600080fd5b5051600155600b55505050505050505050505050506110e480620003836000396000f3fe6080604052600436106101665760003560e01c8063a5f8cdbb116100d1578063ec8ac4d81161008a578063f9a4bb1e11610064578063f9a4bb1e146103ad578063f9cfe26b146103c2578063fbbdc465146103d7578063fc0c546a146103ec57610166565b8063ec8ac4d81461035d578063ecd0c0c314610383578063f00a93d31461039857610166565b8063a5f8cdbb146102ce578063a8253cac146102f4578063b78da38614610309578063b8afaa481461031e578063e27920a814610333578063e61d95941461034857610166565b80635a62f108116101235780635a62f10814610224578063610757e41461022c5780636c1e81e3146102415780636ed08ea01461027a578063757741001461028f57806391039dee146102b957610166565b806323e6f340146101785780632c4e722e1461019f5780633b13d188146101b45780634042b66f146101c95780634f13dc7e146101de578063521eb273146101f3575b610176610171610401565b610405565b005b34801561018457600080fd5b5061018d610411565b60408051918252519081900360200190f35b3480156101ab57600080fd5b5061018d610417565b3480156101c057600080fd5b5061018d61041d565b3480156101d557600080fd5b5061018d610423565b3480156101ea57600080fd5b5061018d610429565b3480156101ff57600080fd5b5061020861042f565b604080516001600160a01b039092168252519081900360200190f35b61017661043e565b34801561023857600080fd5b506102086104e0565b34801561024d57600080fd5b506101766004803603604081101561026457600080fd5b506001600160a01b0381351690602001356104ef565b34801561028657600080fd5b5061018d610597565b34801561029b57600080fd5b50610176600480360360208110156102b257600080fd5b503561059d565b3480156102c557600080fd5b5061018d61070c565b610176600480360360208110156102e457600080fd5b50356001600160a01b0316610405565b34801561030057600080fd5b5061018d610712565b34801561031557600080fd5b50610176610725565b34801561032a57600080fd5b5061018d610811565b34801561033f57600080fd5b5061018d610817565b34801561035457600080fd5b5061018d61081d565b6101766004803603602081101561037357600080fd5b50356001600160a01b0316610823565b34801561038f57600080fd5b5061020861095a565b3480156103a457600080fd5b5061018d61096e565b3480156103b957600080fd5b50610208610974565b3480156103ce57600080fd5b5061018d610983565b3480156103e357600080fd5b5061018d610989565b3480156103f857600080fd5b5061020861098f565b3390565b61040e81610823565b50565b60025481565b60075490565b600b5481565b60085490565b600a5481565b6005546001600160a01b031690565b346064600061044d83836109a3565b60065460405194829003949192506001600160a01b03169082156108fc029083906000818181858888f1935050505015801561048d573d6000803e3d6000fd5b50604080518483018082526020820184905281830186905291517f8f4705a6d8c5af200050d845b50d0f90f838a179c62b9365daa314992598fc1b9181900360600190a15050600c805490920190915550565b6005546001600160a01b031681565b60006104f961098f565b9050600061050561070c565b9050816001600160a01b031663a27c282e8585846040518463ffffffff1660e01b815260040180846001600160a01b03166001600160a01b031681526020018381526020018281526020019350505050600060405180830381600087803b15801561056f57600080fd5b505af1158015610583573d6000803e3d6000fd5b50505050610591600d610a8b565b50505050565b60015481565b60006105a761098f565b905060006105b361070c565b600b54600a5491925033910342116106bf5760408051632559b76160e21b8152336004820152602481018690526044810184905290516001600160a01b03851691639566dd849160648083019260209291908290030181600087803b15801561061b57600080fd5b505af115801561062f573d6000803e3d6000fd5b505050506040513d602081101561064557600080fd5b50516106825760405162461bcd60e51b8152600401808060200182810382526022815260200180610fed6022913960400191505060405180910390fd5b600061068c610417565b9050670de0b6b3a7640000810460006106a68260646109a3565b905080820391506106b78483610a94565b505050610591565b6040805162461bcd60e51b815260206004820152601860248201527f6576656e7420697320616c726561647920737461727465640000000000000000604482015290519081900360640190fd5b60015490565b60008061071f600d610ae5565b91505090565b6005546001600160a01b03163314610784576040805162461bcd60e51b815260206004820152601960248201527f6f6e6c79206f7267616e61697a65722063616e20646f20697400000000000000604482015290519081900360640190fd5b600b54600a540342106107d857600554600c546040516001600160a01b039092169181156108fc0291906000818181858888f193505050501580156107cd573d6000803e3d6000fd5b506000600c5561080f565b60405162461bcd60e51b815260040180806020018281038252602a815260200180610fc3602a913960400191505060405180910390fd5b565b600c5481565b60095481565b60045490565b60005460ff1661087a576040805162461bcd60e51b815260206004820152601f60248201527f5265656e7472616e637947756172643a207265656e7472616e742063616c6c00604482015290519081900360640190fd5b6000805460ff19168155349061088f82610ae9565b905061089c838383610b5c565b6008546108af908363ffffffff610c4f16565b6008556004546108c5908263ffffffff610c4f16565b6004556108d28382610cb0565b826001600160a01b03166108e4610401565b6001600160a01b03167f6faf93231a456e552dbc9961f58d9713ee4f2e69d15f1975b050ef0911053a7b8484604051808381526020018281526020019250505060405180910390a36109368383610cba565b61093e61043e565b6109488383610cba565b50506000805460ff1916600117905550565b60005461010090046001600160a01b031681565b60035490565b6006546001600160a01b031681565b60045481565b60025490565b60005461010090046001600160a01b031690565b6000806109b08484610cbe565b905060006109be8585610d00565b905060006109ce60095486610cbe565b905060006109de60095487610d00565b905060006109f56109ef8685610d42565b88610d42565b90506000610a038684610d42565b90506000610a118686610d42565b90506000610a1f8786610d42565b90506000610a2e8b6002610cbe565b90506000610a3c8383610c4f565b90506000610a4a828e610cbe565b90506000610a588888610c4f565b90506000610a668288610c4f565b90506000610a748285610c4f565b9e5050505050505050505050505050505b92915050565b80546001019055565b6040516001600160a01b0383169082156108fc029083906000818181858888f19350505050158015610aca573d6000803e3d6000fd5b50600c54610ade908263ffffffff610d9b16565b600c555050565b5490565b6000600754821015610b2c5760405162461bcd60e51b815260040180806020018281038252602c815260200180611084602c913960400191505060405180910390fd5b6000670de0b6b3a764000060075481610b4157fe5b04670de0b6b3a7640000840481610b5457fe5b049392505050565b6001600160a01b038316610ba15760405162461bcd60e51b815260040180806020018281038252602a81526020018061105a602a913960400191505060405180910390fd5b81610bf3576040805162461bcd60e51b815260206004820152601960248201527f43726f776473616c653a20776569416d6f756e74206973203000000000000000604482015290519081900360640190fd5b600454600354670de0b6b3a76400009091029082820190811115610c485760405162461bcd60e51b815260040180806020018281038252602a81526020018061100f602a913960400191505060405180910390fd5b5050505050565b600082820183811015610ca9576040805162461bcd60e51b815260206004820152601b60248201527f536166654d6174683a206164646974696f6e206f766572666c6f770000000000604482015290519081900360640190fd5b9392505050565b610cba8282610ddd565b5050565b6000610ca983836040518060400160405280601a81526020017f536166654d6174683a206469766973696f6e206279207a65726f000000000000815250610e64565b6000610ca983836040518060400160405280601881526020017f536166654d6174683a206d6f64756c6f206279207a65726f0000000000000000815250610f06565b600082610d5157506000610a85565b82820282848281610d5e57fe5b0414610ca95760405162461bcd60e51b81526004018080602001828103825260218152602001806110396021913960400191505060405180910390fd5b6000610ca983836040518060400160405280601e81526020017f536166654d6174683a207375627472616374696f6e206f766572666c6f770000815250610f68565b60008054600154600254604080516319a742bf60e31b81526001600160a01b0388811660048301526024820188905260448201949094526064810192909252516101009093049091169263cd3a15f89260848084019382900301818387803b158015610e4857600080fd5b505af1158015610e5c573d6000803e3d6000fd5b505050505050565b60008183610ef05760405162461bcd60e51b81526004018080602001828103825283818151815260200191508051906020019080838360005b83811015610eb5578181015183820152602001610e9d565b50505050905090810190601f168015610ee25780820380516001836020036101000a031916815260200191505b509250505060405180910390fd5b506000838581610efc57fe5b0495945050505050565b60008183610f555760405162461bcd60e51b8152602060048201818152835160248401528351909283926044909101919085019080838360008315610eb5578181015183820152602001610e9d565b50828481610f5f57fe5b06949350505050565b60008184841115610fba5760405162461bcd60e51b8152602060048201818152835160248401528351909283926044909101919085019080838360008315610eb5578181015183820152602001610e9d565b50505090039056fe6576656e74206973206e6f742073746172746564207965742c2066756e647320617265206c6f636b656463616e277420726566756e64207469636b65742066726f6d205469636b6574373231746f6b656e7320616d6f756e742073686f756c64206e6f74206578636565642073616c655f6c696d6974536166654d6174683a206d756c7469706c69636174696f6e206f766572666c6f7743726f776473616c653a2062656e656669636961727920697320746865207a65726f206164647265737377656920616d6f756e742073686f756c6420626520626967676572206f7220657175616c206f662072617465a265627a7a72315820f83f9f9e268e77ab50e898a24a3eefe7c1f02c81fab0c19d0d1fd58d7a34404964736f6c6343000511003243726f776473616c653a20746f6b656e20697320746865207a65726f206164647265737343726f776473616c653a2077616c6c657420697320746865207a65726f2061646472657373",
  "source": "pragma solidity ^0.5.11;\n\nimport './TokenSale721.sol';\nimport './Ticket721.sol';\n\ncontract TicketSale721 is TokenSale721 {\n\nusing Counters for Counters.Counter;\n\nCounters.Counter scanned_tickets;\n\nconstructor(uint256 rate, address payable wallet, Ticket721 token, uint sale_limit, string memory jid, address payable _treasure_fund, uint timeToStart) TokenSale721(rate,wallet,token, sale_limit, jid, _treasure_fund, timeToStart) public {}\n\n\n/**\n*\n*@dev overload buy token function to give allowance to reedem tickets\n*\n*\n*/\nfunction buyTicket(address buyer) public payable {\n    super.buyTokens(buyer);\n    //Ticket721 ticket_token = super.token();\n   // super._token.approve(_wallet,tokens);\n\n    // chek this one more time\n    //ticket_token.setApprovalForEvent(buyer,);\n\n}\n\n// fallback\nfunction() external payable {\n        buyTicket(_msgSender());\n    }\n\n// deprecated\n/*\nfunction redeemTicket(address visitor, uint256 token_id) public {\n    Ticket721 ticket_token = super.token();\n    uint256 event_id = super.event_id();\n    ticket_token.redeemTicket(visitor, token_id, event_id);\n}\n*/\n\nfunction redeemTicket(address visitor, uint256 token_id) public {\n    Ticket721 ticket_token = super.token();\n    uint256 event_id = super.event_id();\n    ticket_token.redeemTicket(visitor, token_id, event_id);\n    scanned_tickets.increment();\n}\n\nfunction getScannedTicketsCount() public view  returns(uint)  {\n    uint st = scanned_tickets.current();\n    return st;\n}\n\nfunction refundTicket(uint256 token_id) public {\n    Ticket721 ticket_token = super.token();\n    uint256 event_id = super.event_id();\n    address payable visitor = msg.sender;\n    if (now <= crDate - _timeToStart) {\n         require(ticket_token.refundTicket(msg.sender, token_id, event_id), \"can't refund ticket from Ticket721\");\n            uint256 rate = rate();\n            uint256 amount = rate / (1 ether);\n            uint fees = calculateFee(amount, 100);\n            amount = amount - fees;\n            refundToken(visitor, amount);\n\n        } else {\n            revert(\"event is already started\");\n        }\n\n}\n\n}",
  "sourcePath": "/home/jack/ethProjects/MS-Factory/contracts/721/singleton/TicketSale721.sol",
  "compiler": {
    "name": "solc",
    "version": "0.5.17+commit.d19bba13.Emscripten.clang"
  },
  "schemaVersion": "3.0.11",
  "updatedAt": "2020-07-17T15:41:46.596Z",
  "devdoc": {
    "methods": {
      "buyTicket(address)": {
        "details": "overload buy token function to give allowance to reedem tickets *"
      },
      "buyTokens(address)": {
        "details": "low level token purchase ***DO NOT OVERRIDE*** This function has a non-reentrancy guard, so it shouldn't be called by another `nonReentrant` function.",
        "params": {
          "beneficiary": "Recipient of the token purchase"
        }
      },
      "rate()": {
        "return": "the number of token units a buyer gets per wei."
      },
      "token()": {
        "return": "the token being sold."
      },
      "wallet()": {
        "return": "the address where funds are collected."
      },
      "weiRaised()": {
        "return": "the amount of wei raised."
      }
    }
  },
  "userdoc": {
    "methods": {}
  }
}