{
  "contractName": "TicketFactory721",
  "abi": [
    {
      "inputs": [
        {
          "internalType": "address",
          "name": "_ticket",
          "type": "address"
        }
      ],
      "payable": false,
      "stateMutability": "nonpayable",
      "type": "constructor"
    },
    {
      "anonymous": false,
      "inputs": [
        {
          "indexed": true,
          "internalType": "address",
          "name": "organizer",
          "type": "address"
        },
        {
          "indexed": true,
          "internalType": "address",
          "name": "orginal_sale",
          "type": "address"
        },
        {
          "indexed": true,
          "internalType": "uint256",
          "name": "event_id",
          "type": "uint256"
        }
      ],
      "name": "PluggedSale",
      "type": "event"
    },
    {
      "anonymous": false,
      "inputs": [
        {
          "indexed": false,
          "internalType": "address",
          "name": "organizer",
          "type": "address"
        },
        {
          "indexed": false,
          "internalType": "address",
          "name": "original_sale",
          "type": "address"
        },
        {
          "indexed": false,
          "internalType": "uint256",
          "name": "event_id",
          "type": "uint256"
        },
        {
          "indexed": false,
          "internalType": "uint256",
          "name": "ticket_type",
          "type": "uint256"
        }
      ],
      "name": "PluggedSaleHuman",
      "type": "event"
    },
    {
      "anonymous": false,
      "inputs": [
        {
          "indexed": true,
          "internalType": "address",
          "name": "organizer",
          "type": "address"
        },
        {
          "indexed": false,
          "internalType": "uint256",
          "name": "price",
          "type": "uint256"
        },
        {
          "indexed": true,
          "internalType": "uint256",
          "name": "event_id",
          "type": "uint256"
        },
        {
          "indexed": true,
          "internalType": "string",
          "name": "event_JID",
          "type": "string"
        }
      ],
      "name": "SaleCreated",
      "type": "event"
    },
    {
      "anonymous": false,
      "inputs": [
        {
          "indexed": false,
          "internalType": "address",
          "name": "organizer",
          "type": "address"
        },
        {
          "indexed": false,
          "internalType": "uint256",
          "name": "price",
          "type": "uint256"
        },
        {
          "indexed": false,
          "internalType": "uint256",
          "name": "event_id",
          "type": "uint256"
        },
        {
          "indexed": false,
          "internalType": "string",
          "name": "event_JID",
          "type": "string"
        },
        {
          "indexed": false,
          "internalType": "uint256",
          "name": "ticket_type",
          "type": "uint256"
        }
      ],
      "name": "SaleCreatedHuman",
      "type": "event"
    },
    {
      "constant": false,
      "inputs": [
        {
          "internalType": "address payable",
          "name": "organizer",
          "type": "address"
        },
        {
          "internalType": "uint256",
          "name": "price",
          "type": "uint256"
        },
        {
          "internalType": "string",
          "name": "event_JID",
          "type": "string"
        },
        {
          "internalType": "uint256",
          "name": "sale_limit",
          "type": "uint256"
        }
      ],
      "name": "createTicketSale",
      "outputs": [
        {
          "internalType": "address payable",
          "name": "ticket_sale_adr",
          "type": "address"
        },
        {
          "internalType": "uint256",
          "name": "event_id",
          "type": "uint256"
        }
      ],
      "payable": false,
      "stateMutability": "nonpayable",
      "type": "function"
    },
    {
      "constant": false,
      "inputs": [
        {
          "internalType": "address payable",
          "name": "origin_sale",
          "type": "address"
        },
        {
          "internalType": "uint256",
          "name": "price",
          "type": "uint256"
        },
        {
          "internalType": "uint256",
          "name": "_sale_limit",
          "type": "uint256"
        }
      ],
      "name": "PlugInTicketSale",
      "outputs": [
        {
          "internalType": "address payable",
          "name": "plugin_sale",
          "type": "address"
        }
      ],
      "payable": false,
      "stateMutability": "nonpayable",
      "type": "function"
    },
    {
      "constant": true,
      "inputs": [
        {
          "internalType": "string",
          "name": "JID",
          "type": "string"
        }
      ],
      "name": "getEventIdByJid",
      "outputs": [
        {
          "internalType": "uint256",
          "name": "",
          "type": "uint256"
        }
      ],
      "payable": false,
      "stateMutability": "view",
      "type": "function"
    },
    {
      "constant": true,
      "inputs": [],
      "name": "getTicketTemplateAddress",
      "outputs": [
        {
          "internalType": "address",
          "name": "",
          "type": "address"
        }
      ],
      "payable": false,
      "stateMutability": "view",
      "type": "function"
    }
  ],
  "bytecode": "0x608060405234801561001057600080fd5b506040516121603803806121608339818101604052602081101561003357600080fd5b5051600080546001600160a01b039092166001600160a01b03199092169190911790556120fb806100656000396000f3fe608060405234801561001057600080fd5b506004361061004c5760003560e01c80632168d20e1461005157806351c187821461009f578063722b58171461017f578063b992389314610187575b600080fd5b6100836004803603606081101561006757600080fd5b506001600160a01b03813516906020810135906040013561023f565b604080516001600160a01b039092168252519081900360200190f35b61015c600480360360808110156100b557600080fd5b6001600160a01b03823516916020810135918101906060810160408201356401000000008111156100e557600080fd5b8201836020820111156100f757600080fd5b8035906020019184600183028401116401000000008311171561011957600080fd5b91908080601f016020809104026020016040519081016040528093929190818152602001838380828437600092019190915250929550509135925061040c915050565b604080516001600160a01b03909316835260208301919091528051918290030190f35b610083610787565b61022d6004803603602081101561019d57600080fd5b8101906020810181356401000000008111156101b857600080fd5b8201836020820111156101ca57600080fd5b803590602001918460018302840111640100000000831117156101ec57600080fd5b91908080601f016020809104026020016040519081016040528093929190818152602001838380828437600092019190915250929550610796945050505050565b60408051918252519081900360200190f35b60008061024b846107fe565b905080858460405161025c906108fe565b9283526001600160a01b0390911660208301526040808301919091525190819003606001906000f080158015610296573d6000803e3d6000fd5b50915060008290506000816001600160a01b03166391039dee6040518163ffffffff1660e01b815260040160206040518083038186803b1580156102d957600080fd5b505afa1580156102ed573d6000803e3d6000fd5b505050506040513d602081101561030357600080fd5b50516040805163fbbdc46560e01b815290519192506000916001600160a01b0385169163fbbdc465916004808301926020929190829003018186803b15801561034b57600080fd5b505afa15801561035f573d6000803e3d6000fd5b505050506040513d602081101561037557600080fd5b505160405190915082906001600160a01b038a169033907f80ea680f0864b200472457d5e9db6c7ab4390228ca763e8159260f99ff4c07e490600090a4604080513381526001600160a01b038a1660208201528082018490526060810183905290517f842f53ee085ffb3e94c2cdd4376dd879b170ba013b0f22dcc95e9ba6596fbbce9181900360800190a1505050509392505050565b60008054604051845183926001600160a01b031691600191879190819060208401908083835b602083106104515780518252601f199092019160209182019101610432565b51815160209384036101000a60001901801990921691161790529201948552506040519384900301909220541591506104bd90505760405162461bcd60e51b81526004018080602001828103825260268152602001806120a16026913960400191505060405180910390fd5b806104cb888883888a61080b565b93506000849050806001600160a01b03166391039dee6040518163ffffffff1660e01b815260040160206040518083038186803b15801561050b57600080fd5b505afa15801561051f573d6000803e3d6000fd5b505050506040513d602081101561053557600080fd5b50516040805163fbbdc46560e01b815290519195506000916001600160a01b0384169163fbbdc465916004808301926020929190829003018186803b15801561057d57600080fd5b505afa158015610591573d6000803e3d6000fd5b505050506040513d60208110156105a757600080fd5b5051604051895191925086916001918b91819060208401908083835b602083106105e25780518252601f1990920191602091820191016105c3565b51815160209384036101000a6000190180199092169116179052920194855250604051938490038101842094909455505089518a928291908401908083835b602083106106405780518252601f199092019160209182019101610621565b6001836020036101000a0380198251168184511680821785525050505050509050019150506040518091039020858b6001600160a01b03167f87836d9d795936ee8b4b6ffb2c7b7fba245eb618db8294c11e9cf03565afbb408c6040518082815260200191505060405180910390a47f8cf17295cea07172ef627805a194fc701945ac99cb803ae5930490fe2afb45098a8a878b8560405180866001600160a01b03166001600160a01b0316815260200185815260200184815260200180602001838152602001828103825284818151815260200191508051906020019080838360005b8381101561073c578181015183820152602001610724565b50505050905090810190601f1680156107695780820380516001836020036101000a031916815260200191505b50965050505050505060405180910390a15050505094509492505050565b6000546001600160a01b031690565b60006001826040518082805190602001908083835b602083106107ca5780518252601f1990920191602091820191016107ab565b51815160209384036101000a6000190180199092169116179052920194855250604051938490030190922054949350505050565b670de0b6b3a76400000290565b600080610817866107fe565b9050808786868660405161082a9061090b565b80868152602001856001600160a01b03166001600160a01b03168152602001846001600160a01b03166001600160a01b0316815260200183815260200180602001828103825283818151815260200191508051906020019080838360005b838110156108a0578181015183820152602001610888565b50505050905090810190601f1680156108cd5780820380516001836020036101000a031916815260200191505b509650505050505050604051809103906000f0801580156108f2573d6000803e3d6000fd5b50979650505050505050565b610bb18061091983390190565b610bd7806114ca8339019056fe6080604052600060055534801561001557600080fd5b50604051610bb1380380610bb18339818101604052606081101561003857600080fd5b50805160208201516040909201516000805460ff19166001179055909190828282826100ab576040805162461bcd60e51b815260206004820152601460248201527f43726f776473616c653a20726174652069732030000000000000000000000000604482015290519081900360640190fd5b6001600160a01b038216610106576040805162461bcd60e51b815260206004820152601d60248201527f6f726967696e2063616e6e6f74206265207a65726f2061646472657373000000604482015290519081900360640190fd5b600180546001600160a01b0319166001600160a01b0384811691909117918290556040805163521eb27360e01b81529051929091169163521eb27391600480820192602092909190829003018186803b15801561016257600080fd5b505afa158015610176573d6000803e3d6000fd5b505050506040513d602081101561018c57600080fd5b5051600680546001600160a01b0319166001600160a01b039283161790556007849055670de0b6b3a76400008202600490815560015460408051637e062a3560e11b81529051919093169263fc0c546a9281810192602092909190829003018186803b1580156101fb57600080fd5b505afa15801561020f573d6000803e3d6000fd5b505050506040513d602081101561022557600080fd5b505160008054610100600160a81b0319166101006001600160a01b039384160217905560015460408051634881cef760e11b8152905191909216916391039dee916004808301926020929190829003018186803b15801561028557600080fd5b505afa158015610299573d6000803e3d6000fd5b505050506040513d60208110156102af57600080fd5b505160028190556000805460065460408051630645c0fb60e41b815260048101959095526001600160a01b03918216602486015251610100909204169263645c0fb09260448083019360209390929083900390910190829087803b15801561031657600080fd5b505af115801561032a573d6000803e3d6000fd5b505050506040513d602081101561034057600080fd5b50516003555050505050506108578061035a6000396000f3fe6080604052600436106100e85760003560e01c806391039dee1161008a578063f00a93d311610059578063f00a93d314610255578063f9cfe26b1461026a578063fbbdc4651461027f578063fc0c546a14610294576100e8565b806391039dee146101df578063a5f8cdbb146101f4578063ec8ac4d81461021a578063ecd0c0c314610240576100e8565b8063521eb273116100c6578063521eb27314610167578063610757e41461017c5780636c1e81e3146101915780636ed08ea0146101ca576100e8565b80632c4e722e146100fa5780634042b66f1461012157806341035a4114610136575b6100f86100f36102a9565b6102ad565b005b34801561010657600080fd5b5061010f6102b9565b60408051918252519081900360200190f35b34801561012d57600080fd5b5061010f6102bf565b34801561014257600080fd5b5061014b6102c5565b604080516001600160a01b039092168252519081900360200190f35b34801561017357600080fd5b5061014b6102d4565b34801561018857600080fd5b5061014b6102e3565b34801561019d57600080fd5b506100f8600480360360408110156101b457600080fd5b506001600160a01b0381351690602001356102f2565b3480156101d657600080fd5b5061010f610390565b3480156101eb57600080fd5b5061010f610396565b6100f86004803603602081101561020a57600080fd5b50356001600160a01b03166102ad565b6100f86004803603602081101561023057600080fd5b50356001600160a01b031661039c565b34801561024c57600080fd5b5061014b6104d3565b34801561026157600080fd5b5061010f6104e7565b34801561027657600080fd5b5061010f6104ed565b34801561028b57600080fd5b5061010f6104f3565b3480156102a057600080fd5b5061014b6104f9565b3390565b6102b68161039c565b50565b60075490565b60085490565b6001546001600160a01b031681565b6006546001600160a01b031690565b6006546001600160a01b031681565b60006102fc6104f9565b90506000610308610396565b9050816001600160a01b031663a27c282e8585846040518463ffffffff1660e01b815260040180846001600160a01b03166001600160a01b031681526020018381526020018281526020019350505050600060405180830381600087803b15801561037257600080fd5b505af1158015610386573d6000803e3d6000fd5b5050505050505050565b60025481565b60025490565b60005460ff166103f3576040805162461bcd60e51b815260206004820152601f60248201527f5265656e7472616e637947756172643a207265656e7472616e742063616c6c00604482015290519081900360640190fd5b6000805460ff1916815534906104088261050d565b9050610415838383610580565b600854610428908363ffffffff61067316565b60085560055461043e908263ffffffff61067316565b60055561044b83826106d4565b826001600160a01b031661045d6102a9565b6001600160a01b03167f6faf93231a456e552dbc9961f58d9713ee4f2e69d15f1975b050ef0911053a7b8484604051808381526020018281526020019250505060405180910390a36104af83836106de565b6104b76106e2565b6104c183836106de565b50506000805460ff1916600117905550565b60005461010090046001600160a01b031681565b60045490565b60055481565b60035490565b60005461010090046001600160a01b031690565b60006007548210156105505760405162461bcd60e51b815260040180806020018281038252602c8152602001806107f7602c913960400191505060405180910390fd5b6000670de0b6b3a76400006007548161056557fe5b04670de0b6b3a764000084048161057857fe5b049392505050565b6001600160a01b0383166105c55760405162461bcd60e51b815260040180806020018281038252602a8152602001806107cd602a913960400191505060405180910390fd5b81610617576040805162461bcd60e51b815260206004820152601960248201527f43726f776473616c653a20776569416d6f756e74206973203000000000000000604482015290519081900360640190fd5b600554600454670de0b6b3a7640000909102908282019081111561066c5760405162461bcd60e51b815260040180806020018281038252602a8152602001806107a3602a913960400191505060405180910390fd5b5050505050565b6000828201838110156106cd576040805162461bcd60e51b815260206004820152601b60248201527f536166654d6174683a206164646974696f6e206f766572666c6f770000000000604482015290519081900360640190fd5b9392505050565b6106de828261071b565b5050565b6006546040516001600160a01b03909116903480156108fc02916000818181858888f193505050501580156102b6573d6000803e3d6000fd5b60008054600254600354604080516319a742bf60e31b81526001600160a01b0388811660048301526024820188905260448201949094526064810192909252516101009093049091169263cd3a15f89260848084019382900301818387803b15801561078657600080fd5b505af115801561079a573d6000803e3d6000fd5b50505050505056fe746f6b656e7320616d6f756e742073686f756c64206e6f74206578636565642073616c655f6c696d697443726f776473616c653a2062656e656669636961727920697320746865207a65726f206164647265737377656920616d6f756e742073686f756c6420626520626967676572206f7220657175616c206f662072617465a265627a7a7231582012459789cb75434ecb63ee79a7c38c545f73007123ac6d63b14f3acc42d12da764736f6c6343000511003260806040526001600255600060045534801561001a57600080fd5b50604051610bd7380380610bd7833981810160405260a081101561003d57600080fd5b815160208301516040808501516060860151608087018051935195979496929591949193928201928464010000000082111561007857600080fd5b90830190602082018581111561008d57600080fd5b82516401000000008111828201881017156100a757600080fd5b82525081516020918201929091019080838360005b838110156100d45781810151838201526020016100bc565b50505050905090810190601f1680156101015780820380516001836020036101000a031916815260200191505b5060405250506000805460ff191660011790555084848484848461016c576040805162461bcd60e51b815260206004820152601460248201527f43726f776473616c653a20726174652069732030000000000000000000000000604482015290519081900360640190fd5b6001600160a01b0384166101b15760405162461bcd60e51b8152600401808060200182810382526025815260200180610bb26025913960400191505060405180910390fd5b6001600160a01b0383166101f65760405162461bcd60e51b8152600401808060200182810382526024815260200180610b8e6024913960400191505060405180910390fd5b6006859055600580546001600160a01b0319166001600160a01b03868116919091179182905560008054610100600160a81b031916610100878416810291909117808355670de0b6b3a7640000870260035560408051631440364760e31b81529585166004870181815260248801928352885160448901528851949093049095169563a201b2389594889460649092019160208601918190849084905b838110156102ab578181015183820152602001610293565b50505050905090810190601f1680156102d85780820380516001836020036101000a031916815260200191505b509350505050602060405180830381600087803b1580156102f857600080fd5b505af115801561030c573d6000803e3d6000fd5b505050506040513d602081101561032257600080fd5b50516001555050505050505050505061084e806103406000396000f3fe6080604052600436106100e85760003560e01c806391039dee1161008a578063f00a93d311610059578063f00a93d314610255578063f9cfe26b1461026a578063fbbdc4651461027f578063fc0c546a14610294576100e8565b806391039dee146101df578063a5f8cdbb146101f4578063ec8ac4d81461021a578063ecd0c0c314610240576100e8565b8063521eb273116100c6578063521eb2731461014b578063610757e41461017c5780636c1e81e3146101915780636ed08ea0146101ca576100e8565b806323e6f340146100fa5780632c4e722e146101215780634042b66f14610136575b6100f86100f36102a9565b6102ad565b005b34801561010657600080fd5b5061010f6102b9565b60408051918252519081900360200190f35b34801561012d57600080fd5b5061010f6102bf565b34801561014257600080fd5b5061010f6102c5565b34801561015757600080fd5b506101606102cb565b604080516001600160a01b039092168252519081900360200190f35b34801561018857600080fd5b506101606102da565b34801561019d57600080fd5b506100f8600480360360408110156101b457600080fd5b506001600160a01b0381351690602001356102e9565b3480156101d657600080fd5b5061010f610387565b3480156101eb57600080fd5b5061010f61038d565b6100f86004803603602081101561020a57600080fd5b50356001600160a01b03166102ad565b6100f86004803603602081101561023057600080fd5b50356001600160a01b0316610393565b34801561024c57600080fd5b506101606104ca565b34801561026157600080fd5b5061010f6104de565b34801561027657600080fd5b5061010f6104e4565b34801561028b57600080fd5b5061010f6104ea565b3480156102a057600080fd5b506101606104f0565b3390565b6102b681610393565b50565b60025481565b60065490565b60075490565b6005546001600160a01b031690565b6005546001600160a01b031681565b60006102f36104f0565b905060006102ff61038d565b9050816001600160a01b031663a27c282e8585846040518463ffffffff1660e01b815260040180846001600160a01b03166001600160a01b031681526020018381526020018281526020019350505050600060405180830381600087803b15801561036957600080fd5b505af115801561037d573d6000803e3d6000fd5b5050505050505050565b60015481565b60015490565b60005460ff166103ea576040805162461bcd60e51b815260206004820152601f60248201527f5265656e7472616e637947756172643a207265656e7472616e742063616c6c00604482015290519081900360640190fd5b6000805460ff1916815534906103ff82610504565b905061040c838383610577565b60075461041f908363ffffffff61066a16565b600755600454610435908263ffffffff61066a16565b60045561044283826106cb565b826001600160a01b03166104546102a9565b6001600160a01b03167f6faf93231a456e552dbc9961f58d9713ee4f2e69d15f1975b050ef0911053a7b8484604051808381526020018281526020019250505060405180910390a36104a683836106d5565b6104ae6106d9565b6104b883836106d5565b50506000805460ff1916600117905550565b60005461010090046001600160a01b031681565b60035490565b60045481565b60025490565b60005461010090046001600160a01b031690565b60006006548210156105475760405162461bcd60e51b815260040180806020018281038252602c8152602001806107ee602c913960400191505060405180910390fd5b6000670de0b6b3a76400006006548161055c57fe5b04670de0b6b3a764000084048161056f57fe5b049392505050565b6001600160a01b0383166105bc5760405162461bcd60e51b815260040180806020018281038252602a8152602001806107c4602a913960400191505060405180910390fd5b8161060e576040805162461bcd60e51b815260206004820152601960248201527f43726f776473616c653a20776569416d6f756e74206973203000000000000000604482015290519081900360640190fd5b600454600354670de0b6b3a764000090910290828201908111156106635760405162461bcd60e51b815260040180806020018281038252602a81526020018061079a602a913960400191505060405180910390fd5b5050505050565b6000828201838110156106c4576040805162461bcd60e51b815260206004820152601b60248201527f536166654d6174683a206164646974696f6e206f766572666c6f770000000000604482015290519081900360640190fd5b9392505050565b6106d58282610712565b5050565b6005546040516001600160a01b03909116903480156108fc02916000818181858888f193505050501580156102b6573d6000803e3d6000fd5b60008054600154600254604080516319a742bf60e31b81526001600160a01b0388811660048301526024820188905260448201949094526064810192909252516101009093049091169263cd3a15f89260848084019382900301818387803b15801561077d57600080fd5b505af1158015610791573d6000803e3d6000fd5b50505050505056fe746f6b656e7320616d6f756e742073686f756c64206e6f74206578636565642073616c655f6c696d697443726f776473616c653a2062656e656669636961727920697320746865207a65726f206164647265737377656920616d6f756e742073686f756c6420626520626967676572206f7220657175616c206f662072617465a265627a7a72315820d45ec08c60cc1b82b7d8f14e7e3a48ff093e8ec97120b69742907fb63013084a64736f6c6343000511003243726f776473616c653a20746f6b656e20697320746865207a65726f206164647265737343726f776473616c653a2077616c6c657420697320746865207a65726f206164647265737373616c6520776974682074686973204a494420697320616c7265616479206372656174656421a265627a7a72315820e8d6d2fb7c54555c8ff62d6ac8d52db4fd6b1991d5182e9ad95f7ec9397eeffe64736f6c63430005110032",
  "source": "pragma solidity ^0.5.11;\n\n//import './zeppeline/token/ERC20/ERC20Mintable.sol';\n\n// TODO: replace contracts to interfaces cause of gas limit\n// FIXME: this contract required for 7m gas limit -- which is more than standart 6m in ethereum networks. We should consider that when deployment\n\nimport './Ticket721.sol';\nimport './TicketSale721.sol';\nimport './TicketSalePluggable.sol';\n\n\n\ncontract TicketFactory721 {\n\n// constant\naddress ticket_template;\n\n// event\nevent SaleCreated(address indexed organizer, uint price, uint256 indexed event_id, string indexed event_JID);\nevent SaleCreatedHuman(address organizer, uint price, uint256 event_id, string event_JID, uint ticket_type);\nevent PluggedSale(address indexed organizer, address indexed orginal_sale, uint256 indexed event_id);\nevent PluggedSaleHuman(address organizer, address original_sale, uint256 event_id, uint ticket_type);\n\n// mapping from JID to event_id\nmapping (string => uint256) events_jids;\n\n\nconstructor(address _ticket) public {\n   // ticket_template = createTicket721();\n   ticket_template = _ticket;\n}\n\n\nfunction createTicket721() internal returns (address ticket_address) {\n //  address factory_address = address(this);\n   ticket_address = address(new Ticket721());\n   return ticket_address;\n}\n\n\nfunction createTicketSale721(address payable organizer, uint price, Ticket721 token,uint sale_limit, string memory jid) internal returns(address payable ticket_sale) {\n    // calculate price\n    uint256 cena = calculateRate(price);\n\n    ticket_sale = address(new TicketSale721(cena, organizer, token, sale_limit, jid));\n    return ticket_sale;\n}\n\nfunction createTicketSale(address payable organizer, uint price, string memory event_JID, uint sale_limit) public returns (address payable ticket_sale_adr, uint256 event_id) {\n\n    address ticket_adr = ticket_template;\n    require(events_jids[event_JID] == 0, \"sale with this JID is already created!\");\n    Ticket721 ticket = Ticket721(ticket_adr);\n    ticket_sale_adr = createTicketSale721(organizer, price, ticket,sale_limit, event_JID);\n    TicketSale721 ticket_sale = TicketSale721(ticket_sale_adr);\n\n    event_id = ticket_sale.event_id();\n    uint ticket_type = ticket_sale.ticket_type();\n    events_jids[event_JID] = event_id;\n    emit SaleCreated(organizer, price, event_id, event_JID);\n    emit SaleCreatedHuman(organizer,price,event_id, event_JID, ticket_type);\n    return(ticket_sale_adr, event_id);\n\n\n}\n\n\nfunction PlugInTicketSale(address payable origin_sale, uint price, uint _sale_limit) public returns(address payable plugin_sale) {\n    uint cena = calculateRate(price);\n    plugin_sale = address(new TicketSalePluggable(cena,origin_sale, _sale_limit));\n    //TicketSale721 ticket_sale = TicketSale721(origin_sale);\n    TicketSalePluggable plugin_sale_instance = TicketSalePluggable(plugin_sale);\n    uint256 event_id = plugin_sale_instance.event_id();\n    uint ticket_type = plugin_sale_instance.ticket_type();\n    emit PluggedSale(msg.sender,origin_sale,event_id);\n    emit PluggedSaleHuman(msg.sender, origin_sale, event_id, ticket_type);\n    return plugin_sale;\n}\n\nfunction calculateRate (uint256 price) internal pure returns (uint256 rate_p) {\n    // rate = price * 1 eth\n    rate_p = price * (1 ether); // override for price determinition\n    return rate_p;\n}\n\n\nfunction getEventIdByJid(string memory JID) public view returns(uint256) {\n    return events_jids[JID];\n}\n\nfunction getTicketTemplateAddress() public view returns(address) {\n    return ticket_template;\n}\n\n}",
  "sourcePath": "/home/jack/ethProjects/MS-Factory/contracts/721/singleton/TicketFactory721.sol",
  "compiler": {
    "name": "solc",
    "version": "0.5.17+commit.d19bba13.Emscripten.clang"
  },
  "schemaVersion": "3.0.11",
  "updatedAt": "2020-05-30T12:01:29.225Z",
  "devdoc": {
    "methods": {}
  },
  "userdoc": {
    "methods": {}
  }
}