{
  "contractName": "Ticket721",
  "abi": [
    {
      "inputs": [],
      "payable": false,
      "stateMutability": "nonpayable",
      "type": "constructor"
    },
    {
      "anonymous": false,
      "inputs": [
        {
          "indexed": true,
          "internalType": "address",
          "name": "owner",
          "type": "address"
        },
        {
          "indexed": true,
          "internalType": "address",
          "name": "approved",
          "type": "address"
        },
        {
          "indexed": true,
          "internalType": "uint256",
          "name": "tokenId",
          "type": "uint256"
        }
      ],
      "name": "Approval",
      "type": "event"
    },
    {
      "anonymous": false,
      "inputs": [
        {
          "indexed": true,
          "internalType": "address",
          "name": "owner",
          "type": "address"
        },
        {
          "indexed": true,
          "internalType": "address",
          "name": "operator",
          "type": "address"
        },
        {
          "indexed": false,
          "internalType": "bool",
          "name": "approved",
          "type": "bool"
        }
      ],
      "name": "ApprovalForAll",
      "type": "event"
    },
    {
      "anonymous": false,
      "inputs": [
        {
          "indexed": true,
          "internalType": "address",
          "name": "ticket_sale",
          "type": "address"
        },
        {
          "indexed": true,
          "internalType": "uint256",
          "name": "event_id",
          "type": "uint256"
        }
      ],
      "name": "EventIdReserved",
      "type": "event"
    },
    {
      "anonymous": false,
      "inputs": [
        {
          "indexed": false,
          "internalType": "address",
          "name": "ticket_sale",
          "type": "address"
        },
        {
          "indexed": false,
          "internalType": "uint256",
          "name": "event_id",
          "type": "uint256"
        }
      ],
      "name": "EventIdReservedHuman",
      "type": "event"
    },
    {
      "anonymous": false,
      "inputs": [
        {
          "indexed": true,
          "internalType": "address",
          "name": "account",
          "type": "address"
        }
      ],
      "name": "MinterAdded",
      "type": "event"
    },
    {
      "anonymous": false,
      "inputs": [
        {
          "indexed": true,
          "internalType": "address",
          "name": "account",
          "type": "address"
        }
      ],
      "name": "MinterRemoved",
      "type": "event"
    },
    {
      "anonymous": false,
      "inputs": [
        {
          "indexed": true,
          "internalType": "address",
          "name": "visitor_wallet",
          "type": "address"
        },
        {
          "indexed": true,
          "internalType": "uint256",
          "name": "event_id",
          "type": "uint256"
        },
        {
          "indexed": true,
          "internalType": "uint256",
          "name": "ticket_id",
          "type": "uint256"
        }
      ],
      "name": "TicketBought",
      "type": "event"
    },
    {
      "anonymous": false,
      "inputs": [
        {
          "indexed": false,
          "internalType": "address",
          "name": "visitor_wallet",
          "type": "address"
        },
        {
          "indexed": false,
          "internalType": "uint256",
          "name": "event_id",
          "type": "uint256"
        },
        {
          "indexed": false,
          "internalType": "uint256",
          "name": "ticket_id",
          "type": "uint256"
        }
      ],
      "name": "TicketBoughtHuman",
      "type": "event"
    },
    {
      "anonymous": false,
      "inputs": [
        {
          "indexed": true,
          "internalType": "address",
          "name": "visitor_wallet",
          "type": "address"
        },
        {
          "indexed": true,
          "internalType": "uint256",
          "name": "event_id",
          "type": "uint256"
        },
        {
          "indexed": true,
          "internalType": "uint256",
          "name": "ticket_id",
          "type": "uint256"
        }
      ],
      "name": "TicketFulfilled",
      "type": "event"
    },
    {
      "anonymous": false,
      "inputs": [
        {
          "indexed": false,
          "internalType": "address",
          "name": "visitor_wallet",
          "type": "address"
        },
        {
          "indexed": false,
          "internalType": "uint256",
          "name": "event_id",
          "type": "uint256"
        },
        {
          "indexed": false,
          "internalType": "uint256",
          "name": "ticket_id",
          "type": "uint256"
        }
      ],
      "name": "TicketFulfilledHuman",
      "type": "event"
    },
    {
      "anonymous": false,
      "inputs": [
        {
          "indexed": true,
          "internalType": "address",
          "name": "from",
          "type": "address"
        },
        {
          "indexed": true,
          "internalType": "address",
          "name": "to",
          "type": "address"
        },
        {
          "indexed": true,
          "internalType": "uint256",
          "name": "tokenId",
          "type": "uint256"
        }
      ],
      "name": "Transfer",
      "type": "event"
    },
    {
      "constant": true,
      "inputs": [
        {
          "internalType": "uint256",
          "name": "",
          "type": "uint256"
        }
      ],
      "name": "JIDs",
      "outputs": [
        {
          "internalType": "string",
          "name": "",
          "type": "string"
        }
      ],
      "payable": false,
      "stateMutability": "view",
      "type": "function"
    },
    {
      "constant": false,
      "inputs": [
        {
          "internalType": "address",
          "name": "account",
          "type": "address"
        }
      ],
      "name": "addMinter",
      "outputs": [],
      "payable": false,
      "stateMutability": "nonpayable",
      "type": "function"
    },
    {
      "constant": false,
      "inputs": [
        {
          "internalType": "address",
          "name": "to",
          "type": "address"
        },
        {
          "internalType": "uint256",
          "name": "tokenId",
          "type": "uint256"
        }
      ],
      "name": "approve",
      "outputs": [],
      "payable": false,
      "stateMutability": "nonpayable",
      "type": "function"
    },
    {
      "constant": true,
      "inputs": [
        {
          "internalType": "address",
          "name": "owner",
          "type": "address"
        }
      ],
      "name": "balanceOf",
      "outputs": [
        {
          "internalType": "uint256",
          "name": "",
          "type": "uint256"
        }
      ],
      "payable": false,
      "stateMutability": "view",
      "type": "function"
    },
    {
      "constant": true,
      "inputs": [
        {
          "internalType": "uint256",
          "name": "",
          "type": "uint256"
        },
        {
          "internalType": "uint256",
          "name": "",
          "type": "uint256"
        }
      ],
      "name": "eventsales",
      "outputs": [
        {
          "internalType": "address",
          "name": "",
          "type": "address"
        }
      ],
      "payable": false,
      "stateMutability": "view",
      "type": "function"
    },
    {
      "constant": true,
      "inputs": [
        {
          "internalType": "uint256",
          "name": "tokenId",
          "type": "uint256"
        }
      ],
      "name": "getApproved",
      "outputs": [
        {
          "internalType": "address",
          "name": "",
          "type": "address"
        }
      ],
      "payable": false,
      "stateMutability": "view",
      "type": "function"
    },
    {
      "constant": true,
      "inputs": [
        {
          "internalType": "address",
          "name": "owner",
          "type": "address"
        },
        {
          "internalType": "address",
          "name": "operator",
          "type": "address"
        }
      ],
      "name": "isApprovedForAll",
      "outputs": [
        {
          "internalType": "bool",
          "name": "",
          "type": "bool"
        }
      ],
      "payable": false,
      "stateMutability": "view",
      "type": "function"
    },
    {
      "constant": true,
      "inputs": [
        {
          "internalType": "address",
          "name": "account",
          "type": "address"
        }
      ],
      "name": "isMinter",
      "outputs": [
        {
          "internalType": "bool",
          "name": "",
          "type": "bool"
        }
      ],
      "payable": false,
      "stateMutability": "view",
      "type": "function"
    },
    {
      "constant": false,
      "inputs": [
        {
          "internalType": "address",
          "name": "to",
          "type": "address"
        },
        {
          "internalType": "uint256",
          "name": "tokenId",
          "type": "uint256"
        }
      ],
      "name": "mint",
      "outputs": [
        {
          "internalType": "bool",
          "name": "",
          "type": "bool"
        }
      ],
      "payable": false,
      "stateMutability": "nonpayable",
      "type": "function"
    },
    {
      "constant": true,
      "inputs": [
        {
          "internalType": "uint256",
          "name": "tokenId",
          "type": "uint256"
        }
      ],
      "name": "ownerOf",
      "outputs": [
        {
          "internalType": "address",
          "name": "",
          "type": "address"
        }
      ],
      "payable": false,
      "stateMutability": "view",
      "type": "function"
    },
    {
      "constant": false,
      "inputs": [],
      "name": "renounceMinter",
      "outputs": [],
      "payable": false,
      "stateMutability": "nonpayable",
      "type": "function"
    },
    {
      "constant": false,
      "inputs": [
        {
          "internalType": "address",
          "name": "to",
          "type": "address"
        },
        {
          "internalType": "uint256",
          "name": "tokenId",
          "type": "uint256"
        },
        {
          "internalType": "bytes",
          "name": "_data",
          "type": "bytes"
        }
      ],
      "name": "safeMint",
      "outputs": [
        {
          "internalType": "bool",
          "name": "",
          "type": "bool"
        }
      ],
      "payable": false,
      "stateMutability": "nonpayable",
      "type": "function"
    },
    {
      "constant": false,
      "inputs": [
        {
          "internalType": "address",
          "name": "to",
          "type": "address"
        },
        {
          "internalType": "uint256",
          "name": "tokenId",
          "type": "uint256"
        }
      ],
      "name": "safeMint",
      "outputs": [
        {
          "internalType": "bool",
          "name": "",
          "type": "bool"
        }
      ],
      "payable": false,
      "stateMutability": "nonpayable",
      "type": "function"
    },
    {
      "constant": false,
      "inputs": [
        {
          "internalType": "address",
          "name": "from",
          "type": "address"
        },
        {
          "internalType": "address",
          "name": "to",
          "type": "address"
        },
        {
          "internalType": "uint256",
          "name": "tokenId",
          "type": "uint256"
        }
      ],
      "name": "safeTransferFrom",
      "outputs": [],
      "payable": false,
      "stateMutability": "nonpayable",
      "type": "function"
    },
    {
      "constant": false,
      "inputs": [
        {
          "internalType": "address",
          "name": "from",
          "type": "address"
        },
        {
          "internalType": "address",
          "name": "to",
          "type": "address"
        },
        {
          "internalType": "uint256",
          "name": "tokenId",
          "type": "uint256"
        },
        {
          "internalType": "bytes",
          "name": "_data",
          "type": "bytes"
        }
      ],
      "name": "safeTransferFrom",
      "outputs": [],
      "payable": false,
      "stateMutability": "nonpayable",
      "type": "function"
    },
    {
      "constant": false,
      "inputs": [
        {
          "internalType": "address",
          "name": "to",
          "type": "address"
        },
        {
          "internalType": "bool",
          "name": "approved",
          "type": "bool"
        }
      ],
      "name": "setApprovalForAll",
      "outputs": [],
      "payable": false,
      "stateMutability": "nonpayable",
      "type": "function"
    },
    {
      "constant": true,
      "inputs": [
        {
          "internalType": "bytes4",
          "name": "interfaceId",
          "type": "bytes4"
        }
      ],
      "name": "supportsInterface",
      "outputs": [
        {
          "internalType": "bool",
          "name": "",
          "type": "bool"
        }
      ],
      "payable": false,
      "stateMutability": "view",
      "type": "function"
    },
    {
      "constant": true,
      "inputs": [
        {
          "internalType": "uint256",
          "name": "",
          "type": "uint256"
        },
        {
          "internalType": "uint256",
          "name": "",
          "type": "uint256"
        }
      ],
      "name": "ticketIds",
      "outputs": [
        {
          "internalType": "uint256",
          "name": "",
          "type": "uint256"
        }
      ],
      "payable": false,
      "stateMutability": "view",
      "type": "function"
    },
    {
      "constant": true,
      "inputs": [
        {
          "internalType": "uint256",
          "name": "",
          "type": "uint256"
        }
      ],
      "name": "ticketInfoStorage",
      "outputs": [
        {
          "internalType": "enum Ticket721.TicketState",
          "name": "state",
          "type": "uint8"
        },
        {
          "internalType": "uint256",
          "name": "ticket_type",
          "type": "uint256"
        },
        {
          "internalType": "string",
          "name": "event_JID",
          "type": "string"
        },
        {
          "internalType": "address",
          "name": "sale_address",
          "type": "address"
        }
      ],
      "payable": false,
      "stateMutability": "view",
      "type": "function"
    },
    {
      "constant": true,
      "inputs": [
        {
          "internalType": "uint256",
          "name": "index",
          "type": "uint256"
        }
      ],
      "name": "tokenByIndex",
      "outputs": [
        {
          "internalType": "uint256",
          "name": "",
          "type": "uint256"
        }
      ],
      "payable": false,
      "stateMutability": "view",
      "type": "function"
    },
    {
      "constant": true,
      "inputs": [
        {
          "internalType": "address",
          "name": "owner",
          "type": "address"
        },
        {
          "internalType": "uint256",
          "name": "index",
          "type": "uint256"
        }
      ],
      "name": "tokenOfOwnerByIndex",
      "outputs": [
        {
          "internalType": "uint256",
          "name": "",
          "type": "uint256"
        }
      ],
      "payable": false,
      "stateMutability": "view",
      "type": "function"
    },
    {
      "constant": true,
      "inputs": [],
      "name": "totalSupply",
      "outputs": [
        {
          "internalType": "uint256",
          "name": "",
          "type": "uint256"
        }
      ],
      "payable": false,
      "stateMutability": "view",
      "type": "function"
    },
    {
      "constant": false,
      "inputs": [
        {
          "internalType": "address",
          "name": "from",
          "type": "address"
        },
        {
          "internalType": "address",
          "name": "to",
          "type": "address"
        },
        {
          "internalType": "uint256",
          "name": "tokenId",
          "type": "uint256"
        }
      ],
      "name": "transferFrom",
      "outputs": [],
      "payable": false,
      "stateMutability": "nonpayable",
      "type": "function"
    },
    {
      "constant": false,
      "inputs": [
        {
          "internalType": "address",
          "name": "from",
          "type": "address"
        },
        {
          "internalType": "address",
          "name": "to",
          "type": "address"
        },
        {
          "internalType": "uint256",
          "name": "tokenId",
          "type": "uint256"
        }
      ],
      "name": "_transferFromTicket",
      "outputs": [],
      "payable": false,
      "stateMutability": "nonpayable",
      "type": "function"
    },
    {
      "constant": false,
      "inputs": [
        {
          "internalType": "address",
          "name": "orginizer",
          "type": "address"
        },
        {
          "internalType": "string",
          "name": "jid",
          "type": "string"
        }
      ],
      "name": "reserveEventId",
      "outputs": [
        {
          "internalType": "uint256",
          "name": "event_id",
          "type": "uint256"
        }
      ],
      "payable": false,
      "stateMutability": "nonpayable",
      "type": "function"
    },
    {
      "constant": false,
      "inputs": [
        {
          "internalType": "uint256",
          "name": "event_id",
          "type": "uint256"
        },
        {
          "internalType": "address",
          "name": "orginizer",
          "type": "address"
        }
      ],
      "name": "plugSale",
      "outputs": [
        {
          "internalType": "uint256",
          "name": "",
          "type": "uint256"
        }
      ],
      "payable": false,
      "stateMutability": "nonpayable",
      "type": "function"
    },
    {
      "constant": false,
      "inputs": [
        {
          "internalType": "address",
          "name": "buyer",
          "type": "address"
        },
        {
          "internalType": "uint256",
          "name": "ticketAmount",
          "type": "uint256"
        },
        {
          "internalType": "uint256",
          "name": "event_id",
          "type": "uint256"
        },
        {
          "internalType": "uint256",
          "name": "_ticket_type",
          "type": "uint256"
        }
      ],
      "name": "buyTicket",
      "outputs": [],
      "payable": false,
      "stateMutability": "nonpayable",
      "type": "function"
    },
    {
      "constant": false,
      "inputs": [
        {
          "internalType": "address",
          "name": "visitor",
          "type": "address"
        },
        {
          "internalType": "uint256",
          "name": "tokenId",
          "type": "uint256"
        },
        {
          "internalType": "uint256",
          "name": "event_id",
          "type": "uint256"
        }
      ],
      "name": "redeemTicket",
      "outputs": [],
      "payable": false,
      "stateMutability": "nonpayable",
      "type": "function"
    },
    {
      "constant": false,
      "inputs": [
        {
          "internalType": "address",
          "name": "visitor",
          "type": "address"
        },
        {
          "internalType": "uint256",
          "name": "tokenId",
          "type": "uint256"
        },
        {
          "internalType": "uint256",
          "name": "event_id",
          "type": "uint256"
        }
      ],
      "name": "refundTicket",
      "outputs": [
        {
          "internalType": "bool",
          "name": "",
          "type": "bool"
        }
      ],
      "payable": false,
      "stateMutability": "nonpayable",
      "type": "function"
    },
    {
      "constant": true,
      "inputs": [
        {
          "internalType": "uint256",
          "name": "event_id",
          "type": "uint256"
        }
      ],
      "name": "getTicketTypeCount",
      "outputs": [
        {
          "internalType": "uint256",
          "name": "",
          "type": "uint256"
        }
      ],
      "payable": false,
      "stateMutability": "view",
      "type": "function"
    },
    {
      "constant": true,
      "inputs": [
        {
          "internalType": "address",
          "name": "_owner",
          "type": "address"
        }
      ],
      "name": "getTicketByOwner",
      "outputs": [
        {
          "internalType": "uint256[]",
          "name": "",
          "type": "uint256[]"
        }
      ],
      "payable": false,
      "stateMutability": "view",
      "type": "function"
    },
    {
      "constant": true,
      "inputs": [
        {
          "internalType": "uint256",
          "name": "event_id",
          "type": "uint256"
        }
      ],
      "name": "getTicketSales",
      "outputs": [
        {
          "internalType": "address[]",
          "name": "",
          "type": "address[]"
        }
      ],
      "payable": false,
      "stateMutability": "view",
      "type": "function"
    },
    {
      "constant": true,
      "inputs": [
        {
          "internalType": "uint256",
          "name": "event_id",
          "type": "uint256"
        }
      ],
      "name": "getJidbyEventID",
      "outputs": [
        {
          "internalType": "string",
          "name": "jid",
          "type": "string"
        }
      ],
      "payable": false,
      "stateMutability": "view",
      "type": "function"
    },
    {
      "constant": true,
      "inputs": [
        {
          "internalType": "uint256",
          "name": "ticket_id",
          "type": "uint256"
        }
      ],
      "name": "getJidByTicketId",
      "outputs": [
        {
          "internalType": "string",
          "name": "jid",
          "type": "string"
        }
      ],
      "payable": false,
      "stateMutability": "view",
      "type": "function"
    },
    {
      "constant": true,
      "inputs": [
        {
          "internalType": "uint256",
          "name": "ticket_id",
          "type": "uint256"
        }
      ],
      "name": "getTicketStatus",
      "outputs": [
        {
          "internalType": "enum Ticket721.TicketState",
          "name": "status",
          "type": "uint8"
        }
      ],
      "payable": false,
      "stateMutability": "view",
      "type": "function"
    }
  ],
  "bytecode": "0x60806040523480156200001157600080fd5b506200002d6301ffc9a760e01b6001600160e01b036200008f16565b620000486380ac58cd60e01b6001600160e01b036200008f16565b6200006363780e9d6360e01b6001600160e01b036200008f16565b620000896200007a6001600160e01b036200011416565b6001600160e01b036200011816565b62000260565b6001600160e01b03198082161415620000ef576040805162461bcd60e51b815260206004820152601c60248201527f4552433136353a20696e76616c696420696e7465726661636520696400000000604482015290519081900360640190fd5b6001600160e01b0319166000908152602081905260409020805460ff19166001179055565b3390565b620001338160096200016a60201b62002bd61790919060201c565b6040516001600160a01b038216907f6ae172837ea30b801fbfcdd4108aa1d5bf8ff775444fd70256b44e6bf3dfc3f690600090a250565b6200017f82826001600160e01b03620001f716565b15620001d2576040805162461bcd60e51b815260206004820152601f60248201527f526f6c65733a206163636f756e7420616c72656164792068617320726f6c6500604482015290519081900360640190fd5b6001600160a01b0316600090815260209190915260409020805460ff19166001179055565b60006001600160a01b038216620002405760405162461bcd60e51b8152600401808060200182810382526022815260200180620034c46022913960400191505060405180910390fd5b506001600160a01b03166000908152602091909152604090205460ff1690565b61325480620002706000396000f3fe608060405234801561001057600080fd5b50600436106102115760003560e01c806385c393f811610125578063a27c282e116100ad578063b88d4fde1161007c578063b88d4fde1461094a578063cd3a15f814610a10578063e985e9c514610a48578063ec95d2d014610a76578063fb87774c14610a9357610211565b8063a27c282e1461089f578063aa271e1a146108d1578063ab31520a146108f7578063ad140b1d1461092d57610211565b806398650275116100f457806398650275146107645780639b1d8baf1461076c578063a14481941461078f578063a201b238146107bb578063a22cb4651461087157610211565b806385c393f8146106345780638832e6e3146106515780639566dd841461070c578063983b2d561461073e57610211565b8063376b029a116101a85780634f6ccce7116101775780634f6ccce7146105855780636352211e146105a2578063645c0fb0146105bf57806370a08231146105eb57806378df3a521461061157610211565b8063376b029a1461049057806340c10f191461050657806342842e0e1461053257806344bb8aff1461056857610211565b80631d663f10116101e45780631d663f10146102d25780631eb8098e1461039c57806323b872dd1461042e5780632f745c591461046457610211565b806301ffc9a714610216578063081812fc14610251578063095ea7b31461028a57806318160ddd146102b8575b600080fd5b61023d6004803603602081101561022c57600080fd5b50356001600160e01b031916610ad4565b604080519115158252519081900360200190f35b61026e6004803603602081101561026757600080fd5b5035610af3565b604080516001600160a01b039092168252519081900360200190f35b6102b6600480360360408110156102a057600080fd5b506001600160a01b038135169060200135610b55565b005b6102c0610c7d565b60408051918252519081900360200190f35b6102ef600480360360208110156102e857600080fd5b5035610c84565b604051808560038111156102ff57fe5b60ff16815260200184815260200180602001836001600160a01b03166001600160a01b03168152602001828103825284818151815260200191508051906020019080838360005b8381101561035e578181015183820152602001610346565b50505050905090810190601f16801561038b5780820380516001836020036101000a031916815260200191505b509550505050505060405180910390f35b6103b9600480360360208110156103b257600080fd5b5035610d43565b6040805160208082528351818301528351919283929083019185019080838360005b838110156103f35781810151838201526020016103db565b50505050905090810190601f1680156104205780820380516001836020036101000a031916815260200191505b509250505060405180910390f35b6102b66004803603606081101561044457600080fd5b506001600160a01b03813581169160208101359091169060400135610e53565b6102c06004803603604081101561047a57600080fd5b506001600160a01b038135169060200135610eaf565b6104b6600480360360208110156104a657600080fd5b50356001600160a01b0316610f2e565b60408051602080825283518183015283519192839290830191858101910280838360005b838110156104f25781810151838201526020016104da565b505050509050019250505060405180910390f35b61023d6004803603604081101561051c57600080fd5b506001600160a01b038135169060200135610f95565b6102b66004803603606081101561054857600080fd5b506001600160a01b03813581169160208101359091169060400135610ff5565b6104b66004803603602081101561057e57600080fd5b5035611010565b6102c06004803603602081101561059b57600080fd5b5035611087565b61026e600480360360208110156105b857600080fd5b50356110ed565b6102c0600480360360408110156105d557600080fd5b50803590602001356001600160a01b0316611147565b6102c06004803603602081101561060157600080fd5b50356001600160a01b031661127e565b6102c06004803603604081101561062757600080fd5b50803590602001356112e6565b6103b96004803603602081101561064a57600080fd5b5035611314565b61023d6004803603606081101561066757600080fd5b6001600160a01b038235169160208101359181019060608101604082013564010000000081111561069757600080fd5b8201836020820111156106a957600080fd5b803590602001918460018302840111640100000000831117156106cb57600080fd5b91908080601f0160208091040260200160405190810160405280939291908181526020018383808284376000920191909152509295506113b5945050505050565b61023d6004803603606081101561072257600080fd5b506001600160a01b038135169060208101359060400135611412565b6102b66004803603602081101561075457600080fd5b50356001600160a01b03166116f3565b6102b6611745565b61026e6004803603604081101561078257600080fd5b5080359060200135611757565b61023d600480360360408110156107a557600080fd5b506001600160a01b03813516906020013561178c565b6102c0600480360360408110156107d157600080fd5b6001600160a01b0382351691908101906040810160208201356401000000008111156107fc57600080fd5b82018360208201111561080e57600080fd5b8035906020019184600183028401116401000000008311171561083057600080fd5b91908080601f0160208091040260200160405190810160405280939291908181526020018383808284376000920191909152509295506117de945050505050565b6102b66004803603604081101561088757600080fd5b506001600160a01b03813516906020013515156118d9565b6102b6600480360360608110156108b557600080fd5b506001600160a01b0381351690602081013590604001356119de565b61023d600480360360208110156108e757600080fd5b50356001600160a01b0316611d2b565b6102b66004803603606081101561090d57600080fd5b506001600160a01b03813581169160208101359091169060400135610e9f565b6103b96004803603602081101561094357600080fd5b5035611d3e565b6102b66004803603608081101561096057600080fd5b6001600160a01b0382358116926020810135909116916040820135919081019060808101606082013564010000000081111561099b57600080fd5b8201836020820111156109ad57600080fd5b803590602001918460018302840111640100000000831117156109cf57600080fd5b91908080601f016020809104026020016040519081016040528093929190818152602001838380828437600092019190915250929550611dd9945050505050565b6102b660048036036080811015610a2657600080fd5b506001600160a01b038135169060208101359060408101359060600135611e37565b61023d60048036036040811015610a5e57600080fd5b506001600160a01b03813581169160200135166120bc565b6102c060048036036020811015610a8c57600080fd5b50356120ea565b610ab060048036036020811015610aa957600080fd5b5035612156565b60405180826003811115610ac057fe5b60ff16815260200191505060405180910390f35b6001600160e01b03191660009081526020819052604090205460ff1690565b6000610afe82612263565b610b395760405162461bcd60e51b815260040180806020018281038252602c81526020018061312b602c913960400191505060405180910390fd5b506000908152600260205260409020546001600160a01b031690565b6000610b60826110ed565b9050806001600160a01b0316836001600160a01b03161415610bb35760405162461bcd60e51b81526004018080602001828103825260218152602001806131a26021913960400191505060405180910390fd5b806001600160a01b0316610bc5612280565b6001600160a01b03161480610be65750610be681610be1612280565b6120bc565b610c215760405162461bcd60e51b815260040180806020018281038252603881526020018061304f6038913960400191505060405180910390fd5b60008281526002602052604080822080546001600160a01b0319166001600160a01b0387811691821790925591518593918516917f8c5be1e5ebec7d5bd14f71427d1e84f3dd0314c0f7b2291e5b200ac8c7c3b92591a4505050565b6007545b90565b600f6020908152600091825260409182902080546001808301546002808501805488516101009582161595909502600019011691909104601f810187900487028401870190975286835260ff909316959094919291830182828015610d2a5780601f10610cff57610100808354040283529160200191610d2a565b820191906000526020600020905b815481529060010190602001808311610d0d57829003601f168201915b505050600390930154919250506001600160a01b031684565b6060610d4d612e29565b6000838152600f6020526040908190208151608081019092528054829060ff166003811115610d7857fe5b6003811115610d8357fe5b815260200160018201548152602001600282018054600181600116156101000203166002900480601f016020809104026020016040519081016040528092919081815260200182805460018160011615610100020316600290048015610e2a5780601f10610dff57610100808354040283529160200191610e2a565b820191906000526020600020905b815481529060010190602001808311610e0d57829003601f168201915b5050509183525050600391909101546001600160a01b0316602090910152604001519392505050565b610e64610e5e612280565b82612284565b610e9f5760405162461bcd60e51b81526004018080602001828103825260318152602001806131c36031913960400191505060405180910390fd5b610eaa838383612328565b505050565b6000610eba8361127e565b8210610ef75760405162461bcd60e51b815260040180806020018281038252602b815260200180612f41602b913960400191505060405180910390fd5b6001600160a01b0383166000908152600560205260409020805483908110610f1b57fe5b9060005260206000200154905092915050565b60606000610f3b83612347565b905080805480602002602001604051908101604052809291908181526020018280548015610f8857602002820191906000526020600020905b815481526020019060010190808311610f74575b5050505050915050919050565b6000610fa7610fa2612280565b611d2b565b610fe25760405162461bcd60e51b81526004018080602001828103825260308152602001806130da6030913960400191505060405180910390fd5b610fec8383612361565b50600192915050565b610eaa83838360405180602001604052806000815250611dd9565b606080600c600084815260200190815260200160002080548060200260200160405190810160405280929190818152602001828054801561107a57602002820191906000526020600020905b81546001600160a01b0316815260019091019060200180831161105c575b5093979650505050505050565b6000611091610c7d565b82106110ce5760405162461bcd60e51b815260040180806020018281038252602c8152602001806131f4602c913960400191505060405180910390fd5b600782815481106110db57fe5b90600052602060002001549050919050565b6000818152600160205260408120546001600160a01b0316806111415760405162461bcd60e51b81526004018080602001828103825260298152602001806130b16029913960400191505060405180910390fd5b92915050565b6000828152600c6020908152604080832080548251818502810185019093528083526060938301828280156111a557602002820191906000526020600020905b81546001600160a01b03168152600190910190602001808311611187575b505050505090506000816000815181106111bb57fe5b6020908102919091018101516001600160a01b038082166000908152601090935260409092205490925081169085161461123c576040805162461bcd60e51b815260206004820152601c60248201527f6f6e6c79206f7267696e697a65722063616e20706c7567206974656d00000000604482015290519081900360640190fd5b6000858152600c60209081526040822080546001810182559083529082200180546001600160a01b03191633179055611274866120ea565b9695505050505050565b60006001600160a01b0382166112c55760405162461bcd60e51b815260040180806020018281038252602a815260200180613087602a913960400191505060405180910390fd5b6001600160a01b038216600090815260036020526040902061114190612382565b600d60205281600052604060002081815481106112ff57fe5b90600052602060002001600091509150505481565b60008181526011602090815260409182902080548351601f60026000196101006001861615020190931692909204918201849004840281018401909452808452606093928301828280156113a95780601f1061137e576101008083540402835291602001916113a9565b820191906000526020600020905b81548152906001019060200180831161138c57829003601f168201915b50939695505050505050565b60006113c2610fa2612280565b6113fd5760405162461bcd60e51b81526004018080602001828103825260308152602001806130da6030913960400191505060405180910390fd5b611408848484612386565b5060019392505050565b6000818152600c60209081526040808320805482518185028101850190935280835260609383018282801561147057602002820191906000526020600020905b81546001600160a01b03168152600190910190602001808311611452575b5050505050905061147f612e29565b6000858152600f6020526040908190208151608081019092528054829060ff1660038111156114aa57fe5b60038111156114b557fe5b815260200160018201548152602001600282018054600181600116156101000203166002900480601f01602080910402602001604051908101604052809291908181526020018280546001816001161561010002031660029004801561155c5780601f106115315761010080835404028352916020019161155c565b820191906000526020600020905b81548152906001019060200180831161153f57829003601f168201915b5050509183525050600391909101546001600160a01b0316602091820152810151835191925060009184916000190190811061159457fe5b60200260200101519050336001600160a01b0316816001600160a01b0316146115ee5760405162461bcd60e51b815260040180806020018281038252602f815260200180612f9e602f913960400191505060405180910390fd5b60006115f987612156565b9050600181600381111561160957fe5b1461165b576040805162461bcd60e51b815260206004820152601a60248201527f7469636b657420737461747573206973206e6f742076616c6964000000000000604482015290519081900360640190fd5b611666883389610e9f565b60038084526000888152600f60205260409020845181548693839160ff191690600190849081111561169457fe5b02179055506020828101516001830155604083015180516116bb9260028501920190612e5b565b5060609190910151600390910180546001600160a01b0319166001600160a01b03909216919091179055506001979650505050505050565b6116fe610fa2612280565b6117395760405162461bcd60e51b81526004018080602001828103825260308152602001806130da6030913960400191505060405180910390fd5b611742816123d8565b50565b611755611750612280565b612420565b565b600c602052816000526040600020818154811061177057fe5b6000918252602090912001546001600160a01b03169150829050565b6000611799610fa2612280565b6117d45760405162461bcd60e51b81526004018080602001828103825260308152602001806130da6030913960400191505060405180910390fd5b610fec8383612468565b60006117ea600b612482565b6117f4600b612382565b6000818152600c602090815260408083208054600181018255908452828420018054336001600160a01b031991821681179092559084526010835281842080549091166001600160a01b038916179055838352601182529091208451929350611861929091850190612e5b565b5061186b336123d8565b604051819033907fe7d1a453d66d83d6e4ffae7901ed08b56c3b1f53a1c43135c2de683e4529b65b90600090a3604080513381526020810183905281517f0a554ff72c713dffd0372d9c23cc1e214c1dfefbadda4710f4eee43eb6229a7b929181900390910190a192915050565b6118e1612280565b6001600160a01b0316826001600160a01b03161415611947576040805162461bcd60e51b815260206004820152601960248201527f4552433732313a20617070726f766520746f2063616c6c657200000000000000604482015290519081900360640190fd5b8060046000611954612280565b6001600160a01b03908116825260208083019390935260409182016000908120918716808252919093529120805460ff191692151592909217909155611998612280565b60408051841515815290516001600160a01b0392909216917f17307eab39ab6107e8899845ad3d59bd9653f200f220920489ca2b5937696c319181900360200190a35050565b6000818152600c6020908152604091829020805483518184028101840190945280845260609392830182828015611a3e57602002820191906000526020600020905b81546001600160a01b03168152600190910190602001808311611a20575b50505050509050611a4d612e29565b6000848152600f6020526040908190208151608081019092528054829060ff166003811115611a7857fe5b6003811115611a8357fe5b815260200160018201548152602001600282018054600181600116156101000203166002900480601f016020809104026020016040519081016040528092919081815260200182805460018160011615610100020316600290048015611b2a5780601f10611aff57610100808354040283529160200191611b2a565b820191906000526020600020905b815481529060010190602001808311611b0d57829003601f168201915b5050509183525050600391909101546001600160a01b03166020918201528101518351919250600091849160001901908110611b6257fe5b60200260200101519050336001600160a01b0316816001600160a01b031614611bbc5760405162461bcd60e51b815260040180806020018281038252602d815260200180612f14602d913960400191505060405180910390fd5b60016000868152600f602052604090205460ff166003811115611bdb57fe5b14611c2d576040805162461bcd60e51b815260206004820152601960248201527f5469636b6574207374617465206d757374206265205061696400000000000000604482015290519081900360640190fd5b600282526000858152600f602052604090208251815484929190829060ff19166001836003811115611c5b57fe5b0217905550602082810151600183015560408301518051611c829260028501920190612e5b565b5060609190910151600390910180546001600160a01b0319166001600160a01b0392831617905560405186918691908916907f1852380d0869dc478452f3f2bcfac707f842df524f5b8896d2a4f70c756f818490600090a4604080516001600160a01b03881681526020810186905280820187905290517fe82baa24ba3534133b9033b3b6013784eaa8e524dc5ef8cf2e3e0945d00746249181900360600190a1505050505050565b600061114160098363ffffffff61248b16565b60116020908152600091825260409182902080548351601f600260001961010060018616150201909316929092049182018490048402810184019094528084529091830182828015611dd15780601f10611da657610100808354040283529160200191611dd1565b820191906000526020600020905b815481529060010190602001808311611db457829003601f168201915b505050505081565b611dea611de4612280565b83612284565b611e255760405162461bcd60e51b81526004018080602001828103825260318152602001806131c36031913960400191505060405180910390fd5b611e31848484846124f2565b50505050565b6000828152600c6020908152604091829020805483518184028101840190945280845260609392830182828015611e9757602002820191906000526020600020905b81546001600160a01b03168152600190910190602001808311611e79575b505050505090506000816001840381518110611eaf57fe5b60200260200101519050336001600160a01b0316816001600160a01b031614611f095760405162461bcd60e51b8152600401808060200182810382526032815260200180612ff16032913960400191505060405180910390fd5b60005b858110156120b357611f1e600a612482565b6000611f2a600a612382565b9050611f368882612361565b6060611f4187611314565b60408051608081019091529091508060018152602080820189905260408083018590526001600160a01b0388166060909301929092526000858152600f9091522081518154829060ff19166001836003811115611f9a57fe5b0217905550602082810151600183015560408301518051611fc19260028501920190612e5b565b5060609190910151600390910180546001600160a01b0319166001600160a01b039092169190911790556000878152600d602081815260408084208054878652600e8452918520829055928252600181018355918352909120018290556120288933612544565b81878a6001600160a01b03167f97fac0ce6558f4accbb4696915809c0ef7023ffe7ba9454e94d49fb652aae1d560405160405180910390a4604080516001600160a01b038b1681526020810189905280820184905290517f6d651fdc8652e9b93372b6cece4377b2c0f78be48b1ffbf3bdafc7baef0138ab9181900360600190a15050600101611f0c565b50505050505050565b6001600160a01b03918216600090815260046020908152604080832093909416825291909152205460ff1690565b6000818152600c60209081526040808320805482518185028101850190935280835260609383018282801561214857602002820191906000526020600020905b81546001600160a01b0316815260019091019060200180831161212a575b505092519695505050505050565b6000612160612e29565b6000838152600f6020526040908190208151608081019092528054829060ff16600381111561218b57fe5b600381111561219657fe5b815260200160018201548152602001600282018054600181600116156101000203166002900480601f01602080910402602001604051908101604052809291908181526020018280546001816001161561010002031660029004801561223d5780601f106122125761010080835404028352916020019161223d565b820191906000526020600020905b81548152906001019060200180831161222057829003601f168201915b5050509183525050600391909101546001600160a01b0316602090910152519392505050565b6000908152600160205260409020546001600160a01b0316151590565b3390565b600061228f82612263565b6122ca5760405162461bcd60e51b815260040180806020018281038252602c815260200180613023602c913960400191505060405180910390fd5b60006122d5836110ed565b9050806001600160a01b0316846001600160a01b031614806123105750836001600160a01b031661230584610af3565b6001600160a01b0316145b80612320575061232081856120bc565b949350505050565b6123338383836125af565b61233d83826126f3565b610eaa82826127e8565b6001600160a01b0316600090815260056020526040902090565b61236b8282612826565b61237582826127e8565b61237e81612957565b5050565b5490565b6123908383612361565b61239d600084848461299b565b610eaa5760405162461bcd60e51b8152600401808060200182810382526032815260200180612f6c6032913960400191505060405180910390fd5b6123e960098263ffffffff612bd616565b6040516001600160a01b038216907f6ae172837ea30b801fbfcdd4108aa1d5bf8ff775444fd70256b44e6bf3dfc3f690600090a250565b61243160098263ffffffff612c5716565b6040516001600160a01b038216907fe94479a9f7e1952cc78f2d6baab678adc1b772d936c6583def489e524cb6669290600090a250565b61237e828260405180602001604052806000815250612386565b80546001019055565b60006001600160a01b0382166124d25760405162461bcd60e51b81526004018080602001828103825260228152602001806131576022913960400191505060405180910390fd5b506001600160a01b03166000908152602091909152604090205460ff1690565b6124fd848484612328565b6125098484848461299b565b611e315760405162461bcd60e51b8152600401808060200182810382526032815260200180612f6c6032913960400191505060405180910390fd5b6001600160a01b038083166000818152600460209081526040808320948616808452948252808320805460ff1916905580518381529051929493927f17307eab39ab6107e8899845ad3d59bd9653f200f220920489ca2b5937696c31929181900390910190a3505050565b826001600160a01b03166125c2826110ed565b6001600160a01b0316146126075760405162461bcd60e51b81526004018080602001828103825260298152602001806131796029913960400191505060405180910390fd5b6001600160a01b03821661264c5760405162461bcd60e51b8152600401808060200182810382526024815260200180612fcd6024913960400191505060405180910390fd5b61265581612cbe565b6001600160a01b038316600090815260036020526040902061267690612cf9565b6001600160a01b038216600090815260036020526040902061269790612482565b60008181526001602052604080822080546001600160a01b0319166001600160a01b0386811691821790925591518493918716917fddf252ad1be2c89b69c2b068fc378daa952ba7f163c4a11628f55a4df523b3ef91a4505050565b6001600160a01b03821660009081526005602052604081205461271d90600163ffffffff612d1016565b6000838152600660205260409020549091508082146127b8576001600160a01b038416600090815260056020526040812080548490811061275a57fe5b906000526020600020015490508060056000876001600160a01b03166001600160a01b03168152602001908152602001600020838154811061279857fe5b600091825260208083209091019290925591825260069052604090208190555b6001600160a01b03841660009081526005602052604090208054906127e1906000198301612ed9565b5050505050565b6001600160a01b0390911660009081526005602081815260408084208054868652600684529185208290559282526001810183559183529091200155565b6001600160a01b038216612881576040805162461bcd60e51b815260206004820181905260248201527f4552433732313a206d696e7420746f20746865207a65726f2061646472657373604482015290519081900360640190fd5b61288a81612263565b156128dc576040805162461bcd60e51b815260206004820152601c60248201527f4552433732313a20746f6b656e20616c7265616479206d696e74656400000000604482015290519081900360640190fd5b600081815260016020908152604080832080546001600160a01b0319166001600160a01b03871690811790915583526003909152902061291b90612482565b60405181906001600160a01b038416906000907fddf252ad1be2c89b69c2b068fc378daa952ba7f163c4a11628f55a4df523b3ef908290a45050565b600780546000838152600860205260408120829055600182018355919091527fa66cc928b5edb82af9bd49922954155ab7b0942694bea4ce44661d9a8736c6880155565b60006129af846001600160a01b0316612d59565b6129bb57506001612320565b600060606001600160a01b038616630a85bd0160e11b6129d9612280565b89888860405160240180856001600160a01b03166001600160a01b03168152602001846001600160a01b03166001600160a01b0316815260200183815260200180602001828103825283818151815260200191508051906020019080838360005b83811015612a52578181015183820152602001612a3a565b50505050905090810190601f168015612a7f5780820380516001836020036101000a031916815260200191505b5060408051601f198184030181529181526020820180516001600160e01b03166001600160e01b0319909a16999099178952518151919890975087965094509250829150849050835b60208310612ae75780518252601f199092019160209182019101612ac8565b6001836020036101000a0380198251168184511680821785525050505050509050019150506000604051808303816000865af19150503d8060008114612b49576040519150601f19603f3d011682016040523d82523d6000602084013e612b4e565b606091505b509150915081612b9f57805115612b685780518082602001fd5b60405162461bcd60e51b8152600401808060200182810382526032815260200180612f6c6032913960400191505060405180910390fd5b6000818060200190516020811015612bb657600080fd5b50516001600160e01b031916630a85bd0160e11b14935061232092505050565b612be0828261248b565b15612c32576040805162461bcd60e51b815260206004820152601f60248201527f526f6c65733a206163636f756e7420616c72656164792068617320726f6c6500604482015290519081900360640190fd5b6001600160a01b0316600090815260209190915260409020805460ff19166001179055565b612c61828261248b565b612c9c5760405162461bcd60e51b815260040180806020018281038252602181526020018061310a6021913960400191505060405180910390fd5b6001600160a01b0316600090815260209190915260409020805460ff19169055565b6000818152600260205260409020546001600160a01b03161561174257600090815260026020526040902080546001600160a01b0319169055565b8054612d0c90600163ffffffff612d1016565b9055565b6000612d5283836040518060400160405280601e81526020017f536166654d6174683a207375627472616374696f6e206f766572666c6f770000815250612d92565b9392505050565b6000813f7fc5d2460186f7233c927e7db2dcc703c0e500b653ca82273b7bfad8045d85a470818114801590612320575050151592915050565b60008184841115612e215760405162461bcd60e51b81526004018080602001828103825283818151815260200191508051906020019080838360005b83811015612de6578181015183820152602001612dce565b50505050905090810190601f168015612e135780820380516001836020036101000a031916815260200191505b509250505060405180910390fd5b505050900390565b60408051608081019091528060008152602001600081526020016060815260200160006001600160a01b031681525090565b828054600181600116156101000203166002900490600052602060002090601f016020900481019282601f10612e9c57805160ff1916838001178555612ec9565b82800160010185558215612ec9579182015b82811115612ec9578251825591602001919060010190612eae565b50612ed5929150612ef9565b5090565b815481835581811115610eaa57600083815260209020610eaa9181019083015b610c8191905b80821115612ed55760008155600101612eff56fe796f752073686f756c642063616c6c207363616e2066726f6d207469636b657473616c6520636f6e7472616374455243373231456e756d657261626c653a206f776e657220696e646578206f7574206f6620626f756e64734552433732313a207472616e7366657220746f206e6f6e20455243373231526563656976657220696d706c656d656e746572796f752073686f756c642063616c6c20726566756e642066726f6d207469636b657473616c6520636f6e74726163744552433732313a207472616e7366657220746f20746865207a65726f2061646472657373796f752073686f756c642063616c6c206275795469636b65742066726f6d207469636b657473616c6520636f6e74726163744552433732313a206f70657261746f7220717565727920666f72206e6f6e6578697374656e7420746f6b656e4552433732313a20617070726f76652063616c6c6572206973206e6f74206f776e6572206e6f7220617070726f76656420666f7220616c6c4552433732313a2062616c616e636520717565727920666f7220746865207a65726f20616464726573734552433732313a206f776e657220717565727920666f72206e6f6e6578697374656e7420746f6b656e4d696e746572526f6c653a2063616c6c657220646f6573206e6f74206861766520746865204d696e74657220726f6c65526f6c65733a206163636f756e7420646f6573206e6f74206861766520726f6c654552433732313a20617070726f76656420717565727920666f72206e6f6e6578697374656e7420746f6b656e526f6c65733a206163636f756e7420697320746865207a65726f20616464726573734552433732313a207472616e73666572206f6620746f6b656e2074686174206973206e6f74206f776e4552433732313a20617070726f76616c20746f2063757272656e74206f776e65724552433732313a207472616e736665722063616c6c6572206973206e6f74206f776e6572206e6f7220617070726f766564455243373231456e756d657261626c653a20676c6f62616c20696e646578206f7574206f6620626f756e6473a265627a7a7231582043f78db2428fdb96f0c441033617af74ee160a84a54c51a6bec32e14a5c1bf8b64736f6c63430005110032526f6c65733a206163636f756e7420697320746865207a65726f2061646472657373",
  "source": "pragma solidity ^0.5.11;\n\nimport '../../zeppeline/token/ERC721/ERC721Enumerable.sol';\nimport '../../zeppeline/token/ERC721/ERC721Mintable.sol';\nimport \"../../zeppeline/drafts/Counters.sol\";\n\n\n\n\n\n\n\n// Ticket is ERC721 (NFT) token with  availability to reedem tickets\n\n/**\n\n    ERC-721 is non-fungible token.  So, each tokenID is a unique ticket\n\n    Usefull tips:\n    // Mapping from owner to list of owned token IDs\n    mapping(address => uint256[]) private _ownedTokens;\n\n    // Mapping from token ID to index of the owner tokens list\n    mapping(uint256 => uint256) private _ownedTokensIndex;\n\n    // Array with all token ids, used for enumeration\n    uint256[] private _allTokens;\n\n    // Mapping from token id to position in the allTokens array\n    mapping(uint256 => uint256) private _allTokensIndex;\n\n    Gets the list of token IDs of the requested owner.\n     function _tokensOfOwner(address owner) internal view returns (uint256[] storage) {\n        return _ownedTokens[owner];\n    }\n\n\n\n **/\n\ncontract Ticket721 is ERC721Enumerable, ERC721Mintable {\n   using SafeMath for uint256;\n   using Counters for Counters.Counter;\n\n\n    //events\n    event TicketBought(address indexed visitor_wallet,uint256 indexed event_id, uint256 indexed ticket_id);\n    event TicketBoughtHuman(address visitor_wallet,uint256 event_id, uint256 ticket_id);\n    event TicketFulfilled(address indexed visitor_wallet,uint256 indexed event_id, uint256 indexed ticket_id);   // FIXME: add date to event?\n    event TicketFulfilledHuman(address visitor_wallet,uint256 event_id, uint256 ticket_id);\n    event EventIdReserved(address indexed ticket_sale, uint256 indexed event_id);\n    event EventIdReservedHuman(address ticket_sale, uint256 event_id);\n\n    // Global counters for ticket_id and event_id\n    Counters.Counter _ticket_id_count;\n    Counters.Counter _event_id_count;\n\n    // Ticket lifecycle\n    enum TicketState {Non_Existed, Paid, Fulfilled, Cancelled}\n\n    // map from event id to ticketsale address\n    // TIP: ticket type = array.length\n    mapping(uint256 => address[]) public eventsales;\n    // map from event id to ticket ids\n    mapping (uint256 => uint256[]) public ticketIds;\n    // map fron token ID to its index in ticketIds\n    mapping (uint256 => uint256) ticketIndex;\n    // map from ticket id to ticket info\n    mapping (uint256 => TicketInfo) public ticketInfoStorage;\n    // map from sale address to organizer\n    mapping(address => address) retailers;\n    // map from event id to event JID\n    mapping(uint256 => string) public JIDs;\n\n\n    /**\n   * Ticket information\n   */\n\n    struct TicketInfo {\n    //string description;\n    //uint price;\n    TicketState state;\n   // Counters.Counter ticket_type;\n    uint ticket_type;\n    string event_JID;\n    address sale_address;\n  }\n\n   // TicketInfo[] internal ticketStorage;\n\n\n\n    //FIXME: invoke constructor from 721(?)\n    constructor() public {\n      //  _addMinter(address(this));\n    }\n\n    // FIXME: approve for ticketsale, not factory\n    function setApprovalForEvent(address _owner, address ticketsale) internal{\n        bool approved;\n        _operatorApprovals[_owner][ticketsale] = approved;\n        emit ApprovalForAll(_owner, ticketsale, approved);\n    }\n\n    function _transferFromTicket(address from, address to, uint256 tokenId) public {\n        super._transferFrom(from, to, tokenId);\n    }\n\n    // TODO - check for event_id already existed\n    function reserveEventId(address orginizer, string memory jid) public returns(uint256 event_id){\n        _event_id_count.increment();\n        event_id = _event_id_count.current();\n      //  eventsales[event_id] = msg.sender;\n        eventsales[event_id].push(msg.sender);\n        retailers[msg.sender] = orginizer;\n        JIDs[event_id] = jid;\n        _addMinter(msg.sender);\n        emit EventIdReserved(msg.sender,event_id);\n        emit EventIdReservedHuman(msg.sender,event_id);\n        return event_id;\n    }\n\n    // plug additional sale for selling different types of ticket by one event\n    function plugSale(uint256 event_id, address orginizer) public returns(uint) {\n        address[] memory _sales = eventsales[event_id];\n        address _sale = _sales[0];\n        require(retailers[_sale] == orginizer, \"only orginizer can plug item\");\n        eventsales[event_id].push(msg.sender);\n        uint type_count = getTicketTypeCount(event_id);\n        return type_count;\n    }\n\n    //TODO - return ticketIDs(?)\n    function buyTicket(address buyer, uint256 ticketAmount, uint256 event_id, uint _ticket_type) public{\n        address[] memory _sales = eventsales[event_id];\n        address _sale = _sales[_ticket_type - 1]; // array start from 0\n        require(_sale == msg.sender, \"you should call buyTicket from ticketsale contract\");\n        for (uint256 i = 0; i < ticketAmount; i++ ){\n            _ticket_id_count.increment();\n            uint256 ticket_id = _ticket_id_count.current();\n\n            _mint(buyer,ticket_id);\n            string memory jid = getJidbyEventID(event_id);\n            ticketInfoStorage[ticket_id] = TicketInfo(TicketState.Paid,_ticket_type, jid,_sale);\n            ticketIndex[ticket_id] = ticketIds[event_id].length;\n            ticketIds[event_id].push(ticket_id);\n            // approve for ticketsale (msg.sender = ticketsale)\n          //  approve(msg.sender, ticket_id);\n            setApprovalForEvent(buyer,msg.sender);\n            emit TicketBought(buyer,event_id,ticket_id);\n            emit TicketBoughtHuman(buyer,event_id,ticket_id);\n        }\n\n    }\n\n    // This function is burning tokens.\n    // @deprecated\n    /*\n    function redeemTicket(address owner,uint256 tokenId, uint256 event_id) public{\n        require(eventsales[event_id] == msg.sender, \"caller doesn't match with event_id\");\n        super._burn(owner,tokenId);\n\n       // To prevent a gap in the tokens array, we store the last token in the index of the token to delete, and\n       // then delete the last slot (swap and pop).\n\n\n        uint256 ticket_index = ticketIndex[tokenId];\n        uint256 lastTicketIndex = ticketIds[event_id].length.sub(1);\n\n      //  uint256[] storage ticketIdArray = ticketIds[event_id];\n      //  uint256 lastTicketId = ticketIdArray[lastTicketIndex];\n\n        uint256 lastTicketId = ticketIds[event_id][lastTicketIndex];\n\n\n        ticketIds[event_id][ticket_index] = lastTicketId; // Move the last token to the slot of the to-delete token\n        ticketIndex[lastTicketId] = ticket_index;         // Update the moved token's index\n\n        ticketIds[event_id].length--;  // remove last element in array\n        ticketIndex[tokenId] = 0;\n\n\n    }\n    */\n\n\n     function redeemTicket(address visitor, uint256 tokenId, uint256 event_id) public{\n        address[] memory _sales = eventsales[event_id];\n        TicketInfo memory info = ticketInfoStorage[tokenId];\n        address _sale = _sales[info.ticket_type - 1];\n        require(_sale == msg.sender, \"you should call scan from ticketsale contract\");\n        require(ticketInfoStorage[tokenId].state == TicketState.Paid, \"Ticket state must be Paid\");\n        info.state = TicketState.Fulfilled;\n        ticketInfoStorage[tokenId] = info;\n        emit TicketFulfilled(visitor,event_id,tokenId);\n        emit TicketFulfilledHuman(visitor, event_id,tokenId);\n    }\n\n    function refundTicket(address visitor,uint256 tokenId, uint256 event_id) public returns(bool) {\n        address[] memory _sales = eventsales[event_id];\n        TicketInfo memory info = ticketInfoStorage[tokenId];\n        address _sale = _sales[info.ticket_type - 1];\n        require(_sale == msg.sender, \"you should call refund from ticketsale contract\");\n        // check status\n        TicketState status = getTicketStatus(tokenId);\n        require(status == TicketState.Paid, \"ticket status is not valid\");\n        _transferFromTicket(visitor, msg.sender, tokenId);\n        info.state = TicketState.Cancelled;\n        ticketInfoStorage[tokenId] = info;\n        return true;\n    }\n\n    function getTicketTypeCount(uint256 event_id) public view returns(uint) {\n        address[] memory _sales = eventsales[event_id];\n        uint ticket_type = _sales.length;\n        return ticket_type;\n    }\n\n    function getTicketByOwner(address _owner) public view returns(uint256[] memory) {\n        uint256[] storage tickets = _tokensOfOwner(_owner);\n        return tickets;\n    }\n\n    function getTicketSales(uint256 event_id) public view returns(address[] memory) {\n        address[] memory sales = eventsales[event_id];\n        return sales;\n    }\n\n    function getJidbyEventID(uint256 event_id) public view returns (string memory jid) {\n        jid = JIDs[event_id];\n        return jid;\n    }\n\n    function getJidByTicketId(uint ticket_id) public view returns (string memory jid) {\n        TicketInfo memory info = ticketInfoStorage[ticket_id];\n        jid = info.event_JID;\n        return jid;\n    }\n\n    function getTicketStatus(uint ticket_id) public view returns (TicketState status) {\n        TicketInfo memory info = ticketInfoStorage[ticket_id];\n        status = info.state;\n        return status;\n    }\n}",
  "sourcePath": "/home/jack/ethProjects/MS-Factory/contracts/721/singleton/Ticket721.sol",
  "compiler": {
    "name": "solc",
    "version": "0.5.17+commit.d19bba13.Emscripten.clang"
  },
  "schemaVersion": "3.0.11",
  "updatedAt": "2020-07-17T15:41:46.584Z",
  "devdoc": {
    "methods": {
      "approve(address,uint256)": {
        "details": "Approves another address to transfer the given token ID The zero address indicates there is no approved address. There can only be one approved address per token at a given time. Can only be called by the token owner or an approved operator.",
        "params": {
          "to": "address to be approved for the given token ID",
          "tokenId": "uint256 ID of the token to be approved"
        }
      },
      "balanceOf(address)": {
        "details": "Gets the balance of the specified address.",
        "params": {
          "owner": "address to query the balance of"
        },
        "return": "uint256 representing the amount owned by the passed address"
      },
      "getApproved(uint256)": {
        "details": "Gets the approved address for a token ID, or zero if no address set Reverts if the token ID does not exist.",
        "params": {
          "tokenId": "uint256 ID of the token to query the approval of"
        },
        "return": "address currently approved for the given token ID"
      },
      "isApprovedForAll(address,address)": {
        "details": "Tells whether an operator is approved by a given owner.",
        "params": {
          "operator": "operator address which you want to query the approval of",
          "owner": "owner address which you want to query the approval of"
        },
        "return": "bool whether the given operator is approved by the given owner"
      },
      "mint(address,uint256)": {
        "details": "Function to mint tokens.",
        "params": {
          "to": "The address that will receive the minted token.",
          "tokenId": "The token id to mint."
        },
        "return": "A boolean that indicates if the operation was successful."
      },
      "ownerOf(uint256)": {
        "details": "Gets the owner of the specified token ID.",
        "params": {
          "tokenId": "uint256 ID of the token to query the owner of"
        },
        "return": "address currently marked as the owner of the given token ID"
      },
      "safeMint(address,uint256)": {
        "details": "Function to safely mint tokens.",
        "params": {
          "to": "The address that will receive the minted token.",
          "tokenId": "The token id to mint."
        },
        "return": "A boolean that indicates if the operation was successful."
      },
      "safeMint(address,uint256,bytes)": {
        "details": "Function to safely mint tokens.",
        "params": {
          "_data": "bytes data to send along with a safe transfer check.",
          "to": "The address that will receive the minted token.",
          "tokenId": "The token id to mint."
        },
        "return": "A boolean that indicates if the operation was successful."
      },
      "safeTransferFrom(address,address,uint256)": {
        "details": "Safely transfers the ownership of a given token ID to another address If the target address is a contract, it must implement {IERC721Receiver-onERC721Received}, which is called upon a safe transfer, and return the magic value `bytes4(keccak256(\"onERC721Received(address,address,uint256,bytes)\"))`; otherwise, the transfer is reverted. Requires the msg.sender to be the owner, approved, or operator",
        "params": {
          "from": "current owner of the token",
          "to": "address to receive the ownership of the given token ID",
          "tokenId": "uint256 ID of the token to be transferred"
        }
      },
      "safeTransferFrom(address,address,uint256,bytes)": {
        "details": "Safely transfers the ownership of a given token ID to another address If the target address is a contract, it must implement {IERC721Receiver-onERC721Received}, which is called upon a safe transfer, and return the magic value `bytes4(keccak256(\"onERC721Received(address,address,uint256,bytes)\"))`; otherwise, the transfer is reverted. Requires the _msgSender() to be the owner, approved, or operator",
        "params": {
          "_data": "bytes data to send along with a safe transfer check",
          "from": "current owner of the token",
          "to": "address to receive the ownership of the given token ID",
          "tokenId": "uint256 ID of the token to be transferred"
        }
      },
      "setApprovalForAll(address,bool)": {
        "details": "Sets or unsets the approval of a given operator An operator is allowed to transfer all tokens of the sender on their behalf.",
        "params": {
          "approved": "representing the status of the approval to be set",
          "to": "operator address to set the approval"
        }
      },
      "supportsInterface(bytes4)": {
        "details": "See {IERC165-supportsInterface}.     * Time complexity O(1), guaranteed to always use less than 30 000 gas."
      },
      "tokenByIndex(uint256)": {
        "details": "Gets the token ID at a given index of all the tokens in this contract Reverts if the index is greater or equal to the total number of tokens.",
        "params": {
          "index": "uint256 representing the index to be accessed of the tokens list"
        },
        "return": "uint256 token ID at the given index of the tokens list"
      },
      "tokenOfOwnerByIndex(address,uint256)": {
        "details": "Gets the token ID at a given index of the tokens list of the requested owner.",
        "params": {
          "index": "uint256 representing the index to be accessed of the requested tokens list",
          "owner": "address owning the tokens list to be accessed"
        },
        "return": "uint256 token ID at the given index of the tokens list owned by the requested address"
      },
      "totalSupply()": {
        "details": "Gets the total amount of tokens stored by the contract.",
        "return": "uint256 representing the total amount of tokens"
      },
      "transferFrom(address,address,uint256)": {
        "details": "Transfers the ownership of a given token ID to another address. Usage of this method is discouraged, use {safeTransferFrom} whenever possible. Requires the msg.sender to be the owner, approved, or operator.",
        "params": {
          "from": "current owner of the token",
          "to": "address to receive the ownership of the given token ID",
          "tokenId": "uint256 ID of the token to be transferred"
        }
      }
    }
  },
  "userdoc": {
    "methods": {},
    "notice": "ERC-721 is non-fungible token.  So, each tokenID is a unique ticket Usefull tips: // Mapping from owner to list of owned token IDs mapping(address => uint256[]) private _ownedTokens; // Mapping from token ID to index of the owner tokens list mapping(uint256 => uint256) private _ownedTokensIndex; // Array with all token ids, used for enumeration uint256[] private _allTokens; // Mapping from token id to position in the allTokens array mapping(uint256 => uint256) private _allTokensIndex; Gets the list of token IDs of the requested owner. function _tokensOfOwner(address owner) internal view returns (uint256[] storage) { return _ownedTokens[owner]; }*"
  }
}