{
  "contractName": "TicketSale721",
  "abi": [
    {
      "inputs": [
        {
          "internalType": "uint256",
          "name": "rate",
          "type": "uint256"
        },
        {
          "internalType": "address payable",
          "name": "wallet",
          "type": "address"
        },
        {
          "internalType": "contract Ticket721",
          "name": "token",
          "type": "address"
        },
        {
          "internalType": "uint256",
          "name": "sale_limit",
          "type": "uint256"
        }
      ],
      "payable": false,
      "stateMutability": "nonpayable",
      "type": "constructor"
    },
    {
      "anonymous": false,
      "inputs": [
        {
          "indexed": true,
          "internalType": "address",
          "name": "purchaser",
          "type": "address"
        },
        {
          "indexed": true,
          "internalType": "address",
          "name": "beneficiary",
          "type": "address"
        },
        {
          "indexed": false,
          "internalType": "uint256",
          "name": "value",
          "type": "uint256"
        },
        {
          "indexed": false,
          "internalType": "uint256",
          "name": "amount",
          "type": "uint256"
        }
      ],
      "name": "TokensPurchased",
      "type": "event"
    },
    {
      "payable": true,
      "stateMutability": "payable",
      "type": "fallback"
    },
    {
      "constant": true,
      "inputs": [],
      "name": "_event_id",
      "outputs": [
        {
          "internalType": "uint256",
          "name": "",
          "type": "uint256"
        }
      ],
      "payable": false,
      "stateMutability": "view",
      "type": "function"
    },
    {
      "constant": true,
      "inputs": [],
      "name": "_sold_count",
      "outputs": [
        {
          "internalType": "uint256",
          "name": "",
          "type": "uint256"
        }
      ],
      "payable": false,
      "stateMutability": "view",
      "type": "function"
    },
    {
      "constant": true,
      "inputs": [],
      "name": "_ticket_type",
      "outputs": [
        {
          "internalType": "uint256",
          "name": "",
          "type": "uint256"
        }
      ],
      "payable": false,
      "stateMutability": "view",
      "type": "function"
    },
    {
      "constant": true,
      "inputs": [],
      "name": "_token",
      "outputs": [
        {
          "internalType": "contract Ticket721",
          "name": "",
          "type": "address"
        }
      ],
      "payable": false,
      "stateMutability": "view",
      "type": "function"
    },
    {
      "constant": true,
      "inputs": [],
      "name": "_wallet",
      "outputs": [
        {
          "internalType": "address payable",
          "name": "",
          "type": "address"
        }
      ],
      "payable": false,
      "stateMutability": "view",
      "type": "function"
    },
    {
      "constant": false,
      "inputs": [
        {
          "internalType": "address",
          "name": "beneficiary",
          "type": "address"
        }
      ],
      "name": "buyTokens",
      "outputs": [],
      "payable": true,
      "stateMutability": "payable",
      "type": "function"
    },
    {
      "constant": true,
      "inputs": [],
      "name": "event_id",
      "outputs": [
        {
          "internalType": "uint256",
          "name": "",
          "type": "uint256"
        }
      ],
      "payable": false,
      "stateMutability": "view",
      "type": "function"
    },
    {
      "constant": true,
      "inputs": [],
      "name": "rate",
      "outputs": [
        {
          "internalType": "uint256",
          "name": "",
          "type": "uint256"
        }
      ],
      "payable": false,
      "stateMutability": "view",
      "type": "function"
    },
    {
      "constant": true,
      "inputs": [],
      "name": "sale_limit",
      "outputs": [
        {
          "internalType": "uint256",
          "name": "",
          "type": "uint256"
        }
      ],
      "payable": false,
      "stateMutability": "view",
      "type": "function"
    },
    {
      "constant": true,
      "inputs": [],
      "name": "token",
      "outputs": [
        {
          "internalType": "contract Ticket721",
          "name": "",
          "type": "address"
        }
      ],
      "payable": false,
      "stateMutability": "view",
      "type": "function"
    },
    {
      "constant": true,
      "inputs": [],
      "name": "wallet",
      "outputs": [
        {
          "internalType": "address payable",
          "name": "",
          "type": "address"
        }
      ],
      "payable": false,
      "stateMutability": "view",
      "type": "function"
    },
    {
      "constant": true,
      "inputs": [],
      "name": "weiRaised",
      "outputs": [
        {
          "internalType": "uint256",
          "name": "",
          "type": "uint256"
        }
      ],
      "payable": false,
      "stateMutability": "view",
      "type": "function"
    },
    {
      "constant": false,
      "inputs": [
        {
          "internalType": "address",
          "name": "buyer",
          "type": "address"
        }
      ],
      "name": "buyTicket",
      "outputs": [],
      "payable": true,
      "stateMutability": "payable",
      "type": "function"
    },
    {
      "constant": false,
      "inputs": [
        {
          "internalType": "address",
          "name": "visitor",
          "type": "address"
        },
        {
          "internalType": "uint256",
          "name": "token_id",
          "type": "uint256"
        }
      ],
      "name": "redeemTicket",
      "outputs": [],
      "payable": false,
      "stateMutability": "nonpayable",
      "type": "function"
    }
  ],
  "bytecode": "0x60806040526000600255600060045534801561001a57600080fd5b506040516110483803806110488339818101604052608081101561003d57600080fd5b81019080805190602001909291908051906020019092919080519060200190929190805190602001909291905050508383838360016000806101000a81548160ff02191690831515021790555060008411610100576040517f08c379a00000000000000000000000000000000000000000000000000000000081526004018080602001828103825260148152602001807f43726f776473616c653a2072617465206973203000000000000000000000000081525060200191505060405180910390fd5b600073ffffffffffffffffffffffffffffffffffffffff168373ffffffffffffffffffffffffffffffffffffffff161415610186576040517f08c379a00000000000000000000000000000000000000000000000000000000081526004018080602001828103825260258152602001806110236025913960400191505060405180910390fd5b600073ffffffffffffffffffffffffffffffffffffffff168273ffffffffffffffffffffffffffffffffffffffff16141561020c576040517f08c379a0000000000000000000000000000000000000000000000000000000008152600401808060200182810382526024815260200180610fff6024913960400191505060405180910390fd5b8360068190555082600560006101000a81548173ffffffffffffffffffffffffffffffffffffffff021916908373ffffffffffffffffffffffffffffffffffffffff16021790555081600060016101000a81548173ffffffffffffffffffffffffffffffffffffffff021916908373ffffffffffffffffffffffffffffffffffffffff16021790555080600381905550600060019054906101000a900473ffffffffffffffffffffffffffffffffffffffff1673ffffffffffffffffffffffffffffffffffffffff16634c0eb465600560009054906101000a900473ffffffffffffffffffffffffffffffffffffffff166040518263ffffffff1660e01b8152600401808273ffffffffffffffffffffffffffffffffffffffff1673ffffffffffffffffffffffffffffffffffffffff168152602001915050602060405180830381600087803b15801561035f57600080fd5b505af1158015610373573d6000803e3d6000fd5b505050506040513d602081101561038957600080fd5b81019080805190602001909291905050506001819055505050505050505050610c48806103b76000396000f3fe6080604052600436106100dd5760003560e01c806391039dee1161007f578063ecd0c0c311610059578063ecd0c0c314610357578063f00a93d3146103ae578063f9cfe26b146103d9578063fc0c546a14610404576100dd565b806391039dee146102a4578063a5f8cdbb146102cf578063ec8ac4d814610313576100dd565b8063521eb273116100bb578063521eb27314610170578063610757e4146101c75780636c1e81e31461021e5780636ed08ea014610279576100dd565b806323e6f340146100ef5780632c4e722e1461011a5780634042b66f14610145575b6100ed6100e861045b565b610463565b005b3480156100fb57600080fd5b5061010461046f565b6040518082815260200191505060405180910390f35b34801561012657600080fd5b5061012f610475565b6040518082815260200191505060405180910390f35b34801561015157600080fd5b5061015a61047f565b6040518082815260200191505060405180910390f35b34801561017c57600080fd5b50610185610489565b604051808273ffffffffffffffffffffffffffffffffffffffff1673ffffffffffffffffffffffffffffffffffffffff16815260200191505060405180910390f35b3480156101d357600080fd5b506101dc6104b3565b604051808273ffffffffffffffffffffffffffffffffffffffff1673ffffffffffffffffffffffffffffffffffffffff16815260200191505060405180910390f35b34801561022a57600080fd5b506102776004803603604081101561024157600080fd5b81019080803573ffffffffffffffffffffffffffffffffffffffff169060200190929190803590602001909291905050506104d9565b005b34801561028557600080fd5b5061028e61059e565b6040518082815260200191505060405180910390f35b3480156102b057600080fd5b506102b96105a4565b6040518082815260200191505060405180910390f35b610311600480360360208110156102e557600080fd5b81019080803573ffffffffffffffffffffffffffffffffffffffff169060200190929190505050610463565b005b6103556004803603602081101561032957600080fd5b81019080803573ffffffffffffffffffffffffffffffffffffffff1690602001909291905050506105ae565b005b34801561036357600080fd5b5061036c610755565b604051808273ffffffffffffffffffffffffffffffffffffffff1673ffffffffffffffffffffffffffffffffffffffff16815260200191505060405180910390f35b3480156103ba57600080fd5b506103c361077b565b6040518082815260200191505060405180910390f35b3480156103e557600080fd5b506103ee61078a565b6040518082815260200191505060405180910390f35b34801561041057600080fd5b50610419610790565b604051808273ffffffffffffffffffffffffffffffffffffffff1673ffffffffffffffffffffffffffffffffffffffff16815260200191505060405180910390f35b600033905090565b61046c816105ae565b50565b60025481565b6000600654905090565b6000600754905090565b6000600560009054906101000a900473ffffffffffffffffffffffffffffffffffffffff16905090565b600560009054906101000a900473ffffffffffffffffffffffffffffffffffffffff1681565b60006104e3610790565b905060006104ef6105a4565b90508173ffffffffffffffffffffffffffffffffffffffff1663a27c282e8585846040518463ffffffff1660e01b8152600401808473ffffffffffffffffffffffffffffffffffffffff1673ffffffffffffffffffffffffffffffffffffffff1681526020018381526020018281526020019350505050600060405180830381600087803b15801561058057600080fd5b505af1158015610594573d6000803e3d6000fd5b5050505050505050565b60015481565b6000600154905090565b6000809054906101000a900460ff1661062f576040517f08c379a000000000000000000000000000000000000000000000000000000000815260040180806020018281038252601f8152602001807f5265656e7472616e637947756172643a207265656e7472616e742063616c6c0081525060200191505060405180910390fd5b60008060006101000a81548160ff02191690831515021790555060003490506000610659826107b9565b905061066683838361084a565b61067b826007546109b190919063ffffffff16565b600781905550610696816004546109b190919063ffffffff16565b6004819055506106a68382610a39565b8273ffffffffffffffffffffffffffffffffffffffff166106c561045b565b73ffffffffffffffffffffffffffffffffffffffff167f6faf93231a456e552dbc9961f58d9713ee4f2e69d15f1975b050ef0911053a7b8484604051808381526020018281526020019250505060405180910390a36107248383610a47565b61072c610a4b565b6107368383610ab6565b505060016000806101000a81548160ff02191690831515021790555050565b600060019054906101000a900473ffffffffffffffffffffffffffffffffffffffff1681565b600061078561077b565b905090565b60045481565b60008060019054906101000a900473ffffffffffffffffffffffffffffffffffffffff16905090565b6000600654821015610816576040517f08c379a000000000000000000000000000000000000000000000000000000000815260040180806020018281038252602c815260200180610be8602c913960400191505060405180910390fd5b6000670de0b6b3a76400006006548161082b57fe5b04670de0b6b3a7640000848161083d57fe5b0402905080915050919050565b600073ffffffffffffffffffffffffffffffffffffffff168373ffffffffffffffffffffffffffffffffffffffff1614156108d0576040517f08c379a000000000000000000000000000000000000000000000000000000000815260040180806020018281038252602a815260200180610bbe602a913960400191505060405180910390fd5b6000821415610947576040517f08c379a00000000000000000000000000000000000000000000000000000000081526004018080602001828103825260198152602001807f43726f776473616c653a20776569416d6f756e7420697320300000000000000081525060200191505060405180910390fd5b6000816004540190506003548111156109ab576040517f08c379a000000000000000000000000000000000000000000000000000000000815260040180806020018281038252602a815260200180610b94602a913960400191505060405180910390fd5b50505050565b600080828401905083811015610a2f576040517f08c379a000000000000000000000000000000000000000000000000000000000815260040180806020018281038252601b8152602001807f536166654d6174683a206164646974696f6e206f766572666c6f77000000000081525060200191505060405180910390fd5b8091505092915050565b610a438282610aba565b5050565b5050565b600560009054906101000a900473ffffffffffffffffffffffffffffffffffffffff1673ffffffffffffffffffffffffffffffffffffffff166108fc349081150290604051600060405180830381858888f19350505050158015610ab3573d6000803e3d6000fd5b50565b5050565b600060019054906101000a900473ffffffffffffffffffffffffffffffffffffffff1673ffffffffffffffffffffffffffffffffffffffff1663cd3a15f883836001546002546040518563ffffffff1660e01b8152600401808573ffffffffffffffffffffffffffffffffffffffff1673ffffffffffffffffffffffffffffffffffffffff168152602001848152602001838152602001828152602001945050505050600060405180830381600087803b158015610b7757600080fd5b505af1158015610b8b573d6000803e3d6000fd5b50505050505056fe746f6b656e7320616d6f756e742073686f756c64206e6f74206578636565642073616c655f6c696d697443726f776473616c653a2062656e656669636961727920697320746865207a65726f206164647265737377656920616d6f756e742073686f756c6420626520626967676572206f7220657175616c206f662072617465a265627a7a72315820125a6663fb3f62c6a9c2dee057e5a38856fbd1c14854aa73b4536f3d81481f5a64736f6c6343000511003243726f776473616c653a20746f6b656e20697320746865207a65726f206164647265737343726f776473616c653a2077616c6c657420697320746865207a65726f2061646472657373",
  "source": "pragma solidity ^0.5.11;\n\nimport './TokenSale721.sol';\nimport './Ticket721.sol';\n\ncontract TicketSale721 is TokenSale721 {\n\n\n\nconstructor(uint256 rate, address payable wallet, Ticket721 token, uint sale_limit) TokenSale721(rate,wallet,token, sale_limit) public {}\n\n\n/**\n*\n* @dev overload buy token function to give allowance to reedem tickets \n*\n*\n*/\nfunction buyTicket(address buyer) public payable {\n    super.buyTokens(buyer);\n    //Ticket721 ticket_token = super.token();\n   // super._token.approve(_wallet,tokens);\n\n    // chek this one more time\n    //ticket_token.setApprovalForEvent(buyer,);\n\n}\n\n// fallback\nfunction() external payable {\n        buyTicket(_msgSender());\n    }\n\n// deprecated\n/*\nfunction redeemTicket(address visitor, uint256 token_id) public {\n    Ticket721 ticket_token = super.token();\n    uint256 event_id = super.event_id();\n    ticket_token.redeemTicket(visitor, token_id, event_id);\n}\n*/\n\nfunction redeemTicket(address visitor, uint256 token_id) public {\n    Ticket721 ticket_token = super.token();\n    uint256 event_id = super.event_id();\n    ticket_token.redeemTicket(visitor, token_id, event_id);\n}\n\n\n\n}",
  "sourcePath": "/home/jack/ethProjects/MS-Factory/contracts/721/singleton/TicketSale721.sol",
  "compiler": {
    "name": "solc",
    "version": "0.5.17+commit.d19bba13.Emscripten.clang"
  },
  "schemaVersion": "3.0.11",
  "updatedAt": "2020-03-31T13:10:47.944Z",
  "devdoc": {
    "methods": {
      "buyTicket(address)": {
        "details": "overload buy token function to give allowance to reedem tickets  *"
      },
      "buyTokens(address)": {
        "details": "low level token purchase ***DO NOT OVERRIDE*** This function has a non-reentrancy guard, so it shouldn't be called by another `nonReentrant` function.",
        "params": {
          "beneficiary": "Recipient of the token purchase"
        }
      },
      "rate()": {
        "return": "the number of token units a buyer gets per wei."
      },
      "token()": {
        "return": "the token being sold."
      },
      "wallet()": {
        "return": "the address where funds are collected."
      },
      "weiRaised()": {
        "return": "the amount of wei raised."
      }
    }
  },
  "userdoc": {
    "methods": {}
  }
}