{
  "contractName": "TicketFactory721",
  "abi": [
    {
      "inputs": [
        {
          "internalType": "address",
          "name": "_ticket",
          "type": "address"
        },
        {
          "internalType": "address payable",
          "name": "_treasure_fund",
          "type": "address"
        }
      ],
      "payable": false,
      "stateMutability": "nonpayable",
      "type": "constructor"
    },
    {
      "anonymous": false,
      "inputs": [
        {
          "indexed": true,
          "internalType": "address",
          "name": "organizer",
          "type": "address"
        },
        {
          "indexed": true,
          "internalType": "address",
          "name": "orginal_sale",
          "type": "address"
        },
        {
          "indexed": true,
          "internalType": "uint256",
          "name": "event_id",
          "type": "uint256"
        }
      ],
      "name": "PluggedSale",
      "type": "event"
    },
    {
      "anonymous": false,
      "inputs": [
        {
          "indexed": false,
          "internalType": "address",
          "name": "organizer",
          "type": "address"
        },
        {
          "indexed": false,
          "internalType": "address",
          "name": "original_sale",
          "type": "address"
        },
        {
          "indexed": false,
          "internalType": "uint256",
          "name": "event_id",
          "type": "uint256"
        },
        {
          "indexed": false,
          "internalType": "uint256",
          "name": "ticket_type",
          "type": "uint256"
        }
      ],
      "name": "PluggedSaleHuman",
      "type": "event"
    },
    {
      "anonymous": false,
      "inputs": [
        {
          "indexed": true,
          "internalType": "address",
          "name": "organizer",
          "type": "address"
        },
        {
          "indexed": false,
          "internalType": "uint256",
          "name": "price",
          "type": "uint256"
        },
        {
          "indexed": true,
          "internalType": "uint256",
          "name": "event_id",
          "type": "uint256"
        },
        {
          "indexed": true,
          "internalType": "string",
          "name": "event_JID",
          "type": "string"
        }
      ],
      "name": "SaleCreated",
      "type": "event"
    },
    {
      "anonymous": false,
      "inputs": [
        {
          "indexed": false,
          "internalType": "address",
          "name": "organizer",
          "type": "address"
        },
        {
          "indexed": false,
          "internalType": "uint256",
          "name": "price",
          "type": "uint256"
        },
        {
          "indexed": false,
          "internalType": "uint256",
          "name": "event_id",
          "type": "uint256"
        },
        {
          "indexed": false,
          "internalType": "string",
          "name": "event_JID",
          "type": "string"
        },
        {
          "indexed": false,
          "internalType": "uint256",
          "name": "ticket_type",
          "type": "uint256"
        }
      ],
      "name": "SaleCreatedHuman",
      "type": "event"
    },
    {
      "constant": false,
      "inputs": [
        {
          "internalType": "address payable",
          "name": "organizer",
          "type": "address"
        },
        {
          "internalType": "uint256",
          "name": "price",
          "type": "uint256"
        },
        {
          "internalType": "string",
          "name": "event_JID",
          "type": "string"
        },
        {
          "internalType": "uint256",
          "name": "sale_limit",
          "type": "uint256"
        },
        {
          "internalType": "uint256",
          "name": "timeToStart",
          "type": "uint256"
        }
      ],
      "name": "createTicketSale",
      "outputs": [
        {
          "internalType": "address payable",
          "name": "ticket_sale_adr",
          "type": "address"
        },
        {
          "internalType": "uint256",
          "name": "event_id",
          "type": "uint256"
        }
      ],
      "payable": false,
      "stateMutability": "nonpayable",
      "type": "function"
    },
    {
      "constant": false,
      "inputs": [
        {
          "internalType": "address payable",
          "name": "origin_sale",
          "type": "address"
        },
        {
          "internalType": "uint256",
          "name": "price",
          "type": "uint256"
        },
        {
          "internalType": "uint256",
          "name": "_sale_limit",
          "type": "uint256"
        }
      ],
      "name": "PlugInTicketSale",
      "outputs": [
        {
          "internalType": "address payable",
          "name": "plugin_sale",
          "type": "address"
        }
      ],
      "payable": false,
      "stateMutability": "nonpayable",
      "type": "function"
    },
    {
      "constant": true,
      "inputs": [
        {
          "internalType": "string",
          "name": "JID",
          "type": "string"
        }
      ],
      "name": "getEventIdByJid",
      "outputs": [
        {
          "internalType": "uint256",
          "name": "",
          "type": "uint256"
        }
      ],
      "payable": false,
      "stateMutability": "view",
      "type": "function"
    },
    {
      "constant": true,
      "inputs": [],
      "name": "getTicketTemplateAddress",
      "outputs": [
        {
          "internalType": "address",
          "name": "",
          "type": "address"
        }
      ],
      "payable": false,
      "stateMutability": "view",
      "type": "function"
    }
  ],
  "bytecode": "0x608060405234801561001057600080fd5b50604051612f44380380612f448339818101604052604081101561003357600080fd5b508051602090910151600080546001600160a01b039384166001600160a01b03199182161790915560018054939092169216919091179055612eca8061007a6000396000f3fe608060405234801561001057600080fd5b506004361061004c5760003560e01c80632168d20e14610051578063722b58171461009f578063723b897b146100a7578063b99238931461018a575b600080fd5b6100836004803603606081101561006757600080fd5b506001600160a01b038135169060208101359060400135610242565b604080516001600160a01b039092168252519081900360200190f35b61008361042d565b610167600480360360a08110156100bd57600080fd5b6001600160a01b03823516916020810135918101906060810160408201356401000000008111156100ed57600080fd5b8201836020820111156100ff57600080fd5b8035906020019184600183028401116401000000008311171561012157600080fd5b91908080601f016020809104026020016040519081016040528093929190818152602001838380828437600092019190915250929550508235935050506020013561043c565b604080516001600160a01b03909316835260208301919091528051918290030190f35b610230600480360360208110156101a057600080fd5b8101906020810181356401000000008111156101bb57600080fd5b8201836020820111156101cd57600080fd5b803590602001918460018302840111640100000000831117156101ef57600080fd5b91908080601f0160208091040260200160405190810160405280939291908181526020018383808284376000920191909152509295506107ba945050505050565b60408051918252519081900360200190f35b60008061024e84610822565b9050808584600160009054906101000a90046001600160a01b03166040516102759061095a565b9384526001600160a01b03928316602085015260408085019290925290911660608301525190819003608001906000f0801580156102b7573d6000803e3d6000fd5b50915060008290506000816001600160a01b03166391039dee6040518163ffffffff1660e01b815260040160206040518083038186803b1580156102fa57600080fd5b505afa15801561030e573d6000803e3d6000fd5b505050506040513d602081101561032457600080fd5b50516040805163fbbdc46560e01b815290519192506000916001600160a01b0385169163fbbdc465916004808301926020929190829003018186803b15801561036c57600080fd5b505afa158015610380573d6000803e3d6000fd5b505050506040513d602081101561039657600080fd5b505160405190915082906001600160a01b038a169033907f80ea680f0864b200472457d5e9db6c7ab4390228ca763e8159260f99ff4c07e490600090a4604080513381526001600160a01b038a1660208201528082018490526060810183905290517f842f53ee085ffb3e94c2cdd4376dd879b170ba013b0f22dcc95e9ba6596fbbce9181900360800190a1505050509392505050565b6000546001600160a01b031690565b60008054604051855183926001600160a01b031691600291889190819060208401908083835b602083106104815780518252601f199092019160209182019101610462565b51815160209384036101000a60001901801990921691161790529201948552506040519384900301909220541591506104ee90505760405162461bcd60e51b815260040180806020018281038252602681526020018062002e706026913960400191505060405180910390fd5b806104fd898983898b8a61082f565b93506000849050806001600160a01b03166391039dee6040518163ffffffff1660e01b815260040160206040518083038186803b15801561053d57600080fd5b505afa158015610551573d6000803e3d6000fd5b505050506040513d602081101561056757600080fd5b50516040805163fbbdc46560e01b815290519195506000916001600160a01b0384169163fbbdc465916004808301926020929190829003018186803b1580156105af57600080fd5b505afa1580156105c3573d6000803e3d6000fd5b505050506040513d60208110156105d957600080fd5b50516040518a5191925086916002918c91819060208401908083835b602083106106145780518252601f1990920191602091820191016105f5565b51815160209384036101000a600019018019909216911617905292019485525060405193849003810184209490945550508a518b928291908401908083835b602083106106725780518252601f199092019160209182019101610653565b6001836020036101000a0380198251168184511680821785525050505050509050019150506040518091039020858c6001600160a01b03167f87836d9d795936ee8b4b6ffb2c7b7fba245eb618db8294c11e9cf03565afbb408d6040518082815260200191505060405180910390a47f8cf17295cea07172ef627805a194fc701945ac99cb803ae5930490fe2afb45098b8b878c8560405180866001600160a01b03166001600160a01b0316815260200185815260200184815260200180602001838152602001828103825284818151815260200191508051906020019080838360005b8381101561076e578181015183820152602001610756565b50505050905090810190601f16801561079b5780820380516001836020036101000a031916815260200191505b50965050505050505060405180910390a1505050509550959350505050565b60006002826040518082805190602001908083835b602083106107ee5780518252601f1990920191602091820191016107cf565b51815160209384036101000a6000190180199092169116179052920194855250604051938490030190922054949350505050565b670de0b6b3a76400000290565b60008061083b87610822565b90508088878787600160009054906101000a90046001600160a01b03168860405161086590610968565b80888152602001876001600160a01b03166001600160a01b03168152602001866001600160a01b03166001600160a01b0316815260200185815260200180602001846001600160a01b03166001600160a01b03168152602001838152602001828103825285818151815260200191508051906020019080838360005b838110156108f95781810151838201526020016108e1565b50505050905090810190601f1680156109265780820380516001836020036101000a031916815260200191505b5098505050505050505050604051809103906000f08015801561094d573d6000803e3d6000fd5b5098975050505050505050565b611049806200097783390190565b6114b080620019c08339019056fe608060405260006005556005600a5534801561001a57600080fd5b506040516110493803806110498339818101604052608081101561003d57600080fd5b508051602082015160408301516060909301516000805460ff191660011790559192909183838383836100b7576040805162461bcd60e51b815260206004820152601460248201527f43726f776473616c653a20726174652069732030000000000000000000000000604482015290519081900360640190fd5b6001600160a01b038316610112576040805162461bcd60e51b815260206004820152601d60248201527f6f726967696e2063616e6e6f74206265207a65726f2061646472657373000000604482015290519081900360640190fd5b600180546001600160a01b0319166001600160a01b0385811691909117918290556040805163521eb27360e01b81529051929091169163521eb27391600480820192602092909190829003018186803b15801561016e57600080fd5b505afa158015610182573d6000803e3d6000fd5b505050506040513d602081101561019857600080fd5b5051600680546001600160a01b03199081166001600160a01b0393841617909155600780549091168383161790556008859055670de0b6b3a76400008302600490815560015460408051637e062a3560e11b81529051919093169263fc0c546a9281810192602092909190829003018186803b15801561021757600080fd5b505afa15801561022b573d6000803e3d6000fd5b505050506040513d602081101561024157600080fd5b505160008054610100600160a81b0319166101006001600160a01b039384160217905560015460408051634881cef760e11b8152905191909216916391039dee916004808301926020929190829003018186803b1580156102a157600080fd5b505afa1580156102b5573d6000803e3d6000fd5b505050506040513d60208110156102cb57600080fd5b505160028190556000805460065460408051630645c0fb60e41b815260048101959095526001600160a01b03918216602486015251610100909204169263645c0fb09260448083019360209390929083900390910190829087803b15801561033257600080fd5b505af1158015610346573d6000803e3d6000fd5b505050506040513d602081101561035c57600080fd5b50516003555050505050505050610cd1806103786000396000f3fe6080604052600436106101145760003560e01c8063a8253cac116100a0578063f00a93d311610064578063f00a93d3146102c0578063f9a4bb1e146102d5578063f9cfe26b146102ea578063fbbdc465146102ff578063fc0c546a1461031457610114565b8063a8253cac14610246578063e27920a81461025b578063e61d959414610270578063ec8ac4d814610285578063ecd0c0c3146102ab57610114565b8063610757e4116100e7578063610757e4146101a85780636c1e81e3146101bd5780636ed08ea0146101f657806391039dee1461020b578063a5f8cdbb1461022057610114565b80632c4e722e146101265780634042b66f1461014d57806341035a4114610162578063521eb27314610193575b61012461011f610329565b61032d565b005b34801561013257600080fd5b5061013b610339565b60408051918252519081900360200190f35b34801561015957600080fd5b5061013b61033f565b34801561016e57600080fd5b50610177610345565b604080516001600160a01b039092168252519081900360200190f35b34801561019f57600080fd5b50610177610354565b3480156101b457600080fd5b50610177610363565b3480156101c957600080fd5b50610124600480360360408110156101e057600080fd5b506001600160a01b038135169060200135610372565b34801561020257600080fd5b5061013b61041a565b34801561021757600080fd5b5061013b610420565b6101246004803603602081101561023657600080fd5b50356001600160a01b031661032d565b34801561025257600080fd5b5061013b610426565b34801561026757600080fd5b5061013b610439565b34801561027c57600080fd5b5061013b61043f565b6101246004803603602081101561029b57600080fd5b50356001600160a01b0316610445565b3480156102b757600080fd5b5061017761057c565b3480156102cc57600080fd5b5061013b610590565b3480156102e157600080fd5b50610177610596565b3480156102f657600080fd5b5061013b6105a5565b34801561030b57600080fd5b5061013b6105ab565b34801561032057600080fd5b506101776105b1565b3390565b61033681610445565b50565b60085490565b60095490565b6001546001600160a01b031681565b6006546001600160a01b031690565b6006546001600160a01b031681565b600061037c6105b1565b90506000610388610420565b9050816001600160a01b031663a27c282e8585846040518463ffffffff1660e01b815260040180846001600160a01b03166001600160a01b031681526020018381526020018281526020019350505050600060405180830381600087803b1580156103f257600080fd5b505af1158015610406573d6000803e3d6000fd5b50505050610414600b6105c5565b50505050565b60025481565b60025490565b600080610433600b6105ce565b91505090565b600a5481565b60055490565b60005460ff1661049c576040805162461bcd60e51b815260206004820152601f60248201527f5265656e7472616e637947756172643a207265656e7472616e742063616c6c00604482015290519081900360640190fd5b6000805460ff1916815534906104b1826105d2565b90506104be838383610645565b6009546104d1908363ffffffff61073816565b6009556005546104e7908263ffffffff61073816565b6005556104f4838261079b565b826001600160a01b0316610506610329565b6001600160a01b03167f6faf93231a456e552dbc9961f58d9713ee4f2e69d15f1975b050ef0911053a7b8484604051808381526020018281526020019250505060405180910390a361055883836107a5565b6105606107a9565b61056a83836107a5565b50506000805460ff1916600117905550565b60005461010090046001600160a01b031681565b60045490565b6007546001600160a01b031681565b60055481565b60035490565b60005461010090046001600160a01b031690565b80546001019055565b5490565b60006008548210156106155760405162461bcd60e51b815260040180806020018281038252602c815260200180610c71602c913960400191505060405180910390fd5b6000670de0b6b3a76400006008548161062a57fe5b04670de0b6b3a764000084048161063d57fe5b049392505050565b6001600160a01b03831661068a5760405162461bcd60e51b815260040180806020018281038252602a815260200180610c47602a913960400191505060405180910390fd5b816106dc576040805162461bcd60e51b815260206004820152601960248201527f43726f776473616c653a20776569416d6f756e74206973203000000000000000604482015290519081900360640190fd5b600554600454670de0b6b3a764000090910290828201908111156107315760405162461bcd60e51b815260040180806020018281038252602a815260200180610bfc602a913960400191505060405180910390fd5b5050505050565b600082820183811015610792576040805162461bcd60e51b815260206004820152601b60248201527f536166654d6174683a206164646974696f6e206f766572666c6f770000000000604482015290519081900360640190fd5b90505b92915050565b6107a582826108ac565b5050565b34606460006107b88383610933565b90508083039250600160009054906101000a90046001600160a01b03166001600160a01b0316635a62f108846040518263ffffffff1660e01b81526004016000604051808303818588803b15801561080f57600080fd5b505af1158015610823573d6000803e3d6000fd5b50506007546040516001600160a01b03909116935084156108fc0292508491506000818181858888f19350505050158015610862573d6000803e3d6000fd5b50604080518481526020810183905282850381830181905291517f8f4705a6d8c5af200050d845b50d0f90f838a179c62b9365daa314992598fc1b9181900360600190a150505050565b60008054600254600354604080516319a742bf60e31b81526001600160a01b0388811660048301526024820188905260448201949094526064810192909252516101009093049091169263cd3a15f89260848084019382900301818387803b15801561091757600080fd5b505af115801561092b573d6000803e3d6000fd5b505050505050565b6000806109408484610a1a565b9050600061094e8585610a5c565b9050600061095e600a5486610a1a565b9050600061096e600a5487610a5c565b9050600061098561097f8685610a9e565b88610a9e565b905060006109938684610a9e565b905060006109a18686610a9e565b905060006109af8786610a9e565b905060006109be8b6002610a1a565b905060006109cc8383610738565b905060006109da828e610a1a565b905060006109e88888610738565b905060006109f68288610738565b90506000610a048285610738565b9e50505050505050505050505050505092915050565b600061079283836040518060400160405280601a81526020017f536166654d6174683a206469766973696f6e206279207a65726f000000000000815250610af7565b600061079283836040518060400160405280601881526020017f536166654d6174683a206d6f64756c6f206279207a65726f0000000000000000815250610b99565b600082610aad57506000610795565b82820282848281610aba57fe5b04146107925760405162461bcd60e51b8152600401808060200182810382526021815260200180610c266021913960400191505060405180910390fd5b60008183610b835760405162461bcd60e51b81526004018080602001828103825283818151815260200191508051906020019080838360005b83811015610b48578181015183820152602001610b30565b50505050905090810190601f168015610b755780820380516001836020036101000a031916815260200191505b509250505060405180910390fd5b506000838581610b8f57fe5b0495945050505050565b60008183610be85760405162461bcd60e51b8152602060048201818152835160248401528351909283926044909101919085019080838360008315610b48578181015183820152602001610b30565b50828481610bf257fe5b0694935050505056fe746f6b656e7320616d6f756e742073686f756c64206e6f74206578636565642073616c655f6c696d6974536166654d6174683a206d756c7469706c69636174696f6e206f766572666c6f7743726f776473616c653a2062656e656669636961727920697320746865207a65726f206164647265737377656920616d6f756e742073686f756c6420626520626967676572206f7220657175616c206f662072617465a265627a7a72315820f14aa4e449fdcdf53bc19a5364292afe47c039dee448e8f0cb7b470ecf354eb164736f6c63430005110032608060405260016002556000600455600560095542600a553480156200002457600080fd5b50604051620014b0380380620014b0833981810160405260e08110156200004a57600080fd5b81516020830151604080850151606086015160808701805193519597949692959194919392820192846401000000008211156200008657600080fd5b9083019060208201858111156200009c57600080fd5b8251640100000000811182820188101715620000b757600080fd5b82525081516020918201929091019080838360005b83811015620000e6578181015183820152602001620000cc565b50505050905090810190601f168015620001145780820380516001836020036101000a031916815260200191505b50604090815260208201519101516000805460ff19166001179055909250905086868686868686866200018e576040805162461bcd60e51b815260206004820152601460248201527f43726f776473616c653a20726174652069732030000000000000000000000000604482015290519081900360640190fd5b6001600160a01b038616620001d55760405162461bcd60e51b81526004018080602001828103825260258152602001806200148b6025913960400191505060405180910390fd5b6001600160a01b0385166200021c5760405162461bcd60e51b8152600401808060200182810382526024815260200180620014676024913960400191505060405180910390fd5b6007879055600580546001600160a01b03199081166001600160a01b038981169190911792839055600680549092168582161790915560008054610100600160a81b031916610100898416810291909117808355670de0b6b3a7640000890260035560408051631440364760e31b815295851660048701818152602488019283528a5160448901528a51949093049095169563a201b23895948a9460649092019160208601918190849084905b83811015620002e3578181015183820152602001620002c9565b50505050905090810190601f168015620003115780820380516001836020036101000a031916815260200191505b509350505050602060405180830381600087803b1580156200033257600080fd5b505af115801562000347573d6000803e3d6000fd5b505050506040513d60208110156200035e57600080fd5b5051600155600b55505050505050505050505050506110e480620003836000396000f3fe6080604052600436106101665760003560e01c8063a5f8cdbb116100d1578063ec8ac4d81161008a578063f9a4bb1e11610064578063f9a4bb1e146103ad578063f9cfe26b146103c2578063fbbdc465146103d7578063fc0c546a146103ec57610166565b8063ec8ac4d81461035d578063ecd0c0c314610383578063f00a93d31461039857610166565b8063a5f8cdbb146102ce578063a8253cac146102f4578063b78da38614610309578063b8afaa481461031e578063e27920a814610333578063e61d95941461034857610166565b80635a62f108116101235780635a62f10814610224578063610757e41461022c5780636c1e81e3146102415780636ed08ea01461027a578063757741001461028f57806391039dee146102b957610166565b806323e6f340146101785780632c4e722e1461019f5780633b13d188146101b45780634042b66f146101c95780634f13dc7e146101de578063521eb273146101f3575b610176610171610401565b610405565b005b34801561018457600080fd5b5061018d610411565b60408051918252519081900360200190f35b3480156101ab57600080fd5b5061018d610417565b3480156101c057600080fd5b5061018d61041d565b3480156101d557600080fd5b5061018d610423565b3480156101ea57600080fd5b5061018d610429565b3480156101ff57600080fd5b5061020861042f565b604080516001600160a01b039092168252519081900360200190f35b61017661043e565b34801561023857600080fd5b506102086104e0565b34801561024d57600080fd5b506101766004803603604081101561026457600080fd5b506001600160a01b0381351690602001356104ef565b34801561028657600080fd5b5061018d610597565b34801561029b57600080fd5b50610176600480360360208110156102b257600080fd5b503561059d565b3480156102c557600080fd5b5061018d61070c565b610176600480360360208110156102e457600080fd5b50356001600160a01b0316610405565b34801561030057600080fd5b5061018d610712565b34801561031557600080fd5b50610176610725565b34801561032a57600080fd5b5061018d610811565b34801561033f57600080fd5b5061018d610817565b34801561035457600080fd5b5061018d61081d565b6101766004803603602081101561037357600080fd5b50356001600160a01b0316610823565b34801561038f57600080fd5b5061020861095a565b3480156103a457600080fd5b5061018d61096e565b3480156103b957600080fd5b50610208610974565b3480156103ce57600080fd5b5061018d610983565b3480156103e357600080fd5b5061018d610989565b3480156103f857600080fd5b5061020861098f565b3390565b61040e81610823565b50565b60025481565b60075490565b600b5481565b60085490565b600a5481565b6005546001600160a01b031690565b346064600061044d83836109a3565b60065460405194829003949192506001600160a01b03169082156108fc029083906000818181858888f1935050505015801561048d573d6000803e3d6000fd5b50604080518483018082526020820184905281830186905291517f8f4705a6d8c5af200050d845b50d0f90f838a179c62b9365daa314992598fc1b9181900360600190a15050600c805490920190915550565b6005546001600160a01b031681565b60006104f961098f565b9050600061050561070c565b9050816001600160a01b031663a27c282e8585846040518463ffffffff1660e01b815260040180846001600160a01b03166001600160a01b031681526020018381526020018281526020019350505050600060405180830381600087803b15801561056f57600080fd5b505af1158015610583573d6000803e3d6000fd5b50505050610591600d610a8b565b50505050565b60015481565b60006105a761098f565b905060006105b361070c565b600b54600a5491925033910342116106bf5760408051632559b76160e21b8152336004820152602481018690526044810184905290516001600160a01b03851691639566dd849160648083019260209291908290030181600087803b15801561061b57600080fd5b505af115801561062f573d6000803e3d6000fd5b505050506040513d602081101561064557600080fd5b50516106825760405162461bcd60e51b8152600401808060200182810382526022815260200180610fed6022913960400191505060405180910390fd5b600061068c610417565b9050670de0b6b3a7640000810460006106a68260646109a3565b905080820391506106b78483610a94565b505050610591565b6040805162461bcd60e51b815260206004820152601860248201527f6576656e7420697320616c726561647920737461727465640000000000000000604482015290519081900360640190fd5b60015490565b60008061071f600d610ae5565b91505090565b6005546001600160a01b03163314610784576040805162461bcd60e51b815260206004820152601960248201527f6f6e6c79206f7267616e61697a65722063616e20646f20697400000000000000604482015290519081900360640190fd5b600b54600a540342106107d857600554600c546040516001600160a01b039092169181156108fc0291906000818181858888f193505050501580156107cd573d6000803e3d6000fd5b506000600c5561080f565b60405162461bcd60e51b815260040180806020018281038252602a815260200180610fc3602a913960400191505060405180910390fd5b565b600c5481565b60095481565b60045490565b60005460ff1661087a576040805162461bcd60e51b815260206004820152601f60248201527f5265656e7472616e637947756172643a207265656e7472616e742063616c6c00604482015290519081900360640190fd5b6000805460ff19168155349061088f82610ae9565b905061089c838383610b5c565b6008546108af908363ffffffff610c4f16565b6008556004546108c5908263ffffffff610c4f16565b6004556108d28382610cb0565b826001600160a01b03166108e4610401565b6001600160a01b03167f6faf93231a456e552dbc9961f58d9713ee4f2e69d15f1975b050ef0911053a7b8484604051808381526020018281526020019250505060405180910390a36109368383610cba565b61093e61043e565b6109488383610cba565b50506000805460ff1916600117905550565b60005461010090046001600160a01b031681565b60035490565b6006546001600160a01b031681565b60045481565b60025490565b60005461010090046001600160a01b031690565b6000806109b08484610cbe565b905060006109be8585610d00565b905060006109ce60095486610cbe565b905060006109de60095487610d00565b905060006109f56109ef8685610d42565b88610d42565b90506000610a038684610d42565b90506000610a118686610d42565b90506000610a1f8786610d42565b90506000610a2e8b6002610cbe565b90506000610a3c8383610c4f565b90506000610a4a828e610cbe565b90506000610a588888610c4f565b90506000610a668288610c4f565b90506000610a748285610c4f565b9e5050505050505050505050505050505b92915050565b80546001019055565b6040516001600160a01b0383169082156108fc029083906000818181858888f19350505050158015610aca573d6000803e3d6000fd5b50600c54610ade908263ffffffff610d9b16565b600c555050565b5490565b6000600754821015610b2c5760405162461bcd60e51b815260040180806020018281038252602c815260200180611084602c913960400191505060405180910390fd5b6000670de0b6b3a764000060075481610b4157fe5b04670de0b6b3a7640000840481610b5457fe5b049392505050565b6001600160a01b038316610ba15760405162461bcd60e51b815260040180806020018281038252602a81526020018061105a602a913960400191505060405180910390fd5b81610bf3576040805162461bcd60e51b815260206004820152601960248201527f43726f776473616c653a20776569416d6f756e74206973203000000000000000604482015290519081900360640190fd5b600454600354670de0b6b3a76400009091029082820190811115610c485760405162461bcd60e51b815260040180806020018281038252602a81526020018061100f602a913960400191505060405180910390fd5b5050505050565b600082820183811015610ca9576040805162461bcd60e51b815260206004820152601b60248201527f536166654d6174683a206164646974696f6e206f766572666c6f770000000000604482015290519081900360640190fd5b9392505050565b610cba8282610ddd565b5050565b6000610ca983836040518060400160405280601a81526020017f536166654d6174683a206469766973696f6e206279207a65726f000000000000815250610e64565b6000610ca983836040518060400160405280601881526020017f536166654d6174683a206d6f64756c6f206279207a65726f0000000000000000815250610f06565b600082610d5157506000610a85565b82820282848281610d5e57fe5b0414610ca95760405162461bcd60e51b81526004018080602001828103825260218152602001806110396021913960400191505060405180910390fd5b6000610ca983836040518060400160405280601e81526020017f536166654d6174683a207375627472616374696f6e206f766572666c6f770000815250610f68565b60008054600154600254604080516319a742bf60e31b81526001600160a01b0388811660048301526024820188905260448201949094526064810192909252516101009093049091169263cd3a15f89260848084019382900301818387803b158015610e4857600080fd5b505af1158015610e5c573d6000803e3d6000fd5b505050505050565b60008183610ef05760405162461bcd60e51b81526004018080602001828103825283818151815260200191508051906020019080838360005b83811015610eb5578181015183820152602001610e9d565b50505050905090810190601f168015610ee25780820380516001836020036101000a031916815260200191505b509250505060405180910390fd5b506000838581610efc57fe5b0495945050505050565b60008183610f555760405162461bcd60e51b8152602060048201818152835160248401528351909283926044909101919085019080838360008315610eb5578181015183820152602001610e9d565b50828481610f5f57fe5b06949350505050565b60008184841115610fba5760405162461bcd60e51b8152602060048201818152835160248401528351909283926044909101919085019080838360008315610eb5578181015183820152602001610e9d565b50505090039056fe6576656e74206973206e6f742073746172746564207965742c2066756e647320617265206c6f636b656463616e277420726566756e64207469636b65742066726f6d205469636b6574373231746f6b656e7320616d6f756e742073686f756c64206e6f74206578636565642073616c655f6c696d6974536166654d6174683a206d756c7469706c69636174696f6e206f766572666c6f7743726f776473616c653a2062656e656669636961727920697320746865207a65726f206164647265737377656920616d6f756e742073686f756c6420626520626967676572206f7220657175616c206f662072617465a265627a7a72315820f83f9f9e268e77ab50e898a24a3eefe7c1f02c81fab0c19d0d1fd58d7a34404964736f6c6343000511003243726f776473616c653a20746f6b656e20697320746865207a65726f206164647265737343726f776473616c653a2077616c6c657420697320746865207a65726f206164647265737373616c6520776974682074686973204a494420697320616c7265616479206372656174656421a265627a7a72315820cb8fe59bb230263dca74bf945ef6f88681925ed432ec68dcf098df73b886276f64736f6c63430005110032",
  "source": "pragma solidity ^0.5.11;\n\n//import './zeppeline/token/ERC20/ERC20Mintable.sol';\n\n// TODO: replace contracts to interfaces cause of gas limit\n// FIXME: this contract required for 7m gas limit -- which is more than standart 6m in ethereum networks. We should consider that when deployment\n\nimport './Ticket721.sol';\nimport './TicketSale721.sol';\nimport './TicketSalePluggable.sol';\n\n\n\ncontract TicketFactory721 {\n\n// constant\naddress ticket_template;\n\naddress payable treasure_fund;\n\n// event\nevent SaleCreated(address indexed organizer, uint price, uint256 indexed event_id, string indexed event_JID);\nevent SaleCreatedHuman(address organizer, uint price, uint256 event_id, string event_JID, uint ticket_type);\nevent PluggedSale(address indexed organizer, address indexed orginal_sale, uint256 indexed event_id);\nevent PluggedSaleHuman(address organizer, address original_sale, uint256 event_id, uint ticket_type);\n\n// mapping from JID to event_id\nmapping (string => uint256) events_jids;\n\n\nconstructor(address _ticket, address payable _treasure_fund) public {\n   // ticket_template = createTicket721();\n   ticket_template = _ticket;\n   treasure_fund = _treasure_fund;\n}\n\n\nfunction createTicket721() internal returns (address ticket_address) {\n //  address factory_address = address(this);\n   ticket_address = address(new Ticket721());\n   return ticket_address;\n}\n\n\nfunction createTicketSale721(address payable organizer, uint price, Ticket721 token,uint sale_limit, string memory jid,uint timeToStart) internal returns(address payable ticket_sale) {\n    // calculate price\n    uint256 cena = calculateRate(price);\n\n    ticket_sale = address(new TicketSale721(cena, organizer, token, sale_limit, jid,treasure_fund, timeToStart));\n    return ticket_sale;\n}\n\nfunction createTicketSale(address payable organizer, uint price, string memory event_JID, uint sale_limit, uint timeToStart) public returns (address payable ticket_sale_adr, uint256 event_id) {\n\n    address ticket_adr = ticket_template;\n    require(events_jids[event_JID] == 0, \"sale with this JID is already created!\");\n    Ticket721 ticket = Ticket721(ticket_adr);\n    ticket_sale_adr = createTicketSale721(organizer, price, ticket,sale_limit, event_JID, timeToStart);\n    TicketSale721 ticket_sale = TicketSale721(ticket_sale_adr);\n\n    event_id = ticket_sale.event_id();\n    uint ticket_type = ticket_sale.ticket_type();\n    events_jids[event_JID] = event_id;\n    emit SaleCreated(organizer, price, event_id, event_JID);\n    emit SaleCreatedHuman(organizer,price,event_id, event_JID, ticket_type);\n    return(ticket_sale_adr, event_id);\n\n\n}\n\n\nfunction PlugInTicketSale(address payable origin_sale, uint price, uint _sale_limit) public returns(address payable plugin_sale) {\n    uint cena = calculateRate(price);\n    plugin_sale = address(new TicketSalePluggable(cena,origin_sale, _sale_limit,treasure_fund));\n    //TicketSale721 ticket_sale = TicketSale721(origin_sale);\n    TicketSalePluggable plugin_sale_instance = TicketSalePluggable(plugin_sale);\n    uint256 event_id = plugin_sale_instance.event_id();\n    uint ticket_type = plugin_sale_instance.ticket_type();\n    emit PluggedSale(msg.sender,origin_sale,event_id);\n    emit PluggedSaleHuman(msg.sender, origin_sale, event_id, ticket_type);\n    return plugin_sale;\n}\n\nfunction calculateRate (uint256 price) internal pure returns (uint256 rate_p) {\n    // rate = price * 1 eth\n    rate_p = price * (1 ether); // override for price determinition\n    return rate_p;\n}\n\n\nfunction getEventIdByJid(string memory JID) public view returns(uint256) {\n    return events_jids[JID];\n}\n\nfunction getTicketTemplateAddress() public view returns(address) {\n    return ticket_template;\n}\n\n}",
  "sourcePath": "/home/jack/ethProjects/MS-Factory/contracts/721/singleton/TicketFactory721.sol",
  "compiler": {
    "name": "solc",
    "version": "0.5.17+commit.d19bba13.Emscripten.clang"
  },
  "schemaVersion": "3.0.11",
  "updatedAt": "2020-07-17T15:41:46.593Z",
  "devdoc": {
    "methods": {}
  },
  "userdoc": {
    "methods": {}
  }
}