{
  "contractName": "Ticket721",
  "abi": [
    {
      "inputs": [
        {
          "internalType": "address",
          "name": "factory_address",
          "type": "address"
        }
      ],
      "payable": false,
      "stateMutability": "nonpayable",
      "type": "constructor"
    },
    {
      "anonymous": false,
      "inputs": [
        {
          "indexed": true,
          "internalType": "address",
          "name": "owner",
          "type": "address"
        },
        {
          "indexed": true,
          "internalType": "address",
          "name": "approved",
          "type": "address"
        },
        {
          "indexed": true,
          "internalType": "uint256",
          "name": "tokenId",
          "type": "uint256"
        }
      ],
      "name": "Approval",
      "type": "event"
    },
    {
      "anonymous": false,
      "inputs": [
        {
          "indexed": true,
          "internalType": "address",
          "name": "owner",
          "type": "address"
        },
        {
          "indexed": true,
          "internalType": "address",
          "name": "operator",
          "type": "address"
        },
        {
          "indexed": false,
          "internalType": "bool",
          "name": "approved",
          "type": "bool"
        }
      ],
      "name": "ApprovalForAll",
      "type": "event"
    },
    {
      "anonymous": false,
      "inputs": [
        {
          "indexed": true,
          "internalType": "address",
          "name": "ticket_sale",
          "type": "address"
        },
        {
          "indexed": true,
          "internalType": "uint256",
          "name": "event_id",
          "type": "uint256"
        }
      ],
      "name": "EventIdReserved",
      "type": "event"
    },
    {
      "anonymous": false,
      "inputs": [
        {
          "indexed": false,
          "internalType": "address",
          "name": "ticket_sale",
          "type": "address"
        },
        {
          "indexed": false,
          "internalType": "uint256",
          "name": "event_id",
          "type": "uint256"
        }
      ],
      "name": "EventIdReservedHuman",
      "type": "event"
    },
    {
      "anonymous": false,
      "inputs": [
        {
          "indexed": true,
          "internalType": "address",
          "name": "account",
          "type": "address"
        }
      ],
      "name": "MinterAdded",
      "type": "event"
    },
    {
      "anonymous": false,
      "inputs": [
        {
          "indexed": true,
          "internalType": "address",
          "name": "account",
          "type": "address"
        }
      ],
      "name": "MinterRemoved",
      "type": "event"
    },
    {
      "anonymous": false,
      "inputs": [
        {
          "indexed": true,
          "internalType": "address",
          "name": "visitor_wallet",
          "type": "address"
        },
        {
          "indexed": true,
          "internalType": "uint256",
          "name": "event_id",
          "type": "uint256"
        },
        {
          "indexed": true,
          "internalType": "uint256",
          "name": "ticket_id",
          "type": "uint256"
        }
      ],
      "name": "TicketBought",
      "type": "event"
    },
    {
      "anonymous": false,
      "inputs": [
        {
          "indexed": false,
          "internalType": "address",
          "name": "visitor_wallet",
          "type": "address"
        },
        {
          "indexed": false,
          "internalType": "uint256",
          "name": "event_id",
          "type": "uint256"
        },
        {
          "indexed": false,
          "internalType": "uint256",
          "name": "ticket_id",
          "type": "uint256"
        }
      ],
      "name": "TicketBoughtHuman",
      "type": "event"
    },
    {
      "anonymous": false,
      "inputs": [
        {
          "indexed": true,
          "internalType": "address",
          "name": "visitor_wallet",
          "type": "address"
        },
        {
          "indexed": true,
          "internalType": "uint256",
          "name": "event_id",
          "type": "uint256"
        },
        {
          "indexed": true,
          "internalType": "uint256",
          "name": "ticket_id",
          "type": "uint256"
        }
      ],
      "name": "TicketFulfilled",
      "type": "event"
    },
    {
      "anonymous": false,
      "inputs": [
        {
          "indexed": false,
          "internalType": "address",
          "name": "visitor_wallet",
          "type": "address"
        },
        {
          "indexed": false,
          "internalType": "uint256",
          "name": "event_id",
          "type": "uint256"
        },
        {
          "indexed": false,
          "internalType": "uint256",
          "name": "ticket_id",
          "type": "uint256"
        }
      ],
      "name": "TicketFulfilledHuman",
      "type": "event"
    },
    {
      "anonymous": false,
      "inputs": [
        {
          "indexed": true,
          "internalType": "address",
          "name": "from",
          "type": "address"
        },
        {
          "indexed": true,
          "internalType": "address",
          "name": "to",
          "type": "address"
        },
        {
          "indexed": true,
          "internalType": "uint256",
          "name": "tokenId",
          "type": "uint256"
        }
      ],
      "name": "Transfer",
      "type": "event"
    },
    {
      "constant": false,
      "inputs": [
        {
          "internalType": "address",
          "name": "account",
          "type": "address"
        }
      ],
      "name": "addMinter",
      "outputs": [],
      "payable": false,
      "stateMutability": "nonpayable",
      "type": "function"
    },
    {
      "constant": false,
      "inputs": [
        {
          "internalType": "address",
          "name": "to",
          "type": "address"
        },
        {
          "internalType": "uint256",
          "name": "tokenId",
          "type": "uint256"
        }
      ],
      "name": "approve",
      "outputs": [],
      "payable": false,
      "stateMutability": "nonpayable",
      "type": "function"
    },
    {
      "constant": true,
      "inputs": [
        {
          "internalType": "address",
          "name": "owner",
          "type": "address"
        }
      ],
      "name": "balanceOf",
      "outputs": [
        {
          "internalType": "uint256",
          "name": "",
          "type": "uint256"
        }
      ],
      "payable": false,
      "stateMutability": "view",
      "type": "function"
    },
    {
      "constant": true,
      "inputs": [
        {
          "internalType": "uint256",
          "name": "",
          "type": "uint256"
        },
        {
          "internalType": "uint256",
          "name": "",
          "type": "uint256"
        }
      ],
      "name": "eventsales",
      "outputs": [
        {
          "internalType": "address",
          "name": "",
          "type": "address"
        }
      ],
      "payable": false,
      "stateMutability": "view",
      "type": "function"
    },
    {
      "constant": true,
      "inputs": [
        {
          "internalType": "uint256",
          "name": "tokenId",
          "type": "uint256"
        }
      ],
      "name": "getApproved",
      "outputs": [
        {
          "internalType": "address",
          "name": "",
          "type": "address"
        }
      ],
      "payable": false,
      "stateMutability": "view",
      "type": "function"
    },
    {
      "constant": true,
      "inputs": [
        {
          "internalType": "address",
          "name": "owner",
          "type": "address"
        },
        {
          "internalType": "address",
          "name": "operator",
          "type": "address"
        }
      ],
      "name": "isApprovedForAll",
      "outputs": [
        {
          "internalType": "bool",
          "name": "",
          "type": "bool"
        }
      ],
      "payable": false,
      "stateMutability": "view",
      "type": "function"
    },
    {
      "constant": true,
      "inputs": [
        {
          "internalType": "address",
          "name": "account",
          "type": "address"
        }
      ],
      "name": "isMinter",
      "outputs": [
        {
          "internalType": "bool",
          "name": "",
          "type": "bool"
        }
      ],
      "payable": false,
      "stateMutability": "view",
      "type": "function"
    },
    {
      "constant": false,
      "inputs": [
        {
          "internalType": "address",
          "name": "to",
          "type": "address"
        },
        {
          "internalType": "uint256",
          "name": "tokenId",
          "type": "uint256"
        }
      ],
      "name": "mint",
      "outputs": [
        {
          "internalType": "bool",
          "name": "",
          "type": "bool"
        }
      ],
      "payable": false,
      "stateMutability": "nonpayable",
      "type": "function"
    },
    {
      "constant": true,
      "inputs": [
        {
          "internalType": "uint256",
          "name": "tokenId",
          "type": "uint256"
        }
      ],
      "name": "ownerOf",
      "outputs": [
        {
          "internalType": "address",
          "name": "",
          "type": "address"
        }
      ],
      "payable": false,
      "stateMutability": "view",
      "type": "function"
    },
    {
      "constant": false,
      "inputs": [],
      "name": "renounceMinter",
      "outputs": [],
      "payable": false,
      "stateMutability": "nonpayable",
      "type": "function"
    },
    {
      "constant": false,
      "inputs": [
        {
          "internalType": "address",
          "name": "to",
          "type": "address"
        },
        {
          "internalType": "uint256",
          "name": "tokenId",
          "type": "uint256"
        },
        {
          "internalType": "bytes",
          "name": "_data",
          "type": "bytes"
        }
      ],
      "name": "safeMint",
      "outputs": [
        {
          "internalType": "bool",
          "name": "",
          "type": "bool"
        }
      ],
      "payable": false,
      "stateMutability": "nonpayable",
      "type": "function"
    },
    {
      "constant": false,
      "inputs": [
        {
          "internalType": "address",
          "name": "to",
          "type": "address"
        },
        {
          "internalType": "uint256",
          "name": "tokenId",
          "type": "uint256"
        }
      ],
      "name": "safeMint",
      "outputs": [
        {
          "internalType": "bool",
          "name": "",
          "type": "bool"
        }
      ],
      "payable": false,
      "stateMutability": "nonpayable",
      "type": "function"
    },
    {
      "constant": false,
      "inputs": [
        {
          "internalType": "address",
          "name": "from",
          "type": "address"
        },
        {
          "internalType": "address",
          "name": "to",
          "type": "address"
        },
        {
          "internalType": "uint256",
          "name": "tokenId",
          "type": "uint256"
        }
      ],
      "name": "safeTransferFrom",
      "outputs": [],
      "payable": false,
      "stateMutability": "nonpayable",
      "type": "function"
    },
    {
      "constant": false,
      "inputs": [
        {
          "internalType": "address",
          "name": "from",
          "type": "address"
        },
        {
          "internalType": "address",
          "name": "to",
          "type": "address"
        },
        {
          "internalType": "uint256",
          "name": "tokenId",
          "type": "uint256"
        },
        {
          "internalType": "bytes",
          "name": "_data",
          "type": "bytes"
        }
      ],
      "name": "safeTransferFrom",
      "outputs": [],
      "payable": false,
      "stateMutability": "nonpayable",
      "type": "function"
    },
    {
      "constant": false,
      "inputs": [
        {
          "internalType": "address",
          "name": "to",
          "type": "address"
        },
        {
          "internalType": "bool",
          "name": "approved",
          "type": "bool"
        }
      ],
      "name": "setApprovalForAll",
      "outputs": [],
      "payable": false,
      "stateMutability": "nonpayable",
      "type": "function"
    },
    {
      "constant": true,
      "inputs": [
        {
          "internalType": "bytes4",
          "name": "interfaceId",
          "type": "bytes4"
        }
      ],
      "name": "supportsInterface",
      "outputs": [
        {
          "internalType": "bool",
          "name": "",
          "type": "bool"
        }
      ],
      "payable": false,
      "stateMutability": "view",
      "type": "function"
    },
    {
      "constant": true,
      "inputs": [
        {
          "internalType": "uint256",
          "name": "index",
          "type": "uint256"
        }
      ],
      "name": "tokenByIndex",
      "outputs": [
        {
          "internalType": "uint256",
          "name": "",
          "type": "uint256"
        }
      ],
      "payable": false,
      "stateMutability": "view",
      "type": "function"
    },
    {
      "constant": true,
      "inputs": [
        {
          "internalType": "address",
          "name": "owner",
          "type": "address"
        },
        {
          "internalType": "uint256",
          "name": "index",
          "type": "uint256"
        }
      ],
      "name": "tokenOfOwnerByIndex",
      "outputs": [
        {
          "internalType": "uint256",
          "name": "",
          "type": "uint256"
        }
      ],
      "payable": false,
      "stateMutability": "view",
      "type": "function"
    },
    {
      "constant": true,
      "inputs": [],
      "name": "totalSupply",
      "outputs": [
        {
          "internalType": "uint256",
          "name": "",
          "type": "uint256"
        }
      ],
      "payable": false,
      "stateMutability": "view",
      "type": "function"
    },
    {
      "constant": false,
      "inputs": [
        {
          "internalType": "address",
          "name": "from",
          "type": "address"
        },
        {
          "internalType": "address",
          "name": "to",
          "type": "address"
        },
        {
          "internalType": "uint256",
          "name": "tokenId",
          "type": "uint256"
        }
      ],
      "name": "transferFrom",
      "outputs": [],
      "payable": false,
      "stateMutability": "nonpayable",
      "type": "function"
    },
    {
      "constant": false,
      "inputs": [
        {
          "internalType": "address",
          "name": "from",
          "type": "address"
        },
        {
          "internalType": "address",
          "name": "to",
          "type": "address"
        },
        {
          "internalType": "uint256",
          "name": "tokenId",
          "type": "uint256"
        }
      ],
      "name": "_transferFromTicket",
      "outputs": [],
      "payable": false,
      "stateMutability": "nonpayable",
      "type": "function"
    },
    {
      "constant": false,
      "inputs": [
        {
          "internalType": "address",
          "name": "orginizer",
          "type": "address"
        }
      ],
      "name": "reserveEventId",
      "outputs": [
        {
          "internalType": "uint256",
          "name": "event_id",
          "type": "uint256"
        }
      ],
      "payable": false,
      "stateMutability": "nonpayable",
      "type": "function"
    },
    {
      "constant": false,
      "inputs": [
        {
          "internalType": "uint256",
          "name": "event_id",
          "type": "uint256"
        },
        {
          "internalType": "address",
          "name": "orginizer",
          "type": "address"
        }
      ],
      "name": "plugSale",
      "outputs": [
        {
          "internalType": "uint256",
          "name": "",
          "type": "uint256"
        }
      ],
      "payable": false,
      "stateMutability": "nonpayable",
      "type": "function"
    },
    {
      "constant": false,
      "inputs": [
        {
          "internalType": "address",
          "name": "buyer",
          "type": "address"
        },
        {
          "internalType": "uint256",
          "name": "ticketAmount",
          "type": "uint256"
        },
        {
          "internalType": "uint256",
          "name": "event_id",
          "type": "uint256"
        },
        {
          "internalType": "uint256",
          "name": "_ticket_type",
          "type": "uint256"
        }
      ],
      "name": "buyTicket",
      "outputs": [],
      "payable": false,
      "stateMutability": "nonpayable",
      "type": "function"
    },
    {
      "constant": false,
      "inputs": [
        {
          "internalType": "address",
          "name": "visitor",
          "type": "address"
        },
        {
          "internalType": "uint256",
          "name": "tokenId",
          "type": "uint256"
        },
        {
          "internalType": "uint256",
          "name": "event_id",
          "type": "uint256"
        }
      ],
      "name": "redeemTicket",
      "outputs": [],
      "payable": false,
      "stateMutability": "nonpayable",
      "type": "function"
    },
    {
      "constant": true,
      "inputs": [
        {
          "internalType": "uint256",
          "name": "event_id",
          "type": "uint256"
        }
      ],
      "name": "getTicketTypeCount",
      "outputs": [
        {
          "internalType": "uint256",
          "name": "",
          "type": "uint256"
        }
      ],
      "payable": false,
      "stateMutability": "view",
      "type": "function"
    },
    {
      "constant": true,
      "inputs": [
        {
          "internalType": "address",
          "name": "_owner",
          "type": "address"
        }
      ],
      "name": "getTicketByOwner",
      "outputs": [
        {
          "internalType": "uint256[]",
          "name": "",
          "type": "uint256[]"
        }
      ],
      "payable": false,
      "stateMutability": "view",
      "type": "function"
    }
  ],
  "bytecode": "0x60806040523480156200001157600080fd5b5060405162003e8338038062003e83833981810160405260208110156200003757600080fd5b8101908080519060200190929190505050620000606301ffc9a760e01b620000b760201b60201c565b620000786380ac58cd60e01b620000b760201b60201c565b6200009063780e9d6360e01b620000b760201b60201c565b620000b0620000a4620001c060201b60201c565b620001c860201b60201c565b50620003ed565b63ffffffff60e01b817bffffffffffffffffffffffffffffffffffffffffffffffffffffffff1916141562000154576040517f08c379a000000000000000000000000000000000000000000000000000000000815260040180806020018281038252601c8152602001807f4552433136353a20696e76616c696420696e746572666163652069640000000081525060200191505060405180910390fd5b6001600080837bffffffffffffffffffffffffffffffffffffffffffffffffffffffff19167bffffffffffffffffffffffffffffffffffffffffffffffffffffffff1916815260200190815260200160002060006101000a81548160ff02191690831515021790555050565b600033905090565b620001e38160096200022960201b6200330e1790919060201c565b8073ffffffffffffffffffffffffffffffffffffffff167f6ae172837ea30b801fbfcdd4108aa1d5bf8ff775444fd70256b44e6bf3dfc3f660405160405180910390a250565b6200023b82826200030d60201b60201c565b15620002af576040517f08c379a000000000000000000000000000000000000000000000000000000000815260040180806020018281038252601f8152602001807f526f6c65733a206163636f756e7420616c72656164792068617320726f6c650081525060200191505060405180910390fd5b60018260000160008373ffffffffffffffffffffffffffffffffffffffff1673ffffffffffffffffffffffffffffffffffffffff16815260200190815260200160002060006101000a81548160ff0219169083151502179055505050565b60008073ffffffffffffffffffffffffffffffffffffffff168273ffffffffffffffffffffffffffffffffffffffff16141562000396576040517f08c379a000000000000000000000000000000000000000000000000000000000815260040180806020018281038252602281526020018062003e616022913960400191505060405180910390fd5b8260000160008373ffffffffffffffffffffffffffffffffffffffff1673ffffffffffffffffffffffffffffffffffffffff16815260200190815260200160002060009054906101000a900460ff16905092915050565b613a6480620003fd6000396000f3fe608060405234801561001057600080fd5b50600436106101a95760003560e01c806370a08231116100f9578063a27c282e11610097578063b88d4fde11610071578063b88d4fde14610a87578063cd3a15f814610b8c578063e985e9c514610bee578063ec95d2d014610c6a576101a9565b8063a27c282e14610965578063aa271e1a146109bd578063ab31520a14610a19576101a9565b806398650275116100d3578063986502751461082d5780639b1d8baf14610837578063a1448194146108af578063a22cb46514610915576101a9565b806370a08231146106945780638832e6e3146106ec578063983b2d56146107e9576101a9565b8063376b029a116101665780634c0eb465116101405780634c0eb4651461052a5780634f6ccce7146105825780636352211e146105c4578063645c0fb014610632576101a9565b8063376b029a146103bd57806340c10f191461045657806342842e0e146104bc576101a9565b806301ffc9a7146101ae578063081812fc14610213578063095ea7b31461028157806318160ddd146102cf57806323b872dd146102ed5780632f745c591461035b575b600080fd5b6101f9600480360360208110156101c457600080fd5b8101908080357bffffffffffffffffffffffffffffffffffffffffffffffffffffffff19169060200190929190505050610cac565b604051808215151515815260200191505060405180910390f35b61023f6004803603602081101561022957600080fd5b8101908080359060200190929190505050610d13565b604051808273ffffffffffffffffffffffffffffffffffffffff1673ffffffffffffffffffffffffffffffffffffffff16815260200191505060405180910390f35b6102cd6004803603604081101561029757600080fd5b81019080803573ffffffffffffffffffffffffffffffffffffffff16906020019092919080359060200190929190505050610dae565b005b6102d7610f95565b6040518082815260200191505060405180910390f35b6103596004803603606081101561030357600080fd5b81019080803573ffffffffffffffffffffffffffffffffffffffff169060200190929190803573ffffffffffffffffffffffffffffffffffffffff16906020019092919080359060200190929190505050610fa2565b005b6103a76004803603604081101561037157600080fd5b81019080803573ffffffffffffffffffffffffffffffffffffffff16906020019092919080359060200190929190505050611018565b6040518082815260200191505060405180910390f35b6103ff600480360360208110156103d357600080fd5b81019080803573ffffffffffffffffffffffffffffffffffffffff1690602001909291905050506110d7565b6040518080602001828103825283818151815260200191508051906020019060200280838360005b83811015610442578082015181840152602081019050610427565b505050509050019250505060405180910390f35b6104a26004803603604081101561046c57600080fd5b81019080803573ffffffffffffffffffffffffffffffffffffffff1690602001909291908035906020019092919050505061113e565b604051808215151515815260200191505060405180910390f35b610528600480360360608110156104d257600080fd5b81019080803573ffffffffffffffffffffffffffffffffffffffff169060200190929190803573ffffffffffffffffffffffffffffffffffffffff169060200190929190803590602001909291905050506111b9565b005b61056c6004803603602081101561054057600080fd5b81019080803573ffffffffffffffffffffffffffffffffffffffff1690602001909291905050506111d9565b6040518082815260200191505060405180910390f35b6105ae6004803603602081101561059857600080fd5b810190808035906020019092919050505061139d565b6040518082815260200191505060405180910390f35b6105f0600480360360208110156105da57600080fd5b810190808035906020019092919050505061141d565b604051808273ffffffffffffffffffffffffffffffffffffffff1673ffffffffffffffffffffffffffffffffffffffff16815260200191505060405180910390f35b61067e6004803603604081101561064857600080fd5b8101908080359060200190929190803573ffffffffffffffffffffffffffffffffffffffff1690602001909291905050506114e5565b6040518082815260200191505060405180910390f35b6106d6600480360360208110156106aa57600080fd5b81019080803573ffffffffffffffffffffffffffffffffffffffff16906020019092919050505061172c565b6040518082815260200191505060405180910390f35b6107cf6004803603606081101561070257600080fd5b81019080803573ffffffffffffffffffffffffffffffffffffffff169060200190929190803590602001909291908035906020019064010000000081111561074957600080fd5b82018360208201111561075b57600080fd5b8035906020019184600183028401116401000000008311171561077d57600080fd5b91908080601f016020809104026020016040519081016040528093929190818152602001838380828437600081840152601f19601f820116905080830192505050505050509192919290505050611801565b604051808215151515815260200191505060405180910390f35b61082b600480360360208110156107ff57600080fd5b81019080803573ffffffffffffffffffffffffffffffffffffffff16906020019092919050505061187e565b005b6108356118ef565b005b61086d6004803603604081101561084d57600080fd5b810190808035906020019092919080359060200190929190505050611901565b604051808273ffffffffffffffffffffffffffffffffffffffff1673ffffffffffffffffffffffffffffffffffffffff16815260200191505060405180910390f35b6108fb600480360360408110156108c557600080fd5b81019080803573ffffffffffffffffffffffffffffffffffffffff1690602001909291908035906020019092919050505061194c565b604051808215151515815260200191505060405180910390f35b6109636004803603604081101561092b57600080fd5b81019080803573ffffffffffffffffffffffffffffffffffffffff1690602001909291908035151590602001909291905050506119c7565b005b6109bb6004803603606081101561097b57600080fd5b81019080803573ffffffffffffffffffffffffffffffffffffffff1690602001909291908035906020019092919080359060200190929190505050611b7f565b005b6109ff600480360360208110156109d357600080fd5b81019080803573ffffffffffffffffffffffffffffffffffffffff169060200190929190505050611ef6565b604051808215151515815260200191505060405180910390f35b610a8560048036036060811015610a2f57600080fd5b81019080803573ffffffffffffffffffffffffffffffffffffffff169060200190929190803573ffffffffffffffffffffffffffffffffffffffff16906020019092919080359060200190929190505050611f13565b005b610b8a60048036036080811015610a9d57600080fd5b81019080803573ffffffffffffffffffffffffffffffffffffffff169060200190929190803573ffffffffffffffffffffffffffffffffffffffff1690602001909291908035906020019092919080359060200190640100000000811115610b0457600080fd5b820183602082011115610b1657600080fd5b80359060200191846001830284011164010000000083111715610b3857600080fd5b91908080601f016020809104026020016040519081016040528093929190818152602001838380828437600081840152601f19601f820116905080830192505050505050509192919290505050611f23565b005b610bec60048036036080811015610ba257600080fd5b81019080803573ffffffffffffffffffffffffffffffffffffffff169060200190929190803590602001909291908035906020019092919080359060200190929190505050611f9b565b005b610c5060048036036040811015610c0457600080fd5b81019080803573ffffffffffffffffffffffffffffffffffffffff169060200190929190803573ffffffffffffffffffffffffffffffffffffffff1690602001909291905050506122ba565b604051808215151515815260200191505060405180910390f35b610c9660048036036020811015610c8057600080fd5b810190808035906020019092919050505061234e565b6040518082815260200191505060405180910390f35b6000806000837bffffffffffffffffffffffffffffffffffffffffffffffffffffffff19167bffffffffffffffffffffffffffffffffffffffffffffffffffffffff1916815260200190815260200160002060009054906101000a900460ff169050919050565b6000610d1e826123fc565b610d73576040517f08c379a000000000000000000000000000000000000000000000000000000000815260040180806020018281038252602c81526020018061393b602c913960400191505060405180910390fd5b6002600083815260200190815260200160002060009054906101000a900473ffffffffffffffffffffffffffffffffffffffff169050919050565b6000610db98261141d565b90508073ffffffffffffffffffffffffffffffffffffffff168373ffffffffffffffffffffffffffffffffffffffff161415610e40576040517f08c379a00000000000000000000000000000000000000000000000000000000081526004018080602001828103825260218152602001806139b26021913960400191505060405180910390fd5b8073ffffffffffffffffffffffffffffffffffffffff16610e5f61246e565b73ffffffffffffffffffffffffffffffffffffffff161480610e8e5750610e8d81610e8861246e565b6122ba565b5b610ee3576040517f08c379a000000000000000000000000000000000000000000000000000000000815260040180806020018281038252603881526020018061385f6038913960400191505060405180910390fd5b826002600084815260200190815260200160002060006101000a81548173ffffffffffffffffffffffffffffffffffffffff021916908373ffffffffffffffffffffffffffffffffffffffff160217905550818373ffffffffffffffffffffffffffffffffffffffff168273ffffffffffffffffffffffffffffffffffffffff167f8c5be1e5ebec7d5bd14f71427d1e84f3dd0314c0f7b2291e5b200ac8c7c3b92560405160405180910390a4505050565b6000600780549050905090565b610fb3610fad61246e565b82612476565b611008576040517f08c379a00000000000000000000000000000000000000000000000000000000081526004018080602001828103825260318152602001806139d36031913960400191505060405180910390fd5b61101383838361256a565b505050565b60006110238361172c565b821061107a576040517f08c379a000000000000000000000000000000000000000000000000000000000815260040180806020018281038252602b815260200180613780602b913960400191505060405180910390fd5b600560008473ffffffffffffffffffffffffffffffffffffffff1673ffffffffffffffffffffffffffffffffffffffff16815260200190815260200160002082815481106110c457fe5b9060005260206000200154905092915050565b606060006110e48361258e565b90508080548060200260200160405190810160405280929190818152602001828054801561113157602002820191906000526020600020905b81548152602001906001019080831161111d575b5050505050915050919050565b600061115061114b61246e565b611ef6565b6111a5576040517f08c379a00000000000000000000000000000000000000000000000000000000081526004018080602001828103825260308152602001806138ea6030913960400191505060405180910390fd5b6111af83836125d6565b6001905092915050565b6111d483838360405180602001604052806000815250611f23565b505050565b60006111e5600c6125f7565b6111ef600c61260d565b9050600d60008281526020019081526020016000203390806001815401808255809150509060018203906000526020600020016000909192909190916101000a81548173ffffffffffffffffffffffffffffffffffffffff021916908373ffffffffffffffffffffffffffffffffffffffff1602179055505081601160003373ffffffffffffffffffffffffffffffffffffffff1673ffffffffffffffffffffffffffffffffffffffff16815260200190815260200160002060006101000a81548173ffffffffffffffffffffffffffffffffffffffff021916908373ffffffffffffffffffffffffffffffffffffffff160217905550803373ffffffffffffffffffffffffffffffffffffffff167fe7d1a453d66d83d6e4ffae7901ed08b56c3b1f53a1c43135c2de683e4529b65b60405160405180910390a37f0a554ff72c713dffd0372d9c23cc1e214c1dfefbadda4710f4eee43eb6229a7b3382604051808373ffffffffffffffffffffffffffffffffffffffff1673ffffffffffffffffffffffffffffffffffffffff1681526020018281526020019250505060405180910390a1809050919050565b60006113a7610f95565b82106113fe576040517f08c379a000000000000000000000000000000000000000000000000000000000815260040180806020018281038252602c815260200180613a04602c913960400191505060405180910390fd5b6007828154811061140b57fe5b90600052602060002001549050919050565b6000806001600084815260200190815260200160002060009054906101000a900473ffffffffffffffffffffffffffffffffffffffff169050600073ffffffffffffffffffffffffffffffffffffffff168173ffffffffffffffffffffffffffffffffffffffff1614156114dc576040517f08c379a00000000000000000000000000000000000000000000000000000000081526004018080602001828103825260298152602001806138c16029913960400191505060405180910390fd5b80915050919050565b60006060600d600085815260200190815260200160002080548060200260200160405190810160405280929190818152602001828054801561157c57602002820191906000526020600020905b8160009054906101000a900473ffffffffffffffffffffffffffffffffffffffff1673ffffffffffffffffffffffffffffffffffffffff1681526020019060010190808311611532575b5050505050905060008160008151811061159257fe5b602002602001015190508373ffffffffffffffffffffffffffffffffffffffff16601160008373ffffffffffffffffffffffffffffffffffffffff1673ffffffffffffffffffffffffffffffffffffffff16815260200190815260200160002060009054906101000a900473ffffffffffffffffffffffffffffffffffffffff1673ffffffffffffffffffffffffffffffffffffffff161461169c576040517f08c379a000000000000000000000000000000000000000000000000000000000815260040180806020018281038252601c8152602001807f6f6e6c79206f7267696e697a65722063616e20706c75672073616c650000000081525060200191505060405180910390fd5b600d60008681526020019081526020016000203390806001815401808255809150509060018203906000526020600020016000909192909190916101000a81548173ffffffffffffffffffffffffffffffffffffffff021916908373ffffffffffffffffffffffffffffffffffffffff16021790555050600061171e8661234e565b905080935050505092915050565b60008073ffffffffffffffffffffffffffffffffffffffff168273ffffffffffffffffffffffffffffffffffffffff1614156117b3576040517f08c379a000000000000000000000000000000000000000000000000000000000815260040180806020018281038252602a815260200180613897602a913960400191505060405180910390fd5b6117fa600360008473ffffffffffffffffffffffffffffffffffffffff1673ffffffffffffffffffffffffffffffffffffffff16815260200190815260200160002061260d565b9050919050565b600061181361180e61246e565b611ef6565b611868576040517f08c379a00000000000000000000000000000000000000000000000000000000081526004018080602001828103825260308152602001806138ea6030913960400191505060405180910390fd5b61187384848461261b565b600190509392505050565b61188e61188961246e565b611ef6565b6118e3576040517f08c379a00000000000000000000000000000000000000000000000000000000081526004018080602001828103825260308152602001806138ea6030913960400191505060405180910390fd5b6118ec8161268c565b50565b6118ff6118fa61246e565b6126e6565b565b600d602052816000526040600020818154811061191a57fe5b906000526020600020016000915091509054906101000a900473ffffffffffffffffffffffffffffffffffffffff1681565b600061195e61195961246e565b611ef6565b6119b3576040517f08c379a00000000000000000000000000000000000000000000000000000000081526004018080602001828103825260308152602001806138ea6030913960400191505060405180910390fd5b6119bd8383612740565b6001905092915050565b6119cf61246e565b73ffffffffffffffffffffffffffffffffffffffff168273ffffffffffffffffffffffffffffffffffffffff161415611a70576040517f08c379a00000000000000000000000000000000000000000000000000000000081526004018080602001828103825260198152602001807f4552433732313a20617070726f766520746f2063616c6c65720000000000000081525060200191505060405180910390fd5b8060046000611a7d61246e565b73ffffffffffffffffffffffffffffffffffffffff1673ffffffffffffffffffffffffffffffffffffffff16815260200190815260200160002060008473ffffffffffffffffffffffffffffffffffffffff1673ffffffffffffffffffffffffffffffffffffffff16815260200190815260200160002060006101000a81548160ff0219169083151502179055508173ffffffffffffffffffffffffffffffffffffffff16611b2a61246e565b73ffffffffffffffffffffffffffffffffffffffff167f17307eab39ab6107e8899845ad3d59bd9653f200f220920489ca2b5937696c3183604051808215151515815260200191505060405180910390a35050565b6060600d6000838152602001908152602001600020805480602002602001604051908101604052809291908181526020018280548015611c1457602002820191906000526020600020905b8160009054906101000a900473ffffffffffffffffffffffffffffffffffffffff1673ffffffffffffffffffffffffffffffffffffffff1681526020019060010190808311611bca575b50505050509050611c236136dc565b601060008581526020019081526020016000206040518060400160405290816000820160009054906101000a900460ff166002811115611c5f57fe5b6002811115611c6a57fe5b81526020016001820154815250509050600082826020015181518110611c8c57fe5b602002602001015190503373ffffffffffffffffffffffffffffffffffffffff168173ffffffffffffffffffffffffffffffffffffffff1614611d1a576040517f08c379a000000000000000000000000000000000000000000000000000000000815260040180806020018281038252602d815260200180613753602d913960400191505060405180910390fd5b60006002811115611d2757fe5b6010600087815260200190815260200160002060000160009054906101000a900460ff166002811115611d5657fe5b14611dc9576040517f08c379a00000000000000000000000000000000000000000000000000000000081526004018080602001828103825260198152602001807f5469636b6574207374617465206d75737420626520506169640000000000000081525060200191505060405180910390fd5b600182600001906002811115611ddb57fe5b90816002811115611de857fe5b81525050816010600087815260200190815260200160002060008201518160000160006101000a81548160ff02191690836002811115611e2457fe5b02179055506020820151816001015590505084848773ffffffffffffffffffffffffffffffffffffffff167f1852380d0869dc478452f3f2bcfac707f842df524f5b8896d2a4f70c756f818460405160405180910390a47fe82baa24ba3534133b9033b3b6013784eaa8e524dc5ef8cf2e3e0945d0074624868587604051808473ffffffffffffffffffffffffffffffffffffffff1673ffffffffffffffffffffffffffffffffffffffff168152602001838152602001828152602001935050505060405180910390a1505050505050565b6000611f0c82600961275e90919063ffffffff16565b9050919050565b611f1e83838361256a565b505050565b611f34611f2e61246e565b83612476565b611f89576040517f08c379a00000000000000000000000000000000000000000000000000000000081526004018080602001828103825260318152602001806139d36031913960400191505060405180910390fd5b611f958484848461283c565b50505050565b6060600d600084815260200190815260200160002080548060200260200160405190810160405280929190818152602001828054801561203057602002820191906000526020600020905b8160009054906101000a900473ffffffffffffffffffffffffffffffffffffffff1673ffffffffffffffffffffffffffffffffffffffff1681526020019060010190808311611fe6575b50505050509050600081838151811061204557fe5b602002602001015190503373ffffffffffffffffffffffffffffffffffffffff168173ffffffffffffffffffffffffffffffffffffffff16146120d3576040517f08c379a00000000000000000000000000000000000000000000000000000000081526004018080602001828103825260328152602001806138016032913960400191505060405180910390fd5b60008090505b858110156122b1576120eb600b6125f7565b60006120f7600b61260d565b90506121023361187e565b61210c88826125d6565b60405180604001604052806000600281111561212457fe5b8152602001868152506010600083815260200190815260200160002060008201518160000160006101000a81548160ff0219169083600281111561216457fe5b021790555060208201518160010155905050600e600087815260200190815260200160002080549050600f600083815260200190815260200160002081905550600e60008781526020019081526020016000208190806001815401808255809150509060018203906000526020600020016000909192909190915055506121eb3382610dae565b80868973ffffffffffffffffffffffffffffffffffffffff167f97fac0ce6558f4accbb4696915809c0ef7023ffe7ba9454e94d49fb652aae1d560405160405180910390a47f6d651fdc8652e9b93372b6cece4377b2c0f78be48b1ffbf3bdafc7baef0138ab888783604051808473ffffffffffffffffffffffffffffffffffffffff1673ffffffffffffffffffffffffffffffffffffffff168152602001838152602001828152602001935050505060405180910390a15080806001019150506120d9565b50505050505050565b6000600460008473ffffffffffffffffffffffffffffffffffffffff1673ffffffffffffffffffffffffffffffffffffffff16815260200190815260200160002060008373ffffffffffffffffffffffffffffffffffffffff1673ffffffffffffffffffffffffffffffffffffffff16815260200190815260200160002060009054906101000a900460ff16905092915050565b60006060600d60008481526020019081526020016000208054806020026020016040519081016040528092919081815260200182805480156123e557602002820191906000526020600020905b8160009054906101000a900473ffffffffffffffffffffffffffffffffffffffff1673ffffffffffffffffffffffffffffffffffffffff168152602001906001019080831161239b575b505050505090506000815190508092505050919050565b6000806001600084815260200190815260200160002060009054906101000a900473ffffffffffffffffffffffffffffffffffffffff169050600073ffffffffffffffffffffffffffffffffffffffff168173ffffffffffffffffffffffffffffffffffffffff161415915050919050565b600033905090565b6000612481826123fc565b6124d6576040517f08c379a000000000000000000000000000000000000000000000000000000000815260040180806020018281038252602c815260200180613833602c913960400191505060405180910390fd5b60006124e18361141d565b90508073ffffffffffffffffffffffffffffffffffffffff168473ffffffffffffffffffffffffffffffffffffffff16148061255057508373ffffffffffffffffffffffffffffffffffffffff1661253884610d13565b73ffffffffffffffffffffffffffffffffffffffff16145b80612561575061256081856122ba565b5b91505092915050565b6125758383836128ae565b61257f8382612b09565b6125898282612ca7565b505050565b6000600560008373ffffffffffffffffffffffffffffffffffffffff1673ffffffffffffffffffffffffffffffffffffffff1681526020019081526020016000209050919050565b6125e08282612d6e565b6125ea8282612ca7565b6125f381612f86565b5050565b6001816000016000828254019250508190555050565b600081600001549050919050565b61262583836125d6565b6126326000848484612fd2565b612687576040517f08c379a00000000000000000000000000000000000000000000000000000000081526004018080602001828103825260328152602001806137ab6032913960400191505060405180910390fd5b505050565b6126a081600961330e90919063ffffffff16565b8073ffffffffffffffffffffffffffffffffffffffff167f6ae172837ea30b801fbfcdd4108aa1d5bf8ff775444fd70256b44e6bf3dfc3f660405160405180910390a250565b6126fa8160096133e990919063ffffffff16565b8073ffffffffffffffffffffffffffffffffffffffff167fe94479a9f7e1952cc78f2d6baab678adc1b772d936c6583def489e524cb6669260405160405180910390a250565b61275a82826040518060200160405280600081525061261b565b5050565b60008073ffffffffffffffffffffffffffffffffffffffff168273ffffffffffffffffffffffffffffffffffffffff1614156127e5576040517f08c379a00000000000000000000000000000000000000000000000000000000081526004018080602001828103825260228152602001806139676022913960400191505060405180910390fd5b8260000160008373ffffffffffffffffffffffffffffffffffffffff1673ffffffffffffffffffffffffffffffffffffffff16815260200190815260200160002060009054906101000a900460ff16905092915050565b61284784848461256a565b61285384848484612fd2565b6128a8576040517f08c379a00000000000000000000000000000000000000000000000000000000081526004018080602001828103825260328152602001806137ab6032913960400191505060405180910390fd5b50505050565b8273ffffffffffffffffffffffffffffffffffffffff166128ce8261141d565b73ffffffffffffffffffffffffffffffffffffffff161461293a576040517f08c379a00000000000000000000000000000000000000000000000000000000081526004018080602001828103825260298152602001806139896029913960400191505060405180910390fd5b600073ffffffffffffffffffffffffffffffffffffffff168273ffffffffffffffffffffffffffffffffffffffff1614156129c0576040517f08c379a00000000000000000000000000000000000000000000000000000000081526004018080602001828103825260248152602001806137dd6024913960400191505060405180910390fd5b6129c9816134a6565b612a10600360008573ffffffffffffffffffffffffffffffffffffffff1673ffffffffffffffffffffffffffffffffffffffff168152602001908152602001600020613564565b612a57600360008473ffffffffffffffffffffffffffffffffffffffff1673ffffffffffffffffffffffffffffffffffffffff1681526020019081526020016000206125f7565b816001600083815260200190815260200160002060006101000a81548173ffffffffffffffffffffffffffffffffffffffff021916908373ffffffffffffffffffffffffffffffffffffffff160217905550808273ffffffffffffffffffffffffffffffffffffffff168473ffffffffffffffffffffffffffffffffffffffff167fddf252ad1be2c89b69c2b068fc378daa952ba7f163c4a11628f55a4df523b3ef60405160405180910390a4505050565b6000612b616001600560008673ffffffffffffffffffffffffffffffffffffffff1673ffffffffffffffffffffffffffffffffffffffff1681526020019081526020016000208054905061358790919063ffffffff16565b9050600060066000848152602001908152602001600020549050818114612c4e576000600560008673ffffffffffffffffffffffffffffffffffffffff1673ffffffffffffffffffffffffffffffffffffffff1681526020019081526020016000208381548110612bce57fe5b9060005260206000200154905080600560008773ffffffffffffffffffffffffffffffffffffffff1673ffffffffffffffffffffffffffffffffffffffff1681526020019081526020016000208381548110612c2657fe5b9060005260206000200181905550816006600083815260200190815260200160002081905550505b600560008573ffffffffffffffffffffffffffffffffffffffff1673ffffffffffffffffffffffffffffffffffffffff168152602001908152602001600020805480919060019003612ca09190613701565b5050505050565b600560008373ffffffffffffffffffffffffffffffffffffffff1673ffffffffffffffffffffffffffffffffffffffff168152602001908152602001600020805490506006600083815260200190815260200160002081905550600560008373ffffffffffffffffffffffffffffffffffffffff1673ffffffffffffffffffffffffffffffffffffffff1681526020019081526020016000208190806001815401808255809150509060018203906000526020600020016000909192909190915055505050565b600073ffffffffffffffffffffffffffffffffffffffff168273ffffffffffffffffffffffffffffffffffffffff161415612e11576040517f08c379a00000000000000000000000000000000000000000000000000000000081526004018080602001828103825260208152602001807f4552433732313a206d696e7420746f20746865207a65726f206164647265737381525060200191505060405180910390fd5b612e1a816123fc565b15612e8d576040517f08c379a000000000000000000000000000000000000000000000000000000000815260040180806020018281038252601c8152602001807f4552433732313a20746f6b656e20616c7265616479206d696e7465640000000081525060200191505060405180910390fd5b816001600083815260200190815260200160002060006101000a81548173ffffffffffffffffffffffffffffffffffffffff021916908373ffffffffffffffffffffffffffffffffffffffff160217905550612f26600360008473ffffffffffffffffffffffffffffffffffffffff1673ffffffffffffffffffffffffffffffffffffffff1681526020019081526020016000206125f7565b808273ffffffffffffffffffffffffffffffffffffffff16600073ffffffffffffffffffffffffffffffffffffffff167fddf252ad1be2c89b69c2b068fc378daa952ba7f163c4a11628f55a4df523b3ef60405160405180910390a45050565b6007805490506008600083815260200190815260200160002081905550600781908060018154018082558091505090600182039060005260206000200160009091929091909150555050565b6000612ff38473ffffffffffffffffffffffffffffffffffffffff166135d1565b6130005760019050613306565b600060608573ffffffffffffffffffffffffffffffffffffffff168673ffffffffffffffffffffffffffffffffffffffff1663150b7a02905060e01b61304461246e565b898888604051602401808573ffffffffffffffffffffffffffffffffffffffff1673ffffffffffffffffffffffffffffffffffffffff1681526020018473ffffffffffffffffffffffffffffffffffffffff1673ffffffffffffffffffffffffffffffffffffffff16815260200183815260200180602001828103825283818151815260200191508051906020019080838360005b838110156130f45780820151818401526020810190506130d9565b50505050905090810190601f1680156131215780820380516001836020036101000a031916815260200191505b5095505050505050604051602081830303815290604052907bffffffffffffffffffffffffffffffffffffffffffffffffffffffff19166020820180517bffffffffffffffffffffffffffffffffffffffffffffffffffffffff83818316178352505050506040518082805190602001908083835b602083106131b95780518252602082019150602081019050602083039250613196565b6001836020036101000a0380198251168184511680821785525050505050509050019150506000604051808303816000865af19150503d806000811461321b576040519150601f19603f3d011682016040523d82523d6000602084013e613220565b606091505b50915091508161328e5760008151111561323d5780518082602001fd5b6040517f08c379a00000000000000000000000000000000000000000000000000000000081526004018080602001828103825260328152602001806137ab6032913960400191505060405180910390fd5b60008180602001905160208110156132a557600080fd5b8101908080519060200190929190505050905063150b7a0260e01b7bffffffffffffffffffffffffffffffffffffffffffffffffffffffff1916817bffffffffffffffffffffffffffffffffffffffffffffffffffffffff19161493505050505b949350505050565b613318828261275e565b1561338b576040517f08c379a000000000000000000000000000000000000000000000000000000000815260040180806020018281038252601f8152602001807f526f6c65733a206163636f756e7420616c72656164792068617320726f6c650081525060200191505060405180910390fd5b60018260000160008373ffffffffffffffffffffffffffffffffffffffff1673ffffffffffffffffffffffffffffffffffffffff16815260200190815260200160002060006101000a81548160ff0219169083151502179055505050565b6133f3828261275e565b613448576040517f08c379a000000000000000000000000000000000000000000000000000000000815260040180806020018281038252602181526020018061391a6021913960400191505060405180910390fd5b60008260000160008373ffffffffffffffffffffffffffffffffffffffff1673ffffffffffffffffffffffffffffffffffffffff16815260200190815260200160002060006101000a81548160ff0219169083151502179055505050565b600073ffffffffffffffffffffffffffffffffffffffff166002600083815260200190815260200160002060009054906101000a900473ffffffffffffffffffffffffffffffffffffffff1673ffffffffffffffffffffffffffffffffffffffff16146135615760006002600083815260200190815260200160002060006101000a81548173ffffffffffffffffffffffffffffffffffffffff021916908373ffffffffffffffffffffffffffffffffffffffff1602179055505b50565b61357c6001826000015461358790919063ffffffff16565b816000018190555050565b60006135c983836040518060400160405280601e81526020017f536166654d6174683a207375627472616374696f6e206f766572666c6f77000081525061361c565b905092915050565b60008060007fc5d2460186f7233c927e7db2dcc703c0e500b653ca82273b7bfad8045d85a47060001b9050833f915080821415801561361357506000801b8214155b92505050919050565b60008383111582906136c9576040517f08c379a00000000000000000000000000000000000000000000000000000000081526004018080602001828103825283818151815260200191508051906020019080838360005b8381101561368e578082015181840152602081019050613673565b50505050905090810190601f1680156136bb5780820380516001836020036101000a031916815260200191505b509250505060405180910390fd5b5060008385039050809150509392505050565b6040518060400160405280600060028111156136f457fe5b8152602001600081525090565b81548183558181111561372857818360005260206000209182019101613727919061372d565b5b505050565b61374f91905b8082111561374b576000816000905550600101613733565b5090565b9056fe796f752073686f756c642063616c6c207363616e2066726f6d207469636b657473616c6520636f6e7472616374455243373231456e756d657261626c653a206f776e657220696e646578206f7574206f6620626f756e64734552433732313a207472616e7366657220746f206e6f6e20455243373231526563656976657220696d706c656d656e7465724552433732313a207472616e7366657220746f20746865207a65726f2061646472657373796f752073686f756c642063616c6c206275795469636b65742066726f6d207469636b657473616c6520636f6e74726163744552433732313a206f70657261746f7220717565727920666f72206e6f6e6578697374656e7420746f6b656e4552433732313a20617070726f76652063616c6c6572206973206e6f74206f776e6572206e6f7220617070726f76656420666f7220616c6c4552433732313a2062616c616e636520717565727920666f7220746865207a65726f20616464726573734552433732313a206f776e657220717565727920666f72206e6f6e6578697374656e7420746f6b656e4d696e746572526f6c653a2063616c6c657220646f6573206e6f74206861766520746865204d696e74657220726f6c65526f6c65733a206163636f756e7420646f6573206e6f74206861766520726f6c654552433732313a20617070726f76656420717565727920666f72206e6f6e6578697374656e7420746f6b656e526f6c65733a206163636f756e7420697320746865207a65726f20616464726573734552433732313a207472616e73666572206f6620746f6b656e2074686174206973206e6f74206f776e4552433732313a20617070726f76616c20746f2063757272656e74206f776e65724552433732313a207472616e736665722063616c6c6572206973206e6f74206f776e6572206e6f7220617070726f766564455243373231456e756d657261626c653a20676c6f62616c20696e646578206f7574206f6620626f756e6473a265627a7a723158203e08eb8f45ca87ff1846e685093162561da7b779a2c6603ca06db94d1522c6fc64736f6c63430005100032526f6c65733a206163636f756e7420697320746865207a65726f2061646472657373",
  "source": "pragma solidity ^0.5.11;\n\nimport '../../zeppeline/token/ERC721/ERC721Enumerable.sol';\nimport '../../zeppeline/token/ERC721/ERC721Mintable.sol';\nimport \"../../zeppeline/drafts/Counters.sol\";\n\n\n\n\n\n\n\n// Ticket is ERC721 (NFT) token with  availability to reedem tickets\n\n/**\n\n    ERC-721 is non-fungible token.  So, each tokenID is a unique ticket\n\n    Usefull tips:\n    // Mapping from owner to list of owned token IDs\n    mapping(address => uint256[]) private _ownedTokens;\n\n    // Mapping from token ID to index of the owner tokens list\n    mapping(uint256 => uint256) private _ownedTokensIndex;\n\n    // Array with all token ids, used for enumeration\n    uint256[] private _allTokens;\n\n    // Mapping from token id to position in the allTokens array\n    mapping(uint256 => uint256) private _allTokensIndex;\n\n    Gets the list of token IDs of the requested owner.\n     function _tokensOfOwner(address owner) internal view returns (uint256[] storage) {\n        return _ownedTokens[owner];\n    }\n\n\n\n **/\n\ncontract Ticket721 is ERC721Enumerable, ERC721Mintable {\n   using SafeMath for uint256;\n   using Counters for Counters.Counter;\n\n    address _factory_address;\n\n    //events\n    event TicketBought(address indexed visitor_wallet,uint256 indexed event_id, uint256 indexed ticket_id);\n    event TicketBoughtHuman(address visitor_wallet,uint256 event_id, uint256 ticket_id);\n    event TicketFulfilled(address indexed visitor_wallet,uint256 indexed event_id, uint256 indexed ticket_id);   // FIXME: add date to event?\n    event TicketFulfilledHuman(address visitor_wallet,uint256 event_id, uint256 ticket_id);\n    event EventIdReserved(address indexed ticket_sale, uint256 indexed event_id);\n    event EventIdReservedHuman(address ticket_sale, uint256 event_id);\n\n    // Global counters for ticket_id and event_id\n    Counters.Counter _ticket_id_count;\n    //Counters.Counter _ticket_type;\n    Counters.Counter _event_id_count;\n\n    // Ticket lifecycle\n    enum TicketState {Paid, Fulfilled, Cancelled}\n\n    // map from event id to ticketsale address\n    // TIP: ticket type = array.length\n    mapping(uint256 => address[]) public eventsales;         // FIXME: one event could have a few ticketsale (for a different ticket types), so change it to address[] (?)\n    // map from event id to ticket ids\n    mapping (uint256 => uint256[]) ticketIds;\n    // map fron token ID to its index in ticketIds\n    mapping (uint256 => uint256) ticketIndex;\n    // map from ticket id to ticket info\n    mapping (uint256 => TicketInfo) ticketInfoStorage;\n    // map from sale address to organizer\n    mapping(address => address) retailers;\n\n\n    /**\n   * Ticket information\n   */\n\n    struct TicketInfo {\n    //string description;\n    //uint price;\n    TicketState state;\n   // Counters.Counter ticket_type;\n    uint ticket_type;\n    //string fulfilmentURI;\n    //address retailer;\n  }\n\n   // TicketInfo[] internal ticketStorage;\n\n\n\n    //FIXME: invoke constructor from 721(?)\n    constructor(address factory_address) public {\n       // _factory_address = factory_address;\n       // addMinter(msg.sender);\n    }\n\n    // FIXME: approve for ticketsale, not factory\n    function setApprovalForEvent(address _owner, address ticketsale) internal{\n        bool approved;\n        _operatorApprovals[_owner][ticketsale] = approved;\n        emit ApprovalForAll(_owner, ticketsale, approved);\n    }\n\n    function _transferFromTicket(address from, address to, uint256 tokenId) public {\n        super._transferFrom(from, to, tokenId);\n    }\n\n    // TODO - check for event_id already existed\n    function reserveEventId(address orginizer) public returns(uint256 event_id){\n        _event_id_count.increment();\n        event_id = _event_id_count.current();\n      //  eventsales[event_id] = msg.sender;\n        eventsales[event_id].push(msg.sender);\n        retailers[msg.sender] = orginizer;\n        emit EventIdReserved(msg.sender,event_id);\n        emit EventIdReservedHuman(msg.sender,event_id);\n        return event_id;\n    }\n\n    // plug additional sale for selling different types of ticket by one event\n    function plugSale(uint256 event_id, address orginizer) public returns(uint) {\n        address[] memory _sales = eventsales[event_id];\n        address _sale = _sales[0];\n        require(retailers[_sale] == orginizer, \"only orginizer can plug sale\");\n        eventsales[event_id].push(msg.sender);\n        uint type_count = getTicketTypeCount(event_id);\n        return type_count;\n    }\n\n    //TODO - return ticketIDs(?)\n    function buyTicket(address buyer, uint256 ticketAmount, uint256 event_id, uint _ticket_type) public{\n        address[] memory _sales = eventsales[event_id];\n        address _sale = _sales[_ticket_type];\n        require(_sale == msg.sender, \"you should call buyTicket from ticketsale contract\");\n        for (uint256 i = 0; i < ticketAmount; i++ ){\n            _ticket_id_count.increment();\n            uint256 ticket_id = _ticket_id_count.current();\n            addMinter(msg.sender);\n            _mint(buyer,ticket_id);\n            ticketInfoStorage[ticket_id] = TicketInfo(TicketState.Paid,_ticket_type);\n            ticketIndex[ticket_id] = ticketIds[event_id].length;\n            ticketIds[event_id].push(ticket_id);\n            // approve for ticketsale (msg.sender = ticketsale)\n            approve(msg.sender, ticket_id);\n            emit TicketBought(buyer,event_id,ticket_id);\n            emit TicketBoughtHuman(buyer,event_id,ticket_id);\n        }\n\n    }\n\n    // This function is burning tokens.\n    // @deprecated\n    /*\n    function redeemTicket(address owner,uint256 tokenId, uint256 event_id) public{\n        require(eventsales[event_id] == msg.sender, \"caller doesn't match with event_id\");\n        super._burn(owner,tokenId);\n\n       // To prevent a gap in the tokens array, we store the last token in the index of the token to delete, and\n       // then delete the last slot (swap and pop).\n\n\n        uint256 ticket_index = ticketIndex[tokenId];\n        uint256 lastTicketIndex = ticketIds[event_id].length.sub(1);\n\n      //  uint256[] storage ticketIdArray = ticketIds[event_id];\n      //  uint256 lastTicketId = ticketIdArray[lastTicketIndex];\n\n        uint256 lastTicketId = ticketIds[event_id][lastTicketIndex];\n\n\n        ticketIds[event_id][ticket_index] = lastTicketId; // Move the last token to the slot of the to-delete token\n        ticketIndex[lastTicketId] = ticket_index;         // Update the moved token's index\n\n        ticketIds[event_id].length--;  // remove last element in array\n        ticketIndex[tokenId] = 0;\n\n\n    }\n    */\n\n\n     function redeemTicket(address visitor, uint256 tokenId, uint256 event_id) public{\n        address[] memory _sales = eventsales[event_id];\n        TicketInfo memory info = ticketInfoStorage[tokenId];\n        address _sale = _sales[info.ticket_type];\n        require(_sale == msg.sender, \"you should call scan from ticketsale contract\");\n        require(ticketInfoStorage[tokenId].state == TicketState.Paid, \"Ticket state must be Paid\");\n        info.state = TicketState.Fulfilled;\n        ticketInfoStorage[tokenId] = info;\n        emit TicketFulfilled(visitor,event_id,tokenId);\n        emit TicketFulfilledHuman(visitor, event_id,tokenId);\n    }\n\n\n    function getTicketTypeCount(uint256 event_id) public view returns(uint) {\n        address[] memory _sales = eventsales[event_id];\n        uint ticket_type = _sales.length;\n        return ticket_type;\n    }\n\n    function getTicketByOwner(address _owner) public view returns(uint256[] memory) {\n        uint256[] storage tickets = _tokensOfOwner(_owner);\n        return tickets;\n    }\n\n}",
  "sourcePath": "/home/jack/ethProjects/MS-Factory/contracts/721/singleton/Ticket721.sol",
  "compiler": {
    "name": "solc",
    "version": "0.5.16+commit.9c3226ce.Emscripten.clang"
  },
  "schemaVersion": "3.0.11",
  "updatedAt": "2020-03-17T06:13:16.269Z",
  "devdoc": {
    "methods": {
      "approve(address,uint256)": {
        "details": "Approves another address to transfer the given token ID The zero address indicates there is no approved address. There can only be one approved address per token at a given time. Can only be called by the token owner or an approved operator.",
        "params": {
          "to": "address to be approved for the given token ID",
          "tokenId": "uint256 ID of the token to be approved"
        }
      },
      "balanceOf(address)": {
        "details": "Gets the balance of the specified address.",
        "params": {
          "owner": "address to query the balance of"
        },
        "return": "uint256 representing the amount owned by the passed address"
      },
      "getApproved(uint256)": {
        "details": "Gets the approved address for a token ID, or zero if no address set Reverts if the token ID does not exist.",
        "params": {
          "tokenId": "uint256 ID of the token to query the approval of"
        },
        "return": "address currently approved for the given token ID"
      },
      "isApprovedForAll(address,address)": {
        "details": "Tells whether an operator is approved by a given owner.",
        "params": {
          "operator": "operator address which you want to query the approval of",
          "owner": "owner address which you want to query the approval of"
        },
        "return": "bool whether the given operator is approved by the given owner"
      },
      "mint(address,uint256)": {
        "details": "Function to mint tokens.",
        "params": {
          "to": "The address that will receive the minted token.",
          "tokenId": "The token id to mint."
        },
        "return": "A boolean that indicates if the operation was successful."
      },
      "ownerOf(uint256)": {
        "details": "Gets the owner of the specified token ID.",
        "params": {
          "tokenId": "uint256 ID of the token to query the owner of"
        },
        "return": "address currently marked as the owner of the given token ID"
      },
      "safeMint(address,uint256)": {
        "details": "Function to safely mint tokens.",
        "params": {
          "to": "The address that will receive the minted token.",
          "tokenId": "The token id to mint."
        },
        "return": "A boolean that indicates if the operation was successful."
      },
      "safeMint(address,uint256,bytes)": {
        "details": "Function to safely mint tokens.",
        "params": {
          "_data": "bytes data to send along with a safe transfer check.",
          "to": "The address that will receive the minted token.",
          "tokenId": "The token id to mint."
        },
        "return": "A boolean that indicates if the operation was successful."
      },
      "safeTransferFrom(address,address,uint256)": {
        "details": "Safely transfers the ownership of a given token ID to another address If the target address is a contract, it must implement {IERC721Receiver-onERC721Received}, which is called upon a safe transfer, and return the magic value `bytes4(keccak256(\"onERC721Received(address,address,uint256,bytes)\"))`; otherwise, the transfer is reverted. Requires the msg.sender to be the owner, approved, or operator",
        "params": {
          "from": "current owner of the token",
          "to": "address to receive the ownership of the given token ID",
          "tokenId": "uint256 ID of the token to be transferred"
        }
      },
      "safeTransferFrom(address,address,uint256,bytes)": {
        "details": "Safely transfers the ownership of a given token ID to another address If the target address is a contract, it must implement {IERC721Receiver-onERC721Received}, which is called upon a safe transfer, and return the magic value `bytes4(keccak256(\"onERC721Received(address,address,uint256,bytes)\"))`; otherwise, the transfer is reverted. Requires the _msgSender() to be the owner, approved, or operator",
        "params": {
          "_data": "bytes data to send along with a safe transfer check",
          "from": "current owner of the token",
          "to": "address to receive the ownership of the given token ID",
          "tokenId": "uint256 ID of the token to be transferred"
        }
      },
      "setApprovalForAll(address,bool)": {
        "details": "Sets or unsets the approval of a given operator An operator is allowed to transfer all tokens of the sender on their behalf.",
        "params": {
          "approved": "representing the status of the approval to be set",
          "to": "operator address to set the approval"
        }
      },
      "supportsInterface(bytes4)": {
        "details": "See {IERC165-supportsInterface}.     * Time complexity O(1), guaranteed to always use less than 30 000 gas."
      },
      "tokenByIndex(uint256)": {
        "details": "Gets the token ID at a given index of all the tokens in this contract Reverts if the index is greater or equal to the total number of tokens.",
        "params": {
          "index": "uint256 representing the index to be accessed of the tokens list"
        },
        "return": "uint256 token ID at the given index of the tokens list"
      },
      "tokenOfOwnerByIndex(address,uint256)": {
        "details": "Gets the token ID at a given index of the tokens list of the requested owner.",
        "params": {
          "index": "uint256 representing the index to be accessed of the requested tokens list",
          "owner": "address owning the tokens list to be accessed"
        },
        "return": "uint256 token ID at the given index of the tokens list owned by the requested address"
      },
      "totalSupply()": {
        "details": "Gets the total amount of tokens stored by the contract.",
        "return": "uint256 representing the total amount of tokens"
      },
      "transferFrom(address,address,uint256)": {
        "details": "Transfers the ownership of a given token ID to another address. Usage of this method is discouraged, use {safeTransferFrom} whenever possible. Requires the msg.sender to be the owner, approved, or operator.",
        "params": {
          "from": "current owner of the token",
          "to": "address to receive the ownership of the given token ID",
          "tokenId": "uint256 ID of the token to be transferred"
        }
      }
    }
  },
  "userdoc": {
    "methods": {},
    "notice": "ERC-721 is non-fungible token.  So, each tokenID is a unique ticket Usefull tips: // Mapping from owner to list of owned token IDs mapping(address => uint256[]) private _ownedTokens; // Mapping from token ID to index of the owner tokens list mapping(uint256 => uint256) private _ownedTokensIndex; // Array with all token ids, used for enumeration uint256[] private _allTokens; // Mapping from token id to position in the allTokens array mapping(uint256 => uint256) private _allTokensIndex; Gets the list of token IDs of the requested owner. function _tokensOfOwner(address owner) internal view returns (uint256[] storage) { return _ownedTokens[owner]; }*"
  }
}