{
  "contractName": "TicketFactory721",
  "abi": [
    {
      "inputs": [],
      "payable": false,
      "stateMutability": "nonpayable",
      "type": "constructor"
    },
    {
      "anonymous": false,
      "inputs": [
        {
          "indexed": true,
          "internalType": "address",
          "name": "organizer",
          "type": "address"
        },
        {
          "indexed": true,
          "internalType": "address",
          "name": "orginal_sale",
          "type": "address"
        },
        {
          "indexed": true,
          "internalType": "uint256",
          "name": "event_id",
          "type": "uint256"
        }
      ],
      "name": "PluggedSale",
      "type": "event"
    },
    {
      "anonymous": false,
      "inputs": [
        {
          "indexed": false,
          "internalType": "address",
          "name": "organizer",
          "type": "address"
        },
        {
          "indexed": false,
          "internalType": "address",
          "name": "original_sale",
          "type": "address"
        },
        {
          "indexed": false,
          "internalType": "uint256",
          "name": "event_id",
          "type": "uint256"
        }
      ],
      "name": "PluggedSaleHuman",
      "type": "event"
    },
    {
      "anonymous": false,
      "inputs": [
        {
          "indexed": true,
          "internalType": "address",
          "name": "organizer",
          "type": "address"
        },
        {
          "indexed": false,
          "internalType": "uint256",
          "name": "price",
          "type": "uint256"
        },
        {
          "indexed": true,
          "internalType": "uint256",
          "name": "event_id",
          "type": "uint256"
        }
      ],
      "name": "SaleCreated",
      "type": "event"
    },
    {
      "anonymous": false,
      "inputs": [
        {
          "indexed": false,
          "internalType": "address",
          "name": "organizer",
          "type": "address"
        },
        {
          "indexed": false,
          "internalType": "uint256",
          "name": "price",
          "type": "uint256"
        },
        {
          "indexed": false,
          "internalType": "uint256",
          "name": "event_id",
          "type": "uint256"
        }
      ],
      "name": "SaleCreatedHuman",
      "type": "event"
    },
    {
      "constant": false,
      "inputs": [
        {
          "internalType": "address payable",
          "name": "organizer",
          "type": "address"
        },
        {
          "internalType": "uint256",
          "name": "price",
          "type": "uint256"
        }
      ],
      "name": "createTicketSale",
      "outputs": [
        {
          "internalType": "address payable",
          "name": "ticket_sale_adr",
          "type": "address"
        },
        {
          "internalType": "uint256",
          "name": "event_id",
          "type": "uint256"
        }
      ],
      "payable": false,
      "stateMutability": "nonpayable",
      "type": "function"
    },
    {
      "constant": false,
      "inputs": [
        {
          "internalType": "address payable",
          "name": "origin_sale",
          "type": "address"
        },
        {
          "internalType": "uint256",
          "name": "price",
          "type": "uint256"
        }
      ],
      "name": "PlugInTicketSale",
      "outputs": [
        {
          "internalType": "address payable",
          "name": "plugin_sale",
          "type": "address"
        }
      ],
      "payable": false,
      "stateMutability": "nonpayable",
      "type": "function"
    }
  ],
  "bytecode": "0x608060405234801561001057600080fd5b5061001f61006360201b60201c565b6000806101000a81548173ffffffffffffffffffffffffffffffffffffffff021916908373ffffffffffffffffffffffffffffffffffffffff1602179055506100df565b60008030905080604051610076906100d2565b808273ffffffffffffffffffffffffffffffffffffffff1673ffffffffffffffffffffffffffffffffffffffff168152602001915050604051809103906000f0801580156100c8573d6000803e3d6000fd5b5091508191505090565b613d208061272b83390190565b61263d806100ee6000396000f3fe608060405234801561001057600080fd5b50600436106100365760003560e01c8063a73366041461003b578063f35bd9ae146100d0575b600080fd5b6100876004803603604081101561005157600080fd5b81019080803573ffffffffffffffffffffffffffffffffffffffff1690602001909291908035906020019092919050505061015e565b604051808373ffffffffffffffffffffffffffffffffffffffff1673ffffffffffffffffffffffffffffffffffffffff1681526020018281526020019250505060405180910390f35b61011c600480360360408110156100e657600080fd5b81019080803573ffffffffffffffffffffffffffffffffffffffff169060200190929190803590602001909291905050506102f3565b604051808273ffffffffffffffffffffffffffffffffffffffff1673ffffffffffffffffffffffffffffffffffffffff16815260200191505060405180910390f35b60008060008060009054906101000a900473ffffffffffffffffffffffffffffffffffffffff16905060008190506101978686836104fb565b935060008490508073ffffffffffffffffffffffffffffffffffffffff166391039dee6040518163ffffffff1660e01b815260040160206040518083038186803b1580156101e457600080fd5b505afa1580156101f8573d6000803e3d6000fd5b505050506040513d602081101561020e57600080fd5b81019080805190602001909291905050509350838773ffffffffffffffffffffffffffffffffffffffff167f2c5a9de64e99c2ab1b836ad03048ec0bef7c0a2af3dd947595c46274e50a7c82886040518082815260200191505060405180910390a37f4d836fa2917c6df642a57f790642d07fb679a48e39dd94f719645ec9cc03bd8f878786604051808473ffffffffffffffffffffffffffffffffffffffff1673ffffffffffffffffffffffffffffffffffffffff168152602001838152602001828152602001935050505060405180910390a18484945094505050509250929050565b6000806102ff836105b2565b9050808460405161030f906105c9565b808381526020018273ffffffffffffffffffffffffffffffffffffffff1673ffffffffffffffffffffffffffffffffffffffff16815260200192505050604051809103906000f080158015610368573d6000803e3d6000fd5b509150600084905060008173ffffffffffffffffffffffffffffffffffffffff166391039dee6040518163ffffffff1660e01b815260040160206040518083038186803b1580156103b857600080fd5b505afa1580156103cc573d6000803e3d6000fd5b505050506040513d60208110156103e257600080fd5b81019080805190602001909291905050509050808673ffffffffffffffffffffffffffffffffffffffff163373ffffffffffffffffffffffffffffffffffffffff167f80ea680f0864b200472457d5e9db6c7ab4390228ca763e8159260f99ff4c07e460405160405180910390a47fd224f16d25281ddd265d3572339439c7b0c4ed0edf208b6b48ec27f530dc0aca338783604051808473ffffffffffffffffffffffffffffffffffffffff1673ffffffffffffffffffffffffffffffffffffffff1681526020018373ffffffffffffffffffffffffffffffffffffffff1673ffffffffffffffffffffffffffffffffffffffff168152602001828152602001935050505060405180910390a183935050505092915050565b600080610507846105b2565b9050808584604051610518906105d6565b808481526020018373ffffffffffffffffffffffffffffffffffffffff1673ffffffffffffffffffffffffffffffffffffffff1681526020018273ffffffffffffffffffffffffffffffffffffffff1673ffffffffffffffffffffffffffffffffffffffff1681526020019350505050604051809103906000f0801580156105a4573d6000803e3d6000fd5b509150819150509392505050565b6000670de0b6b3a764000082029050809050919050565b611177806105e483390190565b610eae8061175b8339019056fe608060405234801561001057600080fd5b506040516111773803806111778339818101604052604081101561003357600080fd5b810190808051906020019092919080519060200190929190505050818160016000806101000a81548160ff021916908315150217905550600082116100e0576040517f08c379a00000000000000000000000000000000000000000000000000000000081526004018080602001828103825260148152602001807f43726f776473616c653a2072617465206973203000000000000000000000000081525060200191505060405180910390fd5b600073ffffffffffffffffffffffffffffffffffffffff168173ffffffffffffffffffffffffffffffffffffffff161415610183576040517f08c379a000000000000000000000000000000000000000000000000000000000815260040180806020018281038252601d8152602001807f6f726967696e2063616e6e6f74206265207a65726f206164647265737300000081525060200191505060405180910390fd5b600160009054906101000a900473ffffffffffffffffffffffffffffffffffffffff1673ffffffffffffffffffffffffffffffffffffffff1663521eb2736040518163ffffffff1660e01b815260040160206040518083038186803b1580156101eb57600080fd5b505afa1580156101ff573d6000803e3d6000fd5b505050506040513d602081101561021557600080fd5b8101908080519060200190929190505050600460006101000a81548173ffffffffffffffffffffffffffffffffffffffff021916908373ffffffffffffffffffffffffffffffffffffffff1602179055503373ffffffffffffffffffffffffffffffffffffffff16600460009054906101000a900473ffffffffffffffffffffffffffffffffffffffff1673ffffffffffffffffffffffffffffffffffffffff161461030c576040517f08c379a00000000000000000000000000000000000000000000000000000000081526004018080602001828103825260278152602001806111506027913960400191505060405180910390fd5b80600160006101000a81548173ffffffffffffffffffffffffffffffffffffffff021916908373ffffffffffffffffffffffffffffffffffffffff16021790555081600581905550600160009054906101000a900473ffffffffffffffffffffffffffffffffffffffff1673ffffffffffffffffffffffffffffffffffffffff1663fc0c546a6040518163ffffffff1660e01b815260040160206040518083038186803b1580156103bc57600080fd5b505afa1580156103d0573d6000803e3d6000fd5b505050506040513d60208110156103e657600080fd5b8101908080519060200190929190505050600060016101000a81548173ffffffffffffffffffffffffffffffffffffffff021916908373ffffffffffffffffffffffffffffffffffffffff160217905550600160009054906101000a900473ffffffffffffffffffffffffffffffffffffffff1673ffffffffffffffffffffffffffffffffffffffff166391039dee6040518163ffffffff1660e01b815260040160206040518083038186803b15801561049f57600080fd5b505afa1580156104b3573d6000803e3d6000fd5b505050506040513d60208110156104c957600080fd5b8101908080519060200190929190505050600281905550600060019054906101000a900473ffffffffffffffffffffffffffffffffffffffff1673ffffffffffffffffffffffffffffffffffffffff1663645c0fb0600254600460009054906101000a900473ffffffffffffffffffffffffffffffffffffffff166040518363ffffffff1660e01b8152600401808381526020018273ffffffffffffffffffffffffffffffffffffffff1673ffffffffffffffffffffffffffffffffffffffff16815260200192505050602060405180830381600087803b1580156105ad57600080fd5b505af11580156105c1573d6000803e3d6000fd5b505050506040513d60208110156105d757600080fd5b810190808051906020019092919050505060038190555050505050610b4f806106016000396000f3fe6080604052600436106100a75760003560e01c80636ed08ea0116100645780636ed08ea01461026f57806391039dee1461029a578063a5f8cdbb146102c5578063ec8ac4d814610309578063ecd0c0c31461034d578063fc0c546a146103a4576100a7565b80632c4e722e146100b95780634042b66f146100e457806341035a411461010f578063521eb27314610166578063610757e4146101bd5780636c1e81e314610214575b6100b76100b26103fb565b610403565b005b3480156100c557600080fd5b506100ce61040f565b6040518082815260200191505060405180910390f35b3480156100f057600080fd5b506100f9610419565b6040518082815260200191505060405180910390f35b34801561011b57600080fd5b50610124610423565b604051808273ffffffffffffffffffffffffffffffffffffffff1673ffffffffffffffffffffffffffffffffffffffff16815260200191505060405180910390f35b34801561017257600080fd5b5061017b610449565b604051808273ffffffffffffffffffffffffffffffffffffffff1673ffffffffffffffffffffffffffffffffffffffff16815260200191505060405180910390f35b3480156101c957600080fd5b506101d2610473565b604051808273ffffffffffffffffffffffffffffffffffffffff1673ffffffffffffffffffffffffffffffffffffffff16815260200191505060405180910390f35b34801561022057600080fd5b5061026d6004803603604081101561023757600080fd5b81019080803573ffffffffffffffffffffffffffffffffffffffff16906020019092919080359060200190929190505050610499565b005b34801561027b57600080fd5b5061028461055e565b6040518082815260200191505060405180910390f35b3480156102a657600080fd5b506102af610564565b6040518082815260200191505060405180910390f35b610307600480360360208110156102db57600080fd5b81019080803573ffffffffffffffffffffffffffffffffffffffff169060200190929190505050610403565b005b61034b6004803603602081101561031f57600080fd5b81019080803573ffffffffffffffffffffffffffffffffffffffff16906020019092919050505061056e565b005b34801561035957600080fd5b506103626106f9565b604051808273ffffffffffffffffffffffffffffffffffffffff1673ffffffffffffffffffffffffffffffffffffffff16815260200191505060405180910390f35b3480156103b057600080fd5b506103b961071f565b604051808273ffffffffffffffffffffffffffffffffffffffff1673ffffffffffffffffffffffffffffffffffffffff16815260200191505060405180910390f35b600033905090565b61040c8161056e565b50565b6000600554905090565b6000600654905090565b600160009054906101000a900473ffffffffffffffffffffffffffffffffffffffff1681565b6000600460009054906101000a900473ffffffffffffffffffffffffffffffffffffffff16905090565b600460009054906101000a900473ffffffffffffffffffffffffffffffffffffffff1681565b60006104a361071f565b905060006104af610564565b90508173ffffffffffffffffffffffffffffffffffffffff1663a27c282e8585846040518463ffffffff1660e01b8152600401808473ffffffffffffffffffffffffffffffffffffffff1673ffffffffffffffffffffffffffffffffffffffff1681526020018381526020018281526020019350505050600060405180830381600087803b15801561054057600080fd5b505af1158015610554573d6000803e3d6000fd5b5050505050505050565b60025481565b6000600254905090565b6000809054906101000a900460ff166105ef576040517f08c379a000000000000000000000000000000000000000000000000000000000815260040180806020018281038252601f8152602001807f5265656e7472616e637947756172643a207265656e7472616e742063616c6c0081525060200191505060405180910390fd5b60008060006101000a81548160ff02191690831515021790555060003490506106188282610748565b600061062382610849565b905061063a8260065461086790919063ffffffff16565b60068190555061064a83826108ef565b8273ffffffffffffffffffffffffffffffffffffffff166106696103fb565b73ffffffffffffffffffffffffffffffffffffffff167f6faf93231a456e552dbc9961f58d9713ee4f2e69d15f1975b050ef0911053a7b8484604051808381526020018281526020019250505060405180910390a36106c883836108fd565b6106d0610901565b6106da838361096c565b505060016000806101000a81548160ff02191690831515021790555050565b600060019054906101000a900473ffffffffffffffffffffffffffffffffffffffff1681565b60008060019054906101000a900473ffffffffffffffffffffffffffffffffffffffff16905090565b600073ffffffffffffffffffffffffffffffffffffffff168273ffffffffffffffffffffffffffffffffffffffff1614156107ce576040517f08c379a000000000000000000000000000000000000000000000000000000000815260040180806020018281038252602a815260200180610af1602a913960400191505060405180910390fd5b6000811415610845576040517f08c379a00000000000000000000000000000000000000000000000000000000081526004018080602001828103825260198152602001807f43726f776473616c653a20776569416d6f756e7420697320300000000000000081525060200191505060405180910390fd5b5050565b60006108606005548361097090919063ffffffff16565b9050919050565b6000808284019050838110156108e5576040517f08c379a000000000000000000000000000000000000000000000000000000000815260040180806020018281038252601b8152602001807f536166654d6174683a206164646974696f6e206f766572666c6f77000000000081525060200191505060405180910390fd5b8091505092915050565b6108f982826109f6565b5050565b5050565b600460009054906101000a900473ffffffffffffffffffffffffffffffffffffffff1673ffffffffffffffffffffffffffffffffffffffff166108fc349081150290604051600060405180830381858888f19350505050158015610969573d6000803e3d6000fd5b50565b5050565b60008083141561098357600090506109f0565b600082840290508284828161099457fe5b04146109eb576040517f08c379a0000000000000000000000000000000000000000000000000000000008152600401808060200182810382526021815260200180610ad06021913960400191505060405180910390fd5b809150505b92915050565b600060019054906101000a900473ffffffffffffffffffffffffffffffffffffffff1673ffffffffffffffffffffffffffffffffffffffff1663cd3a15f883836002546003546040518563ffffffff1660e01b8152600401808573ffffffffffffffffffffffffffffffffffffffff1673ffffffffffffffffffffffffffffffffffffffff168152602001848152602001838152602001828152602001945050505050600060405180830381600087803b158015610ab357600080fd5b505af1158015610ac7573d6000803e3d6000fd5b50505050505056fe536166654d6174683a206d756c7469706c69636174696f6e206f766572666c6f7743726f776473616c653a2062656e656669636961727920697320746865207a65726f2061646472657373a265627a7a72315820ae8c6fe07a33cb3f77277897fb18b6963e0500c36ae72ff482bd19c555a1428064736f6c634300051000326f6e6c79206f726967696e206f7267616e697a65722063616e20706c7567206e65772073616c656080604052600160025534801561001557600080fd5b50604051610eae380380610eae8339818101604052606081101561003857600080fd5b8101908080519060200190929190805190602001909291908051906020019092919050505082828260016000806101000a81548160ff021916908315150217905550600083116100f0576040517f08c379a00000000000000000000000000000000000000000000000000000000081526004018080602001828103825260148152602001807f43726f776473616c653a2072617465206973203000000000000000000000000081525060200191505060405180910390fd5b600073ffffffffffffffffffffffffffffffffffffffff168273ffffffffffffffffffffffffffffffffffffffff161415610176576040517f08c379a0000000000000000000000000000000000000000000000000000000008152600401808060200182810382526025815260200180610e896025913960400191505060405180910390fd5b600073ffffffffffffffffffffffffffffffffffffffff168173ffffffffffffffffffffffffffffffffffffffff1614156101fc576040517f08c379a0000000000000000000000000000000000000000000000000000000008152600401808060200182810382526024815260200180610e656024913960400191505060405180910390fd5b8260048190555081600360006101000a81548173ffffffffffffffffffffffffffffffffffffffff021916908373ffffffffffffffffffffffffffffffffffffffff16021790555080600060016101000a81548173ffffffffffffffffffffffffffffffffffffffff021916908373ffffffffffffffffffffffffffffffffffffffff160217905550600060019054906101000a900473ffffffffffffffffffffffffffffffffffffffff1673ffffffffffffffffffffffffffffffffffffffff16634c0eb465600360009054906101000a900473ffffffffffffffffffffffffffffffffffffffff166040518263ffffffff1660e01b8152600401808273ffffffffffffffffffffffffffffffffffffffff1673ffffffffffffffffffffffffffffffffffffffff168152602001915050602060405180830381600087803b15801561034857600080fd5b505af115801561035c573d6000803e3d6000fd5b505050506040513d602081101561037257600080fd5b8101908080519060200190929190505050600181905550505050505050610ac78061039e6000396000f3fe60806040526004361061009c5760003560e01c80636ed08ea0116100645780636ed08ea01461020d57806391039dee14610238578063a5f8cdbb14610263578063ec8ac4d8146102a7578063ecd0c0c3146102eb578063fc0c546a146103425761009c565b80632c4e722e146100ae5780634042b66f146100d9578063521eb27314610104578063610757e41461015b5780636c1e81e3146101b2575b6100ac6100a7610399565b6103a1565b005b3480156100ba57600080fd5b506100c36103ad565b6040518082815260200191505060405180910390f35b3480156100e557600080fd5b506100ee6103b7565b6040518082815260200191505060405180910390f35b34801561011057600080fd5b506101196103c1565b604051808273ffffffffffffffffffffffffffffffffffffffff1673ffffffffffffffffffffffffffffffffffffffff16815260200191505060405180910390f35b34801561016757600080fd5b506101706103eb565b604051808273ffffffffffffffffffffffffffffffffffffffff1673ffffffffffffffffffffffffffffffffffffffff16815260200191505060405180910390f35b3480156101be57600080fd5b5061020b600480360360408110156101d557600080fd5b81019080803573ffffffffffffffffffffffffffffffffffffffff16906020019092919080359060200190929190505050610411565b005b34801561021957600080fd5b506102226104d6565b6040518082815260200191505060405180910390f35b34801561024457600080fd5b5061024d6104dc565b6040518082815260200191505060405180910390f35b6102a56004803603602081101561027957600080fd5b81019080803573ffffffffffffffffffffffffffffffffffffffff1690602001909291905050506103a1565b005b6102e9600480360360208110156102bd57600080fd5b81019080803573ffffffffffffffffffffffffffffffffffffffff1690602001909291905050506104e6565b005b3480156102f757600080fd5b50610300610671565b604051808273ffffffffffffffffffffffffffffffffffffffff1673ffffffffffffffffffffffffffffffffffffffff16815260200191505060405180910390f35b34801561034e57600080fd5b50610357610697565b604051808273ffffffffffffffffffffffffffffffffffffffff1673ffffffffffffffffffffffffffffffffffffffff16815260200191505060405180910390f35b600033905090565b6103aa816104e6565b50565b6000600454905090565b6000600554905090565b6000600360009054906101000a900473ffffffffffffffffffffffffffffffffffffffff16905090565b600360009054906101000a900473ffffffffffffffffffffffffffffffffffffffff1681565b600061041b610697565b905060006104276104dc565b90508173ffffffffffffffffffffffffffffffffffffffff1663a27c282e8585846040518463ffffffff1660e01b8152600401808473ffffffffffffffffffffffffffffffffffffffff1673ffffffffffffffffffffffffffffffffffffffff1681526020018381526020018281526020019350505050600060405180830381600087803b1580156104b857600080fd5b505af11580156104cc573d6000803e3d6000fd5b5050505050505050565b60015481565b6000600154905090565b6000809054906101000a900460ff16610567576040517f08c379a000000000000000000000000000000000000000000000000000000000815260040180806020018281038252601f8152602001807f5265656e7472616e637947756172643a207265656e7472616e742063616c6c0081525060200191505060405180910390fd5b60008060006101000a81548160ff021916908315150217905550600034905061059082826106c0565b600061059b826107c1565b90506105b2826005546107df90919063ffffffff16565b6005819055506105c28382610867565b8273ffffffffffffffffffffffffffffffffffffffff166105e1610399565b73ffffffffffffffffffffffffffffffffffffffff167f6faf93231a456e552dbc9961f58d9713ee4f2e69d15f1975b050ef0911053a7b8484604051808381526020018281526020019250505060405180910390a36106408383610875565b610648610879565b61065283836108e4565b505060016000806101000a81548160ff02191690831515021790555050565b600060019054906101000a900473ffffffffffffffffffffffffffffffffffffffff1681565b60008060019054906101000a900473ffffffffffffffffffffffffffffffffffffffff16905090565b600073ffffffffffffffffffffffffffffffffffffffff168273ffffffffffffffffffffffffffffffffffffffff161415610746576040517f08c379a000000000000000000000000000000000000000000000000000000000815260040180806020018281038252602a815260200180610a69602a913960400191505060405180910390fd5b60008114156107bd576040517f08c379a00000000000000000000000000000000000000000000000000000000081526004018080602001828103825260198152602001807f43726f776473616c653a20776569416d6f756e7420697320300000000000000081525060200191505060405180910390fd5b5050565b60006107d8600454836108e890919063ffffffff16565b9050919050565b60008082840190508381101561085d576040517f08c379a000000000000000000000000000000000000000000000000000000000815260040180806020018281038252601b8152602001807f536166654d6174683a206164646974696f6e206f766572666c6f77000000000081525060200191505060405180910390fd5b8091505092915050565b610871828261096e565b5050565b5050565b600360009054906101000a900473ffffffffffffffffffffffffffffffffffffffff1673ffffffffffffffffffffffffffffffffffffffff166108fc349081150290604051600060405180830381858888f193505050501580156108e1573d6000803e3d6000fd5b50565b5050565b6000808314156108fb5760009050610968565b600082840290508284828161090c57fe5b0414610963576040517f08c379a0000000000000000000000000000000000000000000000000000000008152600401808060200182810382526021815260200180610a486021913960400191505060405180910390fd5b809150505b92915050565b600060019054906101000a900473ffffffffffffffffffffffffffffffffffffffff1673ffffffffffffffffffffffffffffffffffffffff1663cd3a15f883836001546002546040518563ffffffff1660e01b8152600401808573ffffffffffffffffffffffffffffffffffffffff1673ffffffffffffffffffffffffffffffffffffffff168152602001848152602001838152602001828152602001945050505050600060405180830381600087803b158015610a2b57600080fd5b505af1158015610a3f573d6000803e3d6000fd5b50505050505056fe536166654d6174683a206d756c7469706c69636174696f6e206f766572666c6f7743726f776473616c653a2062656e656669636961727920697320746865207a65726f2061646472657373a265627a7a723158200e4f0dd4dd6f5a69c27ae7382f00ead14f008918f7843be05931468f509a811264736f6c6343000510003243726f776473616c653a20746f6b656e20697320746865207a65726f206164647265737343726f776473616c653a2077616c6c657420697320746865207a65726f2061646472657373a265627a7a72315820e0d9aa2a05956381a6a2adabb75999c5d7b963ceec7a3ac09107e25e8e6ebe6d64736f6c6343000510003260806040523480156200001157600080fd5b5060405162003d2038038062003d20833981810160405260208110156200003757600080fd5b8101908080519060200190929190505050620000606301ffc9a760e01b620000b760201b60201c565b620000786380ac58cd60e01b620000b760201b60201c565b6200009063780e9d6360e01b620000b760201b60201c565b620000b0620000a4620001c060201b60201c565b620001c860201b60201c565b50620003ed565b63ffffffff60e01b817bffffffffffffffffffffffffffffffffffffffffffffffffffffffff1916141562000154576040517f08c379a000000000000000000000000000000000000000000000000000000000815260040180806020018281038252601c8152602001807f4552433136353a20696e76616c696420696e746572666163652069640000000081525060200191505060405180910390fd5b6001600080837bffffffffffffffffffffffffffffffffffffffffffffffffffffffff19167bffffffffffffffffffffffffffffffffffffffffffffffffffffffff1916815260200190815260200160002060006101000a81548160ff02191690831515021790555050565b600033905090565b620001e38160096200022960201b620031ab1790919060201c565b8073ffffffffffffffffffffffffffffffffffffffff167f6ae172837ea30b801fbfcdd4108aa1d5bf8ff775444fd70256b44e6bf3dfc3f660405160405180910390a250565b6200023b82826200030d60201b60201c565b15620002af576040517f08c379a000000000000000000000000000000000000000000000000000000000815260040180806020018281038252601f8152602001807f526f6c65733a206163636f756e7420616c72656164792068617320726f6c650081525060200191505060405180910390fd5b60018260000160008373ffffffffffffffffffffffffffffffffffffffff1673ffffffffffffffffffffffffffffffffffffffff16815260200190815260200160002060006101000a81548160ff0219169083151502179055505050565b60008073ffffffffffffffffffffffffffffffffffffffff168273ffffffffffffffffffffffffffffffffffffffff16141562000396576040517f08c379a000000000000000000000000000000000000000000000000000000000815260040180806020018281038252602281526020018062003cfe6022913960400191505060405180910390fd5b8260000160008373ffffffffffffffffffffffffffffffffffffffff1673ffffffffffffffffffffffffffffffffffffffff16815260200190815260200160002060009054906101000a900460ff16905092915050565b61390180620003fd6000396000f3fe608060405234801561001057600080fd5b506004361061018e5760003560e01c80638832e6e3116100de578063a27c282e11610097578063b88d4fde11610071578063b88d4fde146109d3578063cd3a15f814610ad8578063e985e9c514610b3a578063ec95d2d014610bb65761018e565b8063a27c282e146108b1578063aa271e1a14610909578063ab31520a146109655761018e565b80638832e6e314610638578063983b2d561461073557806398650275146107795780639b1d8baf14610783578063a1448194146107fb578063a22cb465146108615761018e565b806340c10f191161014b5780634f6ccce7116101255780634f6ccce7146104ce5780636352211e14610510578063645c0fb01461057e57806370a08231146105e05761018e565b806340c10f19146103a257806342842e0e146104085780634c0eb465146104765761018e565b806301ffc9a714610193578063081812fc146101f8578063095ea7b31461026657806318160ddd146102b457806323b872dd146102d25780632f745c5914610340575b600080fd5b6101de600480360360208110156101a957600080fd5b8101908080357bffffffffffffffffffffffffffffffffffffffffffffffffffffffff19169060200190929190505050610bf8565b604051808215151515815260200191505060405180910390f35b6102246004803603602081101561020e57600080fd5b8101908080359060200190929190505050610c5f565b604051808273ffffffffffffffffffffffffffffffffffffffff1673ffffffffffffffffffffffffffffffffffffffff16815260200191505060405180910390f35b6102b26004803603604081101561027c57600080fd5b81019080803573ffffffffffffffffffffffffffffffffffffffff16906020019092919080359060200190929190505050610cfa565b005b6102bc610ee1565b6040518082815260200191505060405180910390f35b61033e600480360360608110156102e857600080fd5b81019080803573ffffffffffffffffffffffffffffffffffffffff169060200190929190803573ffffffffffffffffffffffffffffffffffffffff16906020019092919080359060200190929190505050610eee565b005b61038c6004803603604081101561035657600080fd5b81019080803573ffffffffffffffffffffffffffffffffffffffff16906020019092919080359060200190929190505050610f64565b6040518082815260200191505060405180910390f35b6103ee600480360360408110156103b857600080fd5b81019080803573ffffffffffffffffffffffffffffffffffffffff16906020019092919080359060200190929190505050611023565b604051808215151515815260200191505060405180910390f35b6104746004803603606081101561041e57600080fd5b81019080803573ffffffffffffffffffffffffffffffffffffffff169060200190929190803573ffffffffffffffffffffffffffffffffffffffff1690602001909291908035906020019092919050505061109e565b005b6104b86004803603602081101561048c57600080fd5b81019080803573ffffffffffffffffffffffffffffffffffffffff1690602001909291905050506110be565b6040518082815260200191505060405180910390f35b6104fa600480360360208110156104e457600080fd5b8101908080359060200190929190505050611282565b6040518082815260200191505060405180910390f35b61053c6004803603602081101561052657600080fd5b8101908080359060200190929190505050611302565b604051808273ffffffffffffffffffffffffffffffffffffffff1673ffffffffffffffffffffffffffffffffffffffff16815260200191505060405180910390f35b6105ca6004803603604081101561059457600080fd5b8101908080359060200190929190803573ffffffffffffffffffffffffffffffffffffffff1690602001909291905050506113ca565b6040518082815260200191505060405180910390f35b610622600480360360208110156105f657600080fd5b81019080803573ffffffffffffffffffffffffffffffffffffffff169060200190929190505050611611565b6040518082815260200191505060405180910390f35b61071b6004803603606081101561064e57600080fd5b81019080803573ffffffffffffffffffffffffffffffffffffffff169060200190929190803590602001909291908035906020019064010000000081111561069557600080fd5b8201836020820111156106a757600080fd5b803590602001918460018302840111640100000000831117156106c957600080fd5b91908080601f016020809104026020016040519081016040528093929190818152602001838380828437600081840152601f19601f8201169050808301925050505050505091929192905050506116e6565b604051808215151515815260200191505060405180910390f35b6107776004803603602081101561074b57600080fd5b81019080803573ffffffffffffffffffffffffffffffffffffffff169060200190929190505050611763565b005b6107816117d4565b005b6107b96004803603604081101561079957600080fd5b8101908080359060200190929190803590602001909291905050506117e6565b604051808273ffffffffffffffffffffffffffffffffffffffff1673ffffffffffffffffffffffffffffffffffffffff16815260200191505060405180910390f35b6108476004803603604081101561081157600080fd5b81019080803573ffffffffffffffffffffffffffffffffffffffff16906020019092919080359060200190929190505050611831565b604051808215151515815260200191505060405180910390f35b6108af6004803603604081101561087757600080fd5b81019080803573ffffffffffffffffffffffffffffffffffffffff1690602001909291908035151590602001909291905050506118ac565b005b610907600480360360608110156108c757600080fd5b81019080803573ffffffffffffffffffffffffffffffffffffffff1690602001909291908035906020019092919080359060200190929190505050611a64565b005b61094b6004803603602081101561091f57600080fd5b81019080803573ffffffffffffffffffffffffffffffffffffffff169060200190929190505050611ddb565b604051808215151515815260200191505060405180910390f35b6109d16004803603606081101561097b57600080fd5b81019080803573ffffffffffffffffffffffffffffffffffffffff169060200190929190803573ffffffffffffffffffffffffffffffffffffffff16906020019092919080359060200190929190505050611df8565b005b610ad6600480360360808110156109e957600080fd5b81019080803573ffffffffffffffffffffffffffffffffffffffff169060200190929190803573ffffffffffffffffffffffffffffffffffffffff1690602001909291908035906020019092919080359060200190640100000000811115610a5057600080fd5b820183602082011115610a6257600080fd5b80359060200191846001830284011164010000000083111715610a8457600080fd5b91908080601f016020809104026020016040519081016040528093929190818152602001838380828437600081840152601f19601f820116905080830192505050505050509192919290505050611e08565b005b610b3860048036036080811015610aee57600080fd5b81019080803573ffffffffffffffffffffffffffffffffffffffff169060200190929190803590602001909291908035906020019092919080359060200190929190505050611e80565b005b610b9c60048036036040811015610b5057600080fd5b81019080803573ffffffffffffffffffffffffffffffffffffffff169060200190929190803573ffffffffffffffffffffffffffffffffffffffff16906020019092919050505061219f565b604051808215151515815260200191505060405180910390f35b610be260048036036020811015610bcc57600080fd5b8101908080359060200190929190505050612233565b6040518082815260200191505060405180910390f35b6000806000837bffffffffffffffffffffffffffffffffffffffffffffffffffffffff19167bffffffffffffffffffffffffffffffffffffffffffffffffffffffff1916815260200190815260200160002060009054906101000a900460ff169050919050565b6000610c6a826122e1565b610cbf576040517f08c379a000000000000000000000000000000000000000000000000000000000815260040180806020018281038252602c8152602001806137d8602c913960400191505060405180910390fd5b6002600083815260200190815260200160002060009054906101000a900473ffffffffffffffffffffffffffffffffffffffff169050919050565b6000610d0582611302565b90508073ffffffffffffffffffffffffffffffffffffffff168373ffffffffffffffffffffffffffffffffffffffff161415610d8c576040517f08c379a000000000000000000000000000000000000000000000000000000000815260040180806020018281038252602181526020018061384f6021913960400191505060405180910390fd5b8073ffffffffffffffffffffffffffffffffffffffff16610dab612353565b73ffffffffffffffffffffffffffffffffffffffff161480610dda5750610dd981610dd4612353565b61219f565b5b610e2f576040517f08c379a00000000000000000000000000000000000000000000000000000000081526004018080602001828103825260388152602001806136fc6038913960400191505060405180910390fd5b826002600084815260200190815260200160002060006101000a81548173ffffffffffffffffffffffffffffffffffffffff021916908373ffffffffffffffffffffffffffffffffffffffff160217905550818373ffffffffffffffffffffffffffffffffffffffff168273ffffffffffffffffffffffffffffffffffffffff167f8c5be1e5ebec7d5bd14f71427d1e84f3dd0314c0f7b2291e5b200ac8c7c3b92560405160405180910390a4505050565b6000600780549050905090565b610eff610ef9612353565b8261235b565b610f54576040517f08c379a00000000000000000000000000000000000000000000000000000000081526004018080602001828103825260318152602001806138706031913960400191505060405180910390fd5b610f5f83838361244f565b505050565b6000610f6f83611611565b8210610fc6576040517f08c379a000000000000000000000000000000000000000000000000000000000815260040180806020018281038252602b81526020018061361d602b913960400191505060405180910390fd5b600560008473ffffffffffffffffffffffffffffffffffffffff1673ffffffffffffffffffffffffffffffffffffffff168152602001908152602001600020828154811061101057fe5b9060005260206000200154905092915050565b6000611035611030612353565b611ddb565b61108a576040517f08c379a00000000000000000000000000000000000000000000000000000000081526004018080602001828103825260308152602001806137876030913960400191505060405180910390fd5b6110948383612473565b6001905092915050565b6110b983838360405180602001604052806000815250611e08565b505050565b60006110ca600c612494565b6110d4600c6124aa565b9050600d60008281526020019081526020016000203390806001815401808255809150509060018203906000526020600020016000909192909190916101000a81548173ffffffffffffffffffffffffffffffffffffffff021916908373ffffffffffffffffffffffffffffffffffffffff1602179055505081601160003373ffffffffffffffffffffffffffffffffffffffff1673ffffffffffffffffffffffffffffffffffffffff16815260200190815260200160002060006101000a81548173ffffffffffffffffffffffffffffffffffffffff021916908373ffffffffffffffffffffffffffffffffffffffff160217905550803373ffffffffffffffffffffffffffffffffffffffff167fe7d1a453d66d83d6e4ffae7901ed08b56c3b1f53a1c43135c2de683e4529b65b60405160405180910390a37f0a554ff72c713dffd0372d9c23cc1e214c1dfefbadda4710f4eee43eb6229a7b3382604051808373ffffffffffffffffffffffffffffffffffffffff1673ffffffffffffffffffffffffffffffffffffffff1681526020018281526020019250505060405180910390a1809050919050565b600061128c610ee1565b82106112e3576040517f08c379a000000000000000000000000000000000000000000000000000000000815260040180806020018281038252602c8152602001806138a1602c913960400191505060405180910390fd5b600782815481106112f057fe5b90600052602060002001549050919050565b6000806001600084815260200190815260200160002060009054906101000a900473ffffffffffffffffffffffffffffffffffffffff169050600073ffffffffffffffffffffffffffffffffffffffff168173ffffffffffffffffffffffffffffffffffffffff1614156113c1576040517f08c379a000000000000000000000000000000000000000000000000000000000815260040180806020018281038252602981526020018061375e6029913960400191505060405180910390fd5b80915050919050565b60006060600d600085815260200190815260200160002080548060200260200160405190810160405280929190818152602001828054801561146157602002820191906000526020600020905b8160009054906101000a900473ffffffffffffffffffffffffffffffffffffffff1673ffffffffffffffffffffffffffffffffffffffff1681526020019060010190808311611417575b5050505050905060008160008151811061147757fe5b602002602001015190508373ffffffffffffffffffffffffffffffffffffffff16601160008373ffffffffffffffffffffffffffffffffffffffff1673ffffffffffffffffffffffffffffffffffffffff16815260200190815260200160002060009054906101000a900473ffffffffffffffffffffffffffffffffffffffff1673ffffffffffffffffffffffffffffffffffffffff1614611581576040517f08c379a000000000000000000000000000000000000000000000000000000000815260040180806020018281038252601c8152602001807f6f6e6c79206f7267696e697a65722063616e20706c75672073616c650000000081525060200191505060405180910390fd5b600d60008681526020019081526020016000203390806001815401808255809150509060018203906000526020600020016000909192909190916101000a81548173ffffffffffffffffffffffffffffffffffffffff021916908373ffffffffffffffffffffffffffffffffffffffff16021790555050600061160386612233565b905080935050505092915050565b60008073ffffffffffffffffffffffffffffffffffffffff168273ffffffffffffffffffffffffffffffffffffffff161415611698576040517f08c379a000000000000000000000000000000000000000000000000000000000815260040180806020018281038252602a815260200180613734602a913960400191505060405180910390fd5b6116df600360008473ffffffffffffffffffffffffffffffffffffffff1673ffffffffffffffffffffffffffffffffffffffff1681526020019081526020016000206124aa565b9050919050565b60006116f86116f3612353565b611ddb565b61174d576040517f08c379a00000000000000000000000000000000000000000000000000000000081526004018080602001828103825260308152602001806137876030913960400191505060405180910390fd5b6117588484846124b8565b600190509392505050565b61177361176e612353565b611ddb565b6117c8576040517f08c379a00000000000000000000000000000000000000000000000000000000081526004018080602001828103825260308152602001806137876030913960400191505060405180910390fd5b6117d181612529565b50565b6117e46117df612353565b612583565b565b600d60205281600052604060002081815481106117ff57fe5b906000526020600020016000915091509054906101000a900473ffffffffffffffffffffffffffffffffffffffff1681565b600061184361183e612353565b611ddb565b611898576040517f08c379a00000000000000000000000000000000000000000000000000000000081526004018080602001828103825260308152602001806137876030913960400191505060405180910390fd5b6118a283836125dd565b6001905092915050565b6118b4612353565b73ffffffffffffffffffffffffffffffffffffffff168273ffffffffffffffffffffffffffffffffffffffff161415611955576040517f08c379a00000000000000000000000000000000000000000000000000000000081526004018080602001828103825260198152602001807f4552433732313a20617070726f766520746f2063616c6c65720000000000000081525060200191505060405180910390fd5b8060046000611962612353565b73ffffffffffffffffffffffffffffffffffffffff1673ffffffffffffffffffffffffffffffffffffffff16815260200190815260200160002060008473ffffffffffffffffffffffffffffffffffffffff1673ffffffffffffffffffffffffffffffffffffffff16815260200190815260200160002060006101000a81548160ff0219169083151502179055508173ffffffffffffffffffffffffffffffffffffffff16611a0f612353565b73ffffffffffffffffffffffffffffffffffffffff167f17307eab39ab6107e8899845ad3d59bd9653f200f220920489ca2b5937696c3183604051808215151515815260200191505060405180910390a35050565b6060600d6000838152602001908152602001600020805480602002602001604051908101604052809291908181526020018280548015611af957602002820191906000526020600020905b8160009054906101000a900473ffffffffffffffffffffffffffffffffffffffff1673ffffffffffffffffffffffffffffffffffffffff1681526020019060010190808311611aaf575b50505050509050611b08613579565b601060008581526020019081526020016000206040518060400160405290816000820160009054906101000a900460ff166002811115611b4457fe5b6002811115611b4f57fe5b81526020016001820154815250509050600082826020015181518110611b7157fe5b602002602001015190503373ffffffffffffffffffffffffffffffffffffffff168173ffffffffffffffffffffffffffffffffffffffff1614611bff576040517f08c379a000000000000000000000000000000000000000000000000000000000815260040180806020018281038252602d8152602001806135f0602d913960400191505060405180910390fd5b60006002811115611c0c57fe5b6010600087815260200190815260200160002060000160009054906101000a900460ff166002811115611c3b57fe5b14611cae576040517f08c379a00000000000000000000000000000000000000000000000000000000081526004018080602001828103825260198152602001807f5469636b6574207374617465206d75737420626520506169640000000000000081525060200191505060405180910390fd5b600182600001906002811115611cc057fe5b90816002811115611ccd57fe5b81525050816010600087815260200190815260200160002060008201518160000160006101000a81548160ff02191690836002811115611d0957fe5b02179055506020820151816001015590505084848773ffffffffffffffffffffffffffffffffffffffff167f1852380d0869dc478452f3f2bcfac707f842df524f5b8896d2a4f70c756f818460405160405180910390a47fe82baa24ba3534133b9033b3b6013784eaa8e524dc5ef8cf2e3e0945d0074624868587604051808473ffffffffffffffffffffffffffffffffffffffff1673ffffffffffffffffffffffffffffffffffffffff168152602001838152602001828152602001935050505060405180910390a1505050505050565b6000611df18260096125fb90919063ffffffff16565b9050919050565b611e0383838361244f565b505050565b611e19611e13612353565b8361235b565b611e6e576040517f08c379a00000000000000000000000000000000000000000000000000000000081526004018080602001828103825260318152602001806138706031913960400191505060405180910390fd5b611e7a848484846126d9565b50505050565b6060600d6000848152602001908152602001600020805480602002602001604051908101604052809291908181526020018280548015611f1557602002820191906000526020600020905b8160009054906101000a900473ffffffffffffffffffffffffffffffffffffffff1673ffffffffffffffffffffffffffffffffffffffff1681526020019060010190808311611ecb575b505050505090506000818381518110611f2a57fe5b602002602001015190503373ffffffffffffffffffffffffffffffffffffffff168173ffffffffffffffffffffffffffffffffffffffff1614611fb8576040517f08c379a000000000000000000000000000000000000000000000000000000000815260040180806020018281038252603281526020018061369e6032913960400191505060405180910390fd5b60008090505b8581101561219657611fd0600b612494565b6000611fdc600b6124aa565b9050611fe733611763565b611ff18882612473565b60405180604001604052806000600281111561200957fe5b8152602001868152506010600083815260200190815260200160002060008201518160000160006101000a81548160ff0219169083600281111561204957fe5b021790555060208201518160010155905050600e600087815260200190815260200160002080549050600f600083815260200190815260200160002081905550600e60008781526020019081526020016000208190806001815401808255809150509060018203906000526020600020016000909192909190915055506120d03382610cfa565b80868973ffffffffffffffffffffffffffffffffffffffff167f97fac0ce6558f4accbb4696915809c0ef7023ffe7ba9454e94d49fb652aae1d560405160405180910390a47f6d651fdc8652e9b93372b6cece4377b2c0f78be48b1ffbf3bdafc7baef0138ab888783604051808473ffffffffffffffffffffffffffffffffffffffff1673ffffffffffffffffffffffffffffffffffffffff168152602001838152602001828152602001935050505060405180910390a1508080600101915050611fbe565b50505050505050565b6000600460008473ffffffffffffffffffffffffffffffffffffffff1673ffffffffffffffffffffffffffffffffffffffff16815260200190815260200160002060008373ffffffffffffffffffffffffffffffffffffffff1673ffffffffffffffffffffffffffffffffffffffff16815260200190815260200160002060009054906101000a900460ff16905092915050565b60006060600d60008481526020019081526020016000208054806020026020016040519081016040528092919081815260200182805480156122ca57602002820191906000526020600020905b8160009054906101000a900473ffffffffffffffffffffffffffffffffffffffff1673ffffffffffffffffffffffffffffffffffffffff1681526020019060010190808311612280575b505050505090506000815190508092505050919050565b6000806001600084815260200190815260200160002060009054906101000a900473ffffffffffffffffffffffffffffffffffffffff169050600073ffffffffffffffffffffffffffffffffffffffff168173ffffffffffffffffffffffffffffffffffffffff161415915050919050565b600033905090565b6000612366826122e1565b6123bb576040517f08c379a000000000000000000000000000000000000000000000000000000000815260040180806020018281038252602c8152602001806136d0602c913960400191505060405180910390fd5b60006123c683611302565b90508073ffffffffffffffffffffffffffffffffffffffff168473ffffffffffffffffffffffffffffffffffffffff16148061243557508373ffffffffffffffffffffffffffffffffffffffff1661241d84610c5f565b73ffffffffffffffffffffffffffffffffffffffff16145b806124465750612445818561219f565b5b91505092915050565b61245a83838361274b565b61246483826129a6565b61246e8282612b44565b505050565b61247d8282612c0b565b6124878282612b44565b61249081612e23565b5050565b6001816000016000828254019250508190555050565b600081600001549050919050565b6124c28383612473565b6124cf6000848484612e6f565b612524576040517f08c379a00000000000000000000000000000000000000000000000000000000081526004018080602001828103825260328152602001806136486032913960400191505060405180910390fd5b505050565b61253d8160096131ab90919063ffffffff16565b8073ffffffffffffffffffffffffffffffffffffffff167f6ae172837ea30b801fbfcdd4108aa1d5bf8ff775444fd70256b44e6bf3dfc3f660405160405180910390a250565b61259781600961328690919063ffffffff16565b8073ffffffffffffffffffffffffffffffffffffffff167fe94479a9f7e1952cc78f2d6baab678adc1b772d936c6583def489e524cb6669260405160405180910390a250565b6125f78282604051806020016040528060008152506124b8565b5050565b60008073ffffffffffffffffffffffffffffffffffffffff168273ffffffffffffffffffffffffffffffffffffffff161415612682576040517f08c379a00000000000000000000000000000000000000000000000000000000081526004018080602001828103825260228152602001806138046022913960400191505060405180910390fd5b8260000160008373ffffffffffffffffffffffffffffffffffffffff1673ffffffffffffffffffffffffffffffffffffffff16815260200190815260200160002060009054906101000a900460ff16905092915050565b6126e484848461244f565b6126f084848484612e6f565b612745576040517f08c379a00000000000000000000000000000000000000000000000000000000081526004018080602001828103825260328152602001806136486032913960400191505060405180910390fd5b50505050565b8273ffffffffffffffffffffffffffffffffffffffff1661276b82611302565b73ffffffffffffffffffffffffffffffffffffffff16146127d7576040517f08c379a00000000000000000000000000000000000000000000000000000000081526004018080602001828103825260298152602001806138266029913960400191505060405180910390fd5b600073ffffffffffffffffffffffffffffffffffffffff168273ffffffffffffffffffffffffffffffffffffffff16141561285d576040517f08c379a000000000000000000000000000000000000000000000000000000000815260040180806020018281038252602481526020018061367a6024913960400191505060405180910390fd5b61286681613343565b6128ad600360008573ffffffffffffffffffffffffffffffffffffffff1673ffffffffffffffffffffffffffffffffffffffff168152602001908152602001600020613401565b6128f4600360008473ffffffffffffffffffffffffffffffffffffffff1673ffffffffffffffffffffffffffffffffffffffff168152602001908152602001600020612494565b816001600083815260200190815260200160002060006101000a81548173ffffffffffffffffffffffffffffffffffffffff021916908373ffffffffffffffffffffffffffffffffffffffff160217905550808273ffffffffffffffffffffffffffffffffffffffff168473ffffffffffffffffffffffffffffffffffffffff167fddf252ad1be2c89b69c2b068fc378daa952ba7f163c4a11628f55a4df523b3ef60405160405180910390a4505050565b60006129fe6001600560008673ffffffffffffffffffffffffffffffffffffffff1673ffffffffffffffffffffffffffffffffffffffff1681526020019081526020016000208054905061342490919063ffffffff16565b9050600060066000848152602001908152602001600020549050818114612aeb576000600560008673ffffffffffffffffffffffffffffffffffffffff1673ffffffffffffffffffffffffffffffffffffffff1681526020019081526020016000208381548110612a6b57fe5b9060005260206000200154905080600560008773ffffffffffffffffffffffffffffffffffffffff1673ffffffffffffffffffffffffffffffffffffffff1681526020019081526020016000208381548110612ac357fe5b9060005260206000200181905550816006600083815260200190815260200160002081905550505b600560008573ffffffffffffffffffffffffffffffffffffffff1673ffffffffffffffffffffffffffffffffffffffff168152602001908152602001600020805480919060019003612b3d919061359e565b5050505050565b600560008373ffffffffffffffffffffffffffffffffffffffff1673ffffffffffffffffffffffffffffffffffffffff168152602001908152602001600020805490506006600083815260200190815260200160002081905550600560008373ffffffffffffffffffffffffffffffffffffffff1673ffffffffffffffffffffffffffffffffffffffff1681526020019081526020016000208190806001815401808255809150509060018203906000526020600020016000909192909190915055505050565b600073ffffffffffffffffffffffffffffffffffffffff168273ffffffffffffffffffffffffffffffffffffffff161415612cae576040517f08c379a00000000000000000000000000000000000000000000000000000000081526004018080602001828103825260208152602001807f4552433732313a206d696e7420746f20746865207a65726f206164647265737381525060200191505060405180910390fd5b612cb7816122e1565b15612d2a576040517f08c379a000000000000000000000000000000000000000000000000000000000815260040180806020018281038252601c8152602001807f4552433732313a20746f6b656e20616c7265616479206d696e7465640000000081525060200191505060405180910390fd5b816001600083815260200190815260200160002060006101000a81548173ffffffffffffffffffffffffffffffffffffffff021916908373ffffffffffffffffffffffffffffffffffffffff160217905550612dc3600360008473ffffffffffffffffffffffffffffffffffffffff1673ffffffffffffffffffffffffffffffffffffffff168152602001908152602001600020612494565b808273ffffffffffffffffffffffffffffffffffffffff16600073ffffffffffffffffffffffffffffffffffffffff167fddf252ad1be2c89b69c2b068fc378daa952ba7f163c4a11628f55a4df523b3ef60405160405180910390a45050565b6007805490506008600083815260200190815260200160002081905550600781908060018154018082558091505090600182039060005260206000200160009091929091909150555050565b6000612e908473ffffffffffffffffffffffffffffffffffffffff1661346e565b612e9d57600190506131a3565b600060608573ffffffffffffffffffffffffffffffffffffffff168673ffffffffffffffffffffffffffffffffffffffff1663150b7a02905060e01b612ee1612353565b898888604051602401808573ffffffffffffffffffffffffffffffffffffffff1673ffffffffffffffffffffffffffffffffffffffff1681526020018473ffffffffffffffffffffffffffffffffffffffff1673ffffffffffffffffffffffffffffffffffffffff16815260200183815260200180602001828103825283818151815260200191508051906020019080838360005b83811015612f91578082015181840152602081019050612f76565b50505050905090810190601f168015612fbe5780820380516001836020036101000a031916815260200191505b5095505050505050604051602081830303815290604052907bffffffffffffffffffffffffffffffffffffffffffffffffffffffff19166020820180517bffffffffffffffffffffffffffffffffffffffffffffffffffffffff83818316178352505050506040518082805190602001908083835b602083106130565780518252602082019150602081019050602083039250613033565b6001836020036101000a0380198251168184511680821785525050505050509050019150506000604051808303816000865af19150503d80600081146130b8576040519150601f19603f3d011682016040523d82523d6000602084013e6130bd565b606091505b50915091508161312b576000815111156130da5780518082602001fd5b6040517f08c379a00000000000000000000000000000000000000000000000000000000081526004018080602001828103825260328152602001806136486032913960400191505060405180910390fd5b600081806020019051602081101561314257600080fd5b8101908080519060200190929190505050905063150b7a0260e01b7bffffffffffffffffffffffffffffffffffffffffffffffffffffffff1916817bffffffffffffffffffffffffffffffffffffffffffffffffffffffff19161493505050505b949350505050565b6131b582826125fb565b15613228576040517f08c379a000000000000000000000000000000000000000000000000000000000815260040180806020018281038252601f8152602001807f526f6c65733a206163636f756e7420616c72656164792068617320726f6c650081525060200191505060405180910390fd5b60018260000160008373ffffffffffffffffffffffffffffffffffffffff1673ffffffffffffffffffffffffffffffffffffffff16815260200190815260200160002060006101000a81548160ff0219169083151502179055505050565b61329082826125fb565b6132e5576040517f08c379a00000000000000000000000000000000000000000000000000000000081526004018080602001828103825260218152602001806137b76021913960400191505060405180910390fd5b60008260000160008373ffffffffffffffffffffffffffffffffffffffff1673ffffffffffffffffffffffffffffffffffffffff16815260200190815260200160002060006101000a81548160ff0219169083151502179055505050565b600073ffffffffffffffffffffffffffffffffffffffff166002600083815260200190815260200160002060009054906101000a900473ffffffffffffffffffffffffffffffffffffffff1673ffffffffffffffffffffffffffffffffffffffff16146133fe5760006002600083815260200190815260200160002060006101000a81548173ffffffffffffffffffffffffffffffffffffffff021916908373ffffffffffffffffffffffffffffffffffffffff1602179055505b50565b6134196001826000015461342490919063ffffffff16565b816000018190555050565b600061346683836040518060400160405280601e81526020017f536166654d6174683a207375627472616374696f6e206f766572666c6f7700008152506134b9565b905092915050565b60008060007fc5d2460186f7233c927e7db2dcc703c0e500b653ca82273b7bfad8045d85a47060001b9050833f91508082141580156134b057506000801b8214155b92505050919050565b6000838311158290613566576040517f08c379a00000000000000000000000000000000000000000000000000000000081526004018080602001828103825283818151815260200191508051906020019080838360005b8381101561352b578082015181840152602081019050613510565b50505050905090810190601f1680156135585780820380516001836020036101000a031916815260200191505b509250505060405180910390fd5b5060008385039050809150509392505050565b60405180604001604052806000600281111561359157fe5b8152602001600081525090565b8154818355818111156135c5578183600052602060002091820191016135c491906135ca565b5b505050565b6135ec91905b808211156135e85760008160009055506001016135d0565b5090565b9056fe796f752073686f756c642063616c6c207363616e2066726f6d207469636b657473616c6520636f6e7472616374455243373231456e756d657261626c653a206f776e657220696e646578206f7574206f6620626f756e64734552433732313a207472616e7366657220746f206e6f6e20455243373231526563656976657220696d706c656d656e7465724552433732313a207472616e7366657220746f20746865207a65726f2061646472657373796f752073686f756c642063616c6c206275795469636b65742066726f6d207469636b657473616c6520636f6e74726163744552433732313a206f70657261746f7220717565727920666f72206e6f6e6578697374656e7420746f6b656e4552433732313a20617070726f76652063616c6c6572206973206e6f74206f776e6572206e6f7220617070726f76656420666f7220616c6c4552433732313a2062616c616e636520717565727920666f7220746865207a65726f20616464726573734552433732313a206f776e657220717565727920666f72206e6f6e6578697374656e7420746f6b656e4d696e746572526f6c653a2063616c6c657220646f6573206e6f74206861766520746865204d696e74657220726f6c65526f6c65733a206163636f756e7420646f6573206e6f74206861766520726f6c654552433732313a20617070726f76656420717565727920666f72206e6f6e6578697374656e7420746f6b656e526f6c65733a206163636f756e7420697320746865207a65726f20616464726573734552433732313a207472616e73666572206f6620746f6b656e2074686174206973206e6f74206f776e4552433732313a20617070726f76616c20746f2063757272656e74206f776e65724552433732313a207472616e736665722063616c6c6572206973206e6f74206f776e6572206e6f7220617070726f766564455243373231456e756d657261626c653a20676c6f62616c20696e646578206f7574206f6620626f756e6473a265627a7a72315820073c7dbe926a0fcf9dfe3360a6adc271114c1274236b7ebe867604f903a6532f64736f6c63430005100032526f6c65733a206163636f756e7420697320746865207a65726f2061646472657373",
  "source": "pragma solidity ^0.5.11;\n\n//import './zeppeline/token/ERC20/ERC20Mintable.sol';\n\nimport './Ticket721.sol';\nimport './TicketSale721.sol';\nimport './TicketSalePluggable.sol';\n\ncontract TicketFactory721 {\n\n// constant\naddress ticket_template;\n\n// event\nevent SaleCreated(address indexed organizer, uint price, uint256 indexed event_id);\nevent SaleCreatedHuman(address organizer, uint price, uint256 event_id);\nevent PluggedSale(address indexed organizer, address indexed orginal_sale, uint256 indexed event_id);\nevent PluggedSaleHuman(address organizer, address original_sale, uint256 event_id);\n\n\nconstructor() public {\n    ticket_template = createTicket721();\n}\n\n\nfunction createTicket721() internal returns (address ticket_address) {\n   address factory_address = address(this);\n   ticket_address = address(new Ticket721(factory_address));\n   return ticket_address;\n}\n\n\nfunction createTicketSale721(address payable organizer, uint price, Ticket721 token) internal returns(address payable ticket_sale) {\n    // calculate price\n    uint256 cena = calculateRate(price);\n\n    ticket_sale = address(new TicketSale721(cena, organizer, token));\n    return ticket_sale;\n}\n\nfunction createTicketSale(address payable organizer, uint price) public returns (address payable ticket_sale_adr, uint256 event_id) {\n\n    address ticket_adr = ticket_template;\n    Ticket721 ticket = Ticket721(ticket_adr);\n    ticket_sale_adr = createTicketSale721(organizer, price, ticket);\n    TicketSale721 ticket_sale = TicketSale721(ticket_sale_adr);\n\n    event_id = ticket_sale.event_id();\n    emit SaleCreated(organizer, price, event_id);\n    emit SaleCreatedHuman(organizer,price,event_id);\n    return(ticket_sale_adr, event_id);\n\n\n}\n\nfunction PlugInTicketSale(address payable origin_sale, uint price) public returns(address payable plugin_sale) {\n    uint cena = calculateRate(price);\n    plugin_sale = address(new TicketSalePluggable(cena,origin_sale));\n    TicketSale721 ticket_sale = TicketSale721(origin_sale);\n    uint256 event_id = ticket_sale.event_id();\n    emit PluggedSale(msg.sender,origin_sale,event_id);\n    emit PluggedSaleHuman(msg.sender, origin_sale, event_id);\n    return plugin_sale;\n}\n\nfunction calculateRate (uint256 price) internal pure returns (uint256 rate_p) {\n    // rate = price * 1 eth\n    rate_p = price * (1 ether);\n    return rate_p;\n}\n\n}",
  "sourcePath": "/home/jack/ethProjects/MS-Factory/contracts/721/singleton/TicketFactory721.sol",
  "compiler": {
    "name": "solc",
    "version": "0.5.16+commit.9c3226ce.Emscripten.clang"
  },
  "schemaVersion": "3.0.11",
  "updatedAt": "2020-03-13T06:02:27.952Z",
  "devdoc": {
    "methods": {}
  },
  "userdoc": {
    "methods": {}
  }
}