{
  "contractName": "TicketFactory721",
  "abi": [
    {
      "inputs": [
        {
          "internalType": "address",
          "name": "_ticket",
          "type": "address"
        }
      ],
      "payable": false,
      "stateMutability": "nonpayable",
      "type": "constructor"
    },
    {
      "anonymous": false,
      "inputs": [
        {
          "indexed": true,
          "internalType": "address",
          "name": "organizer",
          "type": "address"
        },
        {
          "indexed": true,
          "internalType": "address",
          "name": "orginal_sale",
          "type": "address"
        },
        {
          "indexed": true,
          "internalType": "uint256",
          "name": "event_id",
          "type": "uint256"
        }
      ],
      "name": "PluggedSale",
      "type": "event"
    },
    {
      "anonymous": false,
      "inputs": [
        {
          "indexed": false,
          "internalType": "address",
          "name": "organizer",
          "type": "address"
        },
        {
          "indexed": false,
          "internalType": "address",
          "name": "original_sale",
          "type": "address"
        },
        {
          "indexed": false,
          "internalType": "uint256",
          "name": "event_id",
          "type": "uint256"
        }
      ],
      "name": "PluggedSaleHuman",
      "type": "event"
    },
    {
      "anonymous": false,
      "inputs": [
        {
          "indexed": true,
          "internalType": "address",
          "name": "organizer",
          "type": "address"
        },
        {
          "indexed": false,
          "internalType": "uint256",
          "name": "price",
          "type": "uint256"
        },
        {
          "indexed": true,
          "internalType": "uint256",
          "name": "event_id",
          "type": "uint256"
        },
        {
          "indexed": true,
          "internalType": "string",
          "name": "event_JID",
          "type": "string"
        }
      ],
      "name": "SaleCreated",
      "type": "event"
    },
    {
      "anonymous": false,
      "inputs": [
        {
          "indexed": false,
          "internalType": "address",
          "name": "organizer",
          "type": "address"
        },
        {
          "indexed": false,
          "internalType": "uint256",
          "name": "price",
          "type": "uint256"
        },
        {
          "indexed": false,
          "internalType": "uint256",
          "name": "event_id",
          "type": "uint256"
        },
        {
          "indexed": false,
          "internalType": "string",
          "name": "event_JID",
          "type": "string"
        }
      ],
      "name": "SaleCreatedHuman",
      "type": "event"
    },
    {
      "constant": false,
      "inputs": [
        {
          "internalType": "address payable",
          "name": "organizer",
          "type": "address"
        },
        {
          "internalType": "uint256",
          "name": "price",
          "type": "uint256"
        },
        {
          "internalType": "string",
          "name": "event_JID",
          "type": "string"
        },
        {
          "internalType": "uint256",
          "name": "sale_limit",
          "type": "uint256"
        }
      ],
      "name": "createTicketSale",
      "outputs": [
        {
          "internalType": "address payable",
          "name": "ticket_sale_adr",
          "type": "address"
        },
        {
          "internalType": "uint256",
          "name": "event_id",
          "type": "uint256"
        }
      ],
      "payable": false,
      "stateMutability": "nonpayable",
      "type": "function"
    },
    {
      "constant": false,
      "inputs": [
        {
          "internalType": "address payable",
          "name": "origin_sale",
          "type": "address"
        },
        {
          "internalType": "uint256",
          "name": "price",
          "type": "uint256"
        }
      ],
      "name": "PlugInTicketSale",
      "outputs": [
        {
          "internalType": "address payable",
          "name": "plugin_sale",
          "type": "address"
        }
      ],
      "payable": false,
      "stateMutability": "nonpayable",
      "type": "function"
    },
    {
      "constant": true,
      "inputs": [
        {
          "internalType": "string",
          "name": "JID",
          "type": "string"
        }
      ],
      "name": "getEventIdByJid",
      "outputs": [
        {
          "internalType": "uint256",
          "name": "",
          "type": "uint256"
        }
      ],
      "payable": false,
      "stateMutability": "view",
      "type": "function"
    },
    {
      "constant": true,
      "inputs": [],
      "name": "getTicketTemplateAddress",
      "outputs": [
        {
          "internalType": "address",
          "name": "",
          "type": "address"
        }
      ],
      "payable": false,
      "stateMutability": "view",
      "type": "function"
    }
  ],
  "bytecode": "0x608060405234801561001057600080fd5b50604051611ec4380380611ec48339818101604052602081101561003357600080fd5b5051600080546001600160a01b039092166001600160a01b0319909216919091179055611e5f806100656000396000f3fe608060405234801561001057600080fd5b506004361061004c5760003560e01c806351c1878214610051578063722b581714610131578063b992389314610155578063f35bd9ae1461020d575b600080fd5b61010e6004803603608081101561006757600080fd5b6001600160a01b038235169160208101359181019060608101604082013564010000000081111561009757600080fd5b8201836020820111156100a957600080fd5b803590602001918460018302840111640100000000831117156100cb57600080fd5b91908080601f0160208091040260200160405190810160405280939291908181526020018383808284376000920191909152509295505091359250610239915050565b604080516001600160a01b03909316835260208301919091528051918290030190f35b610139610531565b604080516001600160a01b039092168252519081900360200190f35b6101fb6004803603602081101561016b57600080fd5b81019060208101813564010000000081111561018657600080fd5b82018360208201111561019857600080fd5b803590602001918460018302840111640100000000831117156101ba57600080fd5b91908080601f016020809104026020016040519081016040528093929190818152602001838380828437600092019190915250929550610540945050505050565b60408051918252519081900360200190f35b6101396004803603604081101561022357600080fd5b506001600160a01b0381351690602001356105a8565b60008054604051845183926001600160a01b031691600191879190819060208401908083835b6020831061027e5780518252601f19909201916020918201910161025f565b51815160209384036101000a60001901801990921691161790529201948552506040519384900301909220541591506102ea90505760405162461bcd60e51b8152600401808060200182810382526026815260200180611e056026913960400191505060405180910390fd5b806102f8888883888a6106ef565b93506000849050806001600160a01b03166391039dee6040518163ffffffff1660e01b815260040160206040518083038186803b15801561033857600080fd5b505afa15801561034c573d6000803e3d6000fd5b505050506040513d602081101561036257600080fd5b5051604051885191955085916001918a91819060208401908083835b6020831061039d5780518252601f19909201916020918201910161037e565b51815160209384036101000a60001901801990921691161790529201948552506040519384900381018420949094555050885189928291908401908083835b602083106103fb5780518252601f1990920191602091820191016103dc565b51815160209384036101000a6000190180199092169116179052604080519290940182900382208e835293519395508994506001600160a01b038f16937f87836d9d795936ee8b4b6ffb2c7b7fba245eb618db8294c11e9cf03565afbb409350918290030190a47fb702e8e169b710c91381cf2aaaff91ec3426a2858b72c207dd62ad0bf417f9478989868a60405180856001600160a01b03166001600160a01b0316815260200184815260200183815260200180602001828103825283818151815260200191508051906020019080838360005b838110156104e85781810151838201526020016104d0565b50505050905090810190601f1680156105155780820380516001836020036101000a031916815260200191505b509550505050505060405180910390a150505094509492505050565b6000546001600160a01b031690565b60006001826040518082805190602001908083835b602083106105745780518252601f199092019160209182019101610555565b51815160209384036101000a6000190180199092169116179052920194855250604051938490030190922054949350505050565b6000806105b4836107e2565b905080846040516105c4906107ef565b9182526001600160a01b03166020820152604080519182900301906000f0801580156105f4573d6000803e3d6000fd5b50915060008290506000816001600160a01b03166391039dee6040518163ffffffff1660e01b815260040160206040518083038186803b15801561063757600080fd5b505afa15801561064b573d6000803e3d6000fd5b505050506040513d602081101561066157600080fd5b505160405190915081906001600160a01b0388169033907f80ea680f0864b200472457d5e9db6c7ab4390228ca763e8159260f99ff4c07e490600090a4604080513381526001600160a01b038816602082015280820183905290517fd224f16d25281ddd265d3572339439c7b0c4ed0edf208b6b48ec27f530dc0aca9181900360600190a150505092915050565b6000806106fb866107e2565b9050808786868660405161070e906107fc565b80868152602001856001600160a01b03166001600160a01b03168152602001846001600160a01b03166001600160a01b0316815260200183815260200180602001828103825283818151815260200191508051906020019080838360005b8381101561078457818101518382015260200161076c565b50505050905090810190601f1680156107b15780820380516001836020036101000a031916815260200191505b509650505050505050604051809103906000f0801580156107d6573d6000803e3d6000fd5b50979650505050505050565b670de0b6b3a76400000290565b610a5f8061080a83390190565b610b9c806112698339019056fe608060405234801561001057600080fd5b50604051610a5f380380610a5f8339818101604052604081101561003357600080fd5b5080516020909101516000805460ff1916600117905581818161009d576040805162461bcd60e51b815260206004820152601460248201527f43726f776473616c653a20726174652069732030000000000000000000000000604482015290519081900360640190fd5b6001600160a01b0381166100f8576040805162461bcd60e51b815260206004820152601d60248201527f6f726967696e2063616e6e6f74206265207a65726f2061646472657373000000604482015290519081900360640190fd5b600180546001600160a01b0319166001600160a01b0383811691909117918290556040805163521eb27360e01b81529051929091169163521eb27391600480820192602092909190829003018186803b15801561015457600080fd5b505afa158015610168573d6000803e3d6000fd5b505050506040513d602081101561017e57600080fd5b5051600480546001600160a01b0319166001600160a01b03928316178155600584905560015460408051637e062a3560e11b81529051919093169263fc0c546a9281810192602092909190829003018186803b1580156101dd57600080fd5b505afa1580156101f1573d6000803e3d6000fd5b505050506040513d602081101561020757600080fd5b505160008054610100600160a81b0319166101006001600160a01b039384160217905560015460408051634881cef760e11b8152905191909216916391039dee916004808301926020929190829003018186803b15801561026757600080fd5b505afa15801561027b573d6000803e3d6000fd5b505050506040513d602081101561029157600080fd5b50516002819055600080546004805460408051630645c0fb60e41b8152928301959095526001600160a01b03908116602483015293516101009092049093169263645c0fb09260448083019360209390929083900390910190829087803b1580156102fb57600080fd5b505af115801561030f573d6000803e3d6000fd5b505050506040513d602081101561032557600080fd5b5051600355505050506107228061033d6000396000f3fe6080604052600436106100a75760003560e01c80636ed08ea0116100645780636ed08ea01461018957806391039dee1461019e578063a5f8cdbb146101b3578063ec8ac4d8146101d9578063ecd0c0c3146101ff578063fc0c546a14610214576100a7565b80632c4e722e146100b95780634042b66f146100e057806341035a41146100f5578063521eb27314610126578063610757e41461013b5780636c1e81e314610150575b6100b76100b2610229565b61022d565b005b3480156100c557600080fd5b506100ce610239565b60408051918252519081900360200190f35b3480156100ec57600080fd5b506100ce61023f565b34801561010157600080fd5b5061010a610245565b604080516001600160a01b039092168252519081900360200190f35b34801561013257600080fd5b5061010a610254565b34801561014757600080fd5b5061010a610263565b34801561015c57600080fd5b506100b76004803603604081101561017357600080fd5b506001600160a01b038135169060200135610272565b34801561019557600080fd5b506100ce610310565b3480156101aa57600080fd5b506100ce610316565b6100b7600480360360208110156101c957600080fd5b50356001600160a01b031661022d565b6100b7600480360360208110156101ef57600080fd5b50356001600160a01b031661031c565b34801561020b57600080fd5b5061010a61043e565b34801561022057600080fd5b5061010a610452565b3390565b6102368161031c565b50565b60055490565b60065490565b6001546001600160a01b031681565b6004546001600160a01b031690565b6004546001600160a01b031681565b600061027c610452565b90506000610288610316565b9050816001600160a01b031663a27c282e8585846040518463ffffffff1660e01b815260040180846001600160a01b03166001600160a01b031681526020018381526020018281526020019350505050600060405180830381600087803b1580156102f257600080fd5b505af1158015610306573d6000803e3d6000fd5b5050505050505050565b60025481565b60025490565b60005460ff16610373576040805162461bcd60e51b815260206004820152601f60248201527f5265656e7472616e637947756172643a207265656e7472616e742063616c6c00604482015290519081900360640190fd5b6000805460ff19169055346103888282610466565b600061039382610501565b6006549091506103a9908363ffffffff61051e16565b6006556103b6838261057f565b826001600160a01b03166103c8610229565b6001600160a01b03167f6faf93231a456e552dbc9961f58d9713ee4f2e69d15f1975b050ef0911053a7b8484604051808381526020018281526020019250505060405180910390a361041a83836104fd565b610422610589565b61042c83836104fd565b50506000805460ff1916600117905550565b60005461010090046001600160a01b031681565b60005461010090046001600160a01b031690565b6001600160a01b0382166104ab5760405162461bcd60e51b815260040180806020018281038252602a8152602001806106c4602a913960400191505060405180910390fd5b806104fd576040805162461bcd60e51b815260206004820152601960248201527f43726f776473616c653a20776569416d6f756e74206973203000000000000000604482015290519081900360640190fd5b5050565b6000610518600554836105c290919063ffffffff16565b92915050565b600082820183811015610578576040805162461bcd60e51b815260206004820152601b60248201527f536166654d6174683a206164646974696f6e206f766572666c6f770000000000604482015290519081900360640190fd5b9392505050565b6104fd828261061b565b6004546040516001600160a01b03909116903480156108fc02916000818181858888f19350505050158015610236573d6000803e3d6000fd5b6000826105d157506000610518565b828202828482816105de57fe5b04146105785760405162461bcd60e51b81526004018080602001828103825260218152602001806106a36021913960400191505060405180910390fd5b60008054600254600354604080516319a742bf60e31b81526001600160a01b0388811660048301526024820188905260448201949094526064810192909252516101009093049091169263cd3a15f89260848084019382900301818387803b15801561068657600080fd5b505af115801561069a573d6000803e3d6000fd5b50505050505056fe536166654d6174683a206d756c7469706c69636174696f6e206f766572666c6f7743726f776473616c653a2062656e656669636961727920697320746865207a65726f2061646472657373a265627a7a7231582099a0dd95ab7339daf29482c25a5a7cd9c24e4d977094da89a69b31c9fd9089a864736f6c6343000511003260806040526001600255600060045534801561001a57600080fd5b50604051610b9c380380610b9c833981810160405260a081101561003d57600080fd5b815160208301516040808501516060860151608087018051935195979496929591949193928201928464010000000082111561007857600080fd5b90830190602082018581111561008d57600080fd5b82516401000000008111828201881017156100a757600080fd5b82525081516020918201929091019080838360005b838110156100d45781810151838201526020016100bc565b50505050905090810190601f1680156101015780820380516001836020036101000a031916815260200191505b5060405250506000805460ff191660011790555084848484848461016c576040805162461bcd60e51b815260206004820152601460248201527f43726f776473616c653a20726174652069732030000000000000000000000000604482015290519081900360640190fd5b6001600160a01b0384166101b15760405162461bcd60e51b8152600401808060200182810382526025815260200180610b776025913960400191505060405180910390fd5b6001600160a01b0383166101f65760405162461bcd60e51b8152600401808060200182810382526024815260200180610b536024913960400191505060405180910390fd5b6006859055600580546001600160a01b0319166001600160a01b03868116919091179182905560008054610100600160a81b031916610100878416810291909117808355600387905560408051631440364760e31b81529585166004870181815260248801928352885160448901528851949093049095169563a201b2389594889460649092019160208601918190849084905b838110156102a257818101518382015260200161028a565b50505050905090810190601f1680156102cf5780820380516001836020036101000a031916815260200191505b509350505050602060405180830381600087803b1580156102ef57600080fd5b505af1158015610303573d6000803e3d6000fd5b505050506040513d602081101561031957600080fd5b50516001555050505050505050505061081c806103376000396000f3fe6080604052600436106100dd5760003560e01c806391039dee1161007f578063ecd0c0c311610059578063ecd0c0c314610235578063f00a93d31461024a578063f9cfe26b1461025f578063fc0c546a14610274576100dd565b806391039dee146101d4578063a5f8cdbb146101e9578063ec8ac4d81461020f576100dd565b8063521eb273116100bb578063521eb27314610140578063610757e4146101715780636c1e81e3146101865780636ed08ea0146101bf576100dd565b806323e6f340146100ef5780632c4e722e146101165780634042b66f1461012b575b6100ed6100e8610289565b61028d565b005b3480156100fb57600080fd5b50610104610299565b60408051918252519081900360200190f35b34801561012257600080fd5b5061010461029f565b34801561013757600080fd5b506101046102a5565b34801561014c57600080fd5b506101556102ab565b604080516001600160a01b039092168252519081900360200190f35b34801561017d57600080fd5b506101556102ba565b34801561019257600080fd5b506100ed600480360360408110156101a957600080fd5b506001600160a01b0381351690602001356102c9565b3480156101cb57600080fd5b50610104610367565b3480156101e057600080fd5b5061010461036d565b6100ed600480360360208110156101ff57600080fd5b50356001600160a01b031661028d565b6100ed6004803603602081101561022557600080fd5b50356001600160a01b0316610373565b34801561024157600080fd5b506101556104aa565b34801561025657600080fd5b506101046104be565b34801561026b57600080fd5b506101046104cd565b34801561028057600080fd5b506101556104d3565b3390565b61029681610373565b50565b60025481565b60065490565b60075490565b6005546001600160a01b031690565b6005546001600160a01b031681565b60006102d36104d3565b905060006102df61036d565b9050816001600160a01b031663a27c282e8585846040518463ffffffff1660e01b815260040180846001600160a01b03166001600160a01b031681526020018381526020018281526020019350505050600060405180830381600087803b15801561034957600080fd5b505af115801561035d573d6000803e3d6000fd5b5050505050505050565b60015481565b60015490565b60005460ff166103ca576040805162461bcd60e51b815260206004820152601f60248201527f5265656e7472616e637947756172643a207265656e7472616e742063616c6c00604482015290519081900360640190fd5b6000805460ff1916815534906103df826104e7565b90506103ec838383610553565b6007546103ff908363ffffffff61063816565b600755600454610415908263ffffffff61063816565b6004556104228382610699565b826001600160a01b0316610434610289565b6001600160a01b03167f6faf93231a456e552dbc9961f58d9713ee4f2e69d15f1975b050ef0911053a7b8484604051808381526020018281526020019250505060405180910390a361048683836106a3565b61048e6106a7565b61049883836106a3565b50506000805460ff1916600117905550565b60005461010090046001600160a01b031681565b60006104c86104be565b905090565b60045481565b60005461010090046001600160a01b031690565b600060065482101561052a5760405162461bcd60e51b815260040180806020018281038252602c8152602001806107bc602c913960400191505060405180910390fd5b6000670de0b6b3a76400006006548161053f57fe5b04670de0b6b3a76400008404029392505050565b6001600160a01b0383166105985760405162461bcd60e51b815260040180806020018281038252602a815260200180610792602a913960400191505060405180910390fd5b816105ea576040805162461bcd60e51b815260206004820152601960248201527f43726f776473616c653a20776569416d6f756e74206973203000000000000000604482015290519081900360640190fd5b600454600354908201908111156106325760405162461bcd60e51b815260040180806020018281038252602a815260200180610768602a913960400191505060405180910390fd5b50505050565b600082820183811015610692576040805162461bcd60e51b815260206004820152601b60248201527f536166654d6174683a206164646974696f6e206f766572666c6f770000000000604482015290519081900360640190fd5b9392505050565b6106a382826106e0565b5050565b6005546040516001600160a01b03909116903480156108fc02916000818181858888f19350505050158015610296573d6000803e3d6000fd5b60008054600154600254604080516319a742bf60e31b81526001600160a01b0388811660048301526024820188905260448201949094526064810192909252516101009093049091169263cd3a15f89260848084019382900301818387803b15801561074b57600080fd5b505af115801561075f573d6000803e3d6000fd5b50505050505056fe746f6b656e7320616d6f756e742073686f756c64206e6f74206578636565642073616c655f6c696d697443726f776473616c653a2062656e656669636961727920697320746865207a65726f206164647265737377656920616d6f756e742073686f756c6420626520626967676572206f7220657175616c206f662072617465a265627a7a7231582087c881aee2988d1f9fd3f5f8366c0f53c80f28767b2b5fd423483f4c93e03f9f64736f6c6343000511003243726f776473616c653a20746f6b656e20697320746865207a65726f206164647265737343726f776473616c653a2077616c6c657420697320746865207a65726f206164647265737373616c6520776974682074686973204a494420697320616c7265616479206372656174656421a265627a7a72315820c0711038580212435a576148b230088885c813e450082acc9911fdf07b64f93a64736f6c63430005110032",
  "source": "pragma solidity ^0.5.11;\n\n//import './zeppeline/token/ERC20/ERC20Mintable.sol';\n\n// TODO: replace contracts to interfaces cause of gas limit\n// FIXME: this contract required for 7m gas limit -- which is more than standart 6m in ethereum networks. We should consider that when deployment\n\nimport './Ticket721.sol';\nimport './TicketSale721.sol';\nimport './TicketSalePluggable.sol';\n\n\n\ncontract TicketFactory721 {\n\n// constant\naddress ticket_template;\n\n// event\nevent SaleCreated(address indexed organizer, uint price, uint256 indexed event_id, string indexed event_JID);\nevent SaleCreatedHuman(address organizer, uint price, uint256 event_id, string event_JID);\nevent PluggedSale(address indexed organizer, address indexed orginal_sale, uint256 indexed event_id);\nevent PluggedSaleHuman(address organizer, address original_sale, uint256 event_id);\n\n// mapping from JID to event_id\nmapping (string => uint256) events_jids;\n\n\nconstructor(address _ticket) public {\n   // ticket_template = createTicket721();\n   ticket_template = _ticket;\n}\n\n\nfunction createTicket721() internal returns (address ticket_address) {\n //  address factory_address = address(this);\n   ticket_address = address(new Ticket721());\n   return ticket_address;\n}\n\n\nfunction createTicketSale721(address payable organizer, uint price, Ticket721 token,uint sale_limit, string memory jid) internal returns(address payable ticket_sale) {\n    // calculate price\n    uint256 cena = calculateRate(price);\n\n    ticket_sale = address(new TicketSale721(cena, organizer, token, sale_limit, jid));\n    return ticket_sale;\n}\n\nfunction createTicketSale(address payable organizer, uint price, string memory event_JID, uint sale_limit) public returns (address payable ticket_sale_adr, uint256 event_id) {\n\n    address ticket_adr = ticket_template;\n    require(events_jids[event_JID] == 0, \"sale with this JID is already created!\");\n    Ticket721 ticket = Ticket721(ticket_adr);\n    ticket_sale_adr = createTicketSale721(organizer, price, ticket,sale_limit, event_JID);\n    TicketSale721 ticket_sale = TicketSale721(ticket_sale_adr);\n\n    event_id = ticket_sale.event_id();\n    events_jids[event_JID] = event_id;\n    emit SaleCreated(organizer, price, event_id, event_JID);\n    emit SaleCreatedHuman(organizer,price,event_id, event_JID);\n    return(ticket_sale_adr, event_id);\n\n\n}\n\n\nfunction PlugInTicketSale(address payable origin_sale, uint price) public returns(address payable plugin_sale) {\n    uint cena = calculateRate(price);\n    plugin_sale = address(new TicketSalePluggable(cena,origin_sale));\n    //TicketSale721 ticket_sale = TicketSale721(origin_sale);\n    TicketSalePluggable plugin_sale_instance = TicketSalePluggable(plugin_sale);\n    uint256 event_id = plugin_sale_instance.event_id();\n    emit PluggedSale(msg.sender,origin_sale,event_id);\n    emit PluggedSaleHuman(msg.sender, origin_sale, event_id);\n    return plugin_sale;\n}\n\nfunction calculateRate (uint256 price) internal pure returns (uint256 rate_p) {\n    // rate = price * 1 eth\n    rate_p = price * (1 ether); // override for price determinition\n    return rate_p;\n}\n\n\nfunction getEventIdByJid(string memory JID) public view returns(uint256) {\n    return events_jids[JID];\n}\n\nfunction getTicketTemplateAddress() public view returns(address) {\n    return ticket_template;\n}\n\n}",
  "sourcePath": "/home/jack/ethProjects/MS-Factory/contracts/721/singleton/TicketFactory721.sol",
  "compiler": {
    "name": "solc",
    "version": "0.5.17+commit.d19bba13.Emscripten.clang"
  },
  "schemaVersion": "3.0.11",
  "updatedAt": "2020-05-03T18:09:05.527Z",
  "devdoc": {
    "methods": {}
  },
  "userdoc": {
    "methods": {}
  }
}