{
  "contractName": "TokenSale721",
  "abi": [
    {
      "inputs": [
        {
          "internalType": "uint256",
          "name": "rate",
          "type": "uint256"
        },
        {
          "internalType": "address payable",
          "name": "wallet",
          "type": "address"
        },
        {
          "internalType": "contract Ticket721",
          "name": "token",
          "type": "address"
        }
      ],
      "payable": false,
      "stateMutability": "nonpayable",
      "type": "constructor"
    },
    {
      "anonymous": false,
      "inputs": [
        {
          "indexed": true,
          "internalType": "address",
          "name": "purchaser",
          "type": "address"
        },
        {
          "indexed": true,
          "internalType": "address",
          "name": "beneficiary",
          "type": "address"
        },
        {
          "indexed": false,
          "internalType": "uint256",
          "name": "value",
          "type": "uint256"
        },
        {
          "indexed": false,
          "internalType": "uint256",
          "name": "amount",
          "type": "uint256"
        }
      ],
      "name": "TokensPurchased",
      "type": "event"
    },
    {
      "payable": true,
      "stateMutability": "payable",
      "type": "fallback"
    },
    {
      "constant": true,
      "inputs": [],
      "name": "_event_id",
      "outputs": [
        {
          "internalType": "uint256",
          "name": "",
          "type": "uint256"
        }
      ],
      "payable": false,
      "stateMutability": "view",
      "type": "function"
    },
    {
      "constant": true,
      "inputs": [],
      "name": "_token",
      "outputs": [
        {
          "internalType": "contract Ticket721",
          "name": "",
          "type": "address"
        }
      ],
      "payable": false,
      "stateMutability": "view",
      "type": "function"
    },
    {
      "constant": true,
      "inputs": [],
      "name": "_wallet",
      "outputs": [
        {
          "internalType": "address payable",
          "name": "",
          "type": "address"
        }
      ],
      "payable": false,
      "stateMutability": "view",
      "type": "function"
    },
    {
      "constant": true,
      "inputs": [],
      "name": "token",
      "outputs": [
        {
          "internalType": "contract Ticket721",
          "name": "",
          "type": "address"
        }
      ],
      "payable": false,
      "stateMutability": "view",
      "type": "function"
    },
    {
      "constant": true,
      "inputs": [],
      "name": "wallet",
      "outputs": [
        {
          "internalType": "address payable",
          "name": "",
          "type": "address"
        }
      ],
      "payable": false,
      "stateMutability": "view",
      "type": "function"
    },
    {
      "constant": true,
      "inputs": [],
      "name": "rate",
      "outputs": [
        {
          "internalType": "uint256",
          "name": "",
          "type": "uint256"
        }
      ],
      "payable": false,
      "stateMutability": "view",
      "type": "function"
    },
    {
      "constant": true,
      "inputs": [],
      "name": "weiRaised",
      "outputs": [
        {
          "internalType": "uint256",
          "name": "",
          "type": "uint256"
        }
      ],
      "payable": false,
      "stateMutability": "view",
      "type": "function"
    },
    {
      "constant": true,
      "inputs": [],
      "name": "event_id",
      "outputs": [
        {
          "internalType": "uint256",
          "name": "",
          "type": "uint256"
        }
      ],
      "payable": false,
      "stateMutability": "view",
      "type": "function"
    },
    {
      "constant": false,
      "inputs": [
        {
          "internalType": "address",
          "name": "beneficiary",
          "type": "address"
        }
      ],
      "name": "buyTokens",
      "outputs": [],
      "payable": true,
      "stateMutability": "payable",
      "type": "function"
    }
  ],
  "bytecode": "0x6080604052600160025534801561001557600080fd5b50604051610d22380380610d228339818101604052606081101561003857600080fd5b8101908080519060200190929190805190602001909291908051906020019092919050505060016000806101000a81548160ff021916908315150217905550600083116100ed576040517f08c379a00000000000000000000000000000000000000000000000000000000081526004018080602001828103825260148152602001807f43726f776473616c653a2072617465206973203000000000000000000000000081525060200191505060405180910390fd5b600073ffffffffffffffffffffffffffffffffffffffff168273ffffffffffffffffffffffffffffffffffffffff161415610173576040517f08c379a0000000000000000000000000000000000000000000000000000000008152600401808060200182810382526025815260200180610cfd6025913960400191505060405180910390fd5b600073ffffffffffffffffffffffffffffffffffffffff168173ffffffffffffffffffffffffffffffffffffffff1614156101f9576040517f08c379a0000000000000000000000000000000000000000000000000000000008152600401808060200182810382526024815260200180610cd96024913960400191505060405180910390fd5b8260048190555081600360006101000a81548173ffffffffffffffffffffffffffffffffffffffff021916908373ffffffffffffffffffffffffffffffffffffffff16021790555080600060016101000a81548173ffffffffffffffffffffffffffffffffffffffff021916908373ffffffffffffffffffffffffffffffffffffffff160217905550600060019054906101000a900473ffffffffffffffffffffffffffffffffffffffff1673ffffffffffffffffffffffffffffffffffffffff16634c0eb465600360009054906101000a900473ffffffffffffffffffffffffffffffffffffffff166040518263ffffffff1660e01b8152600401808273ffffffffffffffffffffffffffffffffffffffff1673ffffffffffffffffffffffffffffffffffffffff168152602001915050602060405180830381600087803b15801561034557600080fd5b505af1158015610359573d6000803e3d6000fd5b505050506040513d602081101561036f57600080fd5b8101908080519060200190929190505050600181905550505050610941806103986000396000f3fe6080604052600436106100865760003560e01c80636ed08ea0116100595780636ed08ea01461019c57806391039dee146101c7578063ec8ac4d8146101f2578063ecd0c0c314610236578063fc0c546a1461028d57610086565b80632c4e722e146100985780634042b66f146100c3578063521eb273146100ee578063610757e414610145575b6100966100916102e4565b6102ec565b005b3480156100a457600080fd5b506100ad610477565b6040518082815260200191505060405180910390f35b3480156100cf57600080fd5b506100d8610481565b6040518082815260200191505060405180910390f35b3480156100fa57600080fd5b5061010361048b565b604051808273ffffffffffffffffffffffffffffffffffffffff1673ffffffffffffffffffffffffffffffffffffffff16815260200191505060405180910390f35b34801561015157600080fd5b5061015a6104b5565b604051808273ffffffffffffffffffffffffffffffffffffffff1673ffffffffffffffffffffffffffffffffffffffff16815260200191505060405180910390f35b3480156101a857600080fd5b506101b16104db565b6040518082815260200191505060405180910390f35b3480156101d357600080fd5b506101dc6104e1565b6040518082815260200191505060405180910390f35b6102346004803603602081101561020857600080fd5b81019080803573ffffffffffffffffffffffffffffffffffffffff1690602001909291905050506102ec565b005b34801561024257600080fd5b5061024b6104eb565b604051808273ffffffffffffffffffffffffffffffffffffffff1673ffffffffffffffffffffffffffffffffffffffff16815260200191505060405180910390f35b34801561029957600080fd5b506102a2610511565b604051808273ffffffffffffffffffffffffffffffffffffffff1673ffffffffffffffffffffffffffffffffffffffff16815260200191505060405180910390f35b600033905090565b6000809054906101000a900460ff1661036d576040517f08c379a000000000000000000000000000000000000000000000000000000000815260040180806020018281038252601f8152602001807f5265656e7472616e637947756172643a207265656e7472616e742063616c6c0081525060200191505060405180910390fd5b60008060006101000a81548160ff0219169083151502179055506000349050610396828261053a565b60006103a18261063b565b90506103b88260055461065990919063ffffffff16565b6005819055506103c883826106e1565b8273ffffffffffffffffffffffffffffffffffffffff166103e76102e4565b73ffffffffffffffffffffffffffffffffffffffff167f6faf93231a456e552dbc9961f58d9713ee4f2e69d15f1975b050ef0911053a7b8484604051808381526020018281526020019250505060405180910390a361044683836106ef565b61044e6106f3565b610458838361075e565b505060016000806101000a81548160ff02191690831515021790555050565b6000600454905090565b6000600554905090565b6000600360009054906101000a900473ffffffffffffffffffffffffffffffffffffffff16905090565b600360009054906101000a900473ffffffffffffffffffffffffffffffffffffffff1681565b60015481565b6000600154905090565b600060019054906101000a900473ffffffffffffffffffffffffffffffffffffffff1681565b60008060019054906101000a900473ffffffffffffffffffffffffffffffffffffffff16905090565b600073ffffffffffffffffffffffffffffffffffffffff168273ffffffffffffffffffffffffffffffffffffffff1614156105c0576040517f08c379a000000000000000000000000000000000000000000000000000000000815260040180806020018281038252602a8152602001806108e3602a913960400191505060405180910390fd5b6000811415610637576040517f08c379a00000000000000000000000000000000000000000000000000000000081526004018080602001828103825260198152602001807f43726f776473616c653a20776569416d6f756e7420697320300000000000000081525060200191505060405180910390fd5b5050565b60006106526004548361076290919063ffffffff16565b9050919050565b6000808284019050838110156106d7576040517f08c379a000000000000000000000000000000000000000000000000000000000815260040180806020018281038252601b8152602001807f536166654d6174683a206164646974696f6e206f766572666c6f77000000000081525060200191505060405180910390fd5b8091505092915050565b6106eb82826107e8565b5050565b5050565b600360009054906101000a900473ffffffffffffffffffffffffffffffffffffffff1673ffffffffffffffffffffffffffffffffffffffff166108fc349081150290604051600060405180830381858888f1935050505015801561075b573d6000803e3d6000fd5b50565b5050565b60008083141561077557600090506107e2565b600082840290508284828161078657fe5b04146107dd576040517f08c379a00000000000000000000000000000000000000000000000000000000081526004018080602001828103825260218152602001806108c26021913960400191505060405180910390fd5b809150505b92915050565b600060019054906101000a900473ffffffffffffffffffffffffffffffffffffffff1673ffffffffffffffffffffffffffffffffffffffff1663cd3a15f883836001546002546040518563ffffffff1660e01b8152600401808573ffffffffffffffffffffffffffffffffffffffff1673ffffffffffffffffffffffffffffffffffffffff168152602001848152602001838152602001828152602001945050505050600060405180830381600087803b1580156108a557600080fd5b505af11580156108b9573d6000803e3d6000fd5b50505050505056fe536166654d6174683a206d756c7469706c69636174696f6e206f766572666c6f7743726f776473616c653a2062656e656669636961727920697320746865207a65726f2061646472657373a265627a7a723158202bb8893c05244f1dea06288d65156c90d5af3d7072adbd9faade608bd2b21f5064736f6c6343000510003243726f776473616c653a20746f6b656e20697320746865207a65726f206164647265737343726f776473616c653a2077616c6c657420697320746865207a65726f2061646472657373",
  "source": "pragma solidity ^0.5.11;\n\nimport '../../zeppeline/crowdsale/Crowdsale.sol';\nimport \"../../zeppeline/utils/ReentrancyGuard.sol\";\nimport \"../../zeppeline/math/SafeMath.sol\";\nimport \"../../zeppeline/GSN/Context.sol\";\nimport \"../../zeppeline/token/ERC721/IERC721Enumerable.sol\";\nimport \"../../zeppeline/drafts/Counters.sol\";\n\nimport './Ticket721.sol';\n\ncontract TokenSale721 is Context, ReentrancyGuard {\n\n\n    using SafeMath for uint256;\n    using SafeERC20 for IERC20;\n\n    // The token being sold\n    Ticket721 public _token;\n\n\n    //event_id\n    uint256 public _event_id;\n\n    // ticket type\n    uint _ticket_type = 1;\n\n    // Address where funds are collected\n    address payable public _wallet;\n\n    // How many token units a buyer gets per wei.\n    // The rate is the conversion between wei and the smallest and indivisible token unit.\n    // So, if you are using a rate of 1 with a ERC20Detailed token with 3 decimals called TOK\n    // 1 wei will give you 1 unit, or 0.001 TOK.\n    uint256 private _rate;\n\n    // Amount of wei raised\n    uint256 private _weiRaised;\n\n    /**\n     * Event for token purchase logging\n     * @param purchaser who paid for the tokens\n     * @param beneficiary who got the tokens\n     * @param value weis paid for purchase\n     * @param amount amount of tokens purchased\n     */\n    event TokensPurchased(address indexed purchaser, address indexed beneficiary, uint256 value, uint256 amount);\n\n    /**\n     * @param rate Number of token units a buyer gets per wei\n     * @dev The rate is the conversion between wei and the smallest and indivisible\n     * token unit. So, if you are using a rate of 1 with a ERC20Detailed token\n     * with 3 decimals called TOK, 1 wei will give you 1 unit, or 0.001 TOK.\n     * @param wallet Address where collected funds will be forwarded to\n     * @param token Address of the token being sold\n     */\n    constructor (uint256 rate, address payable wallet, Ticket721 token) public {\n        require(rate > 0, \"Crowdsale: rate is 0\");\n        require(wallet != address(0), \"Crowdsale: wallet is the zero address\");\n        require(address(token) != address(0), \"Crowdsale: token is the zero address\");\n\n        _rate = rate;\n        _wallet = wallet;\n        _token = token;\n\n        _event_id = _token.reserveEventId(_wallet);\n    }\n\n    /**\n     * @dev fallback function ***DO NOT OVERRIDE***\n     * Note that other contracts will transfer funds with a base gas stipend\n     * of 2300, which is not enough to call buyTokens. Consider calling\n     * buyTokens directly when purchasing tokens from a contract.\n     */\n    function() external payable {\n        buyTokens(_msgSender());\n    }\n\n    /**\n     * @return the token being sold.\n     */\n    function token() public view returns (Ticket721) {\n        return _token;\n    }\n\n    /**\n     * @return the address where funds are collected.\n     */\n    function wallet() public view returns (address payable) {\n        return _wallet;\n    }\n\n    /**\n     * @return the number of token units a buyer gets per wei.\n     */\n    function rate() public view returns (uint256) {\n        return _rate;\n    }\n\n    /**\n     * @return the amount of wei raised.\n     */\n    function weiRaised() public view returns (uint256) {\n        return _weiRaised;\n    }\n\n    function event_id() public view returns (uint256) {\n        return _event_id;\n    }\n\n    /**\n     * @dev low level token purchase ***DO NOT OVERRIDE***\n     * This function has a non-reentrancy guard, so it shouldn't be called by\n     * another `nonReentrant` function.\n     * @param beneficiary Recipient of the token purchase\n     */\n    function buyTokens(address beneficiary) public nonReentrant payable {\n        uint256 weiAmount = msg.value;\n        _preValidatePurchase(beneficiary, weiAmount);\n\n        // calculate token amount to be created\n        uint256 tokens = _getTokenAmount(weiAmount);\n\n        // update state\n        _weiRaised = _weiRaised.add(weiAmount);\n\n        _processPurchase(beneficiary, tokens);\n        emit TokensPurchased(_msgSender(), beneficiary, weiAmount, tokens);\n\n        _updatePurchasingState(beneficiary, weiAmount);\n\n        _forwardFunds();\n        _postValidatePurchase(beneficiary, weiAmount);\n    }\n\n    /**\n     * @dev Validation of an incoming purchase. Use require statements to revert state when conditions are not met.\n     * Use `super` in contracts that inherit from Crowdsale to extend their validations.\n     * Example from CappedCrowdsale.sol's _preValidatePurchase method:\n     *     super._preValidatePurchase(beneficiary, weiAmount);\n     *     require(weiRaised().add(weiAmount) <= cap);\n     * @param beneficiary Address performing the token purchase\n     * @param weiAmount Value in wei involved in the purchase\n     */\n    function _preValidatePurchase(address beneficiary, uint256 weiAmount) internal view {\n        require(beneficiary != address(0), \"Crowdsale: beneficiary is the zero address\");\n        require(weiAmount != 0, \"Crowdsale: weiAmount is 0\");\n        this; // silence state mutability warning without generating bytecode - see https://github.com/ethereum/solidity/issues/2691\n    }\n\n    /**\n     * @dev Validation of an executed purchase. Observe state and use revert statements to undo rollback when valid\n     * conditions are not met.\n     * @param beneficiary Address performing the token purchase\n     * @param weiAmount Value in wei involved in the purchase\n     */\n    function _postValidatePurchase(address beneficiary, uint256 weiAmount) internal view {\n        // solhint-disable-previous-line no-empty-blocks\n    }\n\n    /**\n     * @dev Source of tokens. Override this method to modify the way in which the crowdsale ultimately gets and sends\n     * its tokens.\n     * @param beneficiary Address performing the token purchase\n     * @param tokenAmount Number of tokens to be emitted\n     */\n    function _deliverTokens(address beneficiary, uint256 tokenAmount) internal {\n        _token.buyTicket(beneficiary,tokenAmount, _event_id, _ticket_type);\n    }\n\n    /**\n     * @dev Executed when a purchase has been validated and is ready to be executed. Doesn't necessarily emit/send\n     * tokens.\n     * @param beneficiary Address receiving the tokens\n     * @param tokenAmount Number of tokens to be purchased\n     */\n    function _processPurchase(address beneficiary, uint256 tokenAmount) internal {\n        _deliverTokens(beneficiary, tokenAmount);\n    }\n\n    /**\n     * @dev Override for extensions that require an internal state to check for validity (current user contributions,\n     * etc.)\n     * @param beneficiary Address receiving the tokens\n     * @param weiAmount Value in wei involved in the purchase\n     */\n    function _updatePurchasingState(address beneficiary, uint256 weiAmount) internal {\n        // solhint-disable-previous-line no-empty-blocks\n    }\n\n    /**\n     * @dev Override to extend the way in which ether is converted to tokens.\n     * @param weiAmount Value in wei to be converted into tokens\n     * @return Number of tokens that can be purchased with the specified _weiAmount\n     */\n    function _getTokenAmount(uint256 weiAmount) internal view returns (uint256) {\n        return weiAmount.mul(_rate);\n        //FIXME: round result to int, check math\n    }\n\n    /**\n     * @dev Determines how ETH is stored/forwarded on purchases.\n     */\n    function _forwardFunds() internal {\n        _wallet.transfer(msg.value);\n    }\n\n\n\n}",
  "sourcePath": "/home/jack/ethProjects/MS-Factory/contracts/721/singleton/TokenSale721.sol",
  "compiler": {
    "name": "solc",
    "version": "0.5.16+commit.9c3226ce.Emscripten.clang"
  },
  "schemaVersion": "3.0.11",
  "updatedAt": "2020-03-13T06:01:51.269Z",
  "devdoc": {
    "methods": {
      "buyTokens(address)": {
        "details": "low level token purchase ***DO NOT OVERRIDE*** This function has a non-reentrancy guard, so it shouldn't be called by another `nonReentrant` function.",
        "params": {
          "beneficiary": "Recipient of the token purchase"
        }
      },
      "constructor": {
        "details": "The rate is the conversion between wei and the smallest and indivisible token unit. So, if you are using a rate of 1 with a ERC20Detailed token with 3 decimals called TOK, 1 wei will give you 1 unit, or 0.001 TOK.",
        "params": {
          "rate": "Number of token units a buyer gets per wei",
          "token": "Address of the token being sold",
          "wallet": "Address where collected funds will be forwarded to"
        }
      },
      "rate()": {
        "return": "the number of token units a buyer gets per wei."
      },
      "token()": {
        "return": "the token being sold."
      },
      "wallet()": {
        "return": "the address where funds are collected."
      },
      "weiRaised()": {
        "return": "the amount of wei raised."
      }
    }
  },
  "userdoc": {
    "methods": {}
  }
}