{
  "contractName": "TokenSale721",
  "abi": [
    {
      "inputs": [
        {
          "internalType": "uint256",
          "name": "rate",
          "type": "uint256"
        },
        {
          "internalType": "address payable",
          "name": "wallet",
          "type": "address"
        },
        {
          "internalType": "contract Ticket721",
          "name": "token",
          "type": "address"
        },
        {
          "internalType": "uint256",
          "name": "sale_limit",
          "type": "uint256"
        },
        {
          "internalType": "string",
          "name": "jid",
          "type": "string"
        },
        {
          "internalType": "address payable",
          "name": "_treasure_fund",
          "type": "address"
        },
        {
          "internalType": "uint256",
          "name": "timeToStart",
          "type": "uint256"
        }
      ],
      "payable": false,
      "stateMutability": "nonpayable",
      "type": "constructor"
    },
    {
      "anonymous": false,
      "inputs": [
        {
          "indexed": false,
          "internalType": "uint256",
          "name": "initial_value",
          "type": "uint256"
        },
        {
          "indexed": false,
          "internalType": "uint256",
          "name": "fees",
          "type": "uint256"
        },
        {
          "indexed": false,
          "internalType": "uint256",
          "name": "transfered_amount",
          "type": "uint256"
        }
      ],
      "name": "CalculatedFees",
      "type": "event"
    },
    {
      "anonymous": false,
      "inputs": [
        {
          "indexed": true,
          "internalType": "address",
          "name": "purchaser",
          "type": "address"
        },
        {
          "indexed": true,
          "internalType": "address",
          "name": "beneficiary",
          "type": "address"
        },
        {
          "indexed": false,
          "internalType": "uint256",
          "name": "value",
          "type": "uint256"
        },
        {
          "indexed": false,
          "internalType": "uint256",
          "name": "amount",
          "type": "uint256"
        }
      ],
      "name": "TokensPurchased",
      "type": "event"
    },
    {
      "payable": true,
      "stateMutability": "payable",
      "type": "fallback"
    },
    {
      "constant": true,
      "inputs": [],
      "name": "_event_id",
      "outputs": [
        {
          "internalType": "uint256",
          "name": "",
          "type": "uint256"
        }
      ],
      "payable": false,
      "stateMutability": "view",
      "type": "function"
    },
    {
      "constant": true,
      "inputs": [],
      "name": "_sold_count",
      "outputs": [
        {
          "internalType": "uint256",
          "name": "",
          "type": "uint256"
        }
      ],
      "payable": false,
      "stateMutability": "view",
      "type": "function"
    },
    {
      "constant": true,
      "inputs": [],
      "name": "_ticket_type",
      "outputs": [
        {
          "internalType": "uint256",
          "name": "",
          "type": "uint256"
        }
      ],
      "payable": false,
      "stateMutability": "view",
      "type": "function"
    },
    {
      "constant": true,
      "inputs": [],
      "name": "_timeToStart",
      "outputs": [
        {
          "internalType": "uint256",
          "name": "",
          "type": "uint256"
        }
      ],
      "payable": false,
      "stateMutability": "view",
      "type": "function"
    },
    {
      "constant": true,
      "inputs": [],
      "name": "_token",
      "outputs": [
        {
          "internalType": "contract Ticket721",
          "name": "",
          "type": "address"
        }
      ],
      "payable": false,
      "stateMutability": "view",
      "type": "function"
    },
    {
      "constant": true,
      "inputs": [],
      "name": "_wallet",
      "outputs": [
        {
          "internalType": "address payable",
          "name": "",
          "type": "address"
        }
      ],
      "payable": false,
      "stateMutability": "view",
      "type": "function"
    },
    {
      "constant": true,
      "inputs": [],
      "name": "crDate",
      "outputs": [
        {
          "internalType": "uint256",
          "name": "",
          "type": "uint256"
        }
      ],
      "payable": false,
      "stateMutability": "view",
      "type": "function"
    },
    {
      "constant": true,
      "inputs": [],
      "name": "lockedFunds",
      "outputs": [
        {
          "internalType": "uint256",
          "name": "",
          "type": "uint256"
        }
      ],
      "payable": false,
      "stateMutability": "view",
      "type": "function"
    },
    {
      "constant": true,
      "inputs": [],
      "name": "percent_fee",
      "outputs": [
        {
          "internalType": "uint256",
          "name": "",
          "type": "uint256"
        }
      ],
      "payable": false,
      "stateMutability": "view",
      "type": "function"
    },
    {
      "constant": true,
      "inputs": [],
      "name": "treasure_fund",
      "outputs": [
        {
          "internalType": "address payable",
          "name": "",
          "type": "address"
        }
      ],
      "payable": false,
      "stateMutability": "view",
      "type": "function"
    },
    {
      "constant": true,
      "inputs": [],
      "name": "token",
      "outputs": [
        {
          "internalType": "contract Ticket721",
          "name": "",
          "type": "address"
        }
      ],
      "payable": false,
      "stateMutability": "view",
      "type": "function"
    },
    {
      "constant": true,
      "inputs": [],
      "name": "wallet",
      "outputs": [
        {
          "internalType": "address payable",
          "name": "",
          "type": "address"
        }
      ],
      "payable": false,
      "stateMutability": "view",
      "type": "function"
    },
    {
      "constant": true,
      "inputs": [],
      "name": "rate",
      "outputs": [
        {
          "internalType": "uint256",
          "name": "",
          "type": "uint256"
        }
      ],
      "payable": false,
      "stateMutability": "view",
      "type": "function"
    },
    {
      "constant": true,
      "inputs": [],
      "name": "weiRaised",
      "outputs": [
        {
          "internalType": "uint256",
          "name": "",
          "type": "uint256"
        }
      ],
      "payable": false,
      "stateMutability": "view",
      "type": "function"
    },
    {
      "constant": true,
      "inputs": [],
      "name": "event_id",
      "outputs": [
        {
          "internalType": "uint256",
          "name": "",
          "type": "uint256"
        }
      ],
      "payable": false,
      "stateMutability": "view",
      "type": "function"
    },
    {
      "constant": true,
      "inputs": [],
      "name": "sale_limit",
      "outputs": [
        {
          "internalType": "uint256",
          "name": "",
          "type": "uint256"
        }
      ],
      "payable": false,
      "stateMutability": "view",
      "type": "function"
    },
    {
      "constant": true,
      "inputs": [],
      "name": "ticket_type",
      "outputs": [
        {
          "internalType": "uint256",
          "name": "",
          "type": "uint256"
        }
      ],
      "payable": false,
      "stateMutability": "view",
      "type": "function"
    },
    {
      "constant": true,
      "inputs": [],
      "name": "sold_count",
      "outputs": [
        {
          "internalType": "uint256",
          "name": "",
          "type": "uint256"
        }
      ],
      "payable": false,
      "stateMutability": "view",
      "type": "function"
    },
    {
      "constant": false,
      "inputs": [
        {
          "internalType": "address",
          "name": "beneficiary",
          "type": "address"
        }
      ],
      "name": "buyTokens",
      "outputs": [],
      "payable": true,
      "stateMutability": "payable",
      "type": "function"
    },
    {
      "constant": false,
      "inputs": [],
      "name": "_lockFunds",
      "outputs": [],
      "payable": true,
      "stateMutability": "payable",
      "type": "function"
    },
    {
      "constant": false,
      "inputs": [],
      "name": "withDrawFunds",
      "outputs": [],
      "payable": false,
      "stateMutability": "nonpayable",
      "type": "function"
    }
  ],
  "bytecode": "0x608060405260016002556000600455600560095542600a5534801561002357600080fd5b50604051611061380380611061833981810160405260e081101561004657600080fd5b815160208301516040808501516060860151608087018051935195979496929591949193928201928464010000000082111561008157600080fd5b90830190602082018581111561009657600080fd5b82516401000000008111828201881017156100b057600080fd5b82525081516020918201929091019080838360005b838110156100dd5781810151838201526020016100c5565b50505050905090810190601f16801561010a5780820380516001836020036101000a031916815260200191505b50604090815260208201519101516000805460ff1916600117905590925090508661017c576040805162461bcd60e51b815260206004820152601460248201527f43726f776473616c653a20726174652069732030000000000000000000000000604482015290519081900360640190fd5b6001600160a01b0386166101c15760405162461bcd60e51b815260040180806020018281038252602581526020018061103c6025913960400191505060405180910390fd5b6001600160a01b0385166102065760405162461bcd60e51b81526004018080602001828103825260248152602001806110186024913960400191505060405180910390fd5b6007879055600580546001600160a01b03199081166001600160a01b038981169190911792839055600680549092168582161790915560008054610100600160a81b031916610100898416810291909117808355670de0b6b3a7640000890260035560408051631440364760e31b815295851660048701818152602488019283528a5160448901528a51949093049095169563a201b23895948a9460649092019160208601918190849084905b838110156102cb5781810151838201526020016102b3565b50505050905090810190601f1680156102f85780820380516001836020036101000a031916815260200191505b509350505050602060405180830381600087803b15801561031857600080fd5b505af115801561032c573d6000803e3d6000fd5b505050506040513d602081101561034257600080fd5b5051600155600b55505050505050610cb98061035f6000396000f3fe60806040526004361061012a5760003560e01c8063b78da386116100ab578063ecd0c0c31161006f578063ecd0c0c3146102a9578063f00a93d3146102be578063f9a4bb1e146102d3578063f9cfe26b146102e8578063fbbdc465146102fd578063fc0c546a146103125761012a565b8063b78da3861461022f578063b8afaa4814610244578063e27920a814610259578063e61d95941461026e578063ec8ac4d8146102835761012a565b8063521eb273116100f2578063521eb273146101b75780635a62f108146101e8578063610757e4146101f05780636ed08ea01461020557806391039dee1461021a5761012a565b806323e6f3401461013c5780632c4e722e146101635780633b13d188146101785780634042b66f1461018d5780634f13dc7e146101a2575b61013a610135610327565b61032b565b005b34801561014857600080fd5b50610151610462565b60408051918252519081900360200190f35b34801561016f57600080fd5b50610151610468565b34801561018457600080fd5b5061015161046e565b34801561019957600080fd5b50610151610474565b3480156101ae57600080fd5b5061015161047a565b3480156101c357600080fd5b506101cc610480565b604080516001600160a01b039092168252519081900360200190f35b61013a61048f565b3480156101fc57600080fd5b506101cc610531565b34801561021157600080fd5b50610151610540565b34801561022657600080fd5b50610151610546565b34801561023b57600080fd5b5061013a61054c565b34801561025057600080fd5b50610151610638565b34801561026557600080fd5b5061015161063e565b34801561027a57600080fd5b50610151610644565b61013a6004803603602081101561029957600080fd5b50356001600160a01b031661032b565b3480156102b557600080fd5b506101cc61064a565b3480156102ca57600080fd5b5061015161065e565b3480156102df57600080fd5b506101cc610664565b3480156102f457600080fd5b50610151610673565b34801561030957600080fd5b50610151610679565b34801561031e57600080fd5b506101cc61067f565b3390565b60005460ff16610382576040805162461bcd60e51b815260206004820152601f60248201527f5265656e7472616e637947756172643a207265656e7472616e742063616c6c00604482015290519081900360640190fd5b6000805460ff19168155349061039782610693565b90506103a4838383610706565b6008546103b7908363ffffffff6107f916565b6008556004546103cd908263ffffffff6107f916565b6004556103da838261085c565b826001600160a01b03166103ec610327565b6001600160a01b03167f6faf93231a456e552dbc9961f58d9713ee4f2e69d15f1975b050ef0911053a7b8484604051808381526020018281526020019250505060405180910390a361043e8383610866565b61044661048f565b6104508383610866565b50506000805460ff1916600117905550565b60025481565b60075490565b600b5481565b60085490565b600a5481565b6005546001600160a01b031690565b346064600061049e838361086a565b60065460405194829003949192506001600160a01b03169082156108fc029083906000818181858888f193505050501580156104de573d6000803e3d6000fd5b50604080518483018082526020820184905281830186905291517f8f4705a6d8c5af200050d845b50d0f90f838a179c62b9365daa314992598fc1b9181900360600190a15050600c805490920190915550565b6005546001600160a01b031681565b60015481565b60015490565b6005546001600160a01b031633146105ab576040805162461bcd60e51b815260206004820152601960248201527f6f6e6c79206f7267616e61697a65722063616e20646f20697400000000000000604482015290519081900360640190fd5b600b54600a540342106105ff57600554600c546040516001600160a01b039092169181156108fc0291906000818181858888f193505050501580156105f4573d6000803e3d6000fd5b506000600c55610636565b60405162461bcd60e51b815260040180806020018281038252602a815260200180610bba602a913960400191505060405180910390fd5b565b600c5481565b60095481565b60045490565b60005461010090046001600160a01b031681565b60035490565b6006546001600160a01b031681565b60045481565b60025490565b60005461010090046001600160a01b031690565b60006007548210156106d65760405162461bcd60e51b815260040180806020018281038252602c815260200180610c59602c913960400191505060405180910390fd5b6000670de0b6b3a7640000600754816106eb57fe5b04670de0b6b3a76400008404816106fe57fe5b049392505050565b6001600160a01b03831661074b5760405162461bcd60e51b815260040180806020018281038252602a815260200180610c2f602a913960400191505060405180910390fd5b8161079d576040805162461bcd60e51b815260206004820152601960248201527f43726f776473616c653a20776569416d6f756e74206973203000000000000000604482015290519081900360640190fd5b600454600354670de0b6b3a764000090910290828201908111156107f25760405162461bcd60e51b815260040180806020018281038252602a815260200180610be4602a913960400191505060405180910390fd5b5050505050565b600082820183811015610853576040805162461bcd60e51b815260206004820152601b60248201527f536166654d6174683a206164646974696f6e206f766572666c6f770000000000604482015290519081900360640190fd5b90505b92915050565b6108668282610951565b5050565b60008061087784846109d8565b905060006108858585610a1a565b90506000610895600954866109d8565b905060006108a560095487610a1a565b905060006108bc6108b68685610a5c565b88610a5c565b905060006108ca8684610a5c565b905060006108d88686610a5c565b905060006108e68786610a5c565b905060006108f58b60026109d8565b9050600061090383836107f9565b90506000610911828e6109d8565b9050600061091f88886107f9565b9050600061092d82886107f9565b9050600061093b82856107f9565b9e50505050505050505050505050505092915050565b60008054600154600254604080516319a742bf60e31b81526001600160a01b0388811660048301526024820188905260448201949094526064810192909252516101009093049091169263cd3a15f89260848084019382900301818387803b1580156109bc57600080fd5b505af11580156109d0573d6000803e3d6000fd5b505050505050565b600061085383836040518060400160405280601a81526020017f536166654d6174683a206469766973696f6e206279207a65726f000000000000815250610ab5565b600061085383836040518060400160405280601881526020017f536166654d6174683a206d6f64756c6f206279207a65726f0000000000000000815250610b57565b600082610a6b57506000610856565b82820282848281610a7857fe5b04146108535760405162461bcd60e51b8152600401808060200182810382526021815260200180610c0e6021913960400191505060405180910390fd5b60008183610b415760405162461bcd60e51b81526004018080602001828103825283818151815260200191508051906020019080838360005b83811015610b06578181015183820152602001610aee565b50505050905090810190601f168015610b335780820380516001836020036101000a031916815260200191505b509250505060405180910390fd5b506000838581610b4d57fe5b0495945050505050565b60008183610ba65760405162461bcd60e51b8152602060048201818152835160248401528351909283926044909101919085019080838360008315610b06578181015183820152602001610aee565b50828481610bb057fe5b0694935050505056fe6576656e74206973206e6f742073746172746564207965742c2066756e647320617265206c6f636b6564746f6b656e7320616d6f756e742073686f756c64206e6f74206578636565642073616c655f6c696d6974536166654d6174683a206d756c7469706c69636174696f6e206f766572666c6f7743726f776473616c653a2062656e656669636961727920697320746865207a65726f206164647265737377656920616d6f756e742073686f756c6420626520626967676572206f7220657175616c206f662072617465a265627a7a723158203019b54156f173fb4ecc9329b73ef8039a8de3b8b304557c3aeb56cde7a64f2f64736f6c6343000511003243726f776473616c653a20746f6b656e20697320746865207a65726f206164647265737343726f776473616c653a2077616c6c657420697320746865207a65726f2061646472657373",
  "source": "pragma solidity ^0.5.11;\n\nimport '../../zeppeline/crowdsale/Crowdsale.sol';\nimport \"../../zeppeline/utils/ReentrancyGuard.sol\";\nimport \"../../zeppeline/math/SafeMath.sol\";\nimport \"../../zeppeline/GSN/Context.sol\";\nimport \"../../zeppeline/token/ERC721/IERC721Enumerable.sol\";\nimport \"../../zeppeline/drafts/Counters.sol\";\n\nimport './Ticket721.sol';\n\ncontract TokenSale721 is Context, ReentrancyGuard {\n\n\n    using SafeMath for uint256;\n    using SafeERC20 for IERC20;\n  //  using Counters for Counters.Counter;\n\n    // The token being sold\n    Ticket721 public _token;\n\n\n    //event_id\n    uint256 public _event_id;\n\n    // ticket type\n    uint public _ticket_type = 1;\n\n    // maximum amount of tickets to sale\n   // Counters.Counter public _current_limit;\n    uint _sale_limit;\n    // how much have been already sold\n    uint public _sold_count = 0;\n\n    // Address where funds are collected\n    address payable public _wallet;\n\n    // Address where we collect comission\n    address payable public treasure_fund;\n\n    // How many token units a buyer gets per wei.\n    // The rate is the conversion between wei and the smallest and indivisible token unit.\n    // So, if you are using a rate of 1 with a ERC20Detailed token with 3 decimals called TOK\n    // 1 wei will give you 1 unit, or 0.001 TOK.\n    uint256 private _rate;\n\n    // Amount of wei raised\n    uint256 private _weiRaised;\n\n    // service comission fee\n    uint public percent_fee = 5;\n\n    // Creation date\n    uint public crDate = now;\n\n    // How much time before event start (in seconds)\n    uint public _timeToStart;\n\n    // Funds, that have been locked\n    uint256 public lockedFunds;\n\n    /**\n     * Event for token purchase logging\n     * @param purchaser who paid for the tokens\n     * @param beneficiary who got the tokens\n     * @param value weis paid for purchase\n     * @param amount amount of tokens purchased\n     */\n    event TokensPurchased(address indexed purchaser, address indexed beneficiary, uint256 value, uint256 amount);\n\n    event CalculatedFees(uint256 initial_value, uint256 fees, uint256 transfered_amount);\n\n\n    /**\n     * @param rate Number of token units a buyer gets per wei\n     * @dev The rate is the conversion between wei and the smallest and indivisible\n     * token unit. So, if you are using a rate of 1 with a ERC20Detailed token\n     * with 3 decimals called TOK, 1 wei will give you 1 unit, or 0.001 TOK.\n     * @param wallet Address where collected funds will be forwarded to\n     * @param token Address of the token being sold\n     */\n    constructor (uint256 rate, address payable wallet, Ticket721 token, uint sale_limit, string memory jid, address payable _treasure_fund,uint timeToStart) public {\n        require(rate > 0, \"Crowdsale: rate is 0\");\n        require(wallet != address(0), \"Crowdsale: wallet is the zero address\");\n        require(address(token) != address(0), \"Crowdsale: token is the zero address\");\n\n        _rate = rate;\n        _wallet = wallet;\n        treasure_fund = _treasure_fund;\n        _token = token;\n        _sale_limit = sale_limit * (1 ether);\n\n        _event_id = _token.reserveEventId(_wallet,jid);\n\n        _timeToStart = timeToStart;\n    }\n\n    /**\n     * @dev fallback function ***DO NOT OVERRIDE***\n     * Note that other contracts will transfer funds with a base gas stipend\n     * of 2300, which is not enough to call buyTokens. Consider calling\n     * buyTokens directly when purchasing tokens from a contract.\n     */\n    function() external payable {\n        buyTokens(_msgSender());\n    }\n\n    /**\n     * @return the token being sold.\n     */\n    function token() public view returns (Ticket721) {\n        return _token;\n    }\n\n    /**\n     * @return the address where funds are collected.\n     */\n    function wallet() public view returns (address payable) {\n        return _wallet;\n    }\n\n    /**\n     * @return the number of token units a buyer gets per wei.\n     */\n    function rate() public view returns (uint256) {\n        return _rate;\n    }\n\n    /**\n     * @return the amount of wei raised.\n     */\n    function weiRaised() public view returns (uint256) {\n        return _weiRaised;\n    }\n\n    function event_id() public view returns (uint256) {\n        return _event_id;\n    }\n\n    function sale_limit() public view returns (uint) {\n        return _sale_limit;\n    }\n\n    function ticket_type() public view returns (uint) {\n        return _ticket_type;\n    }\n\n    function sold_count() public view returns (uint) {\n        return _sold_count;\n    }\n\n    /**\n     * @dev low level token purchase ***DO NOT OVERRIDE***\n     * This function has a non-reentrancy guard, so it shouldn't be called by\n     * another `nonReentrant` function.\n     * @param beneficiary Recipient of the token purchase\n     */\n    function buyTokens(address beneficiary) public nonReentrant payable {\n        uint256 weiAmount = msg.value;\n\n        // calculate token amount to be created\n        uint256 tokens = _getTokenAmount(weiAmount);\n\n        _preValidatePurchase(beneficiary, weiAmount, tokens);\n\n        // update state\n        _weiRaised = _weiRaised.add(weiAmount);\n        _sold_count = _sold_count.add(tokens);\n\n        _processPurchase(beneficiary, tokens);\n        emit TokensPurchased(_msgSender(), beneficiary, weiAmount, tokens);\n\n        _updatePurchasingState(beneficiary, weiAmount);\n\n     //   _forwardFunds();\n         _lockFunds();\n        _postValidatePurchase(beneficiary, weiAmount);\n    }\n\n    /**\n     * @dev Validation of an incoming purchase. Use require statements to revert state when conditions are not met.\n     * Use `super` in contracts that inherit from Crowdsale to extend their validations.\n     * Example from CappedCrowdsale.sol's _preValidatePurchase method:\n     *     super._preValidatePurchase(beneficiary, weiAmount);\n     *     require(weiRaised().add(weiAmount) <= cap);\n     * @param beneficiary Address performing the token purchase\n     * @param weiAmount Value in wei involved in the purchase\n     */\n    function _preValidatePurchase(address beneficiary, uint256 weiAmount, uint256 tokens) internal view {\n        require(beneficiary != address(0), \"Crowdsale: beneficiary is the zero address\");\n        require(weiAmount != 0, \"Crowdsale: weiAmount is 0\");\n        uint sc = _sold_count * (1 ether);\n        uint limit = sc + tokens;\n        require(limit <= _sale_limit, \"tokens amount should not exceed sale_limit\");\n        this; // silence state mutability warning without generating bytecode - see https://github.com/ethereum/solidity/issues/2691\n    }\n\n    /**\n     * @dev Validation of an executed purchase. Observe state and use revert statements to undo rollback when valid\n     * conditions are not met.\n     * @param beneficiary Address performing the token purchase\n     * @param weiAmount Value in wei involved in the purchase\n     */\n    function _postValidatePurchase(address beneficiary, uint256 weiAmount) internal view {\n        // solhint-disable-previous-line no-empty-blocks\n    }\n\n    /**\n     * @dev Source of tokens. Override this method to modify the way in which the crowdsale ultimately gets and sends\n     * its tokens.\n     * @param beneficiary Address performing the token purchase\n     * @param tokenAmount Number of tokens to be emitted\n     */\n    function _deliverTokens(address beneficiary, uint256 tokenAmount) internal {\n        _token.buyTicket(beneficiary,tokenAmount, _event_id, _ticket_type);\n    }\n\n    /**\n     * @dev Executed when a purchase has been validated and is ready to be executed. Doesn't necessarily emit/send\n     * tokens.\n     * @param beneficiary Address receiving the tokens\n     * @param tokenAmount Number of tokens to be purchased\n     */\n    function _processPurchase(address beneficiary, uint256 tokenAmount) internal {\n        _deliverTokens(beneficiary, tokenAmount);\n    }\n\n    /**\n     * @dev Override for extensions that require an internal state to check for validity (current user contributions,\n     * etc.)\n     * @param beneficiary Address receiving the tokens\n     * @param weiAmount Value in wei involved in the purchase\n     */\n    function _updatePurchasingState(address beneficiary, uint256 weiAmount) internal {\n        // solhint-disable-previous-line no-empty-blocks\n    }\n\n    /**\n     * @dev Override to extend the way in which ether is converted to tokens.\n     * @param weiAmount Value in wei to be converted into tokens\n     * @return Number of tokens that can be purchased with the specified _weiAmount\n     */\n    function _getTokenAmount(uint256 weiAmount) internal view returns (uint256) {\n      //  require(condition, message);\n        require(weiAmount >= _rate, \"wei amount should be bigger or equal of rate\");\n       // uint256 ta = SafeMath.mul(weiAmount, _rate);\n        uint256 ta = (weiAmount / (1 ether)) / (_rate / (1 ether));\n        return ta;\n       // return weiAmount.mul(_rate);\n        //FIXME: round result to int, check math\n    }\n\n    /**\n     * @dev Determines how ETH is stored/forwarded on purchases.\n     */\n    function _forwardFunds() internal {\n        uint256 amount = msg.value;\n        uint256 scale = 100;\n        uint256 fees = calculateFee(amount,scale);\n        amount = amount - fees;\n        _wallet.transfer(amount);\n        treasure_fund.transfer(fees);\n        uint256 r = amount + fees;\n        emit CalculatedFees(r,fees,amount);\n    }\n\n    // Locking funds form sales to contract balance\n    function _lockFunds() public payable {\n        uint256 amount = msg.value;\n        uint256 scale = 100;\n        uint256 fees = calculateFee(amount,scale);\n        amount = amount - fees;\n        treasure_fund.transfer(fees);\n        uint256 r = amount + fees;\n        emit CalculatedFees(r,fees,amount);\n        lockedFunds = lockedFunds + amount;\n\n    }\n\n    // WithDraw locked funds to organiser\n    function withDrawFunds() public {\n        require(msg.sender == _wallet, \"only organaizer can do it\");\n        if (now >= crDate - _timeToStart) {\n            _wallet.transfer(lockedFunds);\n            lockedFunds = 0;\n        } else {\n            revert(\"event is not started yet, funds are locked\");\n        }\n    }\n\n    function refundToken(address payable visitor, uint256 amount) internal {\n        visitor.transfer(amount);\n        lockedFunds = lockedFunds.sub(amount);\n    }\n\n    /*\n    *   EXAMPLE OF TAKING FEE (BASIC OPERATORS)\n    *\n    // calculate percent -- amount * percent / 100\n    function calculateFee(uint256 amount, uint256 scale) internal view returns (uint256) {\n        uint a = amount / scale;\n        uint b = amount % scale;\n        uint c = percent_fee / scale;\n        uint d = percent_fee % scale;\n\n        // Calculate fee with ROUND DOWN\n       // return a * c * scale + a * d + b * c + b * d / scale;\n\n       // calculate fee with ROUND UP\n     //   return a * c * scale + a * d + b * c + (b * d + scale - 1) / scale;\n\n     //calculate fee with CLOSESTS INTEGER\n        return a * c * scale + a * d + b * c + (b * d + scale / 2) / scale;\n\n    }\n    */\n\n\n    /*\n    *   Calculate fee (SafeMath)\n    */\n    function calculateFee(uint256 amount, uint256 scale) internal view returns (uint256) {\n        uint256 a = SafeMath.div(amount, scale);\n        uint256 b = SafeMath.mod(amount, scale);\n        uint256 c = SafeMath.div(percent_fee, scale);\n        uint256 d = SafeMath.mod(percent_fee, scale);\n\n        // Calculate fee with ROUND DOWN\n       // return a * c * scale + a * d + b * c + b * d / scale;\n\n       // calculate fee with ROUND UP\n     //   return a * c * scale + a * d + b * c + (b * d + scale - 1) / scale;\n\n     //calculate fee with CLOSESTS INTEGER\n       // return a * c * scale + a * d + b * c + (b * d + scale / 2) / scale;\n        uint256 m1 = SafeMath.mul(SafeMath.mul(a,c), scale);\n        uint256 m2 = SafeMath.mul(a,d);\n        uint256 m3 = SafeMath.mul(b,c);\n        uint m4 = SafeMath.mul(b,d);\n\n        uint256 d1 = SafeMath.div(scale,2);\n\n        uint256 a1 = SafeMath.add(m4,d1);\n        uint256 d2 = SafeMath.div(a1,scale);\n        uint256 a2 = SafeMath.add(m1,m2);\n        uint256 a3 = SafeMath.add(a2,m3);\n        uint256 a4 = SafeMath.add(a3,d2);\n        return a4;\n    }\n\n\n\n\n\n}",
  "sourcePath": "/home/jack/ethProjects/MS-Factory/contracts/721/singleton/TokenSale721.sol",
  "compiler": {
    "name": "solc",
    "version": "0.5.17+commit.d19bba13.Emscripten.clang"
  },
  "schemaVersion": "3.0.11",
  "updatedAt": "2020-07-17T15:41:46.599Z",
  "devdoc": {
    "methods": {
      "buyTokens(address)": {
        "details": "low level token purchase ***DO NOT OVERRIDE*** This function has a non-reentrancy guard, so it shouldn't be called by another `nonReentrant` function.",
        "params": {
          "beneficiary": "Recipient of the token purchase"
        }
      },
      "constructor": {
        "details": "The rate is the conversion between wei and the smallest and indivisible token unit. So, if you are using a rate of 1 with a ERC20Detailed token with 3 decimals called TOK, 1 wei will give you 1 unit, or 0.001 TOK.",
        "params": {
          "rate": "Number of token units a buyer gets per wei",
          "token": "Address of the token being sold",
          "wallet": "Address where collected funds will be forwarded to"
        }
      },
      "rate()": {
        "return": "the number of token units a buyer gets per wei."
      },
      "token()": {
        "return": "the token being sold."
      },
      "wallet()": {
        "return": "the address where funds are collected."
      },
      "weiRaised()": {
        "return": "the amount of wei raised."
      }
    }
  },
  "userdoc": {
    "methods": {}
  }
}