{
  "contractName": "TokenSale721",
  "abi": [
    {
      "inputs": [
        {
          "internalType": "uint256",
          "name": "rate",
          "type": "uint256"
        },
        {
          "internalType": "address payable",
          "name": "wallet",
          "type": "address"
        },
        {
          "internalType": "contract Ticket721",
          "name": "token",
          "type": "address"
        },
        {
          "internalType": "uint256",
          "name": "sale_limit",
          "type": "uint256"
        },
        {
          "internalType": "string",
          "name": "jid",
          "type": "string"
        },
        {
          "internalType": "address payable",
          "name": "_treasure_fund",
          "type": "address"
        }
      ],
      "payable": false,
      "stateMutability": "nonpayable",
      "type": "constructor"
    },
    {
      "anonymous": false,
      "inputs": [
        {
          "indexed": false,
          "internalType": "uint256",
          "name": "initial_value",
          "type": "uint256"
        },
        {
          "indexed": false,
          "internalType": "uint256",
          "name": "fees",
          "type": "uint256"
        },
        {
          "indexed": false,
          "internalType": "uint256",
          "name": "transfered_amount",
          "type": "uint256"
        }
      ],
      "name": "CalculatedFees",
      "type": "event"
    },
    {
      "anonymous": false,
      "inputs": [
        {
          "indexed": true,
          "internalType": "address",
          "name": "purchaser",
          "type": "address"
        },
        {
          "indexed": true,
          "internalType": "address",
          "name": "beneficiary",
          "type": "address"
        },
        {
          "indexed": false,
          "internalType": "uint256",
          "name": "value",
          "type": "uint256"
        },
        {
          "indexed": false,
          "internalType": "uint256",
          "name": "amount",
          "type": "uint256"
        }
      ],
      "name": "TokensPurchased",
      "type": "event"
    },
    {
      "payable": true,
      "stateMutability": "payable",
      "type": "fallback"
    },
    {
      "constant": true,
      "inputs": [],
      "name": "_event_id",
      "outputs": [
        {
          "internalType": "uint256",
          "name": "",
          "type": "uint256"
        }
      ],
      "payable": false,
      "stateMutability": "view",
      "type": "function"
    },
    {
      "constant": true,
      "inputs": [],
      "name": "_sold_count",
      "outputs": [
        {
          "internalType": "uint256",
          "name": "",
          "type": "uint256"
        }
      ],
      "payable": false,
      "stateMutability": "view",
      "type": "function"
    },
    {
      "constant": true,
      "inputs": [],
      "name": "_ticket_type",
      "outputs": [
        {
          "internalType": "uint256",
          "name": "",
          "type": "uint256"
        }
      ],
      "payable": false,
      "stateMutability": "view",
      "type": "function"
    },
    {
      "constant": true,
      "inputs": [],
      "name": "_token",
      "outputs": [
        {
          "internalType": "contract Ticket721",
          "name": "",
          "type": "address"
        }
      ],
      "payable": false,
      "stateMutability": "view",
      "type": "function"
    },
    {
      "constant": true,
      "inputs": [],
      "name": "_wallet",
      "outputs": [
        {
          "internalType": "address payable",
          "name": "",
          "type": "address"
        }
      ],
      "payable": false,
      "stateMutability": "view",
      "type": "function"
    },
    {
      "constant": true,
      "inputs": [],
      "name": "percent_fee",
      "outputs": [
        {
          "internalType": "uint256",
          "name": "",
          "type": "uint256"
        }
      ],
      "payable": false,
      "stateMutability": "view",
      "type": "function"
    },
    {
      "constant": true,
      "inputs": [],
      "name": "treasure_fund",
      "outputs": [
        {
          "internalType": "address payable",
          "name": "",
          "type": "address"
        }
      ],
      "payable": false,
      "stateMutability": "view",
      "type": "function"
    },
    {
      "constant": true,
      "inputs": [],
      "name": "token",
      "outputs": [
        {
          "internalType": "contract Ticket721",
          "name": "",
          "type": "address"
        }
      ],
      "payable": false,
      "stateMutability": "view",
      "type": "function"
    },
    {
      "constant": true,
      "inputs": [],
      "name": "wallet",
      "outputs": [
        {
          "internalType": "address payable",
          "name": "",
          "type": "address"
        }
      ],
      "payable": false,
      "stateMutability": "view",
      "type": "function"
    },
    {
      "constant": true,
      "inputs": [],
      "name": "rate",
      "outputs": [
        {
          "internalType": "uint256",
          "name": "",
          "type": "uint256"
        }
      ],
      "payable": false,
      "stateMutability": "view",
      "type": "function"
    },
    {
      "constant": true,
      "inputs": [],
      "name": "weiRaised",
      "outputs": [
        {
          "internalType": "uint256",
          "name": "",
          "type": "uint256"
        }
      ],
      "payable": false,
      "stateMutability": "view",
      "type": "function"
    },
    {
      "constant": true,
      "inputs": [],
      "name": "event_id",
      "outputs": [
        {
          "internalType": "uint256",
          "name": "",
          "type": "uint256"
        }
      ],
      "payable": false,
      "stateMutability": "view",
      "type": "function"
    },
    {
      "constant": true,
      "inputs": [],
      "name": "sale_limit",
      "outputs": [
        {
          "internalType": "uint256",
          "name": "",
          "type": "uint256"
        }
      ],
      "payable": false,
      "stateMutability": "view",
      "type": "function"
    },
    {
      "constant": true,
      "inputs": [],
      "name": "ticket_type",
      "outputs": [
        {
          "internalType": "uint256",
          "name": "",
          "type": "uint256"
        }
      ],
      "payable": false,
      "stateMutability": "view",
      "type": "function"
    },
    {
      "constant": true,
      "inputs": [],
      "name": "sold_count",
      "outputs": [
        {
          "internalType": "uint256",
          "name": "",
          "type": "uint256"
        }
      ],
      "payable": false,
      "stateMutability": "view",
      "type": "function"
    },
    {
      "constant": false,
      "inputs": [
        {
          "internalType": "address",
          "name": "beneficiary",
          "type": "address"
        }
      ],
      "name": "buyTokens",
      "outputs": [],
      "payable": true,
      "stateMutability": "payable",
      "type": "function"
    }
  ],
  "bytecode": "0x608060405260016002556000600455600560095534801561001f57600080fd5b50604051610ec9380380610ec9833981810160405260c081101561004257600080fd5b815160208301516040808501516060860151608087018051935195979496929591949193928201928464010000000082111561007d57600080fd5b90830190602082018581111561009257600080fd5b82516401000000008111828201881017156100ac57600080fd5b82525081516020918201929091019080838360005b838110156100d95781810151838201526020016100c1565b50505050905090810190601f1680156101065780820380516001836020036101000a031916815260200191505b50604052602001516000805460ff1916600117905591505085610170576040805162461bcd60e51b815260206004820152601460248201527f43726f776473616c653a20726174652069732030000000000000000000000000604482015290519081900360640190fd5b6001600160a01b0385166101b55760405162461bcd60e51b8152600401808060200182810382526025815260200180610ea46025913960400191505060405180910390fd5b6001600160a01b0384166101fa5760405162461bcd60e51b8152600401808060200182810382526024815260200180610e806024913960400191505060405180910390fd5b6007869055600580546001600160a01b03199081166001600160a01b038881169190911792839055600680549092168482161790915560008054610100600160a81b031916610100888416810291909117808355670de0b6b3a7640000880260035560408051631440364760e31b81529585166004870181815260248801928352895160448901528951949093049095169563a201b2389594899460649092019160208601918190849084905b838110156102bf5781810151838201526020016102a7565b50505050905090810190601f1680156102ec5780820380516001836020036101000a031916815260200191505b509350505050602060405180830381600087803b15801561030c57600080fd5b505af1158015610320573d6000803e3d6000fd5b505050506040513d602081101561033657600080fd5b5051600155505050505050610b30806103506000396000f3fe6080604052600436106100f35760003560e01c8063e61d95941161008a578063f9a4bb1e11610059578063f9a4bb1e14610240578063f9cfe26b14610255578063fbbdc4651461026a578063fc0c546a1461027f576100f3565b8063e61d9594146101db578063ec8ac4d8146101f0578063ecd0c0c314610216578063f00a93d31461022b576100f3565b8063610757e4116100c6578063610757e4146101875780636ed08ea01461019c57806391039dee146101b1578063e27920a8146101c6576100f3565b806323e6f340146101055780632c4e722e1461012c5780634042b66f14610141578063521eb27314610156575b6101036100fe610294565b610298565b005b34801561011157600080fd5b5061011a6103cf565b60408051918252519081900360200190f35b34801561013857600080fd5b5061011a6103d5565b34801561014d57600080fd5b5061011a6103db565b34801561016257600080fd5b5061016b6103e1565b604080516001600160a01b039092168252519081900360200190f35b34801561019357600080fd5b5061016b6103f0565b3480156101a857600080fd5b5061011a6103ff565b3480156101bd57600080fd5b5061011a610405565b3480156101d257600080fd5b5061011a61040b565b3480156101e757600080fd5b5061011a610411565b6101036004803603602081101561020657600080fd5b50356001600160a01b0316610298565b34801561022257600080fd5b5061016b610417565b34801561023757600080fd5b5061011a61042b565b34801561024c57600080fd5b5061016b610431565b34801561026157600080fd5b5061011a610440565b34801561027657600080fd5b5061011a610446565b34801561028b57600080fd5b5061016b61044c565b3390565b60005460ff166102ef576040805162461bcd60e51b815260206004820152601f60248201527f5265656e7472616e637947756172643a207265656e7472616e742063616c6c00604482015290519081900360640190fd5b6000805460ff19168155349061030482610460565b90506103118383836104d3565b600854610324908363ffffffff6105c616565b60085560045461033a908263ffffffff6105c616565b6004556103478382610629565b826001600160a01b0316610359610294565b6001600160a01b03167f6faf93231a456e552dbc9961f58d9713ee4f2e69d15f1975b050ef0911053a7b8484604051808381526020018281526020019250505060405180910390a36103ab8383610633565b6103b3610637565b6103bd8383610633565b50506000805460ff1916600117905550565b60025481565b60075490565b60085490565b6005546001600160a01b031690565b6005546001600160a01b031681565b60015481565b60015490565b60095481565b60045490565b60005461010090046001600160a01b031681565b60035490565b6006546001600160a01b031681565b60045481565b60025490565b60005461010090046001600160a01b031690565b60006007548210156104a35760405162461bcd60e51b815260040180806020018281038252602c815260200180610ad0602c913960400191505060405180910390fd5b6000670de0b6b3a7640000600754816104b857fe5b04670de0b6b3a76400008404816104cb57fe5b049392505050565b6001600160a01b0383166105185760405162461bcd60e51b815260040180806020018281038252602a815260200180610aa6602a913960400191505060405180910390fd5b8161056a576040805162461bcd60e51b815260206004820152601960248201527f43726f776473616c653a20776569416d6f756e74206973203000000000000000604482015290519081900360640190fd5b600454600354670de0b6b3a764000090910290828201908111156105bf5760405162461bcd60e51b815260040180806020018281038252602a815260200180610a5b602a913960400191505060405180910390fd5b5050505050565b600082820183811015610620576040805162461bcd60e51b815260206004820152601b60248201527f536166654d6174683a206164646974696f6e206f766572666c6f770000000000604482015290519081900360640190fd5b90505b92915050565b610633828261070b565b5050565b34606460006106468383610792565b60055460405194829003949192506001600160a01b03169084156108fc029085906000818181858888f19350505050158015610686573d6000803e3d6000fd5b506006546040516001600160a01b039091169082156108fc029083906000818181858888f193505050501580156106c1573d6000803e3d6000fd5b50604080518481526020810183905282850381830181905291517f8f4705a6d8c5af200050d845b50d0f90f838a179c62b9365daa314992598fc1b9181900360600190a150505050565b60008054600154600254604080516319a742bf60e31b81526001600160a01b0388811660048301526024820188905260448201949094526064810192909252516101009093049091169263cd3a15f89260848084019382900301818387803b15801561077657600080fd5b505af115801561078a573d6000803e3d6000fd5b505050505050565b60008061079f8484610879565b905060006107ad85856108bb565b905060006107bd60095486610879565b905060006107cd600954876108bb565b905060006107e46107de86856108fd565b886108fd565b905060006107f286846108fd565b9050600061080086866108fd565b9050600061080e87866108fd565b9050600061081d8b6002610879565b9050600061082b83836105c6565b90506000610839828e610879565b9050600061084788886105c6565b9050600061085582886105c6565b9050600061086382856105c6565b9e50505050505050505050505050505092915050565b600061062083836040518060400160405280601a81526020017f536166654d6174683a206469766973696f6e206279207a65726f000000000000815250610956565b600061062083836040518060400160405280601881526020017f536166654d6174683a206d6f64756c6f206279207a65726f00000000000000008152506109f8565b60008261090c57506000610623565b8282028284828161091957fe5b04146106205760405162461bcd60e51b8152600401808060200182810382526021815260200180610a856021913960400191505060405180910390fd5b600081836109e25760405162461bcd60e51b81526004018080602001828103825283818151815260200191508051906020019080838360005b838110156109a757818101518382015260200161098f565b50505050905090810190601f1680156109d45780820380516001836020036101000a031916815260200191505b509250505060405180910390fd5b5060008385816109ee57fe5b0495945050505050565b60008183610a475760405162461bcd60e51b81526020600482018181528351602484015283519092839260449091019190850190808383600083156109a757818101518382015260200161098f565b50828481610a5157fe5b0694935050505056fe746f6b656e7320616d6f756e742073686f756c64206e6f74206578636565642073616c655f6c696d6974536166654d6174683a206d756c7469706c69636174696f6e206f766572666c6f7743726f776473616c653a2062656e656669636961727920697320746865207a65726f206164647265737377656920616d6f756e742073686f756c6420626520626967676572206f7220657175616c206f662072617465a265627a7a7231582046c80221b39aaa37d3a170da434c44524db5d967bcfb64431df53558b0a8b47d64736f6c6343000511003243726f776473616c653a20746f6b656e20697320746865207a65726f206164647265737343726f776473616c653a2077616c6c657420697320746865207a65726f2061646472657373",
  "source": "pragma solidity ^0.5.11;\n\nimport '../../zeppeline/crowdsale/Crowdsale.sol';\nimport \"../../zeppeline/utils/ReentrancyGuard.sol\";\nimport \"../../zeppeline/math/SafeMath.sol\";\nimport \"../../zeppeline/GSN/Context.sol\";\nimport \"../../zeppeline/token/ERC721/IERC721Enumerable.sol\";\nimport \"../../zeppeline/drafts/Counters.sol\";\n\nimport './Ticket721.sol';\n\ncontract TokenSale721 is Context, ReentrancyGuard {\n\n\n    using SafeMath for uint256;\n    using SafeERC20 for IERC20;\n  //  using Counters for Counters.Counter;\n\n    // The token being sold\n    Ticket721 public _token;\n\n\n    //event_id\n    uint256 public _event_id;\n\n    // ticket type\n    uint public _ticket_type = 1;\n\n    // maximum amount of tickets to sale\n   // Counters.Counter public _current_limit;\n    uint _sale_limit;\n    // how much have been already sold\n    uint public _sold_count = 0;\n\n    // Address where funds are collected\n    address payable public _wallet;\n\n    // Address where we collect comission\n    address payable public treasure_fund;\n\n    // How many token units a buyer gets per wei.\n    // The rate is the conversion between wei and the smallest and indivisible token unit.\n    // So, if you are using a rate of 1 with a ERC20Detailed token with 3 decimals called TOK\n    // 1 wei will give you 1 unit, or 0.001 TOK.\n    uint256 private _rate;\n\n    // Amount of wei raised\n    uint256 private _weiRaised;\n\n    // service comission fee\n    uint public percent_fee = 5;\n\n\n    /**\n     * Event for token purchase logging\n     * @param purchaser who paid for the tokens\n     * @param beneficiary who got the tokens\n     * @param value weis paid for purchase\n     * @param amount amount of tokens purchased\n     */\n    event TokensPurchased(address indexed purchaser, address indexed beneficiary, uint256 value, uint256 amount);\n\n    event CalculatedFees(uint256 initial_value, uint256 fees, uint256 transfered_amount);\n\n\n    /**\n     * @param rate Number of token units a buyer gets per wei\n     * @dev The rate is the conversion between wei and the smallest and indivisible\n     * token unit. So, if you are using a rate of 1 with a ERC20Detailed token\n     * with 3 decimals called TOK, 1 wei will give you 1 unit, or 0.001 TOK.\n     * @param wallet Address where collected funds will be forwarded to\n     * @param token Address of the token being sold\n     */\n    constructor (uint256 rate, address payable wallet, Ticket721 token, uint sale_limit, string memory jid, address payable _treasure_fund) public {\n        require(rate > 0, \"Crowdsale: rate is 0\");\n        require(wallet != address(0), \"Crowdsale: wallet is the zero address\");\n        require(address(token) != address(0), \"Crowdsale: token is the zero address\");\n\n        _rate = rate;\n        _wallet = wallet;\n        treasure_fund = _treasure_fund;\n        _token = token;\n        _sale_limit = sale_limit * (1 ether);\n\n        _event_id = _token.reserveEventId(_wallet,jid);\n    }\n\n    /**\n     * @dev fallback function ***DO NOT OVERRIDE***\n     * Note that other contracts will transfer funds with a base gas stipend\n     * of 2300, which is not enough to call buyTokens. Consider calling\n     * buyTokens directly when purchasing tokens from a contract.\n     */\n    function() external payable {\n        buyTokens(_msgSender());\n    }\n\n    /**\n     * @return the token being sold.\n     */\n    function token() public view returns (Ticket721) {\n        return _token;\n    }\n\n    /**\n     * @return the address where funds are collected.\n     */\n    function wallet() public view returns (address payable) {\n        return _wallet;\n    }\n\n    /**\n     * @return the number of token units a buyer gets per wei.\n     */\n    function rate() public view returns (uint256) {\n        return _rate;\n    }\n\n    /**\n     * @return the amount of wei raised.\n     */\n    function weiRaised() public view returns (uint256) {\n        return _weiRaised;\n    }\n\n    function event_id() public view returns (uint256) {\n        return _event_id;\n    }\n\n    function sale_limit() public view returns (uint) {\n        return _sale_limit;\n    }\n\n    function ticket_type() public view returns (uint) {\n        return _ticket_type;\n    }\n\n    function sold_count() public view returns (uint) {\n        return _sold_count;\n    }\n\n    /**\n     * @dev low level token purchase ***DO NOT OVERRIDE***\n     * This function has a non-reentrancy guard, so it shouldn't be called by\n     * another `nonReentrant` function.\n     * @param beneficiary Recipient of the token purchase\n     */\n    function buyTokens(address beneficiary) public nonReentrant payable {\n        uint256 weiAmount = msg.value;\n\n        // calculate token amount to be created\n        uint256 tokens = _getTokenAmount(weiAmount);\n\n        _preValidatePurchase(beneficiary, weiAmount, tokens);\n\n        // update state\n        _weiRaised = _weiRaised.add(weiAmount);\n        _sold_count = _sold_count.add(tokens);\n\n        _processPurchase(beneficiary, tokens);\n        emit TokensPurchased(_msgSender(), beneficiary, weiAmount, tokens);\n\n        _updatePurchasingState(beneficiary, weiAmount);\n\n        _forwardFunds();\n        _postValidatePurchase(beneficiary, weiAmount);\n    }\n\n    /**\n     * @dev Validation of an incoming purchase. Use require statements to revert state when conditions are not met.\n     * Use `super` in contracts that inherit from Crowdsale to extend their validations.\n     * Example from CappedCrowdsale.sol's _preValidatePurchase method:\n     *     super._preValidatePurchase(beneficiary, weiAmount);\n     *     require(weiRaised().add(weiAmount) <= cap);\n     * @param beneficiary Address performing the token purchase\n     * @param weiAmount Value in wei involved in the purchase\n     */\n    function _preValidatePurchase(address beneficiary, uint256 weiAmount, uint256 tokens) internal view {\n        require(beneficiary != address(0), \"Crowdsale: beneficiary is the zero address\");\n        require(weiAmount != 0, \"Crowdsale: weiAmount is 0\");\n        uint sc = _sold_count * (1 ether);\n        uint limit = sc + tokens;\n        require(limit <= _sale_limit, \"tokens amount should not exceed sale_limit\");\n        this; // silence state mutability warning without generating bytecode - see https://github.com/ethereum/solidity/issues/2691\n    }\n\n    /**\n     * @dev Validation of an executed purchase. Observe state and use revert statements to undo rollback when valid\n     * conditions are not met.\n     * @param beneficiary Address performing the token purchase\n     * @param weiAmount Value in wei involved in the purchase\n     */\n    function _postValidatePurchase(address beneficiary, uint256 weiAmount) internal view {\n        // solhint-disable-previous-line no-empty-blocks\n    }\n\n    /**\n     * @dev Source of tokens. Override this method to modify the way in which the crowdsale ultimately gets and sends\n     * its tokens.\n     * @param beneficiary Address performing the token purchase\n     * @param tokenAmount Number of tokens to be emitted\n     */\n    function _deliverTokens(address beneficiary, uint256 tokenAmount) internal {\n        _token.buyTicket(beneficiary,tokenAmount, _event_id, _ticket_type);\n    }\n\n    /**\n     * @dev Executed when a purchase has been validated and is ready to be executed. Doesn't necessarily emit/send\n     * tokens.\n     * @param beneficiary Address receiving the tokens\n     * @param tokenAmount Number of tokens to be purchased\n     */\n    function _processPurchase(address beneficiary, uint256 tokenAmount) internal {\n        _deliverTokens(beneficiary, tokenAmount);\n    }\n\n    /**\n     * @dev Override for extensions that require an internal state to check for validity (current user contributions,\n     * etc.)\n     * @param beneficiary Address receiving the tokens\n     * @param weiAmount Value in wei involved in the purchase\n     */\n    function _updatePurchasingState(address beneficiary, uint256 weiAmount) internal {\n        // solhint-disable-previous-line no-empty-blocks\n    }\n\n    /**\n     * @dev Override to extend the way in which ether is converted to tokens.\n     * @param weiAmount Value in wei to be converted into tokens\n     * @return Number of tokens that can be purchased with the specified _weiAmount\n     */\n    function _getTokenAmount(uint256 weiAmount) internal view returns (uint256) {\n      //  require(condition, message);\n        require(weiAmount >= _rate, \"wei amount should be bigger or equal of rate\");\n       // uint256 ta = SafeMath.mul(weiAmount, _rate);\n        uint256 ta = (weiAmount / (1 ether)) / (_rate / (1 ether));\n        return ta;\n       // return weiAmount.mul(_rate);\n        //FIXME: round result to int, check math\n    }\n\n    /**\n     * @dev Determines how ETH is stored/forwarded on purchases.\n     */\n    function _forwardFunds() internal {\n        uint256 amount = msg.value;\n        uint256 scale = 100;\n        uint256 fees = calculateFee(amount,scale);\n        amount = amount - fees;\n        _wallet.transfer(amount);\n        treasure_fund.transfer(fees);\n        uint256 r = amount - fees;\n        emit CalculatedFees(amount,fees,r);\n    }\n\n\n\n    /*\n    *   EXAMPLE OF TAKING FEE (BASIC OPERATORS)\n    *\n    // calculate percent -- amount * percent / 100\n    function calculateFee(uint256 amount, uint256 scale) internal view returns (uint256) {\n        uint a = amount / scale;\n        uint b = amount % scale;\n        uint c = percent_fee / scale;\n        uint d = percent_fee % scale;\n\n        // Calculate fee with ROUND DOWN\n       // return a * c * scale + a * d + b * c + b * d / scale;\n\n       // calculate fee with ROUND UP\n     //   return a * c * scale + a * d + b * c + (b * d + scale - 1) / scale;\n\n     //calculate fee with CLOSESTS INTEGER\n        return a * c * scale + a * d + b * c + (b * d + scale / 2) / scale;\n\n    }\n    */\n\n\n    /*\n    *   Calculate fee (SafeMath)\n    */\n    function calculateFee(uint256 amount, uint256 scale) internal view returns (uint256) {\n        uint256 a = SafeMath.div(amount, scale);\n        uint256 b = SafeMath.mod(amount, scale);\n        uint256 c = SafeMath.div(percent_fee, scale);\n        uint256 d = SafeMath.mod(percent_fee, scale);\n\n        // Calculate fee with ROUND DOWN\n       // return a * c * scale + a * d + b * c + b * d / scale;\n\n       // calculate fee with ROUND UP\n     //   return a * c * scale + a * d + b * c + (b * d + scale - 1) / scale;\n\n     //calculate fee with CLOSESTS INTEGER\n       // return a * c * scale + a * d + b * c + (b * d + scale / 2) / scale;\n        uint256 m1 = SafeMath.mul(SafeMath.mul(a,c), scale);\n        uint256 m2 = SafeMath.mul(a,d);\n        uint256 m3 = SafeMath.mul(b,c);\n        uint m4 = SafeMath.mul(b,d);\n\n        uint256 d1 = SafeMath.div(scale,2);\n\n        uint256 a1 = SafeMath.add(m4,d1);\n        uint256 d2 = SafeMath.div(a1,scale);\n        uint256 a2 = SafeMath.add(m1,m2);\n        uint256 a3 = SafeMath.add(a2,m3);\n        uint256 a4 = SafeMath.add(a3,d2);\n        return a4;\n    }\n\n\n\n\n\n}",
  "sourcePath": "/home/jack/ethProjects/MS-Factory/contracts/721/singleton/TokenSale721.sol",
  "compiler": {
    "name": "solc",
    "version": "0.5.17+commit.d19bba13.Emscripten.clang"
  },
  "schemaVersion": "3.0.11",
  "updatedAt": "2020-06-11T16:52:45.007Z",
  "devdoc": {
    "methods": {
      "buyTokens(address)": {
        "details": "low level token purchase ***DO NOT OVERRIDE*** This function has a non-reentrancy guard, so it shouldn't be called by another `nonReentrant` function.",
        "params": {
          "beneficiary": "Recipient of the token purchase"
        }
      },
      "constructor": {
        "details": "The rate is the conversion between wei and the smallest and indivisible token unit. So, if you are using a rate of 1 with a ERC20Detailed token with 3 decimals called TOK, 1 wei will give you 1 unit, or 0.001 TOK.",
        "params": {
          "rate": "Number of token units a buyer gets per wei",
          "token": "Address of the token being sold",
          "wallet": "Address where collected funds will be forwarded to"
        }
      },
      "rate()": {
        "return": "the number of token units a buyer gets per wei."
      },
      "token()": {
        "return": "the token being sold."
      },
      "wallet()": {
        "return": "the address where funds are collected."
      },
      "weiRaised()": {
        "return": "the amount of wei raised."
      }
    }
  },
  "userdoc": {
    "methods": {}
  }
}